{
	"Debts-no-interface.sol": {
		"Debts": {
			"abi": [
				{
					"inputs": [],
					"stateMutability": "nonpayable",
					"type": "constructor"
				},
				{
					"anonymous": false,
					"inputs": [],
					"name": "aliasAddedEvent",
					"type": "event"
				},
				{
					"anonymous": false,
					"inputs": [],
					"name": "paidEvent",
					"type": "event"
				},
				{
					"inputs": [
						{
							"internalType": "string",
							"name": "_alias",
							"type": "string"
						},
						{
							"internalType": "string",
							"name": "_name",
							"type": "string"
						}
					],
					"name": "addAlias",
					"outputs": [],
					"stateMutability": "nonpayable",
					"type": "function"
				},
				{
					"inputs": [
						{
							"internalType": "address",
							"name": "",
							"type": "address"
						}
					],
					"name": "addressHasEntry",
					"outputs": [
						{
							"internalType": "bool",
							"name": "",
							"type": "bool"
						}
					],
					"stateMutability": "view",
					"type": "function"
				},
				{
					"inputs": [
						{
							"internalType": "string",
							"name": "",
							"type": "string"
						}
					],
					"name": "aliasHasEntry",
					"outputs": [
						{
							"internalType": "bool",
							"name": "",
							"type": "bool"
						}
					],
					"stateMutability": "view",
					"type": "function"
				},
				{
					"inputs": [
						{
							"internalType": "uint256",
							"name": "",
							"type": "uint256"
						}
					],
					"name": "entries",
					"outputs": [
						{
							"internalType": "uint256",
							"name": "id",
							"type": "uint256"
						},
						{
							"internalType": "string",
							"name": "thealias",
							"type": "string"
						},
						{
							"internalType": "string",
							"name": "name",
							"type": "string"
						},
						{
							"internalType": "address",
							"name": "addr",
							"type": "address"
						},
						{
							"internalType": "int256",
							"name": "balance",
							"type": "int256"
						}
					],
					"stateMutability": "view",
					"type": "function"
				},
				{
					"inputs": [
						{
							"internalType": "address",
							"name": "",
							"type": "address"
						}
					],
					"name": "findByAddress",
					"outputs": [
						{
							"internalType": "uint256",
							"name": "",
							"type": "uint256"
						}
					],
					"stateMutability": "view",
					"type": "function"
				},
				{
					"inputs": [
						{
							"internalType": "string",
							"name": "",
							"type": "string"
						}
					],
					"name": "findByAlias",
					"outputs": [
						{
							"internalType": "uint256",
							"name": "",
							"type": "uint256"
						}
					],
					"stateMutability": "view",
					"type": "function"
				},
				{
					"inputs": [],
					"name": "num_entries",
					"outputs": [
						{
							"internalType": "uint256",
							"name": "",
							"type": "uint256"
						}
					],
					"stateMutability": "view",
					"type": "function"
				},
				{
					"inputs": [
						{
							"internalType": "string",
							"name": "_alias",
							"type": "string"
						},
						{
							"internalType": "int256",
							"name": "amount",
							"type": "int256"
						}
					],
					"name": "payToAlias",
					"outputs": [],
					"stateMutability": "nonpayable",
					"type": "function"
				}
			],
			"devdoc": {
				"kind": "dev",
				"methods": {},
				"version": 1
			},
			"evm": {
				"assembly": "    /* \"Debts-no-interface.sol\":197:3702  contract Debts {... */\n  mstore(0x40, 0x80)\n    /* \"Debts-no-interface.sol\":1487:1508  constructor() {... */\n  callvalue\n  dup1\n  iszero\n  tag_1\n  jumpi\n  0x00\n  dup1\n  revert\ntag_1:\n  pop\n    /* \"Debts-no-interface.sol\":197:3702  contract Debts {... */\n  dataSize(sub_0)\n  dup1\n  dataOffset(sub_0)\n  0x00\n  codecopy\n  0x00\n  return\nstop\n\nsub_0: assembly {\n        /* \"Debts-no-interface.sol\":197:3702  contract Debts {... */\n      mstore(0x40, 0x80)\n      callvalue\n      dup1\n      iszero\n      tag_1\n      jumpi\n      0x00\n      dup1\n      revert\n    tag_1:\n      pop\n      jumpi(tag_2, lt(calldatasize, 0x04))\n      shr(0xe0, calldataload(0x00))\n      dup1\n      0x94bbfc0d\n      gt\n      tag_11\n      jumpi\n      dup1\n      0x94bbfc0d\n      eq\n      tag_7\n      jumpi\n      dup1\n      0xb30906d4\n      eq\n      tag_8\n      jumpi\n      dup1\n      0xb7f1d527\n      eq\n      tag_9\n      jumpi\n      dup1\n      0xd72115dc\n      eq\n      tag_10\n      jumpi\n      jump(tag_2)\n    tag_11:\n      dup1\n      0x073f98fd\n      eq\n      tag_3\n      jumpi\n      dup1\n      0x31f9a55f\n      eq\n      tag_4\n      jumpi\n      dup1\n      0x76f30f78\n      eq\n      tag_5\n      jumpi\n      dup1\n      0x7d210103\n      eq\n      tag_6\n      jumpi\n    tag_2:\n      0x00\n      dup1\n      revert\n        /* \"Debts-no-interface.sol\":939:987  mapping (address => bool) public addressHasEntry */\n    tag_3:\n      tag_12\n      0x04\n      dup1\n      calldatasize\n      sub\n      dup2\n      add\n      swap1\n      tag_13\n      swap2\n      swap1\n      tag_14\n      jump\t// in\n    tag_13:\n      tag_15\n      jump\t// in\n    tag_12:\n      mload(0x40)\n      tag_16\n      swap2\n      swap1\n      tag_17\n      jump\t// in\n    tag_16:\n      mload(0x40)\n      dup1\n      swap2\n      sub\n      swap1\n      return\n        /* \"Debts-no-interface.sol\":1192:1235  mapping (string => uint) public findByAlias */\n    tag_4:\n      tag_18\n      0x04\n      dup1\n      calldatasize\n      sub\n      dup2\n      add\n      swap1\n      tag_19\n      swap2\n      swap1\n      tag_20\n      jump\t// in\n    tag_19:\n      tag_21\n      jump\t// in\n    tag_18:\n      mload(0x40)\n      tag_22\n      swap2\n      swap1\n      tag_23\n      jump\t// in\n    tag_22:\n      mload(0x40)\n      dup1\n      swap2\n      sub\n      swap1\n      return\n        /* \"Debts-no-interface.sol\":1052:1097  mapping (string => bool) public aliasHasEntry */\n    tag_5:\n      tag_24\n      0x04\n      dup1\n      calldatasize\n      sub\n      dup2\n      add\n      swap1\n      tag_25\n      swap2\n      swap1\n      tag_20\n      jump\t// in\n    tag_25:\n      tag_26\n      jump\t// in\n    tag_24:\n      mload(0x40)\n      tag_27\n      swap2\n      swap1\n      tag_17\n      jump\t// in\n    tag_27:\n      mload(0x40)\n      dup1\n      swap2\n      sub\n      swap1\n      return\n        /* \"Debts-no-interface.sol\":2620:3699  function payToAlias (string memory _alias, int amount) public {... */\n    tag_6:\n      tag_28\n      0x04\n      dup1\n      calldatasize\n      sub\n      dup2\n      add\n      swap1\n      tag_29\n      swap2\n      swap1\n      tag_30\n      jump\t// in\n    tag_29:\n      tag_31\n      jump\t// in\n    tag_28:\n      stop\n        /* \"Debts-no-interface.sol\":1350:1396  mapping (address => uint) public findByAddress */\n    tag_7:\n      tag_32\n      0x04\n      dup1\n      calldatasize\n      sub\n      dup2\n      add\n      swap1\n      tag_33\n      swap2\n      swap1\n      tag_14\n      jump\t// in\n    tag_33:\n      tag_34\n      jump\t// in\n    tag_32:\n      mload(0x40)\n      tag_35\n      swap2\n      swap1\n      tag_23\n      jump\t// in\n    tag_35:\n      mload(0x40)\n      dup1\n      swap2\n      sub\n      swap1\n      return\n        /* \"Debts-no-interface.sol\":826:864  mapping (uint => Entry) public entries */\n    tag_8:\n      tag_36\n      0x04\n      dup1\n      calldatasize\n      sub\n      dup2\n      add\n      swap1\n      tag_37\n      swap2\n      swap1\n      tag_38\n      jump\t// in\n    tag_37:\n      tag_39\n      jump\t// in\n    tag_36:\n      mload(0x40)\n      tag_40\n      swap6\n      swap5\n      swap4\n      swap3\n      swap2\n      swap1\n      tag_41\n      jump\t// in\n    tag_40:\n      mload(0x40)\n      dup1\n      swap2\n      sub\n      swap1\n      return\n        /* \"Debts-no-interface.sol\":1456:1479  uint public num_entries */\n    tag_9:\n      tag_42\n      tag_43\n      jump\t// in\n    tag_42:\n      mload(0x40)\n      tag_44\n      swap2\n      swap1\n      tag_23\n      jump\t// in\n    tag_44:\n      mload(0x40)\n      dup1\n      swap2\n      sub\n      swap1\n      return\n        /* \"Debts-no-interface.sol\":1515:2613  function addAlias (string memory _alias, string memory _name) public {... */\n    tag_10:\n      tag_45\n      0x04\n      dup1\n      calldatasize\n      sub\n      dup2\n      add\n      swap1\n      tag_46\n      swap2\n      swap1\n      tag_47\n      jump\t// in\n    tag_46:\n      tag_48\n      jump\t// in\n    tag_45:\n      stop\n        /* \"Debts-no-interface.sol\":939:987  mapping (address => bool) public addressHasEntry */\n    tag_15:\n      mstore(0x20, 0x01)\n      dup1\n      0x00\n      mstore\n      keccak256(0x00, 0x40)\n      0x00\n      swap2\n      pop\n      sload\n      swap1\n      0x0100\n      exp\n      swap1\n      div\n      0xff\n      and\n      dup2\n      jump\t// out\n        /* \"Debts-no-interface.sol\":1192:1235  mapping (string => uint) public findByAlias */\n    tag_21:\n      0x03\n      dup2\n      dup1\n      mload\n      0x20\n      dup2\n      add\n      dup3\n      add\n      dup1\n      mload\n      dup5\n      dup3\n      mstore\n      0x20\n      dup4\n      add\n      0x20\n      dup6\n      add\n      keccak256\n      dup2\n      dup4\n      mstore\n      dup1\n      swap6\n      pop\n      pop\n      pop\n      pop\n      pop\n      pop\n      0x00\n      swap2\n      pop\n      swap1\n      pop\n      sload\n      dup2\n      jump\t// out\n        /* \"Debts-no-interface.sol\":1052:1097  mapping (string => bool) public aliasHasEntry */\n    tag_26:\n      0x02\n      dup2\n      dup1\n      mload\n      0x20\n      dup2\n      add\n      dup3\n      add\n      dup1\n      mload\n      dup5\n      dup3\n      mstore\n      0x20\n      dup4\n      add\n      0x20\n      dup6\n      add\n      keccak256\n      dup2\n      dup4\n      mstore\n      dup1\n      swap6\n      pop\n      pop\n      pop\n      pop\n      pop\n      pop\n      0x00\n      swap2\n      pop\n      sload\n      swap1\n      0x0100\n      exp\n      swap1\n      div\n      0xff\n      and\n      dup2\n      jump\t// out\n        /* \"Debts-no-interface.sol\":2620:3699  function payToAlias (string memory _alias, int amount) public {... */\n    tag_31:\n        /* \"Debts-no-interface.sol\":2754:2758  -100 */\n      0xffffffffffffffffffffffffffffffffffffffffffffffffffffffffffffff9c\n        /* \"Debts-no-interface.sol\":2744:2750  amount */\n      dup2\n        /* \"Debts-no-interface.sol\":2744:2758  amount >= -100 */\n      slt\n      iszero\n        /* \"Debts-no-interface.sol\":2744:2775  amount >= -100 && amount <= 100 */\n      dup1\n      iszero\n      tag_50\n      jumpi\n      pop\n        /* \"Debts-no-interface.sol\":2772:2775  100 */\n      0x64\n        /* \"Debts-no-interface.sol\":2762:2768  amount */\n      dup2\n        /* \"Debts-no-interface.sol\":2762:2775  amount <= 100 */\n      sgt\n      iszero\n        /* \"Debts-no-interface.sol\":2744:2775  amount >= -100 && amount <= 100 */\n    tag_50:\n        /* \"Debts-no-interface.sol\":2735:2816  require (amount >= -100 && amount <= 100, \"Amounts must be between -100 and 100\") */\n      tag_51\n      jumpi\n      mload(0x40)\n      0x08c379a000000000000000000000000000000000000000000000000000000000\n      dup2\n      mstore\n      0x04\n      add\n      tag_52\n      swap1\n      tag_53\n      jump\t// in\n    tag_52:\n      mload(0x40)\n      dup1\n      swap2\n      sub\n      swap1\n      revert\n    tag_51:\n        /* \"Debts-no-interface.sol\":2878:2879  0 */\n      0x00\n        /* \"Debts-no-interface.sol\":2868:2874  amount */\n      dup2\n        /* \"Debts-no-interface.sol\":2868:2879  amount != 0 */\n      sub\n        /* \"Debts-no-interface.sol\":2859:2905  require (amount != 0, \"amount cannot be zero\") */\n      tag_54\n      jumpi\n      mload(0x40)\n      0x08c379a000000000000000000000000000000000000000000000000000000000\n      dup2\n      mstore\n      0x04\n      add\n      tag_55\n      swap1\n      tag_56\n      jump\t// in\n    tag_55:\n      mload(0x40)\n      dup1\n      swap2\n      sub\n      swap1\n      revert\n    tag_54:\n        /* \"Debts-no-interface.sol\":2970:2985  addressHasEntry */\n      0x01\n        /* \"Debts-no-interface.sol\":2970:2997  addressHasEntry[msg.sender] */\n      0x00\n        /* \"Debts-no-interface.sol\":2986:2996  msg.sender */\n      caller\n        /* \"Debts-no-interface.sol\":2970:2997  addressHasEntry[msg.sender] */\n      0xffffffffffffffffffffffffffffffffffffffff\n      and\n      0xffffffffffffffffffffffffffffffffffffffff\n      and\n      dup2\n      mstore\n      0x20\n      add\n      swap1\n      dup2\n      mstore\n      0x20\n      add\n      0x00\n      keccak256\n      0x00\n      swap1\n      sload\n      swap1\n      0x0100\n      exp\n      swap1\n      div\n      0xff\n      and\n        /* \"Debts-no-interface.sol\":2962:3037  require(addressHasEntry[msg.sender], \"your address does not have an alias\") */\n      tag_57\n      jumpi\n      mload(0x40)\n      0x08c379a000000000000000000000000000000000000000000000000000000000\n      dup2\n      mstore\n      0x04\n      add\n      tag_58\n      swap1\n      tag_59\n      jump\t// in\n    tag_58:\n      mload(0x40)\n      dup1\n      swap2\n      sub\n      swap1\n      revert\n    tag_57:\n        /* \"Debts-no-interface.sol\":3106:3119  aliasHasEntry */\n      0x02\n        /* \"Debts-no-interface.sol\":3120:3126  _alias */\n      dup3\n        /* \"Debts-no-interface.sol\":3106:3127  aliasHasEntry[_alias] */\n      mload(0x40)\n      tag_60\n      swap2\n      swap1\n      tag_61\n      jump\t// in\n    tag_60:\n      swap1\n      dup2\n      mstore\n      0x20\n      add\n      mload(0x40)\n      dup1\n      swap2\n      sub\n      swap1\n      keccak256\n      0x00\n      swap1\n      sload\n      swap1\n      0x0100\n      exp\n      swap1\n      div\n      0xff\n      and\n        /* \"Debts-no-interface.sol\":3098:3164  require(aliasHasEntry[_alias], \"string entry name does not exist\") */\n      tag_62\n      jumpi\n      mload(0x40)\n      0x08c379a000000000000000000000000000000000000000000000000000000000\n      dup2\n      mstore\n      0x04\n      add\n      tag_63\n      swap1\n      tag_64\n      jump\t// in\n    tag_63:\n      mload(0x40)\n      dup1\n      swap2\n      sub\n      swap1\n      revert\n    tag_62:\n        /* \"Debts-no-interface.sol\":3253:3262  uint from */\n      0x00\n        /* \"Debts-no-interface.sol\":3265:3278  findByAddress */\n      0x04\n        /* \"Debts-no-interface.sol\":3265:3290  findByAddress[msg.sender] */\n      0x00\n        /* \"Debts-no-interface.sol\":3279:3289  msg.sender */\n      caller\n        /* \"Debts-no-interface.sol\":3265:3290  findByAddress[msg.sender] */\n      0xffffffffffffffffffffffffffffffffffffffff\n      and\n      0xffffffffffffffffffffffffffffffffffffffff\n      and\n      dup2\n      mstore\n      0x20\n      add\n      swap1\n      dup2\n      mstore\n      0x20\n      add\n      0x00\n      keccak256\n      sload\n        /* \"Debts-no-interface.sol\":3253:3290  uint from = findByAddress[msg.sender] */\n      swap1\n      pop\n        /* \"Debts-no-interface.sol\":3357:3364  uint to */\n      0x00\n        /* \"Debts-no-interface.sol\":3367:3378  findByAlias */\n      0x03\n        /* \"Debts-no-interface.sol\":3379:3385  _alias */\n      dup5\n        /* \"Debts-no-interface.sol\":3367:3386  findByAlias[_alias] */\n      mload(0x40)\n      tag_65\n      swap2\n      swap1\n      tag_61\n      jump\t// in\n    tag_65:\n      swap1\n      dup2\n      mstore\n      0x20\n      add\n      mload(0x40)\n      dup1\n      swap2\n      sub\n      swap1\n      keccak256\n      sload\n        /* \"Debts-no-interface.sol\":3357:3386  uint to = findByAlias[_alias] */\n      swap1\n      pop\n        /* \"Debts-no-interface.sol\":3471:3481  msg.sender */\n      caller\n        /* \"Debts-no-interface.sol\":3453:3481  entries[to].addr!=msg.sender */\n      0xffffffffffffffffffffffffffffffffffffffff\n      and\n        /* \"Debts-no-interface.sol\":3453:3460  entries */\n      0x00\n        /* \"Debts-no-interface.sol\":3453:3464  entries[to] */\n      dup1\n        /* \"Debts-no-interface.sol\":3461:3463  to */\n      dup4\n        /* \"Debts-no-interface.sol\":3453:3464  entries[to] */\n      dup2\n      mstore\n      0x20\n      add\n      swap1\n      dup2\n      mstore\n      0x20\n      add\n      0x00\n      keccak256\n        /* \"Debts-no-interface.sol\":3453:3469  entries[to].addr */\n      0x03\n      add\n      0x00\n      swap1\n      sload\n      swap1\n      0x0100\n      exp\n      swap1\n      div\n      0xffffffffffffffffffffffffffffffffffffffff\n      and\n        /* \"Debts-no-interface.sol\":3453:3481  entries[to].addr!=msg.sender */\n      0xffffffffffffffffffffffffffffffffffffffff\n      and\n      sub\n        /* \"Debts-no-interface.sol\":3445:3521  require(entries[to].addr!=msg.sender, \"you cannot enter a debt to yourself\") */\n      tag_66\n      jumpi\n      mload(0x40)\n      0x08c379a000000000000000000000000000000000000000000000000000000000\n      dup2\n      mstore\n      0x04\n      add\n      tag_67\n      swap1\n      tag_68\n      jump\t// in\n    tag_67:\n      mload(0x40)\n      dup1\n      swap2\n      sub\n      swap1\n      revert\n    tag_66:\n        /* \"Debts-no-interface.sol\":3595:3601  amount */\n      dup3\n        /* \"Debts-no-interface.sol\":3570:3577  entries */\n      0x00\n        /* \"Debts-no-interface.sol\":3570:3583  entries[from] */\n      dup1\n        /* \"Debts-no-interface.sol\":3578:3582  from */\n      dup5\n        /* \"Debts-no-interface.sol\":3570:3583  entries[from] */\n      dup2\n      mstore\n      0x20\n      add\n      swap1\n      dup2\n      mstore\n      0x20\n      add\n      0x00\n      keccak256\n        /* \"Debts-no-interface.sol\":3570:3591  entries[from].balance */\n      0x04\n      add\n      0x00\n        /* \"Debts-no-interface.sol\":3570:3601  entries[from].balance += amount */\n      dup3\n      dup3\n      sload\n      tag_69\n      swap2\n      swap1\n      tag_70\n      jump\t// in\n    tag_69:\n      swap3\n      pop\n      pop\n      dup2\n      swap1\n      sstore\n      pop\n        /* \"Debts-no-interface.sol\":3634:3640  amount */\n      dup3\n        /* \"Debts-no-interface.sol\":3611:3618  entries */\n      0x00\n        /* \"Debts-no-interface.sol\":3611:3622  entries[to] */\n      dup1\n        /* \"Debts-no-interface.sol\":3619:3621  to */\n      dup4\n        /* \"Debts-no-interface.sol\":3611:3622  entries[to] */\n      dup2\n      mstore\n      0x20\n      add\n      swap1\n      dup2\n      mstore\n      0x20\n      add\n      0x00\n      keccak256\n        /* \"Debts-no-interface.sol\":3611:3630  entries[to].balance */\n      0x04\n      add\n      0x00\n        /* \"Debts-no-interface.sol\":3611:3640  entries[to].balance -= amount */\n      dup3\n      dup3\n      sload\n      tag_71\n      swap2\n      swap1\n      tag_72\n      jump\t// in\n    tag_71:\n      swap3\n      pop\n      pop\n      dup2\n      swap1\n      sstore\n      pop\n        /* \"Debts-no-interface.sol\":3681:3692  paidEvent() */\n      0x82b7f5026f6c6bbca9f5352b675d81ff78ea25c87a86b9f68bb8310945a11ebc\n      mload(0x40)\n      mload(0x40)\n      dup1\n      swap2\n      sub\n      swap1\n      log1\n        /* \"Debts-no-interface.sol\":2682:3699  {... */\n      pop\n      pop\n        /* \"Debts-no-interface.sol\":2620:3699  function payToAlias (string memory _alias, int amount) public {... */\n      pop\n      pop\n      jump\t// out\n        /* \"Debts-no-interface.sol\":1350:1396  mapping (address => uint) public findByAddress */\n    tag_34:\n      mstore(0x20, 0x04)\n      dup1\n      0x00\n      mstore\n      keccak256(0x00, 0x40)\n      0x00\n      swap2\n      pop\n      swap1\n      pop\n      sload\n      dup2\n      jump\t// out\n        /* \"Debts-no-interface.sol\":826:864  mapping (uint => Entry) public entries */\n    tag_39:\n      mstore(0x20, 0x00)\n      dup1\n      0x00\n      mstore\n      keccak256(0x00, 0x40)\n      0x00\n      swap2\n      pop\n      swap1\n      pop\n      dup1\n      0x00\n      add\n      sload\n      swap1\n      dup1\n      0x01\n      add\n      dup1\n      sload\n      tag_73\n      swap1\n      tag_74\n      jump\t// in\n    tag_73:\n      dup1\n      0x1f\n      add\n      0x20\n      dup1\n      swap2\n      div\n      mul\n      0x20\n      add\n      mload(0x40)\n      swap1\n      dup2\n      add\n      0x40\n      mstore\n      dup1\n      swap3\n      swap2\n      swap1\n      dup2\n      dup2\n      mstore\n      0x20\n      add\n      dup3\n      dup1\n      sload\n      tag_75\n      swap1\n      tag_74\n      jump\t// in\n    tag_75:\n      dup1\n      iszero\n      tag_76\n      jumpi\n      dup1\n      0x1f\n      lt\n      tag_77\n      jumpi\n      0x0100\n      dup1\n      dup4\n      sload\n      div\n      mul\n      dup4\n      mstore\n      swap2\n      0x20\n      add\n      swap2\n      jump(tag_76)\n    tag_77:\n      dup3\n      add\n      swap2\n      swap1\n      0x00\n      mstore\n      keccak256(0x00, 0x20)\n      swap1\n    tag_78:\n      dup2\n      sload\n      dup2\n      mstore\n      swap1\n      0x01\n      add\n      swap1\n      0x20\n      add\n      dup1\n      dup4\n      gt\n      tag_78\n      jumpi\n      dup3\n      swap1\n      sub\n      0x1f\n      and\n      dup3\n      add\n      swap2\n    tag_76:\n      pop\n      pop\n      pop\n      pop\n      pop\n      swap1\n      dup1\n      0x02\n      add\n      dup1\n      sload\n      tag_79\n      swap1\n      tag_74\n      jump\t// in\n    tag_79:\n      dup1\n      0x1f\n      add\n      0x20\n      dup1\n      swap2\n      div\n      mul\n      0x20\n      add\n      mload(0x40)\n      swap1\n      dup2\n      add\n      0x40\n      mstore\n      dup1\n      swap3\n      swap2\n      swap1\n      dup2\n      dup2\n      mstore\n      0x20\n      add\n      dup3\n      dup1\n      sload\n      tag_80\n      swap1\n      tag_74\n      jump\t// in\n    tag_80:\n      dup1\n      iszero\n      tag_81\n      jumpi\n      dup1\n      0x1f\n      lt\n      tag_82\n      jumpi\n      0x0100\n      dup1\n      dup4\n      sload\n      div\n      mul\n      dup4\n      mstore\n      swap2\n      0x20\n      add\n      swap2\n      jump(tag_81)\n    tag_82:\n      dup3\n      add\n      swap2\n      swap1\n      0x00\n      mstore\n      keccak256(0x00, 0x20)\n      swap1\n    tag_83:\n      dup2\n      sload\n      dup2\n      mstore\n      swap1\n      0x01\n      add\n      swap1\n      0x20\n      add\n      dup1\n      dup4\n      gt\n      tag_83\n      jumpi\n      dup3\n      swap1\n      sub\n      0x1f\n      and\n      dup3\n      add\n      swap2\n    tag_81:\n      pop\n      pop\n      pop\n      pop\n      pop\n      swap1\n      dup1\n      0x03\n      add\n      0x00\n      swap1\n      sload\n      swap1\n      0x0100\n      exp\n      swap1\n      div\n      0xffffffffffffffffffffffffffffffffffffffff\n      and\n      swap1\n      dup1\n      0x04\n      add\n      sload\n      swap1\n      pop\n      dup6\n      jump\t// out\n        /* \"Debts-no-interface.sol\":1456:1479  uint public num_entries */\n    tag_43:\n      sload(0x05)\n      dup2\n      jump\t// out\n        /* \"Debts-no-interface.sol\":1515:2613  function addAlias (string memory _alias, string memory _name) public {... */\n    tag_48:\n        /* \"Debts-no-interface.sol\":1664:1677  aliasHasEntry */\n      0x02\n        /* \"Debts-no-interface.sol\":1678:1684  _alias */\n      dup3\n        /* \"Debts-no-interface.sol\":1664:1685  aliasHasEntry[_alias] */\n      mload(0x40)\n      tag_85\n      swap2\n      swap1\n      tag_61\n      jump\t// in\n    tag_85:\n      swap1\n      dup2\n      mstore\n      0x20\n      add\n      mload(0x40)\n      dup1\n      swap2\n      sub\n      swap1\n      keccak256\n      0x00\n      swap1\n      sload\n      swap1\n      0x0100\n      exp\n      swap1\n      div\n      0xff\n      and\n        /* \"Debts-no-interface.sol\":1663:1685  !aliasHasEntry[_alias] */\n      iszero\n        /* \"Debts-no-interface.sol\":1655:1722  require(!aliasHasEntry[_alias], \"string entry name already exists\") */\n      tag_86\n      jumpi\n      mload(0x40)\n      0x08c379a000000000000000000000000000000000000000000000000000000000\n      dup2\n      mstore\n      0x04\n      add\n      tag_87\n      swap1\n      tag_88\n      jump\t// in\n    tag_87:\n      mload(0x40)\n      dup1\n      swap2\n      sub\n      swap1\n      revert\n    tag_86:\n        /* \"Debts-no-interface.sol\":1805:1820  addressHasEntry */\n      0x01\n        /* \"Debts-no-interface.sol\":1805:1832  addressHasEntry[msg.sender] */\n      0x00\n        /* \"Debts-no-interface.sol\":1821:1831  msg.sender */\n      caller\n        /* \"Debts-no-interface.sol\":1805:1832  addressHasEntry[msg.sender] */\n      0xffffffffffffffffffffffffffffffffffffffff\n      and\n      0xffffffffffffffffffffffffffffffffffffffff\n      and\n      dup2\n      mstore\n      0x20\n      add\n      swap1\n      dup2\n      mstore\n      0x20\n      add\n      0x00\n      keccak256\n      0x00\n      swap1\n      sload\n      swap1\n      0x0100\n      exp\n      swap1\n      div\n      0xff\n      and\n        /* \"Debts-no-interface.sol\":1804:1832  !addressHasEntry[msg.sender] */\n      iszero\n        /* \"Debts-no-interface.sol\":1796:1870  require(!addressHasEntry[msg.sender], \"your address already has an alias\") */\n      tag_89\n      jumpi\n      mload(0x40)\n      0x08c379a000000000000000000000000000000000000000000000000000000000\n      dup2\n      mstore\n      0x04\n      add\n      tag_90\n      swap1\n      tag_91\n      jump\t// in\n    tag_90:\n      mload(0x40)\n      dup1\n      swap2\n      sub\n      swap1\n      revert\n    tag_89:\n        /* \"Debts-no-interface.sol\":1979:1983  true */\n      0x01\n        /* \"Debts-no-interface.sol\":1955:1968  aliasHasEntry */\n      0x02\n        /* \"Debts-no-interface.sol\":1969:1975  _alias */\n      dup4\n        /* \"Debts-no-interface.sol\":1955:1976  aliasHasEntry[_alias] */\n      mload(0x40)\n      tag_92\n      swap2\n      swap1\n      tag_61\n      jump\t// in\n    tag_92:\n      swap1\n      dup2\n      mstore\n      0x20\n      add\n      mload(0x40)\n      dup1\n      swap2\n      sub\n      swap1\n      keccak256\n      0x00\n        /* \"Debts-no-interface.sol\":1955:1983  aliasHasEntry[_alias] = true */\n      0x0100\n      exp\n      dup2\n      sload\n      dup2\n      0xff\n      mul\n      not\n      and\n      swap1\n      dup4\n      iszero\n      iszero\n      mul\n      or\n      swap1\n      sstore\n      pop\n        /* \"Debts-no-interface.sol\":2110:2114  true */\n      0x01\n        /* \"Debts-no-interface.sol\":2080:2095  addressHasEntry */\n      dup1\n        /* \"Debts-no-interface.sol\":2080:2107  addressHasEntry[msg.sender] */\n      0x00\n        /* \"Debts-no-interface.sol\":2096:2106  msg.sender */\n      caller\n        /* \"Debts-no-interface.sol\":2080:2107  addressHasEntry[msg.sender] */\n      0xffffffffffffffffffffffffffffffffffffffff\n      and\n      0xffffffffffffffffffffffffffffffffffffffff\n      and\n      dup2\n      mstore\n      0x20\n      add\n      swap1\n      dup2\n      mstore\n      0x20\n      add\n      0x00\n      keccak256\n      0x00\n        /* \"Debts-no-interface.sol\":2080:2114  addressHasEntry[msg.sender] = true */\n      0x0100\n      exp\n      dup2\n      sload\n      dup2\n      0xff\n      mul\n      not\n      and\n      swap1\n      dup4\n      iszero\n      iszero\n      mul\n      or\n      swap1\n      sstore\n      pop\n        /* \"Debts-no-interface.sol\":2221:2232  num_entries */\n      sload(0x05)\n        /* \"Debts-no-interface.sol\":2199:2210  findByAlias */\n      0x03\n        /* \"Debts-no-interface.sol\":2211:2217  _alias */\n      dup4\n        /* \"Debts-no-interface.sol\":2199:2218  findByAlias[_alias] */\n      mload(0x40)\n      tag_93\n      swap2\n      swap1\n      tag_61\n      jump\t// in\n    tag_93:\n      swap1\n      dup2\n      mstore\n      0x20\n      add\n      mload(0x40)\n      dup1\n      swap2\n      sub\n      swap1\n      keccak256\n        /* \"Debts-no-interface.sol\":2199:2232  findByAlias[_alias] = num_entries */\n      dup2\n      swap1\n      sstore\n      pop\n        /* \"Debts-no-interface.sol\":2349:2360  num_entries */\n      sload(0x05)\n        /* \"Debts-no-interface.sol\":2321:2334  findByAddress */\n      0x04\n        /* \"Debts-no-interface.sol\":2321:2346  findByAddress[msg.sender] */\n      0x00\n        /* \"Debts-no-interface.sol\":2335:2345  msg.sender */\n      caller\n        /* \"Debts-no-interface.sol\":2321:2346  findByAddress[msg.sender] */\n      0xffffffffffffffffffffffffffffffffffffffff\n      and\n      0xffffffffffffffffffffffffffffffffffffffff\n      and\n      dup2\n      mstore\n      0x20\n      add\n      swap1\n      dup2\n      mstore\n      0x20\n      add\n      0x00\n      keccak256\n        /* \"Debts-no-interface.sol\":2321:2360  findByAddress[msg.sender] = num_entries */\n      dup2\n      swap1\n      sstore\n      pop\n        /* \"Debts-no-interface.sol\":2431:2475  Entry(num_entries,_alias,_name,msg.sender,0) */\n      mload(0x40)\n      dup1\n      0xa0\n      add\n      0x40\n      mstore\n      dup1\n        /* \"Debts-no-interface.sol\":2437:2448  num_entries */\n      sload(0x05)\n        /* \"Debts-no-interface.sol\":2431:2475  Entry(num_entries,_alias,_name,msg.sender,0) */\n      dup2\n      mstore\n      0x20\n      add\n        /* \"Debts-no-interface.sol\":2449:2455  _alias */\n      dup4\n        /* \"Debts-no-interface.sol\":2431:2475  Entry(num_entries,_alias,_name,msg.sender,0) */\n      dup2\n      mstore\n      0x20\n      add\n        /* \"Debts-no-interface.sol\":2456:2461  _name */\n      dup3\n        /* \"Debts-no-interface.sol\":2431:2475  Entry(num_entries,_alias,_name,msg.sender,0) */\n      dup2\n      mstore\n      0x20\n      add\n        /* \"Debts-no-interface.sol\":2462:2472  msg.sender */\n      caller\n        /* \"Debts-no-interface.sol\":2431:2475  Entry(num_entries,_alias,_name,msg.sender,0) */\n      0xffffffffffffffffffffffffffffffffffffffff\n      and\n      dup2\n      mstore\n      0x20\n      add\n        /* \"Debts-no-interface.sol\":2473:2474  0 */\n      0x00\n        /* \"Debts-no-interface.sol\":2431:2475  Entry(num_entries,_alias,_name,msg.sender,0) */\n      dup2\n      mstore\n      pop\n        /* \"Debts-no-interface.sol\":2408:2415  entries */\n      0x00\n        /* \"Debts-no-interface.sol\":2408:2428  entries[num_entries] */\n      dup1\n        /* \"Debts-no-interface.sol\":2416:2427  num_entries */\n      sload(0x05)\n        /* \"Debts-no-interface.sol\":2408:2428  entries[num_entries] */\n      dup2\n      mstore\n      0x20\n      add\n      swap1\n      dup2\n      mstore\n      0x20\n      add\n      0x00\n      keccak256\n        /* \"Debts-no-interface.sol\":2408:2475  entries[num_entries] = Entry(num_entries,_alias,_name,msg.sender,0) */\n      0x00\n      dup3\n      add\n      mload\n      dup2\n      0x00\n      add\n      sstore\n      0x20\n      dup3\n      add\n      mload\n      dup2\n      0x01\n      add\n      swap1\n      dup2\n      tag_94\n      swap2\n      swap1\n      tag_95\n      jump\t// in\n    tag_94:\n      pop\n      0x40\n      dup3\n      add\n      mload\n      dup2\n      0x02\n      add\n      swap1\n      dup2\n      tag_96\n      swap2\n      swap1\n      tag_95\n      jump\t// in\n    tag_96:\n      pop\n      0x60\n      dup3\n      add\n      mload\n      dup2\n      0x03\n      add\n      exp(0x0100, 0x00)\n      dup2\n      sload\n      dup2\n      0xffffffffffffffffffffffffffffffffffffffff\n      mul\n      not\n      and\n      swap1\n      dup4\n      0xffffffffffffffffffffffffffffffffffffffff\n      and\n      mul\n      or\n      swap1\n      sstore\n      pop\n      0x80\n      dup3\n      add\n      mload\n      dup2\n      0x04\n      add\n      sstore\n      swap1\n      pop\n      pop\n        /* \"Debts-no-interface.sol\":2535:2546  num_entries */\n      0x05\n      0x00\n        /* \"Debts-no-interface.sol\":2535:2548  num_entries++ */\n      dup2\n      sload\n      dup1\n      swap3\n      swap2\n      swap1\n      tag_97\n      swap1\n      tag_98\n      jump\t// in\n    tag_97:\n      swap2\n      swap1\n      pop\n      sstore\n      pop\n        /* \"Debts-no-interface.sol\":2589:2606  aliasAddedEvent() */\n      0x7e42369838b7c7fafe8bba944990b5fee45d6a0afcd52154127c1784c47f5e45\n      mload(0x40)\n      mload(0x40)\n      dup1\n      swap2\n      sub\n      swap1\n      log1\n        /* \"Debts-no-interface.sol\":1515:2613  function addAlias (string memory _alias, string memory _name) public {... */\n      pop\n      pop\n      jump\t// out\n        /* \"#utility.yul\":7:82   */\n    tag_99:\n        /* \"#utility.yul\":40:46   */\n      0x00\n        /* \"#utility.yul\":73:75   */\n      0x40\n        /* \"#utility.yul\":67:76   */\n      mload\n        /* \"#utility.yul\":57:76   */\n      swap1\n      pop\n        /* \"#utility.yul\":7:82   */\n      swap1\n      jump\t// out\n        /* \"#utility.yul\":88:205   */\n    tag_100:\n        /* \"#utility.yul\":197:198   */\n      0x00\n        /* \"#utility.yul\":194:195   */\n      dup1\n        /* \"#utility.yul\":187:199   */\n      revert\n        /* \"#utility.yul\":211:328   */\n    tag_101:\n        /* \"#utility.yul\":320:321   */\n      0x00\n        /* \"#utility.yul\":317:318   */\n      dup1\n        /* \"#utility.yul\":310:322   */\n      revert\n        /* \"#utility.yul\":334:460   */\n    tag_102:\n        /* \"#utility.yul\":371:378   */\n      0x00\n        /* \"#utility.yul\":411:453   */\n      0xffffffffffffffffffffffffffffffffffffffff\n        /* \"#utility.yul\":404:409   */\n      dup3\n        /* \"#utility.yul\":400:454   */\n      and\n        /* \"#utility.yul\":389:454   */\n      swap1\n      pop\n        /* \"#utility.yul\":334:460   */\n      swap2\n      swap1\n      pop\n      jump\t// out\n        /* \"#utility.yul\":466:562   */\n    tag_103:\n        /* \"#utility.yul\":503:510   */\n      0x00\n        /* \"#utility.yul\":532:556   */\n      tag_170\n        /* \"#utility.yul\":550:555   */\n      dup3\n        /* \"#utility.yul\":532:556   */\n      tag_102\n      jump\t// in\n    tag_170:\n        /* \"#utility.yul\":521:556   */\n      swap1\n      pop\n        /* \"#utility.yul\":466:562   */\n      swap2\n      swap1\n      pop\n      jump\t// out\n        /* \"#utility.yul\":568:690   */\n    tag_104:\n        /* \"#utility.yul\":641:665   */\n      tag_172\n        /* \"#utility.yul\":659:664   */\n      dup2\n        /* \"#utility.yul\":641:665   */\n      tag_103\n      jump\t// in\n    tag_172:\n        /* \"#utility.yul\":634:639   */\n      dup2\n        /* \"#utility.yul\":631:666   */\n      eq\n        /* \"#utility.yul\":621:684   */\n      tag_173\n      jumpi\n        /* \"#utility.yul\":680:681   */\n      0x00\n        /* \"#utility.yul\":677:678   */\n      dup1\n        /* \"#utility.yul\":670:682   */\n      revert\n        /* \"#utility.yul\":621:684   */\n    tag_173:\n        /* \"#utility.yul\":568:690   */\n      pop\n      jump\t// out\n        /* \"#utility.yul\":696:835   */\n    tag_105:\n        /* \"#utility.yul\":742:747   */\n      0x00\n        /* \"#utility.yul\":780:786   */\n      dup2\n        /* \"#utility.yul\":767:787   */\n      calldataload\n        /* \"#utility.yul\":758:787   */\n      swap1\n      pop\n        /* \"#utility.yul\":796:829   */\n      tag_175\n        /* \"#utility.yul\":823:828   */\n      dup2\n        /* \"#utility.yul\":796:829   */\n      tag_104\n      jump\t// in\n    tag_175:\n        /* \"#utility.yul\":696:835   */\n      swap3\n      swap2\n      pop\n      pop\n      jump\t// out\n        /* \"#utility.yul\":841:1170   */\n    tag_14:\n        /* \"#utility.yul\":900:906   */\n      0x00\n        /* \"#utility.yul\":949:951   */\n      0x20\n        /* \"#utility.yul\":937:946   */\n      dup3\n        /* \"#utility.yul\":928:935   */\n      dup5\n        /* \"#utility.yul\":924:947   */\n      sub\n        /* \"#utility.yul\":920:952   */\n      slt\n        /* \"#utility.yul\":917:1036   */\n      iszero\n      tag_177\n      jumpi\n        /* \"#utility.yul\":955:1034   */\n      tag_178\n      tag_100\n      jump\t// in\n    tag_178:\n        /* \"#utility.yul\":917:1036   */\n    tag_177:\n        /* \"#utility.yul\":1075:1076   */\n      0x00\n        /* \"#utility.yul\":1100:1153   */\n      tag_179\n        /* \"#utility.yul\":1145:1152   */\n      dup5\n        /* \"#utility.yul\":1136:1142   */\n      dup3\n        /* \"#utility.yul\":1125:1134   */\n      dup6\n        /* \"#utility.yul\":1121:1143   */\n      add\n        /* \"#utility.yul\":1100:1153   */\n      tag_105\n      jump\t// in\n    tag_179:\n        /* \"#utility.yul\":1090:1153   */\n      swap2\n      pop\n        /* \"#utility.yul\":1046:1163   */\n      pop\n        /* \"#utility.yul\":841:1170   */\n      swap3\n      swap2\n      pop\n      pop\n      jump\t// out\n        /* \"#utility.yul\":1176:1266   */\n    tag_106:\n        /* \"#utility.yul\":1210:1217   */\n      0x00\n        /* \"#utility.yul\":1253:1258   */\n      dup2\n        /* \"#utility.yul\":1246:1259   */\n      iszero\n        /* \"#utility.yul\":1239:1260   */\n      iszero\n        /* \"#utility.yul\":1228:1260   */\n      swap1\n      pop\n        /* \"#utility.yul\":1176:1266   */\n      swap2\n      swap1\n      pop\n      jump\t// out\n        /* \"#utility.yul\":1272:1381   */\n    tag_107:\n        /* \"#utility.yul\":1353:1374   */\n      tag_182\n        /* \"#utility.yul\":1368:1373   */\n      dup2\n        /* \"#utility.yul\":1353:1374   */\n      tag_106\n      jump\t// in\n    tag_182:\n        /* \"#utility.yul\":1348:1351   */\n      dup3\n        /* \"#utility.yul\":1341:1375   */\n      mstore\n        /* \"#utility.yul\":1272:1381   */\n      pop\n      pop\n      jump\t// out\n        /* \"#utility.yul\":1387:1597   */\n    tag_17:\n        /* \"#utility.yul\":1474:1478   */\n      0x00\n        /* \"#utility.yul\":1512:1514   */\n      0x20\n        /* \"#utility.yul\":1501:1510   */\n      dup3\n        /* \"#utility.yul\":1497:1515   */\n      add\n        /* \"#utility.yul\":1489:1515   */\n      swap1\n      pop\n        /* \"#utility.yul\":1525:1590   */\n      tag_184\n        /* \"#utility.yul\":1587:1588   */\n      0x00\n        /* \"#utility.yul\":1576:1585   */\n      dup4\n        /* \"#utility.yul\":1572:1589   */\n      add\n        /* \"#utility.yul\":1563:1569   */\n      dup5\n        /* \"#utility.yul\":1525:1590   */\n      tag_107\n      jump\t// in\n    tag_184:\n        /* \"#utility.yul\":1387:1597   */\n      swap3\n      swap2\n      pop\n      pop\n      jump\t// out\n        /* \"#utility.yul\":1603:1720   */\n    tag_108:\n        /* \"#utility.yul\":1712:1713   */\n      0x00\n        /* \"#utility.yul\":1709:1710   */\n      dup1\n        /* \"#utility.yul\":1702:1714   */\n      revert\n        /* \"#utility.yul\":1726:1843   */\n    tag_109:\n        /* \"#utility.yul\":1835:1836   */\n      0x00\n        /* \"#utility.yul\":1832:1833   */\n      dup1\n        /* \"#utility.yul\":1825:1837   */\n      revert\n        /* \"#utility.yul\":1849:1951   */\n    tag_110:\n        /* \"#utility.yul\":1890:1896   */\n      0x00\n        /* \"#utility.yul\":1941:1943   */\n      0x1f\n        /* \"#utility.yul\":1937:1944   */\n      not\n        /* \"#utility.yul\":1932:1934   */\n      0x1f\n        /* \"#utility.yul\":1925:1930   */\n      dup4\n        /* \"#utility.yul\":1921:1935   */\n      add\n        /* \"#utility.yul\":1917:1945   */\n      and\n        /* \"#utility.yul\":1907:1945   */\n      swap1\n      pop\n        /* \"#utility.yul\":1849:1951   */\n      swap2\n      swap1\n      pop\n      jump\t// out\n        /* \"#utility.yul\":1957:2137   */\n    tag_111:\n        /* \"#utility.yul\":2005:2082   */\n      0x4e487b7100000000000000000000000000000000000000000000000000000000\n        /* \"#utility.yul\":2002:2003   */\n      0x00\n        /* \"#utility.yul\":1995:2083   */\n      mstore\n        /* \"#utility.yul\":2102:2106   */\n      0x41\n        /* \"#utility.yul\":2099:2100   */\n      0x04\n        /* \"#utility.yul\":2092:2107   */\n      mstore\n        /* \"#utility.yul\":2126:2130   */\n      0x24\n        /* \"#utility.yul\":2123:2124   */\n      0x00\n        /* \"#utility.yul\":2116:2131   */\n      revert\n        /* \"#utility.yul\":2143:2424   */\n    tag_112:\n        /* \"#utility.yul\":2226:2253   */\n      tag_190\n        /* \"#utility.yul\":2248:2252   */\n      dup3\n        /* \"#utility.yul\":2226:2253   */\n      tag_110\n      jump\t// in\n    tag_190:\n        /* \"#utility.yul\":2218:2224   */\n      dup2\n        /* \"#utility.yul\":2214:2254   */\n      add\n        /* \"#utility.yul\":2356:2362   */\n      dup2\n        /* \"#utility.yul\":2344:2354   */\n      dup2\n        /* \"#utility.yul\":2341:2363   */\n      lt\n        /* \"#utility.yul\":2320:2338   */\n      0xffffffffffffffff\n        /* \"#utility.yul\":2308:2318   */\n      dup3\n        /* \"#utility.yul\":2305:2339   */\n      gt\n        /* \"#utility.yul\":2302:2364   */\n      or\n        /* \"#utility.yul\":2299:2387   */\n      iszero\n      tag_191\n      jumpi\n        /* \"#utility.yul\":2367:2385   */\n      tag_192\n      tag_111\n      jump\t// in\n    tag_192:\n        /* \"#utility.yul\":2299:2387   */\n    tag_191:\n        /* \"#utility.yul\":2407:2417   */\n      dup1\n        /* \"#utility.yul\":2403:2405   */\n      0x40\n        /* \"#utility.yul\":2396:2418   */\n      mstore\n        /* \"#utility.yul\":2186:2424   */\n      pop\n        /* \"#utility.yul\":2143:2424   */\n      pop\n      pop\n      jump\t// out\n        /* \"#utility.yul\":2430:2559   */\n    tag_113:\n        /* \"#utility.yul\":2464:2470   */\n      0x00\n        /* \"#utility.yul\":2491:2511   */\n      tag_194\n      tag_99\n      jump\t// in\n    tag_194:\n        /* \"#utility.yul\":2481:2511   */\n      swap1\n      pop\n        /* \"#utility.yul\":2520:2553   */\n      tag_195\n        /* \"#utility.yul\":2548:2552   */\n      dup3\n        /* \"#utility.yul\":2540:2546   */\n      dup3\n        /* \"#utility.yul\":2520:2553   */\n      tag_112\n      jump\t// in\n    tag_195:\n        /* \"#utility.yul\":2430:2559   */\n      swap2\n      swap1\n      pop\n      jump\t// out\n        /* \"#utility.yul\":2565:2873   */\n    tag_114:\n        /* \"#utility.yul\":2627:2631   */\n      0x00\n        /* \"#utility.yul\":2717:2735   */\n      0xffffffffffffffff\n        /* \"#utility.yul\":2709:2715   */\n      dup3\n        /* \"#utility.yul\":2706:2736   */\n      gt\n        /* \"#utility.yul\":2703:2759   */\n      iszero\n      tag_197\n      jumpi\n        /* \"#utility.yul\":2739:2757   */\n      tag_198\n      tag_111\n      jump\t// in\n    tag_198:\n        /* \"#utility.yul\":2703:2759   */\n    tag_197:\n        /* \"#utility.yul\":2777:2806   */\n      tag_199\n        /* \"#utility.yul\":2799:2805   */\n      dup3\n        /* \"#utility.yul\":2777:2806   */\n      tag_110\n      jump\t// in\n    tag_199:\n        /* \"#utility.yul\":2769:2806   */\n      swap1\n      pop\n        /* \"#utility.yul\":2861:2865   */\n      0x20\n        /* \"#utility.yul\":2855:2859   */\n      dup2\n        /* \"#utility.yul\":2851:2866   */\n      add\n        /* \"#utility.yul\":2843:2866   */\n      swap1\n      pop\n        /* \"#utility.yul\":2565:2873   */\n      swap2\n      swap1\n      pop\n      jump\t// out\n        /* \"#utility.yul\":2879:3025   */\n    tag_115:\n        /* \"#utility.yul\":2976:2982   */\n      dup3\n        /* \"#utility.yul\":2971:2974   */\n      dup2\n        /* \"#utility.yul\":2966:2969   */\n      dup4\n        /* \"#utility.yul\":2953:2983   */\n      calldatacopy\n        /* \"#utility.yul\":3017:3018   */\n      0x00\n        /* \"#utility.yul\":3008:3014   */\n      dup4\n        /* \"#utility.yul\":3003:3006   */\n      dup4\n        /* \"#utility.yul\":2999:3015   */\n      add\n        /* \"#utility.yul\":2992:3019   */\n      mstore\n        /* \"#utility.yul\":2879:3025   */\n      pop\n      pop\n      pop\n      jump\t// out\n        /* \"#utility.yul\":3031:3456   */\n    tag_116:\n        /* \"#utility.yul\":3109:3114   */\n      0x00\n        /* \"#utility.yul\":3134:3200   */\n      tag_202\n        /* \"#utility.yul\":3150:3199   */\n      tag_203\n        /* \"#utility.yul\":3192:3198   */\n      dup5\n        /* \"#utility.yul\":3150:3199   */\n      tag_114\n      jump\t// in\n    tag_203:\n        /* \"#utility.yul\":3134:3200   */\n      tag_113\n      jump\t// in\n    tag_202:\n        /* \"#utility.yul\":3125:3200   */\n      swap1\n      pop\n        /* \"#utility.yul\":3223:3229   */\n      dup3\n        /* \"#utility.yul\":3216:3221   */\n      dup2\n        /* \"#utility.yul\":3209:3230   */\n      mstore\n        /* \"#utility.yul\":3261:3265   */\n      0x20\n        /* \"#utility.yul\":3254:3259   */\n      dup2\n        /* \"#utility.yul\":3250:3266   */\n      add\n        /* \"#utility.yul\":3299:3302   */\n      dup5\n        /* \"#utility.yul\":3290:3296   */\n      dup5\n        /* \"#utility.yul\":3285:3288   */\n      dup5\n        /* \"#utility.yul\":3281:3297   */\n      add\n        /* \"#utility.yul\":3278:3303   */\n      gt\n        /* \"#utility.yul\":3275:3387   */\n      iszero\n      tag_204\n      jumpi\n        /* \"#utility.yul\":3306:3385   */\n      tag_205\n      tag_109\n      jump\t// in\n    tag_205:\n        /* \"#utility.yul\":3275:3387   */\n    tag_204:\n        /* \"#utility.yul\":3396:3450   */\n      tag_206\n        /* \"#utility.yul\":3443:3449   */\n      dup5\n        /* \"#utility.yul\":3438:3441   */\n      dup3\n        /* \"#utility.yul\":3433:3436   */\n      dup6\n        /* \"#utility.yul\":3396:3450   */\n      tag_115\n      jump\t// in\n    tag_206:\n        /* \"#utility.yul\":3115:3456   */\n      pop\n        /* \"#utility.yul\":3031:3456   */\n      swap4\n      swap3\n      pop\n      pop\n      pop\n      jump\t// out\n        /* \"#utility.yul\":3476:3816   */\n    tag_117:\n        /* \"#utility.yul\":3532:3537   */\n      0x00\n        /* \"#utility.yul\":3581:3584   */\n      dup3\n        /* \"#utility.yul\":3574:3578   */\n      0x1f\n        /* \"#utility.yul\":3566:3572   */\n      dup4\n        /* \"#utility.yul\":3562:3579   */\n      add\n        /* \"#utility.yul\":3558:3585   */\n      slt\n        /* \"#utility.yul\":3548:3670   */\n      tag_208\n      jumpi\n        /* \"#utility.yul\":3589:3668   */\n      tag_209\n      tag_108\n      jump\t// in\n    tag_209:\n        /* \"#utility.yul\":3548:3670   */\n    tag_208:\n        /* \"#utility.yul\":3706:3712   */\n      dup2\n        /* \"#utility.yul\":3693:3713   */\n      calldataload\n        /* \"#utility.yul\":3731:3810   */\n      tag_210\n        /* \"#utility.yul\":3806:3809   */\n      dup5\n        /* \"#utility.yul\":3798:3804   */\n      dup3\n        /* \"#utility.yul\":3791:3795   */\n      0x20\n        /* \"#utility.yul\":3783:3789   */\n      dup7\n        /* \"#utility.yul\":3779:3796   */\n      add\n        /* \"#utility.yul\":3731:3810   */\n      tag_116\n      jump\t// in\n    tag_210:\n        /* \"#utility.yul\":3722:3810   */\n      swap2\n      pop\n        /* \"#utility.yul\":3538:3816   */\n      pop\n        /* \"#utility.yul\":3476:3816   */\n      swap3\n      swap2\n      pop\n      pop\n      jump\t// out\n        /* \"#utility.yul\":3822:4331   */\n    tag_20:\n        /* \"#utility.yul\":3891:3897   */\n      0x00\n        /* \"#utility.yul\":3940:3942   */\n      0x20\n        /* \"#utility.yul\":3928:3937   */\n      dup3\n        /* \"#utility.yul\":3919:3926   */\n      dup5\n        /* \"#utility.yul\":3915:3938   */\n      sub\n        /* \"#utility.yul\":3911:3943   */\n      slt\n        /* \"#utility.yul\":3908:4027   */\n      iszero\n      tag_212\n      jumpi\n        /* \"#utility.yul\":3946:4025   */\n      tag_213\n      tag_100\n      jump\t// in\n    tag_213:\n        /* \"#utility.yul\":3908:4027   */\n    tag_212:\n        /* \"#utility.yul\":4094:4095   */\n      0x00\n        /* \"#utility.yul\":4083:4092   */\n      dup3\n        /* \"#utility.yul\":4079:4096   */\n      add\n        /* \"#utility.yul\":4066:4097   */\n      calldataload\n        /* \"#utility.yul\":4124:4142   */\n      0xffffffffffffffff\n        /* \"#utility.yul\":4116:4122   */\n      dup2\n        /* \"#utility.yul\":4113:4143   */\n      gt\n        /* \"#utility.yul\":4110:4227   */\n      iszero\n      tag_214\n      jumpi\n        /* \"#utility.yul\":4146:4225   */\n      tag_215\n      tag_101\n      jump\t// in\n    tag_215:\n        /* \"#utility.yul\":4110:4227   */\n    tag_214:\n        /* \"#utility.yul\":4251:4314   */\n      tag_216\n        /* \"#utility.yul\":4306:4313   */\n      dup5\n        /* \"#utility.yul\":4297:4303   */\n      dup3\n        /* \"#utility.yul\":4286:4295   */\n      dup6\n        /* \"#utility.yul\":4282:4304   */\n      add\n        /* \"#utility.yul\":4251:4314   */\n      tag_117\n      jump\t// in\n    tag_216:\n        /* \"#utility.yul\":4241:4314   */\n      swap2\n      pop\n        /* \"#utility.yul\":4037:4324   */\n      pop\n        /* \"#utility.yul\":3822:4331   */\n      swap3\n      swap2\n      pop\n      pop\n      jump\t// out\n        /* \"#utility.yul\":4337:4414   */\n    tag_118:\n        /* \"#utility.yul\":4374:4381   */\n      0x00\n        /* \"#utility.yul\":4403:4408   */\n      dup2\n        /* \"#utility.yul\":4392:4408   */\n      swap1\n      pop\n        /* \"#utility.yul\":4337:4414   */\n      swap2\n      swap1\n      pop\n      jump\t// out\n        /* \"#utility.yul\":4420:4538   */\n    tag_119:\n        /* \"#utility.yul\":4507:4531   */\n      tag_219\n        /* \"#utility.yul\":4525:4530   */\n      dup2\n        /* \"#utility.yul\":4507:4531   */\n      tag_118\n      jump\t// in\n    tag_219:\n        /* \"#utility.yul\":4502:4505   */\n      dup3\n        /* \"#utility.yul\":4495:4532   */\n      mstore\n        /* \"#utility.yul\":4420:4538   */\n      pop\n      pop\n      jump\t// out\n        /* \"#utility.yul\":4544:4766   */\n    tag_23:\n        /* \"#utility.yul\":4637:4641   */\n      0x00\n        /* \"#utility.yul\":4675:4677   */\n      0x20\n        /* \"#utility.yul\":4664:4673   */\n      dup3\n        /* \"#utility.yul\":4660:4678   */\n      add\n        /* \"#utility.yul\":4652:4678   */\n      swap1\n      pop\n        /* \"#utility.yul\":4688:4759   */\n      tag_221\n        /* \"#utility.yul\":4756:4757   */\n      0x00\n        /* \"#utility.yul\":4745:4754   */\n      dup4\n        /* \"#utility.yul\":4741:4758   */\n      add\n        /* \"#utility.yul\":4732:4738   */\n      dup5\n        /* \"#utility.yul\":4688:4759   */\n      tag_119\n      jump\t// in\n    tag_221:\n        /* \"#utility.yul\":4544:4766   */\n      swap3\n      swap2\n      pop\n      pop\n      jump\t// out\n        /* \"#utility.yul\":4772:4848   */\n    tag_120:\n        /* \"#utility.yul\":4808:4815   */\n      0x00\n        /* \"#utility.yul\":4837:4842   */\n      dup2\n        /* \"#utility.yul\":4826:4842   */\n      swap1\n      pop\n        /* \"#utility.yul\":4772:4848   */\n      swap2\n      swap1\n      pop\n      jump\t// out\n        /* \"#utility.yul\":4854:4974   */\n    tag_121:\n        /* \"#utility.yul\":4926:4949   */\n      tag_224\n        /* \"#utility.yul\":4943:4948   */\n      dup2\n        /* \"#utility.yul\":4926:4949   */\n      tag_120\n      jump\t// in\n    tag_224:\n        /* \"#utility.yul\":4919:4924   */\n      dup2\n        /* \"#utility.yul\":4916:4950   */\n      eq\n        /* \"#utility.yul\":4906:4968   */\n      tag_225\n      jumpi\n        /* \"#utility.yul\":4964:4965   */\n      0x00\n        /* \"#utility.yul\":4961:4962   */\n      dup1\n        /* \"#utility.yul\":4954:4966   */\n      revert\n        /* \"#utility.yul\":4906:4968   */\n    tag_225:\n        /* \"#utility.yul\":4854:4974   */\n      pop\n      jump\t// out\n        /* \"#utility.yul\":4980:5117   */\n    tag_122:\n        /* \"#utility.yul\":5025:5030   */\n      0x00\n        /* \"#utility.yul\":5063:5069   */\n      dup2\n        /* \"#utility.yul\":5050:5070   */\n      calldataload\n        /* \"#utility.yul\":5041:5070   */\n      swap1\n      pop\n        /* \"#utility.yul\":5079:5111   */\n      tag_227\n        /* \"#utility.yul\":5105:5110   */\n      dup2\n        /* \"#utility.yul\":5079:5111   */\n      tag_121\n      jump\t// in\n    tag_227:\n        /* \"#utility.yul\":4980:5117   */\n      swap3\n      swap2\n      pop\n      pop\n      jump\t// out\n        /* \"#utility.yul\":5123:5775   */\n    tag_30:\n        /* \"#utility.yul\":5200:5206   */\n      0x00\n        /* \"#utility.yul\":5208:5214   */\n      dup1\n        /* \"#utility.yul\":5257:5259   */\n      0x40\n        /* \"#utility.yul\":5245:5254   */\n      dup4\n        /* \"#utility.yul\":5236:5243   */\n      dup6\n        /* \"#utility.yul\":5232:5255   */\n      sub\n        /* \"#utility.yul\":5228:5260   */\n      slt\n        /* \"#utility.yul\":5225:5344   */\n      iszero\n      tag_229\n      jumpi\n        /* \"#utility.yul\":5263:5342   */\n      tag_230\n      tag_100\n      jump\t// in\n    tag_230:\n        /* \"#utility.yul\":5225:5344   */\n    tag_229:\n        /* \"#utility.yul\":5411:5412   */\n      0x00\n        /* \"#utility.yul\":5400:5409   */\n      dup4\n        /* \"#utility.yul\":5396:5413   */\n      add\n        /* \"#utility.yul\":5383:5414   */\n      calldataload\n        /* \"#utility.yul\":5441:5459   */\n      0xffffffffffffffff\n        /* \"#utility.yul\":5433:5439   */\n      dup2\n        /* \"#utility.yul\":5430:5460   */\n      gt\n        /* \"#utility.yul\":5427:5544   */\n      iszero\n      tag_231\n      jumpi\n        /* \"#utility.yul\":5463:5542   */\n      tag_232\n      tag_101\n      jump\t// in\n    tag_232:\n        /* \"#utility.yul\":5427:5544   */\n    tag_231:\n        /* \"#utility.yul\":5568:5631   */\n      tag_233\n        /* \"#utility.yul\":5623:5630   */\n      dup6\n        /* \"#utility.yul\":5614:5620   */\n      dup3\n        /* \"#utility.yul\":5603:5612   */\n      dup7\n        /* \"#utility.yul\":5599:5621   */\n      add\n        /* \"#utility.yul\":5568:5631   */\n      tag_117\n      jump\t// in\n    tag_233:\n        /* \"#utility.yul\":5558:5631   */\n      swap3\n      pop\n        /* \"#utility.yul\":5354:5641   */\n      pop\n        /* \"#utility.yul\":5680:5682   */\n      0x20\n        /* \"#utility.yul\":5706:5758   */\n      tag_234\n        /* \"#utility.yul\":5750:5757   */\n      dup6\n        /* \"#utility.yul\":5741:5747   */\n      dup3\n        /* \"#utility.yul\":5730:5739   */\n      dup7\n        /* \"#utility.yul\":5726:5748   */\n      add\n        /* \"#utility.yul\":5706:5758   */\n      tag_122\n      jump\t// in\n    tag_234:\n        /* \"#utility.yul\":5696:5758   */\n      swap2\n      pop\n        /* \"#utility.yul\":5651:5768   */\n      pop\n        /* \"#utility.yul\":5123:5775   */\n      swap3\n      pop\n      swap3\n      swap1\n      pop\n      jump\t// out\n        /* \"#utility.yul\":5781:5903   */\n    tag_123:\n        /* \"#utility.yul\":5854:5878   */\n      tag_236\n        /* \"#utility.yul\":5872:5877   */\n      dup2\n        /* \"#utility.yul\":5854:5878   */\n      tag_118\n      jump\t// in\n    tag_236:\n        /* \"#utility.yul\":5847:5852   */\n      dup2\n        /* \"#utility.yul\":5844:5879   */\n      eq\n        /* \"#utility.yul\":5834:5897   */\n      tag_237\n      jumpi\n        /* \"#utility.yul\":5893:5894   */\n      0x00\n        /* \"#utility.yul\":5890:5891   */\n      dup1\n        /* \"#utility.yul\":5883:5895   */\n      revert\n        /* \"#utility.yul\":5834:5897   */\n    tag_237:\n        /* \"#utility.yul\":5781:5903   */\n      pop\n      jump\t// out\n        /* \"#utility.yul\":5909:6048   */\n    tag_124:\n        /* \"#utility.yul\":5955:5960   */\n      0x00\n        /* \"#utility.yul\":5993:5999   */\n      dup2\n        /* \"#utility.yul\":5980:6000   */\n      calldataload\n        /* \"#utility.yul\":5971:6000   */\n      swap1\n      pop\n        /* \"#utility.yul\":6009:6042   */\n      tag_239\n        /* \"#utility.yul\":6036:6041   */\n      dup2\n        /* \"#utility.yul\":6009:6042   */\n      tag_123\n      jump\t// in\n    tag_239:\n        /* \"#utility.yul\":5909:6048   */\n      swap3\n      swap2\n      pop\n      pop\n      jump\t// out\n        /* \"#utility.yul\":6054:6383   */\n    tag_38:\n        /* \"#utility.yul\":6113:6119   */\n      0x00\n        /* \"#utility.yul\":6162:6164   */\n      0x20\n        /* \"#utility.yul\":6150:6159   */\n      dup3\n        /* \"#utility.yul\":6141:6148   */\n      dup5\n        /* \"#utility.yul\":6137:6160   */\n      sub\n        /* \"#utility.yul\":6133:6165   */\n      slt\n        /* \"#utility.yul\":6130:6249   */\n      iszero\n      tag_241\n      jumpi\n        /* \"#utility.yul\":6168:6247   */\n      tag_242\n      tag_100\n      jump\t// in\n    tag_242:\n        /* \"#utility.yul\":6130:6249   */\n    tag_241:\n        /* \"#utility.yul\":6288:6289   */\n      0x00\n        /* \"#utility.yul\":6313:6366   */\n      tag_243\n        /* \"#utility.yul\":6358:6365   */\n      dup5\n        /* \"#utility.yul\":6349:6355   */\n      dup3\n        /* \"#utility.yul\":6338:6347   */\n      dup6\n        /* \"#utility.yul\":6334:6356   */\n      add\n        /* \"#utility.yul\":6313:6366   */\n      tag_124\n      jump\t// in\n    tag_243:\n        /* \"#utility.yul\":6303:6366   */\n      swap2\n      pop\n        /* \"#utility.yul\":6259:6376   */\n      pop\n        /* \"#utility.yul\":6054:6383   */\n      swap3\n      swap2\n      pop\n      pop\n      jump\t// out\n        /* \"#utility.yul\":6389:6488   */\n    tag_125:\n        /* \"#utility.yul\":6441:6447   */\n      0x00\n        /* \"#utility.yul\":6475:6480   */\n      dup2\n        /* \"#utility.yul\":6469:6481   */\n      mload\n        /* \"#utility.yul\":6459:6481   */\n      swap1\n      pop\n        /* \"#utility.yul\":6389:6488   */\n      swap2\n      swap1\n      pop\n      jump\t// out\n        /* \"#utility.yul\":6494:6663   */\n    tag_126:\n        /* \"#utility.yul\":6578:6589   */\n      0x00\n        /* \"#utility.yul\":6612:6618   */\n      dup3\n        /* \"#utility.yul\":6607:6610   */\n      dup3\n        /* \"#utility.yul\":6600:6619   */\n      mstore\n        /* \"#utility.yul\":6652:6656   */\n      0x20\n        /* \"#utility.yul\":6647:6650   */\n      dup3\n        /* \"#utility.yul\":6643:6657   */\n      add\n        /* \"#utility.yul\":6628:6657   */\n      swap1\n      pop\n        /* \"#utility.yul\":6494:6663   */\n      swap3\n      swap2\n      pop\n      pop\n      jump\t// out\n        /* \"#utility.yul\":6669:6915   */\n    tag_127:\n        /* \"#utility.yul\":6750:6751   */\n      0x00\n        /* \"#utility.yul\":6760:6873   */\n    tag_247:\n        /* \"#utility.yul\":6774:6780   */\n      dup4\n        /* \"#utility.yul\":6771:6772   */\n      dup2\n        /* \"#utility.yul\":6768:6781   */\n      lt\n        /* \"#utility.yul\":6760:6873   */\n      iszero\n      tag_249\n      jumpi\n        /* \"#utility.yul\":6859:6860   */\n      dup1\n        /* \"#utility.yul\":6854:6857   */\n      dup3\n        /* \"#utility.yul\":6850:6861   */\n      add\n        /* \"#utility.yul\":6844:6862   */\n      mload\n        /* \"#utility.yul\":6840:6841   */\n      dup2\n        /* \"#utility.yul\":6835:6838   */\n      dup5\n        /* \"#utility.yul\":6831:6842   */\n      add\n        /* \"#utility.yul\":6824:6863   */\n      mstore\n        /* \"#utility.yul\":6796:6798   */\n      0x20\n        /* \"#utility.yul\":6793:6794   */\n      dup2\n        /* \"#utility.yul\":6789:6799   */\n      add\n        /* \"#utility.yul\":6784:6799   */\n      swap1\n      pop\n        /* \"#utility.yul\":6760:6873   */\n      jump(tag_247)\n    tag_249:\n        /* \"#utility.yul\":6907:6908   */\n      0x00\n        /* \"#utility.yul\":6898:6904   */\n      dup5\n        /* \"#utility.yul\":6893:6896   */\n      dup5\n        /* \"#utility.yul\":6889:6905   */\n      add\n        /* \"#utility.yul\":6882:6909   */\n      mstore\n        /* \"#utility.yul\":6731:6915   */\n      pop\n        /* \"#utility.yul\":6669:6915   */\n      pop\n      pop\n      pop\n      jump\t// out\n        /* \"#utility.yul\":6921:7298   */\n    tag_128:\n        /* \"#utility.yul\":7009:7012   */\n      0x00\n        /* \"#utility.yul\":7037:7076   */\n      tag_251\n        /* \"#utility.yul\":7070:7075   */\n      dup3\n        /* \"#utility.yul\":7037:7076   */\n      tag_125\n      jump\t// in\n    tag_251:\n        /* \"#utility.yul\":7092:7163   */\n      tag_252\n        /* \"#utility.yul\":7156:7162   */\n      dup2\n        /* \"#utility.yul\":7151:7154   */\n      dup6\n        /* \"#utility.yul\":7092:7163   */\n      tag_126\n      jump\t// in\n    tag_252:\n        /* \"#utility.yul\":7085:7163   */\n      swap4\n      pop\n        /* \"#utility.yul\":7172:7237   */\n      tag_253\n        /* \"#utility.yul\":7230:7236   */\n      dup2\n        /* \"#utility.yul\":7225:7228   */\n      dup6\n        /* \"#utility.yul\":7218:7222   */\n      0x20\n        /* \"#utility.yul\":7211:7216   */\n      dup7\n        /* \"#utility.yul\":7207:7223   */\n      add\n        /* \"#utility.yul\":7172:7237   */\n      tag_127\n      jump\t// in\n    tag_253:\n        /* \"#utility.yul\":7262:7291   */\n      tag_254\n        /* \"#utility.yul\":7284:7290   */\n      dup2\n        /* \"#utility.yul\":7262:7291   */\n      tag_110\n      jump\t// in\n    tag_254:\n        /* \"#utility.yul\":7257:7260   */\n      dup5\n        /* \"#utility.yul\":7253:7292   */\n      add\n        /* \"#utility.yul\":7246:7292   */\n      swap2\n      pop\n        /* \"#utility.yul\":7013:7298   */\n      pop\n        /* \"#utility.yul\":6921:7298   */\n      swap3\n      swap2\n      pop\n      pop\n      jump\t// out\n        /* \"#utility.yul\":7304:7422   */\n    tag_129:\n        /* \"#utility.yul\":7391:7415   */\n      tag_256\n        /* \"#utility.yul\":7409:7414   */\n      dup2\n        /* \"#utility.yul\":7391:7415   */\n      tag_103\n      jump\t// in\n    tag_256:\n        /* \"#utility.yul\":7386:7389   */\n      dup3\n        /* \"#utility.yul\":7379:7416   */\n      mstore\n        /* \"#utility.yul\":7304:7422   */\n      pop\n      pop\n      jump\t// out\n        /* \"#utility.yul\":7428:7543   */\n    tag_130:\n        /* \"#utility.yul\":7513:7536   */\n      tag_258\n        /* \"#utility.yul\":7530:7535   */\n      dup2\n        /* \"#utility.yul\":7513:7536   */\n      tag_120\n      jump\t// in\n    tag_258:\n        /* \"#utility.yul\":7508:7511   */\n      dup3\n        /* \"#utility.yul\":7501:7537   */\n      mstore\n        /* \"#utility.yul\":7428:7543   */\n      pop\n      pop\n      jump\t// out\n        /* \"#utility.yul\":7549:8391   */\n    tag_41:\n        /* \"#utility.yul\":7792:7796   */\n      0x00\n        /* \"#utility.yul\":7830:7833   */\n      0xa0\n        /* \"#utility.yul\":7819:7828   */\n      dup3\n        /* \"#utility.yul\":7815:7834   */\n      add\n        /* \"#utility.yul\":7807:7834   */\n      swap1\n      pop\n        /* \"#utility.yul\":7844:7915   */\n      tag_260\n        /* \"#utility.yul\":7912:7913   */\n      0x00\n        /* \"#utility.yul\":7901:7910   */\n      dup4\n        /* \"#utility.yul\":7897:7914   */\n      add\n        /* \"#utility.yul\":7888:7894   */\n      dup9\n        /* \"#utility.yul\":7844:7915   */\n      tag_119\n      jump\t// in\n    tag_260:\n        /* \"#utility.yul\":7962:7971   */\n      dup2\n        /* \"#utility.yul\":7956:7960   */\n      dup2\n        /* \"#utility.yul\":7952:7972   */\n      sub\n        /* \"#utility.yul\":7947:7949   */\n      0x20\n        /* \"#utility.yul\":7936:7945   */\n      dup4\n        /* \"#utility.yul\":7932:7950   */\n      add\n        /* \"#utility.yul\":7925:7973   */\n      mstore\n        /* \"#utility.yul\":7990:8068   */\n      tag_261\n        /* \"#utility.yul\":8063:8067   */\n      dup2\n        /* \"#utility.yul\":8054:8060   */\n      dup8\n        /* \"#utility.yul\":7990:8068   */\n      tag_128\n      jump\t// in\n    tag_261:\n        /* \"#utility.yul\":7982:8068   */\n      swap1\n      pop\n        /* \"#utility.yul\":8115:8124   */\n      dup2\n        /* \"#utility.yul\":8109:8113   */\n      dup2\n        /* \"#utility.yul\":8105:8125   */\n      sub\n        /* \"#utility.yul\":8100:8102   */\n      0x40\n        /* \"#utility.yul\":8089:8098   */\n      dup4\n        /* \"#utility.yul\":8085:8103   */\n      add\n        /* \"#utility.yul\":8078:8126   */\n      mstore\n        /* \"#utility.yul\":8143:8221   */\n      tag_262\n        /* \"#utility.yul\":8216:8220   */\n      dup2\n        /* \"#utility.yul\":8207:8213   */\n      dup7\n        /* \"#utility.yul\":8143:8221   */\n      tag_128\n      jump\t// in\n    tag_262:\n        /* \"#utility.yul\":8135:8221   */\n      swap1\n      pop\n        /* \"#utility.yul\":8231:8303   */\n      tag_263\n        /* \"#utility.yul\":8299:8301   */\n      0x60\n        /* \"#utility.yul\":8288:8297   */\n      dup4\n        /* \"#utility.yul\":8284:8302   */\n      add\n        /* \"#utility.yul\":8275:8281   */\n      dup6\n        /* \"#utility.yul\":8231:8303   */\n      tag_129\n      jump\t// in\n    tag_263:\n        /* \"#utility.yul\":8313:8384   */\n      tag_264\n        /* \"#utility.yul\":8379:8382   */\n      0x80\n        /* \"#utility.yul\":8368:8377   */\n      dup4\n        /* \"#utility.yul\":8364:8383   */\n      add\n        /* \"#utility.yul\":8355:8361   */\n      dup5\n        /* \"#utility.yul\":8313:8384   */\n      tag_130\n      jump\t// in\n    tag_264:\n        /* \"#utility.yul\":7549:8391   */\n      swap7\n      swap6\n      pop\n      pop\n      pop\n      pop\n      pop\n      pop\n      jump\t// out\n        /* \"#utility.yul\":8397:9231   */\n    tag_47:\n        /* \"#utility.yul\":8485:8491   */\n      0x00\n        /* \"#utility.yul\":8493:8499   */\n      dup1\n        /* \"#utility.yul\":8542:8544   */\n      0x40\n        /* \"#utility.yul\":8530:8539   */\n      dup4\n        /* \"#utility.yul\":8521:8528   */\n      dup6\n        /* \"#utility.yul\":8517:8540   */\n      sub\n        /* \"#utility.yul\":8513:8545   */\n      slt\n        /* \"#utility.yul\":8510:8629   */\n      iszero\n      tag_266\n      jumpi\n        /* \"#utility.yul\":8548:8627   */\n      tag_267\n      tag_100\n      jump\t// in\n    tag_267:\n        /* \"#utility.yul\":8510:8629   */\n    tag_266:\n        /* \"#utility.yul\":8696:8697   */\n      0x00\n        /* \"#utility.yul\":8685:8694   */\n      dup4\n        /* \"#utility.yul\":8681:8698   */\n      add\n        /* \"#utility.yul\":8668:8699   */\n      calldataload\n        /* \"#utility.yul\":8726:8744   */\n      0xffffffffffffffff\n        /* \"#utility.yul\":8718:8724   */\n      dup2\n        /* \"#utility.yul\":8715:8745   */\n      gt\n        /* \"#utility.yul\":8712:8829   */\n      iszero\n      tag_268\n      jumpi\n        /* \"#utility.yul\":8748:8827   */\n      tag_269\n      tag_101\n      jump\t// in\n    tag_269:\n        /* \"#utility.yul\":8712:8829   */\n    tag_268:\n        /* \"#utility.yul\":8853:8916   */\n      tag_270\n        /* \"#utility.yul\":8908:8915   */\n      dup6\n        /* \"#utility.yul\":8899:8905   */\n      dup3\n        /* \"#utility.yul\":8888:8897   */\n      dup7\n        /* \"#utility.yul\":8884:8906   */\n      add\n        /* \"#utility.yul\":8853:8916   */\n      tag_117\n      jump\t// in\n    tag_270:\n        /* \"#utility.yul\":8843:8916   */\n      swap3\n      pop\n        /* \"#utility.yul\":8639:8926   */\n      pop\n        /* \"#utility.yul\":8993:8995   */\n      0x20\n        /* \"#utility.yul\":8982:8991   */\n      dup4\n        /* \"#utility.yul\":8978:8996   */\n      add\n        /* \"#utility.yul\":8965:8997   */\n      calldataload\n        /* \"#utility.yul\":9024:9042   */\n      0xffffffffffffffff\n        /* \"#utility.yul\":9016:9022   */\n      dup2\n        /* \"#utility.yul\":9013:9043   */\n      gt\n        /* \"#utility.yul\":9010:9127   */\n      iszero\n      tag_271\n      jumpi\n        /* \"#utility.yul\":9046:9125   */\n      tag_272\n      tag_101\n      jump\t// in\n    tag_272:\n        /* \"#utility.yul\":9010:9127   */\n    tag_271:\n        /* \"#utility.yul\":9151:9214   */\n      tag_273\n        /* \"#utility.yul\":9206:9213   */\n      dup6\n        /* \"#utility.yul\":9197:9203   */\n      dup3\n        /* \"#utility.yul\":9186:9195   */\n      dup7\n        /* \"#utility.yul\":9182:9204   */\n      add\n        /* \"#utility.yul\":9151:9214   */\n      tag_117\n      jump\t// in\n    tag_273:\n        /* \"#utility.yul\":9141:9214   */\n      swap2\n      pop\n        /* \"#utility.yul\":8936:9224   */\n      pop\n        /* \"#utility.yul\":8397:9231   */\n      swap3\n      pop\n      swap3\n      swap1\n      pop\n      jump\t// out\n        /* \"#utility.yul\":9237:9460   */\n    tag_131:\n        /* \"#utility.yul\":9377:9411   */\n      0x416d6f756e7473206d757374206265206265747765656e202d31303020616e64\n        /* \"#utility.yul\":9373:9374   */\n      0x00\n        /* \"#utility.yul\":9365:9371   */\n      dup3\n        /* \"#utility.yul\":9361:9375   */\n      add\n        /* \"#utility.yul\":9354:9412   */\n      mstore\n        /* \"#utility.yul\":9446:9452   */\n      0x2031303000000000000000000000000000000000000000000000000000000000\n        /* \"#utility.yul\":9441:9443   */\n      0x20\n        /* \"#utility.yul\":9433:9439   */\n      dup3\n        /* \"#utility.yul\":9429:9444   */\n      add\n        /* \"#utility.yul\":9422:9453   */\n      mstore\n        /* \"#utility.yul\":9237:9460   */\n      pop\n      jump\t// out\n        /* \"#utility.yul\":9466:9832   */\n    tag_132:\n        /* \"#utility.yul\":9608:9611   */\n      0x00\n        /* \"#utility.yul\":9629:9696   */\n      tag_276\n        /* \"#utility.yul\":9693:9695   */\n      0x24\n        /* \"#utility.yul\":9688:9691   */\n      dup4\n        /* \"#utility.yul\":9629:9696   */\n      tag_126\n      jump\t// in\n    tag_276:\n        /* \"#utility.yul\":9622:9696   */\n      swap2\n      pop\n        /* \"#utility.yul\":9705:9798   */\n      tag_277\n        /* \"#utility.yul\":9794:9797   */\n      dup3\n        /* \"#utility.yul\":9705:9798   */\n      tag_131\n      jump\t// in\n    tag_277:\n        /* \"#utility.yul\":9823:9825   */\n      0x40\n        /* \"#utility.yul\":9818:9821   */\n      dup3\n        /* \"#utility.yul\":9814:9826   */\n      add\n        /* \"#utility.yul\":9807:9826   */\n      swap1\n      pop\n        /* \"#utility.yul\":9466:9832   */\n      swap2\n      swap1\n      pop\n      jump\t// out\n        /* \"#utility.yul\":9838:10257   */\n    tag_53:\n        /* \"#utility.yul\":10004:10008   */\n      0x00\n        /* \"#utility.yul\":10042:10044   */\n      0x20\n        /* \"#utility.yul\":10031:10040   */\n      dup3\n        /* \"#utility.yul\":10027:10045   */\n      add\n        /* \"#utility.yul\":10019:10045   */\n      swap1\n      pop\n        /* \"#utility.yul\":10091:10100   */\n      dup2\n        /* \"#utility.yul\":10085:10089   */\n      dup2\n        /* \"#utility.yul\":10081:10101   */\n      sub\n        /* \"#utility.yul\":10077:10078   */\n      0x00\n        /* \"#utility.yul\":10066:10075   */\n      dup4\n        /* \"#utility.yul\":10062:10079   */\n      add\n        /* \"#utility.yul\":10055:10102   */\n      mstore\n        /* \"#utility.yul\":10119:10250   */\n      tag_279\n        /* \"#utility.yul\":10245:10249   */\n      dup2\n        /* \"#utility.yul\":10119:10250   */\n      tag_132\n      jump\t// in\n    tag_279:\n        /* \"#utility.yul\":10111:10250   */\n      swap1\n      pop\n        /* \"#utility.yul\":9838:10257   */\n      swap2\n      swap1\n      pop\n      jump\t// out\n        /* \"#utility.yul\":10263:10434   */\n    tag_133:\n        /* \"#utility.yul\":10403:10426   */\n      0x616d6f756e742063616e6e6f74206265207a65726f0000000000000000000000\n        /* \"#utility.yul\":10399:10400   */\n      0x00\n        /* \"#utility.yul\":10391:10397   */\n      dup3\n        /* \"#utility.yul\":10387:10401   */\n      add\n        /* \"#utility.yul\":10380:10427   */\n      mstore\n        /* \"#utility.yul\":10263:10434   */\n      pop\n      jump\t// out\n        /* \"#utility.yul\":10440:10806   */\n    tag_134:\n        /* \"#utility.yul\":10582:10585   */\n      0x00\n        /* \"#utility.yul\":10603:10670   */\n      tag_282\n        /* \"#utility.yul\":10667:10669   */\n      0x15\n        /* \"#utility.yul\":10662:10665   */\n      dup4\n        /* \"#utility.yul\":10603:10670   */\n      tag_126\n      jump\t// in\n    tag_282:\n        /* \"#utility.yul\":10596:10670   */\n      swap2\n      pop\n        /* \"#utility.yul\":10679:10772   */\n      tag_283\n        /* \"#utility.yul\":10768:10771   */\n      dup3\n        /* \"#utility.yul\":10679:10772   */\n      tag_133\n      jump\t// in\n    tag_283:\n        /* \"#utility.yul\":10797:10799   */\n      0x20\n        /* \"#utility.yul\":10792:10795   */\n      dup3\n        /* \"#utility.yul\":10788:10800   */\n      add\n        /* \"#utility.yul\":10781:10800   */\n      swap1\n      pop\n        /* \"#utility.yul\":10440:10806   */\n      swap2\n      swap1\n      pop\n      jump\t// out\n        /* \"#utility.yul\":10812:11231   */\n    tag_56:\n        /* \"#utility.yul\":10978:10982   */\n      0x00\n        /* \"#utility.yul\":11016:11018   */\n      0x20\n        /* \"#utility.yul\":11005:11014   */\n      dup3\n        /* \"#utility.yul\":11001:11019   */\n      add\n        /* \"#utility.yul\":10993:11019   */\n      swap1\n      pop\n        /* \"#utility.yul\":11065:11074   */\n      dup2\n        /* \"#utility.yul\":11059:11063   */\n      dup2\n        /* \"#utility.yul\":11055:11075   */\n      sub\n        /* \"#utility.yul\":11051:11052   */\n      0x00\n        /* \"#utility.yul\":11040:11049   */\n      dup4\n        /* \"#utility.yul\":11036:11053   */\n      add\n        /* \"#utility.yul\":11029:11076   */\n      mstore\n        /* \"#utility.yul\":11093:11224   */\n      tag_285\n        /* \"#utility.yul\":11219:11223   */\n      dup2\n        /* \"#utility.yul\":11093:11224   */\n      tag_134\n      jump\t// in\n    tag_285:\n        /* \"#utility.yul\":11085:11224   */\n      swap1\n      pop\n        /* \"#utility.yul\":10812:11231   */\n      swap2\n      swap1\n      pop\n      jump\t// out\n        /* \"#utility.yul\":11237:11459   */\n    tag_135:\n        /* \"#utility.yul\":11377:11411   */\n      0x796f7572206164647265737320646f6573206e6f74206861766520616e20616c\n        /* \"#utility.yul\":11373:11374   */\n      0x00\n        /* \"#utility.yul\":11365:11371   */\n      dup3\n        /* \"#utility.yul\":11361:11375   */\n      add\n        /* \"#utility.yul\":11354:11412   */\n      mstore\n        /* \"#utility.yul\":11446:11451   */\n      0x6961730000000000000000000000000000000000000000000000000000000000\n        /* \"#utility.yul\":11441:11443   */\n      0x20\n        /* \"#utility.yul\":11433:11439   */\n      dup3\n        /* \"#utility.yul\":11429:11444   */\n      add\n        /* \"#utility.yul\":11422:11452   */\n      mstore\n        /* \"#utility.yul\":11237:11459   */\n      pop\n      jump\t// out\n        /* \"#utility.yul\":11465:11831   */\n    tag_136:\n        /* \"#utility.yul\":11607:11610   */\n      0x00\n        /* \"#utility.yul\":11628:11695   */\n      tag_288\n        /* \"#utility.yul\":11692:11694   */\n      0x23\n        /* \"#utility.yul\":11687:11690   */\n      dup4\n        /* \"#utility.yul\":11628:11695   */\n      tag_126\n      jump\t// in\n    tag_288:\n        /* \"#utility.yul\":11621:11695   */\n      swap2\n      pop\n        /* \"#utility.yul\":11704:11797   */\n      tag_289\n        /* \"#utility.yul\":11793:11796   */\n      dup3\n        /* \"#utility.yul\":11704:11797   */\n      tag_135\n      jump\t// in\n    tag_289:\n        /* \"#utility.yul\":11822:11824   */\n      0x40\n        /* \"#utility.yul\":11817:11820   */\n      dup3\n        /* \"#utility.yul\":11813:11825   */\n      add\n        /* \"#utility.yul\":11806:11825   */\n      swap1\n      pop\n        /* \"#utility.yul\":11465:11831   */\n      swap2\n      swap1\n      pop\n      jump\t// out\n        /* \"#utility.yul\":11837:12256   */\n    tag_59:\n        /* \"#utility.yul\":12003:12007   */\n      0x00\n        /* \"#utility.yul\":12041:12043   */\n      0x20\n        /* \"#utility.yul\":12030:12039   */\n      dup3\n        /* \"#utility.yul\":12026:12044   */\n      add\n        /* \"#utility.yul\":12018:12044   */\n      swap1\n      pop\n        /* \"#utility.yul\":12090:12099   */\n      dup2\n        /* \"#utility.yul\":12084:12088   */\n      dup2\n        /* \"#utility.yul\":12080:12100   */\n      sub\n        /* \"#utility.yul\":12076:12077   */\n      0x00\n        /* \"#utility.yul\":12065:12074   */\n      dup4\n        /* \"#utility.yul\":12061:12078   */\n      add\n        /* \"#utility.yul\":12054:12101   */\n      mstore\n        /* \"#utility.yul\":12118:12249   */\n      tag_291\n        /* \"#utility.yul\":12244:12248   */\n      dup2\n        /* \"#utility.yul\":12118:12249   */\n      tag_136\n      jump\t// in\n    tag_291:\n        /* \"#utility.yul\":12110:12249   */\n      swap1\n      pop\n        /* \"#utility.yul\":11837:12256   */\n      swap2\n      swap1\n      pop\n      jump\t// out\n        /* \"#utility.yul\":12262:12410   */\n    tag_137:\n        /* \"#utility.yul\":12364:12375   */\n      0x00\n        /* \"#utility.yul\":12401:12404   */\n      dup2\n        /* \"#utility.yul\":12386:12404   */\n      swap1\n      pop\n        /* \"#utility.yul\":12262:12410   */\n      swap3\n      swap2\n      pop\n      pop\n      jump\t// out\n        /* \"#utility.yul\":12416:12806   */\n    tag_138:\n        /* \"#utility.yul\":12522:12525   */\n      0x00\n        /* \"#utility.yul\":12550:12589   */\n      tag_294\n        /* \"#utility.yul\":12583:12588   */\n      dup3\n        /* \"#utility.yul\":12550:12589   */\n      tag_125\n      jump\t// in\n    tag_294:\n        /* \"#utility.yul\":12605:12694   */\n      tag_295\n        /* \"#utility.yul\":12687:12693   */\n      dup2\n        /* \"#utility.yul\":12682:12685   */\n      dup6\n        /* \"#utility.yul\":12605:12694   */\n      tag_137\n      jump\t// in\n    tag_295:\n        /* \"#utility.yul\":12598:12694   */\n      swap4\n      pop\n        /* \"#utility.yul\":12703:12768   */\n      tag_296\n        /* \"#utility.yul\":12761:12767   */\n      dup2\n        /* \"#utility.yul\":12756:12759   */\n      dup6\n        /* \"#utility.yul\":12749:12753   */\n      0x20\n        /* \"#utility.yul\":12742:12747   */\n      dup7\n        /* \"#utility.yul\":12738:12754   */\n      add\n        /* \"#utility.yul\":12703:12768   */\n      tag_127\n      jump\t// in\n    tag_296:\n        /* \"#utility.yul\":12793:12799   */\n      dup1\n        /* \"#utility.yul\":12788:12791   */\n      dup5\n        /* \"#utility.yul\":12784:12800   */\n      add\n        /* \"#utility.yul\":12777:12800   */\n      swap2\n      pop\n        /* \"#utility.yul\":12526:12806   */\n      pop\n        /* \"#utility.yul\":12416:12806   */\n      swap3\n      swap2\n      pop\n      pop\n      jump\t// out\n        /* \"#utility.yul\":12812:13087   */\n    tag_61:\n        /* \"#utility.yul\":12944:12947   */\n      0x00\n        /* \"#utility.yul\":12966:13061   */\n      tag_298\n        /* \"#utility.yul\":13057:13060   */\n      dup3\n        /* \"#utility.yul\":13048:13054   */\n      dup5\n        /* \"#utility.yul\":12966:13061   */\n      tag_138\n      jump\t// in\n    tag_298:\n        /* \"#utility.yul\":12959:13061   */\n      swap2\n      pop\n        /* \"#utility.yul\":13078:13081   */\n      dup2\n        /* \"#utility.yul\":13071:13081   */\n      swap1\n      pop\n        /* \"#utility.yul\":12812:13087   */\n      swap3\n      swap2\n      pop\n      pop\n      jump\t// out\n        /* \"#utility.yul\":13093:13275   */\n    tag_139:\n        /* \"#utility.yul\":13233:13267   */\n      0x737472696e6720656e747279206e616d6520646f6573206e6f74206578697374\n        /* \"#utility.yul\":13229:13230   */\n      0x00\n        /* \"#utility.yul\":13221:13227   */\n      dup3\n        /* \"#utility.yul\":13217:13231   */\n      add\n        /* \"#utility.yul\":13210:13268   */\n      mstore\n        /* \"#utility.yul\":13093:13275   */\n      pop\n      jump\t// out\n        /* \"#utility.yul\":13281:13647   */\n    tag_140:\n        /* \"#utility.yul\":13423:13426   */\n      0x00\n        /* \"#utility.yul\":13444:13511   */\n      tag_301\n        /* \"#utility.yul\":13508:13510   */\n      0x20\n        /* \"#utility.yul\":13503:13506   */\n      dup4\n        /* \"#utility.yul\":13444:13511   */\n      tag_126\n      jump\t// in\n    tag_301:\n        /* \"#utility.yul\":13437:13511   */\n      swap2\n      pop\n        /* \"#utility.yul\":13520:13613   */\n      tag_302\n        /* \"#utility.yul\":13609:13612   */\n      dup3\n        /* \"#utility.yul\":13520:13613   */\n      tag_139\n      jump\t// in\n    tag_302:\n        /* \"#utility.yul\":13638:13640   */\n      0x20\n        /* \"#utility.yul\":13633:13636   */\n      dup3\n        /* \"#utility.yul\":13629:13641   */\n      add\n        /* \"#utility.yul\":13622:13641   */\n      swap1\n      pop\n        /* \"#utility.yul\":13281:13647   */\n      swap2\n      swap1\n      pop\n      jump\t// out\n        /* \"#utility.yul\":13653:14072   */\n    tag_64:\n        /* \"#utility.yul\":13819:13823   */\n      0x00\n        /* \"#utility.yul\":13857:13859   */\n      0x20\n        /* \"#utility.yul\":13846:13855   */\n      dup3\n        /* \"#utility.yul\":13842:13860   */\n      add\n        /* \"#utility.yul\":13834:13860   */\n      swap1\n      pop\n        /* \"#utility.yul\":13906:13915   */\n      dup2\n        /* \"#utility.yul\":13900:13904   */\n      dup2\n        /* \"#utility.yul\":13896:13916   */\n      sub\n        /* \"#utility.yul\":13892:13893   */\n      0x00\n        /* \"#utility.yul\":13881:13890   */\n      dup4\n        /* \"#utility.yul\":13877:13894   */\n      add\n        /* \"#utility.yul\":13870:13917   */\n      mstore\n        /* \"#utility.yul\":13934:14065   */\n      tag_304\n        /* \"#utility.yul\":14060:14064   */\n      dup2\n        /* \"#utility.yul\":13934:14065   */\n      tag_140\n      jump\t// in\n    tag_304:\n        /* \"#utility.yul\":13926:14065   */\n      swap1\n      pop\n        /* \"#utility.yul\":13653:14072   */\n      swap2\n      swap1\n      pop\n      jump\t// out\n        /* \"#utility.yul\":14078:14300   */\n    tag_141:\n        /* \"#utility.yul\":14218:14252   */\n      0x796f752063616e6e6f7420656e7465722061206465627420746f20796f757273\n        /* \"#utility.yul\":14214:14215   */\n      0x00\n        /* \"#utility.yul\":14206:14212   */\n      dup3\n        /* \"#utility.yul\":14202:14216   */\n      add\n        /* \"#utility.yul\":14195:14253   */\n      mstore\n        /* \"#utility.yul\":14287:14292   */\n      0x656c660000000000000000000000000000000000000000000000000000000000\n        /* \"#utility.yul\":14282:14284   */\n      0x20\n        /* \"#utility.yul\":14274:14280   */\n      dup3\n        /* \"#utility.yul\":14270:14285   */\n      add\n        /* \"#utility.yul\":14263:14293   */\n      mstore\n        /* \"#utility.yul\":14078:14300   */\n      pop\n      jump\t// out\n        /* \"#utility.yul\":14306:14672   */\n    tag_142:\n        /* \"#utility.yul\":14448:14451   */\n      0x00\n        /* \"#utility.yul\":14469:14536   */\n      tag_307\n        /* \"#utility.yul\":14533:14535   */\n      0x23\n        /* \"#utility.yul\":14528:14531   */\n      dup4\n        /* \"#utility.yul\":14469:14536   */\n      tag_126\n      jump\t// in\n    tag_307:\n        /* \"#utility.yul\":14462:14536   */\n      swap2\n      pop\n        /* \"#utility.yul\":14545:14638   */\n      tag_308\n        /* \"#utility.yul\":14634:14637   */\n      dup3\n        /* \"#utility.yul\":14545:14638   */\n      tag_141\n      jump\t// in\n    tag_308:\n        /* \"#utility.yul\":14663:14665   */\n      0x40\n        /* \"#utility.yul\":14658:14661   */\n      dup3\n        /* \"#utility.yul\":14654:14666   */\n      add\n        /* \"#utility.yul\":14647:14666   */\n      swap1\n      pop\n        /* \"#utility.yul\":14306:14672   */\n      swap2\n      swap1\n      pop\n      jump\t// out\n        /* \"#utility.yul\":14678:15097   */\n    tag_68:\n        /* \"#utility.yul\":14844:14848   */\n      0x00\n        /* \"#utility.yul\":14882:14884   */\n      0x20\n        /* \"#utility.yul\":14871:14880   */\n      dup3\n        /* \"#utility.yul\":14867:14885   */\n      add\n        /* \"#utility.yul\":14859:14885   */\n      swap1\n      pop\n        /* \"#utility.yul\":14931:14940   */\n      dup2\n        /* \"#utility.yul\":14925:14929   */\n      dup2\n        /* \"#utility.yul\":14921:14941   */\n      sub\n        /* \"#utility.yul\":14917:14918   */\n      0x00\n        /* \"#utility.yul\":14906:14915   */\n      dup4\n        /* \"#utility.yul\":14902:14919   */\n      add\n        /* \"#utility.yul\":14895:14942   */\n      mstore\n        /* \"#utility.yul\":14959:15090   */\n      tag_310\n        /* \"#utility.yul\":15085:15089   */\n      dup2\n        /* \"#utility.yul\":14959:15090   */\n      tag_142\n      jump\t// in\n    tag_310:\n        /* \"#utility.yul\":14951:15090   */\n      swap1\n      pop\n        /* \"#utility.yul\":14678:15097   */\n      swap2\n      swap1\n      pop\n      jump\t// out\n        /* \"#utility.yul\":15103:15283   */\n    tag_143:\n        /* \"#utility.yul\":15151:15228   */\n      0x4e487b7100000000000000000000000000000000000000000000000000000000\n        /* \"#utility.yul\":15148:15149   */\n      0x00\n        /* \"#utility.yul\":15141:15229   */\n      mstore\n        /* \"#utility.yul\":15248:15252   */\n      0x11\n        /* \"#utility.yul\":15245:15246   */\n      0x04\n        /* \"#utility.yul\":15238:15253   */\n      mstore\n        /* \"#utility.yul\":15272:15276   */\n      0x24\n        /* \"#utility.yul\":15269:15270   */\n      0x00\n        /* \"#utility.yul\":15262:15277   */\n      revert\n        /* \"#utility.yul\":15289:15664   */\n    tag_70:\n        /* \"#utility.yul\":15328:15331   */\n      0x00\n        /* \"#utility.yul\":15347:15366   */\n      tag_313\n        /* \"#utility.yul\":15364:15365   */\n      dup3\n        /* \"#utility.yul\":15347:15366   */\n      tag_120\n      jump\t// in\n    tag_313:\n        /* \"#utility.yul\":15342:15366   */\n      swap2\n      pop\n        /* \"#utility.yul\":15380:15399   */\n      tag_314\n        /* \"#utility.yul\":15397:15398   */\n      dup4\n        /* \"#utility.yul\":15380:15399   */\n      tag_120\n      jump\t// in\n    tag_314:\n        /* \"#utility.yul\":15375:15399   */\n      swap3\n      pop\n        /* \"#utility.yul\":15422:15423   */\n      dup3\n        /* \"#utility.yul\":15419:15420   */\n      dup3\n        /* \"#utility.yul\":15415:15424   */\n      add\n        /* \"#utility.yul\":15408:15424   */\n      swap1\n      pop\n        /* \"#utility.yul\":15620:15621   */\n      dup3\n        /* \"#utility.yul\":15615:15618   */\n      dup2\n        /* \"#utility.yul\":15611:15622   */\n      slt\n        /* \"#utility.yul\":15604:15623   */\n      iszero\n        /* \"#utility.yul\":15600:15601   */\n      0x00\n        /* \"#utility.yul\":15597:15598   */\n      dup4\n        /* \"#utility.yul\":15593:15602   */\n      slt\n        /* \"#utility.yul\":15589:15624   */\n      and\n        /* \"#utility.yul\":15572:15573   */\n      dup4\n        /* \"#utility.yul\":15567:15570   */\n      dup3\n        /* \"#utility.yul\":15563:15574   */\n      slt\n        /* \"#utility.yul\":15558:15559   */\n      0x00\n        /* \"#utility.yul\":15555:15556   */\n      dup5\n        /* \"#utility.yul\":15551:15560   */\n      slt\n        /* \"#utility.yul\":15544:15561   */\n      iszero\n        /* \"#utility.yul\":15540:15575   */\n      and\n        /* \"#utility.yul\":15524:15634   */\n      or\n        /* \"#utility.yul\":15521:15657   */\n      iszero\n      tag_315\n      jumpi\n        /* \"#utility.yul\":15637:15655   */\n      tag_316\n      tag_143\n      jump\t// in\n    tag_316:\n        /* \"#utility.yul\":15521:15657   */\n    tag_315:\n        /* \"#utility.yul\":15289:15664   */\n      swap3\n      swap2\n      pop\n      pop\n      jump\t// out\n        /* \"#utility.yul\":15670:16042   */\n    tag_72:\n        /* \"#utility.yul\":15709:15713   */\n      0x00\n        /* \"#utility.yul\":15729:15748   */\n      tag_318\n        /* \"#utility.yul\":15746:15747   */\n      dup3\n        /* \"#utility.yul\":15729:15748   */\n      tag_120\n      jump\t// in\n    tag_318:\n        /* \"#utility.yul\":15724:15748   */\n      swap2\n      pop\n        /* \"#utility.yul\":15762:15781   */\n      tag_319\n        /* \"#utility.yul\":15779:15780   */\n      dup4\n        /* \"#utility.yul\":15762:15781   */\n      tag_120\n      jump\t// in\n    tag_319:\n        /* \"#utility.yul\":15757:15781   */\n      swap3\n      pop\n        /* \"#utility.yul\":15805:15806   */\n      dup3\n        /* \"#utility.yul\":15802:15803   */\n      dup3\n        /* \"#utility.yul\":15798:15807   */\n      sub\n        /* \"#utility.yul\":15790:15807   */\n      swap1\n      pop\n        /* \"#utility.yul\":15999:16000   */\n      dup2\n        /* \"#utility.yul\":15993:15997   */\n      dup2\n        /* \"#utility.yul\":15989:16001   */\n      slt\n        /* \"#utility.yul\":15985:15986   */\n      0x00\n        /* \"#utility.yul\":15982:15983   */\n      dup5\n        /* \"#utility.yul\":15978:15987   */\n      slt\n        /* \"#utility.yul\":15974:16002   */\n      and\n        /* \"#utility.yul\":15957:15958   */\n      dup3\n        /* \"#utility.yul\":15951:15955   */\n      dup3\n        /* \"#utility.yul\":15947:15959   */\n      sgt\n        /* \"#utility.yul\":15942:15943   */\n      0x00\n        /* \"#utility.yul\":15939:15940   */\n      dup6\n        /* \"#utility.yul\":15935:15944   */\n      slt\n        /* \"#utility.yul\":15928:15945   */\n      iszero\n        /* \"#utility.yul\":15924:15960   */\n      and\n        /* \"#utility.yul\":15908:16012   */\n      or\n        /* \"#utility.yul\":15905:16035   */\n      iszero\n      tag_320\n      jumpi\n        /* \"#utility.yul\":16015:16033   */\n      tag_321\n      tag_143\n      jump\t// in\n    tag_321:\n        /* \"#utility.yul\":15905:16035   */\n    tag_320:\n        /* \"#utility.yul\":15670:16042   */\n      swap3\n      swap2\n      pop\n      pop\n      jump\t// out\n        /* \"#utility.yul\":16048:16228   */\n    tag_144:\n        /* \"#utility.yul\":16096:16173   */\n      0x4e487b7100000000000000000000000000000000000000000000000000000000\n        /* \"#utility.yul\":16093:16094   */\n      0x00\n        /* \"#utility.yul\":16086:16174   */\n      mstore\n        /* \"#utility.yul\":16193:16197   */\n      0x22\n        /* \"#utility.yul\":16190:16191   */\n      0x04\n        /* \"#utility.yul\":16183:16198   */\n      mstore\n        /* \"#utility.yul\":16217:16221   */\n      0x24\n        /* \"#utility.yul\":16214:16215   */\n      0x00\n        /* \"#utility.yul\":16207:16222   */\n      revert\n        /* \"#utility.yul\":16234:16554   */\n    tag_74:\n        /* \"#utility.yul\":16278:16284   */\n      0x00\n        /* \"#utility.yul\":16315:16316   */\n      0x02\n        /* \"#utility.yul\":16309:16313   */\n      dup3\n        /* \"#utility.yul\":16305:16317   */\n      div\n        /* \"#utility.yul\":16295:16317   */\n      swap1\n      pop\n        /* \"#utility.yul\":16362:16363   */\n      0x01\n        /* \"#utility.yul\":16356:16360   */\n      dup3\n        /* \"#utility.yul\":16352:16364   */\n      and\n        /* \"#utility.yul\":16383:16401   */\n      dup1\n        /* \"#utility.yul\":16373:16454   */\n      tag_324\n      jumpi\n        /* \"#utility.yul\":16439:16443   */\n      0x7f\n        /* \"#utility.yul\":16431:16437   */\n      dup3\n        /* \"#utility.yul\":16427:16444   */\n      and\n        /* \"#utility.yul\":16417:16444   */\n      swap2\n      pop\n        /* \"#utility.yul\":16373:16454   */\n    tag_324:\n        /* \"#utility.yul\":16501:16503   */\n      0x20\n        /* \"#utility.yul\":16493:16499   */\n      dup3\n        /* \"#utility.yul\":16490:16504   */\n      lt\n        /* \"#utility.yul\":16470:16488   */\n      dup2\n        /* \"#utility.yul\":16467:16505   */\n      sub\n        /* \"#utility.yul\":16464:16548   */\n      tag_325\n      jumpi\n        /* \"#utility.yul\":16520:16538   */\n      tag_326\n      tag_144\n      jump\t// in\n    tag_326:\n        /* \"#utility.yul\":16464:16548   */\n    tag_325:\n        /* \"#utility.yul\":16285:16554   */\n      pop\n        /* \"#utility.yul\":16234:16554   */\n      swap2\n      swap1\n      pop\n      jump\t// out\n        /* \"#utility.yul\":16560:16742   */\n    tag_145:\n        /* \"#utility.yul\":16700:16734   */\n      0x737472696e6720656e747279206e616d6520616c726561647920657869737473\n        /* \"#utility.yul\":16696:16697   */\n      0x00\n        /* \"#utility.yul\":16688:16694   */\n      dup3\n        /* \"#utility.yul\":16684:16698   */\n      add\n        /* \"#utility.yul\":16677:16735   */\n      mstore\n        /* \"#utility.yul\":16560:16742   */\n      pop\n      jump\t// out\n        /* \"#utility.yul\":16748:17114   */\n    tag_146:\n        /* \"#utility.yul\":16890:16893   */\n      0x00\n        /* \"#utility.yul\":16911:16978   */\n      tag_329\n        /* \"#utility.yul\":16975:16977   */\n      0x20\n        /* \"#utility.yul\":16970:16973   */\n      dup4\n        /* \"#utility.yul\":16911:16978   */\n      tag_126\n      jump\t// in\n    tag_329:\n        /* \"#utility.yul\":16904:16978   */\n      swap2\n      pop\n        /* \"#utility.yul\":16987:17080   */\n      tag_330\n        /* \"#utility.yul\":17076:17079   */\n      dup3\n        /* \"#utility.yul\":16987:17080   */\n      tag_145\n      jump\t// in\n    tag_330:\n        /* \"#utility.yul\":17105:17107   */\n      0x20\n        /* \"#utility.yul\":17100:17103   */\n      dup3\n        /* \"#utility.yul\":17096:17108   */\n      add\n        /* \"#utility.yul\":17089:17108   */\n      swap1\n      pop\n        /* \"#utility.yul\":16748:17114   */\n      swap2\n      swap1\n      pop\n      jump\t// out\n        /* \"#utility.yul\":17120:17539   */\n    tag_88:\n        /* \"#utility.yul\":17286:17290   */\n      0x00\n        /* \"#utility.yul\":17324:17326   */\n      0x20\n        /* \"#utility.yul\":17313:17322   */\n      dup3\n        /* \"#utility.yul\":17309:17327   */\n      add\n        /* \"#utility.yul\":17301:17327   */\n      swap1\n      pop\n        /* \"#utility.yul\":17373:17382   */\n      dup2\n        /* \"#utility.yul\":17367:17371   */\n      dup2\n        /* \"#utility.yul\":17363:17383   */\n      sub\n        /* \"#utility.yul\":17359:17360   */\n      0x00\n        /* \"#utility.yul\":17348:17357   */\n      dup4\n        /* \"#utility.yul\":17344:17361   */\n      add\n        /* \"#utility.yul\":17337:17384   */\n      mstore\n        /* \"#utility.yul\":17401:17532   */\n      tag_332\n        /* \"#utility.yul\":17527:17531   */\n      dup2\n        /* \"#utility.yul\":17401:17532   */\n      tag_146\n      jump\t// in\n    tag_332:\n        /* \"#utility.yul\":17393:17532   */\n      swap1\n      pop\n        /* \"#utility.yul\":17120:17539   */\n      swap2\n      swap1\n      pop\n      jump\t// out\n        /* \"#utility.yul\":17545:17765   */\n    tag_147:\n        /* \"#utility.yul\":17685:17719   */\n      0x796f7572206164647265737320616c72656164792068617320616e20616c6961\n        /* \"#utility.yul\":17681:17682   */\n      0x00\n        /* \"#utility.yul\":17673:17679   */\n      dup3\n        /* \"#utility.yul\":17669:17683   */\n      add\n        /* \"#utility.yul\":17662:17720   */\n      mstore\n        /* \"#utility.yul\":17754:17757   */\n      0x7300000000000000000000000000000000000000000000000000000000000000\n        /* \"#utility.yul\":17749:17751   */\n      0x20\n        /* \"#utility.yul\":17741:17747   */\n      dup3\n        /* \"#utility.yul\":17737:17752   */\n      add\n        /* \"#utility.yul\":17730:17758   */\n      mstore\n        /* \"#utility.yul\":17545:17765   */\n      pop\n      jump\t// out\n        /* \"#utility.yul\":17771:18137   */\n    tag_148:\n        /* \"#utility.yul\":17913:17916   */\n      0x00\n        /* \"#utility.yul\":17934:18001   */\n      tag_335\n        /* \"#utility.yul\":17998:18000   */\n      0x21\n        /* \"#utility.yul\":17993:17996   */\n      dup4\n        /* \"#utility.yul\":17934:18001   */\n      tag_126\n      jump\t// in\n    tag_335:\n        /* \"#utility.yul\":17927:18001   */\n      swap2\n      pop\n        /* \"#utility.yul\":18010:18103   */\n      tag_336\n        /* \"#utility.yul\":18099:18102   */\n      dup3\n        /* \"#utility.yul\":18010:18103   */\n      tag_147\n      jump\t// in\n    tag_336:\n        /* \"#utility.yul\":18128:18130   */\n      0x40\n        /* \"#utility.yul\":18123:18126   */\n      dup3\n        /* \"#utility.yul\":18119:18131   */\n      add\n        /* \"#utility.yul\":18112:18131   */\n      swap1\n      pop\n        /* \"#utility.yul\":17771:18137   */\n      swap2\n      swap1\n      pop\n      jump\t// out\n        /* \"#utility.yul\":18143:18562   */\n    tag_91:\n        /* \"#utility.yul\":18309:18313   */\n      0x00\n        /* \"#utility.yul\":18347:18349   */\n      0x20\n        /* \"#utility.yul\":18336:18345   */\n      dup3\n        /* \"#utility.yul\":18332:18350   */\n      add\n        /* \"#utility.yul\":18324:18350   */\n      swap1\n      pop\n        /* \"#utility.yul\":18396:18405   */\n      dup2\n        /* \"#utility.yul\":18390:18394   */\n      dup2\n        /* \"#utility.yul\":18386:18406   */\n      sub\n        /* \"#utility.yul\":18382:18383   */\n      0x00\n        /* \"#utility.yul\":18371:18380   */\n      dup4\n        /* \"#utility.yul\":18367:18384   */\n      add\n        /* \"#utility.yul\":18360:18407   */\n      mstore\n        /* \"#utility.yul\":18424:18555   */\n      tag_338\n        /* \"#utility.yul\":18550:18554   */\n      dup2\n        /* \"#utility.yul\":18424:18555   */\n      tag_148\n      jump\t// in\n    tag_338:\n        /* \"#utility.yul\":18416:18555   */\n      swap1\n      pop\n        /* \"#utility.yul\":18143:18562   */\n      swap2\n      swap1\n      pop\n      jump\t// out\n        /* \"#utility.yul\":18568:18709   */\n    tag_149:\n        /* \"#utility.yul\":18617:18621   */\n      0x00\n        /* \"#utility.yul\":18640:18643   */\n      dup2\n        /* \"#utility.yul\":18632:18643   */\n      swap1\n      pop\n        /* \"#utility.yul\":18663:18666   */\n      dup2\n        /* \"#utility.yul\":18660:18661   */\n      0x00\n        /* \"#utility.yul\":18653:18667   */\n      mstore\n        /* \"#utility.yul\":18697:18701   */\n      0x20\n        /* \"#utility.yul\":18694:18695   */\n      0x00\n        /* \"#utility.yul\":18684:18702   */\n      keccak256\n        /* \"#utility.yul\":18676:18702   */\n      swap1\n      pop\n        /* \"#utility.yul\":18568:18709   */\n      swap2\n      swap1\n      pop\n      jump\t// out\n        /* \"#utility.yul\":18715:18808   */\n    tag_150:\n        /* \"#utility.yul\":18752:18758   */\n      0x00\n        /* \"#utility.yul\":18799:18801   */\n      0x20\n        /* \"#utility.yul\":18794:18796   */\n      0x1f\n        /* \"#utility.yul\":18787:18792   */\n      dup4\n        /* \"#utility.yul\":18783:18797   */\n      add\n        /* \"#utility.yul\":18779:18802   */\n      div\n        /* \"#utility.yul\":18769:18802   */\n      swap1\n      pop\n        /* \"#utility.yul\":18715:18808   */\n      swap2\n      swap1\n      pop\n      jump\t// out\n        /* \"#utility.yul\":18814:18921   */\n    tag_151:\n        /* \"#utility.yul\":18858:18866   */\n      0x00\n        /* \"#utility.yul\":18908:18913   */\n      dup3\n        /* \"#utility.yul\":18902:18906   */\n      dup3\n        /* \"#utility.yul\":18898:18914   */\n      shl\n        /* \"#utility.yul\":18877:18914   */\n      swap1\n      pop\n        /* \"#utility.yul\":18814:18921   */\n      swap3\n      swap2\n      pop\n      pop\n      jump\t// out\n        /* \"#utility.yul\":18927:19320   */\n    tag_152:\n        /* \"#utility.yul\":18996:19002   */\n      0x00\n        /* \"#utility.yul\":19046:19047   */\n      0x08\n        /* \"#utility.yul\":19034:19044   */\n      dup4\n        /* \"#utility.yul\":19030:19048   */\n      mul\n        /* \"#utility.yul\":19069:19166   */\n      tag_343\n        /* \"#utility.yul\":19099:19165   */\n      0xffffffffffffffffffffffffffffffffffffffffffffffffffffffffffffffff\n        /* \"#utility.yul\":19088:19097   */\n      dup3\n        /* \"#utility.yul\":19069:19166   */\n      tag_151\n      jump\t// in\n    tag_343:\n        /* \"#utility.yul\":19187:19226   */\n      tag_344\n        /* \"#utility.yul\":19217:19225   */\n      dup7\n        /* \"#utility.yul\":19206:19215   */\n      dup4\n        /* \"#utility.yul\":19187:19226   */\n      tag_151\n      jump\t// in\n    tag_344:\n        /* \"#utility.yul\":19175:19226   */\n      swap6\n      pop\n        /* \"#utility.yul\":19259:19263   */\n      dup1\n        /* \"#utility.yul\":19255:19264   */\n      not\n        /* \"#utility.yul\":19248:19253   */\n      dup5\n        /* \"#utility.yul\":19244:19265   */\n      and\n        /* \"#utility.yul\":19235:19265   */\n      swap4\n      pop\n        /* \"#utility.yul\":19308:19312   */\n      dup1\n        /* \"#utility.yul\":19298:19306   */\n      dup7\n        /* \"#utility.yul\":19294:19313   */\n      and\n        /* \"#utility.yul\":19287:19292   */\n      dup5\n        /* \"#utility.yul\":19284:19314   */\n      or\n        /* \"#utility.yul\":19274:19314   */\n      swap3\n      pop\n        /* \"#utility.yul\":19003:19320   */\n      pop\n      pop\n        /* \"#utility.yul\":18927:19320   */\n      swap4\n      swap3\n      pop\n      pop\n      pop\n      jump\t// out\n        /* \"#utility.yul\":19326:19386   */\n    tag_153:\n        /* \"#utility.yul\":19354:19357   */\n      0x00\n        /* \"#utility.yul\":19375:19380   */\n      dup2\n        /* \"#utility.yul\":19368:19380   */\n      swap1\n      pop\n        /* \"#utility.yul\":19326:19386   */\n      swap2\n      swap1\n      pop\n      jump\t// out\n        /* \"#utility.yul\":19392:19534   */\n    tag_154:\n        /* \"#utility.yul\":19442:19451   */\n      0x00\n        /* \"#utility.yul\":19475:19528   */\n      tag_347\n        /* \"#utility.yul\":19493:19527   */\n      tag_348\n        /* \"#utility.yul\":19502:19526   */\n      tag_349\n        /* \"#utility.yul\":19520:19525   */\n      dup5\n        /* \"#utility.yul\":19502:19526   */\n      tag_118\n      jump\t// in\n    tag_349:\n        /* \"#utility.yul\":19493:19527   */\n      tag_153\n      jump\t// in\n    tag_348:\n        /* \"#utility.yul\":19475:19528   */\n      tag_118\n      jump\t// in\n    tag_347:\n        /* \"#utility.yul\":19462:19528   */\n      swap1\n      pop\n        /* \"#utility.yul\":19392:19534   */\n      swap2\n      swap1\n      pop\n      jump\t// out\n        /* \"#utility.yul\":19540:19615   */\n    tag_155:\n        /* \"#utility.yul\":19583:19586   */\n      0x00\n        /* \"#utility.yul\":19604:19609   */\n      dup2\n        /* \"#utility.yul\":19597:19609   */\n      swap1\n      pop\n        /* \"#utility.yul\":19540:19615   */\n      swap2\n      swap1\n      pop\n      jump\t// out\n        /* \"#utility.yul\":19621:19890   */\n    tag_156:\n        /* \"#utility.yul\":19731:19770   */\n      tag_352\n        /* \"#utility.yul\":19762:19769   */\n      dup4\n        /* \"#utility.yul\":19731:19770   */\n      tag_154\n      jump\t// in\n    tag_352:\n        /* \"#utility.yul\":19792:19883   */\n      tag_353\n        /* \"#utility.yul\":19841:19882   */\n      tag_354\n        /* \"#utility.yul\":19865:19881   */\n      dup3\n        /* \"#utility.yul\":19841:19882   */\n      tag_155\n      jump\t// in\n    tag_354:\n        /* \"#utility.yul\":19833:19839   */\n      dup5\n        /* \"#utility.yul\":19826:19830   */\n      dup5\n        /* \"#utility.yul\":19820:19831   */\n      sload\n        /* \"#utility.yul\":19792:19883   */\n      tag_152\n      jump\t// in\n    tag_353:\n        /* \"#utility.yul\":19786:19790   */\n      dup3\n        /* \"#utility.yul\":19779:19884   */\n      sstore\n        /* \"#utility.yul\":19697:19890   */\n      pop\n        /* \"#utility.yul\":19621:19890   */\n      pop\n      pop\n      pop\n      jump\t// out\n        /* \"#utility.yul\":19896:19969   */\n    tag_157:\n        /* \"#utility.yul\":19941:19944   */\n      0x00\n        /* \"#utility.yul\":19896:19969   */\n      swap1\n      jump\t// out\n        /* \"#utility.yul\":19975:20164   */\n    tag_158:\n        /* \"#utility.yul\":20052:20084   */\n      tag_357\n      tag_157\n      jump\t// in\n    tag_357:\n        /* \"#utility.yul\":20093:20158   */\n      tag_358\n        /* \"#utility.yul\":20151:20157   */\n      dup2\n        /* \"#utility.yul\":20143:20149   */\n      dup5\n        /* \"#utility.yul\":20137:20141   */\n      dup5\n        /* \"#utility.yul\":20093:20158   */\n      tag_156\n      jump\t// in\n    tag_358:\n        /* \"#utility.yul\":20028:20164   */\n      pop\n        /* \"#utility.yul\":19975:20164   */\n      pop\n      pop\n      jump\t// out\n        /* \"#utility.yul\":20170:20356   */\n    tag_159:\n        /* \"#utility.yul\":20230:20350   */\n    tag_360:\n        /* \"#utility.yul\":20247:20250   */\n      dup2\n        /* \"#utility.yul\":20240:20245   */\n      dup2\n        /* \"#utility.yul\":20237:20251   */\n      lt\n        /* \"#utility.yul\":20230:20350   */\n      iszero\n      tag_362\n      jumpi\n        /* \"#utility.yul\":20301:20340   */\n      tag_363\n        /* \"#utility.yul\":20338:20339   */\n      0x00\n        /* \"#utility.yul\":20331:20336   */\n      dup3\n        /* \"#utility.yul\":20301:20340   */\n      tag_158\n      jump\t// in\n    tag_363:\n        /* \"#utility.yul\":20274:20275   */\n      0x01\n        /* \"#utility.yul\":20267:20272   */\n      dup2\n        /* \"#utility.yul\":20263:20276   */\n      add\n        /* \"#utility.yul\":20254:20276   */\n      swap1\n      pop\n        /* \"#utility.yul\":20230:20350   */\n      jump(tag_360)\n    tag_362:\n        /* \"#utility.yul\":20170:20356   */\n      pop\n      pop\n      jump\t// out\n        /* \"#utility.yul\":20362:20905   */\n    tag_160:\n        /* \"#utility.yul\":20463:20465   */\n      0x1f\n        /* \"#utility.yul\":20458:20461   */\n      dup3\n        /* \"#utility.yul\":20455:20466   */\n      gt\n        /* \"#utility.yul\":20452:20898   */\n      iszero\n      tag_365\n      jumpi\n        /* \"#utility.yul\":20497:20535   */\n      tag_366\n        /* \"#utility.yul\":20529:20534   */\n      dup2\n        /* \"#utility.yul\":20497:20535   */\n      tag_149\n      jump\t// in\n    tag_366:\n        /* \"#utility.yul\":20581:20610   */\n      tag_367\n        /* \"#utility.yul\":20599:20609   */\n      dup5\n        /* \"#utility.yul\":20581:20610   */\n      tag_150\n      jump\t// in\n    tag_367:\n        /* \"#utility.yul\":20571:20579   */\n      dup2\n        /* \"#utility.yul\":20567:20611   */\n      add\n        /* \"#utility.yul\":20764:20766   */\n      0x20\n        /* \"#utility.yul\":20752:20762   */\n      dup6\n        /* \"#utility.yul\":20749:20767   */\n      lt\n        /* \"#utility.yul\":20746:20795   */\n      iszero\n      tag_368\n      jumpi\n        /* \"#utility.yul\":20785:20793   */\n      dup2\n        /* \"#utility.yul\":20770:20793   */\n      swap1\n      pop\n        /* \"#utility.yul\":20746:20795   */\n    tag_368:\n        /* \"#utility.yul\":20808:20888   */\n      tag_369\n        /* \"#utility.yul\":20864:20886   */\n      tag_370\n        /* \"#utility.yul\":20882:20885   */\n      dup6\n        /* \"#utility.yul\":20864:20886   */\n      tag_150\n      jump\t// in\n    tag_370:\n        /* \"#utility.yul\":20854:20862   */\n      dup4\n        /* \"#utility.yul\":20850:20887   */\n      add\n        /* \"#utility.yul\":20837:20848   */\n      dup3\n        /* \"#utility.yul\":20808:20888   */\n      tag_159\n      jump\t// in\n    tag_369:\n        /* \"#utility.yul\":20467:20898   */\n      pop\n      pop\n        /* \"#utility.yul\":20452:20898   */\n    tag_365:\n        /* \"#utility.yul\":20362:20905   */\n      pop\n      pop\n      pop\n      jump\t// out\n        /* \"#utility.yul\":20911:21028   */\n    tag_161:\n        /* \"#utility.yul\":20965:20973   */\n      0x00\n        /* \"#utility.yul\":21015:21020   */\n      dup3\n        /* \"#utility.yul\":21009:21013   */\n      dup3\n        /* \"#utility.yul\":21005:21021   */\n      shr\n        /* \"#utility.yul\":20984:21021   */\n      swap1\n      pop\n        /* \"#utility.yul\":20911:21028   */\n      swap3\n      swap2\n      pop\n      pop\n      jump\t// out\n        /* \"#utility.yul\":21034:21203   */\n    tag_162:\n        /* \"#utility.yul\":21078:21084   */\n      0x00\n        /* \"#utility.yul\":21111:21162   */\n      tag_373\n        /* \"#utility.yul\":21159:21160   */\n      0x00\n        /* \"#utility.yul\":21155:21161   */\n      not\n        /* \"#utility.yul\":21147:21152   */\n      dup5\n        /* \"#utility.yul\":21144:21145   */\n      0x08\n        /* \"#utility.yul\":21140:21153   */\n      mul\n        /* \"#utility.yul\":21111:21162   */\n      tag_161\n      jump\t// in\n    tag_373:\n        /* \"#utility.yul\":21107:21163   */\n      not\n        /* \"#utility.yul\":21192:21196   */\n      dup1\n        /* \"#utility.yul\":21186:21190   */\n      dup4\n        /* \"#utility.yul\":21182:21197   */\n      and\n        /* \"#utility.yul\":21172:21197   */\n      swap2\n      pop\n        /* \"#utility.yul\":21085:21203   */\n      pop\n        /* \"#utility.yul\":21034:21203   */\n      swap3\n      swap2\n      pop\n      pop\n      jump\t// out\n        /* \"#utility.yul\":21208:21503   */\n    tag_163:\n        /* \"#utility.yul\":21284:21288   */\n      0x00\n        /* \"#utility.yul\":21430:21459   */\n      tag_375\n        /* \"#utility.yul\":21455:21458   */\n      dup4\n        /* \"#utility.yul\":21449:21453   */\n      dup4\n        /* \"#utility.yul\":21430:21459   */\n      tag_162\n      jump\t// in\n    tag_375:\n        /* \"#utility.yul\":21422:21459   */\n      swap2\n      pop\n        /* \"#utility.yul\":21492:21495   */\n      dup3\n        /* \"#utility.yul\":21489:21490   */\n      0x02\n        /* \"#utility.yul\":21485:21496   */\n      mul\n        /* \"#utility.yul\":21479:21483   */\n      dup3\n        /* \"#utility.yul\":21476:21497   */\n      or\n        /* \"#utility.yul\":21468:21497   */\n      swap1\n      pop\n        /* \"#utility.yul\":21208:21503   */\n      swap3\n      swap2\n      pop\n      pop\n      jump\t// out\n        /* \"#utility.yul\":21508:22903   */\n    tag_95:\n        /* \"#utility.yul\":21625:21662   */\n      tag_377\n        /* \"#utility.yul\":21658:21661   */\n      dup3\n        /* \"#utility.yul\":21625:21662   */\n      tag_125\n      jump\t// in\n    tag_377:\n        /* \"#utility.yul\":21727:21745   */\n      0xffffffffffffffff\n        /* \"#utility.yul\":21719:21725   */\n      dup2\n        /* \"#utility.yul\":21716:21746   */\n      gt\n        /* \"#utility.yul\":21713:21769   */\n      iszero\n      tag_378\n      jumpi\n        /* \"#utility.yul\":21749:21767   */\n      tag_379\n      tag_111\n      jump\t// in\n    tag_379:\n        /* \"#utility.yul\":21713:21769   */\n    tag_378:\n        /* \"#utility.yul\":21793:21831   */\n      tag_380\n        /* \"#utility.yul\":21825:21829   */\n      dup3\n        /* \"#utility.yul\":21819:21830   */\n      sload\n        /* \"#utility.yul\":21793:21831   */\n      tag_74\n      jump\t// in\n    tag_380:\n        /* \"#utility.yul\":21878:21945   */\n      tag_381\n        /* \"#utility.yul\":21938:21944   */\n      dup3\n        /* \"#utility.yul\":21930:21936   */\n      dup3\n        /* \"#utility.yul\":21924:21928   */\n      dup6\n        /* \"#utility.yul\":21878:21945   */\n      tag_160\n      jump\t// in\n    tag_381:\n        /* \"#utility.yul\":21972:21973   */\n      0x00\n        /* \"#utility.yul\":21996:22000   */\n      0x20\n        /* \"#utility.yul\":21983:22000   */\n      swap1\n      pop\n        /* \"#utility.yul\":22028:22030   */\n      0x1f\n        /* \"#utility.yul\":22020:22026   */\n      dup4\n        /* \"#utility.yul\":22017:22031   */\n      gt\n        /* \"#utility.yul\":22045:22046   */\n      0x01\n        /* \"#utility.yul\":22040:22658   */\n      dup2\n      eq\n      tag_383\n      jumpi\n        /* \"#utility.yul\":22702:22703   */\n      0x00\n        /* \"#utility.yul\":22719:22725   */\n      dup5\n        /* \"#utility.yul\":22716:22793   */\n      iszero\n      tag_384\n      jumpi\n        /* \"#utility.yul\":22768:22777   */\n      dup3\n        /* \"#utility.yul\":22763:22766   */\n      dup8\n        /* \"#utility.yul\":22759:22778   */\n      add\n        /* \"#utility.yul\":22753:22779   */\n      mload\n        /* \"#utility.yul\":22744:22779   */\n      swap1\n      pop\n        /* \"#utility.yul\":22716:22793   */\n    tag_384:\n        /* \"#utility.yul\":22819:22886   */\n      tag_385\n        /* \"#utility.yul\":22879:22885   */\n      dup6\n        /* \"#utility.yul\":22872:22877   */\n      dup3\n        /* \"#utility.yul\":22819:22886   */\n      tag_163\n      jump\t// in\n    tag_385:\n        /* \"#utility.yul\":22813:22817   */\n      dup7\n        /* \"#utility.yul\":22806:22887   */\n      sstore\n        /* \"#utility.yul\":22675:22897   */\n      pop\n        /* \"#utility.yul\":22010:22897   */\n      jump(tag_382)\n        /* \"#utility.yul\":22040:22658   */\n    tag_383:\n        /* \"#utility.yul\":22092:22096   */\n      0x1f\n        /* \"#utility.yul\":22088:22097   */\n      not\n        /* \"#utility.yul\":22080:22086   */\n      dup5\n        /* \"#utility.yul\":22076:22098   */\n      and\n        /* \"#utility.yul\":22126:22163   */\n      tag_386\n        /* \"#utility.yul\":22158:22162   */\n      dup7\n        /* \"#utility.yul\":22126:22163   */\n      tag_149\n      jump\t// in\n    tag_386:\n        /* \"#utility.yul\":22185:22186   */\n      0x00\n        /* \"#utility.yul\":22199:22407   */\n    tag_387:\n        /* \"#utility.yul\":22213:22220   */\n      dup3\n        /* \"#utility.yul\":22210:22211   */\n      dup2\n        /* \"#utility.yul\":22207:22221   */\n      lt\n        /* \"#utility.yul\":22199:22407   */\n      iszero\n      tag_389\n      jumpi\n        /* \"#utility.yul\":22292:22301   */\n      dup5\n        /* \"#utility.yul\":22287:22290   */\n      dup10\n        /* \"#utility.yul\":22283:22302   */\n      add\n        /* \"#utility.yul\":22277:22303   */\n      mload\n        /* \"#utility.yul\":22269:22275   */\n      dup3\n        /* \"#utility.yul\":22262:22304   */\n      sstore\n        /* \"#utility.yul\":22343:22344   */\n      0x01\n        /* \"#utility.yul\":22335:22341   */\n      dup3\n        /* \"#utility.yul\":22331:22345   */\n      add\n        /* \"#utility.yul\":22321:22345   */\n      swap2\n      pop\n        /* \"#utility.yul\":22390:22392   */\n      0x20\n        /* \"#utility.yul\":22379:22388   */\n      dup6\n        /* \"#utility.yul\":22375:22393   */\n      add\n        /* \"#utility.yul\":22362:22393   */\n      swap5\n      pop\n        /* \"#utility.yul\":22236:22240   */\n      0x20\n        /* \"#utility.yul\":22233:22234   */\n      dup2\n        /* \"#utility.yul\":22229:22241   */\n      add\n        /* \"#utility.yul\":22224:22241   */\n      swap1\n      pop\n        /* \"#utility.yul\":22199:22407   */\n      jump(tag_387)\n    tag_389:\n        /* \"#utility.yul\":22435:22441   */\n      dup7\n        /* \"#utility.yul\":22426:22433   */\n      dup4\n        /* \"#utility.yul\":22423:22442   */\n      lt\n        /* \"#utility.yul\":22420:22599   */\n      iszero\n      tag_390\n      jumpi\n        /* \"#utility.yul\":22493:22502   */\n      dup5\n        /* \"#utility.yul\":22488:22491   */\n      dup10\n        /* \"#utility.yul\":22484:22503   */\n      add\n        /* \"#utility.yul\":22478:22504   */\n      mload\n        /* \"#utility.yul\":22536:22584   */\n      tag_391\n        /* \"#utility.yul\":22578:22582   */\n      0x1f\n        /* \"#utility.yul\":22570:22576   */\n      dup10\n        /* \"#utility.yul\":22566:22583   */\n      and\n        /* \"#utility.yul\":22555:22564   */\n      dup3\n        /* \"#utility.yul\":22536:22584   */\n      tag_162\n      jump\t// in\n    tag_391:\n        /* \"#utility.yul\":22528:22534   */\n      dup4\n        /* \"#utility.yul\":22521:22585   */\n      sstore\n        /* \"#utility.yul\":22443:22599   */\n      pop\n        /* \"#utility.yul\":22420:22599   */\n    tag_390:\n        /* \"#utility.yul\":22645:22646   */\n      0x01\n        /* \"#utility.yul\":22641:22642   */\n      0x02\n        /* \"#utility.yul\":22633:22639   */\n      dup9\n        /* \"#utility.yul\":22629:22643   */\n      mul\n        /* \"#utility.yul\":22625:22647   */\n      add\n        /* \"#utility.yul\":22619:22623   */\n      dup9\n        /* \"#utility.yul\":22612:22648   */\n      sstore\n        /* \"#utility.yul\":22047:22658   */\n      pop\n      pop\n      pop\n        /* \"#utility.yul\":22010:22897   */\n    tag_382:\n      pop\n        /* \"#utility.yul\":21600:22903   */\n      pop\n      pop\n      pop\n        /* \"#utility.yul\":21508:22903   */\n      pop\n      pop\n      jump\t// out\n        /* \"#utility.yul\":22909:23142   */\n    tag_98:\n        /* \"#utility.yul\":22948:22951   */\n      0x00\n        /* \"#utility.yul\":22971:22995   */\n      tag_393\n        /* \"#utility.yul\":22989:22994   */\n      dup3\n        /* \"#utility.yul\":22971:22995   */\n      tag_118\n      jump\t// in\n    tag_393:\n        /* \"#utility.yul\":22962:22995   */\n      swap2\n      pop\n        /* \"#utility.yul\":23017:23083   */\n      0xffffffffffffffffffffffffffffffffffffffffffffffffffffffffffffffff\n        /* \"#utility.yul\":23010:23015   */\n      dup3\n        /* \"#utility.yul\":23007:23084   */\n      sub\n        /* \"#utility.yul\":23004:23107   */\n      tag_394\n      jumpi\n        /* \"#utility.yul\":23087:23105   */\n      tag_395\n      tag_143\n      jump\t// in\n    tag_395:\n        /* \"#utility.yul\":23004:23107   */\n    tag_394:\n        /* \"#utility.yul\":23134:23135   */\n      0x01\n        /* \"#utility.yul\":23127:23132   */\n      dup3\n        /* \"#utility.yul\":23123:23136   */\n      add\n        /* \"#utility.yul\":23116:23136   */\n      swap1\n      pop\n        /* \"#utility.yul\":22909:23142   */\n      swap2\n      swap1\n      pop\n      jump\t// out\n\n    auxdata: 0xa26469706673582212207dc5fcca0d0b7ee3d2a0b888c192e129c78d334d1fae654fcd34d8de9bf5dcdd64736f6c63430008120033\n}\n",
				"bytecode": {
					"linkReferences": {},
					"object": "608060405234801561001057600080fd5b5061171f806100206000396000f3fe608060405234801561001057600080fd5b50600436106100885760003560e01c806394bbfc0d1161005b57806394bbfc0d14610139578063b30906d414610169578063b7f1d5271461019d578063d72115dc146101bb57610088565b8063073f98fd1461008d57806331f9a55f146100bd57806376f30f78146100ed5780637d2101031461011d575b600080fd5b6100a760048036038101906100a29190610aa7565b6101d7565b6040516100b49190610aef565b60405180910390f35b6100d760048036038101906100d29190610c50565b6101f7565b6040516100e49190610cb2565b60405180910390f35b61010760048036038101906101029190610c50565b610225565b6040516101149190610aef565b60405180910390f35b61013760048036038101906101329190610d03565b61025b565b005b610153600480360381019061014e9190610aa7565b610599565b6040516101609190610cb2565b60405180910390f35b610183600480360381019061017e9190610d8b565b6105b1565b604051610194959493929190610e55565b60405180910390f35b6101a5610717565b6040516101b29190610cb2565b60405180910390f35b6101d560048036038101906101d09190610eb6565b61071d565b005b60016020528060005260406000206000915054906101000a900460ff1681565b6003818051602081018201805184825260208301602085012081835280955050505050506000915090505481565b6002818051602081018201805184825260208301602085012081835280955050505050506000915054906101000a900460ff1681565b7fffffffffffffffffffffffffffffffffffffffffffffffffffffffffffffff9c811215801561028c575060648113155b6102cb576040517f08c379a00000000000000000000000000000000000000000000000000000000081526004016102c290610fa0565b60405180910390fd5b6000810361030e576040517f08c379a00000000000000000000000000000000000000000000000000000000081526004016103059061100c565b60405180910390fd5b600160003373ffffffffffffffffffffffffffffffffffffffff1673ffffffffffffffffffffffffffffffffffffffff16815260200190815260200160002060009054906101000a900460ff1661039a576040517f08c379a00000000000000000000000000000000000000000000000000000000081526004016103919061109e565b60405180910390fd5b6002826040516103aa91906110fa565b908152602001604051809103902060009054906101000a900460ff16610405576040517f08c379a00000000000000000000000000000000000000000000000000000000081526004016103fc9061115d565b60405180910390fd5b6000600460003373ffffffffffffffffffffffffffffffffffffffff1673ffffffffffffffffffffffffffffffffffffffff168152602001908152602001600020549050600060038460405161045b91906110fa565b90815260200160405180910390205490503373ffffffffffffffffffffffffffffffffffffffff1660008083815260200190815260200160002060030160009054906101000a900473ffffffffffffffffffffffffffffffffffffffff1673ffffffffffffffffffffffffffffffffffffffff160361050f576040517f08c379a0000000000000000000000000000000000000000000000000000000008152600401610506906111ef565b60405180910390fd5b826000808481526020019081526020016000206004016000828254610534919061123e565b925050819055508260008083815260200190815260200160002060040160008282546105609190611282565b925050819055507f82b7f5026f6c6bbca9f5352b675d81ff78ea25c87a86b9f68bb8310945a11ebc60405160405180910390a150505050565b60046020528060005260406000206000915090505481565b60006020528060005260406000206000915090508060000154908060010180546105da906112f4565b80601f0160208091040260200160405190810160405280929190818152602001828054610606906112f4565b80156106535780601f1061062857610100808354040283529160200191610653565b820191906000526020600020905b81548152906001019060200180831161063657829003601f168201915b505050505090806002018054610668906112f4565b80601f0160208091040260200160405190810160405280929190818152602001828054610694906112f4565b80156106e15780601f106106b6576101008083540402835291602001916106e1565b820191906000526020600020905b8154815290600101906020018083116106c457829003601f168201915b5050505050908060030160009054906101000a900473ffffffffffffffffffffffffffffffffffffffff16908060040154905085565b60055481565b60028260405161072d91906110fa565b908152602001604051809103902060009054906101000a900460ff1615610789576040517f08c379a000000000000000000000000000000000000000000000000000000000815260040161078090611371565b60405180910390fd5b600160003373ffffffffffffffffffffffffffffffffffffffff1673ffffffffffffffffffffffffffffffffffffffff16815260200190815260200160002060009054906101000a900460ff1615610816576040517f08c379a000000000000000000000000000000000000000000000000000000000815260040161080d90611403565b60405180910390fd5b600160028360405161082891906110fa565b908152602001604051809103902060006101000a81548160ff02191690831515021790555060018060003373ffffffffffffffffffffffffffffffffffffffff1673ffffffffffffffffffffffffffffffffffffffff16815260200190815260200160002060006101000a81548160ff0219169083151502179055506005546003836040516108b791906110fa565b908152602001604051809103902081905550600554600460003373ffffffffffffffffffffffffffffffffffffffff1673ffffffffffffffffffffffffffffffffffffffff168152602001908152602001600020819055506040518060a0016040528060055481526020018381526020018281526020013373ffffffffffffffffffffffffffffffffffffffff1681526020016000815250600080600554815260200190815260200160002060008201518160000155602082015181600101908161098291906115cf565b50604082015181600201908161099891906115cf565b5060608201518160030160006101000a81548173ffffffffffffffffffffffffffffffffffffffff021916908373ffffffffffffffffffffffffffffffffffffffff1602179055506080820151816004015590505060056000815480929190610a00906116a1565b91905055507f7e42369838b7c7fafe8bba944990b5fee45d6a0afcd52154127c1784c47f5e4560405160405180910390a15050565b6000604051905090565b600080fd5b600080fd5b600073ffffffffffffffffffffffffffffffffffffffff82169050919050565b6000610a7482610a49565b9050919050565b610a8481610a69565b8114610a8f57600080fd5b50565b600081359050610aa181610a7b565b92915050565b600060208284031215610abd57610abc610a3f565b5b6000610acb84828501610a92565b91505092915050565b60008115159050919050565b610ae981610ad4565b82525050565b6000602082019050610b046000830184610ae0565b92915050565b600080fd5b600080fd5b6000601f19601f8301169050919050565b7f4e487b7100000000000000000000000000000000000000000000000000000000600052604160045260246000fd5b610b5d82610b14565b810181811067ffffffffffffffff82111715610b7c57610b7b610b25565b5b80604052505050565b6000610b8f610a35565b9050610b9b8282610b54565b919050565b600067ffffffffffffffff821115610bbb57610bba610b25565b5b610bc482610b14565b9050602081019050919050565b82818337600083830152505050565b6000610bf3610bee84610ba0565b610b85565b905082815260208101848484011115610c0f57610c0e610b0f565b5b610c1a848285610bd1565b509392505050565b600082601f830112610c3757610c36610b0a565b5b8135610c47848260208601610be0565b91505092915050565b600060208284031215610c6657610c65610a3f565b5b600082013567ffffffffffffffff811115610c8457610c83610a44565b5b610c9084828501610c22565b91505092915050565b6000819050919050565b610cac81610c99565b82525050565b6000602082019050610cc76000830184610ca3565b92915050565b6000819050919050565b610ce081610ccd565b8114610ceb57600080fd5b50565b600081359050610cfd81610cd7565b92915050565b60008060408385031215610d1a57610d19610a3f565b5b600083013567ffffffffffffffff811115610d3857610d37610a44565b5b610d4485828601610c22565b9250506020610d5585828601610cee565b9150509250929050565b610d6881610c99565b8114610d7357600080fd5b50565b600081359050610d8581610d5f565b92915050565b600060208284031215610da157610da0610a3f565b5b6000610daf84828501610d76565b91505092915050565b600081519050919050565b600082825260208201905092915050565b60005b83811015610df2578082015181840152602081019050610dd7565b60008484015250505050565b6000610e0982610db8565b610e138185610dc3565b9350610e23818560208601610dd4565b610e2c81610b14565b840191505092915050565b610e4081610a69565b82525050565b610e4f81610ccd565b82525050565b600060a082019050610e6a6000830188610ca3565b8181036020830152610e7c8187610dfe565b90508181036040830152610e908186610dfe565b9050610e9f6060830185610e37565b610eac6080830184610e46565b9695505050505050565b60008060408385031215610ecd57610ecc610a3f565b5b600083013567ffffffffffffffff811115610eeb57610eea610a44565b5b610ef785828601610c22565b925050602083013567ffffffffffffffff811115610f1857610f17610a44565b5b610f2485828601610c22565b9150509250929050565b7f416d6f756e7473206d757374206265206265747765656e202d31303020616e6460008201527f2031303000000000000000000000000000000000000000000000000000000000602082015250565b6000610f8a602483610dc3565b9150610f9582610f2e565b604082019050919050565b60006020820190508181036000830152610fb981610f7d565b9050919050565b7f616d6f756e742063616e6e6f74206265207a65726f0000000000000000000000600082015250565b6000610ff6601583610dc3565b915061100182610fc0565b602082019050919050565b6000602082019050818103600083015261102581610fe9565b9050919050565b7f796f7572206164647265737320646f6573206e6f74206861766520616e20616c60008201527f6961730000000000000000000000000000000000000000000000000000000000602082015250565b6000611088602383610dc3565b91506110938261102c565b604082019050919050565b600060208201905081810360008301526110b78161107b565b9050919050565b600081905092915050565b60006110d482610db8565b6110de81856110be565b93506110ee818560208601610dd4565b80840191505092915050565b600061110682846110c9565b915081905092915050565b7f737472696e6720656e747279206e616d6520646f6573206e6f74206578697374600082015250565b6000611147602083610dc3565b915061115282611111565b602082019050919050565b600060208201905081810360008301526111768161113a565b9050919050565b7f796f752063616e6e6f7420656e7465722061206465627420746f20796f75727360008201527f656c660000000000000000000000000000000000000000000000000000000000602082015250565b60006111d9602383610dc3565b91506111e48261117d565b604082019050919050565b60006020820190508181036000830152611208816111cc565b9050919050565b7f4e487b7100000000000000000000000000000000000000000000000000000000600052601160045260246000fd5b600061124982610ccd565b915061125483610ccd565b92508282019050828112156000831216838212600084121516171561127c5761127b61120f565b5b92915050565b600061128d82610ccd565b915061129883610ccd565b92508282039050818112600084121682821360008512151617156112bf576112be61120f565b5b92915050565b7f4e487b7100000000000000000000000000000000000000000000000000000000600052602260045260246000fd5b6000600282049050600182168061130c57607f821691505b60208210810361131f5761131e6112c5565b5b50919050565b7f737472696e6720656e747279206e616d6520616c726561647920657869737473600082015250565b600061135b602083610dc3565b915061136682611325565b602082019050919050565b6000602082019050818103600083015261138a8161134e565b9050919050565b7f796f7572206164647265737320616c72656164792068617320616e20616c696160008201527f7300000000000000000000000000000000000000000000000000000000000000602082015250565b60006113ed602183610dc3565b91506113f882611391565b604082019050919050565b6000602082019050818103600083015261141c816113e0565b9050919050565b60008190508160005260206000209050919050565b60006020601f8301049050919050565b600082821b905092915050565b6000600883026114857fffffffffffffffffffffffffffffffffffffffffffffffffffffffffffffffff82611448565b61148f8683611448565b95508019841693508086168417925050509392505050565b6000819050919050565b60006114cc6114c76114c284610c99565b6114a7565b610c99565b9050919050565b6000819050919050565b6114e6836114b1565b6114fa6114f2826114d3565b848454611455565b825550505050565b600090565b61150f611502565b61151a8184846114dd565b505050565b5b8181101561153e57611533600082611507565b600181019050611520565b5050565b601f8211156115835761155481611423565b61155d84611438565b8101602085101561156c578190505b61158061157885611438565b83018261151f565b50505b505050565b600082821c905092915050565b60006115a660001984600802611588565b1980831691505092915050565b60006115bf8383611595565b9150826002028217905092915050565b6115d882610db8565b67ffffffffffffffff8111156115f1576115f0610b25565b5b6115fb82546112f4565b611606828285611542565b600060209050601f8311600181146116395760008415611627578287015190505b61163185826115b3565b865550611699565b601f19841661164786611423565b60005b8281101561166f5784890151825560018201915060208501945060208101905061164a565b8683101561168c5784890151611688601f891682611595565b8355505b6001600288020188555050505b505050505050565b60006116ac82610c99565b91507fffffffffffffffffffffffffffffffffffffffffffffffffffffffffffffffff82036116de576116dd61120f565b5b60018201905091905056fea26469706673582212207dc5fcca0d0b7ee3d2a0b888c192e129c78d334d1fae654fcd34d8de9bf5dcdd64736f6c63430008120033",
					"opcodes": "PUSH1 0x80 PUSH1 0x40 MSTORE CALLVALUE DUP1 ISZERO PUSH2 0x10 JUMPI PUSH1 0x0 DUP1 REVERT JUMPDEST POP PUSH2 0x171F DUP1 PUSH2 0x20 PUSH1 0x0 CODECOPY PUSH1 0x0 RETURN INVALID PUSH1 0x80 PUSH1 0x40 MSTORE CALLVALUE DUP1 ISZERO PUSH2 0x10 JUMPI PUSH1 0x0 DUP1 REVERT JUMPDEST POP PUSH1 0x4 CALLDATASIZE LT PUSH2 0x88 JUMPI PUSH1 0x0 CALLDATALOAD PUSH1 0xE0 SHR DUP1 PUSH4 0x94BBFC0D GT PUSH2 0x5B JUMPI DUP1 PUSH4 0x94BBFC0D EQ PUSH2 0x139 JUMPI DUP1 PUSH4 0xB30906D4 EQ PUSH2 0x169 JUMPI DUP1 PUSH4 0xB7F1D527 EQ PUSH2 0x19D JUMPI DUP1 PUSH4 0xD72115DC EQ PUSH2 0x1BB JUMPI PUSH2 0x88 JUMP JUMPDEST DUP1 PUSH4 0x73F98FD EQ PUSH2 0x8D JUMPI DUP1 PUSH4 0x31F9A55F EQ PUSH2 0xBD JUMPI DUP1 PUSH4 0x76F30F78 EQ PUSH2 0xED JUMPI DUP1 PUSH4 0x7D210103 EQ PUSH2 0x11D JUMPI JUMPDEST PUSH1 0x0 DUP1 REVERT JUMPDEST PUSH2 0xA7 PUSH1 0x4 DUP1 CALLDATASIZE SUB DUP2 ADD SWAP1 PUSH2 0xA2 SWAP2 SWAP1 PUSH2 0xAA7 JUMP JUMPDEST PUSH2 0x1D7 JUMP JUMPDEST PUSH1 0x40 MLOAD PUSH2 0xB4 SWAP2 SWAP1 PUSH2 0xAEF JUMP JUMPDEST PUSH1 0x40 MLOAD DUP1 SWAP2 SUB SWAP1 RETURN JUMPDEST PUSH2 0xD7 PUSH1 0x4 DUP1 CALLDATASIZE SUB DUP2 ADD SWAP1 PUSH2 0xD2 SWAP2 SWAP1 PUSH2 0xC50 JUMP JUMPDEST PUSH2 0x1F7 JUMP JUMPDEST PUSH1 0x40 MLOAD PUSH2 0xE4 SWAP2 SWAP1 PUSH2 0xCB2 JUMP JUMPDEST PUSH1 0x40 MLOAD DUP1 SWAP2 SUB SWAP1 RETURN JUMPDEST PUSH2 0x107 PUSH1 0x4 DUP1 CALLDATASIZE SUB DUP2 ADD SWAP1 PUSH2 0x102 SWAP2 SWAP1 PUSH2 0xC50 JUMP JUMPDEST PUSH2 0x225 JUMP JUMPDEST PUSH1 0x40 MLOAD PUSH2 0x114 SWAP2 SWAP1 PUSH2 0xAEF JUMP JUMPDEST PUSH1 0x40 MLOAD DUP1 SWAP2 SUB SWAP1 RETURN JUMPDEST PUSH2 0x137 PUSH1 0x4 DUP1 CALLDATASIZE SUB DUP2 ADD SWAP1 PUSH2 0x132 SWAP2 SWAP1 PUSH2 0xD03 JUMP JUMPDEST PUSH2 0x25B JUMP JUMPDEST STOP JUMPDEST PUSH2 0x153 PUSH1 0x4 DUP1 CALLDATASIZE SUB DUP2 ADD SWAP1 PUSH2 0x14E SWAP2 SWAP1 PUSH2 0xAA7 JUMP JUMPDEST PUSH2 0x599 JUMP JUMPDEST PUSH1 0x40 MLOAD PUSH2 0x160 SWAP2 SWAP1 PUSH2 0xCB2 JUMP JUMPDEST PUSH1 0x40 MLOAD DUP1 SWAP2 SUB SWAP1 RETURN JUMPDEST PUSH2 0x183 PUSH1 0x4 DUP1 CALLDATASIZE SUB DUP2 ADD SWAP1 PUSH2 0x17E SWAP2 SWAP1 PUSH2 0xD8B JUMP JUMPDEST PUSH2 0x5B1 JUMP JUMPDEST PUSH1 0x40 MLOAD PUSH2 0x194 SWAP6 SWAP5 SWAP4 SWAP3 SWAP2 SWAP1 PUSH2 0xE55 JUMP JUMPDEST PUSH1 0x40 MLOAD DUP1 SWAP2 SUB SWAP1 RETURN JUMPDEST PUSH2 0x1A5 PUSH2 0x717 JUMP JUMPDEST PUSH1 0x40 MLOAD PUSH2 0x1B2 SWAP2 SWAP1 PUSH2 0xCB2 JUMP JUMPDEST PUSH1 0x40 MLOAD DUP1 SWAP2 SUB SWAP1 RETURN JUMPDEST PUSH2 0x1D5 PUSH1 0x4 DUP1 CALLDATASIZE SUB DUP2 ADD SWAP1 PUSH2 0x1D0 SWAP2 SWAP1 PUSH2 0xEB6 JUMP JUMPDEST PUSH2 0x71D JUMP JUMPDEST STOP JUMPDEST PUSH1 0x1 PUSH1 0x20 MSTORE DUP1 PUSH1 0x0 MSTORE PUSH1 0x40 PUSH1 0x0 KECCAK256 PUSH1 0x0 SWAP2 POP SLOAD SWAP1 PUSH2 0x100 EXP SWAP1 DIV PUSH1 0xFF AND DUP2 JUMP JUMPDEST PUSH1 0x3 DUP2 DUP1 MLOAD PUSH1 0x20 DUP2 ADD DUP3 ADD DUP1 MLOAD DUP5 DUP3 MSTORE PUSH1 0x20 DUP4 ADD PUSH1 0x20 DUP6 ADD KECCAK256 DUP2 DUP4 MSTORE DUP1 SWAP6 POP POP POP POP POP POP PUSH1 0x0 SWAP2 POP SWAP1 POP SLOAD DUP2 JUMP JUMPDEST PUSH1 0x2 DUP2 DUP1 MLOAD PUSH1 0x20 DUP2 ADD DUP3 ADD DUP1 MLOAD DUP5 DUP3 MSTORE PUSH1 0x20 DUP4 ADD PUSH1 0x20 DUP6 ADD KECCAK256 DUP2 DUP4 MSTORE DUP1 SWAP6 POP POP POP POP POP POP PUSH1 0x0 SWAP2 POP SLOAD SWAP1 PUSH2 0x100 EXP SWAP1 DIV PUSH1 0xFF AND DUP2 JUMP JUMPDEST PUSH32 0xFFFFFFFFFFFFFFFFFFFFFFFFFFFFFFFFFFFFFFFFFFFFFFFFFFFFFFFFFFFFFF9C DUP2 SLT ISZERO DUP1 ISZERO PUSH2 0x28C JUMPI POP PUSH1 0x64 DUP2 SGT ISZERO JUMPDEST PUSH2 0x2CB JUMPI PUSH1 0x40 MLOAD PUSH32 0x8C379A000000000000000000000000000000000000000000000000000000000 DUP2 MSTORE PUSH1 0x4 ADD PUSH2 0x2C2 SWAP1 PUSH2 0xFA0 JUMP JUMPDEST PUSH1 0x40 MLOAD DUP1 SWAP2 SUB SWAP1 REVERT JUMPDEST PUSH1 0x0 DUP2 SUB PUSH2 0x30E JUMPI PUSH1 0x40 MLOAD PUSH32 0x8C379A000000000000000000000000000000000000000000000000000000000 DUP2 MSTORE PUSH1 0x4 ADD PUSH2 0x305 SWAP1 PUSH2 0x100C JUMP JUMPDEST PUSH1 0x40 MLOAD DUP1 SWAP2 SUB SWAP1 REVERT JUMPDEST PUSH1 0x1 PUSH1 0x0 CALLER PUSH20 0xFFFFFFFFFFFFFFFFFFFFFFFFFFFFFFFFFFFFFFFF AND PUSH20 0xFFFFFFFFFFFFFFFFFFFFFFFFFFFFFFFFFFFFFFFF AND DUP2 MSTORE PUSH1 0x20 ADD SWAP1 DUP2 MSTORE PUSH1 0x20 ADD PUSH1 0x0 KECCAK256 PUSH1 0x0 SWAP1 SLOAD SWAP1 PUSH2 0x100 EXP SWAP1 DIV PUSH1 0xFF AND PUSH2 0x39A JUMPI PUSH1 0x40 MLOAD PUSH32 0x8C379A000000000000000000000000000000000000000000000000000000000 DUP2 MSTORE PUSH1 0x4 ADD PUSH2 0x391 SWAP1 PUSH2 0x109E JUMP JUMPDEST PUSH1 0x40 MLOAD DUP1 SWAP2 SUB SWAP1 REVERT JUMPDEST PUSH1 0x2 DUP3 PUSH1 0x40 MLOAD PUSH2 0x3AA SWAP2 SWAP1 PUSH2 0x10FA JUMP JUMPDEST SWAP1 DUP2 MSTORE PUSH1 0x20 ADD PUSH1 0x40 MLOAD DUP1 SWAP2 SUB SWAP1 KECCAK256 PUSH1 0x0 SWAP1 SLOAD SWAP1 PUSH2 0x100 EXP SWAP1 DIV PUSH1 0xFF AND PUSH2 0x405 JUMPI PUSH1 0x40 MLOAD PUSH32 0x8C379A000000000000000000000000000000000000000000000000000000000 DUP2 MSTORE PUSH1 0x4 ADD PUSH2 0x3FC SWAP1 PUSH2 0x115D JUMP JUMPDEST PUSH1 0x40 MLOAD DUP1 SWAP2 SUB SWAP1 REVERT JUMPDEST PUSH1 0x0 PUSH1 0x4 PUSH1 0x0 CALLER PUSH20 0xFFFFFFFFFFFFFFFFFFFFFFFFFFFFFFFFFFFFFFFF AND PUSH20 0xFFFFFFFFFFFFFFFFFFFFFFFFFFFFFFFFFFFFFFFF AND DUP2 MSTORE PUSH1 0x20 ADD SWAP1 DUP2 MSTORE PUSH1 0x20 ADD PUSH1 0x0 KECCAK256 SLOAD SWAP1 POP PUSH1 0x0 PUSH1 0x3 DUP5 PUSH1 0x40 MLOAD PUSH2 0x45B SWAP2 SWAP1 PUSH2 0x10FA JUMP JUMPDEST SWAP1 DUP2 MSTORE PUSH1 0x20 ADD PUSH1 0x40 MLOAD DUP1 SWAP2 SUB SWAP1 KECCAK256 SLOAD SWAP1 POP CALLER PUSH20 0xFFFFFFFFFFFFFFFFFFFFFFFFFFFFFFFFFFFFFFFF AND PUSH1 0x0 DUP1 DUP4 DUP2 MSTORE PUSH1 0x20 ADD SWAP1 DUP2 MSTORE PUSH1 0x20 ADD PUSH1 0x0 KECCAK256 PUSH1 0x3 ADD PUSH1 0x0 SWAP1 SLOAD SWAP1 PUSH2 0x100 EXP SWAP1 DIV PUSH20 0xFFFFFFFFFFFFFFFFFFFFFFFFFFFFFFFFFFFFFFFF AND PUSH20 0xFFFFFFFFFFFFFFFFFFFFFFFFFFFFFFFFFFFFFFFF AND SUB PUSH2 0x50F JUMPI PUSH1 0x40 MLOAD PUSH32 0x8C379A000000000000000000000000000000000000000000000000000000000 DUP2 MSTORE PUSH1 0x4 ADD PUSH2 0x506 SWAP1 PUSH2 0x11EF JUMP JUMPDEST PUSH1 0x40 MLOAD DUP1 SWAP2 SUB SWAP1 REVERT JUMPDEST DUP3 PUSH1 0x0 DUP1 DUP5 DUP2 MSTORE PUSH1 0x20 ADD SWAP1 DUP2 MSTORE PUSH1 0x20 ADD PUSH1 0x0 KECCAK256 PUSH1 0x4 ADD PUSH1 0x0 DUP3 DUP3 SLOAD PUSH2 0x534 SWAP2 SWAP1 PUSH2 0x123E JUMP JUMPDEST SWAP3 POP POP DUP2 SWAP1 SSTORE POP DUP3 PUSH1 0x0 DUP1 DUP4 DUP2 MSTORE PUSH1 0x20 ADD SWAP1 DUP2 MSTORE PUSH1 0x20 ADD PUSH1 0x0 KECCAK256 PUSH1 0x4 ADD PUSH1 0x0 DUP3 DUP3 SLOAD PUSH2 0x560 SWAP2 SWAP1 PUSH2 0x1282 JUMP JUMPDEST SWAP3 POP POP DUP2 SWAP1 SSTORE POP PUSH32 0x82B7F5026F6C6BBCA9F5352B675D81FF78EA25C87A86B9F68BB8310945A11EBC PUSH1 0x40 MLOAD PUSH1 0x40 MLOAD DUP1 SWAP2 SUB SWAP1 LOG1 POP POP POP POP JUMP JUMPDEST PUSH1 0x4 PUSH1 0x20 MSTORE DUP1 PUSH1 0x0 MSTORE PUSH1 0x40 PUSH1 0x0 KECCAK256 PUSH1 0x0 SWAP2 POP SWAP1 POP SLOAD DUP2 JUMP JUMPDEST PUSH1 0x0 PUSH1 0x20 MSTORE DUP1 PUSH1 0x0 MSTORE PUSH1 0x40 PUSH1 0x0 KECCAK256 PUSH1 0x0 SWAP2 POP SWAP1 POP DUP1 PUSH1 0x0 ADD SLOAD SWAP1 DUP1 PUSH1 0x1 ADD DUP1 SLOAD PUSH2 0x5DA SWAP1 PUSH2 0x12F4 JUMP JUMPDEST DUP1 PUSH1 0x1F ADD PUSH1 0x20 DUP1 SWAP2 DIV MUL PUSH1 0x20 ADD PUSH1 0x40 MLOAD SWAP1 DUP2 ADD PUSH1 0x40 MSTORE DUP1 SWAP3 SWAP2 SWAP1 DUP2 DUP2 MSTORE PUSH1 0x20 ADD DUP3 DUP1 SLOAD PUSH2 0x606 SWAP1 PUSH2 0x12F4 JUMP JUMPDEST DUP1 ISZERO PUSH2 0x653 JUMPI DUP1 PUSH1 0x1F LT PUSH2 0x628 JUMPI PUSH2 0x100 DUP1 DUP4 SLOAD DIV MUL DUP4 MSTORE SWAP2 PUSH1 0x20 ADD SWAP2 PUSH2 0x653 JUMP JUMPDEST DUP3 ADD SWAP2 SWAP1 PUSH1 0x0 MSTORE PUSH1 0x20 PUSH1 0x0 KECCAK256 SWAP1 JUMPDEST DUP2 SLOAD DUP2 MSTORE SWAP1 PUSH1 0x1 ADD SWAP1 PUSH1 0x20 ADD DUP1 DUP4 GT PUSH2 0x636 JUMPI DUP3 SWAP1 SUB PUSH1 0x1F AND DUP3 ADD SWAP2 JUMPDEST POP POP POP POP POP SWAP1 DUP1 PUSH1 0x2 ADD DUP1 SLOAD PUSH2 0x668 SWAP1 PUSH2 0x12F4 JUMP JUMPDEST DUP1 PUSH1 0x1F ADD PUSH1 0x20 DUP1 SWAP2 DIV MUL PUSH1 0x20 ADD PUSH1 0x40 MLOAD SWAP1 DUP2 ADD PUSH1 0x40 MSTORE DUP1 SWAP3 SWAP2 SWAP1 DUP2 DUP2 MSTORE PUSH1 0x20 ADD DUP3 DUP1 SLOAD PUSH2 0x694 SWAP1 PUSH2 0x12F4 JUMP JUMPDEST DUP1 ISZERO PUSH2 0x6E1 JUMPI DUP1 PUSH1 0x1F LT PUSH2 0x6B6 JUMPI PUSH2 0x100 DUP1 DUP4 SLOAD DIV MUL DUP4 MSTORE SWAP2 PUSH1 0x20 ADD SWAP2 PUSH2 0x6E1 JUMP JUMPDEST DUP3 ADD SWAP2 SWAP1 PUSH1 0x0 MSTORE PUSH1 0x20 PUSH1 0x0 KECCAK256 SWAP1 JUMPDEST DUP2 SLOAD DUP2 MSTORE SWAP1 PUSH1 0x1 ADD SWAP1 PUSH1 0x20 ADD DUP1 DUP4 GT PUSH2 0x6C4 JUMPI DUP3 SWAP1 SUB PUSH1 0x1F AND DUP3 ADD SWAP2 JUMPDEST POP POP POP POP POP SWAP1 DUP1 PUSH1 0x3 ADD PUSH1 0x0 SWAP1 SLOAD SWAP1 PUSH2 0x100 EXP SWAP1 DIV PUSH20 0xFFFFFFFFFFFFFFFFFFFFFFFFFFFFFFFFFFFFFFFF AND SWAP1 DUP1 PUSH1 0x4 ADD SLOAD SWAP1 POP DUP6 JUMP JUMPDEST PUSH1 0x5 SLOAD DUP2 JUMP JUMPDEST PUSH1 0x2 DUP3 PUSH1 0x40 MLOAD PUSH2 0x72D SWAP2 SWAP1 PUSH2 0x10FA JUMP JUMPDEST SWAP1 DUP2 MSTORE PUSH1 0x20 ADD PUSH1 0x40 MLOAD DUP1 SWAP2 SUB SWAP1 KECCAK256 PUSH1 0x0 SWAP1 SLOAD SWAP1 PUSH2 0x100 EXP SWAP1 DIV PUSH1 0xFF AND ISZERO PUSH2 0x789 JUMPI PUSH1 0x40 MLOAD PUSH32 0x8C379A000000000000000000000000000000000000000000000000000000000 DUP2 MSTORE PUSH1 0x4 ADD PUSH2 0x780 SWAP1 PUSH2 0x1371 JUMP JUMPDEST PUSH1 0x40 MLOAD DUP1 SWAP2 SUB SWAP1 REVERT JUMPDEST PUSH1 0x1 PUSH1 0x0 CALLER PUSH20 0xFFFFFFFFFFFFFFFFFFFFFFFFFFFFFFFFFFFFFFFF AND PUSH20 0xFFFFFFFFFFFFFFFFFFFFFFFFFFFFFFFFFFFFFFFF AND DUP2 MSTORE PUSH1 0x20 ADD SWAP1 DUP2 MSTORE PUSH1 0x20 ADD PUSH1 0x0 KECCAK256 PUSH1 0x0 SWAP1 SLOAD SWAP1 PUSH2 0x100 EXP SWAP1 DIV PUSH1 0xFF AND ISZERO PUSH2 0x816 JUMPI PUSH1 0x40 MLOAD PUSH32 0x8C379A000000000000000000000000000000000000000000000000000000000 DUP2 MSTORE PUSH1 0x4 ADD PUSH2 0x80D SWAP1 PUSH2 0x1403 JUMP JUMPDEST PUSH1 0x40 MLOAD DUP1 SWAP2 SUB SWAP1 REVERT JUMPDEST PUSH1 0x1 PUSH1 0x2 DUP4 PUSH1 0x40 MLOAD PUSH2 0x828 SWAP2 SWAP1 PUSH2 0x10FA JUMP JUMPDEST SWAP1 DUP2 MSTORE PUSH1 0x20 ADD PUSH1 0x40 MLOAD DUP1 SWAP2 SUB SWAP1 KECCAK256 PUSH1 0x0 PUSH2 0x100 EXP DUP2 SLOAD DUP2 PUSH1 0xFF MUL NOT AND SWAP1 DUP4 ISZERO ISZERO MUL OR SWAP1 SSTORE POP PUSH1 0x1 DUP1 PUSH1 0x0 CALLER PUSH20 0xFFFFFFFFFFFFFFFFFFFFFFFFFFFFFFFFFFFFFFFF AND PUSH20 0xFFFFFFFFFFFFFFFFFFFFFFFFFFFFFFFFFFFFFFFF AND DUP2 MSTORE PUSH1 0x20 ADD SWAP1 DUP2 MSTORE PUSH1 0x20 ADD PUSH1 0x0 KECCAK256 PUSH1 0x0 PUSH2 0x100 EXP DUP2 SLOAD DUP2 PUSH1 0xFF MUL NOT AND SWAP1 DUP4 ISZERO ISZERO MUL OR SWAP1 SSTORE POP PUSH1 0x5 SLOAD PUSH1 0x3 DUP4 PUSH1 0x40 MLOAD PUSH2 0x8B7 SWAP2 SWAP1 PUSH2 0x10FA JUMP JUMPDEST SWAP1 DUP2 MSTORE PUSH1 0x20 ADD PUSH1 0x40 MLOAD DUP1 SWAP2 SUB SWAP1 KECCAK256 DUP2 SWAP1 SSTORE POP PUSH1 0x5 SLOAD PUSH1 0x4 PUSH1 0x0 CALLER PUSH20 0xFFFFFFFFFFFFFFFFFFFFFFFFFFFFFFFFFFFFFFFF AND PUSH20 0xFFFFFFFFFFFFFFFFFFFFFFFFFFFFFFFFFFFFFFFF AND DUP2 MSTORE PUSH1 0x20 ADD SWAP1 DUP2 MSTORE PUSH1 0x20 ADD PUSH1 0x0 KECCAK256 DUP2 SWAP1 SSTORE POP PUSH1 0x40 MLOAD DUP1 PUSH1 0xA0 ADD PUSH1 0x40 MSTORE DUP1 PUSH1 0x5 SLOAD DUP2 MSTORE PUSH1 0x20 ADD DUP4 DUP2 MSTORE PUSH1 0x20 ADD DUP3 DUP2 MSTORE PUSH1 0x20 ADD CALLER PUSH20 0xFFFFFFFFFFFFFFFFFFFFFFFFFFFFFFFFFFFFFFFF AND DUP2 MSTORE PUSH1 0x20 ADD PUSH1 0x0 DUP2 MSTORE POP PUSH1 0x0 DUP1 PUSH1 0x5 SLOAD DUP2 MSTORE PUSH1 0x20 ADD SWAP1 DUP2 MSTORE PUSH1 0x20 ADD PUSH1 0x0 KECCAK256 PUSH1 0x0 DUP3 ADD MLOAD DUP2 PUSH1 0x0 ADD SSTORE PUSH1 0x20 DUP3 ADD MLOAD DUP2 PUSH1 0x1 ADD SWAP1 DUP2 PUSH2 0x982 SWAP2 SWAP1 PUSH2 0x15CF JUMP JUMPDEST POP PUSH1 0x40 DUP3 ADD MLOAD DUP2 PUSH1 0x2 ADD SWAP1 DUP2 PUSH2 0x998 SWAP2 SWAP1 PUSH2 0x15CF JUMP JUMPDEST POP PUSH1 0x60 DUP3 ADD MLOAD DUP2 PUSH1 0x3 ADD PUSH1 0x0 PUSH2 0x100 EXP DUP2 SLOAD DUP2 PUSH20 0xFFFFFFFFFFFFFFFFFFFFFFFFFFFFFFFFFFFFFFFF MUL NOT AND SWAP1 DUP4 PUSH20 0xFFFFFFFFFFFFFFFFFFFFFFFFFFFFFFFFFFFFFFFF AND MUL OR SWAP1 SSTORE POP PUSH1 0x80 DUP3 ADD MLOAD DUP2 PUSH1 0x4 ADD SSTORE SWAP1 POP POP PUSH1 0x5 PUSH1 0x0 DUP2 SLOAD DUP1 SWAP3 SWAP2 SWAP1 PUSH2 0xA00 SWAP1 PUSH2 0x16A1 JUMP JUMPDEST SWAP2 SWAP1 POP SSTORE POP PUSH32 0x7E42369838B7C7FAFE8BBA944990B5FEE45D6A0AFCD52154127C1784C47F5E45 PUSH1 0x40 MLOAD PUSH1 0x40 MLOAD DUP1 SWAP2 SUB SWAP1 LOG1 POP POP JUMP JUMPDEST PUSH1 0x0 PUSH1 0x40 MLOAD SWAP1 POP SWAP1 JUMP JUMPDEST PUSH1 0x0 DUP1 REVERT JUMPDEST PUSH1 0x0 DUP1 REVERT JUMPDEST PUSH1 0x0 PUSH20 0xFFFFFFFFFFFFFFFFFFFFFFFFFFFFFFFFFFFFFFFF DUP3 AND SWAP1 POP SWAP2 SWAP1 POP JUMP JUMPDEST PUSH1 0x0 PUSH2 0xA74 DUP3 PUSH2 0xA49 JUMP JUMPDEST SWAP1 POP SWAP2 SWAP1 POP JUMP JUMPDEST PUSH2 0xA84 DUP2 PUSH2 0xA69 JUMP JUMPDEST DUP2 EQ PUSH2 0xA8F JUMPI PUSH1 0x0 DUP1 REVERT JUMPDEST POP JUMP JUMPDEST PUSH1 0x0 DUP2 CALLDATALOAD SWAP1 POP PUSH2 0xAA1 DUP2 PUSH2 0xA7B JUMP JUMPDEST SWAP3 SWAP2 POP POP JUMP JUMPDEST PUSH1 0x0 PUSH1 0x20 DUP3 DUP5 SUB SLT ISZERO PUSH2 0xABD JUMPI PUSH2 0xABC PUSH2 0xA3F JUMP JUMPDEST JUMPDEST PUSH1 0x0 PUSH2 0xACB DUP5 DUP3 DUP6 ADD PUSH2 0xA92 JUMP JUMPDEST SWAP2 POP POP SWAP3 SWAP2 POP POP JUMP JUMPDEST PUSH1 0x0 DUP2 ISZERO ISZERO SWAP1 POP SWAP2 SWAP1 POP JUMP JUMPDEST PUSH2 0xAE9 DUP2 PUSH2 0xAD4 JUMP JUMPDEST DUP3 MSTORE POP POP JUMP JUMPDEST PUSH1 0x0 PUSH1 0x20 DUP3 ADD SWAP1 POP PUSH2 0xB04 PUSH1 0x0 DUP4 ADD DUP5 PUSH2 0xAE0 JUMP JUMPDEST SWAP3 SWAP2 POP POP JUMP JUMPDEST PUSH1 0x0 DUP1 REVERT JUMPDEST PUSH1 0x0 DUP1 REVERT JUMPDEST PUSH1 0x0 PUSH1 0x1F NOT PUSH1 0x1F DUP4 ADD AND SWAP1 POP SWAP2 SWAP1 POP JUMP JUMPDEST PUSH32 0x4E487B7100000000000000000000000000000000000000000000000000000000 PUSH1 0x0 MSTORE PUSH1 0x41 PUSH1 0x4 MSTORE PUSH1 0x24 PUSH1 0x0 REVERT JUMPDEST PUSH2 0xB5D DUP3 PUSH2 0xB14 JUMP JUMPDEST DUP2 ADD DUP2 DUP2 LT PUSH8 0xFFFFFFFFFFFFFFFF DUP3 GT OR ISZERO PUSH2 0xB7C JUMPI PUSH2 0xB7B PUSH2 0xB25 JUMP JUMPDEST JUMPDEST DUP1 PUSH1 0x40 MSTORE POP POP POP JUMP JUMPDEST PUSH1 0x0 PUSH2 0xB8F PUSH2 0xA35 JUMP JUMPDEST SWAP1 POP PUSH2 0xB9B DUP3 DUP3 PUSH2 0xB54 JUMP JUMPDEST SWAP2 SWAP1 POP JUMP JUMPDEST PUSH1 0x0 PUSH8 0xFFFFFFFFFFFFFFFF DUP3 GT ISZERO PUSH2 0xBBB JUMPI PUSH2 0xBBA PUSH2 0xB25 JUMP JUMPDEST JUMPDEST PUSH2 0xBC4 DUP3 PUSH2 0xB14 JUMP JUMPDEST SWAP1 POP PUSH1 0x20 DUP2 ADD SWAP1 POP SWAP2 SWAP1 POP JUMP JUMPDEST DUP3 DUP2 DUP4 CALLDATACOPY PUSH1 0x0 DUP4 DUP4 ADD MSTORE POP POP POP JUMP JUMPDEST PUSH1 0x0 PUSH2 0xBF3 PUSH2 0xBEE DUP5 PUSH2 0xBA0 JUMP JUMPDEST PUSH2 0xB85 JUMP JUMPDEST SWAP1 POP DUP3 DUP2 MSTORE PUSH1 0x20 DUP2 ADD DUP5 DUP5 DUP5 ADD GT ISZERO PUSH2 0xC0F JUMPI PUSH2 0xC0E PUSH2 0xB0F JUMP JUMPDEST JUMPDEST PUSH2 0xC1A DUP5 DUP3 DUP6 PUSH2 0xBD1 JUMP JUMPDEST POP SWAP4 SWAP3 POP POP POP JUMP JUMPDEST PUSH1 0x0 DUP3 PUSH1 0x1F DUP4 ADD SLT PUSH2 0xC37 JUMPI PUSH2 0xC36 PUSH2 0xB0A JUMP JUMPDEST JUMPDEST DUP2 CALLDATALOAD PUSH2 0xC47 DUP5 DUP3 PUSH1 0x20 DUP7 ADD PUSH2 0xBE0 JUMP JUMPDEST SWAP2 POP POP SWAP3 SWAP2 POP POP JUMP JUMPDEST PUSH1 0x0 PUSH1 0x20 DUP3 DUP5 SUB SLT ISZERO PUSH2 0xC66 JUMPI PUSH2 0xC65 PUSH2 0xA3F JUMP JUMPDEST JUMPDEST PUSH1 0x0 DUP3 ADD CALLDATALOAD PUSH8 0xFFFFFFFFFFFFFFFF DUP2 GT ISZERO PUSH2 0xC84 JUMPI PUSH2 0xC83 PUSH2 0xA44 JUMP JUMPDEST JUMPDEST PUSH2 0xC90 DUP5 DUP3 DUP6 ADD PUSH2 0xC22 JUMP JUMPDEST SWAP2 POP POP SWAP3 SWAP2 POP POP JUMP JUMPDEST PUSH1 0x0 DUP2 SWAP1 POP SWAP2 SWAP1 POP JUMP JUMPDEST PUSH2 0xCAC DUP2 PUSH2 0xC99 JUMP JUMPDEST DUP3 MSTORE POP POP JUMP JUMPDEST PUSH1 0x0 PUSH1 0x20 DUP3 ADD SWAP1 POP PUSH2 0xCC7 PUSH1 0x0 DUP4 ADD DUP5 PUSH2 0xCA3 JUMP JUMPDEST SWAP3 SWAP2 POP POP JUMP JUMPDEST PUSH1 0x0 DUP2 SWAP1 POP SWAP2 SWAP1 POP JUMP JUMPDEST PUSH2 0xCE0 DUP2 PUSH2 0xCCD JUMP JUMPDEST DUP2 EQ PUSH2 0xCEB JUMPI PUSH1 0x0 DUP1 REVERT JUMPDEST POP JUMP JUMPDEST PUSH1 0x0 DUP2 CALLDATALOAD SWAP1 POP PUSH2 0xCFD DUP2 PUSH2 0xCD7 JUMP JUMPDEST SWAP3 SWAP2 POP POP JUMP JUMPDEST PUSH1 0x0 DUP1 PUSH1 0x40 DUP4 DUP6 SUB SLT ISZERO PUSH2 0xD1A JUMPI PUSH2 0xD19 PUSH2 0xA3F JUMP JUMPDEST JUMPDEST PUSH1 0x0 DUP4 ADD CALLDATALOAD PUSH8 0xFFFFFFFFFFFFFFFF DUP2 GT ISZERO PUSH2 0xD38 JUMPI PUSH2 0xD37 PUSH2 0xA44 JUMP JUMPDEST JUMPDEST PUSH2 0xD44 DUP6 DUP3 DUP7 ADD PUSH2 0xC22 JUMP JUMPDEST SWAP3 POP POP PUSH1 0x20 PUSH2 0xD55 DUP6 DUP3 DUP7 ADD PUSH2 0xCEE JUMP JUMPDEST SWAP2 POP POP SWAP3 POP SWAP3 SWAP1 POP JUMP JUMPDEST PUSH2 0xD68 DUP2 PUSH2 0xC99 JUMP JUMPDEST DUP2 EQ PUSH2 0xD73 JUMPI PUSH1 0x0 DUP1 REVERT JUMPDEST POP JUMP JUMPDEST PUSH1 0x0 DUP2 CALLDATALOAD SWAP1 POP PUSH2 0xD85 DUP2 PUSH2 0xD5F JUMP JUMPDEST SWAP3 SWAP2 POP POP JUMP JUMPDEST PUSH1 0x0 PUSH1 0x20 DUP3 DUP5 SUB SLT ISZERO PUSH2 0xDA1 JUMPI PUSH2 0xDA0 PUSH2 0xA3F JUMP JUMPDEST JUMPDEST PUSH1 0x0 PUSH2 0xDAF DUP5 DUP3 DUP6 ADD PUSH2 0xD76 JUMP JUMPDEST SWAP2 POP POP SWAP3 SWAP2 POP POP JUMP JUMPDEST PUSH1 0x0 DUP2 MLOAD SWAP1 POP SWAP2 SWAP1 POP JUMP JUMPDEST PUSH1 0x0 DUP3 DUP3 MSTORE PUSH1 0x20 DUP3 ADD SWAP1 POP SWAP3 SWAP2 POP POP JUMP JUMPDEST PUSH1 0x0 JUMPDEST DUP4 DUP2 LT ISZERO PUSH2 0xDF2 JUMPI DUP1 DUP3 ADD MLOAD DUP2 DUP5 ADD MSTORE PUSH1 0x20 DUP2 ADD SWAP1 POP PUSH2 0xDD7 JUMP JUMPDEST PUSH1 0x0 DUP5 DUP5 ADD MSTORE POP POP POP POP JUMP JUMPDEST PUSH1 0x0 PUSH2 0xE09 DUP3 PUSH2 0xDB8 JUMP JUMPDEST PUSH2 0xE13 DUP2 DUP6 PUSH2 0xDC3 JUMP JUMPDEST SWAP4 POP PUSH2 0xE23 DUP2 DUP6 PUSH1 0x20 DUP7 ADD PUSH2 0xDD4 JUMP JUMPDEST PUSH2 0xE2C DUP2 PUSH2 0xB14 JUMP JUMPDEST DUP5 ADD SWAP2 POP POP SWAP3 SWAP2 POP POP JUMP JUMPDEST PUSH2 0xE40 DUP2 PUSH2 0xA69 JUMP JUMPDEST DUP3 MSTORE POP POP JUMP JUMPDEST PUSH2 0xE4F DUP2 PUSH2 0xCCD JUMP JUMPDEST DUP3 MSTORE POP POP JUMP JUMPDEST PUSH1 0x0 PUSH1 0xA0 DUP3 ADD SWAP1 POP PUSH2 0xE6A PUSH1 0x0 DUP4 ADD DUP9 PUSH2 0xCA3 JUMP JUMPDEST DUP2 DUP2 SUB PUSH1 0x20 DUP4 ADD MSTORE PUSH2 0xE7C DUP2 DUP8 PUSH2 0xDFE JUMP JUMPDEST SWAP1 POP DUP2 DUP2 SUB PUSH1 0x40 DUP4 ADD MSTORE PUSH2 0xE90 DUP2 DUP7 PUSH2 0xDFE JUMP JUMPDEST SWAP1 POP PUSH2 0xE9F PUSH1 0x60 DUP4 ADD DUP6 PUSH2 0xE37 JUMP JUMPDEST PUSH2 0xEAC PUSH1 0x80 DUP4 ADD DUP5 PUSH2 0xE46 JUMP JUMPDEST SWAP7 SWAP6 POP POP POP POP POP POP JUMP JUMPDEST PUSH1 0x0 DUP1 PUSH1 0x40 DUP4 DUP6 SUB SLT ISZERO PUSH2 0xECD JUMPI PUSH2 0xECC PUSH2 0xA3F JUMP JUMPDEST JUMPDEST PUSH1 0x0 DUP4 ADD CALLDATALOAD PUSH8 0xFFFFFFFFFFFFFFFF DUP2 GT ISZERO PUSH2 0xEEB JUMPI PUSH2 0xEEA PUSH2 0xA44 JUMP JUMPDEST JUMPDEST PUSH2 0xEF7 DUP6 DUP3 DUP7 ADD PUSH2 0xC22 JUMP JUMPDEST SWAP3 POP POP PUSH1 0x20 DUP4 ADD CALLDATALOAD PUSH8 0xFFFFFFFFFFFFFFFF DUP2 GT ISZERO PUSH2 0xF18 JUMPI PUSH2 0xF17 PUSH2 0xA44 JUMP JUMPDEST JUMPDEST PUSH2 0xF24 DUP6 DUP3 DUP7 ADD PUSH2 0xC22 JUMP JUMPDEST SWAP2 POP POP SWAP3 POP SWAP3 SWAP1 POP JUMP JUMPDEST PUSH32 0x416D6F756E7473206D757374206265206265747765656E202D31303020616E64 PUSH1 0x0 DUP3 ADD MSTORE PUSH32 0x2031303000000000000000000000000000000000000000000000000000000000 PUSH1 0x20 DUP3 ADD MSTORE POP JUMP JUMPDEST PUSH1 0x0 PUSH2 0xF8A PUSH1 0x24 DUP4 PUSH2 0xDC3 JUMP JUMPDEST SWAP2 POP PUSH2 0xF95 DUP3 PUSH2 0xF2E JUMP JUMPDEST PUSH1 0x40 DUP3 ADD SWAP1 POP SWAP2 SWAP1 POP JUMP JUMPDEST PUSH1 0x0 PUSH1 0x20 DUP3 ADD SWAP1 POP DUP2 DUP2 SUB PUSH1 0x0 DUP4 ADD MSTORE PUSH2 0xFB9 DUP2 PUSH2 0xF7D JUMP JUMPDEST SWAP1 POP SWAP2 SWAP1 POP JUMP JUMPDEST PUSH32 0x616D6F756E742063616E6E6F74206265207A65726F0000000000000000000000 PUSH1 0x0 DUP3 ADD MSTORE POP JUMP JUMPDEST PUSH1 0x0 PUSH2 0xFF6 PUSH1 0x15 DUP4 PUSH2 0xDC3 JUMP JUMPDEST SWAP2 POP PUSH2 0x1001 DUP3 PUSH2 0xFC0 JUMP JUMPDEST PUSH1 0x20 DUP3 ADD SWAP1 POP SWAP2 SWAP1 POP JUMP JUMPDEST PUSH1 0x0 PUSH1 0x20 DUP3 ADD SWAP1 POP DUP2 DUP2 SUB PUSH1 0x0 DUP4 ADD MSTORE PUSH2 0x1025 DUP2 PUSH2 0xFE9 JUMP JUMPDEST SWAP1 POP SWAP2 SWAP1 POP JUMP JUMPDEST PUSH32 0x796F7572206164647265737320646F6573206E6F74206861766520616E20616C PUSH1 0x0 DUP3 ADD MSTORE PUSH32 0x6961730000000000000000000000000000000000000000000000000000000000 PUSH1 0x20 DUP3 ADD MSTORE POP JUMP JUMPDEST PUSH1 0x0 PUSH2 0x1088 PUSH1 0x23 DUP4 PUSH2 0xDC3 JUMP JUMPDEST SWAP2 POP PUSH2 0x1093 DUP3 PUSH2 0x102C JUMP JUMPDEST PUSH1 0x40 DUP3 ADD SWAP1 POP SWAP2 SWAP1 POP JUMP JUMPDEST PUSH1 0x0 PUSH1 0x20 DUP3 ADD SWAP1 POP DUP2 DUP2 SUB PUSH1 0x0 DUP4 ADD MSTORE PUSH2 0x10B7 DUP2 PUSH2 0x107B JUMP JUMPDEST SWAP1 POP SWAP2 SWAP1 POP JUMP JUMPDEST PUSH1 0x0 DUP2 SWAP1 POP SWAP3 SWAP2 POP POP JUMP JUMPDEST PUSH1 0x0 PUSH2 0x10D4 DUP3 PUSH2 0xDB8 JUMP JUMPDEST PUSH2 0x10DE DUP2 DUP6 PUSH2 0x10BE JUMP JUMPDEST SWAP4 POP PUSH2 0x10EE DUP2 DUP6 PUSH1 0x20 DUP7 ADD PUSH2 0xDD4 JUMP JUMPDEST DUP1 DUP5 ADD SWAP2 POP POP SWAP3 SWAP2 POP POP JUMP JUMPDEST PUSH1 0x0 PUSH2 0x1106 DUP3 DUP5 PUSH2 0x10C9 JUMP JUMPDEST SWAP2 POP DUP2 SWAP1 POP SWAP3 SWAP2 POP POP JUMP JUMPDEST PUSH32 0x737472696E6720656E747279206E616D6520646F6573206E6F74206578697374 PUSH1 0x0 DUP3 ADD MSTORE POP JUMP JUMPDEST PUSH1 0x0 PUSH2 0x1147 PUSH1 0x20 DUP4 PUSH2 0xDC3 JUMP JUMPDEST SWAP2 POP PUSH2 0x1152 DUP3 PUSH2 0x1111 JUMP JUMPDEST PUSH1 0x20 DUP3 ADD SWAP1 POP SWAP2 SWAP1 POP JUMP JUMPDEST PUSH1 0x0 PUSH1 0x20 DUP3 ADD SWAP1 POP DUP2 DUP2 SUB PUSH1 0x0 DUP4 ADD MSTORE PUSH2 0x1176 DUP2 PUSH2 0x113A JUMP JUMPDEST SWAP1 POP SWAP2 SWAP1 POP JUMP JUMPDEST PUSH32 0x796F752063616E6E6F7420656E7465722061206465627420746F20796F757273 PUSH1 0x0 DUP3 ADD MSTORE PUSH32 0x656C660000000000000000000000000000000000000000000000000000000000 PUSH1 0x20 DUP3 ADD MSTORE POP JUMP JUMPDEST PUSH1 0x0 PUSH2 0x11D9 PUSH1 0x23 DUP4 PUSH2 0xDC3 JUMP JUMPDEST SWAP2 POP PUSH2 0x11E4 DUP3 PUSH2 0x117D JUMP JUMPDEST PUSH1 0x40 DUP3 ADD SWAP1 POP SWAP2 SWAP1 POP JUMP JUMPDEST PUSH1 0x0 PUSH1 0x20 DUP3 ADD SWAP1 POP DUP2 DUP2 SUB PUSH1 0x0 DUP4 ADD MSTORE PUSH2 0x1208 DUP2 PUSH2 0x11CC JUMP JUMPDEST SWAP1 POP SWAP2 SWAP1 POP JUMP JUMPDEST PUSH32 0x4E487B7100000000000000000000000000000000000000000000000000000000 PUSH1 0x0 MSTORE PUSH1 0x11 PUSH1 0x4 MSTORE PUSH1 0x24 PUSH1 0x0 REVERT JUMPDEST PUSH1 0x0 PUSH2 0x1249 DUP3 PUSH2 0xCCD JUMP JUMPDEST SWAP2 POP PUSH2 0x1254 DUP4 PUSH2 0xCCD JUMP JUMPDEST SWAP3 POP DUP3 DUP3 ADD SWAP1 POP DUP3 DUP2 SLT ISZERO PUSH1 0x0 DUP4 SLT AND DUP4 DUP3 SLT PUSH1 0x0 DUP5 SLT ISZERO AND OR ISZERO PUSH2 0x127C JUMPI PUSH2 0x127B PUSH2 0x120F JUMP JUMPDEST JUMPDEST SWAP3 SWAP2 POP POP JUMP JUMPDEST PUSH1 0x0 PUSH2 0x128D DUP3 PUSH2 0xCCD JUMP JUMPDEST SWAP2 POP PUSH2 0x1298 DUP4 PUSH2 0xCCD JUMP JUMPDEST SWAP3 POP DUP3 DUP3 SUB SWAP1 POP DUP2 DUP2 SLT PUSH1 0x0 DUP5 SLT AND DUP3 DUP3 SGT PUSH1 0x0 DUP6 SLT ISZERO AND OR ISZERO PUSH2 0x12BF JUMPI PUSH2 0x12BE PUSH2 0x120F JUMP JUMPDEST JUMPDEST SWAP3 SWAP2 POP POP JUMP JUMPDEST PUSH32 0x4E487B7100000000000000000000000000000000000000000000000000000000 PUSH1 0x0 MSTORE PUSH1 0x22 PUSH1 0x4 MSTORE PUSH1 0x24 PUSH1 0x0 REVERT JUMPDEST PUSH1 0x0 PUSH1 0x2 DUP3 DIV SWAP1 POP PUSH1 0x1 DUP3 AND DUP1 PUSH2 0x130C JUMPI PUSH1 0x7F DUP3 AND SWAP2 POP JUMPDEST PUSH1 0x20 DUP3 LT DUP2 SUB PUSH2 0x131F JUMPI PUSH2 0x131E PUSH2 0x12C5 JUMP JUMPDEST JUMPDEST POP SWAP2 SWAP1 POP JUMP JUMPDEST PUSH32 0x737472696E6720656E747279206E616D6520616C726561647920657869737473 PUSH1 0x0 DUP3 ADD MSTORE POP JUMP JUMPDEST PUSH1 0x0 PUSH2 0x135B PUSH1 0x20 DUP4 PUSH2 0xDC3 JUMP JUMPDEST SWAP2 POP PUSH2 0x1366 DUP3 PUSH2 0x1325 JUMP JUMPDEST PUSH1 0x20 DUP3 ADD SWAP1 POP SWAP2 SWAP1 POP JUMP JUMPDEST PUSH1 0x0 PUSH1 0x20 DUP3 ADD SWAP1 POP DUP2 DUP2 SUB PUSH1 0x0 DUP4 ADD MSTORE PUSH2 0x138A DUP2 PUSH2 0x134E JUMP JUMPDEST SWAP1 POP SWAP2 SWAP1 POP JUMP JUMPDEST PUSH32 0x796F7572206164647265737320616C72656164792068617320616E20616C6961 PUSH1 0x0 DUP3 ADD MSTORE PUSH32 0x7300000000000000000000000000000000000000000000000000000000000000 PUSH1 0x20 DUP3 ADD MSTORE POP JUMP JUMPDEST PUSH1 0x0 PUSH2 0x13ED PUSH1 0x21 DUP4 PUSH2 0xDC3 JUMP JUMPDEST SWAP2 POP PUSH2 0x13F8 DUP3 PUSH2 0x1391 JUMP JUMPDEST PUSH1 0x40 DUP3 ADD SWAP1 POP SWAP2 SWAP1 POP JUMP JUMPDEST PUSH1 0x0 PUSH1 0x20 DUP3 ADD SWAP1 POP DUP2 DUP2 SUB PUSH1 0x0 DUP4 ADD MSTORE PUSH2 0x141C DUP2 PUSH2 0x13E0 JUMP JUMPDEST SWAP1 POP SWAP2 SWAP1 POP JUMP JUMPDEST PUSH1 0x0 DUP2 SWAP1 POP DUP2 PUSH1 0x0 MSTORE PUSH1 0x20 PUSH1 0x0 KECCAK256 SWAP1 POP SWAP2 SWAP1 POP JUMP JUMPDEST PUSH1 0x0 PUSH1 0x20 PUSH1 0x1F DUP4 ADD DIV SWAP1 POP SWAP2 SWAP1 POP JUMP JUMPDEST PUSH1 0x0 DUP3 DUP3 SHL SWAP1 POP SWAP3 SWAP2 POP POP JUMP JUMPDEST PUSH1 0x0 PUSH1 0x8 DUP4 MUL PUSH2 0x1485 PUSH32 0xFFFFFFFFFFFFFFFFFFFFFFFFFFFFFFFFFFFFFFFFFFFFFFFFFFFFFFFFFFFFFFFF DUP3 PUSH2 0x1448 JUMP JUMPDEST PUSH2 0x148F DUP7 DUP4 PUSH2 0x1448 JUMP JUMPDEST SWAP6 POP DUP1 NOT DUP5 AND SWAP4 POP DUP1 DUP7 AND DUP5 OR SWAP3 POP POP POP SWAP4 SWAP3 POP POP POP JUMP JUMPDEST PUSH1 0x0 DUP2 SWAP1 POP SWAP2 SWAP1 POP JUMP JUMPDEST PUSH1 0x0 PUSH2 0x14CC PUSH2 0x14C7 PUSH2 0x14C2 DUP5 PUSH2 0xC99 JUMP JUMPDEST PUSH2 0x14A7 JUMP JUMPDEST PUSH2 0xC99 JUMP JUMPDEST SWAP1 POP SWAP2 SWAP1 POP JUMP JUMPDEST PUSH1 0x0 DUP2 SWAP1 POP SWAP2 SWAP1 POP JUMP JUMPDEST PUSH2 0x14E6 DUP4 PUSH2 0x14B1 JUMP JUMPDEST PUSH2 0x14FA PUSH2 0x14F2 DUP3 PUSH2 0x14D3 JUMP JUMPDEST DUP5 DUP5 SLOAD PUSH2 0x1455 JUMP JUMPDEST DUP3 SSTORE POP POP POP POP JUMP JUMPDEST PUSH1 0x0 SWAP1 JUMP JUMPDEST PUSH2 0x150F PUSH2 0x1502 JUMP JUMPDEST PUSH2 0x151A DUP2 DUP5 DUP5 PUSH2 0x14DD JUMP JUMPDEST POP POP POP JUMP JUMPDEST JUMPDEST DUP2 DUP2 LT ISZERO PUSH2 0x153E JUMPI PUSH2 0x1533 PUSH1 0x0 DUP3 PUSH2 0x1507 JUMP JUMPDEST PUSH1 0x1 DUP2 ADD SWAP1 POP PUSH2 0x1520 JUMP JUMPDEST POP POP JUMP JUMPDEST PUSH1 0x1F DUP3 GT ISZERO PUSH2 0x1583 JUMPI PUSH2 0x1554 DUP2 PUSH2 0x1423 JUMP JUMPDEST PUSH2 0x155D DUP5 PUSH2 0x1438 JUMP JUMPDEST DUP2 ADD PUSH1 0x20 DUP6 LT ISZERO PUSH2 0x156C JUMPI DUP2 SWAP1 POP JUMPDEST PUSH2 0x1580 PUSH2 0x1578 DUP6 PUSH2 0x1438 JUMP JUMPDEST DUP4 ADD DUP3 PUSH2 0x151F JUMP JUMPDEST POP POP JUMPDEST POP POP POP JUMP JUMPDEST PUSH1 0x0 DUP3 DUP3 SHR SWAP1 POP SWAP3 SWAP2 POP POP JUMP JUMPDEST PUSH1 0x0 PUSH2 0x15A6 PUSH1 0x0 NOT DUP5 PUSH1 0x8 MUL PUSH2 0x1588 JUMP JUMPDEST NOT DUP1 DUP4 AND SWAP2 POP POP SWAP3 SWAP2 POP POP JUMP JUMPDEST PUSH1 0x0 PUSH2 0x15BF DUP4 DUP4 PUSH2 0x1595 JUMP JUMPDEST SWAP2 POP DUP3 PUSH1 0x2 MUL DUP3 OR SWAP1 POP SWAP3 SWAP2 POP POP JUMP JUMPDEST PUSH2 0x15D8 DUP3 PUSH2 0xDB8 JUMP JUMPDEST PUSH8 0xFFFFFFFFFFFFFFFF DUP2 GT ISZERO PUSH2 0x15F1 JUMPI PUSH2 0x15F0 PUSH2 0xB25 JUMP JUMPDEST JUMPDEST PUSH2 0x15FB DUP3 SLOAD PUSH2 0x12F4 JUMP JUMPDEST PUSH2 0x1606 DUP3 DUP3 DUP6 PUSH2 0x1542 JUMP JUMPDEST PUSH1 0x0 PUSH1 0x20 SWAP1 POP PUSH1 0x1F DUP4 GT PUSH1 0x1 DUP2 EQ PUSH2 0x1639 JUMPI PUSH1 0x0 DUP5 ISZERO PUSH2 0x1627 JUMPI DUP3 DUP8 ADD MLOAD SWAP1 POP JUMPDEST PUSH2 0x1631 DUP6 DUP3 PUSH2 0x15B3 JUMP JUMPDEST DUP7 SSTORE POP PUSH2 0x1699 JUMP JUMPDEST PUSH1 0x1F NOT DUP5 AND PUSH2 0x1647 DUP7 PUSH2 0x1423 JUMP JUMPDEST PUSH1 0x0 JUMPDEST DUP3 DUP2 LT ISZERO PUSH2 0x166F JUMPI DUP5 DUP10 ADD MLOAD DUP3 SSTORE PUSH1 0x1 DUP3 ADD SWAP2 POP PUSH1 0x20 DUP6 ADD SWAP5 POP PUSH1 0x20 DUP2 ADD SWAP1 POP PUSH2 0x164A JUMP JUMPDEST DUP7 DUP4 LT ISZERO PUSH2 0x168C JUMPI DUP5 DUP10 ADD MLOAD PUSH2 0x1688 PUSH1 0x1F DUP10 AND DUP3 PUSH2 0x1595 JUMP JUMPDEST DUP4 SSTORE POP JUMPDEST PUSH1 0x1 PUSH1 0x2 DUP9 MUL ADD DUP9 SSTORE POP POP POP JUMPDEST POP POP POP POP POP POP JUMP JUMPDEST PUSH1 0x0 PUSH2 0x16AC DUP3 PUSH2 0xC99 JUMP JUMPDEST SWAP2 POP PUSH32 0xFFFFFFFFFFFFFFFFFFFFFFFFFFFFFFFFFFFFFFFFFFFFFFFFFFFFFFFFFFFFFFFF DUP3 SUB PUSH2 0x16DE JUMPI PUSH2 0x16DD PUSH2 0x120F JUMP JUMPDEST JUMPDEST PUSH1 0x1 DUP3 ADD SWAP1 POP SWAP2 SWAP1 POP JUMP INVALID LOG2 PUSH5 0x6970667358 0x22 SLT KECCAK256 PUSH30 0xC5FCCA0D0B7EE3D2A0B888C192E129C78D334D1FAE654FCD34D8DE9BF5DC 0xDD PUSH5 0x736F6C6343 STOP ADDMOD SLT STOP CALLER "
				},
				"gasEstimates": {
					"creation": {
						"codeDepositCost": "1183800",
						"executionCost": "1227",
						"totalCost": "1185027"
					},
					"external": {
						"addAlias(string,string)": "infinite",
						"addressHasEntry(address)": "2846",
						"aliasHasEntry(string)": "infinite",
						"entries(uint256)": "infinite",
						"findByAddress(address)": "2814",
						"findByAlias(string)": "infinite",
						"num_entries()": "2473",
						"payToAlias(string,int256)": "infinite"
					}
				},
				"methodIdentifiers": {
					"addAlias(string,string)": "d72115dc",
					"addressHasEntry(address)": "073f98fd",
					"aliasHasEntry(string)": "76f30f78",
					"entries(uint256)": "b30906d4",
					"findByAddress(address)": "94bbfc0d",
					"findByAlias(string)": "31f9a55f",
					"num_entries()": "b7f1d527",
					"payToAlias(string,int256)": "7d210103"
				}
			},
			"storageLayout": {
				"storage": [
					{
						"astId": 21,
						"contract": "Debts-no-interface.sol:Debts",
						"label": "entries",
						"offset": 0,
						"slot": "0",
						"type": "t_mapping(t_uint256,t_struct(Entry)12_storage)"
					},
					{
						"astId": 25,
						"contract": "Debts-no-interface.sol:Debts",
						"label": "addressHasEntry",
						"offset": 0,
						"slot": "1",
						"type": "t_mapping(t_address,t_bool)"
					},
					{
						"astId": 29,
						"contract": "Debts-no-interface.sol:Debts",
						"label": "aliasHasEntry",
						"offset": 0,
						"slot": "2",
						"type": "t_mapping(t_string_memory_ptr,t_bool)"
					},
					{
						"astId": 33,
						"contract": "Debts-no-interface.sol:Debts",
						"label": "findByAlias",
						"offset": 0,
						"slot": "3",
						"type": "t_mapping(t_string_memory_ptr,t_uint256)"
					},
					{
						"astId": 37,
						"contract": "Debts-no-interface.sol:Debts",
						"label": "findByAddress",
						"offset": 0,
						"slot": "4",
						"type": "t_mapping(t_address,t_uint256)"
					},
					{
						"astId": 39,
						"contract": "Debts-no-interface.sol:Debts",
						"label": "num_entries",
						"offset": 0,
						"slot": "5",
						"type": "t_uint256"
					}
				],
				"types": {
					"t_address": {
						"encoding": "inplace",
						"label": "address",
						"numberOfBytes": "20"
					},
					"t_bool": {
						"encoding": "inplace",
						"label": "bool",
						"numberOfBytes": "1"
					},
					"t_int256": {
						"encoding": "inplace",
						"label": "int256",
						"numberOfBytes": "32"
					},
					"t_mapping(t_address,t_bool)": {
						"encoding": "mapping",
						"key": "t_address",
						"label": "mapping(address => bool)",
						"numberOfBytes": "32",
						"value": "t_bool"
					},
					"t_mapping(t_address,t_uint256)": {
						"encoding": "mapping",
						"key": "t_address",
						"label": "mapping(address => uint256)",
						"numberOfBytes": "32",
						"value": "t_uint256"
					},
					"t_mapping(t_string_memory_ptr,t_bool)": {
						"encoding": "mapping",
						"key": "t_string_memory_ptr",
						"label": "mapping(string => bool)",
						"numberOfBytes": "32",
						"value": "t_bool"
					},
					"t_mapping(t_string_memory_ptr,t_uint256)": {
						"encoding": "mapping",
						"key": "t_string_memory_ptr",
						"label": "mapping(string => uint256)",
						"numberOfBytes": "32",
						"value": "t_uint256"
					},
					"t_mapping(t_uint256,t_struct(Entry)12_storage)": {
						"encoding": "mapping",
						"key": "t_uint256",
						"label": "mapping(uint256 => struct Debts.Entry)",
						"numberOfBytes": "32",
						"value": "t_struct(Entry)12_storage"
					},
					"t_string_memory_ptr": {
						"encoding": "bytes",
						"label": "string",
						"numberOfBytes": "32"
					},
					"t_string_storage": {
						"encoding": "bytes",
						"label": "string",
						"numberOfBytes": "32"
					},
					"t_struct(Entry)12_storage": {
						"encoding": "inplace",
						"label": "struct Debts.Entry",
						"members": [
							{
								"astId": 3,
								"contract": "Debts-no-interface.sol:Debts",
								"label": "id",
								"offset": 0,
								"slot": "0",
								"type": "t_uint256"
							},
							{
								"astId": 5,
								"contract": "Debts-no-interface.sol:Debts",
								"label": "thealias",
								"offset": 0,
								"slot": "1",
								"type": "t_string_storage"
							},
							{
								"astId": 7,
								"contract": "Debts-no-interface.sol:Debts",
								"label": "name",
								"offset": 0,
								"slot": "2",
								"type": "t_string_storage"
							},
							{
								"astId": 9,
								"contract": "Debts-no-interface.sol:Debts",
								"label": "addr",
								"offset": 0,
								"slot": "3",
								"type": "t_address"
							},
							{
								"astId": 11,
								"contract": "Debts-no-interface.sol:Debts",
								"label": "balance",
								"offset": 0,
								"slot": "4",
								"type": "t_int256"
							}
						],
						"numberOfBytes": "160"
					},
					"t_uint256": {
						"encoding": "inplace",
						"label": "uint256",
						"numberOfBytes": "32"
					}
				}
			},
			"userdoc": {
				"kind": "user",
				"methods": {},
				"version": 1
			}
		}
	}
}