{
	"Gradebook.sol": {
		"Gradebook": {
			"abi": [
				{
					"inputs": [],
					"stateMutability": "nonpayable",
					"type": "constructor"
				},
				{
					"anonymous": false,
					"inputs": [
						{
							"indexed": true,
							"internalType": "uint256",
							"name": "_id",
							"type": "uint256"
						}
					],
					"name": "assignmentCreationEvent",
					"type": "event"
				},
				{
					"anonymous": false,
					"inputs": [
						{
							"indexed": true,
							"internalType": "uint256",
							"name": "_id",
							"type": "uint256"
						}
					],
					"name": "gradeEntryEvent",
					"type": "event"
				},
				{
					"inputs": [
						{
							"internalType": "string",
							"name": "name",
							"type": "string"
						},
						{
							"internalType": "uint256",
							"name": "max_score",
							"type": "uint256"
						}
					],
					"name": "addAssignment",
					"outputs": [
						{
							"internalType": "uint256",
							"name": "",
							"type": "uint256"
						}
					],
					"stateMutability": "nonpayable",
					"type": "function"
				},
				{
					"inputs": [
						{
							"internalType": "string",
							"name": "student",
							"type": "string"
						},
						{
							"internalType": "uint256",
							"name": "assignment",
							"type": "uint256"
						},
						{
							"internalType": "uint256",
							"name": "score",
							"type": "uint256"
						}
					],
					"name": "addGrade",
					"outputs": [],
					"stateMutability": "nonpayable",
					"type": "function"
				},
				{
					"inputs": [
						{
							"internalType": "uint256",
							"name": "",
							"type": "uint256"
						}
					],
					"name": "assignment_names",
					"outputs": [
						{
							"internalType": "string",
							"name": "",
							"type": "string"
						}
					],
					"stateMutability": "view",
					"type": "function"
				},
				{
					"inputs": [
						{
							"internalType": "address",
							"name": "ta",
							"type": "address"
						}
					],
					"name": "designateTA",
					"outputs": [],
					"stateMutability": "nonpayable",
					"type": "function"
				},
				{
					"inputs": [
						{
							"internalType": "string",
							"name": "student",
							"type": "string"
						}
					],
					"name": "getAverage",
					"outputs": [
						{
							"internalType": "uint256",
							"name": "",
							"type": "uint256"
						}
					],
					"stateMutability": "view",
					"type": "function"
				},
				{
					"inputs": [],
					"name": "instructor",
					"outputs": [
						{
							"internalType": "address",
							"name": "",
							"type": "address"
						}
					],
					"stateMutability": "view",
					"type": "function"
				},
				{
					"inputs": [
						{
							"internalType": "uint256",
							"name": "",
							"type": "uint256"
						}
					],
					"name": "max_scores",
					"outputs": [
						{
							"internalType": "uint256",
							"name": "",
							"type": "uint256"
						}
					],
					"stateMutability": "view",
					"type": "function"
				},
				{
					"inputs": [],
					"name": "num_assignments",
					"outputs": [
						{
							"internalType": "uint256",
							"name": "",
							"type": "uint256"
						}
					],
					"stateMutability": "view",
					"type": "function"
				},
				{
					"inputs": [],
					"name": "requestTAAccess",
					"outputs": [],
					"stateMutability": "nonpayable",
					"type": "function"
				},
				{
					"inputs": [
						{
							"internalType": "uint256",
							"name": "",
							"type": "uint256"
						},
						{
							"internalType": "string",
							"name": "",
							"type": "string"
						}
					],
					"name": "scores",
					"outputs": [
						{
							"internalType": "uint256",
							"name": "",
							"type": "uint256"
						}
					],
					"stateMutability": "view",
					"type": "function"
				},
				{
					"inputs": [
						{
							"internalType": "bytes4",
							"name": "interfaceId",
							"type": "bytes4"
						}
					],
					"name": "supportsInterface",
					"outputs": [
						{
							"internalType": "bool",
							"name": "",
							"type": "bool"
						}
					],
					"stateMutability": "pure",
					"type": "function"
				},
				{
					"inputs": [
						{
							"internalType": "address",
							"name": "",
							"type": "address"
						}
					],
					"name": "tas",
					"outputs": [
						{
							"internalType": "bool",
							"name": "",
							"type": "bool"
						}
					],
					"stateMutability": "view",
					"type": "function"
				}
			],
			"devdoc": {
				"kind": "dev",
				"methods": {},
				"version": 1
			},
			"evm": {
				"assembly": "    /* \"Gradebook.sol\":225:6687  contract Gradebook is IGradebook {... */\n  mstore(0x40, 0x80)\n    /* \"Gradebook.sol\":1480:1597  constructor() {... */\n  callvalue\n  dup1\n  iszero\n  tag_1\n  jumpi\n  0x00\n  dup1\n  revert\ntag_1:\n  pop\n    /* \"Gradebook.sol\":1517:1527  msg.sender */\n  caller\n    /* \"Gradebook.sol\":1504:1514  instructor */\n  0x05\n  0x00\n    /* \"Gradebook.sol\":1504:1527  instructor = msg.sender */\n  0x0100\n  exp\n  dup2\n  sload\n  dup2\n  0xffffffffffffffffffffffffffffffffffffffff\n  mul\n  not\n  and\n  swap1\n  dup4\n  0xffffffffffffffffffffffffffffffffffffffff\n  and\n  mul\n  or\n  swap1\n  sstore\n  pop\n    /* \"Gradebook.sol\":225:6687  contract Gradebook is IGradebook {... */\n  dataSize(sub_0)\n  dup1\n  dataOffset(sub_0)\n  0x00\n  codecopy\n  0x00\n  return\nstop\n\nsub_0: assembly {\n        /* \"Gradebook.sol\":225:6687  contract Gradebook is IGradebook {... */\n      mstore(0x40, 0x80)\n      callvalue\n      dup1\n      iszero\n      tag_1\n      jumpi\n      0x00\n      dup1\n      revert\n    tag_1:\n      pop\n      jumpi(tag_2, lt(calldatasize, 0x04))\n      shr(0xe0, calldataload(0x00))\n      dup1\n      0x77ca2947\n      gt\n      tag_15\n      jumpi\n      dup1\n      0x77ca2947\n      eq\n      tag_9\n      jumpi\n      dup1\n      0x7fc29673\n      eq\n      tag_10\n      jumpi\n      dup1\n      0x9cfeb679\n      eq\n      tag_11\n      jumpi\n      dup1\n      0xa30254e7\n      eq\n      tag_12\n      jumpi\n      dup1\n      0xc7a9f77b\n      eq\n      tag_13\n      jumpi\n      dup1\n      0xdfd68b91\n      eq\n      tag_14\n      jumpi\n      jump(tag_2)\n    tag_15:\n      dup1\n      0x01ffc9a7\n      eq\n      tag_3\n      jumpi\n      dup1\n      0x077f3b02\n      eq\n      tag_4\n      jumpi\n      dup1\n      0x53acf883\n      eq\n      tag_5\n      jumpi\n      dup1\n      0x65dd2f69\n      eq\n      tag_6\n      jumpi\n      dup1\n      0x71ae413d\n      eq\n      tag_7\n      jumpi\n      dup1\n      0x7241d75f\n      eq\n      tag_8\n      jumpi\n    tag_2:\n      0x00\n      dup1\n      revert\n        /* \"Gradebook.sol\":6510:6682  function supportsInterface(bytes4 interfaceId) external pure returns (bool) {... */\n    tag_3:\n      tag_16\n      0x04\n      dup1\n      calldatasize\n      sub\n      dup2\n      add\n      swap1\n      tag_17\n      swap2\n      swap1\n      tag_18\n      jump\t// in\n    tag_17:\n      tag_19\n      jump\t// in\n    tag_16:\n      mload(0x40)\n      tag_20\n      swap2\n      swap1\n      tag_21\n      jump\t// in\n    tag_20:\n      mload(0x40)\n      dup1\n      swap2\n      sub\n      swap1\n      return\n        /* \"Gradebook.sol\":2728:3626  function addAssignment(string memory name, uint max_score) override public returns (uint)  {... */\n    tag_4:\n      tag_22\n      0x04\n      dup1\n      calldatasize\n      sub\n      dup2\n      add\n      swap1\n      tag_23\n      swap2\n      swap1\n      tag_24\n      jump\t// in\n    tag_23:\n      tag_25\n      jump\t// in\n    tag_22:\n      mload(0x40)\n      tag_26\n      swap2\n      swap1\n      tag_27\n      jump\t// in\n    tag_26:\n      mload(0x40)\n      dup1\n      swap2\n      sub\n      swap1\n      return\n        /* \"Gradebook.sol\":752:810  mapping (uint => string ) public override assignment_names */\n    tag_5:\n      tag_28\n      0x04\n      dup1\n      calldatasize\n      sub\n      dup2\n      add\n      swap1\n      tag_29\n      swap2\n      swap1\n      tag_30\n      jump\t// in\n    tag_29:\n      tag_31\n      jump\t// in\n    tag_28:\n      mload(0x40)\n      tag_32\n      swap2\n      swap1\n      tag_33\n      jump\t// in\n    tag_32:\n      mload(0x40)\n      dup1\n      swap2\n      sub\n      swap1\n      return\n        /* \"Gradebook.sol\":5259:6064  function getAverage(string memory student) override public view returns (uint) {... */\n    tag_6:\n      tag_34\n      0x04\n      dup1\n      calldatasize\n      sub\n      dup2\n      add\n      swap1\n      tag_35\n      swap2\n      swap1\n      tag_36\n      jump\t// in\n    tag_35:\n      tag_37\n      jump\t// in\n    tag_34:\n      mload(0x40)\n      tag_38\n      swap2\n      swap1\n      tag_27\n      jump\t// in\n    tag_38:\n      mload(0x40)\n      dup1\n      swap2\n      sub\n      swap1\n      return\n        /* \"Gradebook.sol\":1427:1461  address public override instructor */\n    tag_7:\n      tag_39\n      tag_40\n      jump\t// in\n    tag_39:\n      mload(0x40)\n      tag_41\n      swap2\n      swap1\n      tag_42\n      jump\t// in\n    tag_41:\n      mload(0x40)\n      dup1\n      swap2\n      sub\n      swap1\n      return\n        /* \"Gradebook.sol\":3891:4771  function addGrade(string memory student, uint assignment, uint score) override public {... */\n    tag_8:\n      tag_43\n      0x04\n      dup1\n      calldatasize\n      sub\n      dup2\n      add\n      swap1\n      tag_44\n      swap2\n      swap1\n      tag_45\n      jump\t// in\n    tag_44:\n      tag_46\n      jump\t// in\n    tag_43:\n      stop\n        /* \"Gradebook.sol\":982:1046  mapping (uint => mapping(string => uint)) public override scores */\n    tag_9:\n      tag_47\n      0x04\n      dup1\n      calldatasize\n      sub\n      dup2\n      add\n      swap1\n      tag_48\n      swap2\n      swap1\n      tag_49\n      jump\t// in\n    tag_48:\n      tag_50\n      jump\t// in\n    tag_47:\n      mload(0x40)\n      tag_51\n      swap2\n      swap1\n      tag_27\n      jump\t// in\n    tag_51:\n      mload(0x40)\n      dup1\n      swap2\n      sub\n      swap1\n      return\n        /* \"Gradebook.sol\":6420:6502  function requestTAAccess() override public {... */\n    tag_10:\n      tag_52\n      tag_53\n      jump\t// in\n    tag_52:\n      stop\n        /* \"Gradebook.sol\":1795:2320  function designateTA(address ta) override public {... */\n    tag_11:\n      tag_54\n      0x04\n      dup1\n      calldatasize\n      sub\n      dup2\n      add\n      swap1\n      tag_55\n      swap2\n      swap1\n      tag_56\n      jump\t// in\n    tag_55:\n      tag_57\n      jump\t// in\n    tag_54:\n      stop\n        /* \"Gradebook.sol\":396:441  mapping (address => bool) public override tas */\n    tag_12:\n      tag_58\n      0x04\n      dup1\n      calldatasize\n      sub\n      dup2\n      add\n      swap1\n      tag_59\n      swap2\n      swap1\n      tag_56\n      jump\t// in\n    tag_59:\n      tag_60\n      jump\t// in\n    tag_58:\n      mload(0x40)\n      tag_61\n      swap2\n      swap1\n      tag_21\n      jump\t// in\n    tag_61:\n      mload(0x40)\n      dup1\n      swap2\n      sub\n      swap1\n      return\n        /* \"Gradebook.sol\":1219:1255  uint public override num_assignments */\n    tag_13:\n      tag_62\n      tag_63\n      jump\t// in\n    tag_62:\n      mload(0x40)\n      tag_64\n      swap2\n      swap1\n      tag_27\n      jump\t// in\n    tag_64:\n      mload(0x40)\n      dup1\n      swap2\n      sub\n      swap1\n      return\n        /* \"Gradebook.sol\":568:617  mapping (uint => uint) public override max_scores */\n    tag_14:\n      tag_65\n      0x04\n      dup1\n      calldatasize\n      sub\n      dup2\n      add\n      swap1\n      tag_66\n      swap2\n      swap1\n      tag_30\n      jump\t// in\n    tag_66:\n      tag_67\n      jump\t// in\n    tag_65:\n      mload(0x40)\n      tag_68\n      swap2\n      swap1\n      tag_27\n      jump\t// in\n    tag_68:\n      mload(0x40)\n      dup1\n      swap2\n      sub\n      swap1\n      return\n        /* \"Gradebook.sol\":6510:6682  function supportsInterface(bytes4 interfaceId) external pure returns (bool) {... */\n    tag_19:\n        /* \"Gradebook.sol\":6580:6584  bool */\n      0x00\n        /* \"Gradebook.sol\":6618:6646  type(IGradebook).interfaceId */\n      0x1c95926d00000000000000000000000000000000000000000000000000000000\n        /* \"Gradebook.sol\":6603:6646  interfaceId == type(IGradebook).interfaceId */\n      not(0xffffffffffffffffffffffffffffffffffffffffffffffffffffffff)\n      and\n        /* \"Gradebook.sol\":6603:6614  interfaceId */\n      dup3\n        /* \"Gradebook.sol\":6603:6646  interfaceId == type(IGradebook).interfaceId */\n      not(0xffffffffffffffffffffffffffffffffffffffffffffffffffffffff)\n      and\n      eq\n        /* \"Gradebook.sol\":6603:6675  interfaceId == type(IGradebook).interfaceId || interfaceId == 0x01ffc9a7 */\n      dup1\n      tag_70\n      jumpi\n      pop\n        /* \"Gradebook.sol\":6665:6675  0x01ffc9a7 */\n      0x01ffc9a7\n        /* \"Gradebook.sol\":6650:6675  interfaceId == 0x01ffc9a7 */\n      0xe0\n      shl\n        /* \"Gradebook.sol\":6650:6661  interfaceId */\n      dup3\n        /* \"Gradebook.sol\":6650:6675  interfaceId == 0x01ffc9a7 */\n      not(0xffffffffffffffffffffffffffffffffffffffffffffffffffffffff)\n      and\n      eq\n        /* \"Gradebook.sol\":6603:6675  interfaceId == type(IGradebook).interfaceId || interfaceId == 0x01ffc9a7 */\n    tag_70:\n        /* \"Gradebook.sol\":6596:6675  return interfaceId == type(IGradebook).interfaceId || interfaceId == 0x01ffc9a7 */\n      swap1\n      pop\n        /* \"Gradebook.sol\":6510:6682  function supportsInterface(bytes4 interfaceId) external pure returns (bool) {... */\n      swap2\n      swap1\n      pop\n      jump\t// out\n        /* \"Gradebook.sol\":2728:3626  function addAssignment(string memory name, uint max_score) override public returns (uint)  {... */\n    tag_25:\n        /* \"Gradebook.sol\":2812:2816  uint */\n      0x00\n        /* \"Gradebook.sol\":2851:2861  instructor */\n      0x05\n      0x00\n      swap1\n      sload\n      swap1\n      0x0100\n      exp\n      swap1\n      div\n      0xffffffffffffffffffffffffffffffffffffffff\n      and\n        /* \"Gradebook.sol\":2837:2861  msg.sender == instructor */\n      0xffffffffffffffffffffffffffffffffffffffff\n      and\n        /* \"Gradebook.sol\":2837:2847  msg.sender */\n      caller\n        /* \"Gradebook.sol\":2837:2861  msg.sender == instructor */\n      0xffffffffffffffffffffffffffffffffffffffff\n      and\n      eq\n        /* \"Gradebook.sol\":2837:2888  msg.sender == instructor || tas[msg.sender] == true */\n      dup1\n      tag_72\n      jumpi\n      pop\n        /* \"Gradebook.sol\":2884:2888  true */\n      0x01\n        /* \"Gradebook.sol\":2865:2888  tas[msg.sender] == true */\n      iszero\n      iszero\n        /* \"Gradebook.sol\":2865:2868  tas */\n      0x00\n        /* \"Gradebook.sol\":2865:2880  tas[msg.sender] */\n      dup1\n        /* \"Gradebook.sol\":2869:2879  msg.sender */\n      caller\n        /* \"Gradebook.sol\":2865:2880  tas[msg.sender] */\n      0xffffffffffffffffffffffffffffffffffffffff\n      and\n      0xffffffffffffffffffffffffffffffffffffffff\n      and\n      dup2\n      mstore\n      0x20\n      add\n      swap1\n      dup2\n      mstore\n      0x20\n      add\n      0x00\n      keccak256\n      0x00\n      swap1\n      sload\n      swap1\n      0x0100\n      exp\n      swap1\n      div\n      0xff\n      and\n        /* \"Gradebook.sol\":2865:2888  tas[msg.sender] == true */\n      iszero\n      iszero\n      eq\n        /* \"Gradebook.sol\":2837:2888  msg.sender == instructor || tas[msg.sender] == true */\n    tag_72:\n        /* \"Gradebook.sol\":2829:2941  require(msg.sender == instructor || tas[msg.sender] == true, \"Creator of assignment is not an instructor or TA\") */\n      tag_73\n      jumpi\n      mload(0x40)\n      0x08c379a000000000000000000000000000000000000000000000000000000000\n      dup2\n      mstore\n      0x04\n      add\n      tag_74\n      swap1\n      tag_75\n      jump\t// in\n    tag_74:\n      mload(0x40)\n      dup1\n      swap2\n      sub\n      swap1\n      revert\n    tag_73:\n        /* \"Gradebook.sol\":2973:2974  0 */\n      0x00\n        /* \"Gradebook.sol\":2960:2969  max_score */\n      dup3\n        /* \"Gradebook.sol\":2960:2974  max_score >= 0 */\n      lt\n      iszero\n        /* \"Gradebook.sol\":2952:3007  require(max_score >= 0, \"max score cannot be negative\") */\n      tag_76\n      jumpi\n      mload(0x40)\n      0x08c379a000000000000000000000000000000000000000000000000000000000\n      dup2\n      mstore\n      0x04\n      add\n      tag_77\n      swap1\n      tag_78\n      jump\t// in\n    tag_77:\n      mload(0x40)\n      dup1\n      swap2\n      sub\n      swap1\n      revert\n    tag_76:\n        /* \"Gradebook.sol\":3399:3408  max_score */\n      dup2\n        /* \"Gradebook.sol\":3369:3379  max_scores */\n      0x01\n        /* \"Gradebook.sol\":3369:3396  max_scores[num_assignments] */\n      0x00\n        /* \"Gradebook.sol\":3380:3395  num_assignments */\n      sload(0x04)\n        /* \"Gradebook.sol\":3369:3396  max_scores[num_assignments] */\n      dup2\n      mstore\n      0x20\n      add\n      swap1\n      dup2\n      mstore\n      0x20\n      add\n      0x00\n      keccak256\n        /* \"Gradebook.sol\":3369:3408  max_scores[num_assignments] = max_score */\n      dup2\n      swap1\n      sstore\n      pop\n        /* \"Gradebook.sol\":3455:3459  name */\n      dup3\n        /* \"Gradebook.sol\":3419:3435  assignment_names */\n      0x02\n        /* \"Gradebook.sol\":3419:3452  assignment_names[num_assignments] */\n      0x00\n        /* \"Gradebook.sol\":3436:3451  num_assignments */\n      sload(0x04)\n        /* \"Gradebook.sol\":3419:3452  assignment_names[num_assignments] */\n      dup2\n      mstore\n      0x20\n      add\n      swap1\n      dup2\n      mstore\n      0x20\n      add\n      0x00\n      keccak256\n        /* \"Gradebook.sol\":3419:3459  assignment_names[num_assignments] = name */\n      swap1\n      dup2\n      tag_79\n      swap2\n      swap1\n      tag_80\n      jump\t// in\n    tag_79:\n      pop\n        /* \"Gradebook.sol\":3499:3514  num_assignments */\n      sload(0x04)\n        /* \"Gradebook.sol\":3475:3515  assignmentCreationEvent(num_assignments) */\n      0x1e5500ede7ec81cd4d6537a1a618f3424510f89d03c2252ee7c80e60a1278b67\n      mload(0x40)\n      mload(0x40)\n      dup1\n      swap2\n      sub\n      swap1\n      log2\n        /* \"Gradebook.sol\":3556:3571  num_assignments */\n      0x04\n      0x00\n        /* \"Gradebook.sol\":3556:3573  num_assignments++ */\n      dup2\n      sload\n      dup1\n      swap3\n      swap2\n      swap1\n      tag_81\n      swap1\n      tag_82\n      jump\t// in\n    tag_81:\n      swap2\n      swap1\n      pop\n      sstore\n      pop\n        /* \"Gradebook.sol\":3609:3610  1 */\n      0x01\n        /* \"Gradebook.sol\":3591:3606  num_assignments */\n      sload(0x04)\n        /* \"Gradebook.sol\":3591:3610  num_assignments - 1 */\n      tag_83\n      swap2\n      swap1\n      tag_84\n      jump\t// in\n    tag_83:\n        /* \"Gradebook.sol\":3584:3610  return num_assignments - 1 */\n      swap1\n      pop\n        /* \"Gradebook.sol\":2728:3626  function addAssignment(string memory name, uint max_score) override public returns (uint)  {... */\n      swap3\n      swap2\n      pop\n      pop\n      jump\t// out\n        /* \"Gradebook.sol\":752:810  mapping (uint => string ) public override assignment_names */\n    tag_31:\n      mstore(0x20, 0x02)\n      dup1\n      0x00\n      mstore\n      keccak256(0x00, 0x40)\n      0x00\n      swap2\n      pop\n      swap1\n      pop\n      dup1\n      sload\n      tag_85\n      swap1\n      tag_86\n      jump\t// in\n    tag_85:\n      dup1\n      0x1f\n      add\n      0x20\n      dup1\n      swap2\n      div\n      mul\n      0x20\n      add\n      mload(0x40)\n      swap1\n      dup2\n      add\n      0x40\n      mstore\n      dup1\n      swap3\n      swap2\n      swap1\n      dup2\n      dup2\n      mstore\n      0x20\n      add\n      dup3\n      dup1\n      sload\n      tag_87\n      swap1\n      tag_86\n      jump\t// in\n    tag_87:\n      dup1\n      iszero\n      tag_88\n      jumpi\n      dup1\n      0x1f\n      lt\n      tag_89\n      jumpi\n      0x0100\n      dup1\n      dup4\n      sload\n      div\n      mul\n      dup4\n      mstore\n      swap2\n      0x20\n      add\n      swap2\n      jump(tag_88)\n    tag_89:\n      dup3\n      add\n      swap2\n      swap1\n      0x00\n      mstore\n      keccak256(0x00, 0x20)\n      swap1\n    tag_90:\n      dup2\n      sload\n      dup2\n      mstore\n      swap1\n      0x01\n      add\n      swap1\n      0x20\n      add\n      dup1\n      dup4\n      gt\n      tag_90\n      jumpi\n      dup3\n      swap1\n      sub\n      0x1f\n      and\n      dup3\n      add\n      swap2\n    tag_88:\n      pop\n      pop\n      pop\n      pop\n      pop\n      dup2\n      jump\t// out\n        /* \"Gradebook.sol\":5259:6064  function getAverage(string memory student) override public view returns (uint) {... */\n    tag_37:\n        /* \"Gradebook.sol\":5332:5336  uint */\n      0x00\n        /* \"Gradebook.sol\":5452:5463  uint maxAvg */\n      dup1\n        /* \"Gradebook.sol\":5466:5467  0 */\n      0x00\n        /* \"Gradebook.sol\":5452:5467  uint maxAvg = 0 */\n      swap1\n      pop\n        /* \"Gradebook.sol\":5529:5546  uint studentTotal */\n      0x00\n        /* \"Gradebook.sol\":5596:5602  uint i */\n      dup1\n        /* \"Gradebook.sol\":5591:5752  for (uint i = 0; i < num_assignments; i++) {... */\n    tag_92:\n        /* \"Gradebook.sol\":5612:5627  num_assignments */\n      sload(0x04)\n        /* \"Gradebook.sol\":5608:5609  i */\n      dup2\n        /* \"Gradebook.sol\":5608:5627  i < num_assignments */\n      lt\n        /* \"Gradebook.sol\":5591:5752  for (uint i = 0; i < num_assignments; i++) {... */\n      iszero\n      tag_93\n      jumpi\n        /* \"Gradebook.sol\":5666:5676  max_scores */\n      0x01\n        /* \"Gradebook.sol\":5666:5679  max_scores[i] */\n      0x00\n        /* \"Gradebook.sol\":5677:5678  i */\n      dup3\n        /* \"Gradebook.sol\":5666:5679  max_scores[i] */\n      dup2\n      mstore\n      0x20\n      add\n      swap1\n      dup2\n      mstore\n      0x20\n      add\n      0x00\n      keccak256\n      sload\n        /* \"Gradebook.sol\":5657:5663  maxAvg */\n      dup4\n        /* \"Gradebook.sol\":5657:5679  maxAvg + max_scores[i] */\n      tag_95\n      swap2\n      swap1\n      tag_96\n      jump\t// in\n    tag_95:\n        /* \"Gradebook.sol\":5648:5679  maxAvg = maxAvg + max_scores[i] */\n      swap3\n      pop\n        /* \"Gradebook.sol\":5723:5729  scores */\n      0x03\n        /* \"Gradebook.sol\":5723:5732  scores[i] */\n      0x00\n        /* \"Gradebook.sol\":5730:5731  i */\n      dup3\n        /* \"Gradebook.sol\":5723:5732  scores[i] */\n      dup2\n      mstore\n      0x20\n      add\n      swap1\n      dup2\n      mstore\n      0x20\n      add\n      0x00\n      keccak256\n        /* \"Gradebook.sol\":5733:5740  student */\n      dup6\n        /* \"Gradebook.sol\":5723:5741  scores[i][student] */\n      mload(0x40)\n      tag_97\n      swap2\n      swap1\n      tag_98\n      jump\t// in\n    tag_97:\n      swap1\n      dup2\n      mstore\n      0x20\n      add\n      mload(0x40)\n      dup1\n      swap2\n      sub\n      swap1\n      keccak256\n      sload\n        /* \"Gradebook.sol\":5708:5720  studentTotal */\n      dup3\n        /* \"Gradebook.sol\":5708:5741  studentTotal + scores[i][student] */\n      tag_99\n      swap2\n      swap1\n      tag_96\n      jump\t// in\n    tag_99:\n        /* \"Gradebook.sol\":5693:5741  studentTotal = studentTotal + scores[i][student] */\n      swap2\n      pop\n        /* \"Gradebook.sol\":5629:5632  i++ */\n      dup1\n      dup1\n      tag_100\n      swap1\n      tag_82\n      jump\t// in\n    tag_100:\n      swap2\n      pop\n      pop\n        /* \"Gradebook.sol\":5591:5752  for (uint i = 0; i < num_assignments; i++) {... */\n      jump(tag_92)\n    tag_93:\n      pop\n        /* \"Gradebook.sol\":5824:5825  0 */\n      0x00\n        /* \"Gradebook.sol\":5815:5821  maxAvg */\n      dup3\n        /* \"Gradebook.sol\":5815:5825  maxAvg > 0 */\n      gt\n        /* \"Gradebook.sol\":5807:5889  require(maxAvg > 0, \"maximum score is zero. Assignments need to be created first\") */\n      tag_101\n      jumpi\n      mload(0x40)\n      0x08c379a000000000000000000000000000000000000000000000000000000000\n      dup2\n      mstore\n      0x04\n      add\n      tag_102\n      swap1\n      tag_103\n      jump\t// in\n    tag_102:\n      mload(0x40)\n      dup1\n      swap2\n      sub\n      swap1\n      revert\n    tag_101:\n        /* \"Gradebook.sol\":5899:5910  uint result */\n      0x00\n        /* \"Gradebook.sol\":5938:5944  maxAvg */\n      dup3\n        /* \"Gradebook.sol\":5929:5934  10000 */\n      0x2710\n        /* \"Gradebook.sol\":5914:5926  studentTotal */\n      dup4\n        /* \"Gradebook.sol\":5914:5934  studentTotal * 10000 */\n      tag_104\n      swap2\n      swap1\n      tag_105\n      jump\t// in\n    tag_104:\n        /* \"Gradebook.sol\":5913:5944  (studentTotal * 10000) / maxAvg */\n      tag_106\n      swap2\n      swap1\n      tag_107\n      jump\t// in\n    tag_106:\n        /* \"Gradebook.sol\":5899:5944  uint result = (studentTotal * 10000) / maxAvg */\n      swap1\n      pop\n        /* \"Gradebook.sol\":6050:6056  result */\n      dup1\n        /* \"Gradebook.sol\":6043:6056  return result */\n      swap4\n      pop\n      pop\n      pop\n      pop\n        /* \"Gradebook.sol\":5259:6064  function getAverage(string memory student) override public view returns (uint) {... */\n      swap2\n      swap1\n      pop\n      jump\t// out\n        /* \"Gradebook.sol\":1427:1461  address public override instructor */\n    tag_40:\n      0x05\n      0x00\n      swap1\n      sload\n      swap1\n      0x0100\n      exp\n      swap1\n      div\n      0xffffffffffffffffffffffffffffffffffffffff\n      and\n      dup2\n      jump\t// out\n        /* \"Gradebook.sol\":3891:4771  function addGrade(string memory student, uint assignment, uint score) override public {... */\n    tag_46:\n        /* \"Gradebook.sol\":4009:4019  instructor */\n      0x05\n      0x00\n      swap1\n      sload\n      swap1\n      0x0100\n      exp\n      swap1\n      div\n      0xffffffffffffffffffffffffffffffffffffffff\n      and\n        /* \"Gradebook.sol\":3995:4019  msg.sender == instructor */\n      0xffffffffffffffffffffffffffffffffffffffff\n      and\n        /* \"Gradebook.sol\":3995:4005  msg.sender */\n      caller\n        /* \"Gradebook.sol\":3995:4019  msg.sender == instructor */\n      0xffffffffffffffffffffffffffffffffffffffff\n      and\n      eq\n        /* \"Gradebook.sol\":3995:4046  msg.sender == instructor || tas[msg.sender] == true */\n      dup1\n      tag_109\n      jumpi\n      pop\n        /* \"Gradebook.sol\":4042:4046  true */\n      0x01\n        /* \"Gradebook.sol\":4023:4046  tas[msg.sender] == true */\n      iszero\n      iszero\n        /* \"Gradebook.sol\":4023:4026  tas */\n      0x00\n        /* \"Gradebook.sol\":4023:4038  tas[msg.sender] */\n      dup1\n        /* \"Gradebook.sol\":4027:4037  msg.sender */\n      caller\n        /* \"Gradebook.sol\":4023:4038  tas[msg.sender] */\n      0xffffffffffffffffffffffffffffffffffffffff\n      and\n      0xffffffffffffffffffffffffffffffffffffffff\n      and\n      dup2\n      mstore\n      0x20\n      add\n      swap1\n      dup2\n      mstore\n      0x20\n      add\n      0x00\n      keccak256\n      0x00\n      swap1\n      sload\n      swap1\n      0x0100\n      exp\n      swap1\n      div\n      0xff\n      and\n        /* \"Gradebook.sol\":4023:4046  tas[msg.sender] == true */\n      iszero\n      iszero\n      eq\n        /* \"Gradebook.sol\":3995:4046  msg.sender == instructor || tas[msg.sender] == true */\n    tag_109:\n        /* \"Gradebook.sol\":3987:4097  require(msg.sender == instructor || tas[msg.sender] == true, \"Adder of assignment is not an instructor or TA\") */\n      tag_110\n      jumpi\n      mload(0x40)\n      0x08c379a000000000000000000000000000000000000000000000000000000000\n      dup2\n      mstore\n      0x04\n      add\n      tag_111\n      swap1\n      tag_112\n      jump\t// in\n    tag_111:\n      mload(0x40)\n      dup1\n      swap2\n      sub\n      swap1\n      revert\n    tag_110:\n        /* \"Gradebook.sol\":4260:4275  num_assignments */\n      sload(0x04)\n        /* \"Gradebook.sol\":4247:4257  assignment */\n      dup3\n        /* \"Gradebook.sol\":4247:4275  assignment < num_assignments */\n      lt\n        /* \"Gradebook.sol\":4239:4307  require(assignment < num_assignments, \"Assignment id is not valid!\") */\n      tag_113\n      jumpi\n      mload(0x40)\n      0x08c379a000000000000000000000000000000000000000000000000000000000\n      dup2\n      mstore\n      0x04\n      add\n      tag_114\n      swap1\n      tag_115\n      jump\t// in\n    tag_114:\n      mload(0x40)\n      dup1\n      swap2\n      sub\n      swap1\n      revert\n    tag_113:\n        /* \"Gradebook.sol\":4388:4393  score */\n      dup1\n        /* \"Gradebook.sol\":4362:4372  max_scores */\n      0x01\n        /* \"Gradebook.sol\":4362:4384  max_scores[assignment] */\n      0x00\n        /* \"Gradebook.sol\":4373:4383  assignment */\n      dup5\n        /* \"Gradebook.sol\":4362:4384  max_scores[assignment] */\n      dup2\n      mstore\n      0x20\n      add\n      swap1\n      dup2\n      mstore\n      0x20\n      add\n      0x00\n      keccak256\n      sload\n        /* \"Gradebook.sol\":4362:4393  max_scores[assignment] >= score */\n      lt\n      iszero\n        /* \"Gradebook.sol\":4354:4432  require(max_scores[assignment] >= score, \"Score can't be higher than the max\") */\n      tag_116\n      jumpi\n      mload(0x40)\n      0x08c379a000000000000000000000000000000000000000000000000000000000\n      dup2\n      mstore\n      0x04\n      add\n      tag_117\n      swap1\n      tag_118\n      jump\t// in\n    tag_117:\n      mload(0x40)\n      dup1\n      swap2\n      sub\n      swap1\n      revert\n    tag_116:\n        /* \"Gradebook.sol\":4460:4461  0 */\n      0x00\n        /* \"Gradebook.sol\":4451:4456  score */\n      dup2\n        /* \"Gradebook.sol\":4451:4461  score >= 0 */\n      lt\n      iszero\n        /* \"Gradebook.sol\":4443:4509  require(score >= 0, \"score on assignment can't be less than zero\") */\n      tag_119\n      jumpi\n      mload(0x40)\n      0x08c379a000000000000000000000000000000000000000000000000000000000\n      dup2\n      mstore\n      0x04\n      add\n      tag_120\n      swap1\n      tag_121\n      jump\t// in\n    tag_120:\n      mload(0x40)\n      dup1\n      swap2\n      sub\n      swap1\n      revert\n    tag_119:\n        /* \"Gradebook.sol\":4641:4646  score */\n      dup1\n        /* \"Gradebook.sol\":4611:4617  scores */\n      0x03\n        /* \"Gradebook.sol\":4611:4629  scores[assignment] */\n      0x00\n        /* \"Gradebook.sol\":4618:4628  assignment */\n      dup5\n        /* \"Gradebook.sol\":4611:4629  scores[assignment] */\n      dup2\n      mstore\n      0x20\n      add\n      swap1\n      dup2\n      mstore\n      0x20\n      add\n      0x00\n      keccak256\n        /* \"Gradebook.sol\":4630:4637  student */\n      dup5\n        /* \"Gradebook.sol\":4611:4638  scores[assignment][student] */\n      mload(0x40)\n      tag_122\n      swap2\n      swap1\n      tag_98\n      jump\t// in\n    tag_122:\n      swap1\n      dup2\n      mstore\n      0x20\n      add\n      mload(0x40)\n      dup1\n      swap2\n      sub\n      swap1\n      keccak256\n        /* \"Gradebook.sol\":4611:4646  scores[assignment][student] = score */\n      dup2\n      swap1\n      sstore\n      pop\n        /* \"Gradebook.sol\":4715:4725  assignment */\n      dup2\n        /* \"Gradebook.sol\":4699:4726  gradeEntryEvent(assignment) */\n      0xef2ac44e203202a0e5ecc9974197e85354c58fc899e46eaa72f8aed9aa0b701d\n      mload(0x40)\n      mload(0x40)\n      dup1\n      swap2\n      sub\n      swap1\n      log2\n        /* \"Gradebook.sol\":3891:4771  function addGrade(string memory student, uint assignment, uint score) override public {... */\n      pop\n      pop\n      pop\n      jump\t// out\n        /* \"Gradebook.sol\":982:1046  mapping (uint => mapping(string => uint)) public override scores */\n    tag_50:\n      mstore(0x20, 0x03)\n      dup2\n      0x00\n      mstore\n      keccak256(0x00, 0x40)\n      dup2\n      dup1\n      mload\n      0x20\n      dup2\n      add\n      dup3\n      add\n      dup1\n      mload\n      dup5\n      dup3\n      mstore\n      0x20\n      dup4\n      add\n      0x20\n      dup6\n      add\n      keccak256\n      dup2\n      dup4\n      mstore\n      dup1\n      swap6\n      pop\n      pop\n      pop\n      pop\n      pop\n      pop\n      0x00\n      swap2\n      pop\n      swap2\n      pop\n      pop\n      sload\n      dup2\n      jump\t// out\n        /* \"Gradebook.sol\":6420:6502  function requestTAAccess() override public {... */\n    tag_53:\n        /* \"Gradebook.sol\":6491:6495  true */\n      0x01\n        /* \"Gradebook.sol\":6473:6476  tas */\n      0x00\n        /* \"Gradebook.sol\":6473:6488  tas[msg.sender] */\n      dup1\n        /* \"Gradebook.sol\":6477:6487  msg.sender */\n      caller\n        /* \"Gradebook.sol\":6473:6488  tas[msg.sender] */\n      0xffffffffffffffffffffffffffffffffffffffff\n      and\n      0xffffffffffffffffffffffffffffffffffffffff\n      and\n      dup2\n      mstore\n      0x20\n      add\n      swap1\n      dup2\n      mstore\n      0x20\n      add\n      0x00\n      keccak256\n      0x00\n        /* \"Gradebook.sol\":6473:6495  tas[msg.sender] = true */\n      0x0100\n      exp\n      dup2\n      sload\n      dup2\n      0xff\n      mul\n      not\n      and\n      swap1\n      dup4\n      iszero\n      iszero\n      mul\n      or\n      swap1\n      sstore\n      pop\n        /* \"Gradebook.sol\":6420:6502  function requestTAAccess() override public {... */\n      jump\t// out\n        /* \"Gradebook.sol\":1795:2320  function designateTA(address ta) override public {... */\n    tag_57:\n        /* \"Gradebook.sol\":2056:2066  instructor */\n      0x05\n      0x00\n      swap1\n      sload\n      swap1\n      0x0100\n      exp\n      swap1\n      div\n      0xffffffffffffffffffffffffffffffffffffffff\n      and\n        /* \"Gradebook.sol\":2050:2066  ta != instructor */\n      0xffffffffffffffffffffffffffffffffffffffff\n      and\n        /* \"Gradebook.sol\":2050:2052  ta */\n      dup2\n        /* \"Gradebook.sol\":2050:2066  ta != instructor */\n      0xffffffffffffffffffffffffffffffffffffffff\n      and\n      sub\n        /* \"Gradebook.sol\":2042:2098  require(ta != instructor, \"Instructor cannot be a TA! \") */\n      tag_125\n      jumpi\n      mload(0x40)\n      0x08c379a000000000000000000000000000000000000000000000000000000000\n      dup2\n      mstore\n      0x04\n      add\n      tag_126\n      swap1\n      tag_127\n      jump\t// in\n    tag_126:\n      mload(0x40)\n      dup1\n      swap2\n      sub\n      swap1\n      revert\n    tag_125:\n        /* \"Gradebook.sol\":2226:2236  instructor */\n      0x05\n      0x00\n      swap1\n      sload\n      swap1\n      0x0100\n      exp\n      swap1\n      div\n      0xffffffffffffffffffffffffffffffffffffffff\n      and\n        /* \"Gradebook.sol\":2212:2236  msg.sender == instructor */\n      0xffffffffffffffffffffffffffffffffffffffff\n      and\n        /* \"Gradebook.sol\":2212:2222  msg.sender */\n      caller\n        /* \"Gradebook.sol\":2212:2236  msg.sender == instructor */\n      0xffffffffffffffffffffffffffffffffffffffff\n      and\n      eq\n        /* \"Gradebook.sol\":2204:2287  require(msg.sender == instructor, \"Instructor must be the designator of TA status\") */\n      tag_128\n      jumpi\n      mload(0x40)\n      0x08c379a000000000000000000000000000000000000000000000000000000000\n      dup2\n      mstore\n      0x04\n      add\n      tag_129\n      swap1\n      tag_130\n      jump\t// in\n    tag_129:\n      mload(0x40)\n      dup1\n      swap2\n      sub\n      swap1\n      revert\n    tag_128:\n        /* \"Gradebook.sol\":2308:2312  true */\n      0x01\n        /* \"Gradebook.sol\":2298:2301  tas */\n      0x00\n        /* \"Gradebook.sol\":2298:2305  tas[ta] */\n      dup1\n        /* \"Gradebook.sol\":2302:2304  ta */\n      dup4\n        /* \"Gradebook.sol\":2298:2305  tas[ta] */\n      0xffffffffffffffffffffffffffffffffffffffff\n      and\n      0xffffffffffffffffffffffffffffffffffffffff\n      and\n      dup2\n      mstore\n      0x20\n      add\n      swap1\n      dup2\n      mstore\n      0x20\n      add\n      0x00\n      keccak256\n      0x00\n        /* \"Gradebook.sol\":2298:2312  tas[ta] = true */\n      0x0100\n      exp\n      dup2\n      sload\n      dup2\n      0xff\n      mul\n      not\n      and\n      swap1\n      dup4\n      iszero\n      iszero\n      mul\n      or\n      swap1\n      sstore\n      pop\n        /* \"Gradebook.sol\":1795:2320  function designateTA(address ta) override public {... */\n      pop\n      jump\t// out\n        /* \"Gradebook.sol\":396:441  mapping (address => bool) public override tas */\n    tag_60:\n      mstore(0x20, 0x00)\n      dup1\n      0x00\n      mstore\n      keccak256(0x00, 0x40)\n      0x00\n      swap2\n      pop\n      sload\n      swap1\n      0x0100\n      exp\n      swap1\n      div\n      0xff\n      and\n      dup2\n      jump\t// out\n        /* \"Gradebook.sol\":1219:1255  uint public override num_assignments */\n    tag_63:\n      sload(0x04)\n      dup2\n      jump\t// out\n        /* \"Gradebook.sol\":568:617  mapping (uint => uint) public override max_scores */\n    tag_67:\n      mstore(0x20, 0x01)\n      dup1\n      0x00\n      mstore\n      keccak256(0x00, 0x40)\n      0x00\n      swap2\n      pop\n      swap1\n      pop\n      sload\n      dup2\n      jump\t// out\n        /* \"#utility.yul\":7:82   */\n    tag_131:\n        /* \"#utility.yul\":40:46   */\n      0x00\n        /* \"#utility.yul\":73:75   */\n      0x40\n        /* \"#utility.yul\":67:76   */\n      mload\n        /* \"#utility.yul\":57:76   */\n      swap1\n      pop\n        /* \"#utility.yul\":7:82   */\n      swap1\n      jump\t// out\n        /* \"#utility.yul\":88:205   */\n    tag_132:\n        /* \"#utility.yul\":197:198   */\n      0x00\n        /* \"#utility.yul\":194:195   */\n      dup1\n        /* \"#utility.yul\":187:199   */\n      revert\n        /* \"#utility.yul\":211:328   */\n    tag_133:\n        /* \"#utility.yul\":320:321   */\n      0x00\n        /* \"#utility.yul\":317:318   */\n      dup1\n        /* \"#utility.yul\":310:322   */\n      revert\n        /* \"#utility.yul\":334:483   */\n    tag_134:\n        /* \"#utility.yul\":370:377   */\n      0x00\n        /* \"#utility.yul\":410:476   */\n      0xffffffff00000000000000000000000000000000000000000000000000000000\n        /* \"#utility.yul\":403:408   */\n      dup3\n        /* \"#utility.yul\":399:477   */\n      and\n        /* \"#utility.yul\":388:477   */\n      swap1\n      pop\n        /* \"#utility.yul\":334:483   */\n      swap2\n      swap1\n      pop\n      jump\t// out\n        /* \"#utility.yul\":489:609   */\n    tag_135:\n        /* \"#utility.yul\":561:584   */\n      tag_206\n        /* \"#utility.yul\":578:583   */\n      dup2\n        /* \"#utility.yul\":561:584   */\n      tag_134\n      jump\t// in\n    tag_206:\n        /* \"#utility.yul\":554:559   */\n      dup2\n        /* \"#utility.yul\":551:585   */\n      eq\n        /* \"#utility.yul\":541:603   */\n      tag_207\n      jumpi\n        /* \"#utility.yul\":599:600   */\n      0x00\n        /* \"#utility.yul\":596:597   */\n      dup1\n        /* \"#utility.yul\":589:601   */\n      revert\n        /* \"#utility.yul\":541:603   */\n    tag_207:\n        /* \"#utility.yul\":489:609   */\n      pop\n      jump\t// out\n        /* \"#utility.yul\":615:752   */\n    tag_136:\n        /* \"#utility.yul\":660:665   */\n      0x00\n        /* \"#utility.yul\":698:704   */\n      dup2\n        /* \"#utility.yul\":685:705   */\n      calldataload\n        /* \"#utility.yul\":676:705   */\n      swap1\n      pop\n        /* \"#utility.yul\":714:746   */\n      tag_209\n        /* \"#utility.yul\":740:745   */\n      dup2\n        /* \"#utility.yul\":714:746   */\n      tag_135\n      jump\t// in\n    tag_209:\n        /* \"#utility.yul\":615:752   */\n      swap3\n      swap2\n      pop\n      pop\n      jump\t// out\n        /* \"#utility.yul\":758:1085   */\n    tag_18:\n        /* \"#utility.yul\":816:822   */\n      0x00\n        /* \"#utility.yul\":865:867   */\n      0x20\n        /* \"#utility.yul\":853:862   */\n      dup3\n        /* \"#utility.yul\":844:851   */\n      dup5\n        /* \"#utility.yul\":840:863   */\n      sub\n        /* \"#utility.yul\":836:868   */\n      slt\n        /* \"#utility.yul\":833:952   */\n      iszero\n      tag_211\n      jumpi\n        /* \"#utility.yul\":871:950   */\n      tag_212\n      tag_132\n      jump\t// in\n    tag_212:\n        /* \"#utility.yul\":833:952   */\n    tag_211:\n        /* \"#utility.yul\":991:992   */\n      0x00\n        /* \"#utility.yul\":1016:1068   */\n      tag_213\n        /* \"#utility.yul\":1060:1067   */\n      dup5\n        /* \"#utility.yul\":1051:1057   */\n      dup3\n        /* \"#utility.yul\":1040:1049   */\n      dup6\n        /* \"#utility.yul\":1036:1058   */\n      add\n        /* \"#utility.yul\":1016:1068   */\n      tag_136\n      jump\t// in\n    tag_213:\n        /* \"#utility.yul\":1006:1068   */\n      swap2\n      pop\n        /* \"#utility.yul\":962:1078   */\n      pop\n        /* \"#utility.yul\":758:1085   */\n      swap3\n      swap2\n      pop\n      pop\n      jump\t// out\n        /* \"#utility.yul\":1091:1181   */\n    tag_137:\n        /* \"#utility.yul\":1125:1132   */\n      0x00\n        /* \"#utility.yul\":1168:1173   */\n      dup2\n        /* \"#utility.yul\":1161:1174   */\n      iszero\n        /* \"#utility.yul\":1154:1175   */\n      iszero\n        /* \"#utility.yul\":1143:1175   */\n      swap1\n      pop\n        /* \"#utility.yul\":1091:1181   */\n      swap2\n      swap1\n      pop\n      jump\t// out\n        /* \"#utility.yul\":1187:1296   */\n    tag_138:\n        /* \"#utility.yul\":1268:1289   */\n      tag_216\n        /* \"#utility.yul\":1283:1288   */\n      dup2\n        /* \"#utility.yul\":1268:1289   */\n      tag_137\n      jump\t// in\n    tag_216:\n        /* \"#utility.yul\":1263:1266   */\n      dup3\n        /* \"#utility.yul\":1256:1290   */\n      mstore\n        /* \"#utility.yul\":1187:1296   */\n      pop\n      pop\n      jump\t// out\n        /* \"#utility.yul\":1302:1512   */\n    tag_21:\n        /* \"#utility.yul\":1389:1393   */\n      0x00\n        /* \"#utility.yul\":1427:1429   */\n      0x20\n        /* \"#utility.yul\":1416:1425   */\n      dup3\n        /* \"#utility.yul\":1412:1430   */\n      add\n        /* \"#utility.yul\":1404:1430   */\n      swap1\n      pop\n        /* \"#utility.yul\":1440:1505   */\n      tag_218\n        /* \"#utility.yul\":1502:1503   */\n      0x00\n        /* \"#utility.yul\":1491:1500   */\n      dup4\n        /* \"#utility.yul\":1487:1504   */\n      add\n        /* \"#utility.yul\":1478:1484   */\n      dup5\n        /* \"#utility.yul\":1440:1505   */\n      tag_138\n      jump\t// in\n    tag_218:\n        /* \"#utility.yul\":1302:1512   */\n      swap3\n      swap2\n      pop\n      pop\n      jump\t// out\n        /* \"#utility.yul\":1518:1635   */\n    tag_139:\n        /* \"#utility.yul\":1627:1628   */\n      0x00\n        /* \"#utility.yul\":1624:1625   */\n      dup1\n        /* \"#utility.yul\":1617:1629   */\n      revert\n        /* \"#utility.yul\":1641:1758   */\n    tag_140:\n        /* \"#utility.yul\":1750:1751   */\n      0x00\n        /* \"#utility.yul\":1747:1748   */\n      dup1\n        /* \"#utility.yul\":1740:1752   */\n      revert\n        /* \"#utility.yul\":1764:1866   */\n    tag_141:\n        /* \"#utility.yul\":1805:1811   */\n      0x00\n        /* \"#utility.yul\":1856:1858   */\n      0x1f\n        /* \"#utility.yul\":1852:1859   */\n      not\n        /* \"#utility.yul\":1847:1849   */\n      0x1f\n        /* \"#utility.yul\":1840:1845   */\n      dup4\n        /* \"#utility.yul\":1836:1850   */\n      add\n        /* \"#utility.yul\":1832:1860   */\n      and\n        /* \"#utility.yul\":1822:1860   */\n      swap1\n      pop\n        /* \"#utility.yul\":1764:1866   */\n      swap2\n      swap1\n      pop\n      jump\t// out\n        /* \"#utility.yul\":1872:2052   */\n    tag_142:\n        /* \"#utility.yul\":1920:1997   */\n      0x4e487b7100000000000000000000000000000000000000000000000000000000\n        /* \"#utility.yul\":1917:1918   */\n      0x00\n        /* \"#utility.yul\":1910:1998   */\n      mstore\n        /* \"#utility.yul\":2017:2021   */\n      0x41\n        /* \"#utility.yul\":2014:2015   */\n      0x04\n        /* \"#utility.yul\":2007:2022   */\n      mstore\n        /* \"#utility.yul\":2041:2045   */\n      0x24\n        /* \"#utility.yul\":2038:2039   */\n      0x00\n        /* \"#utility.yul\":2031:2046   */\n      revert\n        /* \"#utility.yul\":2058:2339   */\n    tag_143:\n        /* \"#utility.yul\":2141:2168   */\n      tag_224\n        /* \"#utility.yul\":2163:2167   */\n      dup3\n        /* \"#utility.yul\":2141:2168   */\n      tag_141\n      jump\t// in\n    tag_224:\n        /* \"#utility.yul\":2133:2139   */\n      dup2\n        /* \"#utility.yul\":2129:2169   */\n      add\n        /* \"#utility.yul\":2271:2277   */\n      dup2\n        /* \"#utility.yul\":2259:2269   */\n      dup2\n        /* \"#utility.yul\":2256:2278   */\n      lt\n        /* \"#utility.yul\":2235:2253   */\n      0xffffffffffffffff\n        /* \"#utility.yul\":2223:2233   */\n      dup3\n        /* \"#utility.yul\":2220:2254   */\n      gt\n        /* \"#utility.yul\":2217:2279   */\n      or\n        /* \"#utility.yul\":2214:2302   */\n      iszero\n      tag_225\n      jumpi\n        /* \"#utility.yul\":2282:2300   */\n      tag_226\n      tag_142\n      jump\t// in\n    tag_226:\n        /* \"#utility.yul\":2214:2302   */\n    tag_225:\n        /* \"#utility.yul\":2322:2332   */\n      dup1\n        /* \"#utility.yul\":2318:2320   */\n      0x40\n        /* \"#utility.yul\":2311:2333   */\n      mstore\n        /* \"#utility.yul\":2101:2339   */\n      pop\n        /* \"#utility.yul\":2058:2339   */\n      pop\n      pop\n      jump\t// out\n        /* \"#utility.yul\":2345:2474   */\n    tag_144:\n        /* \"#utility.yul\":2379:2385   */\n      0x00\n        /* \"#utility.yul\":2406:2426   */\n      tag_228\n      tag_131\n      jump\t// in\n    tag_228:\n        /* \"#utility.yul\":2396:2426   */\n      swap1\n      pop\n        /* \"#utility.yul\":2435:2468   */\n      tag_229\n        /* \"#utility.yul\":2463:2467   */\n      dup3\n        /* \"#utility.yul\":2455:2461   */\n      dup3\n        /* \"#utility.yul\":2435:2468   */\n      tag_143\n      jump\t// in\n    tag_229:\n        /* \"#utility.yul\":2345:2474   */\n      swap2\n      swap1\n      pop\n      jump\t// out\n        /* \"#utility.yul\":2480:2788   */\n    tag_145:\n        /* \"#utility.yul\":2542:2546   */\n      0x00\n        /* \"#utility.yul\":2632:2650   */\n      0xffffffffffffffff\n        /* \"#utility.yul\":2624:2630   */\n      dup3\n        /* \"#utility.yul\":2621:2651   */\n      gt\n        /* \"#utility.yul\":2618:2674   */\n      iszero\n      tag_231\n      jumpi\n        /* \"#utility.yul\":2654:2672   */\n      tag_232\n      tag_142\n      jump\t// in\n    tag_232:\n        /* \"#utility.yul\":2618:2674   */\n    tag_231:\n        /* \"#utility.yul\":2692:2721   */\n      tag_233\n        /* \"#utility.yul\":2714:2720   */\n      dup3\n        /* \"#utility.yul\":2692:2721   */\n      tag_141\n      jump\t// in\n    tag_233:\n        /* \"#utility.yul\":2684:2721   */\n      swap1\n      pop\n        /* \"#utility.yul\":2776:2780   */\n      0x20\n        /* \"#utility.yul\":2770:2774   */\n      dup2\n        /* \"#utility.yul\":2766:2781   */\n      add\n        /* \"#utility.yul\":2758:2781   */\n      swap1\n      pop\n        /* \"#utility.yul\":2480:2788   */\n      swap2\n      swap1\n      pop\n      jump\t// out\n        /* \"#utility.yul\":2794:2940   */\n    tag_146:\n        /* \"#utility.yul\":2891:2897   */\n      dup3\n        /* \"#utility.yul\":2886:2889   */\n      dup2\n        /* \"#utility.yul\":2881:2884   */\n      dup4\n        /* \"#utility.yul\":2868:2898   */\n      calldatacopy\n        /* \"#utility.yul\":2932:2933   */\n      0x00\n        /* \"#utility.yul\":2923:2929   */\n      dup4\n        /* \"#utility.yul\":2918:2921   */\n      dup4\n        /* \"#utility.yul\":2914:2930   */\n      add\n        /* \"#utility.yul\":2907:2934   */\n      mstore\n        /* \"#utility.yul\":2794:2940   */\n      pop\n      pop\n      pop\n      jump\t// out\n        /* \"#utility.yul\":2946:3371   */\n    tag_147:\n        /* \"#utility.yul\":3024:3029   */\n      0x00\n        /* \"#utility.yul\":3049:3115   */\n      tag_236\n        /* \"#utility.yul\":3065:3114   */\n      tag_237\n        /* \"#utility.yul\":3107:3113   */\n      dup5\n        /* \"#utility.yul\":3065:3114   */\n      tag_145\n      jump\t// in\n    tag_237:\n        /* \"#utility.yul\":3049:3115   */\n      tag_144\n      jump\t// in\n    tag_236:\n        /* \"#utility.yul\":3040:3115   */\n      swap1\n      pop\n        /* \"#utility.yul\":3138:3144   */\n      dup3\n        /* \"#utility.yul\":3131:3136   */\n      dup2\n        /* \"#utility.yul\":3124:3145   */\n      mstore\n        /* \"#utility.yul\":3176:3180   */\n      0x20\n        /* \"#utility.yul\":3169:3174   */\n      dup2\n        /* \"#utility.yul\":3165:3181   */\n      add\n        /* \"#utility.yul\":3214:3217   */\n      dup5\n        /* \"#utility.yul\":3205:3211   */\n      dup5\n        /* \"#utility.yul\":3200:3203   */\n      dup5\n        /* \"#utility.yul\":3196:3212   */\n      add\n        /* \"#utility.yul\":3193:3218   */\n      gt\n        /* \"#utility.yul\":3190:3302   */\n      iszero\n      tag_238\n      jumpi\n        /* \"#utility.yul\":3221:3300   */\n      tag_239\n      tag_140\n      jump\t// in\n    tag_239:\n        /* \"#utility.yul\":3190:3302   */\n    tag_238:\n        /* \"#utility.yul\":3311:3365   */\n      tag_240\n        /* \"#utility.yul\":3358:3364   */\n      dup5\n        /* \"#utility.yul\":3353:3356   */\n      dup3\n        /* \"#utility.yul\":3348:3351   */\n      dup6\n        /* \"#utility.yul\":3311:3365   */\n      tag_146\n      jump\t// in\n    tag_240:\n        /* \"#utility.yul\":3030:3371   */\n      pop\n        /* \"#utility.yul\":2946:3371   */\n      swap4\n      swap3\n      pop\n      pop\n      pop\n      jump\t// out\n        /* \"#utility.yul\":3391:3731   */\n    tag_148:\n        /* \"#utility.yul\":3447:3452   */\n      0x00\n        /* \"#utility.yul\":3496:3499   */\n      dup3\n        /* \"#utility.yul\":3489:3493   */\n      0x1f\n        /* \"#utility.yul\":3481:3487   */\n      dup4\n        /* \"#utility.yul\":3477:3494   */\n      add\n        /* \"#utility.yul\":3473:3500   */\n      slt\n        /* \"#utility.yul\":3463:3585   */\n      tag_242\n      jumpi\n        /* \"#utility.yul\":3504:3583   */\n      tag_243\n      tag_139\n      jump\t// in\n    tag_243:\n        /* \"#utility.yul\":3463:3585   */\n    tag_242:\n        /* \"#utility.yul\":3621:3627   */\n      dup2\n        /* \"#utility.yul\":3608:3628   */\n      calldataload\n        /* \"#utility.yul\":3646:3725   */\n      tag_244\n        /* \"#utility.yul\":3721:3724   */\n      dup5\n        /* \"#utility.yul\":3713:3719   */\n      dup3\n        /* \"#utility.yul\":3706:3710   */\n      0x20\n        /* \"#utility.yul\":3698:3704   */\n      dup7\n        /* \"#utility.yul\":3694:3711   */\n      add\n        /* \"#utility.yul\":3646:3725   */\n      tag_147\n      jump\t// in\n    tag_244:\n        /* \"#utility.yul\":3637:3725   */\n      swap2\n      pop\n        /* \"#utility.yul\":3453:3731   */\n      pop\n        /* \"#utility.yul\":3391:3731   */\n      swap3\n      swap2\n      pop\n      pop\n      jump\t// out\n        /* \"#utility.yul\":3737:3814   */\n    tag_149:\n        /* \"#utility.yul\":3774:3781   */\n      0x00\n        /* \"#utility.yul\":3803:3808   */\n      dup2\n        /* \"#utility.yul\":3792:3808   */\n      swap1\n      pop\n        /* \"#utility.yul\":3737:3814   */\n      swap2\n      swap1\n      pop\n      jump\t// out\n        /* \"#utility.yul\":3820:3942   */\n    tag_150:\n        /* \"#utility.yul\":3893:3917   */\n      tag_247\n        /* \"#utility.yul\":3911:3916   */\n      dup2\n        /* \"#utility.yul\":3893:3917   */\n      tag_149\n      jump\t// in\n    tag_247:\n        /* \"#utility.yul\":3886:3891   */\n      dup2\n        /* \"#utility.yul\":3883:3918   */\n      eq\n        /* \"#utility.yul\":3873:3936   */\n      tag_248\n      jumpi\n        /* \"#utility.yul\":3932:3933   */\n      0x00\n        /* \"#utility.yul\":3929:3930   */\n      dup1\n        /* \"#utility.yul\":3922:3934   */\n      revert\n        /* \"#utility.yul\":3873:3936   */\n    tag_248:\n        /* \"#utility.yul\":3820:3942   */\n      pop\n      jump\t// out\n        /* \"#utility.yul\":3948:4087   */\n    tag_151:\n        /* \"#utility.yul\":3994:3999   */\n      0x00\n        /* \"#utility.yul\":4032:4038   */\n      dup2\n        /* \"#utility.yul\":4019:4039   */\n      calldataload\n        /* \"#utility.yul\":4010:4039   */\n      swap1\n      pop\n        /* \"#utility.yul\":4048:4081   */\n      tag_250\n        /* \"#utility.yul\":4075:4080   */\n      dup2\n        /* \"#utility.yul\":4048:4081   */\n      tag_150\n      jump\t// in\n    tag_250:\n        /* \"#utility.yul\":3948:4087   */\n      swap3\n      swap2\n      pop\n      pop\n      jump\t// out\n        /* \"#utility.yul\":4093:4747   */\n    tag_24:\n        /* \"#utility.yul\":4171:4177   */\n      0x00\n        /* \"#utility.yul\":4179:4185   */\n      dup1\n        /* \"#utility.yul\":4228:4230   */\n      0x40\n        /* \"#utility.yul\":4216:4225   */\n      dup4\n        /* \"#utility.yul\":4207:4214   */\n      dup6\n        /* \"#utility.yul\":4203:4226   */\n      sub\n        /* \"#utility.yul\":4199:4231   */\n      slt\n        /* \"#utility.yul\":4196:4315   */\n      iszero\n      tag_252\n      jumpi\n        /* \"#utility.yul\":4234:4313   */\n      tag_253\n      tag_132\n      jump\t// in\n    tag_253:\n        /* \"#utility.yul\":4196:4315   */\n    tag_252:\n        /* \"#utility.yul\":4382:4383   */\n      0x00\n        /* \"#utility.yul\":4371:4380   */\n      dup4\n        /* \"#utility.yul\":4367:4384   */\n      add\n        /* \"#utility.yul\":4354:4385   */\n      calldataload\n        /* \"#utility.yul\":4412:4430   */\n      0xffffffffffffffff\n        /* \"#utility.yul\":4404:4410   */\n      dup2\n        /* \"#utility.yul\":4401:4431   */\n      gt\n        /* \"#utility.yul\":4398:4515   */\n      iszero\n      tag_254\n      jumpi\n        /* \"#utility.yul\":4434:4513   */\n      tag_255\n      tag_133\n      jump\t// in\n    tag_255:\n        /* \"#utility.yul\":4398:4515   */\n    tag_254:\n        /* \"#utility.yul\":4539:4602   */\n      tag_256\n        /* \"#utility.yul\":4594:4601   */\n      dup6\n        /* \"#utility.yul\":4585:4591   */\n      dup3\n        /* \"#utility.yul\":4574:4583   */\n      dup7\n        /* \"#utility.yul\":4570:4592   */\n      add\n        /* \"#utility.yul\":4539:4602   */\n      tag_148\n      jump\t// in\n    tag_256:\n        /* \"#utility.yul\":4529:4602   */\n      swap3\n      pop\n        /* \"#utility.yul\":4325:4612   */\n      pop\n        /* \"#utility.yul\":4651:4653   */\n      0x20\n        /* \"#utility.yul\":4677:4730   */\n      tag_257\n        /* \"#utility.yul\":4722:4729   */\n      dup6\n        /* \"#utility.yul\":4713:4719   */\n      dup3\n        /* \"#utility.yul\":4702:4711   */\n      dup7\n        /* \"#utility.yul\":4698:4720   */\n      add\n        /* \"#utility.yul\":4677:4730   */\n      tag_151\n      jump\t// in\n    tag_257:\n        /* \"#utility.yul\":4667:4730   */\n      swap2\n      pop\n        /* \"#utility.yul\":4622:4740   */\n      pop\n        /* \"#utility.yul\":4093:4747   */\n      swap3\n      pop\n      swap3\n      swap1\n      pop\n      jump\t// out\n        /* \"#utility.yul\":4753:4871   */\n    tag_152:\n        /* \"#utility.yul\":4840:4864   */\n      tag_259\n        /* \"#utility.yul\":4858:4863   */\n      dup2\n        /* \"#utility.yul\":4840:4864   */\n      tag_149\n      jump\t// in\n    tag_259:\n        /* \"#utility.yul\":4835:4838   */\n      dup3\n        /* \"#utility.yul\":4828:4865   */\n      mstore\n        /* \"#utility.yul\":4753:4871   */\n      pop\n      pop\n      jump\t// out\n        /* \"#utility.yul\":4877:5099   */\n    tag_27:\n        /* \"#utility.yul\":4970:4974   */\n      0x00\n        /* \"#utility.yul\":5008:5010   */\n      0x20\n        /* \"#utility.yul\":4997:5006   */\n      dup3\n        /* \"#utility.yul\":4993:5011   */\n      add\n        /* \"#utility.yul\":4985:5011   */\n      swap1\n      pop\n        /* \"#utility.yul\":5021:5092   */\n      tag_261\n        /* \"#utility.yul\":5089:5090   */\n      0x00\n        /* \"#utility.yul\":5078:5087   */\n      dup4\n        /* \"#utility.yul\":5074:5091   */\n      add\n        /* \"#utility.yul\":5065:5071   */\n      dup5\n        /* \"#utility.yul\":5021:5092   */\n      tag_152\n      jump\t// in\n    tag_261:\n        /* \"#utility.yul\":4877:5099   */\n      swap3\n      swap2\n      pop\n      pop\n      jump\t// out\n        /* \"#utility.yul\":5105:5434   */\n    tag_30:\n        /* \"#utility.yul\":5164:5170   */\n      0x00\n        /* \"#utility.yul\":5213:5215   */\n      0x20\n        /* \"#utility.yul\":5201:5210   */\n      dup3\n        /* \"#utility.yul\":5192:5199   */\n      dup5\n        /* \"#utility.yul\":5188:5211   */\n      sub\n        /* \"#utility.yul\":5184:5216   */\n      slt\n        /* \"#utility.yul\":5181:5300   */\n      iszero\n      tag_263\n      jumpi\n        /* \"#utility.yul\":5219:5298   */\n      tag_264\n      tag_132\n      jump\t// in\n    tag_264:\n        /* \"#utility.yul\":5181:5300   */\n    tag_263:\n        /* \"#utility.yul\":5339:5340   */\n      0x00\n        /* \"#utility.yul\":5364:5417   */\n      tag_265\n        /* \"#utility.yul\":5409:5416   */\n      dup5\n        /* \"#utility.yul\":5400:5406   */\n      dup3\n        /* \"#utility.yul\":5389:5398   */\n      dup6\n        /* \"#utility.yul\":5385:5407   */\n      add\n        /* \"#utility.yul\":5364:5417   */\n      tag_151\n      jump\t// in\n    tag_265:\n        /* \"#utility.yul\":5354:5417   */\n      swap2\n      pop\n        /* \"#utility.yul\":5310:5427   */\n      pop\n        /* \"#utility.yul\":5105:5434   */\n      swap3\n      swap2\n      pop\n      pop\n      jump\t// out\n        /* \"#utility.yul\":5440:5539   */\n    tag_153:\n        /* \"#utility.yul\":5492:5498   */\n      0x00\n        /* \"#utility.yul\":5526:5531   */\n      dup2\n        /* \"#utility.yul\":5520:5532   */\n      mload\n        /* \"#utility.yul\":5510:5532   */\n      swap1\n      pop\n        /* \"#utility.yul\":5440:5539   */\n      swap2\n      swap1\n      pop\n      jump\t// out\n        /* \"#utility.yul\":5545:5714   */\n    tag_154:\n        /* \"#utility.yul\":5629:5640   */\n      0x00\n        /* \"#utility.yul\":5663:5669   */\n      dup3\n        /* \"#utility.yul\":5658:5661   */\n      dup3\n        /* \"#utility.yul\":5651:5670   */\n      mstore\n        /* \"#utility.yul\":5703:5707   */\n      0x20\n        /* \"#utility.yul\":5698:5701   */\n      dup3\n        /* \"#utility.yul\":5694:5708   */\n      add\n        /* \"#utility.yul\":5679:5708   */\n      swap1\n      pop\n        /* \"#utility.yul\":5545:5714   */\n      swap3\n      swap2\n      pop\n      pop\n      jump\t// out\n        /* \"#utility.yul\":5720:5966   */\n    tag_155:\n        /* \"#utility.yul\":5801:5802   */\n      0x00\n        /* \"#utility.yul\":5811:5924   */\n    tag_269:\n        /* \"#utility.yul\":5825:5831   */\n      dup4\n        /* \"#utility.yul\":5822:5823   */\n      dup2\n        /* \"#utility.yul\":5819:5832   */\n      lt\n        /* \"#utility.yul\":5811:5924   */\n      iszero\n      tag_271\n      jumpi\n        /* \"#utility.yul\":5910:5911   */\n      dup1\n        /* \"#utility.yul\":5905:5908   */\n      dup3\n        /* \"#utility.yul\":5901:5912   */\n      add\n        /* \"#utility.yul\":5895:5913   */\n      mload\n        /* \"#utility.yul\":5891:5892   */\n      dup2\n        /* \"#utility.yul\":5886:5889   */\n      dup5\n        /* \"#utility.yul\":5882:5893   */\n      add\n        /* \"#utility.yul\":5875:5914   */\n      mstore\n        /* \"#utility.yul\":5847:5849   */\n      0x20\n        /* \"#utility.yul\":5844:5845   */\n      dup2\n        /* \"#utility.yul\":5840:5850   */\n      add\n        /* \"#utility.yul\":5835:5850   */\n      swap1\n      pop\n        /* \"#utility.yul\":5811:5924   */\n      jump(tag_269)\n    tag_271:\n        /* \"#utility.yul\":5958:5959   */\n      0x00\n        /* \"#utility.yul\":5949:5955   */\n      dup5\n        /* \"#utility.yul\":5944:5947   */\n      dup5\n        /* \"#utility.yul\":5940:5956   */\n      add\n        /* \"#utility.yul\":5933:5960   */\n      mstore\n        /* \"#utility.yul\":5782:5966   */\n      pop\n        /* \"#utility.yul\":5720:5966   */\n      pop\n      pop\n      pop\n      jump\t// out\n        /* \"#utility.yul\":5972:6349   */\n    tag_156:\n        /* \"#utility.yul\":6060:6063   */\n      0x00\n        /* \"#utility.yul\":6088:6127   */\n      tag_273\n        /* \"#utility.yul\":6121:6126   */\n      dup3\n        /* \"#utility.yul\":6088:6127   */\n      tag_153\n      jump\t// in\n    tag_273:\n        /* \"#utility.yul\":6143:6214   */\n      tag_274\n        /* \"#utility.yul\":6207:6213   */\n      dup2\n        /* \"#utility.yul\":6202:6205   */\n      dup6\n        /* \"#utility.yul\":6143:6214   */\n      tag_154\n      jump\t// in\n    tag_274:\n        /* \"#utility.yul\":6136:6214   */\n      swap4\n      pop\n        /* \"#utility.yul\":6223:6288   */\n      tag_275\n        /* \"#utility.yul\":6281:6287   */\n      dup2\n        /* \"#utility.yul\":6276:6279   */\n      dup6\n        /* \"#utility.yul\":6269:6273   */\n      0x20\n        /* \"#utility.yul\":6262:6267   */\n      dup7\n        /* \"#utility.yul\":6258:6274   */\n      add\n        /* \"#utility.yul\":6223:6288   */\n      tag_155\n      jump\t// in\n    tag_275:\n        /* \"#utility.yul\":6313:6342   */\n      tag_276\n        /* \"#utility.yul\":6335:6341   */\n      dup2\n        /* \"#utility.yul\":6313:6342   */\n      tag_141\n      jump\t// in\n    tag_276:\n        /* \"#utility.yul\":6308:6311   */\n      dup5\n        /* \"#utility.yul\":6304:6343   */\n      add\n        /* \"#utility.yul\":6297:6343   */\n      swap2\n      pop\n        /* \"#utility.yul\":6064:6349   */\n      pop\n        /* \"#utility.yul\":5972:6349   */\n      swap3\n      swap2\n      pop\n      pop\n      jump\t// out\n        /* \"#utility.yul\":6355:6668   */\n    tag_33:\n        /* \"#utility.yul\":6468:6472   */\n      0x00\n        /* \"#utility.yul\":6506:6508   */\n      0x20\n        /* \"#utility.yul\":6495:6504   */\n      dup3\n        /* \"#utility.yul\":6491:6509   */\n      add\n        /* \"#utility.yul\":6483:6509   */\n      swap1\n      pop\n        /* \"#utility.yul\":6555:6564   */\n      dup2\n        /* \"#utility.yul\":6549:6553   */\n      dup2\n        /* \"#utility.yul\":6545:6565   */\n      sub\n        /* \"#utility.yul\":6541:6542   */\n      0x00\n        /* \"#utility.yul\":6530:6539   */\n      dup4\n        /* \"#utility.yul\":6526:6543   */\n      add\n        /* \"#utility.yul\":6519:6566   */\n      mstore\n        /* \"#utility.yul\":6583:6661   */\n      tag_278\n        /* \"#utility.yul\":6656:6660   */\n      dup2\n        /* \"#utility.yul\":6647:6653   */\n      dup5\n        /* \"#utility.yul\":6583:6661   */\n      tag_156\n      jump\t// in\n    tag_278:\n        /* \"#utility.yul\":6575:6661   */\n      swap1\n      pop\n        /* \"#utility.yul\":6355:6668   */\n      swap3\n      swap2\n      pop\n      pop\n      jump\t// out\n        /* \"#utility.yul\":6674:7183   */\n    tag_36:\n        /* \"#utility.yul\":6743:6749   */\n      0x00\n        /* \"#utility.yul\":6792:6794   */\n      0x20\n        /* \"#utility.yul\":6780:6789   */\n      dup3\n        /* \"#utility.yul\":6771:6778   */\n      dup5\n        /* \"#utility.yul\":6767:6790   */\n      sub\n        /* \"#utility.yul\":6763:6795   */\n      slt\n        /* \"#utility.yul\":6760:6879   */\n      iszero\n      tag_280\n      jumpi\n        /* \"#utility.yul\":6798:6877   */\n      tag_281\n      tag_132\n      jump\t// in\n    tag_281:\n        /* \"#utility.yul\":6760:6879   */\n    tag_280:\n        /* \"#utility.yul\":6946:6947   */\n      0x00\n        /* \"#utility.yul\":6935:6944   */\n      dup3\n        /* \"#utility.yul\":6931:6948   */\n      add\n        /* \"#utility.yul\":6918:6949   */\n      calldataload\n        /* \"#utility.yul\":6976:6994   */\n      0xffffffffffffffff\n        /* \"#utility.yul\":6968:6974   */\n      dup2\n        /* \"#utility.yul\":6965:6995   */\n      gt\n        /* \"#utility.yul\":6962:7079   */\n      iszero\n      tag_282\n      jumpi\n        /* \"#utility.yul\":6998:7077   */\n      tag_283\n      tag_133\n      jump\t// in\n    tag_283:\n        /* \"#utility.yul\":6962:7079   */\n    tag_282:\n        /* \"#utility.yul\":7103:7166   */\n      tag_284\n        /* \"#utility.yul\":7158:7165   */\n      dup5\n        /* \"#utility.yul\":7149:7155   */\n      dup3\n        /* \"#utility.yul\":7138:7147   */\n      dup6\n        /* \"#utility.yul\":7134:7156   */\n      add\n        /* \"#utility.yul\":7103:7166   */\n      tag_148\n      jump\t// in\n    tag_284:\n        /* \"#utility.yul\":7093:7166   */\n      swap2\n      pop\n        /* \"#utility.yul\":6889:7176   */\n      pop\n        /* \"#utility.yul\":6674:7183   */\n      swap3\n      swap2\n      pop\n      pop\n      jump\t// out\n        /* \"#utility.yul\":7189:7315   */\n    tag_157:\n        /* \"#utility.yul\":7226:7233   */\n      0x00\n        /* \"#utility.yul\":7266:7308   */\n      0xffffffffffffffffffffffffffffffffffffffff\n        /* \"#utility.yul\":7259:7264   */\n      dup3\n        /* \"#utility.yul\":7255:7309   */\n      and\n        /* \"#utility.yul\":7244:7309   */\n      swap1\n      pop\n        /* \"#utility.yul\":7189:7315   */\n      swap2\n      swap1\n      pop\n      jump\t// out\n        /* \"#utility.yul\":7321:7417   */\n    tag_158:\n        /* \"#utility.yul\":7358:7365   */\n      0x00\n        /* \"#utility.yul\":7387:7411   */\n      tag_287\n        /* \"#utility.yul\":7405:7410   */\n      dup3\n        /* \"#utility.yul\":7387:7411   */\n      tag_157\n      jump\t// in\n    tag_287:\n        /* \"#utility.yul\":7376:7411   */\n      swap1\n      pop\n        /* \"#utility.yul\":7321:7417   */\n      swap2\n      swap1\n      pop\n      jump\t// out\n        /* \"#utility.yul\":7423:7541   */\n    tag_159:\n        /* \"#utility.yul\":7510:7534   */\n      tag_289\n        /* \"#utility.yul\":7528:7533   */\n      dup2\n        /* \"#utility.yul\":7510:7534   */\n      tag_158\n      jump\t// in\n    tag_289:\n        /* \"#utility.yul\":7505:7508   */\n      dup3\n        /* \"#utility.yul\":7498:7535   */\n      mstore\n        /* \"#utility.yul\":7423:7541   */\n      pop\n      pop\n      jump\t// out\n        /* \"#utility.yul\":7547:7769   */\n    tag_42:\n        /* \"#utility.yul\":7640:7644   */\n      0x00\n        /* \"#utility.yul\":7678:7680   */\n      0x20\n        /* \"#utility.yul\":7667:7676   */\n      dup3\n        /* \"#utility.yul\":7663:7681   */\n      add\n        /* \"#utility.yul\":7655:7681   */\n      swap1\n      pop\n        /* \"#utility.yul\":7691:7762   */\n      tag_291\n        /* \"#utility.yul\":7759:7760   */\n      0x00\n        /* \"#utility.yul\":7748:7757   */\n      dup4\n        /* \"#utility.yul\":7744:7761   */\n      add\n        /* \"#utility.yul\":7735:7741   */\n      dup5\n        /* \"#utility.yul\":7691:7762   */\n      tag_159\n      jump\t// in\n    tag_291:\n        /* \"#utility.yul\":7547:7769   */\n      swap3\n      swap2\n      pop\n      pop\n      jump\t// out\n        /* \"#utility.yul\":7775:8574   */\n    tag_45:\n        /* \"#utility.yul\":7862:7868   */\n      0x00\n        /* \"#utility.yul\":7870:7876   */\n      dup1\n        /* \"#utility.yul\":7878:7884   */\n      0x00\n        /* \"#utility.yul\":7927:7929   */\n      0x60\n        /* \"#utility.yul\":7915:7924   */\n      dup5\n        /* \"#utility.yul\":7906:7913   */\n      dup7\n        /* \"#utility.yul\":7902:7925   */\n      sub\n        /* \"#utility.yul\":7898:7930   */\n      slt\n        /* \"#utility.yul\":7895:8014   */\n      iszero\n      tag_293\n      jumpi\n        /* \"#utility.yul\":7933:8012   */\n      tag_294\n      tag_132\n      jump\t// in\n    tag_294:\n        /* \"#utility.yul\":7895:8014   */\n    tag_293:\n        /* \"#utility.yul\":8081:8082   */\n      0x00\n        /* \"#utility.yul\":8070:8079   */\n      dup5\n        /* \"#utility.yul\":8066:8083   */\n      add\n        /* \"#utility.yul\":8053:8084   */\n      calldataload\n        /* \"#utility.yul\":8111:8129   */\n      0xffffffffffffffff\n        /* \"#utility.yul\":8103:8109   */\n      dup2\n        /* \"#utility.yul\":8100:8130   */\n      gt\n        /* \"#utility.yul\":8097:8214   */\n      iszero\n      tag_295\n      jumpi\n        /* \"#utility.yul\":8133:8212   */\n      tag_296\n      tag_133\n      jump\t// in\n    tag_296:\n        /* \"#utility.yul\":8097:8214   */\n    tag_295:\n        /* \"#utility.yul\":8238:8301   */\n      tag_297\n        /* \"#utility.yul\":8293:8300   */\n      dup7\n        /* \"#utility.yul\":8284:8290   */\n      dup3\n        /* \"#utility.yul\":8273:8282   */\n      dup8\n        /* \"#utility.yul\":8269:8291   */\n      add\n        /* \"#utility.yul\":8238:8301   */\n      tag_148\n      jump\t// in\n    tag_297:\n        /* \"#utility.yul\":8228:8301   */\n      swap4\n      pop\n        /* \"#utility.yul\":8024:8311   */\n      pop\n        /* \"#utility.yul\":8350:8352   */\n      0x20\n        /* \"#utility.yul\":8376:8429   */\n      tag_298\n        /* \"#utility.yul\":8421:8428   */\n      dup7\n        /* \"#utility.yul\":8412:8418   */\n      dup3\n        /* \"#utility.yul\":8401:8410   */\n      dup8\n        /* \"#utility.yul\":8397:8419   */\n      add\n        /* \"#utility.yul\":8376:8429   */\n      tag_151\n      jump\t// in\n    tag_298:\n        /* \"#utility.yul\":8366:8429   */\n      swap3\n      pop\n        /* \"#utility.yul\":8321:8439   */\n      pop\n        /* \"#utility.yul\":8478:8480   */\n      0x40\n        /* \"#utility.yul\":8504:8557   */\n      tag_299\n        /* \"#utility.yul\":8549:8556   */\n      dup7\n        /* \"#utility.yul\":8540:8546   */\n      dup3\n        /* \"#utility.yul\":8529:8538   */\n      dup8\n        /* \"#utility.yul\":8525:8547   */\n      add\n        /* \"#utility.yul\":8504:8557   */\n      tag_151\n      jump\t// in\n    tag_299:\n        /* \"#utility.yul\":8494:8557   */\n      swap2\n      pop\n        /* \"#utility.yul\":8449:8567   */\n      pop\n        /* \"#utility.yul\":7775:8574   */\n      swap3\n      pop\n      swap3\n      pop\n      swap3\n      jump\t// out\n        /* \"#utility.yul\":8580:9234   */\n    tag_49:\n        /* \"#utility.yul\":8658:8664   */\n      0x00\n        /* \"#utility.yul\":8666:8672   */\n      dup1\n        /* \"#utility.yul\":8715:8717   */\n      0x40\n        /* \"#utility.yul\":8703:8712   */\n      dup4\n        /* \"#utility.yul\":8694:8701   */\n      dup6\n        /* \"#utility.yul\":8690:8713   */\n      sub\n        /* \"#utility.yul\":8686:8718   */\n      slt\n        /* \"#utility.yul\":8683:8802   */\n      iszero\n      tag_301\n      jumpi\n        /* \"#utility.yul\":8721:8800   */\n      tag_302\n      tag_132\n      jump\t// in\n    tag_302:\n        /* \"#utility.yul\":8683:8802   */\n    tag_301:\n        /* \"#utility.yul\":8841:8842   */\n      0x00\n        /* \"#utility.yul\":8866:8919   */\n      tag_303\n        /* \"#utility.yul\":8911:8918   */\n      dup6\n        /* \"#utility.yul\":8902:8908   */\n      dup3\n        /* \"#utility.yul\":8891:8900   */\n      dup7\n        /* \"#utility.yul\":8887:8909   */\n      add\n        /* \"#utility.yul\":8866:8919   */\n      tag_151\n      jump\t// in\n    tag_303:\n        /* \"#utility.yul\":8856:8919   */\n      swap3\n      pop\n        /* \"#utility.yul\":8812:8929   */\n      pop\n        /* \"#utility.yul\":8996:8998   */\n      0x20\n        /* \"#utility.yul\":8985:8994   */\n      dup4\n        /* \"#utility.yul\":8981:8999   */\n      add\n        /* \"#utility.yul\":8968:9000   */\n      calldataload\n        /* \"#utility.yul\":9027:9045   */\n      0xffffffffffffffff\n        /* \"#utility.yul\":9019:9025   */\n      dup2\n        /* \"#utility.yul\":9016:9046   */\n      gt\n        /* \"#utility.yul\":9013:9130   */\n      iszero\n      tag_304\n      jumpi\n        /* \"#utility.yul\":9049:9128   */\n      tag_305\n      tag_133\n      jump\t// in\n    tag_305:\n        /* \"#utility.yul\":9013:9130   */\n    tag_304:\n        /* \"#utility.yul\":9154:9217   */\n      tag_306\n        /* \"#utility.yul\":9209:9216   */\n      dup6\n        /* \"#utility.yul\":9200:9206   */\n      dup3\n        /* \"#utility.yul\":9189:9198   */\n      dup7\n        /* \"#utility.yul\":9185:9207   */\n      add\n        /* \"#utility.yul\":9154:9217   */\n      tag_148\n      jump\t// in\n    tag_306:\n        /* \"#utility.yul\":9144:9217   */\n      swap2\n      pop\n        /* \"#utility.yul\":8939:9227   */\n      pop\n        /* \"#utility.yul\":8580:9234   */\n      swap3\n      pop\n      swap3\n      swap1\n      pop\n      jump\t// out\n        /* \"#utility.yul\":9240:9362   */\n    tag_160:\n        /* \"#utility.yul\":9313:9337   */\n      tag_308\n        /* \"#utility.yul\":9331:9336   */\n      dup2\n        /* \"#utility.yul\":9313:9337   */\n      tag_158\n      jump\t// in\n    tag_308:\n        /* \"#utility.yul\":9306:9311   */\n      dup2\n        /* \"#utility.yul\":9303:9338   */\n      eq\n        /* \"#utility.yul\":9293:9356   */\n      tag_309\n      jumpi\n        /* \"#utility.yul\":9352:9353   */\n      0x00\n        /* \"#utility.yul\":9349:9350   */\n      dup1\n        /* \"#utility.yul\":9342:9354   */\n      revert\n        /* \"#utility.yul\":9293:9356   */\n    tag_309:\n        /* \"#utility.yul\":9240:9362   */\n      pop\n      jump\t// out\n        /* \"#utility.yul\":9368:9507   */\n    tag_161:\n        /* \"#utility.yul\":9414:9419   */\n      0x00\n        /* \"#utility.yul\":9452:9458   */\n      dup2\n        /* \"#utility.yul\":9439:9459   */\n      calldataload\n        /* \"#utility.yul\":9430:9459   */\n      swap1\n      pop\n        /* \"#utility.yul\":9468:9501   */\n      tag_311\n        /* \"#utility.yul\":9495:9500   */\n      dup2\n        /* \"#utility.yul\":9468:9501   */\n      tag_160\n      jump\t// in\n    tag_311:\n        /* \"#utility.yul\":9368:9507   */\n      swap3\n      swap2\n      pop\n      pop\n      jump\t// out\n        /* \"#utility.yul\":9513:9842   */\n    tag_56:\n        /* \"#utility.yul\":9572:9578   */\n      0x00\n        /* \"#utility.yul\":9621:9623   */\n      0x20\n        /* \"#utility.yul\":9609:9618   */\n      dup3\n        /* \"#utility.yul\":9600:9607   */\n      dup5\n        /* \"#utility.yul\":9596:9619   */\n      sub\n        /* \"#utility.yul\":9592:9624   */\n      slt\n        /* \"#utility.yul\":9589:9708   */\n      iszero\n      tag_313\n      jumpi\n        /* \"#utility.yul\":9627:9706   */\n      tag_314\n      tag_132\n      jump\t// in\n    tag_314:\n        /* \"#utility.yul\":9589:9708   */\n    tag_313:\n        /* \"#utility.yul\":9747:9748   */\n      0x00\n        /* \"#utility.yul\":9772:9825   */\n      tag_315\n        /* \"#utility.yul\":9817:9824   */\n      dup5\n        /* \"#utility.yul\":9808:9814   */\n      dup3\n        /* \"#utility.yul\":9797:9806   */\n      dup6\n        /* \"#utility.yul\":9793:9815   */\n      add\n        /* \"#utility.yul\":9772:9825   */\n      tag_161\n      jump\t// in\n    tag_315:\n        /* \"#utility.yul\":9762:9825   */\n      swap2\n      pop\n        /* \"#utility.yul\":9718:9835   */\n      pop\n        /* \"#utility.yul\":9513:9842   */\n      swap3\n      swap2\n      pop\n      pop\n      jump\t// out\n        /* \"#utility.yul\":9848:10083   */\n    tag_162:\n        /* \"#utility.yul\":9988:10022   */\n      0x43726561746f72206f662061737369676e6d656e74206973206e6f7420616e20\n        /* \"#utility.yul\":9984:9985   */\n      0x00\n        /* \"#utility.yul\":9976:9982   */\n      dup3\n        /* \"#utility.yul\":9972:9986   */\n      add\n        /* \"#utility.yul\":9965:10023   */\n      mstore\n        /* \"#utility.yul\":10057:10075   */\n      0x696e7374727563746f72206f7220544100000000000000000000000000000000\n        /* \"#utility.yul\":10052:10054   */\n      0x20\n        /* \"#utility.yul\":10044:10050   */\n      dup3\n        /* \"#utility.yul\":10040:10055   */\n      add\n        /* \"#utility.yul\":10033:10076   */\n      mstore\n        /* \"#utility.yul\":9848:10083   */\n      pop\n      jump\t// out\n        /* \"#utility.yul\":10089:10455   */\n    tag_163:\n        /* \"#utility.yul\":10231:10234   */\n      0x00\n        /* \"#utility.yul\":10252:10319   */\n      tag_318\n        /* \"#utility.yul\":10316:10318   */\n      0x30\n        /* \"#utility.yul\":10311:10314   */\n      dup4\n        /* \"#utility.yul\":10252:10319   */\n      tag_154\n      jump\t// in\n    tag_318:\n        /* \"#utility.yul\":10245:10319   */\n      swap2\n      pop\n        /* \"#utility.yul\":10328:10421   */\n      tag_319\n        /* \"#utility.yul\":10417:10420   */\n      dup3\n        /* \"#utility.yul\":10328:10421   */\n      tag_162\n      jump\t// in\n    tag_319:\n        /* \"#utility.yul\":10446:10448   */\n      0x40\n        /* \"#utility.yul\":10441:10444   */\n      dup3\n        /* \"#utility.yul\":10437:10449   */\n      add\n        /* \"#utility.yul\":10430:10449   */\n      swap1\n      pop\n        /* \"#utility.yul\":10089:10455   */\n      swap2\n      swap1\n      pop\n      jump\t// out\n        /* \"#utility.yul\":10461:10880   */\n    tag_75:\n        /* \"#utility.yul\":10627:10631   */\n      0x00\n        /* \"#utility.yul\":10665:10667   */\n      0x20\n        /* \"#utility.yul\":10654:10663   */\n      dup3\n        /* \"#utility.yul\":10650:10668   */\n      add\n        /* \"#utility.yul\":10642:10668   */\n      swap1\n      pop\n        /* \"#utility.yul\":10714:10723   */\n      dup2\n        /* \"#utility.yul\":10708:10712   */\n      dup2\n        /* \"#utility.yul\":10704:10724   */\n      sub\n        /* \"#utility.yul\":10700:10701   */\n      0x00\n        /* \"#utility.yul\":10689:10698   */\n      dup4\n        /* \"#utility.yul\":10685:10702   */\n      add\n        /* \"#utility.yul\":10678:10725   */\n      mstore\n        /* \"#utility.yul\":10742:10873   */\n      tag_321\n        /* \"#utility.yul\":10868:10872   */\n      dup2\n        /* \"#utility.yul\":10742:10873   */\n      tag_163\n      jump\t// in\n    tag_321:\n        /* \"#utility.yul\":10734:10873   */\n      swap1\n      pop\n        /* \"#utility.yul\":10461:10880   */\n      swap2\n      swap1\n      pop\n      jump\t// out\n        /* \"#utility.yul\":10886:11064   */\n    tag_164:\n        /* \"#utility.yul\":11026:11056   */\n      0x6d61782073636f72652063616e6e6f74206265206e6567617469766500000000\n        /* \"#utility.yul\":11022:11023   */\n      0x00\n        /* \"#utility.yul\":11014:11020   */\n      dup3\n        /* \"#utility.yul\":11010:11024   */\n      add\n        /* \"#utility.yul\":11003:11057   */\n      mstore\n        /* \"#utility.yul\":10886:11064   */\n      pop\n      jump\t// out\n        /* \"#utility.yul\":11070:11436   */\n    tag_165:\n        /* \"#utility.yul\":11212:11215   */\n      0x00\n        /* \"#utility.yul\":11233:11300   */\n      tag_324\n        /* \"#utility.yul\":11297:11299   */\n      0x1c\n        /* \"#utility.yul\":11292:11295   */\n      dup4\n        /* \"#utility.yul\":11233:11300   */\n      tag_154\n      jump\t// in\n    tag_324:\n        /* \"#utility.yul\":11226:11300   */\n      swap2\n      pop\n        /* \"#utility.yul\":11309:11402   */\n      tag_325\n        /* \"#utility.yul\":11398:11401   */\n      dup3\n        /* \"#utility.yul\":11309:11402   */\n      tag_164\n      jump\t// in\n    tag_325:\n        /* \"#utility.yul\":11427:11429   */\n      0x20\n        /* \"#utility.yul\":11422:11425   */\n      dup3\n        /* \"#utility.yul\":11418:11430   */\n      add\n        /* \"#utility.yul\":11411:11430   */\n      swap1\n      pop\n        /* \"#utility.yul\":11070:11436   */\n      swap2\n      swap1\n      pop\n      jump\t// out\n        /* \"#utility.yul\":11442:11861   */\n    tag_78:\n        /* \"#utility.yul\":11608:11612   */\n      0x00\n        /* \"#utility.yul\":11646:11648   */\n      0x20\n        /* \"#utility.yul\":11635:11644   */\n      dup3\n        /* \"#utility.yul\":11631:11649   */\n      add\n        /* \"#utility.yul\":11623:11649   */\n      swap1\n      pop\n        /* \"#utility.yul\":11695:11704   */\n      dup2\n        /* \"#utility.yul\":11689:11693   */\n      dup2\n        /* \"#utility.yul\":11685:11705   */\n      sub\n        /* \"#utility.yul\":11681:11682   */\n      0x00\n        /* \"#utility.yul\":11670:11679   */\n      dup4\n        /* \"#utility.yul\":11666:11683   */\n      add\n        /* \"#utility.yul\":11659:11706   */\n      mstore\n        /* \"#utility.yul\":11723:11854   */\n      tag_327\n        /* \"#utility.yul\":11849:11853   */\n      dup2\n        /* \"#utility.yul\":11723:11854   */\n      tag_165\n      jump\t// in\n    tag_327:\n        /* \"#utility.yul\":11715:11854   */\n      swap1\n      pop\n        /* \"#utility.yul\":11442:11861   */\n      swap2\n      swap1\n      pop\n      jump\t// out\n        /* \"#utility.yul\":11867:12047   */\n    tag_166:\n        /* \"#utility.yul\":11915:11992   */\n      0x4e487b7100000000000000000000000000000000000000000000000000000000\n        /* \"#utility.yul\":11912:11913   */\n      0x00\n        /* \"#utility.yul\":11905:11993   */\n      mstore\n        /* \"#utility.yul\":12012:12016   */\n      0x22\n        /* \"#utility.yul\":12009:12010   */\n      0x04\n        /* \"#utility.yul\":12002:12017   */\n      mstore\n        /* \"#utility.yul\":12036:12040   */\n      0x24\n        /* \"#utility.yul\":12033:12034   */\n      0x00\n        /* \"#utility.yul\":12026:12041   */\n      revert\n        /* \"#utility.yul\":12053:12373   */\n    tag_86:\n        /* \"#utility.yul\":12097:12103   */\n      0x00\n        /* \"#utility.yul\":12134:12135   */\n      0x02\n        /* \"#utility.yul\":12128:12132   */\n      dup3\n        /* \"#utility.yul\":12124:12136   */\n      div\n        /* \"#utility.yul\":12114:12136   */\n      swap1\n      pop\n        /* \"#utility.yul\":12181:12182   */\n      0x01\n        /* \"#utility.yul\":12175:12179   */\n      dup3\n        /* \"#utility.yul\":12171:12183   */\n      and\n        /* \"#utility.yul\":12202:12220   */\n      dup1\n        /* \"#utility.yul\":12192:12273   */\n      tag_330\n      jumpi\n        /* \"#utility.yul\":12258:12262   */\n      0x7f\n        /* \"#utility.yul\":12250:12256   */\n      dup3\n        /* \"#utility.yul\":12246:12263   */\n      and\n        /* \"#utility.yul\":12236:12263   */\n      swap2\n      pop\n        /* \"#utility.yul\":12192:12273   */\n    tag_330:\n        /* \"#utility.yul\":12320:12322   */\n      0x20\n        /* \"#utility.yul\":12312:12318   */\n      dup3\n        /* \"#utility.yul\":12309:12323   */\n      lt\n        /* \"#utility.yul\":12289:12307   */\n      dup2\n        /* \"#utility.yul\":12286:12324   */\n      sub\n        /* \"#utility.yul\":12283:12367   */\n      tag_331\n      jumpi\n        /* \"#utility.yul\":12339:12357   */\n      tag_332\n      tag_166\n      jump\t// in\n    tag_332:\n        /* \"#utility.yul\":12283:12367   */\n    tag_331:\n        /* \"#utility.yul\":12104:12373   */\n      pop\n        /* \"#utility.yul\":12053:12373   */\n      swap2\n      swap1\n      pop\n      jump\t// out\n        /* \"#utility.yul\":12379:12520   */\n    tag_167:\n        /* \"#utility.yul\":12428:12432   */\n      0x00\n        /* \"#utility.yul\":12451:12454   */\n      dup2\n        /* \"#utility.yul\":12443:12454   */\n      swap1\n      pop\n        /* \"#utility.yul\":12474:12477   */\n      dup2\n        /* \"#utility.yul\":12471:12472   */\n      0x00\n        /* \"#utility.yul\":12464:12478   */\n      mstore\n        /* \"#utility.yul\":12508:12512   */\n      0x20\n        /* \"#utility.yul\":12505:12506   */\n      0x00\n        /* \"#utility.yul\":12495:12513   */\n      keccak256\n        /* \"#utility.yul\":12487:12513   */\n      swap1\n      pop\n        /* \"#utility.yul\":12379:12520   */\n      swap2\n      swap1\n      pop\n      jump\t// out\n        /* \"#utility.yul\":12526:12619   */\n    tag_168:\n        /* \"#utility.yul\":12563:12569   */\n      0x00\n        /* \"#utility.yul\":12610:12612   */\n      0x20\n        /* \"#utility.yul\":12605:12607   */\n      0x1f\n        /* \"#utility.yul\":12598:12603   */\n      dup4\n        /* \"#utility.yul\":12594:12608   */\n      add\n        /* \"#utility.yul\":12590:12613   */\n      div\n        /* \"#utility.yul\":12580:12613   */\n      swap1\n      pop\n        /* \"#utility.yul\":12526:12619   */\n      swap2\n      swap1\n      pop\n      jump\t// out\n        /* \"#utility.yul\":12625:12732   */\n    tag_169:\n        /* \"#utility.yul\":12669:12677   */\n      0x00\n        /* \"#utility.yul\":12719:12724   */\n      dup3\n        /* \"#utility.yul\":12713:12717   */\n      dup3\n        /* \"#utility.yul\":12709:12725   */\n      shl\n        /* \"#utility.yul\":12688:12725   */\n      swap1\n      pop\n        /* \"#utility.yul\":12625:12732   */\n      swap3\n      swap2\n      pop\n      pop\n      jump\t// out\n        /* \"#utility.yul\":12738:13131   */\n    tag_170:\n        /* \"#utility.yul\":12807:12813   */\n      0x00\n        /* \"#utility.yul\":12857:12858   */\n      0x08\n        /* \"#utility.yul\":12845:12855   */\n      dup4\n        /* \"#utility.yul\":12841:12859   */\n      mul\n        /* \"#utility.yul\":12880:12977   */\n      tag_337\n        /* \"#utility.yul\":12910:12976   */\n      0xffffffffffffffffffffffffffffffffffffffffffffffffffffffffffffffff\n        /* \"#utility.yul\":12899:12908   */\n      dup3\n        /* \"#utility.yul\":12880:12977   */\n      tag_169\n      jump\t// in\n    tag_337:\n        /* \"#utility.yul\":12998:13037   */\n      tag_338\n        /* \"#utility.yul\":13028:13036   */\n      dup7\n        /* \"#utility.yul\":13017:13026   */\n      dup4\n        /* \"#utility.yul\":12998:13037   */\n      tag_169\n      jump\t// in\n    tag_338:\n        /* \"#utility.yul\":12986:13037   */\n      swap6\n      pop\n        /* \"#utility.yul\":13070:13074   */\n      dup1\n        /* \"#utility.yul\":13066:13075   */\n      not\n        /* \"#utility.yul\":13059:13064   */\n      dup5\n        /* \"#utility.yul\":13055:13076   */\n      and\n        /* \"#utility.yul\":13046:13076   */\n      swap4\n      pop\n        /* \"#utility.yul\":13119:13123   */\n      dup1\n        /* \"#utility.yul\":13109:13117   */\n      dup7\n        /* \"#utility.yul\":13105:13124   */\n      and\n        /* \"#utility.yul\":13098:13103   */\n      dup5\n        /* \"#utility.yul\":13095:13125   */\n      or\n        /* \"#utility.yul\":13085:13125   */\n      swap3\n      pop\n        /* \"#utility.yul\":12814:13131   */\n      pop\n      pop\n        /* \"#utility.yul\":12738:13131   */\n      swap4\n      swap3\n      pop\n      pop\n      pop\n      jump\t// out\n        /* \"#utility.yul\":13137:13197   */\n    tag_171:\n        /* \"#utility.yul\":13165:13168   */\n      0x00\n        /* \"#utility.yul\":13186:13191   */\n      dup2\n        /* \"#utility.yul\":13179:13191   */\n      swap1\n      pop\n        /* \"#utility.yul\":13137:13197   */\n      swap2\n      swap1\n      pop\n      jump\t// out\n        /* \"#utility.yul\":13203:13345   */\n    tag_172:\n        /* \"#utility.yul\":13253:13262   */\n      0x00\n        /* \"#utility.yul\":13286:13339   */\n      tag_341\n        /* \"#utility.yul\":13304:13338   */\n      tag_342\n        /* \"#utility.yul\":13313:13337   */\n      tag_343\n        /* \"#utility.yul\":13331:13336   */\n      dup5\n        /* \"#utility.yul\":13313:13337   */\n      tag_149\n      jump\t// in\n    tag_343:\n        /* \"#utility.yul\":13304:13338   */\n      tag_171\n      jump\t// in\n    tag_342:\n        /* \"#utility.yul\":13286:13339   */\n      tag_149\n      jump\t// in\n    tag_341:\n        /* \"#utility.yul\":13273:13339   */\n      swap1\n      pop\n        /* \"#utility.yul\":13203:13345   */\n      swap2\n      swap1\n      pop\n      jump\t// out\n        /* \"#utility.yul\":13351:13426   */\n    tag_173:\n        /* \"#utility.yul\":13394:13397   */\n      0x00\n        /* \"#utility.yul\":13415:13420   */\n      dup2\n        /* \"#utility.yul\":13408:13420   */\n      swap1\n      pop\n        /* \"#utility.yul\":13351:13426   */\n      swap2\n      swap1\n      pop\n      jump\t// out\n        /* \"#utility.yul\":13432:13701   */\n    tag_174:\n        /* \"#utility.yul\":13542:13581   */\n      tag_346\n        /* \"#utility.yul\":13573:13580   */\n      dup4\n        /* \"#utility.yul\":13542:13581   */\n      tag_172\n      jump\t// in\n    tag_346:\n        /* \"#utility.yul\":13603:13694   */\n      tag_347\n        /* \"#utility.yul\":13652:13693   */\n      tag_348\n        /* \"#utility.yul\":13676:13692   */\n      dup3\n        /* \"#utility.yul\":13652:13693   */\n      tag_173\n      jump\t// in\n    tag_348:\n        /* \"#utility.yul\":13644:13650   */\n      dup5\n        /* \"#utility.yul\":13637:13641   */\n      dup5\n        /* \"#utility.yul\":13631:13642   */\n      sload\n        /* \"#utility.yul\":13603:13694   */\n      tag_170\n      jump\t// in\n    tag_347:\n        /* \"#utility.yul\":13597:13601   */\n      dup3\n        /* \"#utility.yul\":13590:13695   */\n      sstore\n        /* \"#utility.yul\":13508:13701   */\n      pop\n        /* \"#utility.yul\":13432:13701   */\n      pop\n      pop\n      pop\n      jump\t// out\n        /* \"#utility.yul\":13707:13780   */\n    tag_175:\n        /* \"#utility.yul\":13752:13755   */\n      0x00\n        /* \"#utility.yul\":13707:13780   */\n      swap1\n      jump\t// out\n        /* \"#utility.yul\":13786:13975   */\n    tag_176:\n        /* \"#utility.yul\":13863:13895   */\n      tag_351\n      tag_175\n      jump\t// in\n    tag_351:\n        /* \"#utility.yul\":13904:13969   */\n      tag_352\n        /* \"#utility.yul\":13962:13968   */\n      dup2\n        /* \"#utility.yul\":13954:13960   */\n      dup5\n        /* \"#utility.yul\":13948:13952   */\n      dup5\n        /* \"#utility.yul\":13904:13969   */\n      tag_174\n      jump\t// in\n    tag_352:\n        /* \"#utility.yul\":13839:13975   */\n      pop\n        /* \"#utility.yul\":13786:13975   */\n      pop\n      pop\n      jump\t// out\n        /* \"#utility.yul\":13981:14167   */\n    tag_177:\n        /* \"#utility.yul\":14041:14161   */\n    tag_354:\n        /* \"#utility.yul\":14058:14061   */\n      dup2\n        /* \"#utility.yul\":14051:14056   */\n      dup2\n        /* \"#utility.yul\":14048:14062   */\n      lt\n        /* \"#utility.yul\":14041:14161   */\n      iszero\n      tag_356\n      jumpi\n        /* \"#utility.yul\":14112:14151   */\n      tag_357\n        /* \"#utility.yul\":14149:14150   */\n      0x00\n        /* \"#utility.yul\":14142:14147   */\n      dup3\n        /* \"#utility.yul\":14112:14151   */\n      tag_176\n      jump\t// in\n    tag_357:\n        /* \"#utility.yul\":14085:14086   */\n      0x01\n        /* \"#utility.yul\":14078:14083   */\n      dup2\n        /* \"#utility.yul\":14074:14087   */\n      add\n        /* \"#utility.yul\":14065:14087   */\n      swap1\n      pop\n        /* \"#utility.yul\":14041:14161   */\n      jump(tag_354)\n    tag_356:\n        /* \"#utility.yul\":13981:14167   */\n      pop\n      pop\n      jump\t// out\n        /* \"#utility.yul\":14173:14716   */\n    tag_178:\n        /* \"#utility.yul\":14274:14276   */\n      0x1f\n        /* \"#utility.yul\":14269:14272   */\n      dup3\n        /* \"#utility.yul\":14266:14277   */\n      gt\n        /* \"#utility.yul\":14263:14709   */\n      iszero\n      tag_359\n      jumpi\n        /* \"#utility.yul\":14308:14346   */\n      tag_360\n        /* \"#utility.yul\":14340:14345   */\n      dup2\n        /* \"#utility.yul\":14308:14346   */\n      tag_167\n      jump\t// in\n    tag_360:\n        /* \"#utility.yul\":14392:14421   */\n      tag_361\n        /* \"#utility.yul\":14410:14420   */\n      dup5\n        /* \"#utility.yul\":14392:14421   */\n      tag_168\n      jump\t// in\n    tag_361:\n        /* \"#utility.yul\":14382:14390   */\n      dup2\n        /* \"#utility.yul\":14378:14422   */\n      add\n        /* \"#utility.yul\":14575:14577   */\n      0x20\n        /* \"#utility.yul\":14563:14573   */\n      dup6\n        /* \"#utility.yul\":14560:14578   */\n      lt\n        /* \"#utility.yul\":14557:14606   */\n      iszero\n      tag_362\n      jumpi\n        /* \"#utility.yul\":14596:14604   */\n      dup2\n        /* \"#utility.yul\":14581:14604   */\n      swap1\n      pop\n        /* \"#utility.yul\":14557:14606   */\n    tag_362:\n        /* \"#utility.yul\":14619:14699   */\n      tag_363\n        /* \"#utility.yul\":14675:14697   */\n      tag_364\n        /* \"#utility.yul\":14693:14696   */\n      dup6\n        /* \"#utility.yul\":14675:14697   */\n      tag_168\n      jump\t// in\n    tag_364:\n        /* \"#utility.yul\":14665:14673   */\n      dup4\n        /* \"#utility.yul\":14661:14698   */\n      add\n        /* \"#utility.yul\":14648:14659   */\n      dup3\n        /* \"#utility.yul\":14619:14699   */\n      tag_177\n      jump\t// in\n    tag_363:\n        /* \"#utility.yul\":14278:14709   */\n      pop\n      pop\n        /* \"#utility.yul\":14263:14709   */\n    tag_359:\n        /* \"#utility.yul\":14173:14716   */\n      pop\n      pop\n      pop\n      jump\t// out\n        /* \"#utility.yul\":14722:14839   */\n    tag_179:\n        /* \"#utility.yul\":14776:14784   */\n      0x00\n        /* \"#utility.yul\":14826:14831   */\n      dup3\n        /* \"#utility.yul\":14820:14824   */\n      dup3\n        /* \"#utility.yul\":14816:14832   */\n      shr\n        /* \"#utility.yul\":14795:14832   */\n      swap1\n      pop\n        /* \"#utility.yul\":14722:14839   */\n      swap3\n      swap2\n      pop\n      pop\n      jump\t// out\n        /* \"#utility.yul\":14845:15014   */\n    tag_180:\n        /* \"#utility.yul\":14889:14895   */\n      0x00\n        /* \"#utility.yul\":14922:14973   */\n      tag_367\n        /* \"#utility.yul\":14970:14971   */\n      0x00\n        /* \"#utility.yul\":14966:14972   */\n      not\n        /* \"#utility.yul\":14958:14963   */\n      dup5\n        /* \"#utility.yul\":14955:14956   */\n      0x08\n        /* \"#utility.yul\":14951:14964   */\n      mul\n        /* \"#utility.yul\":14922:14973   */\n      tag_179\n      jump\t// in\n    tag_367:\n        /* \"#utility.yul\":14918:14974   */\n      not\n        /* \"#utility.yul\":15003:15007   */\n      dup1\n        /* \"#utility.yul\":14997:15001   */\n      dup4\n        /* \"#utility.yul\":14993:15008   */\n      and\n        /* \"#utility.yul\":14983:15008   */\n      swap2\n      pop\n        /* \"#utility.yul\":14896:15014   */\n      pop\n        /* \"#utility.yul\":14845:15014   */\n      swap3\n      swap2\n      pop\n      pop\n      jump\t// out\n        /* \"#utility.yul\":15019:15314   */\n    tag_181:\n        /* \"#utility.yul\":15095:15099   */\n      0x00\n        /* \"#utility.yul\":15241:15270   */\n      tag_369\n        /* \"#utility.yul\":15266:15269   */\n      dup4\n        /* \"#utility.yul\":15260:15264   */\n      dup4\n        /* \"#utility.yul\":15241:15270   */\n      tag_180\n      jump\t// in\n    tag_369:\n        /* \"#utility.yul\":15233:15270   */\n      swap2\n      pop\n        /* \"#utility.yul\":15303:15306   */\n      dup3\n        /* \"#utility.yul\":15300:15301   */\n      0x02\n        /* \"#utility.yul\":15296:15307   */\n      mul\n        /* \"#utility.yul\":15290:15294   */\n      dup3\n        /* \"#utility.yul\":15287:15308   */\n      or\n        /* \"#utility.yul\":15279:15308   */\n      swap1\n      pop\n        /* \"#utility.yul\":15019:15314   */\n      swap3\n      swap2\n      pop\n      pop\n      jump\t// out\n        /* \"#utility.yul\":15319:16714   */\n    tag_80:\n        /* \"#utility.yul\":15436:15473   */\n      tag_371\n        /* \"#utility.yul\":15469:15472   */\n      dup3\n        /* \"#utility.yul\":15436:15473   */\n      tag_153\n      jump\t// in\n    tag_371:\n        /* \"#utility.yul\":15538:15556   */\n      0xffffffffffffffff\n        /* \"#utility.yul\":15530:15536   */\n      dup2\n        /* \"#utility.yul\":15527:15557   */\n      gt\n        /* \"#utility.yul\":15524:15580   */\n      iszero\n      tag_372\n      jumpi\n        /* \"#utility.yul\":15560:15578   */\n      tag_373\n      tag_142\n      jump\t// in\n    tag_373:\n        /* \"#utility.yul\":15524:15580   */\n    tag_372:\n        /* \"#utility.yul\":15604:15642   */\n      tag_374\n        /* \"#utility.yul\":15636:15640   */\n      dup3\n        /* \"#utility.yul\":15630:15641   */\n      sload\n        /* \"#utility.yul\":15604:15642   */\n      tag_86\n      jump\t// in\n    tag_374:\n        /* \"#utility.yul\":15689:15756   */\n      tag_375\n        /* \"#utility.yul\":15749:15755   */\n      dup3\n        /* \"#utility.yul\":15741:15747   */\n      dup3\n        /* \"#utility.yul\":15735:15739   */\n      dup6\n        /* \"#utility.yul\":15689:15756   */\n      tag_178\n      jump\t// in\n    tag_375:\n        /* \"#utility.yul\":15783:15784   */\n      0x00\n        /* \"#utility.yul\":15807:15811   */\n      0x20\n        /* \"#utility.yul\":15794:15811   */\n      swap1\n      pop\n        /* \"#utility.yul\":15839:15841   */\n      0x1f\n        /* \"#utility.yul\":15831:15837   */\n      dup4\n        /* \"#utility.yul\":15828:15842   */\n      gt\n        /* \"#utility.yul\":15856:15857   */\n      0x01\n        /* \"#utility.yul\":15851:16469   */\n      dup2\n      eq\n      tag_377\n      jumpi\n        /* \"#utility.yul\":16513:16514   */\n      0x00\n        /* \"#utility.yul\":16530:16536   */\n      dup5\n        /* \"#utility.yul\":16527:16604   */\n      iszero\n      tag_378\n      jumpi\n        /* \"#utility.yul\":16579:16588   */\n      dup3\n        /* \"#utility.yul\":16574:16577   */\n      dup8\n        /* \"#utility.yul\":16570:16589   */\n      add\n        /* \"#utility.yul\":16564:16590   */\n      mload\n        /* \"#utility.yul\":16555:16590   */\n      swap1\n      pop\n        /* \"#utility.yul\":16527:16604   */\n    tag_378:\n        /* \"#utility.yul\":16630:16697   */\n      tag_379\n        /* \"#utility.yul\":16690:16696   */\n      dup6\n        /* \"#utility.yul\":16683:16688   */\n      dup3\n        /* \"#utility.yul\":16630:16697   */\n      tag_181\n      jump\t// in\n    tag_379:\n        /* \"#utility.yul\":16624:16628   */\n      dup7\n        /* \"#utility.yul\":16617:16698   */\n      sstore\n        /* \"#utility.yul\":16486:16708   */\n      pop\n        /* \"#utility.yul\":15821:16708   */\n      jump(tag_376)\n        /* \"#utility.yul\":15851:16469   */\n    tag_377:\n        /* \"#utility.yul\":15903:15907   */\n      0x1f\n        /* \"#utility.yul\":15899:15908   */\n      not\n        /* \"#utility.yul\":15891:15897   */\n      dup5\n        /* \"#utility.yul\":15887:15909   */\n      and\n        /* \"#utility.yul\":15937:15974   */\n      tag_380\n        /* \"#utility.yul\":15969:15973   */\n      dup7\n        /* \"#utility.yul\":15937:15974   */\n      tag_167\n      jump\t// in\n    tag_380:\n        /* \"#utility.yul\":15996:15997   */\n      0x00\n        /* \"#utility.yul\":16010:16218   */\n    tag_381:\n        /* \"#utility.yul\":16024:16031   */\n      dup3\n        /* \"#utility.yul\":16021:16022   */\n      dup2\n        /* \"#utility.yul\":16018:16032   */\n      lt\n        /* \"#utility.yul\":16010:16218   */\n      iszero\n      tag_383\n      jumpi\n        /* \"#utility.yul\":16103:16112   */\n      dup5\n        /* \"#utility.yul\":16098:16101   */\n      dup10\n        /* \"#utility.yul\":16094:16113   */\n      add\n        /* \"#utility.yul\":16088:16114   */\n      mload\n        /* \"#utility.yul\":16080:16086   */\n      dup3\n        /* \"#utility.yul\":16073:16115   */\n      sstore\n        /* \"#utility.yul\":16154:16155   */\n      0x01\n        /* \"#utility.yul\":16146:16152   */\n      dup3\n        /* \"#utility.yul\":16142:16156   */\n      add\n        /* \"#utility.yul\":16132:16156   */\n      swap2\n      pop\n        /* \"#utility.yul\":16201:16203   */\n      0x20\n        /* \"#utility.yul\":16190:16199   */\n      dup6\n        /* \"#utility.yul\":16186:16204   */\n      add\n        /* \"#utility.yul\":16173:16204   */\n      swap5\n      pop\n        /* \"#utility.yul\":16047:16051   */\n      0x20\n        /* \"#utility.yul\":16044:16045   */\n      dup2\n        /* \"#utility.yul\":16040:16052   */\n      add\n        /* \"#utility.yul\":16035:16052   */\n      swap1\n      pop\n        /* \"#utility.yul\":16010:16218   */\n      jump(tag_381)\n    tag_383:\n        /* \"#utility.yul\":16246:16252   */\n      dup7\n        /* \"#utility.yul\":16237:16244   */\n      dup4\n        /* \"#utility.yul\":16234:16253   */\n      lt\n        /* \"#utility.yul\":16231:16410   */\n      iszero\n      tag_384\n      jumpi\n        /* \"#utility.yul\":16304:16313   */\n      dup5\n        /* \"#utility.yul\":16299:16302   */\n      dup10\n        /* \"#utility.yul\":16295:16314   */\n      add\n        /* \"#utility.yul\":16289:16315   */\n      mload\n        /* \"#utility.yul\":16347:16395   */\n      tag_385\n        /* \"#utility.yul\":16389:16393   */\n      0x1f\n        /* \"#utility.yul\":16381:16387   */\n      dup10\n        /* \"#utility.yul\":16377:16394   */\n      and\n        /* \"#utility.yul\":16366:16375   */\n      dup3\n        /* \"#utility.yul\":16347:16395   */\n      tag_180\n      jump\t// in\n    tag_385:\n        /* \"#utility.yul\":16339:16345   */\n      dup4\n        /* \"#utility.yul\":16332:16396   */\n      sstore\n        /* \"#utility.yul\":16254:16410   */\n      pop\n        /* \"#utility.yul\":16231:16410   */\n    tag_384:\n        /* \"#utility.yul\":16456:16457   */\n      0x01\n        /* \"#utility.yul\":16452:16453   */\n      0x02\n        /* \"#utility.yul\":16444:16450   */\n      dup9\n        /* \"#utility.yul\":16440:16454   */\n      mul\n        /* \"#utility.yul\":16436:16458   */\n      add\n        /* \"#utility.yul\":16430:16434   */\n      dup9\n        /* \"#utility.yul\":16423:16459   */\n      sstore\n        /* \"#utility.yul\":15858:16469   */\n      pop\n      pop\n      pop\n        /* \"#utility.yul\":15821:16708   */\n    tag_376:\n      pop\n        /* \"#utility.yul\":15411:16714   */\n      pop\n      pop\n      pop\n        /* \"#utility.yul\":15319:16714   */\n      pop\n      pop\n      jump\t// out\n        /* \"#utility.yul\":16720:16900   */\n    tag_182:\n        /* \"#utility.yul\":16768:16845   */\n      0x4e487b7100000000000000000000000000000000000000000000000000000000\n        /* \"#utility.yul\":16765:16766   */\n      0x00\n        /* \"#utility.yul\":16758:16846   */\n      mstore\n        /* \"#utility.yul\":16865:16869   */\n      0x11\n        /* \"#utility.yul\":16862:16863   */\n      0x04\n        /* \"#utility.yul\":16855:16870   */\n      mstore\n        /* \"#utility.yul\":16889:16893   */\n      0x24\n        /* \"#utility.yul\":16886:16887   */\n      0x00\n        /* \"#utility.yul\":16879:16894   */\n      revert\n        /* \"#utility.yul\":16906:17139   */\n    tag_82:\n        /* \"#utility.yul\":16945:16948   */\n      0x00\n        /* \"#utility.yul\":16968:16992   */\n      tag_388\n        /* \"#utility.yul\":16986:16991   */\n      dup3\n        /* \"#utility.yul\":16968:16992   */\n      tag_149\n      jump\t// in\n    tag_388:\n        /* \"#utility.yul\":16959:16992   */\n      swap2\n      pop\n        /* \"#utility.yul\":17014:17080   */\n      0xffffffffffffffffffffffffffffffffffffffffffffffffffffffffffffffff\n        /* \"#utility.yul\":17007:17012   */\n      dup3\n        /* \"#utility.yul\":17004:17081   */\n      sub\n        /* \"#utility.yul\":17001:17104   */\n      tag_389\n      jumpi\n        /* \"#utility.yul\":17084:17102   */\n      tag_390\n      tag_182\n      jump\t// in\n    tag_390:\n        /* \"#utility.yul\":17001:17104   */\n    tag_389:\n        /* \"#utility.yul\":17131:17132   */\n      0x01\n        /* \"#utility.yul\":17124:17129   */\n      dup3\n        /* \"#utility.yul\":17120:17133   */\n      add\n        /* \"#utility.yul\":17113:17133   */\n      swap1\n      pop\n        /* \"#utility.yul\":16906:17139   */\n      swap2\n      swap1\n      pop\n      jump\t// out\n        /* \"#utility.yul\":17145:17339   */\n    tag_84:\n        /* \"#utility.yul\":17185:17189   */\n      0x00\n        /* \"#utility.yul\":17205:17225   */\n      tag_392\n        /* \"#utility.yul\":17223:17224   */\n      dup3\n        /* \"#utility.yul\":17205:17225   */\n      tag_149\n      jump\t// in\n    tag_392:\n        /* \"#utility.yul\":17200:17225   */\n      swap2\n      pop\n        /* \"#utility.yul\":17239:17259   */\n      tag_393\n        /* \"#utility.yul\":17257:17258   */\n      dup4\n        /* \"#utility.yul\":17239:17259   */\n      tag_149\n      jump\t// in\n    tag_393:\n        /* \"#utility.yul\":17234:17259   */\n      swap3\n      pop\n        /* \"#utility.yul\":17283:17284   */\n      dup3\n        /* \"#utility.yul\":17280:17281   */\n      dup3\n        /* \"#utility.yul\":17276:17285   */\n      sub\n        /* \"#utility.yul\":17268:17285   */\n      swap1\n      pop\n        /* \"#utility.yul\":17307:17308   */\n      dup2\n        /* \"#utility.yul\":17301:17305   */\n      dup2\n        /* \"#utility.yul\":17298:17309   */\n      gt\n        /* \"#utility.yul\":17295:17332   */\n      iszero\n      tag_394\n      jumpi\n        /* \"#utility.yul\":17312:17330   */\n      tag_395\n      tag_182\n      jump\t// in\n    tag_395:\n        /* \"#utility.yul\":17295:17332   */\n    tag_394:\n        /* \"#utility.yul\":17145:17339   */\n      swap3\n      swap2\n      pop\n      pop\n      jump\t// out\n        /* \"#utility.yul\":17345:17536   */\n    tag_96:\n        /* \"#utility.yul\":17385:17388   */\n      0x00\n        /* \"#utility.yul\":17404:17424   */\n      tag_397\n        /* \"#utility.yul\":17422:17423   */\n      dup3\n        /* \"#utility.yul\":17404:17424   */\n      tag_149\n      jump\t// in\n    tag_397:\n        /* \"#utility.yul\":17399:17424   */\n      swap2\n      pop\n        /* \"#utility.yul\":17438:17458   */\n      tag_398\n        /* \"#utility.yul\":17456:17457   */\n      dup4\n        /* \"#utility.yul\":17438:17458   */\n      tag_149\n      jump\t// in\n    tag_398:\n        /* \"#utility.yul\":17433:17458   */\n      swap3\n      pop\n        /* \"#utility.yul\":17481:17482   */\n      dup3\n        /* \"#utility.yul\":17478:17479   */\n      dup3\n        /* \"#utility.yul\":17474:17483   */\n      add\n        /* \"#utility.yul\":17467:17483   */\n      swap1\n      pop\n        /* \"#utility.yul\":17502:17505   */\n      dup1\n        /* \"#utility.yul\":17499:17500   */\n      dup3\n        /* \"#utility.yul\":17496:17506   */\n      gt\n        /* \"#utility.yul\":17493:17529   */\n      iszero\n      tag_399\n      jumpi\n        /* \"#utility.yul\":17509:17527   */\n      tag_400\n      tag_182\n      jump\t// in\n    tag_400:\n        /* \"#utility.yul\":17493:17529   */\n    tag_399:\n        /* \"#utility.yul\":17345:17536   */\n      swap3\n      swap2\n      pop\n      pop\n      jump\t// out\n        /* \"#utility.yul\":17542:17690   */\n    tag_183:\n        /* \"#utility.yul\":17644:17655   */\n      0x00\n        /* \"#utility.yul\":17681:17684   */\n      dup2\n        /* \"#utility.yul\":17666:17684   */\n      swap1\n      pop\n        /* \"#utility.yul\":17542:17690   */\n      swap3\n      swap2\n      pop\n      pop\n      jump\t// out\n        /* \"#utility.yul\":17696:18086   */\n    tag_184:\n        /* \"#utility.yul\":17802:17805   */\n      0x00\n        /* \"#utility.yul\":17830:17869   */\n      tag_403\n        /* \"#utility.yul\":17863:17868   */\n      dup3\n        /* \"#utility.yul\":17830:17869   */\n      tag_153\n      jump\t// in\n    tag_403:\n        /* \"#utility.yul\":17885:17974   */\n      tag_404\n        /* \"#utility.yul\":17967:17973   */\n      dup2\n        /* \"#utility.yul\":17962:17965   */\n      dup6\n        /* \"#utility.yul\":17885:17974   */\n      tag_183\n      jump\t// in\n    tag_404:\n        /* \"#utility.yul\":17878:17974   */\n      swap4\n      pop\n        /* \"#utility.yul\":17983:18048   */\n      tag_405\n        /* \"#utility.yul\":18041:18047   */\n      dup2\n        /* \"#utility.yul\":18036:18039   */\n      dup6\n        /* \"#utility.yul\":18029:18033   */\n      0x20\n        /* \"#utility.yul\":18022:18027   */\n      dup7\n        /* \"#utility.yul\":18018:18034   */\n      add\n        /* \"#utility.yul\":17983:18048   */\n      tag_155\n      jump\t// in\n    tag_405:\n        /* \"#utility.yul\":18073:18079   */\n      dup1\n        /* \"#utility.yul\":18068:18071   */\n      dup5\n        /* \"#utility.yul\":18064:18080   */\n      add\n        /* \"#utility.yul\":18057:18080   */\n      swap2\n      pop\n        /* \"#utility.yul\":17806:18086   */\n      pop\n        /* \"#utility.yul\":17696:18086   */\n      swap3\n      swap2\n      pop\n      pop\n      jump\t// out\n        /* \"#utility.yul\":18092:18367   */\n    tag_98:\n        /* \"#utility.yul\":18224:18227   */\n      0x00\n        /* \"#utility.yul\":18246:18341   */\n      tag_407\n        /* \"#utility.yul\":18337:18340   */\n      dup3\n        /* \"#utility.yul\":18328:18334   */\n      dup5\n        /* \"#utility.yul\":18246:18341   */\n      tag_184\n      jump\t// in\n    tag_407:\n        /* \"#utility.yul\":18239:18341   */\n      swap2\n      pop\n        /* \"#utility.yul\":18358:18361   */\n      dup2\n        /* \"#utility.yul\":18351:18361   */\n      swap1\n      pop\n        /* \"#utility.yul\":18092:18367   */\n      swap3\n      swap2\n      pop\n      pop\n      jump\t// out\n        /* \"#utility.yul\":18373:18619   */\n    tag_185:\n        /* \"#utility.yul\":18513:18547   */\n      0x6d6178696d756d2073636f7265206973207a65726f2e2041737369676e6d656e\n        /* \"#utility.yul\":18509:18510   */\n      0x00\n        /* \"#utility.yul\":18501:18507   */\n      dup3\n        /* \"#utility.yul\":18497:18511   */\n      add\n        /* \"#utility.yul\":18490:18548   */\n      mstore\n        /* \"#utility.yul\":18582:18611   */\n      0x7473206e65656420746f20626520637265617465642066697273740000000000\n        /* \"#utility.yul\":18577:18579   */\n      0x20\n        /* \"#utility.yul\":18569:18575   */\n      dup3\n        /* \"#utility.yul\":18565:18580   */\n      add\n        /* \"#utility.yul\":18558:18612   */\n      mstore\n        /* \"#utility.yul\":18373:18619   */\n      pop\n      jump\t// out\n        /* \"#utility.yul\":18625:18991   */\n    tag_186:\n        /* \"#utility.yul\":18767:18770   */\n      0x00\n        /* \"#utility.yul\":18788:18855   */\n      tag_410\n        /* \"#utility.yul\":18852:18854   */\n      0x3b\n        /* \"#utility.yul\":18847:18850   */\n      dup4\n        /* \"#utility.yul\":18788:18855   */\n      tag_154\n      jump\t// in\n    tag_410:\n        /* \"#utility.yul\":18781:18855   */\n      swap2\n      pop\n        /* \"#utility.yul\":18864:18957   */\n      tag_411\n        /* \"#utility.yul\":18953:18956   */\n      dup3\n        /* \"#utility.yul\":18864:18957   */\n      tag_185\n      jump\t// in\n    tag_411:\n        /* \"#utility.yul\":18982:18984   */\n      0x40\n        /* \"#utility.yul\":18977:18980   */\n      dup3\n        /* \"#utility.yul\":18973:18985   */\n      add\n        /* \"#utility.yul\":18966:18985   */\n      swap1\n      pop\n        /* \"#utility.yul\":18625:18991   */\n      swap2\n      swap1\n      pop\n      jump\t// out\n        /* \"#utility.yul\":18997:19416   */\n    tag_103:\n        /* \"#utility.yul\":19163:19167   */\n      0x00\n        /* \"#utility.yul\":19201:19203   */\n      0x20\n        /* \"#utility.yul\":19190:19199   */\n      dup3\n        /* \"#utility.yul\":19186:19204   */\n      add\n        /* \"#utility.yul\":19178:19204   */\n      swap1\n      pop\n        /* \"#utility.yul\":19250:19259   */\n      dup2\n        /* \"#utility.yul\":19244:19248   */\n      dup2\n        /* \"#utility.yul\":19240:19260   */\n      sub\n        /* \"#utility.yul\":19236:19237   */\n      0x00\n        /* \"#utility.yul\":19225:19234   */\n      dup4\n        /* \"#utility.yul\":19221:19238   */\n      add\n        /* \"#utility.yul\":19214:19261   */\n      mstore\n        /* \"#utility.yul\":19278:19409   */\n      tag_413\n        /* \"#utility.yul\":19404:19408   */\n      dup2\n        /* \"#utility.yul\":19278:19409   */\n      tag_186\n      jump\t// in\n    tag_413:\n        /* \"#utility.yul\":19270:19409   */\n      swap1\n      pop\n        /* \"#utility.yul\":18997:19416   */\n      swap2\n      swap1\n      pop\n      jump\t// out\n        /* \"#utility.yul\":19422:19832   */\n    tag_105:\n        /* \"#utility.yul\":19462:19469   */\n      0x00\n        /* \"#utility.yul\":19485:19505   */\n      tag_415\n        /* \"#utility.yul\":19503:19504   */\n      dup3\n        /* \"#utility.yul\":19485:19505   */\n      tag_149\n      jump\t// in\n    tag_415:\n        /* \"#utility.yul\":19480:19505   */\n      swap2\n      pop\n        /* \"#utility.yul\":19519:19539   */\n      tag_416\n        /* \"#utility.yul\":19537:19538   */\n      dup4\n        /* \"#utility.yul\":19519:19539   */\n      tag_149\n      jump\t// in\n    tag_416:\n        /* \"#utility.yul\":19514:19539   */\n      swap3\n      pop\n        /* \"#utility.yul\":19574:19575   */\n      dup3\n        /* \"#utility.yul\":19571:19572   */\n      dup3\n        /* \"#utility.yul\":19567:19576   */\n      mul\n        /* \"#utility.yul\":19596:19626   */\n      tag_417\n        /* \"#utility.yul\":19614:19625   */\n      dup2\n        /* \"#utility.yul\":19596:19626   */\n      tag_149\n      jump\t// in\n    tag_417:\n        /* \"#utility.yul\":19585:19626   */\n      swap2\n      pop\n        /* \"#utility.yul\":19775:19776   */\n      dup3\n        /* \"#utility.yul\":19766:19773   */\n      dup3\n        /* \"#utility.yul\":19762:19777   */\n      div\n        /* \"#utility.yul\":19759:19760   */\n      dup5\n        /* \"#utility.yul\":19756:19778   */\n      eq\n        /* \"#utility.yul\":19736:19737   */\n      dup4\n        /* \"#utility.yul\":19729:19738   */\n      iszero\n        /* \"#utility.yul\":19709:19792   */\n      or\n        /* \"#utility.yul\":19686:19825   */\n      tag_418\n      jumpi\n        /* \"#utility.yul\":19805:19823   */\n      tag_419\n      tag_182\n      jump\t// in\n    tag_419:\n        /* \"#utility.yul\":19686:19825   */\n    tag_418:\n        /* \"#utility.yul\":19470:19832   */\n      pop\n        /* \"#utility.yul\":19422:19832   */\n      swap3\n      swap2\n      pop\n      pop\n      jump\t// out\n        /* \"#utility.yul\":19838:20018   */\n    tag_187:\n        /* \"#utility.yul\":19886:19963   */\n      0x4e487b7100000000000000000000000000000000000000000000000000000000\n        /* \"#utility.yul\":19883:19884   */\n      0x00\n        /* \"#utility.yul\":19876:19964   */\n      mstore\n        /* \"#utility.yul\":19983:19987   */\n      0x12\n        /* \"#utility.yul\":19980:19981   */\n      0x04\n        /* \"#utility.yul\":19973:19988   */\n      mstore\n        /* \"#utility.yul\":20007:20011   */\n      0x24\n        /* \"#utility.yul\":20004:20005   */\n      0x00\n        /* \"#utility.yul\":19997:20012   */\n      revert\n        /* \"#utility.yul\":20024:20209   */\n    tag_107:\n        /* \"#utility.yul\":20064:20065   */\n      0x00\n        /* \"#utility.yul\":20081:20101   */\n      tag_422\n        /* \"#utility.yul\":20099:20100   */\n      dup3\n        /* \"#utility.yul\":20081:20101   */\n      tag_149\n      jump\t// in\n    tag_422:\n        /* \"#utility.yul\":20076:20101   */\n      swap2\n      pop\n        /* \"#utility.yul\":20115:20135   */\n      tag_423\n        /* \"#utility.yul\":20133:20134   */\n      dup4\n        /* \"#utility.yul\":20115:20135   */\n      tag_149\n      jump\t// in\n    tag_423:\n        /* \"#utility.yul\":20110:20135   */\n      swap3\n      pop\n        /* \"#utility.yul\":20154:20155   */\n      dup3\n        /* \"#utility.yul\":20144:20179   */\n      tag_424\n      jumpi\n        /* \"#utility.yul\":20159:20177   */\n      tag_425\n      tag_187\n      jump\t// in\n    tag_425:\n        /* \"#utility.yul\":20144:20179   */\n    tag_424:\n        /* \"#utility.yul\":20201:20202   */\n      dup3\n        /* \"#utility.yul\":20198:20199   */\n      dup3\n        /* \"#utility.yul\":20194:20203   */\n      div\n        /* \"#utility.yul\":20189:20203   */\n      swap1\n      pop\n        /* \"#utility.yul\":20024:20209   */\n      swap3\n      swap2\n      pop\n      pop\n      jump\t// out\n        /* \"#utility.yul\":20215:20448   */\n    tag_188:\n        /* \"#utility.yul\":20355:20389   */\n      0x4164646572206f662061737369676e6d656e74206973206e6f7420616e20696e\n        /* \"#utility.yul\":20351:20352   */\n      0x00\n        /* \"#utility.yul\":20343:20349   */\n      dup3\n        /* \"#utility.yul\":20339:20353   */\n      add\n        /* \"#utility.yul\":20332:20390   */\n      mstore\n        /* \"#utility.yul\":20424:20440   */\n      0x7374727563746f72206f72205441000000000000000000000000000000000000\n        /* \"#utility.yul\":20419:20421   */\n      0x20\n        /* \"#utility.yul\":20411:20417   */\n      dup3\n        /* \"#utility.yul\":20407:20422   */\n      add\n        /* \"#utility.yul\":20400:20441   */\n      mstore\n        /* \"#utility.yul\":20215:20448   */\n      pop\n      jump\t// out\n        /* \"#utility.yul\":20454:20820   */\n    tag_189:\n        /* \"#utility.yul\":20596:20599   */\n      0x00\n        /* \"#utility.yul\":20617:20684   */\n      tag_428\n        /* \"#utility.yul\":20681:20683   */\n      0x2e\n        /* \"#utility.yul\":20676:20679   */\n      dup4\n        /* \"#utility.yul\":20617:20684   */\n      tag_154\n      jump\t// in\n    tag_428:\n        /* \"#utility.yul\":20610:20684   */\n      swap2\n      pop\n        /* \"#utility.yul\":20693:20786   */\n      tag_429\n        /* \"#utility.yul\":20782:20785   */\n      dup3\n        /* \"#utility.yul\":20693:20786   */\n      tag_188\n      jump\t// in\n    tag_429:\n        /* \"#utility.yul\":20811:20813   */\n      0x40\n        /* \"#utility.yul\":20806:20809   */\n      dup3\n        /* \"#utility.yul\":20802:20814   */\n      add\n        /* \"#utility.yul\":20795:20814   */\n      swap1\n      pop\n        /* \"#utility.yul\":20454:20820   */\n      swap2\n      swap1\n      pop\n      jump\t// out\n        /* \"#utility.yul\":20826:21245   */\n    tag_112:\n        /* \"#utility.yul\":20992:20996   */\n      0x00\n        /* \"#utility.yul\":21030:21032   */\n      0x20\n        /* \"#utility.yul\":21019:21028   */\n      dup3\n        /* \"#utility.yul\":21015:21033   */\n      add\n        /* \"#utility.yul\":21007:21033   */\n      swap1\n      pop\n        /* \"#utility.yul\":21079:21088   */\n      dup2\n        /* \"#utility.yul\":21073:21077   */\n      dup2\n        /* \"#utility.yul\":21069:21089   */\n      sub\n        /* \"#utility.yul\":21065:21066   */\n      0x00\n        /* \"#utility.yul\":21054:21063   */\n      dup4\n        /* \"#utility.yul\":21050:21067   */\n      add\n        /* \"#utility.yul\":21043:21090   */\n      mstore\n        /* \"#utility.yul\":21107:21238   */\n      tag_431\n        /* \"#utility.yul\":21233:21237   */\n      dup2\n        /* \"#utility.yul\":21107:21238   */\n      tag_189\n      jump\t// in\n    tag_431:\n        /* \"#utility.yul\":21099:21238   */\n      swap1\n      pop\n        /* \"#utility.yul\":20826:21245   */\n      swap2\n      swap1\n      pop\n      jump\t// out\n        /* \"#utility.yul\":21251:21428   */\n    tag_190:\n        /* \"#utility.yul\":21391:21420   */\n      0x41737369676e6d656e74206964206973206e6f742076616c6964210000000000\n        /* \"#utility.yul\":21387:21388   */\n      0x00\n        /* \"#utility.yul\":21379:21385   */\n      dup3\n        /* \"#utility.yul\":21375:21389   */\n      add\n        /* \"#utility.yul\":21368:21421   */\n      mstore\n        /* \"#utility.yul\":21251:21428   */\n      pop\n      jump\t// out\n        /* \"#utility.yul\":21434:21800   */\n    tag_191:\n        /* \"#utility.yul\":21576:21579   */\n      0x00\n        /* \"#utility.yul\":21597:21664   */\n      tag_434\n        /* \"#utility.yul\":21661:21663   */\n      0x1b\n        /* \"#utility.yul\":21656:21659   */\n      dup4\n        /* \"#utility.yul\":21597:21664   */\n      tag_154\n      jump\t// in\n    tag_434:\n        /* \"#utility.yul\":21590:21664   */\n      swap2\n      pop\n        /* \"#utility.yul\":21673:21766   */\n      tag_435\n        /* \"#utility.yul\":21762:21765   */\n      dup3\n        /* \"#utility.yul\":21673:21766   */\n      tag_190\n      jump\t// in\n    tag_435:\n        /* \"#utility.yul\":21791:21793   */\n      0x20\n        /* \"#utility.yul\":21786:21789   */\n      dup3\n        /* \"#utility.yul\":21782:21794   */\n      add\n        /* \"#utility.yul\":21775:21794   */\n      swap1\n      pop\n        /* \"#utility.yul\":21434:21800   */\n      swap2\n      swap1\n      pop\n      jump\t// out\n        /* \"#utility.yul\":21806:22225   */\n    tag_115:\n        /* \"#utility.yul\":21972:21976   */\n      0x00\n        /* \"#utility.yul\":22010:22012   */\n      0x20\n        /* \"#utility.yul\":21999:22008   */\n      dup3\n        /* \"#utility.yul\":21995:22013   */\n      add\n        /* \"#utility.yul\":21987:22013   */\n      swap1\n      pop\n        /* \"#utility.yul\":22059:22068   */\n      dup2\n        /* \"#utility.yul\":22053:22057   */\n      dup2\n        /* \"#utility.yul\":22049:22069   */\n      sub\n        /* \"#utility.yul\":22045:22046   */\n      0x00\n        /* \"#utility.yul\":22034:22043   */\n      dup4\n        /* \"#utility.yul\":22030:22047   */\n      add\n        /* \"#utility.yul\":22023:22070   */\n      mstore\n        /* \"#utility.yul\":22087:22218   */\n      tag_437\n        /* \"#utility.yul\":22213:22217   */\n      dup2\n        /* \"#utility.yul\":22087:22218   */\n      tag_191\n      jump\t// in\n    tag_437:\n        /* \"#utility.yul\":22079:22218   */\n      swap1\n      pop\n        /* \"#utility.yul\":21806:22225   */\n      swap2\n      swap1\n      pop\n      jump\t// out\n        /* \"#utility.yul\":22231:22452   */\n    tag_192:\n        /* \"#utility.yul\":22371:22405   */\n      0x53636f72652063616e277420626520686967686572207468616e20746865206d\n        /* \"#utility.yul\":22367:22368   */\n      0x00\n        /* \"#utility.yul\":22359:22365   */\n      dup3\n        /* \"#utility.yul\":22355:22369   */\n      add\n        /* \"#utility.yul\":22348:22406   */\n      mstore\n        /* \"#utility.yul\":22440:22444   */\n      0x6178000000000000000000000000000000000000000000000000000000000000\n        /* \"#utility.yul\":22435:22437   */\n      0x20\n        /* \"#utility.yul\":22427:22433   */\n      dup3\n        /* \"#utility.yul\":22423:22438   */\n      add\n        /* \"#utility.yul\":22416:22445   */\n      mstore\n        /* \"#utility.yul\":22231:22452   */\n      pop\n      jump\t// out\n        /* \"#utility.yul\":22458:22824   */\n    tag_193:\n        /* \"#utility.yul\":22600:22603   */\n      0x00\n        /* \"#utility.yul\":22621:22688   */\n      tag_440\n        /* \"#utility.yul\":22685:22687   */\n      0x22\n        /* \"#utility.yul\":22680:22683   */\n      dup4\n        /* \"#utility.yul\":22621:22688   */\n      tag_154\n      jump\t// in\n    tag_440:\n        /* \"#utility.yul\":22614:22688   */\n      swap2\n      pop\n        /* \"#utility.yul\":22697:22790   */\n      tag_441\n        /* \"#utility.yul\":22786:22789   */\n      dup3\n        /* \"#utility.yul\":22697:22790   */\n      tag_192\n      jump\t// in\n    tag_441:\n        /* \"#utility.yul\":22815:22817   */\n      0x40\n        /* \"#utility.yul\":22810:22813   */\n      dup3\n        /* \"#utility.yul\":22806:22818   */\n      add\n        /* \"#utility.yul\":22799:22818   */\n      swap1\n      pop\n        /* \"#utility.yul\":22458:22824   */\n      swap2\n      swap1\n      pop\n      jump\t// out\n        /* \"#utility.yul\":22830:23249   */\n    tag_118:\n        /* \"#utility.yul\":22996:23000   */\n      0x00\n        /* \"#utility.yul\":23034:23036   */\n      0x20\n        /* \"#utility.yul\":23023:23032   */\n      dup3\n        /* \"#utility.yul\":23019:23037   */\n      add\n        /* \"#utility.yul\":23011:23037   */\n      swap1\n      pop\n        /* \"#utility.yul\":23083:23092   */\n      dup2\n        /* \"#utility.yul\":23077:23081   */\n      dup2\n        /* \"#utility.yul\":23073:23093   */\n      sub\n        /* \"#utility.yul\":23069:23070   */\n      0x00\n        /* \"#utility.yul\":23058:23067   */\n      dup4\n        /* \"#utility.yul\":23054:23071   */\n      add\n        /* \"#utility.yul\":23047:23094   */\n      mstore\n        /* \"#utility.yul\":23111:23242   */\n      tag_443\n        /* \"#utility.yul\":23237:23241   */\n      dup2\n        /* \"#utility.yul\":23111:23242   */\n      tag_193\n      jump\t// in\n    tag_443:\n        /* \"#utility.yul\":23103:23242   */\n      swap1\n      pop\n        /* \"#utility.yul\":22830:23249   */\n      swap2\n      swap1\n      pop\n      jump\t// out\n        /* \"#utility.yul\":23255:23485   */\n    tag_194:\n        /* \"#utility.yul\":23395:23429   */\n      0x73636f7265206f6e2061737369676e6d656e742063616e2774206265206c6573\n        /* \"#utility.yul\":23391:23392   */\n      0x00\n        /* \"#utility.yul\":23383:23389   */\n      dup3\n        /* \"#utility.yul\":23379:23393   */\n      add\n        /* \"#utility.yul\":23372:23430   */\n      mstore\n        /* \"#utility.yul\":23464:23477   */\n      0x73207468616e207a65726f000000000000000000000000000000000000000000\n        /* \"#utility.yul\":23459:23461   */\n      0x20\n        /* \"#utility.yul\":23451:23457   */\n      dup3\n        /* \"#utility.yul\":23447:23462   */\n      add\n        /* \"#utility.yul\":23440:23478   */\n      mstore\n        /* \"#utility.yul\":23255:23485   */\n      pop\n      jump\t// out\n        /* \"#utility.yul\":23491:23857   */\n    tag_195:\n        /* \"#utility.yul\":23633:23636   */\n      0x00\n        /* \"#utility.yul\":23654:23721   */\n      tag_446\n        /* \"#utility.yul\":23718:23720   */\n      0x2b\n        /* \"#utility.yul\":23713:23716   */\n      dup4\n        /* \"#utility.yul\":23654:23721   */\n      tag_154\n      jump\t// in\n    tag_446:\n        /* \"#utility.yul\":23647:23721   */\n      swap2\n      pop\n        /* \"#utility.yul\":23730:23823   */\n      tag_447\n        /* \"#utility.yul\":23819:23822   */\n      dup3\n        /* \"#utility.yul\":23730:23823   */\n      tag_194\n      jump\t// in\n    tag_447:\n        /* \"#utility.yul\":23848:23850   */\n      0x40\n        /* \"#utility.yul\":23843:23846   */\n      dup3\n        /* \"#utility.yul\":23839:23851   */\n      add\n        /* \"#utility.yul\":23832:23851   */\n      swap1\n      pop\n        /* \"#utility.yul\":23491:23857   */\n      swap2\n      swap1\n      pop\n      jump\t// out\n        /* \"#utility.yul\":23863:24282   */\n    tag_121:\n        /* \"#utility.yul\":24029:24033   */\n      0x00\n        /* \"#utility.yul\":24067:24069   */\n      0x20\n        /* \"#utility.yul\":24056:24065   */\n      dup3\n        /* \"#utility.yul\":24052:24070   */\n      add\n        /* \"#utility.yul\":24044:24070   */\n      swap1\n      pop\n        /* \"#utility.yul\":24116:24125   */\n      dup2\n        /* \"#utility.yul\":24110:24114   */\n      dup2\n        /* \"#utility.yul\":24106:24126   */\n      sub\n        /* \"#utility.yul\":24102:24103   */\n      0x00\n        /* \"#utility.yul\":24091:24100   */\n      dup4\n        /* \"#utility.yul\":24087:24104   */\n      add\n        /* \"#utility.yul\":24080:24127   */\n      mstore\n        /* \"#utility.yul\":24144:24275   */\n      tag_449\n        /* \"#utility.yul\":24270:24274   */\n      dup2\n        /* \"#utility.yul\":24144:24275   */\n      tag_195\n      jump\t// in\n    tag_449:\n        /* \"#utility.yul\":24136:24275   */\n      swap1\n      pop\n        /* \"#utility.yul\":23863:24282   */\n      swap2\n      swap1\n      pop\n      jump\t// out\n        /* \"#utility.yul\":24288:24465   */\n    tag_196:\n        /* \"#utility.yul\":24428:24457   */\n      0x496e7374727563746f722063616e6e6f74206265206120544121200000000000\n        /* \"#utility.yul\":24424:24425   */\n      0x00\n        /* \"#utility.yul\":24416:24422   */\n      dup3\n        /* \"#utility.yul\":24412:24426   */\n      add\n        /* \"#utility.yul\":24405:24458   */\n      mstore\n        /* \"#utility.yul\":24288:24465   */\n      pop\n      jump\t// out\n        /* \"#utility.yul\":24471:24837   */\n    tag_197:\n        /* \"#utility.yul\":24613:24616   */\n      0x00\n        /* \"#utility.yul\":24634:24701   */\n      tag_452\n        /* \"#utility.yul\":24698:24700   */\n      0x1b\n        /* \"#utility.yul\":24693:24696   */\n      dup4\n        /* \"#utility.yul\":24634:24701   */\n      tag_154\n      jump\t// in\n    tag_452:\n        /* \"#utility.yul\":24627:24701   */\n      swap2\n      pop\n        /* \"#utility.yul\":24710:24803   */\n      tag_453\n        /* \"#utility.yul\":24799:24802   */\n      dup3\n        /* \"#utility.yul\":24710:24803   */\n      tag_196\n      jump\t// in\n    tag_453:\n        /* \"#utility.yul\":24828:24830   */\n      0x20\n        /* \"#utility.yul\":24823:24826   */\n      dup3\n        /* \"#utility.yul\":24819:24831   */\n      add\n        /* \"#utility.yul\":24812:24831   */\n      swap1\n      pop\n        /* \"#utility.yul\":24471:24837   */\n      swap2\n      swap1\n      pop\n      jump\t// out\n        /* \"#utility.yul\":24843:25262   */\n    tag_127:\n        /* \"#utility.yul\":25009:25013   */\n      0x00\n        /* \"#utility.yul\":25047:25049   */\n      0x20\n        /* \"#utility.yul\":25036:25045   */\n      dup3\n        /* \"#utility.yul\":25032:25050   */\n      add\n        /* \"#utility.yul\":25024:25050   */\n      swap1\n      pop\n        /* \"#utility.yul\":25096:25105   */\n      dup2\n        /* \"#utility.yul\":25090:25094   */\n      dup2\n        /* \"#utility.yul\":25086:25106   */\n      sub\n        /* \"#utility.yul\":25082:25083   */\n      0x00\n        /* \"#utility.yul\":25071:25080   */\n      dup4\n        /* \"#utility.yul\":25067:25084   */\n      add\n        /* \"#utility.yul\":25060:25107   */\n      mstore\n        /* \"#utility.yul\":25124:25255   */\n      tag_455\n        /* \"#utility.yul\":25250:25254   */\n      dup2\n        /* \"#utility.yul\":25124:25255   */\n      tag_197\n      jump\t// in\n    tag_455:\n        /* \"#utility.yul\":25116:25255   */\n      swap1\n      pop\n        /* \"#utility.yul\":24843:25262   */\n      swap2\n      swap1\n      pop\n      jump\t// out\n        /* \"#utility.yul\":25268:25501   */\n    tag_198:\n        /* \"#utility.yul\":25408:25442   */\n      0x496e7374727563746f72206d757374206265207468652064657369676e61746f\n        /* \"#utility.yul\":25404:25405   */\n      0x00\n        /* \"#utility.yul\":25396:25402   */\n      dup3\n        /* \"#utility.yul\":25392:25406   */\n      add\n        /* \"#utility.yul\":25385:25443   */\n      mstore\n        /* \"#utility.yul\":25477:25493   */\n      0x72206f6620544120737461747573000000000000000000000000000000000000\n        /* \"#utility.yul\":25472:25474   */\n      0x20\n        /* \"#utility.yul\":25464:25470   */\n      dup3\n        /* \"#utility.yul\":25460:25475   */\n      add\n        /* \"#utility.yul\":25453:25494   */\n      mstore\n        /* \"#utility.yul\":25268:25501   */\n      pop\n      jump\t// out\n        /* \"#utility.yul\":25507:25873   */\n    tag_199:\n        /* \"#utility.yul\":25649:25652   */\n      0x00\n        /* \"#utility.yul\":25670:25737   */\n      tag_458\n        /* \"#utility.yul\":25734:25736   */\n      0x2e\n        /* \"#utility.yul\":25729:25732   */\n      dup4\n        /* \"#utility.yul\":25670:25737   */\n      tag_154\n      jump\t// in\n    tag_458:\n        /* \"#utility.yul\":25663:25737   */\n      swap2\n      pop\n        /* \"#utility.yul\":25746:25839   */\n      tag_459\n        /* \"#utility.yul\":25835:25838   */\n      dup3\n        /* \"#utility.yul\":25746:25839   */\n      tag_198\n      jump\t// in\n    tag_459:\n        /* \"#utility.yul\":25864:25866   */\n      0x40\n        /* \"#utility.yul\":25859:25862   */\n      dup3\n        /* \"#utility.yul\":25855:25867   */\n      add\n        /* \"#utility.yul\":25848:25867   */\n      swap1\n      pop\n        /* \"#utility.yul\":25507:25873   */\n      swap2\n      swap1\n      pop\n      jump\t// out\n        /* \"#utility.yul\":25879:26298   */\n    tag_130:\n        /* \"#utility.yul\":26045:26049   */\n      0x00\n        /* \"#utility.yul\":26083:26085   */\n      0x20\n        /* \"#utility.yul\":26072:26081   */\n      dup3\n        /* \"#utility.yul\":26068:26086   */\n      add\n        /* \"#utility.yul\":26060:26086   */\n      swap1\n      pop\n        /* \"#utility.yul\":26132:26141   */\n      dup2\n        /* \"#utility.yul\":26126:26130   */\n      dup2\n        /* \"#utility.yul\":26122:26142   */\n      sub\n        /* \"#utility.yul\":26118:26119   */\n      0x00\n        /* \"#utility.yul\":26107:26116   */\n      dup4\n        /* \"#utility.yul\":26103:26120   */\n      add\n        /* \"#utility.yul\":26096:26143   */\n      mstore\n        /* \"#utility.yul\":26160:26291   */\n      tag_461\n        /* \"#utility.yul\":26286:26290   */\n      dup2\n        /* \"#utility.yul\":26160:26291   */\n      tag_199\n      jump\t// in\n    tag_461:\n        /* \"#utility.yul\":26152:26291   */\n      swap1\n      pop\n        /* \"#utility.yul\":25879:26298   */\n      swap2\n      swap1\n      pop\n      jump\t// out\n\n    auxdata: 0xa2646970667358221220b9bbadf30fcf341d47e4f9c48def6203460407ef378de2a020b40e54f8dcd81064736f6c63430008120033\n}\n",
				"bytecode": {
					"linkReferences": {},
					"object": "608060405234801561001057600080fd5b5033600560006101000a81548173ffffffffffffffffffffffffffffffffffffffff021916908373ffffffffffffffffffffffffffffffffffffffff160217905550611a1e806100616000396000f3fe608060405234801561001057600080fd5b50600436106100b45760003560e01c806377ca29471161007157806377ca2947146101b35780637fc29673146101e35780639cfeb679146101ed578063a30254e714610209578063c7a9f77b14610239578063dfd68b9114610257576100b4565b806301ffc9a7146100b9578063077f3b02146100e957806353acf8831461011957806365dd2f691461014957806371ae413d146101795780637241d75f14610197575b600080fd5b6100d360048036038101906100ce9190610b8a565b610287565b6040516100e09190610bd2565b60405180910390f35b61010360048036038101906100fe9190610d69565b610321565b6040516101109190610dd4565b60405180910390f35b610133600480360381019061012e9190610def565b6104ec565b6040516101409190610e9b565b60405180910390f35b610163600480360381019061015e9190610ebd565b61058c565b6040516101709190610dd4565b60405180910390f35b61018161067e565b60405161018e9190610f47565b60405180910390f35b6101b160048036038101906101ac9190610f62565b6106a4565b005b6101cd60048036038101906101c89190610fd1565b6108d2565b6040516101da9190610dd4565b60405180910390f35b6101eb61090d565b005b61020760048036038101906102029190611059565b610966565b005b610223600480360381019061021e9190611059565b610ae0565b6040516102309190610bd2565b60405180910390f35b610241610b00565b60405161024e9190610dd4565b60405180910390f35b610271600480360381019061026c9190610def565b610b06565b60405161027e9190610dd4565b60405180910390f35b60007f1c95926d000000000000000000000000000000000000000000000000000000007bffffffffffffffffffffffffffffffffffffffffffffffffffffffff1916827bffffffffffffffffffffffffffffffffffffffffffffffffffffffff1916148061031a57506301ffc9a760e01b827bffffffffffffffffffffffffffffffffffffffffffffffffffffffff1916145b9050919050565b6000600560009054906101000a900473ffffffffffffffffffffffffffffffffffffffff1673ffffffffffffffffffffffffffffffffffffffff163373ffffffffffffffffffffffffffffffffffffffff1614806103ce5750600115156000803373ffffffffffffffffffffffffffffffffffffffff1673ffffffffffffffffffffffffffffffffffffffff16815260200190815260200160002060009054906101000a900460ff161515145b61040d576040517f08c379a0000000000000000000000000000000000000000000000000000000008152600401610404906110f8565b60405180910390fd5b6000821015610451576040517f08c379a000000000000000000000000000000000000000000000000000000000815260040161044890611164565b60405180910390fd5b816001600060045481526020019081526020016000208190555082600260006004548152602001908152602001600020908161048d9190611390565b506004547f1e5500ede7ec81cd4d6537a1a618f3424510f89d03c2252ee7c80e60a1278b6760405160405180910390a2600460008154809291906104d090611491565b919050555060016004546104e491906114d9565b905092915050565b6002602052806000526040600020600091509050805461050b906111b3565b80601f0160208091040260200160405190810160405280929190818152602001828054610537906111b3565b80156105845780601f1061055957610100808354040283529160200191610584565b820191906000526020600020905b81548152906001019060200180831161056757829003601f168201915b505050505081565b600080600090506000805b600454811015610612576001600082815260200190815260200160002054836105c0919061150d565b925060036000828152602001908152602001600020856040516105e3919061157d565b908152602001604051809103902054826105fd919061150d565b9150808061060a90611491565b915050610597565b5060008211610656576040517f08c379a000000000000000000000000000000000000000000000000000000000815260040161064d90611606565b60405180910390fd5b600082612710836106679190611626565b6106719190611697565b9050809350505050919050565b600560009054906101000a900473ffffffffffffffffffffffffffffffffffffffff1681565b600560009054906101000a900473ffffffffffffffffffffffffffffffffffffffff1673ffffffffffffffffffffffffffffffffffffffff163373ffffffffffffffffffffffffffffffffffffffff16148061074f5750600115156000803373ffffffffffffffffffffffffffffffffffffffff1673ffffffffffffffffffffffffffffffffffffffff16815260200190815260200160002060009054906101000a900460ff161515145b61078e576040517f08c379a00000000000000000000000000000000000000000000000000000000081526004016107859061173a565b60405180910390fd5b60045482106107d2576040517f08c379a00000000000000000000000000000000000000000000000000000000081526004016107c9906117a6565b60405180910390fd5b8060016000848152602001908152602001600020541015610828576040517f08c379a000000000000000000000000000000000000000000000000000000000815260040161081f90611838565b60405180910390fd5b600081101561086c576040517f08c379a0000000000000000000000000000000000000000000000000000000008152600401610863906118ca565b60405180910390fd5b80600360008481526020019081526020016000208460405161088e919061157d565b908152602001604051809103902081905550817fef2ac44e203202a0e5ecc9974197e85354c58fc899e46eaa72f8aed9aa0b701d60405160405180910390a2505050565b600360205281600052604060002081805160208101820180518482526020830160208501208183528095505050505050600091509150505481565b60016000803373ffffffffffffffffffffffffffffffffffffffff1673ffffffffffffffffffffffffffffffffffffffff16815260200190815260200160002060006101000a81548160ff021916908315150217905550565b600560009054906101000a900473ffffffffffffffffffffffffffffffffffffffff1673ffffffffffffffffffffffffffffffffffffffff168173ffffffffffffffffffffffffffffffffffffffff16036109f6576040517f08c379a00000000000000000000000000000000000000000000000000000000081526004016109ed90611936565b60405180910390fd5b600560009054906101000a900473ffffffffffffffffffffffffffffffffffffffff1673ffffffffffffffffffffffffffffffffffffffff163373ffffffffffffffffffffffffffffffffffffffff1614610a86576040517f08c379a0000000000000000000000000000000000000000000000000000000008152600401610a7d906119c8565b60405180910390fd5b60016000808373ffffffffffffffffffffffffffffffffffffffff1673ffffffffffffffffffffffffffffffffffffffff16815260200190815260200160002060006101000a81548160ff02191690831515021790555050565b60006020528060005260406000206000915054906101000a900460ff1681565b60045481565b60016020528060005260406000206000915090505481565b6000604051905090565b600080fd5b600080fd5b60007fffffffff0000000000000000000000000000000000000000000000000000000082169050919050565b610b6781610b32565b8114610b7257600080fd5b50565b600081359050610b8481610b5e565b92915050565b600060208284031215610ba057610b9f610b28565b5b6000610bae84828501610b75565b91505092915050565b60008115159050919050565b610bcc81610bb7565b82525050565b6000602082019050610be76000830184610bc3565b92915050565b600080fd5b600080fd5b6000601f19601f8301169050919050565b7f4e487b7100000000000000000000000000000000000000000000000000000000600052604160045260246000fd5b610c4082610bf7565b810181811067ffffffffffffffff82111715610c5f57610c5e610c08565b5b80604052505050565b6000610c72610b1e565b9050610c7e8282610c37565b919050565b600067ffffffffffffffff821115610c9e57610c9d610c08565b5b610ca782610bf7565b9050602081019050919050565b82818337600083830152505050565b6000610cd6610cd184610c83565b610c68565b905082815260208101848484011115610cf257610cf1610bf2565b5b610cfd848285610cb4565b509392505050565b600082601f830112610d1a57610d19610bed565b5b8135610d2a848260208601610cc3565b91505092915050565b6000819050919050565b610d4681610d33565b8114610d5157600080fd5b50565b600081359050610d6381610d3d565b92915050565b60008060408385031215610d8057610d7f610b28565b5b600083013567ffffffffffffffff811115610d9e57610d9d610b2d565b5b610daa85828601610d05565b9250506020610dbb85828601610d54565b9150509250929050565b610dce81610d33565b82525050565b6000602082019050610de96000830184610dc5565b92915050565b600060208284031215610e0557610e04610b28565b5b6000610e1384828501610d54565b91505092915050565b600081519050919050565b600082825260208201905092915050565b60005b83811015610e56578082015181840152602081019050610e3b565b60008484015250505050565b6000610e6d82610e1c565b610e778185610e27565b9350610e87818560208601610e38565b610e9081610bf7565b840191505092915050565b60006020820190508181036000830152610eb58184610e62565b905092915050565b600060208284031215610ed357610ed2610b28565b5b600082013567ffffffffffffffff811115610ef157610ef0610b2d565b5b610efd84828501610d05565b91505092915050565b600073ffffffffffffffffffffffffffffffffffffffff82169050919050565b6000610f3182610f06565b9050919050565b610f4181610f26565b82525050565b6000602082019050610f5c6000830184610f38565b92915050565b600080600060608486031215610f7b57610f7a610b28565b5b600084013567ffffffffffffffff811115610f9957610f98610b2d565b5b610fa586828701610d05565b9350506020610fb686828701610d54565b9250506040610fc786828701610d54565b9150509250925092565b60008060408385031215610fe857610fe7610b28565b5b6000610ff685828601610d54565b925050602083013567ffffffffffffffff81111561101757611016610b2d565b5b61102385828601610d05565b9150509250929050565b61103681610f26565b811461104157600080fd5b50565b6000813590506110538161102d565b92915050565b60006020828403121561106f5761106e610b28565b5b600061107d84828501611044565b91505092915050565b7f43726561746f72206f662061737369676e6d656e74206973206e6f7420616e2060008201527f696e7374727563746f72206f7220544100000000000000000000000000000000602082015250565b60006110e2603083610e27565b91506110ed82611086565b604082019050919050565b60006020820190508181036000830152611111816110d5565b9050919050565b7f6d61782073636f72652063616e6e6f74206265206e6567617469766500000000600082015250565b600061114e601c83610e27565b915061115982611118565b602082019050919050565b6000602082019050818103600083015261117d81611141565b9050919050565b7f4e487b7100000000000000000000000000000000000000000000000000000000600052602260045260246000fd5b600060028204905060018216806111cb57607f821691505b6020821081036111de576111dd611184565b5b50919050565b60008190508160005260206000209050919050565b60006020601f8301049050919050565b600082821b905092915050565b6000600883026112467fffffffffffffffffffffffffffffffffffffffffffffffffffffffffffffffff82611209565b6112508683611209565b95508019841693508086168417925050509392505050565b6000819050919050565b600061128d61128861128384610d33565b611268565b610d33565b9050919050565b6000819050919050565b6112a783611272565b6112bb6112b382611294565b848454611216565b825550505050565b600090565b6112d06112c3565b6112db81848461129e565b505050565b5b818110156112ff576112f46000826112c8565b6001810190506112e1565b5050565b601f82111561134457611315816111e4565b61131e846111f9565b8101602085101561132d578190505b611341611339856111f9565b8301826112e0565b50505b505050565b600082821c905092915050565b600061136760001984600802611349565b1980831691505092915050565b60006113808383611356565b9150826002028217905092915050565b61139982610e1c565b67ffffffffffffffff8111156113b2576113b1610c08565b5b6113bc82546111b3565b6113c7828285611303565b600060209050601f8311600181146113fa57600084156113e8578287015190505b6113f28582611374565b86555061145a565b601f198416611408866111e4565b60005b828110156114305784890151825560018201915060208501945060208101905061140b565b8683101561144d5784890151611449601f891682611356565b8355505b6001600288020188555050505b505050505050565b7f4e487b7100000000000000000000000000000000000000000000000000000000600052601160045260246000fd5b600061149c82610d33565b91507fffffffffffffffffffffffffffffffffffffffffffffffffffffffffffffffff82036114ce576114cd611462565b5b600182019050919050565b60006114e482610d33565b91506114ef83610d33565b925082820390508181111561150757611506611462565b5b92915050565b600061151882610d33565b915061152383610d33565b925082820190508082111561153b5761153a611462565b5b92915050565b600081905092915050565b600061155782610e1c565b6115618185611541565b9350611571818560208601610e38565b80840191505092915050565b6000611589828461154c565b915081905092915050565b7f6d6178696d756d2073636f7265206973207a65726f2e2041737369676e6d656e60008201527f7473206e65656420746f20626520637265617465642066697273740000000000602082015250565b60006115f0603b83610e27565b91506115fb82611594565b604082019050919050565b6000602082019050818103600083015261161f816115e3565b9050919050565b600061163182610d33565b915061163c83610d33565b925082820261164a81610d33565b9150828204841483151761166157611660611462565b5b5092915050565b7f4e487b7100000000000000000000000000000000000000000000000000000000600052601260045260246000fd5b60006116a282610d33565b91506116ad83610d33565b9250826116bd576116bc611668565b5b828204905092915050565b7f4164646572206f662061737369676e6d656e74206973206e6f7420616e20696e60008201527f7374727563746f72206f72205441000000000000000000000000000000000000602082015250565b6000611724602e83610e27565b915061172f826116c8565b604082019050919050565b6000602082019050818103600083015261175381611717565b9050919050565b7f41737369676e6d656e74206964206973206e6f742076616c6964210000000000600082015250565b6000611790601b83610e27565b915061179b8261175a565b602082019050919050565b600060208201905081810360008301526117bf81611783565b9050919050565b7f53636f72652063616e277420626520686967686572207468616e20746865206d60008201527f6178000000000000000000000000000000000000000000000000000000000000602082015250565b6000611822602283610e27565b915061182d826117c6565b604082019050919050565b6000602082019050818103600083015261185181611815565b9050919050565b7f73636f7265206f6e2061737369676e6d656e742063616e2774206265206c657360008201527f73207468616e207a65726f000000000000000000000000000000000000000000602082015250565b60006118b4602b83610e27565b91506118bf82611858565b604082019050919050565b600060208201905081810360008301526118e3816118a7565b9050919050565b7f496e7374727563746f722063616e6e6f74206265206120544121200000000000600082015250565b6000611920601b83610e27565b915061192b826118ea565b602082019050919050565b6000602082019050818103600083015261194f81611913565b9050919050565b7f496e7374727563746f72206d757374206265207468652064657369676e61746f60008201527f72206f6620544120737461747573000000000000000000000000000000000000602082015250565b60006119b2602e83610e27565b91506119bd82611956565b604082019050919050565b600060208201905081810360008301526119e1816119a5565b905091905056fea2646970667358221220b9bbadf30fcf341d47e4f9c48def6203460407ef378de2a020b40e54f8dcd81064736f6c63430008120033",
					"opcodes": "PUSH1 0x80 PUSH1 0x40 MSTORE CALLVALUE DUP1 ISZERO PUSH2 0x10 JUMPI PUSH1 0x0 DUP1 REVERT JUMPDEST POP CALLER PUSH1 0x5 PUSH1 0x0 PUSH2 0x100 EXP DUP2 SLOAD DUP2 PUSH20 0xFFFFFFFFFFFFFFFFFFFFFFFFFFFFFFFFFFFFFFFF MUL NOT AND SWAP1 DUP4 PUSH20 0xFFFFFFFFFFFFFFFFFFFFFFFFFFFFFFFFFFFFFFFF AND MUL OR SWAP1 SSTORE POP PUSH2 0x1A1E DUP1 PUSH2 0x61 PUSH1 0x0 CODECOPY PUSH1 0x0 RETURN INVALID PUSH1 0x80 PUSH1 0x40 MSTORE CALLVALUE DUP1 ISZERO PUSH2 0x10 JUMPI PUSH1 0x0 DUP1 REVERT JUMPDEST POP PUSH1 0x4 CALLDATASIZE LT PUSH2 0xB4 JUMPI PUSH1 0x0 CALLDATALOAD PUSH1 0xE0 SHR DUP1 PUSH4 0x77CA2947 GT PUSH2 0x71 JUMPI DUP1 PUSH4 0x77CA2947 EQ PUSH2 0x1B3 JUMPI DUP1 PUSH4 0x7FC29673 EQ PUSH2 0x1E3 JUMPI DUP1 PUSH4 0x9CFEB679 EQ PUSH2 0x1ED JUMPI DUP1 PUSH4 0xA30254E7 EQ PUSH2 0x209 JUMPI DUP1 PUSH4 0xC7A9F77B EQ PUSH2 0x239 JUMPI DUP1 PUSH4 0xDFD68B91 EQ PUSH2 0x257 JUMPI PUSH2 0xB4 JUMP JUMPDEST DUP1 PUSH4 0x1FFC9A7 EQ PUSH2 0xB9 JUMPI DUP1 PUSH4 0x77F3B02 EQ PUSH2 0xE9 JUMPI DUP1 PUSH4 0x53ACF883 EQ PUSH2 0x119 JUMPI DUP1 PUSH4 0x65DD2F69 EQ PUSH2 0x149 JUMPI DUP1 PUSH4 0x71AE413D EQ PUSH2 0x179 JUMPI DUP1 PUSH4 0x7241D75F EQ PUSH2 0x197 JUMPI JUMPDEST PUSH1 0x0 DUP1 REVERT JUMPDEST PUSH2 0xD3 PUSH1 0x4 DUP1 CALLDATASIZE SUB DUP2 ADD SWAP1 PUSH2 0xCE SWAP2 SWAP1 PUSH2 0xB8A JUMP JUMPDEST PUSH2 0x287 JUMP JUMPDEST PUSH1 0x40 MLOAD PUSH2 0xE0 SWAP2 SWAP1 PUSH2 0xBD2 JUMP JUMPDEST PUSH1 0x40 MLOAD DUP1 SWAP2 SUB SWAP1 RETURN JUMPDEST PUSH2 0x103 PUSH1 0x4 DUP1 CALLDATASIZE SUB DUP2 ADD SWAP1 PUSH2 0xFE SWAP2 SWAP1 PUSH2 0xD69 JUMP JUMPDEST PUSH2 0x321 JUMP JUMPDEST PUSH1 0x40 MLOAD PUSH2 0x110 SWAP2 SWAP1 PUSH2 0xDD4 JUMP JUMPDEST PUSH1 0x40 MLOAD DUP1 SWAP2 SUB SWAP1 RETURN JUMPDEST PUSH2 0x133 PUSH1 0x4 DUP1 CALLDATASIZE SUB DUP2 ADD SWAP1 PUSH2 0x12E SWAP2 SWAP1 PUSH2 0xDEF JUMP JUMPDEST PUSH2 0x4EC JUMP JUMPDEST PUSH1 0x40 MLOAD PUSH2 0x140 SWAP2 SWAP1 PUSH2 0xE9B JUMP JUMPDEST PUSH1 0x40 MLOAD DUP1 SWAP2 SUB SWAP1 RETURN JUMPDEST PUSH2 0x163 PUSH1 0x4 DUP1 CALLDATASIZE SUB DUP2 ADD SWAP1 PUSH2 0x15E SWAP2 SWAP1 PUSH2 0xEBD JUMP JUMPDEST PUSH2 0x58C JUMP JUMPDEST PUSH1 0x40 MLOAD PUSH2 0x170 SWAP2 SWAP1 PUSH2 0xDD4 JUMP JUMPDEST PUSH1 0x40 MLOAD DUP1 SWAP2 SUB SWAP1 RETURN JUMPDEST PUSH2 0x181 PUSH2 0x67E JUMP JUMPDEST PUSH1 0x40 MLOAD PUSH2 0x18E SWAP2 SWAP1 PUSH2 0xF47 JUMP JUMPDEST PUSH1 0x40 MLOAD DUP1 SWAP2 SUB SWAP1 RETURN JUMPDEST PUSH2 0x1B1 PUSH1 0x4 DUP1 CALLDATASIZE SUB DUP2 ADD SWAP1 PUSH2 0x1AC SWAP2 SWAP1 PUSH2 0xF62 JUMP JUMPDEST PUSH2 0x6A4 JUMP JUMPDEST STOP JUMPDEST PUSH2 0x1CD PUSH1 0x4 DUP1 CALLDATASIZE SUB DUP2 ADD SWAP1 PUSH2 0x1C8 SWAP2 SWAP1 PUSH2 0xFD1 JUMP JUMPDEST PUSH2 0x8D2 JUMP JUMPDEST PUSH1 0x40 MLOAD PUSH2 0x1DA SWAP2 SWAP1 PUSH2 0xDD4 JUMP JUMPDEST PUSH1 0x40 MLOAD DUP1 SWAP2 SUB SWAP1 RETURN JUMPDEST PUSH2 0x1EB PUSH2 0x90D JUMP JUMPDEST STOP JUMPDEST PUSH2 0x207 PUSH1 0x4 DUP1 CALLDATASIZE SUB DUP2 ADD SWAP1 PUSH2 0x202 SWAP2 SWAP1 PUSH2 0x1059 JUMP JUMPDEST PUSH2 0x966 JUMP JUMPDEST STOP JUMPDEST PUSH2 0x223 PUSH1 0x4 DUP1 CALLDATASIZE SUB DUP2 ADD SWAP1 PUSH2 0x21E SWAP2 SWAP1 PUSH2 0x1059 JUMP JUMPDEST PUSH2 0xAE0 JUMP JUMPDEST PUSH1 0x40 MLOAD PUSH2 0x230 SWAP2 SWAP1 PUSH2 0xBD2 JUMP JUMPDEST PUSH1 0x40 MLOAD DUP1 SWAP2 SUB SWAP1 RETURN JUMPDEST PUSH2 0x241 PUSH2 0xB00 JUMP JUMPDEST PUSH1 0x40 MLOAD PUSH2 0x24E SWAP2 SWAP1 PUSH2 0xDD4 JUMP JUMPDEST PUSH1 0x40 MLOAD DUP1 SWAP2 SUB SWAP1 RETURN JUMPDEST PUSH2 0x271 PUSH1 0x4 DUP1 CALLDATASIZE SUB DUP2 ADD SWAP1 PUSH2 0x26C SWAP2 SWAP1 PUSH2 0xDEF JUMP JUMPDEST PUSH2 0xB06 JUMP JUMPDEST PUSH1 0x40 MLOAD PUSH2 0x27E SWAP2 SWAP1 PUSH2 0xDD4 JUMP JUMPDEST PUSH1 0x40 MLOAD DUP1 SWAP2 SUB SWAP1 RETURN JUMPDEST PUSH1 0x0 PUSH32 0x1C95926D00000000000000000000000000000000000000000000000000000000 PUSH28 0xFFFFFFFFFFFFFFFFFFFFFFFFFFFFFFFFFFFFFFFFFFFFFFFFFFFFFFFF NOT AND DUP3 PUSH28 0xFFFFFFFFFFFFFFFFFFFFFFFFFFFFFFFFFFFFFFFFFFFFFFFFFFFFFFFF NOT AND EQ DUP1 PUSH2 0x31A JUMPI POP PUSH4 0x1FFC9A7 PUSH1 0xE0 SHL DUP3 PUSH28 0xFFFFFFFFFFFFFFFFFFFFFFFFFFFFFFFFFFFFFFFFFFFFFFFFFFFFFFFF NOT AND EQ JUMPDEST SWAP1 POP SWAP2 SWAP1 POP JUMP JUMPDEST PUSH1 0x0 PUSH1 0x5 PUSH1 0x0 SWAP1 SLOAD SWAP1 PUSH2 0x100 EXP SWAP1 DIV PUSH20 0xFFFFFFFFFFFFFFFFFFFFFFFFFFFFFFFFFFFFFFFF AND PUSH20 0xFFFFFFFFFFFFFFFFFFFFFFFFFFFFFFFFFFFFFFFF AND CALLER PUSH20 0xFFFFFFFFFFFFFFFFFFFFFFFFFFFFFFFFFFFFFFFF AND EQ DUP1 PUSH2 0x3CE JUMPI POP PUSH1 0x1 ISZERO ISZERO PUSH1 0x0 DUP1 CALLER PUSH20 0xFFFFFFFFFFFFFFFFFFFFFFFFFFFFFFFFFFFFFFFF AND PUSH20 0xFFFFFFFFFFFFFFFFFFFFFFFFFFFFFFFFFFFFFFFF AND DUP2 MSTORE PUSH1 0x20 ADD SWAP1 DUP2 MSTORE PUSH1 0x20 ADD PUSH1 0x0 KECCAK256 PUSH1 0x0 SWAP1 SLOAD SWAP1 PUSH2 0x100 EXP SWAP1 DIV PUSH1 0xFF AND ISZERO ISZERO EQ JUMPDEST PUSH2 0x40D JUMPI PUSH1 0x40 MLOAD PUSH32 0x8C379A000000000000000000000000000000000000000000000000000000000 DUP2 MSTORE PUSH1 0x4 ADD PUSH2 0x404 SWAP1 PUSH2 0x10F8 JUMP JUMPDEST PUSH1 0x40 MLOAD DUP1 SWAP2 SUB SWAP1 REVERT JUMPDEST PUSH1 0x0 DUP3 LT ISZERO PUSH2 0x451 JUMPI PUSH1 0x40 MLOAD PUSH32 0x8C379A000000000000000000000000000000000000000000000000000000000 DUP2 MSTORE PUSH1 0x4 ADD PUSH2 0x448 SWAP1 PUSH2 0x1164 JUMP JUMPDEST PUSH1 0x40 MLOAD DUP1 SWAP2 SUB SWAP1 REVERT JUMPDEST DUP2 PUSH1 0x1 PUSH1 0x0 PUSH1 0x4 SLOAD DUP2 MSTORE PUSH1 0x20 ADD SWAP1 DUP2 MSTORE PUSH1 0x20 ADD PUSH1 0x0 KECCAK256 DUP2 SWAP1 SSTORE POP DUP3 PUSH1 0x2 PUSH1 0x0 PUSH1 0x4 SLOAD DUP2 MSTORE PUSH1 0x20 ADD SWAP1 DUP2 MSTORE PUSH1 0x20 ADD PUSH1 0x0 KECCAK256 SWAP1 DUP2 PUSH2 0x48D SWAP2 SWAP1 PUSH2 0x1390 JUMP JUMPDEST POP PUSH1 0x4 SLOAD PUSH32 0x1E5500EDE7EC81CD4D6537A1A618F3424510F89D03C2252EE7C80E60A1278B67 PUSH1 0x40 MLOAD PUSH1 0x40 MLOAD DUP1 SWAP2 SUB SWAP1 LOG2 PUSH1 0x4 PUSH1 0x0 DUP2 SLOAD DUP1 SWAP3 SWAP2 SWAP1 PUSH2 0x4D0 SWAP1 PUSH2 0x1491 JUMP JUMPDEST SWAP2 SWAP1 POP SSTORE POP PUSH1 0x1 PUSH1 0x4 SLOAD PUSH2 0x4E4 SWAP2 SWAP1 PUSH2 0x14D9 JUMP JUMPDEST SWAP1 POP SWAP3 SWAP2 POP POP JUMP JUMPDEST PUSH1 0x2 PUSH1 0x20 MSTORE DUP1 PUSH1 0x0 MSTORE PUSH1 0x40 PUSH1 0x0 KECCAK256 PUSH1 0x0 SWAP2 POP SWAP1 POP DUP1 SLOAD PUSH2 0x50B SWAP1 PUSH2 0x11B3 JUMP JUMPDEST DUP1 PUSH1 0x1F ADD PUSH1 0x20 DUP1 SWAP2 DIV MUL PUSH1 0x20 ADD PUSH1 0x40 MLOAD SWAP1 DUP2 ADD PUSH1 0x40 MSTORE DUP1 SWAP3 SWAP2 SWAP1 DUP2 DUP2 MSTORE PUSH1 0x20 ADD DUP3 DUP1 SLOAD PUSH2 0x537 SWAP1 PUSH2 0x11B3 JUMP JUMPDEST DUP1 ISZERO PUSH2 0x584 JUMPI DUP1 PUSH1 0x1F LT PUSH2 0x559 JUMPI PUSH2 0x100 DUP1 DUP4 SLOAD DIV MUL DUP4 MSTORE SWAP2 PUSH1 0x20 ADD SWAP2 PUSH2 0x584 JUMP JUMPDEST DUP3 ADD SWAP2 SWAP1 PUSH1 0x0 MSTORE PUSH1 0x20 PUSH1 0x0 KECCAK256 SWAP1 JUMPDEST DUP2 SLOAD DUP2 MSTORE SWAP1 PUSH1 0x1 ADD SWAP1 PUSH1 0x20 ADD DUP1 DUP4 GT PUSH2 0x567 JUMPI DUP3 SWAP1 SUB PUSH1 0x1F AND DUP3 ADD SWAP2 JUMPDEST POP POP POP POP POP DUP2 JUMP JUMPDEST PUSH1 0x0 DUP1 PUSH1 0x0 SWAP1 POP PUSH1 0x0 DUP1 JUMPDEST PUSH1 0x4 SLOAD DUP2 LT ISZERO PUSH2 0x612 JUMPI PUSH1 0x1 PUSH1 0x0 DUP3 DUP2 MSTORE PUSH1 0x20 ADD SWAP1 DUP2 MSTORE PUSH1 0x20 ADD PUSH1 0x0 KECCAK256 SLOAD DUP4 PUSH2 0x5C0 SWAP2 SWAP1 PUSH2 0x150D JUMP JUMPDEST SWAP3 POP PUSH1 0x3 PUSH1 0x0 DUP3 DUP2 MSTORE PUSH1 0x20 ADD SWAP1 DUP2 MSTORE PUSH1 0x20 ADD PUSH1 0x0 KECCAK256 DUP6 PUSH1 0x40 MLOAD PUSH2 0x5E3 SWAP2 SWAP1 PUSH2 0x157D JUMP JUMPDEST SWAP1 DUP2 MSTORE PUSH1 0x20 ADD PUSH1 0x40 MLOAD DUP1 SWAP2 SUB SWAP1 KECCAK256 SLOAD DUP3 PUSH2 0x5FD SWAP2 SWAP1 PUSH2 0x150D JUMP JUMPDEST SWAP2 POP DUP1 DUP1 PUSH2 0x60A SWAP1 PUSH2 0x1491 JUMP JUMPDEST SWAP2 POP POP PUSH2 0x597 JUMP JUMPDEST POP PUSH1 0x0 DUP3 GT PUSH2 0x656 JUMPI PUSH1 0x40 MLOAD PUSH32 0x8C379A000000000000000000000000000000000000000000000000000000000 DUP2 MSTORE PUSH1 0x4 ADD PUSH2 0x64D SWAP1 PUSH2 0x1606 JUMP JUMPDEST PUSH1 0x40 MLOAD DUP1 SWAP2 SUB SWAP1 REVERT JUMPDEST PUSH1 0x0 DUP3 PUSH2 0x2710 DUP4 PUSH2 0x667 SWAP2 SWAP1 PUSH2 0x1626 JUMP JUMPDEST PUSH2 0x671 SWAP2 SWAP1 PUSH2 0x1697 JUMP JUMPDEST SWAP1 POP DUP1 SWAP4 POP POP POP POP SWAP2 SWAP1 POP JUMP JUMPDEST PUSH1 0x5 PUSH1 0x0 SWAP1 SLOAD SWAP1 PUSH2 0x100 EXP SWAP1 DIV PUSH20 0xFFFFFFFFFFFFFFFFFFFFFFFFFFFFFFFFFFFFFFFF AND DUP2 JUMP JUMPDEST PUSH1 0x5 PUSH1 0x0 SWAP1 SLOAD SWAP1 PUSH2 0x100 EXP SWAP1 DIV PUSH20 0xFFFFFFFFFFFFFFFFFFFFFFFFFFFFFFFFFFFFFFFF AND PUSH20 0xFFFFFFFFFFFFFFFFFFFFFFFFFFFFFFFFFFFFFFFF AND CALLER PUSH20 0xFFFFFFFFFFFFFFFFFFFFFFFFFFFFFFFFFFFFFFFF AND EQ DUP1 PUSH2 0x74F JUMPI POP PUSH1 0x1 ISZERO ISZERO PUSH1 0x0 DUP1 CALLER PUSH20 0xFFFFFFFFFFFFFFFFFFFFFFFFFFFFFFFFFFFFFFFF AND PUSH20 0xFFFFFFFFFFFFFFFFFFFFFFFFFFFFFFFFFFFFFFFF AND DUP2 MSTORE PUSH1 0x20 ADD SWAP1 DUP2 MSTORE PUSH1 0x20 ADD PUSH1 0x0 KECCAK256 PUSH1 0x0 SWAP1 SLOAD SWAP1 PUSH2 0x100 EXP SWAP1 DIV PUSH1 0xFF AND ISZERO ISZERO EQ JUMPDEST PUSH2 0x78E JUMPI PUSH1 0x40 MLOAD PUSH32 0x8C379A000000000000000000000000000000000000000000000000000000000 DUP2 MSTORE PUSH1 0x4 ADD PUSH2 0x785 SWAP1 PUSH2 0x173A JUMP JUMPDEST PUSH1 0x40 MLOAD DUP1 SWAP2 SUB SWAP1 REVERT JUMPDEST PUSH1 0x4 SLOAD DUP3 LT PUSH2 0x7D2 JUMPI PUSH1 0x40 MLOAD PUSH32 0x8C379A000000000000000000000000000000000000000000000000000000000 DUP2 MSTORE PUSH1 0x4 ADD PUSH2 0x7C9 SWAP1 PUSH2 0x17A6 JUMP JUMPDEST PUSH1 0x40 MLOAD DUP1 SWAP2 SUB SWAP1 REVERT JUMPDEST DUP1 PUSH1 0x1 PUSH1 0x0 DUP5 DUP2 MSTORE PUSH1 0x20 ADD SWAP1 DUP2 MSTORE PUSH1 0x20 ADD PUSH1 0x0 KECCAK256 SLOAD LT ISZERO PUSH2 0x828 JUMPI PUSH1 0x40 MLOAD PUSH32 0x8C379A000000000000000000000000000000000000000000000000000000000 DUP2 MSTORE PUSH1 0x4 ADD PUSH2 0x81F SWAP1 PUSH2 0x1838 JUMP JUMPDEST PUSH1 0x40 MLOAD DUP1 SWAP2 SUB SWAP1 REVERT JUMPDEST PUSH1 0x0 DUP2 LT ISZERO PUSH2 0x86C JUMPI PUSH1 0x40 MLOAD PUSH32 0x8C379A000000000000000000000000000000000000000000000000000000000 DUP2 MSTORE PUSH1 0x4 ADD PUSH2 0x863 SWAP1 PUSH2 0x18CA JUMP JUMPDEST PUSH1 0x40 MLOAD DUP1 SWAP2 SUB SWAP1 REVERT JUMPDEST DUP1 PUSH1 0x3 PUSH1 0x0 DUP5 DUP2 MSTORE PUSH1 0x20 ADD SWAP1 DUP2 MSTORE PUSH1 0x20 ADD PUSH1 0x0 KECCAK256 DUP5 PUSH1 0x40 MLOAD PUSH2 0x88E SWAP2 SWAP1 PUSH2 0x157D JUMP JUMPDEST SWAP1 DUP2 MSTORE PUSH1 0x20 ADD PUSH1 0x40 MLOAD DUP1 SWAP2 SUB SWAP1 KECCAK256 DUP2 SWAP1 SSTORE POP DUP2 PUSH32 0xEF2AC44E203202A0E5ECC9974197E85354C58FC899E46EAA72F8AED9AA0B701D PUSH1 0x40 MLOAD PUSH1 0x40 MLOAD DUP1 SWAP2 SUB SWAP1 LOG2 POP POP POP JUMP JUMPDEST PUSH1 0x3 PUSH1 0x20 MSTORE DUP2 PUSH1 0x0 MSTORE PUSH1 0x40 PUSH1 0x0 KECCAK256 DUP2 DUP1 MLOAD PUSH1 0x20 DUP2 ADD DUP3 ADD DUP1 MLOAD DUP5 DUP3 MSTORE PUSH1 0x20 DUP4 ADD PUSH1 0x20 DUP6 ADD KECCAK256 DUP2 DUP4 MSTORE DUP1 SWAP6 POP POP POP POP POP POP PUSH1 0x0 SWAP2 POP SWAP2 POP POP SLOAD DUP2 JUMP JUMPDEST PUSH1 0x1 PUSH1 0x0 DUP1 CALLER PUSH20 0xFFFFFFFFFFFFFFFFFFFFFFFFFFFFFFFFFFFFFFFF AND PUSH20 0xFFFFFFFFFFFFFFFFFFFFFFFFFFFFFFFFFFFFFFFF AND DUP2 MSTORE PUSH1 0x20 ADD SWAP1 DUP2 MSTORE PUSH1 0x20 ADD PUSH1 0x0 KECCAK256 PUSH1 0x0 PUSH2 0x100 EXP DUP2 SLOAD DUP2 PUSH1 0xFF MUL NOT AND SWAP1 DUP4 ISZERO ISZERO MUL OR SWAP1 SSTORE POP JUMP JUMPDEST PUSH1 0x5 PUSH1 0x0 SWAP1 SLOAD SWAP1 PUSH2 0x100 EXP SWAP1 DIV PUSH20 0xFFFFFFFFFFFFFFFFFFFFFFFFFFFFFFFFFFFFFFFF AND PUSH20 0xFFFFFFFFFFFFFFFFFFFFFFFFFFFFFFFFFFFFFFFF AND DUP2 PUSH20 0xFFFFFFFFFFFFFFFFFFFFFFFFFFFFFFFFFFFFFFFF AND SUB PUSH2 0x9F6 JUMPI PUSH1 0x40 MLOAD PUSH32 0x8C379A000000000000000000000000000000000000000000000000000000000 DUP2 MSTORE PUSH1 0x4 ADD PUSH2 0x9ED SWAP1 PUSH2 0x1936 JUMP JUMPDEST PUSH1 0x40 MLOAD DUP1 SWAP2 SUB SWAP1 REVERT JUMPDEST PUSH1 0x5 PUSH1 0x0 SWAP1 SLOAD SWAP1 PUSH2 0x100 EXP SWAP1 DIV PUSH20 0xFFFFFFFFFFFFFFFFFFFFFFFFFFFFFFFFFFFFFFFF AND PUSH20 0xFFFFFFFFFFFFFFFFFFFFFFFFFFFFFFFFFFFFFFFF AND CALLER PUSH20 0xFFFFFFFFFFFFFFFFFFFFFFFFFFFFFFFFFFFFFFFF AND EQ PUSH2 0xA86 JUMPI PUSH1 0x40 MLOAD PUSH32 0x8C379A000000000000000000000000000000000000000000000000000000000 DUP2 MSTORE PUSH1 0x4 ADD PUSH2 0xA7D SWAP1 PUSH2 0x19C8 JUMP JUMPDEST PUSH1 0x40 MLOAD DUP1 SWAP2 SUB SWAP1 REVERT JUMPDEST PUSH1 0x1 PUSH1 0x0 DUP1 DUP4 PUSH20 0xFFFFFFFFFFFFFFFFFFFFFFFFFFFFFFFFFFFFFFFF AND PUSH20 0xFFFFFFFFFFFFFFFFFFFFFFFFFFFFFFFFFFFFFFFF AND DUP2 MSTORE PUSH1 0x20 ADD SWAP1 DUP2 MSTORE PUSH1 0x20 ADD PUSH1 0x0 KECCAK256 PUSH1 0x0 PUSH2 0x100 EXP DUP2 SLOAD DUP2 PUSH1 0xFF MUL NOT AND SWAP1 DUP4 ISZERO ISZERO MUL OR SWAP1 SSTORE POP POP JUMP JUMPDEST PUSH1 0x0 PUSH1 0x20 MSTORE DUP1 PUSH1 0x0 MSTORE PUSH1 0x40 PUSH1 0x0 KECCAK256 PUSH1 0x0 SWAP2 POP SLOAD SWAP1 PUSH2 0x100 EXP SWAP1 DIV PUSH1 0xFF AND DUP2 JUMP JUMPDEST PUSH1 0x4 SLOAD DUP2 JUMP JUMPDEST PUSH1 0x1 PUSH1 0x20 MSTORE DUP1 PUSH1 0x0 MSTORE PUSH1 0x40 PUSH1 0x0 KECCAK256 PUSH1 0x0 SWAP2 POP SWAP1 POP SLOAD DUP2 JUMP JUMPDEST PUSH1 0x0 PUSH1 0x40 MLOAD SWAP1 POP SWAP1 JUMP JUMPDEST PUSH1 0x0 DUP1 REVERT JUMPDEST PUSH1 0x0 DUP1 REVERT JUMPDEST PUSH1 0x0 PUSH32 0xFFFFFFFF00000000000000000000000000000000000000000000000000000000 DUP3 AND SWAP1 POP SWAP2 SWAP1 POP JUMP JUMPDEST PUSH2 0xB67 DUP2 PUSH2 0xB32 JUMP JUMPDEST DUP2 EQ PUSH2 0xB72 JUMPI PUSH1 0x0 DUP1 REVERT JUMPDEST POP JUMP JUMPDEST PUSH1 0x0 DUP2 CALLDATALOAD SWAP1 POP PUSH2 0xB84 DUP2 PUSH2 0xB5E JUMP JUMPDEST SWAP3 SWAP2 POP POP JUMP JUMPDEST PUSH1 0x0 PUSH1 0x20 DUP3 DUP5 SUB SLT ISZERO PUSH2 0xBA0 JUMPI PUSH2 0xB9F PUSH2 0xB28 JUMP JUMPDEST JUMPDEST PUSH1 0x0 PUSH2 0xBAE DUP5 DUP3 DUP6 ADD PUSH2 0xB75 JUMP JUMPDEST SWAP2 POP POP SWAP3 SWAP2 POP POP JUMP JUMPDEST PUSH1 0x0 DUP2 ISZERO ISZERO SWAP1 POP SWAP2 SWAP1 POP JUMP JUMPDEST PUSH2 0xBCC DUP2 PUSH2 0xBB7 JUMP JUMPDEST DUP3 MSTORE POP POP JUMP JUMPDEST PUSH1 0x0 PUSH1 0x20 DUP3 ADD SWAP1 POP PUSH2 0xBE7 PUSH1 0x0 DUP4 ADD DUP5 PUSH2 0xBC3 JUMP JUMPDEST SWAP3 SWAP2 POP POP JUMP JUMPDEST PUSH1 0x0 DUP1 REVERT JUMPDEST PUSH1 0x0 DUP1 REVERT JUMPDEST PUSH1 0x0 PUSH1 0x1F NOT PUSH1 0x1F DUP4 ADD AND SWAP1 POP SWAP2 SWAP1 POP JUMP JUMPDEST PUSH32 0x4E487B7100000000000000000000000000000000000000000000000000000000 PUSH1 0x0 MSTORE PUSH1 0x41 PUSH1 0x4 MSTORE PUSH1 0x24 PUSH1 0x0 REVERT JUMPDEST PUSH2 0xC40 DUP3 PUSH2 0xBF7 JUMP JUMPDEST DUP2 ADD DUP2 DUP2 LT PUSH8 0xFFFFFFFFFFFFFFFF DUP3 GT OR ISZERO PUSH2 0xC5F JUMPI PUSH2 0xC5E PUSH2 0xC08 JUMP JUMPDEST JUMPDEST DUP1 PUSH1 0x40 MSTORE POP POP POP JUMP JUMPDEST PUSH1 0x0 PUSH2 0xC72 PUSH2 0xB1E JUMP JUMPDEST SWAP1 POP PUSH2 0xC7E DUP3 DUP3 PUSH2 0xC37 JUMP JUMPDEST SWAP2 SWAP1 POP JUMP JUMPDEST PUSH1 0x0 PUSH8 0xFFFFFFFFFFFFFFFF DUP3 GT ISZERO PUSH2 0xC9E JUMPI PUSH2 0xC9D PUSH2 0xC08 JUMP JUMPDEST JUMPDEST PUSH2 0xCA7 DUP3 PUSH2 0xBF7 JUMP JUMPDEST SWAP1 POP PUSH1 0x20 DUP2 ADD SWAP1 POP SWAP2 SWAP1 POP JUMP JUMPDEST DUP3 DUP2 DUP4 CALLDATACOPY PUSH1 0x0 DUP4 DUP4 ADD MSTORE POP POP POP JUMP JUMPDEST PUSH1 0x0 PUSH2 0xCD6 PUSH2 0xCD1 DUP5 PUSH2 0xC83 JUMP JUMPDEST PUSH2 0xC68 JUMP JUMPDEST SWAP1 POP DUP3 DUP2 MSTORE PUSH1 0x20 DUP2 ADD DUP5 DUP5 DUP5 ADD GT ISZERO PUSH2 0xCF2 JUMPI PUSH2 0xCF1 PUSH2 0xBF2 JUMP JUMPDEST JUMPDEST PUSH2 0xCFD DUP5 DUP3 DUP6 PUSH2 0xCB4 JUMP JUMPDEST POP SWAP4 SWAP3 POP POP POP JUMP JUMPDEST PUSH1 0x0 DUP3 PUSH1 0x1F DUP4 ADD SLT PUSH2 0xD1A JUMPI PUSH2 0xD19 PUSH2 0xBED JUMP JUMPDEST JUMPDEST DUP2 CALLDATALOAD PUSH2 0xD2A DUP5 DUP3 PUSH1 0x20 DUP7 ADD PUSH2 0xCC3 JUMP JUMPDEST SWAP2 POP POP SWAP3 SWAP2 POP POP JUMP JUMPDEST PUSH1 0x0 DUP2 SWAP1 POP SWAP2 SWAP1 POP JUMP JUMPDEST PUSH2 0xD46 DUP2 PUSH2 0xD33 JUMP JUMPDEST DUP2 EQ PUSH2 0xD51 JUMPI PUSH1 0x0 DUP1 REVERT JUMPDEST POP JUMP JUMPDEST PUSH1 0x0 DUP2 CALLDATALOAD SWAP1 POP PUSH2 0xD63 DUP2 PUSH2 0xD3D JUMP JUMPDEST SWAP3 SWAP2 POP POP JUMP JUMPDEST PUSH1 0x0 DUP1 PUSH1 0x40 DUP4 DUP6 SUB SLT ISZERO PUSH2 0xD80 JUMPI PUSH2 0xD7F PUSH2 0xB28 JUMP JUMPDEST JUMPDEST PUSH1 0x0 DUP4 ADD CALLDATALOAD PUSH8 0xFFFFFFFFFFFFFFFF DUP2 GT ISZERO PUSH2 0xD9E JUMPI PUSH2 0xD9D PUSH2 0xB2D JUMP JUMPDEST JUMPDEST PUSH2 0xDAA DUP6 DUP3 DUP7 ADD PUSH2 0xD05 JUMP JUMPDEST SWAP3 POP POP PUSH1 0x20 PUSH2 0xDBB DUP6 DUP3 DUP7 ADD PUSH2 0xD54 JUMP JUMPDEST SWAP2 POP POP SWAP3 POP SWAP3 SWAP1 POP JUMP JUMPDEST PUSH2 0xDCE DUP2 PUSH2 0xD33 JUMP JUMPDEST DUP3 MSTORE POP POP JUMP JUMPDEST PUSH1 0x0 PUSH1 0x20 DUP3 ADD SWAP1 POP PUSH2 0xDE9 PUSH1 0x0 DUP4 ADD DUP5 PUSH2 0xDC5 JUMP JUMPDEST SWAP3 SWAP2 POP POP JUMP JUMPDEST PUSH1 0x0 PUSH1 0x20 DUP3 DUP5 SUB SLT ISZERO PUSH2 0xE05 JUMPI PUSH2 0xE04 PUSH2 0xB28 JUMP JUMPDEST JUMPDEST PUSH1 0x0 PUSH2 0xE13 DUP5 DUP3 DUP6 ADD PUSH2 0xD54 JUMP JUMPDEST SWAP2 POP POP SWAP3 SWAP2 POP POP JUMP JUMPDEST PUSH1 0x0 DUP2 MLOAD SWAP1 POP SWAP2 SWAP1 POP JUMP JUMPDEST PUSH1 0x0 DUP3 DUP3 MSTORE PUSH1 0x20 DUP3 ADD SWAP1 POP SWAP3 SWAP2 POP POP JUMP JUMPDEST PUSH1 0x0 JUMPDEST DUP4 DUP2 LT ISZERO PUSH2 0xE56 JUMPI DUP1 DUP3 ADD MLOAD DUP2 DUP5 ADD MSTORE PUSH1 0x20 DUP2 ADD SWAP1 POP PUSH2 0xE3B JUMP JUMPDEST PUSH1 0x0 DUP5 DUP5 ADD MSTORE POP POP POP POP JUMP JUMPDEST PUSH1 0x0 PUSH2 0xE6D DUP3 PUSH2 0xE1C JUMP JUMPDEST PUSH2 0xE77 DUP2 DUP6 PUSH2 0xE27 JUMP JUMPDEST SWAP4 POP PUSH2 0xE87 DUP2 DUP6 PUSH1 0x20 DUP7 ADD PUSH2 0xE38 JUMP JUMPDEST PUSH2 0xE90 DUP2 PUSH2 0xBF7 JUMP JUMPDEST DUP5 ADD SWAP2 POP POP SWAP3 SWAP2 POP POP JUMP JUMPDEST PUSH1 0x0 PUSH1 0x20 DUP3 ADD SWAP1 POP DUP2 DUP2 SUB PUSH1 0x0 DUP4 ADD MSTORE PUSH2 0xEB5 DUP2 DUP5 PUSH2 0xE62 JUMP JUMPDEST SWAP1 POP SWAP3 SWAP2 POP POP JUMP JUMPDEST PUSH1 0x0 PUSH1 0x20 DUP3 DUP5 SUB SLT ISZERO PUSH2 0xED3 JUMPI PUSH2 0xED2 PUSH2 0xB28 JUMP JUMPDEST JUMPDEST PUSH1 0x0 DUP3 ADD CALLDATALOAD PUSH8 0xFFFFFFFFFFFFFFFF DUP2 GT ISZERO PUSH2 0xEF1 JUMPI PUSH2 0xEF0 PUSH2 0xB2D JUMP JUMPDEST JUMPDEST PUSH2 0xEFD DUP5 DUP3 DUP6 ADD PUSH2 0xD05 JUMP JUMPDEST SWAP2 POP POP SWAP3 SWAP2 POP POP JUMP JUMPDEST PUSH1 0x0 PUSH20 0xFFFFFFFFFFFFFFFFFFFFFFFFFFFFFFFFFFFFFFFF DUP3 AND SWAP1 POP SWAP2 SWAP1 POP JUMP JUMPDEST PUSH1 0x0 PUSH2 0xF31 DUP3 PUSH2 0xF06 JUMP JUMPDEST SWAP1 POP SWAP2 SWAP1 POP JUMP JUMPDEST PUSH2 0xF41 DUP2 PUSH2 0xF26 JUMP JUMPDEST DUP3 MSTORE POP POP JUMP JUMPDEST PUSH1 0x0 PUSH1 0x20 DUP3 ADD SWAP1 POP PUSH2 0xF5C PUSH1 0x0 DUP4 ADD DUP5 PUSH2 0xF38 JUMP JUMPDEST SWAP3 SWAP2 POP POP JUMP JUMPDEST PUSH1 0x0 DUP1 PUSH1 0x0 PUSH1 0x60 DUP5 DUP7 SUB SLT ISZERO PUSH2 0xF7B JUMPI PUSH2 0xF7A PUSH2 0xB28 JUMP JUMPDEST JUMPDEST PUSH1 0x0 DUP5 ADD CALLDATALOAD PUSH8 0xFFFFFFFFFFFFFFFF DUP2 GT ISZERO PUSH2 0xF99 JUMPI PUSH2 0xF98 PUSH2 0xB2D JUMP JUMPDEST JUMPDEST PUSH2 0xFA5 DUP7 DUP3 DUP8 ADD PUSH2 0xD05 JUMP JUMPDEST SWAP4 POP POP PUSH1 0x20 PUSH2 0xFB6 DUP7 DUP3 DUP8 ADD PUSH2 0xD54 JUMP JUMPDEST SWAP3 POP POP PUSH1 0x40 PUSH2 0xFC7 DUP7 DUP3 DUP8 ADD PUSH2 0xD54 JUMP JUMPDEST SWAP2 POP POP SWAP3 POP SWAP3 POP SWAP3 JUMP JUMPDEST PUSH1 0x0 DUP1 PUSH1 0x40 DUP4 DUP6 SUB SLT ISZERO PUSH2 0xFE8 JUMPI PUSH2 0xFE7 PUSH2 0xB28 JUMP JUMPDEST JUMPDEST PUSH1 0x0 PUSH2 0xFF6 DUP6 DUP3 DUP7 ADD PUSH2 0xD54 JUMP JUMPDEST SWAP3 POP POP PUSH1 0x20 DUP4 ADD CALLDATALOAD PUSH8 0xFFFFFFFFFFFFFFFF DUP2 GT ISZERO PUSH2 0x1017 JUMPI PUSH2 0x1016 PUSH2 0xB2D JUMP JUMPDEST JUMPDEST PUSH2 0x1023 DUP6 DUP3 DUP7 ADD PUSH2 0xD05 JUMP JUMPDEST SWAP2 POP POP SWAP3 POP SWAP3 SWAP1 POP JUMP JUMPDEST PUSH2 0x1036 DUP2 PUSH2 0xF26 JUMP JUMPDEST DUP2 EQ PUSH2 0x1041 JUMPI PUSH1 0x0 DUP1 REVERT JUMPDEST POP JUMP JUMPDEST PUSH1 0x0 DUP2 CALLDATALOAD SWAP1 POP PUSH2 0x1053 DUP2 PUSH2 0x102D JUMP JUMPDEST SWAP3 SWAP2 POP POP JUMP JUMPDEST PUSH1 0x0 PUSH1 0x20 DUP3 DUP5 SUB SLT ISZERO PUSH2 0x106F JUMPI PUSH2 0x106E PUSH2 0xB28 JUMP JUMPDEST JUMPDEST PUSH1 0x0 PUSH2 0x107D DUP5 DUP3 DUP6 ADD PUSH2 0x1044 JUMP JUMPDEST SWAP2 POP POP SWAP3 SWAP2 POP POP JUMP JUMPDEST PUSH32 0x43726561746F72206F662061737369676E6D656E74206973206E6F7420616E20 PUSH1 0x0 DUP3 ADD MSTORE PUSH32 0x696E7374727563746F72206F7220544100000000000000000000000000000000 PUSH1 0x20 DUP3 ADD MSTORE POP JUMP JUMPDEST PUSH1 0x0 PUSH2 0x10E2 PUSH1 0x30 DUP4 PUSH2 0xE27 JUMP JUMPDEST SWAP2 POP PUSH2 0x10ED DUP3 PUSH2 0x1086 JUMP JUMPDEST PUSH1 0x40 DUP3 ADD SWAP1 POP SWAP2 SWAP1 POP JUMP JUMPDEST PUSH1 0x0 PUSH1 0x20 DUP3 ADD SWAP1 POP DUP2 DUP2 SUB PUSH1 0x0 DUP4 ADD MSTORE PUSH2 0x1111 DUP2 PUSH2 0x10D5 JUMP JUMPDEST SWAP1 POP SWAP2 SWAP1 POP JUMP JUMPDEST PUSH32 0x6D61782073636F72652063616E6E6F74206265206E6567617469766500000000 PUSH1 0x0 DUP3 ADD MSTORE POP JUMP JUMPDEST PUSH1 0x0 PUSH2 0x114E PUSH1 0x1C DUP4 PUSH2 0xE27 JUMP JUMPDEST SWAP2 POP PUSH2 0x1159 DUP3 PUSH2 0x1118 JUMP JUMPDEST PUSH1 0x20 DUP3 ADD SWAP1 POP SWAP2 SWAP1 POP JUMP JUMPDEST PUSH1 0x0 PUSH1 0x20 DUP3 ADD SWAP1 POP DUP2 DUP2 SUB PUSH1 0x0 DUP4 ADD MSTORE PUSH2 0x117D DUP2 PUSH2 0x1141 JUMP JUMPDEST SWAP1 POP SWAP2 SWAP1 POP JUMP JUMPDEST PUSH32 0x4E487B7100000000000000000000000000000000000000000000000000000000 PUSH1 0x0 MSTORE PUSH1 0x22 PUSH1 0x4 MSTORE PUSH1 0x24 PUSH1 0x0 REVERT JUMPDEST PUSH1 0x0 PUSH1 0x2 DUP3 DIV SWAP1 POP PUSH1 0x1 DUP3 AND DUP1 PUSH2 0x11CB JUMPI PUSH1 0x7F DUP3 AND SWAP2 POP JUMPDEST PUSH1 0x20 DUP3 LT DUP2 SUB PUSH2 0x11DE JUMPI PUSH2 0x11DD PUSH2 0x1184 JUMP JUMPDEST JUMPDEST POP SWAP2 SWAP1 POP JUMP JUMPDEST PUSH1 0x0 DUP2 SWAP1 POP DUP2 PUSH1 0x0 MSTORE PUSH1 0x20 PUSH1 0x0 KECCAK256 SWAP1 POP SWAP2 SWAP1 POP JUMP JUMPDEST PUSH1 0x0 PUSH1 0x20 PUSH1 0x1F DUP4 ADD DIV SWAP1 POP SWAP2 SWAP1 POP JUMP JUMPDEST PUSH1 0x0 DUP3 DUP3 SHL SWAP1 POP SWAP3 SWAP2 POP POP JUMP JUMPDEST PUSH1 0x0 PUSH1 0x8 DUP4 MUL PUSH2 0x1246 PUSH32 0xFFFFFFFFFFFFFFFFFFFFFFFFFFFFFFFFFFFFFFFFFFFFFFFFFFFFFFFFFFFFFFFF DUP3 PUSH2 0x1209 JUMP JUMPDEST PUSH2 0x1250 DUP7 DUP4 PUSH2 0x1209 JUMP JUMPDEST SWAP6 POP DUP1 NOT DUP5 AND SWAP4 POP DUP1 DUP7 AND DUP5 OR SWAP3 POP POP POP SWAP4 SWAP3 POP POP POP JUMP JUMPDEST PUSH1 0x0 DUP2 SWAP1 POP SWAP2 SWAP1 POP JUMP JUMPDEST PUSH1 0x0 PUSH2 0x128D PUSH2 0x1288 PUSH2 0x1283 DUP5 PUSH2 0xD33 JUMP JUMPDEST PUSH2 0x1268 JUMP JUMPDEST PUSH2 0xD33 JUMP JUMPDEST SWAP1 POP SWAP2 SWAP1 POP JUMP JUMPDEST PUSH1 0x0 DUP2 SWAP1 POP SWAP2 SWAP1 POP JUMP JUMPDEST PUSH2 0x12A7 DUP4 PUSH2 0x1272 JUMP JUMPDEST PUSH2 0x12BB PUSH2 0x12B3 DUP3 PUSH2 0x1294 JUMP JUMPDEST DUP5 DUP5 SLOAD PUSH2 0x1216 JUMP JUMPDEST DUP3 SSTORE POP POP POP POP JUMP JUMPDEST PUSH1 0x0 SWAP1 JUMP JUMPDEST PUSH2 0x12D0 PUSH2 0x12C3 JUMP JUMPDEST PUSH2 0x12DB DUP2 DUP5 DUP5 PUSH2 0x129E JUMP JUMPDEST POP POP POP JUMP JUMPDEST JUMPDEST DUP2 DUP2 LT ISZERO PUSH2 0x12FF JUMPI PUSH2 0x12F4 PUSH1 0x0 DUP3 PUSH2 0x12C8 JUMP JUMPDEST PUSH1 0x1 DUP2 ADD SWAP1 POP PUSH2 0x12E1 JUMP JUMPDEST POP POP JUMP JUMPDEST PUSH1 0x1F DUP3 GT ISZERO PUSH2 0x1344 JUMPI PUSH2 0x1315 DUP2 PUSH2 0x11E4 JUMP JUMPDEST PUSH2 0x131E DUP5 PUSH2 0x11F9 JUMP JUMPDEST DUP2 ADD PUSH1 0x20 DUP6 LT ISZERO PUSH2 0x132D JUMPI DUP2 SWAP1 POP JUMPDEST PUSH2 0x1341 PUSH2 0x1339 DUP6 PUSH2 0x11F9 JUMP JUMPDEST DUP4 ADD DUP3 PUSH2 0x12E0 JUMP JUMPDEST POP POP JUMPDEST POP POP POP JUMP JUMPDEST PUSH1 0x0 DUP3 DUP3 SHR SWAP1 POP SWAP3 SWAP2 POP POP JUMP JUMPDEST PUSH1 0x0 PUSH2 0x1367 PUSH1 0x0 NOT DUP5 PUSH1 0x8 MUL PUSH2 0x1349 JUMP JUMPDEST NOT DUP1 DUP4 AND SWAP2 POP POP SWAP3 SWAP2 POP POP JUMP JUMPDEST PUSH1 0x0 PUSH2 0x1380 DUP4 DUP4 PUSH2 0x1356 JUMP JUMPDEST SWAP2 POP DUP3 PUSH1 0x2 MUL DUP3 OR SWAP1 POP SWAP3 SWAP2 POP POP JUMP JUMPDEST PUSH2 0x1399 DUP3 PUSH2 0xE1C JUMP JUMPDEST PUSH8 0xFFFFFFFFFFFFFFFF DUP2 GT ISZERO PUSH2 0x13B2 JUMPI PUSH2 0x13B1 PUSH2 0xC08 JUMP JUMPDEST JUMPDEST PUSH2 0x13BC DUP3 SLOAD PUSH2 0x11B3 JUMP JUMPDEST PUSH2 0x13C7 DUP3 DUP3 DUP6 PUSH2 0x1303 JUMP JUMPDEST PUSH1 0x0 PUSH1 0x20 SWAP1 POP PUSH1 0x1F DUP4 GT PUSH1 0x1 DUP2 EQ PUSH2 0x13FA JUMPI PUSH1 0x0 DUP5 ISZERO PUSH2 0x13E8 JUMPI DUP3 DUP8 ADD MLOAD SWAP1 POP JUMPDEST PUSH2 0x13F2 DUP6 DUP3 PUSH2 0x1374 JUMP JUMPDEST DUP7 SSTORE POP PUSH2 0x145A JUMP JUMPDEST PUSH1 0x1F NOT DUP5 AND PUSH2 0x1408 DUP7 PUSH2 0x11E4 JUMP JUMPDEST PUSH1 0x0 JUMPDEST DUP3 DUP2 LT ISZERO PUSH2 0x1430 JUMPI DUP5 DUP10 ADD MLOAD DUP3 SSTORE PUSH1 0x1 DUP3 ADD SWAP2 POP PUSH1 0x20 DUP6 ADD SWAP5 POP PUSH1 0x20 DUP2 ADD SWAP1 POP PUSH2 0x140B JUMP JUMPDEST DUP7 DUP4 LT ISZERO PUSH2 0x144D JUMPI DUP5 DUP10 ADD MLOAD PUSH2 0x1449 PUSH1 0x1F DUP10 AND DUP3 PUSH2 0x1356 JUMP JUMPDEST DUP4 SSTORE POP JUMPDEST PUSH1 0x1 PUSH1 0x2 DUP9 MUL ADD DUP9 SSTORE POP POP POP JUMPDEST POP POP POP POP POP POP JUMP JUMPDEST PUSH32 0x4E487B7100000000000000000000000000000000000000000000000000000000 PUSH1 0x0 MSTORE PUSH1 0x11 PUSH1 0x4 MSTORE PUSH1 0x24 PUSH1 0x0 REVERT JUMPDEST PUSH1 0x0 PUSH2 0x149C DUP3 PUSH2 0xD33 JUMP JUMPDEST SWAP2 POP PUSH32 0xFFFFFFFFFFFFFFFFFFFFFFFFFFFFFFFFFFFFFFFFFFFFFFFFFFFFFFFFFFFFFFFF DUP3 SUB PUSH2 0x14CE JUMPI PUSH2 0x14CD PUSH2 0x1462 JUMP JUMPDEST JUMPDEST PUSH1 0x1 DUP3 ADD SWAP1 POP SWAP2 SWAP1 POP JUMP JUMPDEST PUSH1 0x0 PUSH2 0x14E4 DUP3 PUSH2 0xD33 JUMP JUMPDEST SWAP2 POP PUSH2 0x14EF DUP4 PUSH2 0xD33 JUMP JUMPDEST SWAP3 POP DUP3 DUP3 SUB SWAP1 POP DUP2 DUP2 GT ISZERO PUSH2 0x1507 JUMPI PUSH2 0x1506 PUSH2 0x1462 JUMP JUMPDEST JUMPDEST SWAP3 SWAP2 POP POP JUMP JUMPDEST PUSH1 0x0 PUSH2 0x1518 DUP3 PUSH2 0xD33 JUMP JUMPDEST SWAP2 POP PUSH2 0x1523 DUP4 PUSH2 0xD33 JUMP JUMPDEST SWAP3 POP DUP3 DUP3 ADD SWAP1 POP DUP1 DUP3 GT ISZERO PUSH2 0x153B JUMPI PUSH2 0x153A PUSH2 0x1462 JUMP JUMPDEST JUMPDEST SWAP3 SWAP2 POP POP JUMP JUMPDEST PUSH1 0x0 DUP2 SWAP1 POP SWAP3 SWAP2 POP POP JUMP JUMPDEST PUSH1 0x0 PUSH2 0x1557 DUP3 PUSH2 0xE1C JUMP JUMPDEST PUSH2 0x1561 DUP2 DUP6 PUSH2 0x1541 JUMP JUMPDEST SWAP4 POP PUSH2 0x1571 DUP2 DUP6 PUSH1 0x20 DUP7 ADD PUSH2 0xE38 JUMP JUMPDEST DUP1 DUP5 ADD SWAP2 POP POP SWAP3 SWAP2 POP POP JUMP JUMPDEST PUSH1 0x0 PUSH2 0x1589 DUP3 DUP5 PUSH2 0x154C JUMP JUMPDEST SWAP2 POP DUP2 SWAP1 POP SWAP3 SWAP2 POP POP JUMP JUMPDEST PUSH32 0x6D6178696D756D2073636F7265206973207A65726F2E2041737369676E6D656E PUSH1 0x0 DUP3 ADD MSTORE PUSH32 0x7473206E65656420746F20626520637265617465642066697273740000000000 PUSH1 0x20 DUP3 ADD MSTORE POP JUMP JUMPDEST PUSH1 0x0 PUSH2 0x15F0 PUSH1 0x3B DUP4 PUSH2 0xE27 JUMP JUMPDEST SWAP2 POP PUSH2 0x15FB DUP3 PUSH2 0x1594 JUMP JUMPDEST PUSH1 0x40 DUP3 ADD SWAP1 POP SWAP2 SWAP1 POP JUMP JUMPDEST PUSH1 0x0 PUSH1 0x20 DUP3 ADD SWAP1 POP DUP2 DUP2 SUB PUSH1 0x0 DUP4 ADD MSTORE PUSH2 0x161F DUP2 PUSH2 0x15E3 JUMP JUMPDEST SWAP1 POP SWAP2 SWAP1 POP JUMP JUMPDEST PUSH1 0x0 PUSH2 0x1631 DUP3 PUSH2 0xD33 JUMP JUMPDEST SWAP2 POP PUSH2 0x163C DUP4 PUSH2 0xD33 JUMP JUMPDEST SWAP3 POP DUP3 DUP3 MUL PUSH2 0x164A DUP2 PUSH2 0xD33 JUMP JUMPDEST SWAP2 POP DUP3 DUP3 DIV DUP5 EQ DUP4 ISZERO OR PUSH2 0x1661 JUMPI PUSH2 0x1660 PUSH2 0x1462 JUMP JUMPDEST JUMPDEST POP SWAP3 SWAP2 POP POP JUMP JUMPDEST PUSH32 0x4E487B7100000000000000000000000000000000000000000000000000000000 PUSH1 0x0 MSTORE PUSH1 0x12 PUSH1 0x4 MSTORE PUSH1 0x24 PUSH1 0x0 REVERT JUMPDEST PUSH1 0x0 PUSH2 0x16A2 DUP3 PUSH2 0xD33 JUMP JUMPDEST SWAP2 POP PUSH2 0x16AD DUP4 PUSH2 0xD33 JUMP JUMPDEST SWAP3 POP DUP3 PUSH2 0x16BD JUMPI PUSH2 0x16BC PUSH2 0x1668 JUMP JUMPDEST JUMPDEST DUP3 DUP3 DIV SWAP1 POP SWAP3 SWAP2 POP POP JUMP JUMPDEST PUSH32 0x4164646572206F662061737369676E6D656E74206973206E6F7420616E20696E PUSH1 0x0 DUP3 ADD MSTORE PUSH32 0x7374727563746F72206F72205441000000000000000000000000000000000000 PUSH1 0x20 DUP3 ADD MSTORE POP JUMP JUMPDEST PUSH1 0x0 PUSH2 0x1724 PUSH1 0x2E DUP4 PUSH2 0xE27 JUMP JUMPDEST SWAP2 POP PUSH2 0x172F DUP3 PUSH2 0x16C8 JUMP JUMPDEST PUSH1 0x40 DUP3 ADD SWAP1 POP SWAP2 SWAP1 POP JUMP JUMPDEST PUSH1 0x0 PUSH1 0x20 DUP3 ADD SWAP1 POP DUP2 DUP2 SUB PUSH1 0x0 DUP4 ADD MSTORE PUSH2 0x1753 DUP2 PUSH2 0x1717 JUMP JUMPDEST SWAP1 POP SWAP2 SWAP1 POP JUMP JUMPDEST PUSH32 0x41737369676E6D656E74206964206973206E6F742076616C6964210000000000 PUSH1 0x0 DUP3 ADD MSTORE POP JUMP JUMPDEST PUSH1 0x0 PUSH2 0x1790 PUSH1 0x1B DUP4 PUSH2 0xE27 JUMP JUMPDEST SWAP2 POP PUSH2 0x179B DUP3 PUSH2 0x175A JUMP JUMPDEST PUSH1 0x20 DUP3 ADD SWAP1 POP SWAP2 SWAP1 POP JUMP JUMPDEST PUSH1 0x0 PUSH1 0x20 DUP3 ADD SWAP1 POP DUP2 DUP2 SUB PUSH1 0x0 DUP4 ADD MSTORE PUSH2 0x17BF DUP2 PUSH2 0x1783 JUMP JUMPDEST SWAP1 POP SWAP2 SWAP1 POP JUMP JUMPDEST PUSH32 0x53636F72652063616E277420626520686967686572207468616E20746865206D PUSH1 0x0 DUP3 ADD MSTORE PUSH32 0x6178000000000000000000000000000000000000000000000000000000000000 PUSH1 0x20 DUP3 ADD MSTORE POP JUMP JUMPDEST PUSH1 0x0 PUSH2 0x1822 PUSH1 0x22 DUP4 PUSH2 0xE27 JUMP JUMPDEST SWAP2 POP PUSH2 0x182D DUP3 PUSH2 0x17C6 JUMP JUMPDEST PUSH1 0x40 DUP3 ADD SWAP1 POP SWAP2 SWAP1 POP JUMP JUMPDEST PUSH1 0x0 PUSH1 0x20 DUP3 ADD SWAP1 POP DUP2 DUP2 SUB PUSH1 0x0 DUP4 ADD MSTORE PUSH2 0x1851 DUP2 PUSH2 0x1815 JUMP JUMPDEST SWAP1 POP SWAP2 SWAP1 POP JUMP JUMPDEST PUSH32 0x73636F7265206F6E2061737369676E6D656E742063616E2774206265206C6573 PUSH1 0x0 DUP3 ADD MSTORE PUSH32 0x73207468616E207A65726F000000000000000000000000000000000000000000 PUSH1 0x20 DUP3 ADD MSTORE POP JUMP JUMPDEST PUSH1 0x0 PUSH2 0x18B4 PUSH1 0x2B DUP4 PUSH2 0xE27 JUMP JUMPDEST SWAP2 POP PUSH2 0x18BF DUP3 PUSH2 0x1858 JUMP JUMPDEST PUSH1 0x40 DUP3 ADD SWAP1 POP SWAP2 SWAP1 POP JUMP JUMPDEST PUSH1 0x0 PUSH1 0x20 DUP3 ADD SWAP1 POP DUP2 DUP2 SUB PUSH1 0x0 DUP4 ADD MSTORE PUSH2 0x18E3 DUP2 PUSH2 0x18A7 JUMP JUMPDEST SWAP1 POP SWAP2 SWAP1 POP JUMP JUMPDEST PUSH32 0x496E7374727563746F722063616E6E6F74206265206120544121200000000000 PUSH1 0x0 DUP3 ADD MSTORE POP JUMP JUMPDEST PUSH1 0x0 PUSH2 0x1920 PUSH1 0x1B DUP4 PUSH2 0xE27 JUMP JUMPDEST SWAP2 POP PUSH2 0x192B DUP3 PUSH2 0x18EA JUMP JUMPDEST PUSH1 0x20 DUP3 ADD SWAP1 POP SWAP2 SWAP1 POP JUMP JUMPDEST PUSH1 0x0 PUSH1 0x20 DUP3 ADD SWAP1 POP DUP2 DUP2 SUB PUSH1 0x0 DUP4 ADD MSTORE PUSH2 0x194F DUP2 PUSH2 0x1913 JUMP JUMPDEST SWAP1 POP SWAP2 SWAP1 POP JUMP JUMPDEST PUSH32 0x496E7374727563746F72206D757374206265207468652064657369676E61746F PUSH1 0x0 DUP3 ADD MSTORE PUSH32 0x72206F6620544120737461747573000000000000000000000000000000000000 PUSH1 0x20 DUP3 ADD MSTORE POP JUMP JUMPDEST PUSH1 0x0 PUSH2 0x19B2 PUSH1 0x2E DUP4 PUSH2 0xE27 JUMP JUMPDEST SWAP2 POP PUSH2 0x19BD DUP3 PUSH2 0x1956 JUMP JUMPDEST PUSH1 0x40 DUP3 ADD SWAP1 POP SWAP2 SWAP1 POP JUMP JUMPDEST PUSH1 0x0 PUSH1 0x20 DUP3 ADD SWAP1 POP DUP2 DUP2 SUB PUSH1 0x0 DUP4 ADD MSTORE PUSH2 0x19E1 DUP2 PUSH2 0x19A5 JUMP JUMPDEST SWAP1 POP SWAP2 SWAP1 POP JUMP INVALID LOG2 PUSH5 0x6970667358 0x22 SLT KECCAK256 0xB9 0xBB 0xAD RETURN 0xF 0xCF CALLVALUE SAR SELFBALANCE 0xE4 0xF9 0xC4 DUP14 0xEF PUSH3 0x34604 SMOD 0xEF CALLDATACOPY DUP14 0xE2 LOG0 KECCAK256 0xB4 0xE SLOAD 0xF8 0xDC 0xD8 LT PUSH5 0x736F6C6343 STOP ADDMOD SLT STOP CALLER "
				},
				"gasEstimates": {
					"creation": {
						"codeDepositCost": "1337200",
						"executionCost": "25656",
						"totalCost": "1362856"
					},
					"external": {
						"addAssignment(string,uint256)": "infinite",
						"addGrade(string,uint256,uint256)": "infinite",
						"assignment_names(uint256)": "infinite",
						"designateTA(address)": "29197",
						"getAverage(string)": "infinite",
						"instructor()": "2603",
						"max_scores(uint256)": "infinite",
						"num_assignments()": "2517",
						"requestTAAccess()": "24522",
						"scores(uint256,string)": "infinite",
						"supportsInterface(bytes4)": "682",
						"tas(address)": "2911"
					}
				},
				"methodIdentifiers": {
					"addAssignment(string,uint256)": "077f3b02",
					"addGrade(string,uint256,uint256)": "7241d75f",
					"assignment_names(uint256)": "53acf883",
					"designateTA(address)": "9cfeb679",
					"getAverage(string)": "65dd2f69",
					"instructor()": "71ae413d",
					"max_scores(uint256)": "dfd68b91",
					"num_assignments()": "c7a9f77b",
					"requestTAAccess()": "7fc29673",
					"scores(uint256,string)": "77ca2947",
					"supportsInterface(bytes4)": "01ffc9a7",
					"tas(address)": "a30254e7"
				}
			},
			"storageLayout": {
				"storage": [
					{
						"astId": 9,
						"contract": "Gradebook.sol:Gradebook",
						"label": "tas",
						"offset": 0,
						"slot": "0",
						"type": "t_mapping(t_address,t_bool)"
					},
					{
						"astId": 14,
						"contract": "Gradebook.sol:Gradebook",
						"label": "max_scores",
						"offset": 0,
						"slot": "1",
						"type": "t_mapping(t_uint256,t_uint256)"
					},
					{
						"astId": 19,
						"contract": "Gradebook.sol:Gradebook",
						"label": "assignment_names",
						"offset": 0,
						"slot": "2",
						"type": "t_mapping(t_uint256,t_string_storage)"
					},
					{
						"astId": 26,
						"contract": "Gradebook.sol:Gradebook",
						"label": "scores",
						"offset": 0,
						"slot": "3",
						"type": "t_mapping(t_uint256,t_mapping(t_string_memory_ptr,t_uint256))"
					},
					{
						"astId": 29,
						"contract": "Gradebook.sol:Gradebook",
						"label": "num_assignments",
						"offset": 0,
						"slot": "4",
						"type": "t_uint256"
					},
					{
						"astId": 32,
						"contract": "Gradebook.sol:Gradebook",
						"label": "instructor",
						"offset": 0,
						"slot": "5",
						"type": "t_address"
					}
				],
				"types": {
					"t_address": {
						"encoding": "inplace",
						"label": "address",
						"numberOfBytes": "20"
					},
					"t_bool": {
						"encoding": "inplace",
						"label": "bool",
						"numberOfBytes": "1"
					},
					"t_mapping(t_address,t_bool)": {
						"encoding": "mapping",
						"key": "t_address",
						"label": "mapping(address => bool)",
						"numberOfBytes": "32",
						"value": "t_bool"
					},
					"t_mapping(t_string_memory_ptr,t_uint256)": {
						"encoding": "mapping",
						"key": "t_string_memory_ptr",
						"label": "mapping(string => uint256)",
						"numberOfBytes": "32",
						"value": "t_uint256"
					},
					"t_mapping(t_uint256,t_mapping(t_string_memory_ptr,t_uint256))": {
						"encoding": "mapping",
						"key": "t_uint256",
						"label": "mapping(uint256 => mapping(string => uint256))",
						"numberOfBytes": "32",
						"value": "t_mapping(t_string_memory_ptr,t_uint256)"
					},
					"t_mapping(t_uint256,t_string_storage)": {
						"encoding": "mapping",
						"key": "t_uint256",
						"label": "mapping(uint256 => string)",
						"numberOfBytes": "32",
						"value": "t_string_storage"
					},
					"t_mapping(t_uint256,t_uint256)": {
						"encoding": "mapping",
						"key": "t_uint256",
						"label": "mapping(uint256 => uint256)",
						"numberOfBytes": "32",
						"value": "t_uint256"
					},
					"t_string_memory_ptr": {
						"encoding": "bytes",
						"label": "string",
						"numberOfBytes": "32"
					},
					"t_string_storage": {
						"encoding": "bytes",
						"label": "string",
						"numberOfBytes": "32"
					},
					"t_uint256": {
						"encoding": "inplace",
						"label": "uint256",
						"numberOfBytes": "32"
					}
				}
			},
			"userdoc": {
				"kind": "user",
				"methods": {},
				"version": 1
			}
		}
	}
}