{
	"data": {
		"bytecode": {
			"linkReferences": {},
			"object": "60806040523480156200001157600080fd5b5033600660006101000a81548173ffffffffffffffffffffffffffffffffffffffff021916908373ffffffffffffffffffffffffffffffffffffffff16021790555060405162000061906200057c565b604051809103906000f0801580156200007e573d6000803e3d6000fd5b50600160006101000a81548173ffffffffffffffffffffffffffffffffffffffff021916908373ffffffffffffffffffffffffffffffffffffffff16021790555060006200010d620000fd600660009054906101000a900473ffffffffffffffffffffffffffffffffffffffff16620001de60201b620017551760201c565b600260226200021360201b60201c565b9050600160009054906101000a900473ffffffffffffffffffffffffffffffffffffffff1673ffffffffffffffffffffffffffffffffffffffff16630e980602600660009054906101000a900473ffffffffffffffffffffffffffffffffffffffff16836040518363ffffffff1660e01b81526004016200019092919062000669565b6020604051808303816000875af1158015620001b0573d6000803e3d6000fd5b505050506040513d601f19601f82011682018060405250810190620001d69190620006dd565b50506200094a565b60606200020c8273ffffffffffffffffffffffffffffffffffffffff16601460ff166200032160201b60201c565b9050919050565b60606000849050600084846200022a91906200073e565b67ffffffffffffffff81111562000246576200024562000779565b5b6040519080825280601f01601f191660200182016040528015620002795781602001600182028036833780820191505090505b50905060008590505b848110156200031457828181518110620002a157620002a0620007a8565b5b602001015160f81c60f81b828783620002bb91906200073e565b81518110620002cf57620002ce620007a8565b5b60200101907effffffffffffffffffffffffffffffffffffffffffffffffffffffffffffff1916908160001a90535080806200030b90620007d7565b91505062000282565b5080925050509392505050565b60606000600283600262000336919062000824565b6200034291906200086f565b67ffffffffffffffff8111156200035e576200035d62000779565b5b6040519080825280601f01601f191660200182016040528015620003915781602001600182028036833780820191505090505b5090507f300000000000000000000000000000000000000000000000000000000000000081600081518110620003cc57620003cb620007a8565b5b60200101907effffffffffffffffffffffffffffffffffffffffffffffffffffffffffffff1916908160001a9053507f780000000000000000000000000000000000000000000000000000000000000081600181518110620004335762000432620007a8565b5b60200101907effffffffffffffffffffffffffffffffffffffffffffffffffffffffffffff1916908160001a9053506000600184600262000475919062000824565b6200048191906200086f565b90505b60018111156200052b577f3031323334353637383961626364656600000000000000000000000000000000600f861660108110620004c757620004c6620007a8565b5b1a60f81b828281518110620004e157620004e0620007a8565b5b60200101907effffffffffffffffffffffffffffffffffffffffffffffffffffffffffffff1916908160001a905350600485901c9450806200052390620008aa565b905062000484565b506000841462000572576040517f08c379a0000000000000000000000000000000000000000000000000000000008152600401620005699062000928565b60405180910390fd5b8091505092915050565b6130c2806200391983390190565b600073ffffffffffffffffffffffffffffffffffffffff82169050919050565b6000620005b7826200058a565b9050919050565b620005c981620005aa565b82525050565b600081519050919050565b600082825260208201905092915050565b60005b838110156200060b578082015181840152602081019050620005ee565b60008484015250505050565b6000601f19601f8301169050919050565b60006200063582620005cf565b620006418185620005da565b935062000653818560208601620005eb565b6200065e8162000617565b840191505092915050565b6000604082019050620006806000830185620005be565b818103602083015262000694818462000628565b90509392505050565b600080fd5b6000819050919050565b620006b781620006a2565b8114620006c357600080fd5b50565b600081519050620006d781620006ac565b92915050565b600060208284031215620006f657620006f56200069d565b5b60006200070684828501620006c6565b91505092915050565b7f4e487b7100000000000000000000000000000000000000000000000000000000600052601160045260246000fd5b60006200074b82620006a2565b91506200075883620006a2565b92508282039050818111156200077357620007726200070f565b5b92915050565b7f4e487b7100000000000000000000000000000000000000000000000000000000600052604160045260246000fd5b7f4e487b7100000000000000000000000000000000000000000000000000000000600052603260045260246000fd5b6000620007e482620006a2565b91507fffffffffffffffffffffffffffffffffffffffffffffffffffffffffffffffff82036200081957620008186200070f565b5b600182019050919050565b60006200083182620006a2565b91506200083e83620006a2565b92508282026200084e81620006a2565b915082820484148315176200086857620008676200070f565b5b5092915050565b60006200087c82620006a2565b91506200088983620006a2565b9250828201905080821115620008a457620008a36200070f565b5b92915050565b6000620008b782620006a2565b915060008203620008cd57620008cc6200070f565b5b600182039050919050565b7f537472696e67733a20686578206c656e67746820696e73756666696369656e74600082015250565b600062000910602083620005da565b91506200091d82620008d8565b602082019050919050565b60006020820190508181036000830152620009438162000901565b9050919050565b612fbf806200095a6000396000f3fe60806040526004361061010d5760003560e01c80638d7af47311610095578063c9d27afe11610064578063c9d27afe146103b1578063ca6d56dc146103da578063d6b7876814610403578063e66f53b71461042e578063ea3fad66146104595761012c565b80638d7af473146102f35780639d63848a1461031e578063a230c52414610349578063c65c90cc146103865761012c565b80631dcd9b55116100dc5780631dcd9b5514610219578063237b2197146102565780632e6fb0971461028157806370740aab146102b15780637b10b293146102dc5761012c565b8063013cf08b1461013157806301ffc9a7146101765780630386a016146101b35780631a384287146101dc5761012c565b3661012c57346005600082825461012491906119f7565b925050819055005b600080fd5b34801561013d57600080fd5b5061015860048036038101906101539190611a6b565b610496565b60405161016d99989796959493929190611b93565b60405180910390f35b34801561018257600080fd5b5061019d60048036038101906101989190611c7f565b6105c6565b6040516101aa9190611cac565b60405180910390f35b3480156101bf57600080fd5b506101da60048036038101906101d59190611a6b565b610698565b005b3480156101e857600080fd5b5061020360048036038101906101fe9190611cf3565b6109b9565b6040516102109190611cac565b60405180910390f35b34801561022557600080fd5b50610240600480360381019061023b9190611e68565b6109e8565b60405161024d9190611ed7565b60405180910390f35b34801561026257600080fd5b5061026b610ae4565b6040516102789190611ef9565b60405180910390f35b61029b60048036038101906102969190611f14565b610aea565b6040516102a89190611ef9565b60405180910390f35b3480156102bd57600080fd5b506102c6610e1a565b6040516102d39190611ed7565b60405180910390f35b3480156102e857600080fd5b506102f1610e36565b005b3480156102ff57600080fd5b50610308610f42565b6040516103159190611ef9565b60405180910390f35b34801561032a57600080fd5b50610333610f48565b6040516103409190611f97565b60405180910390f35b34801561035557600080fd5b50610370600480360381019061036b9190611fb2565b610f6e565b60405161037d9190611cac565b60405180910390f35b34801561039257600080fd5b5061039b61110a565b6040516103a89190611ed7565b60405180910390f35b3480156103bd57600080fd5b506103d860048036038101906103d3919061200b565b611127565b005b3480156103e657600080fd5b5061040160048036038101906103fc9190611fb2565b61159e565b005b34801561040f57600080fd5b506104186116fa565b6040516104259190611ef9565b60405180910390f35b34801561043a57600080fd5b50610443611700565b6040516104509190611f97565b60405180910390f35b34801561046557600080fd5b50610480600480360381019061047b9190611cf3565b611726565b60405161048d9190611cac565b60405180910390f35b60006020528060005260406000206000915090508060000160009054906101000a900473ffffffffffffffffffffffffffffffffffffffff16908060010154908060020180546104e59061207a565b80601f01602080910402602001604051908101604052809291908181526020018280546105119061207a565b801561055e5780601f106105335761010080835404028352916020019161055e565b820191906000526020600020905b81548152906001019060200180831161054157829003601f168201915b5050505050908060030154908060040160009054906101000a900460ff16908060040160019054906101000a900460ff16908060050154908060060154908060070160009054906101000a900473ffffffffffffffffffffffffffffffffffffffff16905089565b60007fb3df4ba8000000000000000000000000000000000000000000000000000000007bffffffffffffffffffffffffffffffffffffffffffffffffffffffff1916827bffffffffffffffffffffffffffffffffffffffffffffffffffffffff1916148061069157507f01ffc9a7000000000000000000000000000000000000000000000000000000007bffffffffffffffffffffffffffffffffffffffffffffffffffffffff1916827bffffffffffffffffffffffffffffffffffffffffffffffffffffffff1916145b9050919050565b60045481106106dc576040517f08c379a00000000000000000000000000000000000000000000000000000000081526004016106d39061211d565b60405180910390fd5b600080828152602001908152602001600020600301544211610733576040517f08c379a000000000000000000000000000000000000000000000000000000000815260040161072a906121af565b60405180910390fd5b6001151561074033610f6e565b151514610782576040517f08c379a000000000000000000000000000000000000000000000000000000000815260040161077990612267565b60405180910390fd5b600080600083815260200190815260200160002060040160006101000a81548160ff0219169083151502179055506000808281526020019081526020016000206006015460008083815260200190815260200160002060050154111561090c57600160008083815260200190815260200160002060040160016101000a81548160ff021916908315150217905550600080600083815260200190815260200160002060000160009054906101000a900473ffffffffffffffffffffffffffffffffffffffff1673ffffffffffffffffffffffffffffffffffffffff1660008084815260200190815260200160002060010154604051610880906122b8565b60006040518083038185875af1925050503d80600081146108bd576040519150601f19603f3d011682016040523d82523d6000602084013e6108c2565b606091505b5050905080610906576040517f08c379a00000000000000000000000000000000000000000000000000000000081526004016108fd90612365565b60405180910390fd5b5061093b565b600080600083815260200190815260200160002060040160016101000a81548160ff0219169083151502179055505b60008082815260200190815260200160002060040160019054906101000a900460ff161515817faffed5d901d9fbe9106721fa52653ede403c09699f9f810f6d378acc51fb50fa60405160405180910390a3600080828152602001908152602001600020600101546005546109b09190612385565b60058190555050565b60036020528160005260406000206020528060005260406000206000915091509054906101000a900460ff1681565b60606000849050600084846109fd9190612385565b67ffffffffffffffff811115610a1657610a15611d3d565b5b6040519080825280601f01601f191660200182016040528015610a485781602001600182028036833780820191505090505b50905060008590505b84811015610ad757828181518110610a6c57610a6b6123b9565b5b602001015160f81c60f81b828783610a849190612385565b81518110610a9557610a946123b9565b5b60200101907effffffffffffffffffffffffffffffffffffffffffffffffffffffffffffff1916908160001a9053508080610acf906123e8565b915050610a51565b5080925050509392505050565b60055481565b600060011515610af933610f6e565b151514610b3b576040517f08c379a0000000000000000000000000000000000000000000000000000000008152600401610b32906124c8565b60405180910390fd5b610258821015610b80576040517f08c379a0000000000000000000000000000000000000000000000000000000008152600401610b7790612580565b60405180910390fd5b836005544734610b9091906119f7565b610b9a9190612385565b1015610bdb576040517f08c379a0000000000000000000000000000000000000000000000000000000008152600401610bd290612638565b60405180910390fd5b6040518061012001604052808673ffffffffffffffffffffffffffffffffffffffff1681526020018581526020018481526020018342610c1b91906119f7565b815260200160011515815260200160001515815260200160008152602001600081526020013373ffffffffffffffffffffffffffffffffffffffff16815250600080600454815260200190815260200160002060008201518160000160006101000a81548173ffffffffffffffffffffffffffffffffffffffff021916908373ffffffffffffffffffffffffffffffffffffffff160217905550602082015181600101556040820151816002019081610cd49190612804565b506060820151816003015560808201518160040160006101000a81548160ff02191690831515021790555060a08201518160040160016101000a81548160ff02191690831515021790555060c0820151816005015560e082015181600601556101008201518160070160006101000a81548173ffffffffffffffffffffffffffffffffffffffff021916908373ffffffffffffffffffffffffffffffffffffffff1602179055509050508360056000828254610d9091906119f7565b92505081905550838573ffffffffffffffffffffffffffffffffffffffff166004547f0de8596bb26a876fd85351415cd7f8ea047829757b6ce0c3e8f6d5ae325c4b2186604051610de19190611ed7565b60405180910390a460046000815480929190610dfc906123e8565b91905055506001600454610e109190612385565b9050949350505050565b6040518060c00160405280609c8152602001612eee609c913981565b60001515610e4333610f6e565b151514610e85576040517f08c379a0000000000000000000000000000000000000000000000000000000008152600401610e7c90612922565b60405180910390fd5b6000610e9c610e9333611755565b600260226109e8565b9050600160009054906101000a900473ffffffffffffffffffffffffffffffffffffffff1673ffffffffffffffffffffffffffffffffffffffff16630e98060233836040518363ffffffff1660e01b8152600401610efb929190612942565b6020604051808303816000875af1158015610f1a573d6000803e3d6000fd5b505050506040513d601f19601f82011682018060405250810190610f3e9190612987565b5050565b60045481565b600160009054906101000a900473ffffffffffffffffffffffffffffffffffffffff1681565b600080600090506000600160009054906101000a900473ffffffffffffffffffffffffffffffffffffffff1673ffffffffffffffffffffffffffffffffffffffff166306661abd6040518163ffffffff1660e01b8152600401602060405180830381865afa158015610fe4573d6000803e3d6000fd5b505050506040513d601f19601f820116820180604052508101906110089190612987565b905060005b818110156110ff578473ffffffffffffffffffffffffffffffffffffffff16600160009054906101000a900473ffffffffffffffffffffffffffffffffffffffff1673ffffffffffffffffffffffffffffffffffffffff16636352211e836040518263ffffffff1660e01b81526004016110879190611ef9565b602060405180830381865afa1580156110a4573d6000803e3d6000fd5b505050506040513d601f19601f820116820180604052508101906110c891906129c9565b73ffffffffffffffffffffffffffffffffffffffff16036110ec57600192506110ff565b80806110f7906123e8565b91505061100d565b508192505050919050565b60405180610100016040528060da8152602001612e1460da913981565b6001151561113433610f6e565b151514611176576040517f08c379a000000000000000000000000000000000000000000000000000000000815260040161116d90612a8e565b60405180910390fd5b6000808381526020019081526020016000206003015442106111cd576040517f08c379a00000000000000000000000000000000000000000000000000000000081526004016111c490612b20565b60405180910390fd5b6001151560008084815260200190815260200160002060040160009054906101000a900460ff16151514611236576040517f08c379a000000000000000000000000000000000000000000000000000000000815260040161122d90612b8c565b60405180910390fd5b60001515600260003373ffffffffffffffffffffffffffffffffffffffff1673ffffffffffffffffffffffffffffffffffffffff168152602001908152602001600020600084815260200190815260200160002060009054906101000a900460ff161515148015611308575060001515600360003373ffffffffffffffffffffffffffffffffffffffff1673ffffffffffffffffffffffffffffffffffffffff168152602001908152602001600020600084815260200190815260200160002060009054906101000a900460ff161515145b611347576040517f08c379a000000000000000000000000000000000000000000000000000000000815260040161133e90612c1e565b60405180910390fd5b6001151581151503611455576001600260003373ffffffffffffffffffffffffffffffffffffffff1673ffffffffffffffffffffffffffffffffffffffff168152602001908152602001600020600084815260200190815260200160002060006101000a81548160ff0219169083151502179055506000600360003373ffffffffffffffffffffffffffffffffffffffff1673ffffffffffffffffffffffffffffffffffffffff168152602001908152602001600020600084815260200190815260200160002060006101000a81548160ff021916908315150217905550600080838152602001908152602001600020600501600081548092919061144b906123e8565b9190505550611553565b6000600260003373ffffffffffffffffffffffffffffffffffffffff1673ffffffffffffffffffffffffffffffffffffffff168152602001908152602001600020600084815260200190815260200160002060006101000a81548160ff0219169083151502179055506001600360003373ffffffffffffffffffffffffffffffffffffffff1673ffffffffffffffffffffffffffffffffffffffff168152602001908152602001600020600084815260200190815260200160002060006101000a81548160ff021916908315150217905550600080838152602001908152602001600020600601600081548092919061154d906123e8565b91905055505b3373ffffffffffffffffffffffffffffffffffffffff16811515837f86abfce99b7dd908bec0169288797f85049ec73cbe046ed9de818fab3a497ae060405160405180910390a45050565b600115156115ab33610f6e565b1515146115ed576040517f08c379a00000000000000000000000000000000000000000000000000000000081526004016115e490612cb0565b60405180910390fd5b600015156115fa82610f6e565b15151461163c576040517f08c379a000000000000000000000000000000000000000000000000000000000815260040161163390612d1c565b60405180910390fd5b600061165361164a83611755565b600260226109e8565b9050600160009054906101000a900473ffffffffffffffffffffffffffffffffffffffff1673ffffffffffffffffffffffffffffffffffffffff16630e98060283836040518363ffffffff1660e01b81526004016116b2929190612942565b6020604051808303816000875af11580156116d1573d6000803e3d6000fd5b505050506040513d601f19601f820116820180604052508101906116f59190612987565b505050565b61025881565b600660009054906101000a900473ffffffffffffffffffffffffffffffffffffffff1681565b60026020528160005260406000206020528060005260406000206000915091509054906101000a900460ff1681565b606061177b8273ffffffffffffffffffffffffffffffffffffffff16601460ff16611782565b9050919050565b6060600060028360026117959190612d3c565b61179f91906119f7565b67ffffffffffffffff8111156117b8576117b7611d3d565b5b6040519080825280601f01601f1916602001820160405280156117ea5781602001600182028036833780820191505090505b5090507f300000000000000000000000000000000000000000000000000000000000000081600081518110611822576118216123b9565b5b60200101907effffffffffffffffffffffffffffffffffffffffffffffffffffffffffffff1916908160001a9053507f780000000000000000000000000000000000000000000000000000000000000081600181518110611886576118856123b9565b5b60200101907effffffffffffffffffffffffffffffffffffffffffffffffffffffffffffff1916908160001a905350600060018460026118c69190612d3c565b6118d091906119f7565b90505b6001811115611970577f3031323334353637383961626364656600000000000000000000000000000000600f861660108110611912576119116123b9565b5b1a60f81b828281518110611929576119286123b9565b5b60200101907effffffffffffffffffffffffffffffffffffffffffffffffffffffffffffff1916908160001a905350600485901c94508061196990612d7e565b90506118d3565b50600084146119b4576040517f08c379a00000000000000000000000000000000000000000000000000000000081526004016119ab90612df3565b60405180910390fd5b8091505092915050565b6000819050919050565b7f4e487b7100000000000000000000000000000000000000000000000000000000600052601160045260246000fd5b6000611a02826119be565b9150611a0d836119be565b9250828201905080821115611a2557611a246119c8565b5b92915050565b6000604051905090565b600080fd5b600080fd5b611a48816119be565b8114611a5357600080fd5b50565b600081359050611a6581611a3f565b92915050565b600060208284031215611a8157611a80611a35565b5b6000611a8f84828501611a56565b91505092915050565b600073ffffffffffffffffffffffffffffffffffffffff82169050919050565b6000611ac382611a98565b9050919050565b611ad381611ab8565b82525050565b611ae2816119be565b82525050565b600081519050919050565b600082825260208201905092915050565b60005b83811015611b22578082015181840152602081019050611b07565b60008484015250505050565b6000601f19601f8301169050919050565b6000611b4a82611ae8565b611b548185611af3565b9350611b64818560208601611b04565b611b6d81611b2e565b840191505092915050565b60008115159050919050565b611b8d81611b78565b82525050565b600061012082019050611ba9600083018c611aca565b611bb6602083018b611ad9565b8181036040830152611bc8818a611b3f565b9050611bd76060830189611ad9565b611be46080830188611b84565b611bf160a0830187611b84565b611bfe60c0830186611ad9565b611c0b60e0830185611ad9565b611c19610100830184611aca565b9a9950505050505050505050565b60007fffffffff0000000000000000000000000000000000000000000000000000000082169050919050565b611c5c81611c27565b8114611c6757600080fd5b50565b600081359050611c7981611c53565b92915050565b600060208284031215611c9557611c94611a35565b5b6000611ca384828501611c6a565b91505092915050565b6000602082019050611cc16000830184611b84565b92915050565b611cd081611ab8565b8114611cdb57600080fd5b50565b600081359050611ced81611cc7565b92915050565b60008060408385031215611d0a57611d09611a35565b5b6000611d1885828601611cde565b9250506020611d2985828601611a56565b9150509250929050565b600080fd5b600080fd5b7f4e487b7100000000000000000000000000000000000000000000000000000000600052604160045260246000fd5b611d7582611b2e565b810181811067ffffffffffffffff82111715611d9457611d93611d3d565b5b80604052505050565b6000611da7611a2b565b9050611db38282611d6c565b919050565b600067ffffffffffffffff821115611dd357611dd2611d3d565b5b611ddc82611b2e565b9050602081019050919050565b82818337600083830152505050565b6000611e0b611e0684611db8565b611d9d565b905082815260208101848484011115611e2757611e26611d38565b5b611e32848285611de9565b509392505050565b600082601f830112611e4f57611e4e611d33565b5b8135611e5f848260208601611df8565b91505092915050565b600080600060608486031215611e8157611e80611a35565b5b600084013567ffffffffffffffff811115611e9f57611e9e611a3a565b5b611eab86828701611e3a565b9350506020611ebc86828701611a56565b9250506040611ecd86828701611a56565b9150509250925092565b60006020820190508181036000830152611ef18184611b3f565b905092915050565b6000602082019050611f0e6000830184611ad9565b92915050565b60008060008060808587031215611f2e57611f2d611a35565b5b6000611f3c87828801611cde565b9450506020611f4d87828801611a56565b935050604085013567ffffffffffffffff811115611f6e57611f6d611a3a565b5b611f7a87828801611e3a565b9250506060611f8b87828801611a56565b91505092959194509250565b6000602082019050611fac6000830184611aca565b92915050565b600060208284031215611fc857611fc7611a35565b5b6000611fd684828501611cde565b91505092915050565b611fe881611b78565b8114611ff357600080fd5b50565b60008135905061200581611fdf565b92915050565b6000806040838503121561202257612021611a35565b5b600061203085828601611a56565b925050602061204185828601611ff6565b9150509250929050565b7f4e487b7100000000000000000000000000000000000000000000000000000000600052602260045260246000fd5b6000600282049050600182168061209257607f821691505b6020821081036120a5576120a461204b565b5b50919050565b7f546861742070726f706f73616c20646f6573206e6f742065786973742079657460008201527f2100000000000000000000000000000000000000000000000000000000000000602082015250565b6000612107602183611af3565b9150612112826120ab565b604082019050919050565b60006020820190508181036000830152612136816120fa565b9050919050565b7f6e6f742074696d6520746f20636c6f73652069742079657421204d6f7265207460008201527f696d65206973206c65667420746f20766f746521000000000000000000000000602082015250565b6000612199603483611af3565b91506121a48261213d565b604082019050919050565b600060208201905081810360008301526121c88161218c565b9050919050565b7f596f7520617265206e6f742061206d656d6265722e20446f206e6f742074727960008201527f20696e666c75656e63696e672074686520726573756c7473206f66206f75722060208201527f766f74696e672070726f63657373210000000000000000000000000000000000604082015250565b6000612251604f83611af3565b915061225c826121cf565b606082019050919050565b6000602082019050818103600083015261228081612244565b9050919050565b600081905092915050565b50565b60006122a2600083612287565b91506122ad82612292565b600082019050919050565b60006122c382612295565b9150819050919050565b7f4661696c656420746f207472616e73666572206d6f6e657920746f207265636960008201527f7069656e74207768696c6520747279696e6720746f20636c6f73652070726f7060208201527f6f73616c00000000000000000000000000000000000000000000000000000000604082015250565b600061234f604483611af3565b915061235a826122cd565b606082019050919050565b6000602082019050818103600083015261237e81612342565b9050919050565b6000612390826119be565b915061239b836119be565b92508282039050818111156123b3576123b26119c8565b5b92915050565b7f4e487b7100000000000000000000000000000000000000000000000000000000600052603260045260246000fd5b60006123f3826119be565b91507fffffffffffffffffffffffffffffffffffffffffffffffffffffffffffffffff8203612425576124246119c8565b5b600182019050919050565b7f596f75277265206e6f742061206d656d626572206f66206f7572206f7267616e60008201527f697a6174696f6e2e2053746f70206974206265666f726520492063616c6c207460208201527f686520636f707300000000000000000000000000000000000000000000000000604082015250565b60006124b2604783611af3565b91506124bd82612430565b606082019050919050565b600060208201905081810360008301526124e1816124a5565b9050919050565b7f4e6f742061206c6f6e6720656e6f7567682064656261746520706572696f642e60008201527f20446f6e27742074727920746f2070756c6c20616e792066617374206f6e657360208201527f206f6e206d652100000000000000000000000000000000000000000000000000604082015250565b600061256a604783611af3565b9150612575826124e8565b606082019050919050565b600060208201905081810360008301526125998161255d565b9050919050565b7f53656e6420696e206d6f726520657468657220776974682074686973206e657760008201527f2070726f706f73616c2c2064616f20646f65736e74206861766520656e6f756760208201527f6800000000000000000000000000000000000000000000000000000000000000604082015250565b6000612622604183611af3565b915061262d826125a0565b606082019050919050565b6000602082019050818103600083015261265181612615565b9050919050565b60008190508160005260206000209050919050565b60006020601f8301049050919050565b600082821b905092915050565b6000600883026126ba7fffffffffffffffffffffffffffffffffffffffffffffffffffffffffffffffff8261267d565b6126c4868361267d565b95508019841693508086168417925050509392505050565b6000819050919050565b60006127016126fc6126f7846119be565b6126dc565b6119be565b9050919050565b6000819050919050565b61271b836126e6565b61272f61272782612708565b84845461268a565b825550505050565b600090565b612744612737565b61274f818484612712565b505050565b5b818110156127735761276860008261273c565b600181019050612755565b5050565b601f8211156127b85761278981612658565b6127928461266d565b810160208510156127a1578190505b6127b56127ad8561266d565b830182612754565b50505b505050565b600082821c905092915050565b60006127db600019846008026127bd565b1980831691505092915050565b60006127f483836127ca565b9150826002028217905092915050565b61280d82611ae8565b67ffffffffffffffff81111561282657612825611d3d565b5b612830825461207a565b61283b828285612777565b600060209050601f83116001811461286e576000841561285c578287015190505b61286685826127e8565b8655506128ce565b601f19841661287c86612658565b60005b828110156128a45784890151825560018201915060208501945060208101905061287f565b868310156128c157848901516128bd601f8916826127ca565b8355505b6001600288020188555050505b505050505050565b7f596f752061726520616c72656164792061206d656d6265722100000000000000600082015250565b600061290c601983611af3565b9150612917826128d6565b602082019050919050565b6000602082019050818103600083015261293b816128ff565b9050919050565b60006040820190506129576000830185611aca565b81810360208301526129698184611b3f565b90509392505050565b60008151905061298181611a3f565b92915050565b60006020828403121561299d5761299c611a35565b5b60006129ab84828501612972565b91505092915050565b6000815190506129c381611cc7565b92915050565b6000602082840312156129df576129de611a35565b5b60006129ed848285016129b4565b91505092915050565b7f596f7520617265206e6f742061206d656d62657220736f20796f752063616e2760008201527f7420766f74652e20446f206e6f742074727920636f7272757074696e67206f7560208201527f722064656d6f6372617469632070726f63657373210000000000000000000000604082015250565b6000612a78605583611af3565b9150612a83826129f6565b606082019050919050565b60006020820190508181036000830152612aa781612a6b565b9050919050565b7f5468652070726f706f73616c20766f74696e6720697320636c6f73656420616c60008201527f7265616479000000000000000000000000000000000000000000000000000000602082015250565b6000612b0a602583611af3565b9150612b1582612aae565b604082019050919050565b60006020820190508181036000830152612b3981612afd565b9050919050565b7f50726f706f73616c206e6f74206f70656e20616e79206d6f7265000000000000600082015250565b6000612b76601a83611af3565b9150612b8182612b40565b602082019050919050565b60006020820190508181036000830152612ba581612b69565b9050919050565b7f596f75206861766520616c726561647920766f746564206f6e2074686973207060008201527f726f706f73616c00000000000000000000000000000000000000000000000000602082015250565b6000612c08602783611af3565b9150612c1382612bac565b604082019050919050565b60006020820190508181036000830152612c3781612bfb565b9050919050565b7f4f6e6c79206d656d626572732063616e20616464206f746865722070656f706c60008201527f6521000000000000000000000000000000000000000000000000000000000000602082015250565b6000612c9a602283611af3565b9150612ca582612c3e565b604082019050919050565b60006020820190508181036000830152612cc981612c8d565b9050919050565b7f5468617420706572736f6e20697320616c72656164792061206d656d62657221600082015250565b6000612d06602083611af3565b9150612d1182612cd0565b602082019050919050565b60006020820190508181036000830152612d3581612cf9565b9050919050565b6000612d47826119be565b9150612d52836119be565b9250828202612d60816119be565b91508282048414831517612d7757612d766119c8565b5b5092915050565b6000612d89826119be565b915060008203612d9c57612d9b6119c8565b5b600182039050919050565b7f537472696e67733a20686578206c656e67746820696e73756666696369656e74600082015250565b6000612ddd602083611af3565b9150612de882612da7565b602082019050919050565b60006020820190508181036000830152612e0c81612dd0565b905091905056fe4669727374206f66662c2057656c636f6d6521204265206120676f6f6420706572736f6e20616e6420492077656c636f6d6520796f7520696e746f206d792044414f21204a6f696e20627920666f6c6c6f77696e67207468652070726f7065722070726f6365647572657320616e6420646f6e277420646f2064756d622073747566662120596f752063616e20757365206f757220726571756573744d656d626572736869702066656174757265206f7220796f752063616e206861766520616e206578697374696e67206d656d6265722061646420796f752157652061726520612070617472696f746963206f7267616e697a6174696f6e2064656469636174656420746f20416d65726963612e2057652061636365707420616e796f6e652077686f2077616e747320746f2068656c702074686520636f756e7472792e20426520616e20616374697665206d656d62657220616e6420766f7465206f6e2070726f706f73616c7320746f2068656c70206f757421a2646970667358221220436ddda5ddadc832580fc34992d1ad6b6c034db9c13547dcb9b26f3dad20050d64736f6c6343000812003360806040523480156200001157600080fd5b506040518060400160405280600e81526020017f4d696b654e46544d616e616765720000000000000000000000000000000000008152506040518060400160405280600381526020017f4d4e4d000000000000000000000000000000000000000000000000000000000081525081600090816200008f919062000324565b508060019081620000a1919062000324565b5050506200040b565b600081519050919050565b7f4e487b7100000000000000000000000000000000000000000000000000000000600052604160045260246000fd5b7f4e487b7100000000000000000000000000000000000000000000000000000000600052602260045260246000fd5b600060028204905060018216806200012c57607f821691505b602082108103620001425762000141620000e4565b5b50919050565b60008190508160005260206000209050919050565b60006020601f8301049050919050565b600082821b905092915050565b600060088302620001ac7fffffffffffffffffffffffffffffffffffffffffffffffffffffffffffffffff826200016d565b620001b886836200016d565b95508019841693508086168417925050509392505050565b6000819050919050565b6000819050919050565b600062000205620001ff620001f984620001d0565b620001da565b620001d0565b9050919050565b6000819050919050565b6200022183620001e4565b6200023962000230826200020c565b8484546200017a565b825550505050565b600090565b6200025062000241565b6200025d81848462000216565b505050565b5b8181101562000285576200027960008262000246565b60018101905062000263565b5050565b601f821115620002d4576200029e8162000148565b620002a9846200015d565b81016020851015620002b9578190505b620002d1620002c8856200015d565b83018262000262565b50505b505050565b600082821c905092915050565b6000620002f960001984600802620002d9565b1980831691505092915050565b6000620003148383620002e6565b9150826002028217905092915050565b6200032f82620000aa565b67ffffffffffffffff8111156200034b576200034a620000b5565b5b62000357825462000113565b6200036482828562000289565b600060209050601f8311600181146200039c576000841562000387578287015190505b62000393858262000306565b86555062000403565b601f198416620003ac8662000148565b60005b82811015620003d657848901518255600182019150602085019450602081019050620003af565b86831015620003f65784890151620003f2601f891682620002e6565b8355505b6001600288020188555050505b505050505050565b612ca7806200041b6000396000f3fe608060405234801561001057600080fd5b506004361061010b5760003560e01c80636352211e116100a257806395d89b411161007157806395d89b41146102f0578063a22cb4651461030e578063b88d4fde1461032a578063c87b56dd14610346578063e985e9c5146103765761010b565b80636352211e1461023057806370a08231146102605780638bcbc79e14610290578063947b59ae146102c05761010b565b8063095ea7b3116100de578063095ea7b3146101ac5780630e980602146101c857806323b872dd146101f857806342842e0e146102145761010b565b806301ffc9a71461011057806306661abd1461014057806306fdde031461015e578063081812fc1461017c575b600080fd5b61012a600480360381019061012591906118f9565b6103a6565b6040516101379190611941565b60405180910390f35b610148610548565b6040516101559190611975565b60405180910390f35b61016661054e565b6040516101739190611a20565b60405180910390f35b61019660048036038101906101919190611a6e565b6105e0565b6040516101a39190611adc565b60405180910390f35b6101c660048036038101906101c19190611b23565b610626565b005b6101e260048036038101906101dd9190611c98565b61073d565b6040516101ef9190611975565b60405180910390f35b610212600480360381019061020d9190611cf4565b6108fc565b005b61022e60048036038101906102299190611cf4565b61095c565b005b61024a60048036038101906102459190611a6e565b61097c565b6040516102579190611adc565b60405180910390f35b61027a60048036038101906102759190611d47565b610a02565b6040516102879190611975565b60405180910390f35b6102aa60048036038101906102a59190611a6e565b610ab9565b6040516102b79190611a20565b60405180910390f35b6102da60048036038101906102d59190611d74565b610b59565b6040516102e79190611975565b60405180910390f35b6102f8610b6c565b6040516103059190611a20565b60405180910390f35b61032860048036038101906103239190611de9565b610bfe565b005b610344600480360381019061033f9190611eca565b610c14565b005b610360600480360381019061035b9190611a6e565b610c76565b60405161036d9190611a20565b60405180910390f35b610390600480360381019061038b9190611f4d565b610d0b565b60405161039d9190611941565b60405180910390f35b60007f01ffc9a7000000000000000000000000000000000000000000000000000000007bffffffffffffffffffffffffffffffffffffffffffffffffffffffff1916827bffffffffffffffffffffffffffffffffffffffffffffffffffffffff1916148061047157507f9c854511000000000000000000000000000000000000000000000000000000007bffffffffffffffffffffffffffffffffffffffffffffffffffffffff1916827bffffffffffffffffffffffffffffffffffffffffffffffffffffffff1916145b806104d957507f80ac58cd000000000000000000000000000000000000000000000000000000007bffffffffffffffffffffffffffffffffffffffffffffffffffffffff1916827bffffffffffffffffffffffffffffffffffffffffffffffffffffffff1916145b8061054157507f5b5e139f000000000000000000000000000000000000000000000000000000007bffffffffffffffffffffffffffffffffffffffffffffffffffffffff1916827bffffffffffffffffffffffffffffffffffffffffffffffffffffffff1916145b9050919050565b60075481565b60606000805461055d90611fbc565b80601f016020809104026020016040519081016040528092919081815260200182805461058990611fbc565b80156105d65780601f106105ab576101008083540402835291602001916105d6565b820191906000526020600020905b8154815290600101906020018083116105b957829003601f168201915b5050505050905090565b60006105eb82610d9f565b6004600083815260200190815260200160002060009054906101000a900473ffffffffffffffffffffffffffffffffffffffff169050919050565b60006106318261097c565b90508073ffffffffffffffffffffffffffffffffffffffff168373ffffffffffffffffffffffffffffffffffffffff16036106a1576040517f08c379a00000000000000000000000000000000000000000000000000000000081526004016106989061205f565b60405180910390fd5b8073ffffffffffffffffffffffffffffffffffffffff166106c0610dea565b73ffffffffffffffffffffffffffffffffffffffff1614806106ef57506106ee816106e9610dea565b610d0b565b5b61072e576040517f08c379a0000000000000000000000000000000000000000000000000000000008152600401610725906120f1565b60405180910390fd5b6107388383610df2565b505050565b60006107588260405180602001604052806000815250610eab565b15610798576040517f08c379a000000000000000000000000000000000000000000000000000000000815260040161078f90612183565b60405180910390fd5b60005b60075481101561089d5761084a6006600083815260200190815260200160002080546107c690611fbc565b80601f01602080910402602001604051908101604052809291908181526020018280546107f290611fbc565b801561083f5780601f106108145761010080835404028352916020019161083f565b820191906000526020600020905b81548152906001019060200180831161082257829003601f168201915b505050505084610eab565b1561088a576040517f08c379a00000000000000000000000000000000000000000000000000000000081526004016108819061223b565b60405180910390fd5b80806108959061228a565b91505061079b565b506108aa83600754610ec6565b8160066000600754815260200190815260200160002090816108cc919061247e565b50600760008154809291906108e09061228a565b919050555060016007546108f49190612550565b905092915050565b61090d610907610dea565b826110e3565b61094c576040517f08c379a0000000000000000000000000000000000000000000000000000000008152600401610943906125f6565b60405180910390fd5b610957838383611178565b505050565b61097783838360405180602001604052806000815250610c14565b505050565b60008061098883611471565b9050600073ffffffffffffffffffffffffffffffffffffffff168173ffffffffffffffffffffffffffffffffffffffff16036109f9576040517f08c379a00000000000000000000000000000000000000000000000000000000081526004016109f090612662565b60405180910390fd5b80915050919050565b60008073ffffffffffffffffffffffffffffffffffffffff168273ffffffffffffffffffffffffffffffffffffffff1603610a72576040517f08c379a0000000000000000000000000000000000000000000000000000000008152600401610a69906126f4565b60405180910390fd5b600360008373ffffffffffffffffffffffffffffffffffffffff1673ffffffffffffffffffffffffffffffffffffffff168152602001908152602001600020549050919050565b60066020528060005260406000206000915090508054610ad890611fbc565b80601f0160208091040260200160405190810160405280929190818152602001828054610b0490611fbc565b8015610b515780601f10610b2657610100808354040283529160200191610b51565b820191906000526020600020905b815481529060010190602001808311610b3457829003601f168201915b505050505081565b6000610b65338361073d565b9050919050565b606060018054610b7b90611fbc565b80601f0160208091040260200160405190810160405280929190818152602001828054610ba790611fbc565b8015610bf45780601f10610bc957610100808354040283529160200191610bf4565b820191906000526020600020905b815481529060010190602001808311610bd757829003601f168201915b5050505050905090565b610c10610c09610dea565b83836114ae565b5050565b610c25610c1f610dea565b836110e3565b610c64576040517f08c379a0000000000000000000000000000000000000000000000000000000008152600401610c5b906125f6565b60405180910390fd5b610c708484848461161a565b50505050565b606060008210158015610c8a575060075482105b610cc9576040517f08c379a0000000000000000000000000000000000000000000000000000000008152600401610cc090612760565b60405180910390fd5b610cd1611676565b60066000848152602001908152602001600020604051602001610cf592919061283f565b6040516020818303038152906040529050919050565b6000600560008473ffffffffffffffffffffffffffffffffffffffff1673ffffffffffffffffffffffffffffffffffffffff16815260200190815260200160002060008373ffffffffffffffffffffffffffffffffffffffff1673ffffffffffffffffffffffffffffffffffffffff16815260200190815260200160002060009054906101000a900460ff16905092915050565b610da881611696565b610de7576040517f08c379a0000000000000000000000000000000000000000000000000000000008152600401610dde90612662565b60405180910390fd5b50565b600033905090565b816004600083815260200190815260200160002060006101000a81548173ffffffffffffffffffffffffffffffffffffffff021916908373ffffffffffffffffffffffffffffffffffffffff160217905550808273ffffffffffffffffffffffffffffffffffffffff16610e658361097c565b73ffffffffffffffffffffffffffffffffffffffff167f8c5be1e5ebec7d5bd14f71427d1e84f3dd0314c0f7b2291e5b200ac8c7c3b92560405160405180910390a45050565b60008180519060200120838051906020012014905092915050565b600073ffffffffffffffffffffffffffffffffffffffff168273ffffffffffffffffffffffffffffffffffffffff1603610f35576040517f08c379a0000000000000000000000000000000000000000000000000000000008152600401610f2c906128af565b60405180910390fd5b610f3e81611696565b15610f7e576040517f08c379a0000000000000000000000000000000000000000000000000000000008152600401610f759061291b565b60405180910390fd5b610f8c6000838360016116d7565b610f9581611696565b15610fd5576040517f08c379a0000000000000000000000000000000000000000000000000000000008152600401610fcc9061291b565b60405180910390fd5b6001600360008473ffffffffffffffffffffffffffffffffffffffff1673ffffffffffffffffffffffffffffffffffffffff16815260200190815260200160002060008282540192505081905550816002600083815260200190815260200160002060006101000a81548173ffffffffffffffffffffffffffffffffffffffff021916908373ffffffffffffffffffffffffffffffffffffffff160217905550808273ffffffffffffffffffffffffffffffffffffffff16600073ffffffffffffffffffffffffffffffffffffffff167fddf252ad1be2c89b69c2b068fc378daa952ba7f163c4a11628f55a4df523b3ef60405160405180910390a46110df6000838360016116dd565b5050565b6000806110ef8361097c565b90508073ffffffffffffffffffffffffffffffffffffffff168473ffffffffffffffffffffffffffffffffffffffff16148061113157506111308185610d0b565b5b8061116f57508373ffffffffffffffffffffffffffffffffffffffff16611157846105e0565b73ffffffffffffffffffffffffffffffffffffffff16145b91505092915050565b8273ffffffffffffffffffffffffffffffffffffffff166111988261097c565b73ffffffffffffffffffffffffffffffffffffffff16146111ee576040517f08c379a00000000000000000000000000000000000000000000000000000000081526004016111e5906129ad565b60405180910390fd5b600073ffffffffffffffffffffffffffffffffffffffff168273ffffffffffffffffffffffffffffffffffffffff160361125d576040517f08c379a000000000000000000000000000000000000000000000000000000000815260040161125490612a3f565b60405180910390fd5b61126a83838360016116d7565b8273ffffffffffffffffffffffffffffffffffffffff1661128a8261097c565b73ffffffffffffffffffffffffffffffffffffffff16146112e0576040517f08c379a00000000000000000000000000000000000000000000000000000000081526004016112d7906129ad565b60405180910390fd5b6004600082815260200190815260200160002060006101000a81549073ffffffffffffffffffffffffffffffffffffffff02191690556001600360008573ffffffffffffffffffffffffffffffffffffffff1673ffffffffffffffffffffffffffffffffffffffff168152602001908152602001600020600082825403925050819055506001600360008473ffffffffffffffffffffffffffffffffffffffff1673ffffffffffffffffffffffffffffffffffffffff16815260200190815260200160002060008282540192505081905550816002600083815260200190815260200160002060006101000a81548173ffffffffffffffffffffffffffffffffffffffff021916908373ffffffffffffffffffffffffffffffffffffffff160217905550808273ffffffffffffffffffffffffffffffffffffffff168473ffffffffffffffffffffffffffffffffffffffff167fddf252ad1be2c89b69c2b068fc378daa952ba7f163c4a11628f55a4df523b3ef60405160405180910390a461146c83838360016116dd565b505050565b60006002600083815260200190815260200160002060009054906101000a900473ffffffffffffffffffffffffffffffffffffffff169050919050565b8173ffffffffffffffffffffffffffffffffffffffff168373ffffffffffffffffffffffffffffffffffffffff160361151c576040517f08c379a000000000000000000000000000000000000000000000000000000000815260040161151390612aab565b60405180910390fd5b80600560008573ffffffffffffffffffffffffffffffffffffffff1673ffffffffffffffffffffffffffffffffffffffff16815260200190815260200160002060008473ffffffffffffffffffffffffffffffffffffffff1673ffffffffffffffffffffffffffffffffffffffff16815260200190815260200160002060006101000a81548160ff0219169083151502179055508173ffffffffffffffffffffffffffffffffffffffff168373ffffffffffffffffffffffffffffffffffffffff167f17307eab39ab6107e8899845ad3d59bd9653f200f220920489ca2b5937696c318360405161160d9190611941565b60405180910390a3505050565b611625848484611178565b611631848484846116e3565b611670576040517f08c379a000000000000000000000000000000000000000000000000000000000815260040161166790612b3d565b60405180910390fd5b50505050565b6060604051806060016040528060318152602001612c4160319139905090565b60008073ffffffffffffffffffffffffffffffffffffffff166116b883611471565b73ffffffffffffffffffffffffffffffffffffffff1614159050919050565b50505050565b50505050565b60006117048473ffffffffffffffffffffffffffffffffffffffff1661186a565b1561185d578373ffffffffffffffffffffffffffffffffffffffff1663150b7a0261172d610dea565b8786866040518563ffffffff1660e01b815260040161174f9493929190612bb2565b6020604051808303816000875af192505050801561178b57506040513d601f19601f820116820180604052508101906117889190612c13565b60015b61180d573d80600081146117bb576040519150601f19603f3d011682016040523d82523d6000602084013e6117c0565b606091505b506000815103611805576040517f08c379a00000000000000000000000000000000000000000000000000000000081526004016117fc90612b3d565b60405180910390fd5b805181602001fd5b63150b7a0260e01b7bffffffffffffffffffffffffffffffffffffffffffffffffffffffff1916817bffffffffffffffffffffffffffffffffffffffffffffffffffffffff191614915050611862565b600190505b949350505050565b6000808273ffffffffffffffffffffffffffffffffffffffff163b119050919050565b6000604051905090565b600080fd5b600080fd5b60007fffffffff0000000000000000000000000000000000000000000000000000000082169050919050565b6118d6816118a1565b81146118e157600080fd5b50565b6000813590506118f3816118cd565b92915050565b60006020828403121561190f5761190e611897565b5b600061191d848285016118e4565b91505092915050565b60008115159050919050565b61193b81611926565b82525050565b60006020820190506119566000830184611932565b92915050565b6000819050919050565b61196f8161195c565b82525050565b600060208201905061198a6000830184611966565b92915050565b600081519050919050565b600082825260208201905092915050565b60005b838110156119ca5780820151818401526020810190506119af565b60008484015250505050565b6000601f19601f8301169050919050565b60006119f282611990565b6119fc818561199b565b9350611a0c8185602086016119ac565b611a15816119d6565b840191505092915050565b60006020820190508181036000830152611a3a81846119e7565b905092915050565b611a4b8161195c565b8114611a5657600080fd5b50565b600081359050611a6881611a42565b92915050565b600060208284031215611a8457611a83611897565b5b6000611a9284828501611a59565b91505092915050565b600073ffffffffffffffffffffffffffffffffffffffff82169050919050565b6000611ac682611a9b565b9050919050565b611ad681611abb565b82525050565b6000602082019050611af16000830184611acd565b92915050565b611b0081611abb565b8114611b0b57600080fd5b50565b600081359050611b1d81611af7565b92915050565b60008060408385031215611b3a57611b39611897565b5b6000611b4885828601611b0e565b9250506020611b5985828601611a59565b9150509250929050565b600080fd5b600080fd5b7f4e487b7100000000000000000000000000000000000000000000000000000000600052604160045260246000fd5b611ba5826119d6565b810181811067ffffffffffffffff82111715611bc457611bc3611b6d565b5b80604052505050565b6000611bd761188d565b9050611be38282611b9c565b919050565b600067ffffffffffffffff821115611c0357611c02611b6d565b5b611c0c826119d6565b9050602081019050919050565b82818337600083830152505050565b6000611c3b611c3684611be8565b611bcd565b905082815260208101848484011115611c5757611c56611b68565b5b611c62848285611c19565b509392505050565b600082601f830112611c7f57611c7e611b63565b5b8135611c8f848260208601611c28565b91505092915050565b60008060408385031215611caf57611cae611897565b5b6000611cbd85828601611b0e565b925050602083013567ffffffffffffffff811115611cde57611cdd61189c565b5b611cea85828601611c6a565b9150509250929050565b600080600060608486031215611d0d57611d0c611897565b5b6000611d1b86828701611b0e565b9350506020611d2c86828701611b0e565b9250506040611d3d86828701611a59565b9150509250925092565b600060208284031215611d5d57611d5c611897565b5b6000611d6b84828501611b0e565b91505092915050565b600060208284031215611d8a57611d89611897565b5b600082013567ffffffffffffffff811115611da857611da761189c565b5b611db484828501611c6a565b91505092915050565b611dc681611926565b8114611dd157600080fd5b50565b600081359050611de381611dbd565b92915050565b60008060408385031215611e0057611dff611897565b5b6000611e0e85828601611b0e565b9250506020611e1f85828601611dd4565b9150509250929050565b600067ffffffffffffffff821115611e4457611e43611b6d565b5b611e4d826119d6565b9050602081019050919050565b6000611e6d611e6884611e29565b611bcd565b905082815260208101848484011115611e8957611e88611b68565b5b611e94848285611c19565b509392505050565b600082601f830112611eb157611eb0611b63565b5b8135611ec1848260208601611e5a565b91505092915050565b60008060008060808587031215611ee457611ee3611897565b5b6000611ef287828801611b0e565b9450506020611f0387828801611b0e565b9350506040611f1487828801611a59565b925050606085013567ffffffffffffffff811115611f3557611f3461189c565b5b611f4187828801611e9c565b91505092959194509250565b60008060408385031215611f6457611f63611897565b5b6000611f7285828601611b0e565b9250506020611f8385828601611b0e565b9150509250929050565b7f4e487b7100000000000000000000000000000000000000000000000000000000600052602260045260246000fd5b60006002820490506001821680611fd457607f821691505b602082108103611fe757611fe6611f8d565b5b50919050565b7f4552433732313a20617070726f76616c20746f2063757272656e74206f776e6560008201527f7200000000000000000000000000000000000000000000000000000000000000602082015250565b600061204960218361199b565b915061205482611fed565b604082019050919050565b600060208201905081810360008301526120788161203c565b9050919050565b7f4552433732313a20617070726f76652063616c6c6572206973206e6f7420746f60008201527f6b656e206f776e6572206f7220617070726f76656420666f7220616c6c000000602082015250565b60006120db603d8361199b565b91506120e68261207f565b604082019050919050565b6000602082019050818103600083015261210a816120ce565b9050919050565b7f646f6e277420747279206d616b696e6720616e20656d70747920737472696e6760008201527f20746f6b656e2e2e2e0000000000000000000000000000000000000000000000602082015250565b600061216d60298361199b565b915061217882612111565b604082019050919050565b6000602082019050818103600083015261219c81612160565b9050919050565b7f4475706c69636174652120446f206e6f742065766572207472792073656e646960008201527f6e672061206475706c696361746520746f206d696e7420616761696e2043484560208201527f4154455221000000000000000000000000000000000000000000000000000000604082015250565b600061222560458361199b565b9150612230826121a3565b606082019050919050565b6000602082019050818103600083015261225481612218565b9050919050565b7f4e487b7100000000000000000000000000000000000000000000000000000000600052601160045260246000fd5b60006122958261195c565b91507fffffffffffffffffffffffffffffffffffffffffffffffffffffffffffffffff82036122c7576122c661225b565b5b600182019050919050565b60008190508160005260206000209050919050565b60006020601f8301049050919050565b600082821b905092915050565b6000600883026123347fffffffffffffffffffffffffffffffffffffffffffffffffffffffffffffffff826122f7565b61233e86836122f7565b95508019841693508086168417925050509392505050565b6000819050919050565b600061237b6123766123718461195c565b612356565b61195c565b9050919050565b6000819050919050565b61239583612360565b6123a96123a182612382565b848454612304565b825550505050565b600090565b6123be6123b1565b6123c981848461238c565b505050565b5b818110156123ed576123e26000826123b6565b6001810190506123cf565b5050565b601f82111561243257612403816122d2565b61240c846122e7565b8101602085101561241b578190505b61242f612427856122e7565b8301826123ce565b50505b505050565b600082821c905092915050565b600061245560001984600802612437565b1980831691505092915050565b600061246e8383612444565b9150826002028217905092915050565b61248782611990565b67ffffffffffffffff8111156124a05761249f611b6d565b5b6124aa8254611fbc565b6124b58282856123f1565b600060209050601f8311600181146124e857600084156124d6578287015190505b6124e08582612462565b865550612548565b601f1984166124f6866122d2565b60005b8281101561251e578489015182556001820191506020850194506020810190506124f9565b8683101561253b5784890151612537601f891682612444565b8355505b6001600288020188555050505b505050505050565b600061255b8261195c565b91506125668361195c565b925082820390508181111561257e5761257d61225b565b5b92915050565b7f4552433732313a2063616c6c6572206973206e6f7420746f6b656e206f776e6560008201527f72206f7220617070726f76656400000000000000000000000000000000000000602082015250565b60006125e0602d8361199b565b91506125eb82612584565b604082019050919050565b6000602082019050818103600083015261260f816125d3565b9050919050565b7f4552433732313a20696e76616c696420746f6b656e2049440000000000000000600082015250565b600061264c60188361199b565b915061265782612616565b602082019050919050565b6000602082019050818103600083015261267b8161263f565b9050919050565b7f4552433732313a2061646472657373207a65726f206973206e6f74206120766160008201527f6c6964206f776e65720000000000000000000000000000000000000000000000602082015250565b60006126de60298361199b565b91506126e982612682565b604082019050919050565b6000602082019050818103600083015261270d816126d1565b9050919050565b7f696e76616c696420746f6b656e20696421000000000000000000000000000000600082015250565b600061274a60118361199b565b915061275582612714565b602082019050919050565b600060208201905081810360008301526127798161273d565b9050919050565b600081905092915050565b600061279682611990565b6127a08185612780565b93506127b08185602086016119ac565b80840191505092915050565b600081546127c981611fbc565b6127d38186612780565b945060018216600081146127ee576001811461280357612836565b60ff1983168652811515820286019350612836565b61280c856122d2565b60005b8381101561282e5781548189015260018201915060208101905061280f565b838801955050505b50505092915050565b600061284b828561278b565b915061285782846127bc565b91508190509392505050565b7f4552433732313a206d696e7420746f20746865207a65726f2061646472657373600082015250565b600061289960208361199b565b91506128a482612863565b602082019050919050565b600060208201905081810360008301526128c88161288c565b9050919050565b7f4552433732313a20746f6b656e20616c7265616479206d696e74656400000000600082015250565b6000612905601c8361199b565b9150612910826128cf565b602082019050919050565b60006020820190508181036000830152612934816128f8565b9050919050565b7f4552433732313a207472616e736665722066726f6d20696e636f72726563742060008201527f6f776e6572000000000000000000000000000000000000000000000000000000602082015250565b600061299760258361199b565b91506129a28261293b565b604082019050919050565b600060208201905081810360008301526129c68161298a565b9050919050565b7f4552433732313a207472616e7366657220746f20746865207a65726f2061646460008201527f7265737300000000000000000000000000000000000000000000000000000000602082015250565b6000612a2960248361199b565b9150612a34826129cd565b604082019050919050565b60006020820190508181036000830152612a5881612a1c565b9050919050565b7f4552433732313a20617070726f766520746f2063616c6c657200000000000000600082015250565b6000612a9560198361199b565b9150612aa082612a5f565b602082019050919050565b60006020820190508181036000830152612ac481612a88565b9050919050565b7f4552433732313a207472616e7366657220746f206e6f6e20455243373231526560008201527f63656976657220696d706c656d656e7465720000000000000000000000000000602082015250565b6000612b2760328361199b565b9150612b3282612acb565b604082019050919050565b60006020820190508181036000830152612b5681612b1a565b9050919050565b600081519050919050565b600082825260208201905092915050565b6000612b8482612b5d565b612b8e8185612b68565b9350612b9e8185602086016119ac565b612ba7816119d6565b840191505092915050565b6000608082019050612bc76000830187611acd565b612bd46020830186611acd565b612be16040830185611966565b8181036060830152612bf38184612b79565b905095945050505050565b600081519050612c0d816118cd565b92915050565b600060208284031215612c2957612c28611897565b5b6000612c3784828501612bfe565b9150509291505056fe68747470733a2f2f616e64726f6d6564612e63732e76697267696e69612e6564752f6363632f697066732f66696c65732fa26469706673582212203d6b25c283d43b40a8f8a70d90126a0dddad1e7c798f1ccb2ab4e84e3efe73c364736f6c63430008120033",
			"opcodes": "PUSH1 0x80 PUSH1 0x40 MSTORE CALLVALUE DUP1 ISZERO PUSH3 0x11 JUMPI PUSH1 0x0 DUP1 REVERT JUMPDEST POP CALLER PUSH1 0x6 PUSH1 0x0 PUSH2 0x100 EXP DUP2 SLOAD DUP2 PUSH20 0xFFFFFFFFFFFFFFFFFFFFFFFFFFFFFFFFFFFFFFFF MUL NOT AND SWAP1 DUP4 PUSH20 0xFFFFFFFFFFFFFFFFFFFFFFFFFFFFFFFFFFFFFFFF AND MUL OR SWAP1 SSTORE POP PUSH1 0x40 MLOAD PUSH3 0x61 SWAP1 PUSH3 0x57C JUMP JUMPDEST PUSH1 0x40 MLOAD DUP1 SWAP2 SUB SWAP1 PUSH1 0x0 CREATE DUP1 ISZERO DUP1 ISZERO PUSH3 0x7E JUMPI RETURNDATASIZE PUSH1 0x0 DUP1 RETURNDATACOPY RETURNDATASIZE PUSH1 0x0 REVERT JUMPDEST POP PUSH1 0x1 PUSH1 0x0 PUSH2 0x100 EXP DUP2 SLOAD DUP2 PUSH20 0xFFFFFFFFFFFFFFFFFFFFFFFFFFFFFFFFFFFFFFFF MUL NOT AND SWAP1 DUP4 PUSH20 0xFFFFFFFFFFFFFFFFFFFFFFFFFFFFFFFFFFFFFFFF AND MUL OR SWAP1 SSTORE POP PUSH1 0x0 PUSH3 0x10D PUSH3 0xFD PUSH1 0x6 PUSH1 0x0 SWAP1 SLOAD SWAP1 PUSH2 0x100 EXP SWAP1 DIV PUSH20 0xFFFFFFFFFFFFFFFFFFFFFFFFFFFFFFFFFFFFFFFF AND PUSH3 0x1DE PUSH1 0x20 SHL PUSH3 0x1755 OR PUSH1 0x20 SHR JUMP JUMPDEST PUSH1 0x2 PUSH1 0x22 PUSH3 0x213 PUSH1 0x20 SHL PUSH1 0x20 SHR JUMP JUMPDEST SWAP1 POP PUSH1 0x1 PUSH1 0x0 SWAP1 SLOAD SWAP1 PUSH2 0x100 EXP SWAP1 DIV PUSH20 0xFFFFFFFFFFFFFFFFFFFFFFFFFFFFFFFFFFFFFFFF AND PUSH20 0xFFFFFFFFFFFFFFFFFFFFFFFFFFFFFFFFFFFFFFFF AND PUSH4 0xE980602 PUSH1 0x6 PUSH1 0x0 SWAP1 SLOAD SWAP1 PUSH2 0x100 EXP SWAP1 DIV PUSH20 0xFFFFFFFFFFFFFFFFFFFFFFFFFFFFFFFFFFFFFFFF AND DUP4 PUSH1 0x40 MLOAD DUP4 PUSH4 0xFFFFFFFF AND PUSH1 0xE0 SHL DUP2 MSTORE PUSH1 0x4 ADD PUSH3 0x190 SWAP3 SWAP2 SWAP1 PUSH3 0x669 JUMP JUMPDEST PUSH1 0x20 PUSH1 0x40 MLOAD DUP1 DUP4 SUB DUP2 PUSH1 0x0 DUP8 GAS CALL ISZERO DUP1 ISZERO PUSH3 0x1B0 JUMPI RETURNDATASIZE PUSH1 0x0 DUP1 RETURNDATACOPY RETURNDATASIZE PUSH1 0x0 REVERT JUMPDEST POP POP POP POP PUSH1 0x40 MLOAD RETURNDATASIZE PUSH1 0x1F NOT PUSH1 0x1F DUP3 ADD AND DUP3 ADD DUP1 PUSH1 0x40 MSTORE POP DUP2 ADD SWAP1 PUSH3 0x1D6 SWAP2 SWAP1 PUSH3 0x6DD JUMP JUMPDEST POP POP PUSH3 0x94A JUMP JUMPDEST PUSH1 0x60 PUSH3 0x20C DUP3 PUSH20 0xFFFFFFFFFFFFFFFFFFFFFFFFFFFFFFFFFFFFFFFF AND PUSH1 0x14 PUSH1 0xFF AND PUSH3 0x321 PUSH1 0x20 SHL PUSH1 0x20 SHR JUMP JUMPDEST SWAP1 POP SWAP2 SWAP1 POP JUMP JUMPDEST PUSH1 0x60 PUSH1 0x0 DUP5 SWAP1 POP PUSH1 0x0 DUP5 DUP5 PUSH3 0x22A SWAP2 SWAP1 PUSH3 0x73E JUMP JUMPDEST PUSH8 0xFFFFFFFFFFFFFFFF DUP2 GT ISZERO PUSH3 0x246 JUMPI PUSH3 0x245 PUSH3 0x779 JUMP JUMPDEST JUMPDEST PUSH1 0x40 MLOAD SWAP1 DUP1 DUP3 MSTORE DUP1 PUSH1 0x1F ADD PUSH1 0x1F NOT AND PUSH1 0x20 ADD DUP3 ADD PUSH1 0x40 MSTORE DUP1 ISZERO PUSH3 0x279 JUMPI DUP2 PUSH1 0x20 ADD PUSH1 0x1 DUP3 MUL DUP1 CALLDATASIZE DUP4 CALLDATACOPY DUP1 DUP3 ADD SWAP2 POP POP SWAP1 POP JUMPDEST POP SWAP1 POP PUSH1 0x0 DUP6 SWAP1 POP JUMPDEST DUP5 DUP2 LT ISZERO PUSH3 0x314 JUMPI DUP3 DUP2 DUP2 MLOAD DUP2 LT PUSH3 0x2A1 JUMPI PUSH3 0x2A0 PUSH3 0x7A8 JUMP JUMPDEST JUMPDEST PUSH1 0x20 ADD ADD MLOAD PUSH1 0xF8 SHR PUSH1 0xF8 SHL DUP3 DUP8 DUP4 PUSH3 0x2BB SWAP2 SWAP1 PUSH3 0x73E JUMP JUMPDEST DUP2 MLOAD DUP2 LT PUSH3 0x2CF JUMPI PUSH3 0x2CE PUSH3 0x7A8 JUMP JUMPDEST JUMPDEST PUSH1 0x20 ADD ADD SWAP1 PUSH31 0xFFFFFFFFFFFFFFFFFFFFFFFFFFFFFFFFFFFFFFFFFFFFFFFFFFFFFFFFFFFFFF NOT AND SWAP1 DUP2 PUSH1 0x0 BYTE SWAP1 MSTORE8 POP DUP1 DUP1 PUSH3 0x30B SWAP1 PUSH3 0x7D7 JUMP JUMPDEST SWAP2 POP POP PUSH3 0x282 JUMP JUMPDEST POP DUP1 SWAP3 POP POP POP SWAP4 SWAP3 POP POP POP JUMP JUMPDEST PUSH1 0x60 PUSH1 0x0 PUSH1 0x2 DUP4 PUSH1 0x2 PUSH3 0x336 SWAP2 SWAP1 PUSH3 0x824 JUMP JUMPDEST PUSH3 0x342 SWAP2 SWAP1 PUSH3 0x86F JUMP JUMPDEST PUSH8 0xFFFFFFFFFFFFFFFF DUP2 GT ISZERO PUSH3 0x35E JUMPI PUSH3 0x35D PUSH3 0x779 JUMP JUMPDEST JUMPDEST PUSH1 0x40 MLOAD SWAP1 DUP1 DUP3 MSTORE DUP1 PUSH1 0x1F ADD PUSH1 0x1F NOT AND PUSH1 0x20 ADD DUP3 ADD PUSH1 0x40 MSTORE DUP1 ISZERO PUSH3 0x391 JUMPI DUP2 PUSH1 0x20 ADD PUSH1 0x1 DUP3 MUL DUP1 CALLDATASIZE DUP4 CALLDATACOPY DUP1 DUP3 ADD SWAP2 POP POP SWAP1 POP JUMPDEST POP SWAP1 POP PUSH32 0x3000000000000000000000000000000000000000000000000000000000000000 DUP2 PUSH1 0x0 DUP2 MLOAD DUP2 LT PUSH3 0x3CC JUMPI PUSH3 0x3CB PUSH3 0x7A8 JUMP JUMPDEST JUMPDEST PUSH1 0x20 ADD ADD SWAP1 PUSH31 0xFFFFFFFFFFFFFFFFFFFFFFFFFFFFFFFFFFFFFFFFFFFFFFFFFFFFFFFFFFFFFF NOT AND SWAP1 DUP2 PUSH1 0x0 BYTE SWAP1 MSTORE8 POP PUSH32 0x7800000000000000000000000000000000000000000000000000000000000000 DUP2 PUSH1 0x1 DUP2 MLOAD DUP2 LT PUSH3 0x433 JUMPI PUSH3 0x432 PUSH3 0x7A8 JUMP JUMPDEST JUMPDEST PUSH1 0x20 ADD ADD SWAP1 PUSH31 0xFFFFFFFFFFFFFFFFFFFFFFFFFFFFFFFFFFFFFFFFFFFFFFFFFFFFFFFFFFFFFF NOT AND SWAP1 DUP2 PUSH1 0x0 BYTE SWAP1 MSTORE8 POP PUSH1 0x0 PUSH1 0x1 DUP5 PUSH1 0x2 PUSH3 0x475 SWAP2 SWAP1 PUSH3 0x824 JUMP JUMPDEST PUSH3 0x481 SWAP2 SWAP1 PUSH3 0x86F JUMP JUMPDEST SWAP1 POP JUMPDEST PUSH1 0x1 DUP2 GT ISZERO PUSH3 0x52B JUMPI PUSH32 0x3031323334353637383961626364656600000000000000000000000000000000 PUSH1 0xF DUP7 AND PUSH1 0x10 DUP2 LT PUSH3 0x4C7 JUMPI PUSH3 0x4C6 PUSH3 0x7A8 JUMP JUMPDEST JUMPDEST BYTE PUSH1 0xF8 SHL DUP3 DUP3 DUP2 MLOAD DUP2 LT PUSH3 0x4E1 JUMPI PUSH3 0x4E0 PUSH3 0x7A8 JUMP JUMPDEST JUMPDEST PUSH1 0x20 ADD ADD SWAP1 PUSH31 0xFFFFFFFFFFFFFFFFFFFFFFFFFFFFFFFFFFFFFFFFFFFFFFFFFFFFFFFFFFFFFF NOT AND SWAP1 DUP2 PUSH1 0x0 BYTE SWAP1 MSTORE8 POP PUSH1 0x4 DUP6 SWAP1 SHR SWAP5 POP DUP1 PUSH3 0x523 SWAP1 PUSH3 0x8AA JUMP JUMPDEST SWAP1 POP PUSH3 0x484 JUMP JUMPDEST POP PUSH1 0x0 DUP5 EQ PUSH3 0x572 JUMPI PUSH1 0x40 MLOAD PUSH32 0x8C379A000000000000000000000000000000000000000000000000000000000 DUP2 MSTORE PUSH1 0x4 ADD PUSH3 0x569 SWAP1 PUSH3 0x928 JUMP JUMPDEST PUSH1 0x40 MLOAD DUP1 SWAP2 SUB SWAP1 REVERT JUMPDEST DUP1 SWAP2 POP POP SWAP3 SWAP2 POP POP JUMP JUMPDEST PUSH2 0x30C2 DUP1 PUSH3 0x3919 DUP4 CODECOPY ADD SWAP1 JUMP JUMPDEST PUSH1 0x0 PUSH20 0xFFFFFFFFFFFFFFFFFFFFFFFFFFFFFFFFFFFFFFFF DUP3 AND SWAP1 POP SWAP2 SWAP1 POP JUMP JUMPDEST PUSH1 0x0 PUSH3 0x5B7 DUP3 PUSH3 0x58A JUMP JUMPDEST SWAP1 POP SWAP2 SWAP1 POP JUMP JUMPDEST PUSH3 0x5C9 DUP2 PUSH3 0x5AA JUMP JUMPDEST DUP3 MSTORE POP POP JUMP JUMPDEST PUSH1 0x0 DUP2 MLOAD SWAP1 POP SWAP2 SWAP1 POP JUMP JUMPDEST PUSH1 0x0 DUP3 DUP3 MSTORE PUSH1 0x20 DUP3 ADD SWAP1 POP SWAP3 SWAP2 POP POP JUMP JUMPDEST PUSH1 0x0 JUMPDEST DUP4 DUP2 LT ISZERO PUSH3 0x60B JUMPI DUP1 DUP3 ADD MLOAD DUP2 DUP5 ADD MSTORE PUSH1 0x20 DUP2 ADD SWAP1 POP PUSH3 0x5EE JUMP JUMPDEST PUSH1 0x0 DUP5 DUP5 ADD MSTORE POP POP POP POP JUMP JUMPDEST PUSH1 0x0 PUSH1 0x1F NOT PUSH1 0x1F DUP4 ADD AND SWAP1 POP SWAP2 SWAP1 POP JUMP JUMPDEST PUSH1 0x0 PUSH3 0x635 DUP3 PUSH3 0x5CF JUMP JUMPDEST PUSH3 0x641 DUP2 DUP6 PUSH3 0x5DA JUMP JUMPDEST SWAP4 POP PUSH3 0x653 DUP2 DUP6 PUSH1 0x20 DUP7 ADD PUSH3 0x5EB JUMP JUMPDEST PUSH3 0x65E DUP2 PUSH3 0x617 JUMP JUMPDEST DUP5 ADD SWAP2 POP POP SWAP3 SWAP2 POP POP JUMP JUMPDEST PUSH1 0x0 PUSH1 0x40 DUP3 ADD SWAP1 POP PUSH3 0x680 PUSH1 0x0 DUP4 ADD DUP6 PUSH3 0x5BE JUMP JUMPDEST DUP2 DUP2 SUB PUSH1 0x20 DUP4 ADD MSTORE PUSH3 0x694 DUP2 DUP5 PUSH3 0x628 JUMP JUMPDEST SWAP1 POP SWAP4 SWAP3 POP POP POP JUMP JUMPDEST PUSH1 0x0 DUP1 REVERT JUMPDEST PUSH1 0x0 DUP2 SWAP1 POP SWAP2 SWAP1 POP JUMP JUMPDEST PUSH3 0x6B7 DUP2 PUSH3 0x6A2 JUMP JUMPDEST DUP2 EQ PUSH3 0x6C3 JUMPI PUSH1 0x0 DUP1 REVERT JUMPDEST POP JUMP JUMPDEST PUSH1 0x0 DUP2 MLOAD SWAP1 POP PUSH3 0x6D7 DUP2 PUSH3 0x6AC JUMP JUMPDEST SWAP3 SWAP2 POP POP JUMP JUMPDEST PUSH1 0x0 PUSH1 0x20 DUP3 DUP5 SUB SLT ISZERO PUSH3 0x6F6 JUMPI PUSH3 0x6F5 PUSH3 0x69D JUMP JUMPDEST JUMPDEST PUSH1 0x0 PUSH3 0x706 DUP5 DUP3 DUP6 ADD PUSH3 0x6C6 JUMP JUMPDEST SWAP2 POP POP SWAP3 SWAP2 POP POP JUMP JUMPDEST PUSH32 0x4E487B7100000000000000000000000000000000000000000000000000000000 PUSH1 0x0 MSTORE PUSH1 0x11 PUSH1 0x4 MSTORE PUSH1 0x24 PUSH1 0x0 REVERT JUMPDEST PUSH1 0x0 PUSH3 0x74B DUP3 PUSH3 0x6A2 JUMP JUMPDEST SWAP2 POP PUSH3 0x758 DUP4 PUSH3 0x6A2 JUMP JUMPDEST SWAP3 POP DUP3 DUP3 SUB SWAP1 POP DUP2 DUP2 GT ISZERO PUSH3 0x773 JUMPI PUSH3 0x772 PUSH3 0x70F JUMP JUMPDEST JUMPDEST SWAP3 SWAP2 POP POP JUMP JUMPDEST PUSH32 0x4E487B7100000000000000000000000000000000000000000000000000000000 PUSH1 0x0 MSTORE PUSH1 0x41 PUSH1 0x4 MSTORE PUSH1 0x24 PUSH1 0x0 REVERT JUMPDEST PUSH32 0x4E487B7100000000000000000000000000000000000000000000000000000000 PUSH1 0x0 MSTORE PUSH1 0x32 PUSH1 0x4 MSTORE PUSH1 0x24 PUSH1 0x0 REVERT JUMPDEST PUSH1 0x0 PUSH3 0x7E4 DUP3 PUSH3 0x6A2 JUMP JUMPDEST SWAP2 POP PUSH32 0xFFFFFFFFFFFFFFFFFFFFFFFFFFFFFFFFFFFFFFFFFFFFFFFFFFFFFFFFFFFFFFFF DUP3 SUB PUSH3 0x819 JUMPI PUSH3 0x818 PUSH3 0x70F JUMP JUMPDEST JUMPDEST PUSH1 0x1 DUP3 ADD SWAP1 POP SWAP2 SWAP1 POP JUMP JUMPDEST PUSH1 0x0 PUSH3 0x831 DUP3 PUSH3 0x6A2 JUMP JUMPDEST SWAP2 POP PUSH3 0x83E DUP4 PUSH3 0x6A2 JUMP JUMPDEST SWAP3 POP DUP3 DUP3 MUL PUSH3 0x84E DUP2 PUSH3 0x6A2 JUMP JUMPDEST SWAP2 POP DUP3 DUP3 DIV DUP5 EQ DUP4 ISZERO OR PUSH3 0x868 JUMPI PUSH3 0x867 PUSH3 0x70F JUMP JUMPDEST JUMPDEST POP SWAP3 SWAP2 POP POP JUMP JUMPDEST PUSH1 0x0 PUSH3 0x87C DUP3 PUSH3 0x6A2 JUMP JUMPDEST SWAP2 POP PUSH3 0x889 DUP4 PUSH3 0x6A2 JUMP JUMPDEST SWAP3 POP DUP3 DUP3 ADD SWAP1 POP DUP1 DUP3 GT ISZERO PUSH3 0x8A4 JUMPI PUSH3 0x8A3 PUSH3 0x70F JUMP JUMPDEST JUMPDEST SWAP3 SWAP2 POP POP JUMP JUMPDEST PUSH1 0x0 PUSH3 0x8B7 DUP3 PUSH3 0x6A2 JUMP JUMPDEST SWAP2 POP PUSH1 0x0 DUP3 SUB PUSH3 0x8CD JUMPI PUSH3 0x8CC PUSH3 0x70F JUMP JUMPDEST JUMPDEST PUSH1 0x1 DUP3 SUB SWAP1 POP SWAP2 SWAP1 POP JUMP JUMPDEST PUSH32 0x537472696E67733A20686578206C656E67746820696E73756666696369656E74 PUSH1 0x0 DUP3 ADD MSTORE POP JUMP JUMPDEST PUSH1 0x0 PUSH3 0x910 PUSH1 0x20 DUP4 PUSH3 0x5DA JUMP JUMPDEST SWAP2 POP PUSH3 0x91D DUP3 PUSH3 0x8D8 JUMP JUMPDEST PUSH1 0x20 DUP3 ADD SWAP1 POP SWAP2 SWAP1 POP JUMP JUMPDEST PUSH1 0x0 PUSH1 0x20 DUP3 ADD SWAP1 POP DUP2 DUP2 SUB PUSH1 0x0 DUP4 ADD MSTORE PUSH3 0x943 DUP2 PUSH3 0x901 JUMP JUMPDEST SWAP1 POP SWAP2 SWAP1 POP JUMP JUMPDEST PUSH2 0x2FBF DUP1 PUSH3 0x95A PUSH1 0x0 CODECOPY PUSH1 0x0 RETURN INVALID PUSH1 0x80 PUSH1 0x40 MSTORE PUSH1 0x4 CALLDATASIZE LT PUSH2 0x10D JUMPI PUSH1 0x0 CALLDATALOAD PUSH1 0xE0 SHR DUP1 PUSH4 0x8D7AF473 GT PUSH2 0x95 JUMPI DUP1 PUSH4 0xC9D27AFE GT PUSH2 0x64 JUMPI DUP1 PUSH4 0xC9D27AFE EQ PUSH2 0x3B1 JUMPI DUP1 PUSH4 0xCA6D56DC EQ PUSH2 0x3DA JUMPI DUP1 PUSH4 0xD6B78768 EQ PUSH2 0x403 JUMPI DUP1 PUSH4 0xE66F53B7 EQ PUSH2 0x42E JUMPI DUP1 PUSH4 0xEA3FAD66 EQ PUSH2 0x459 JUMPI PUSH2 0x12C JUMP JUMPDEST DUP1 PUSH4 0x8D7AF473 EQ PUSH2 0x2F3 JUMPI DUP1 PUSH4 0x9D63848A EQ PUSH2 0x31E JUMPI DUP1 PUSH4 0xA230C524 EQ PUSH2 0x349 JUMPI DUP1 PUSH4 0xC65C90CC EQ PUSH2 0x386 JUMPI PUSH2 0x12C JUMP JUMPDEST DUP1 PUSH4 0x1DCD9B55 GT PUSH2 0xDC JUMPI DUP1 PUSH4 0x1DCD9B55 EQ PUSH2 0x219 JUMPI DUP1 PUSH4 0x237B2197 EQ PUSH2 0x256 JUMPI DUP1 PUSH4 0x2E6FB097 EQ PUSH2 0x281 JUMPI DUP1 PUSH4 0x70740AAB EQ PUSH2 0x2B1 JUMPI DUP1 PUSH4 0x7B10B293 EQ PUSH2 0x2DC JUMPI PUSH2 0x12C JUMP JUMPDEST DUP1 PUSH4 0x13CF08B EQ PUSH2 0x131 JUMPI DUP1 PUSH4 0x1FFC9A7 EQ PUSH2 0x176 JUMPI DUP1 PUSH4 0x386A016 EQ PUSH2 0x1B3 JUMPI DUP1 PUSH4 0x1A384287 EQ PUSH2 0x1DC JUMPI PUSH2 0x12C JUMP JUMPDEST CALLDATASIZE PUSH2 0x12C JUMPI CALLVALUE PUSH1 0x5 PUSH1 0x0 DUP3 DUP3 SLOAD PUSH2 0x124 SWAP2 SWAP1 PUSH2 0x19F7 JUMP JUMPDEST SWAP3 POP POP DUP2 SWAP1 SSTORE STOP JUMPDEST PUSH1 0x0 DUP1 REVERT JUMPDEST CALLVALUE DUP1 ISZERO PUSH2 0x13D JUMPI PUSH1 0x0 DUP1 REVERT JUMPDEST POP PUSH2 0x158 PUSH1 0x4 DUP1 CALLDATASIZE SUB DUP2 ADD SWAP1 PUSH2 0x153 SWAP2 SWAP1 PUSH2 0x1A6B JUMP JUMPDEST PUSH2 0x496 JUMP JUMPDEST PUSH1 0x40 MLOAD PUSH2 0x16D SWAP10 SWAP9 SWAP8 SWAP7 SWAP6 SWAP5 SWAP4 SWAP3 SWAP2 SWAP1 PUSH2 0x1B93 JUMP JUMPDEST PUSH1 0x40 MLOAD DUP1 SWAP2 SUB SWAP1 RETURN JUMPDEST CALLVALUE DUP1 ISZERO PUSH2 0x182 JUMPI PUSH1 0x0 DUP1 REVERT JUMPDEST POP PUSH2 0x19D PUSH1 0x4 DUP1 CALLDATASIZE SUB DUP2 ADD SWAP1 PUSH2 0x198 SWAP2 SWAP1 PUSH2 0x1C7F JUMP JUMPDEST PUSH2 0x5C6 JUMP JUMPDEST PUSH1 0x40 MLOAD PUSH2 0x1AA SWAP2 SWAP1 PUSH2 0x1CAC JUMP JUMPDEST PUSH1 0x40 MLOAD DUP1 SWAP2 SUB SWAP1 RETURN JUMPDEST CALLVALUE DUP1 ISZERO PUSH2 0x1BF JUMPI PUSH1 0x0 DUP1 REVERT JUMPDEST POP PUSH2 0x1DA PUSH1 0x4 DUP1 CALLDATASIZE SUB DUP2 ADD SWAP1 PUSH2 0x1D5 SWAP2 SWAP1 PUSH2 0x1A6B JUMP JUMPDEST PUSH2 0x698 JUMP JUMPDEST STOP JUMPDEST CALLVALUE DUP1 ISZERO PUSH2 0x1E8 JUMPI PUSH1 0x0 DUP1 REVERT JUMPDEST POP PUSH2 0x203 PUSH1 0x4 DUP1 CALLDATASIZE SUB DUP2 ADD SWAP1 PUSH2 0x1FE SWAP2 SWAP1 PUSH2 0x1CF3 JUMP JUMPDEST PUSH2 0x9B9 JUMP JUMPDEST PUSH1 0x40 MLOAD PUSH2 0x210 SWAP2 SWAP1 PUSH2 0x1CAC JUMP JUMPDEST PUSH1 0x40 MLOAD DUP1 SWAP2 SUB SWAP1 RETURN JUMPDEST CALLVALUE DUP1 ISZERO PUSH2 0x225 JUMPI PUSH1 0x0 DUP1 REVERT JUMPDEST POP PUSH2 0x240 PUSH1 0x4 DUP1 CALLDATASIZE SUB DUP2 ADD SWAP1 PUSH2 0x23B SWAP2 SWAP1 PUSH2 0x1E68 JUMP JUMPDEST PUSH2 0x9E8 JUMP JUMPDEST PUSH1 0x40 MLOAD PUSH2 0x24D SWAP2 SWAP1 PUSH2 0x1ED7 JUMP JUMPDEST PUSH1 0x40 MLOAD DUP1 SWAP2 SUB SWAP1 RETURN JUMPDEST CALLVALUE DUP1 ISZERO PUSH2 0x262 JUMPI PUSH1 0x0 DUP1 REVERT JUMPDEST POP PUSH2 0x26B PUSH2 0xAE4 JUMP JUMPDEST PUSH1 0x40 MLOAD PUSH2 0x278 SWAP2 SWAP1 PUSH2 0x1EF9 JUMP JUMPDEST PUSH1 0x40 MLOAD DUP1 SWAP2 SUB SWAP1 RETURN JUMPDEST PUSH2 0x29B PUSH1 0x4 DUP1 CALLDATASIZE SUB DUP2 ADD SWAP1 PUSH2 0x296 SWAP2 SWAP1 PUSH2 0x1F14 JUMP JUMPDEST PUSH2 0xAEA JUMP JUMPDEST PUSH1 0x40 MLOAD PUSH2 0x2A8 SWAP2 SWAP1 PUSH2 0x1EF9 JUMP JUMPDEST PUSH1 0x40 MLOAD DUP1 SWAP2 SUB SWAP1 RETURN JUMPDEST CALLVALUE DUP1 ISZERO PUSH2 0x2BD JUMPI PUSH1 0x0 DUP1 REVERT JUMPDEST POP PUSH2 0x2C6 PUSH2 0xE1A JUMP JUMPDEST PUSH1 0x40 MLOAD PUSH2 0x2D3 SWAP2 SWAP1 PUSH2 0x1ED7 JUMP JUMPDEST PUSH1 0x40 MLOAD DUP1 SWAP2 SUB SWAP1 RETURN JUMPDEST CALLVALUE DUP1 ISZERO PUSH2 0x2E8 JUMPI PUSH1 0x0 DUP1 REVERT JUMPDEST POP PUSH2 0x2F1 PUSH2 0xE36 JUMP JUMPDEST STOP JUMPDEST CALLVALUE DUP1 ISZERO PUSH2 0x2FF JUMPI PUSH1 0x0 DUP1 REVERT JUMPDEST POP PUSH2 0x308 PUSH2 0xF42 JUMP JUMPDEST PUSH1 0x40 MLOAD PUSH2 0x315 SWAP2 SWAP1 PUSH2 0x1EF9 JUMP JUMPDEST PUSH1 0x40 MLOAD DUP1 SWAP2 SUB SWAP1 RETURN JUMPDEST CALLVALUE DUP1 ISZERO PUSH2 0x32A JUMPI PUSH1 0x0 DUP1 REVERT JUMPDEST POP PUSH2 0x333 PUSH2 0xF48 JUMP JUMPDEST PUSH1 0x40 MLOAD PUSH2 0x340 SWAP2 SWAP1 PUSH2 0x1F97 JUMP JUMPDEST PUSH1 0x40 MLOAD DUP1 SWAP2 SUB SWAP1 RETURN JUMPDEST CALLVALUE DUP1 ISZERO PUSH2 0x355 JUMPI PUSH1 0x0 DUP1 REVERT JUMPDEST POP PUSH2 0x370 PUSH1 0x4 DUP1 CALLDATASIZE SUB DUP2 ADD SWAP1 PUSH2 0x36B SWAP2 SWAP1 PUSH2 0x1FB2 JUMP JUMPDEST PUSH2 0xF6E JUMP JUMPDEST PUSH1 0x40 MLOAD PUSH2 0x37D SWAP2 SWAP1 PUSH2 0x1CAC JUMP JUMPDEST PUSH1 0x40 MLOAD DUP1 SWAP2 SUB SWAP1 RETURN JUMPDEST CALLVALUE DUP1 ISZERO PUSH2 0x392 JUMPI PUSH1 0x0 DUP1 REVERT JUMPDEST POP PUSH2 0x39B PUSH2 0x110A JUMP JUMPDEST PUSH1 0x40 MLOAD PUSH2 0x3A8 SWAP2 SWAP1 PUSH2 0x1ED7 JUMP JUMPDEST PUSH1 0x40 MLOAD DUP1 SWAP2 SUB SWAP1 RETURN JUMPDEST CALLVALUE DUP1 ISZERO PUSH2 0x3BD JUMPI PUSH1 0x0 DUP1 REVERT JUMPDEST POP PUSH2 0x3D8 PUSH1 0x4 DUP1 CALLDATASIZE SUB DUP2 ADD SWAP1 PUSH2 0x3D3 SWAP2 SWAP1 PUSH2 0x200B JUMP JUMPDEST PUSH2 0x1127 JUMP JUMPDEST STOP JUMPDEST CALLVALUE DUP1 ISZERO PUSH2 0x3E6 JUMPI PUSH1 0x0 DUP1 REVERT JUMPDEST POP PUSH2 0x401 PUSH1 0x4 DUP1 CALLDATASIZE SUB DUP2 ADD SWAP1 PUSH2 0x3FC SWAP2 SWAP1 PUSH2 0x1FB2 JUMP JUMPDEST PUSH2 0x159E JUMP JUMPDEST STOP JUMPDEST CALLVALUE DUP1 ISZERO PUSH2 0x40F JUMPI PUSH1 0x0 DUP1 REVERT JUMPDEST POP PUSH2 0x418 PUSH2 0x16FA JUMP JUMPDEST PUSH1 0x40 MLOAD PUSH2 0x425 SWAP2 SWAP1 PUSH2 0x1EF9 JUMP JUMPDEST PUSH1 0x40 MLOAD DUP1 SWAP2 SUB SWAP1 RETURN JUMPDEST CALLVALUE DUP1 ISZERO PUSH2 0x43A JUMPI PUSH1 0x0 DUP1 REVERT JUMPDEST POP PUSH2 0x443 PUSH2 0x1700 JUMP JUMPDEST PUSH1 0x40 MLOAD PUSH2 0x450 SWAP2 SWAP1 PUSH2 0x1F97 JUMP JUMPDEST PUSH1 0x40 MLOAD DUP1 SWAP2 SUB SWAP1 RETURN JUMPDEST CALLVALUE DUP1 ISZERO PUSH2 0x465 JUMPI PUSH1 0x0 DUP1 REVERT JUMPDEST POP PUSH2 0x480 PUSH1 0x4 DUP1 CALLDATASIZE SUB DUP2 ADD SWAP1 PUSH2 0x47B SWAP2 SWAP1 PUSH2 0x1CF3 JUMP JUMPDEST PUSH2 0x1726 JUMP JUMPDEST PUSH1 0x40 MLOAD PUSH2 0x48D SWAP2 SWAP1 PUSH2 0x1CAC JUMP JUMPDEST PUSH1 0x40 MLOAD DUP1 SWAP2 SUB SWAP1 RETURN JUMPDEST PUSH1 0x0 PUSH1 0x20 MSTORE DUP1 PUSH1 0x0 MSTORE PUSH1 0x40 PUSH1 0x0 KECCAK256 PUSH1 0x0 SWAP2 POP SWAP1 POP DUP1 PUSH1 0x0 ADD PUSH1 0x0 SWAP1 SLOAD SWAP1 PUSH2 0x100 EXP SWAP1 DIV PUSH20 0xFFFFFFFFFFFFFFFFFFFFFFFFFFFFFFFFFFFFFFFF AND SWAP1 DUP1 PUSH1 0x1 ADD SLOAD SWAP1 DUP1 PUSH1 0x2 ADD DUP1 SLOAD PUSH2 0x4E5 SWAP1 PUSH2 0x207A JUMP JUMPDEST DUP1 PUSH1 0x1F ADD PUSH1 0x20 DUP1 SWAP2 DIV MUL PUSH1 0x20 ADD PUSH1 0x40 MLOAD SWAP1 DUP2 ADD PUSH1 0x40 MSTORE DUP1 SWAP3 SWAP2 SWAP1 DUP2 DUP2 MSTORE PUSH1 0x20 ADD DUP3 DUP1 SLOAD PUSH2 0x511 SWAP1 PUSH2 0x207A JUMP JUMPDEST DUP1 ISZERO PUSH2 0x55E JUMPI DUP1 PUSH1 0x1F LT PUSH2 0x533 JUMPI PUSH2 0x100 DUP1 DUP4 SLOAD DIV MUL DUP4 MSTORE SWAP2 PUSH1 0x20 ADD SWAP2 PUSH2 0x55E JUMP JUMPDEST DUP3 ADD SWAP2 SWAP1 PUSH1 0x0 MSTORE PUSH1 0x20 PUSH1 0x0 KECCAK256 SWAP1 JUMPDEST DUP2 SLOAD DUP2 MSTORE SWAP1 PUSH1 0x1 ADD SWAP1 PUSH1 0x20 ADD DUP1 DUP4 GT PUSH2 0x541 JUMPI DUP3 SWAP1 SUB PUSH1 0x1F AND DUP3 ADD SWAP2 JUMPDEST POP POP POP POP POP SWAP1 DUP1 PUSH1 0x3 ADD SLOAD SWAP1 DUP1 PUSH1 0x4 ADD PUSH1 0x0 SWAP1 SLOAD SWAP1 PUSH2 0x100 EXP SWAP1 DIV PUSH1 0xFF AND SWAP1 DUP1 PUSH1 0x4 ADD PUSH1 0x1 SWAP1 SLOAD SWAP1 PUSH2 0x100 EXP SWAP1 DIV PUSH1 0xFF AND SWAP1 DUP1 PUSH1 0x5 ADD SLOAD SWAP1 DUP1 PUSH1 0x6 ADD SLOAD SWAP1 DUP1 PUSH1 0x7 ADD PUSH1 0x0 SWAP1 SLOAD SWAP1 PUSH2 0x100 EXP SWAP1 DIV PUSH20 0xFFFFFFFFFFFFFFFFFFFFFFFFFFFFFFFFFFFFFFFF AND SWAP1 POP DUP10 JUMP JUMPDEST PUSH1 0x0 PUSH32 0xB3DF4BA800000000000000000000000000000000000000000000000000000000 PUSH28 0xFFFFFFFFFFFFFFFFFFFFFFFFFFFFFFFFFFFFFFFFFFFFFFFFFFFFFFFF NOT AND DUP3 PUSH28 0xFFFFFFFFFFFFFFFFFFFFFFFFFFFFFFFFFFFFFFFFFFFFFFFFFFFFFFFF NOT AND EQ DUP1 PUSH2 0x691 JUMPI POP PUSH32 0x1FFC9A700000000000000000000000000000000000000000000000000000000 PUSH28 0xFFFFFFFFFFFFFFFFFFFFFFFFFFFFFFFFFFFFFFFFFFFFFFFFFFFFFFFF NOT AND DUP3 PUSH28 0xFFFFFFFFFFFFFFFFFFFFFFFFFFFFFFFFFFFFFFFFFFFFFFFFFFFFFFFF NOT AND EQ JUMPDEST SWAP1 POP SWAP2 SWAP1 POP JUMP JUMPDEST PUSH1 0x4 SLOAD DUP2 LT PUSH2 0x6DC JUMPI PUSH1 0x40 MLOAD PUSH32 0x8C379A000000000000000000000000000000000000000000000000000000000 DUP2 MSTORE PUSH1 0x4 ADD PUSH2 0x6D3 SWAP1 PUSH2 0x211D JUMP JUMPDEST PUSH1 0x40 MLOAD DUP1 SWAP2 SUB SWAP1 REVERT JUMPDEST PUSH1 0x0 DUP1 DUP3 DUP2 MSTORE PUSH1 0x20 ADD SWAP1 DUP2 MSTORE PUSH1 0x20 ADD PUSH1 0x0 KECCAK256 PUSH1 0x3 ADD SLOAD TIMESTAMP GT PUSH2 0x733 JUMPI PUSH1 0x40 MLOAD PUSH32 0x8C379A000000000000000000000000000000000000000000000000000000000 DUP2 MSTORE PUSH1 0x4 ADD PUSH2 0x72A SWAP1 PUSH2 0x21AF JUMP JUMPDEST PUSH1 0x40 MLOAD DUP1 SWAP2 SUB SWAP1 REVERT JUMPDEST PUSH1 0x1 ISZERO ISZERO PUSH2 0x740 CALLER PUSH2 0xF6E JUMP JUMPDEST ISZERO ISZERO EQ PUSH2 0x782 JUMPI PUSH1 0x40 MLOAD PUSH32 0x8C379A000000000000000000000000000000000000000000000000000000000 DUP2 MSTORE PUSH1 0x4 ADD PUSH2 0x779 SWAP1 PUSH2 0x2267 JUMP JUMPDEST PUSH1 0x40 MLOAD DUP1 SWAP2 SUB SWAP1 REVERT JUMPDEST PUSH1 0x0 DUP1 PUSH1 0x0 DUP4 DUP2 MSTORE PUSH1 0x20 ADD SWAP1 DUP2 MSTORE PUSH1 0x20 ADD PUSH1 0x0 KECCAK256 PUSH1 0x4 ADD PUSH1 0x0 PUSH2 0x100 EXP DUP2 SLOAD DUP2 PUSH1 0xFF MUL NOT AND SWAP1 DUP4 ISZERO ISZERO MUL OR SWAP1 SSTORE POP PUSH1 0x0 DUP1 DUP3 DUP2 MSTORE PUSH1 0x20 ADD SWAP1 DUP2 MSTORE PUSH1 0x20 ADD PUSH1 0x0 KECCAK256 PUSH1 0x6 ADD SLOAD PUSH1 0x0 DUP1 DUP4 DUP2 MSTORE PUSH1 0x20 ADD SWAP1 DUP2 MSTORE PUSH1 0x20 ADD PUSH1 0x0 KECCAK256 PUSH1 0x5 ADD SLOAD GT ISZERO PUSH2 0x90C JUMPI PUSH1 0x1 PUSH1 0x0 DUP1 DUP4 DUP2 MSTORE PUSH1 0x20 ADD SWAP1 DUP2 MSTORE PUSH1 0x20 ADD PUSH1 0x0 KECCAK256 PUSH1 0x4 ADD PUSH1 0x1 PUSH2 0x100 EXP DUP2 SLOAD DUP2 PUSH1 0xFF MUL NOT AND SWAP1 DUP4 ISZERO ISZERO MUL OR SWAP1 SSTORE POP PUSH1 0x0 DUP1 PUSH1 0x0 DUP4 DUP2 MSTORE PUSH1 0x20 ADD SWAP1 DUP2 MSTORE PUSH1 0x20 ADD PUSH1 0x0 KECCAK256 PUSH1 0x0 ADD PUSH1 0x0 SWAP1 SLOAD SWAP1 PUSH2 0x100 EXP SWAP1 DIV PUSH20 0xFFFFFFFFFFFFFFFFFFFFFFFFFFFFFFFFFFFFFFFF AND PUSH20 0xFFFFFFFFFFFFFFFFFFFFFFFFFFFFFFFFFFFFFFFF AND PUSH1 0x0 DUP1 DUP5 DUP2 MSTORE PUSH1 0x20 ADD SWAP1 DUP2 MSTORE PUSH1 0x20 ADD PUSH1 0x0 KECCAK256 PUSH1 0x1 ADD SLOAD PUSH1 0x40 MLOAD PUSH2 0x880 SWAP1 PUSH2 0x22B8 JUMP JUMPDEST PUSH1 0x0 PUSH1 0x40 MLOAD DUP1 DUP4 SUB DUP2 DUP6 DUP8 GAS CALL SWAP3 POP POP POP RETURNDATASIZE DUP1 PUSH1 0x0 DUP2 EQ PUSH2 0x8BD JUMPI PUSH1 0x40 MLOAD SWAP2 POP PUSH1 0x1F NOT PUSH1 0x3F RETURNDATASIZE ADD AND DUP3 ADD PUSH1 0x40 MSTORE RETURNDATASIZE DUP3 MSTORE RETURNDATASIZE PUSH1 0x0 PUSH1 0x20 DUP5 ADD RETURNDATACOPY PUSH2 0x8C2 JUMP JUMPDEST PUSH1 0x60 SWAP2 POP JUMPDEST POP POP SWAP1 POP DUP1 PUSH2 0x906 JUMPI PUSH1 0x40 MLOAD PUSH32 0x8C379A000000000000000000000000000000000000000000000000000000000 DUP2 MSTORE PUSH1 0x4 ADD PUSH2 0x8FD SWAP1 PUSH2 0x2365 JUMP JUMPDEST PUSH1 0x40 MLOAD DUP1 SWAP2 SUB SWAP1 REVERT JUMPDEST POP PUSH2 0x93B JUMP JUMPDEST PUSH1 0x0 DUP1 PUSH1 0x0 DUP4 DUP2 MSTORE PUSH1 0x20 ADD SWAP1 DUP2 MSTORE PUSH1 0x20 ADD PUSH1 0x0 KECCAK256 PUSH1 0x4 ADD PUSH1 0x1 PUSH2 0x100 EXP DUP2 SLOAD DUP2 PUSH1 0xFF MUL NOT AND SWAP1 DUP4 ISZERO ISZERO MUL OR SWAP1 SSTORE POP JUMPDEST PUSH1 0x0 DUP1 DUP3 DUP2 MSTORE PUSH1 0x20 ADD SWAP1 DUP2 MSTORE PUSH1 0x20 ADD PUSH1 0x0 KECCAK256 PUSH1 0x4 ADD PUSH1 0x1 SWAP1 SLOAD SWAP1 PUSH2 0x100 EXP SWAP1 DIV PUSH1 0xFF AND ISZERO ISZERO DUP2 PUSH32 0xAFFED5D901D9FBE9106721FA52653EDE403C09699F9F810F6D378ACC51FB50FA PUSH1 0x40 MLOAD PUSH1 0x40 MLOAD DUP1 SWAP2 SUB SWAP1 LOG3 PUSH1 0x0 DUP1 DUP3 DUP2 MSTORE PUSH1 0x20 ADD SWAP1 DUP2 MSTORE PUSH1 0x20 ADD PUSH1 0x0 KECCAK256 PUSH1 0x1 ADD SLOAD PUSH1 0x5 SLOAD PUSH2 0x9B0 SWAP2 SWAP1 PUSH2 0x2385 JUMP JUMPDEST PUSH1 0x5 DUP2 SWAP1 SSTORE POP POP JUMP JUMPDEST PUSH1 0x3 PUSH1 0x20 MSTORE DUP2 PUSH1 0x0 MSTORE PUSH1 0x40 PUSH1 0x0 KECCAK256 PUSH1 0x20 MSTORE DUP1 PUSH1 0x0 MSTORE PUSH1 0x40 PUSH1 0x0 KECCAK256 PUSH1 0x0 SWAP2 POP SWAP2 POP SWAP1 SLOAD SWAP1 PUSH2 0x100 EXP SWAP1 DIV PUSH1 0xFF AND DUP2 JUMP JUMPDEST PUSH1 0x60 PUSH1 0x0 DUP5 SWAP1 POP PUSH1 0x0 DUP5 DUP5 PUSH2 0x9FD SWAP2 SWAP1 PUSH2 0x2385 JUMP JUMPDEST PUSH8 0xFFFFFFFFFFFFFFFF DUP2 GT ISZERO PUSH2 0xA16 JUMPI PUSH2 0xA15 PUSH2 0x1D3D JUMP JUMPDEST JUMPDEST PUSH1 0x40 MLOAD SWAP1 DUP1 DUP3 MSTORE DUP1 PUSH1 0x1F ADD PUSH1 0x1F NOT AND PUSH1 0x20 ADD DUP3 ADD PUSH1 0x40 MSTORE DUP1 ISZERO PUSH2 0xA48 JUMPI DUP2 PUSH1 0x20 ADD PUSH1 0x1 DUP3 MUL DUP1 CALLDATASIZE DUP4 CALLDATACOPY DUP1 DUP3 ADD SWAP2 POP POP SWAP1 POP JUMPDEST POP SWAP1 POP PUSH1 0x0 DUP6 SWAP1 POP JUMPDEST DUP5 DUP2 LT ISZERO PUSH2 0xAD7 JUMPI DUP3 DUP2 DUP2 MLOAD DUP2 LT PUSH2 0xA6C JUMPI PUSH2 0xA6B PUSH2 0x23B9 JUMP JUMPDEST JUMPDEST PUSH1 0x20 ADD ADD MLOAD PUSH1 0xF8 SHR PUSH1 0xF8 SHL DUP3 DUP8 DUP4 PUSH2 0xA84 SWAP2 SWAP1 PUSH2 0x2385 JUMP JUMPDEST DUP2 MLOAD DUP2 LT PUSH2 0xA95 JUMPI PUSH2 0xA94 PUSH2 0x23B9 JUMP JUMPDEST JUMPDEST PUSH1 0x20 ADD ADD SWAP1 PUSH31 0xFFFFFFFFFFFFFFFFFFFFFFFFFFFFFFFFFFFFFFFFFFFFFFFFFFFFFFFFFFFFFF NOT AND SWAP1 DUP2 PUSH1 0x0 BYTE SWAP1 MSTORE8 POP DUP1 DUP1 PUSH2 0xACF SWAP1 PUSH2 0x23E8 JUMP JUMPDEST SWAP2 POP POP PUSH2 0xA51 JUMP JUMPDEST POP DUP1 SWAP3 POP POP POP SWAP4 SWAP3 POP POP POP JUMP JUMPDEST PUSH1 0x5 SLOAD DUP2 JUMP JUMPDEST PUSH1 0x0 PUSH1 0x1 ISZERO ISZERO PUSH2 0xAF9 CALLER PUSH2 0xF6E JUMP JUMPDEST ISZERO ISZERO EQ PUSH2 0xB3B JUMPI PUSH1 0x40 MLOAD PUSH32 0x8C379A000000000000000000000000000000000000000000000000000000000 DUP2 MSTORE PUSH1 0x4 ADD PUSH2 0xB32 SWAP1 PUSH2 0x24C8 JUMP JUMPDEST PUSH1 0x40 MLOAD DUP1 SWAP2 SUB SWAP1 REVERT JUMPDEST PUSH2 0x258 DUP3 LT ISZERO PUSH2 0xB80 JUMPI PUSH1 0x40 MLOAD PUSH32 0x8C379A000000000000000000000000000000000000000000000000000000000 DUP2 MSTORE PUSH1 0x4 ADD PUSH2 0xB77 SWAP1 PUSH2 0x2580 JUMP JUMPDEST PUSH1 0x40 MLOAD DUP1 SWAP2 SUB SWAP1 REVERT JUMPDEST DUP4 PUSH1 0x5 SLOAD SELFBALANCE CALLVALUE PUSH2 0xB90 SWAP2 SWAP1 PUSH2 0x19F7 JUMP JUMPDEST PUSH2 0xB9A SWAP2 SWAP1 PUSH2 0x2385 JUMP JUMPDEST LT ISZERO PUSH2 0xBDB JUMPI PUSH1 0x40 MLOAD PUSH32 0x8C379A000000000000000000000000000000000000000000000000000000000 DUP2 MSTORE PUSH1 0x4 ADD PUSH2 0xBD2 SWAP1 PUSH2 0x2638 JUMP JUMPDEST PUSH1 0x40 MLOAD DUP1 SWAP2 SUB SWAP1 REVERT JUMPDEST PUSH1 0x40 MLOAD DUP1 PUSH2 0x120 ADD PUSH1 0x40 MSTORE DUP1 DUP7 PUSH20 0xFFFFFFFFFFFFFFFFFFFFFFFFFFFFFFFFFFFFFFFF AND DUP2 MSTORE PUSH1 0x20 ADD DUP6 DUP2 MSTORE PUSH1 0x20 ADD DUP5 DUP2 MSTORE PUSH1 0x20 ADD DUP4 TIMESTAMP PUSH2 0xC1B SWAP2 SWAP1 PUSH2 0x19F7 JUMP JUMPDEST DUP2 MSTORE PUSH1 0x20 ADD PUSH1 0x1 ISZERO ISZERO DUP2 MSTORE PUSH1 0x20 ADD PUSH1 0x0 ISZERO ISZERO DUP2 MSTORE PUSH1 0x20 ADD PUSH1 0x0 DUP2 MSTORE PUSH1 0x20 ADD PUSH1 0x0 DUP2 MSTORE PUSH1 0x20 ADD CALLER PUSH20 0xFFFFFFFFFFFFFFFFFFFFFFFFFFFFFFFFFFFFFFFF AND DUP2 MSTORE POP PUSH1 0x0 DUP1 PUSH1 0x4 SLOAD DUP2 MSTORE PUSH1 0x20 ADD SWAP1 DUP2 MSTORE PUSH1 0x20 ADD PUSH1 0x0 KECCAK256 PUSH1 0x0 DUP3 ADD MLOAD DUP2 PUSH1 0x0 ADD PUSH1 0x0 PUSH2 0x100 EXP DUP2 SLOAD DUP2 PUSH20 0xFFFFFFFFFFFFFFFFFFFFFFFFFFFFFFFFFFFFFFFF MUL NOT AND SWAP1 DUP4 PUSH20 0xFFFFFFFFFFFFFFFFFFFFFFFFFFFFFFFFFFFFFFFF AND MUL OR SWAP1 SSTORE POP PUSH1 0x20 DUP3 ADD MLOAD DUP2 PUSH1 0x1 ADD SSTORE PUSH1 0x40 DUP3 ADD MLOAD DUP2 PUSH1 0x2 ADD SWAP1 DUP2 PUSH2 0xCD4 SWAP2 SWAP1 PUSH2 0x2804 JUMP JUMPDEST POP PUSH1 0x60 DUP3 ADD MLOAD DUP2 PUSH1 0x3 ADD SSTORE PUSH1 0x80 DUP3 ADD MLOAD DUP2 PUSH1 0x4 ADD PUSH1 0x0 PUSH2 0x100 EXP DUP2 SLOAD DUP2 PUSH1 0xFF MUL NOT AND SWAP1 DUP4 ISZERO ISZERO MUL OR SWAP1 SSTORE POP PUSH1 0xA0 DUP3 ADD MLOAD DUP2 PUSH1 0x4 ADD PUSH1 0x1 PUSH2 0x100 EXP DUP2 SLOAD DUP2 PUSH1 0xFF MUL NOT AND SWAP1 DUP4 ISZERO ISZERO MUL OR SWAP1 SSTORE POP PUSH1 0xC0 DUP3 ADD MLOAD DUP2 PUSH1 0x5 ADD SSTORE PUSH1 0xE0 DUP3 ADD MLOAD DUP2 PUSH1 0x6 ADD SSTORE PUSH2 0x100 DUP3 ADD MLOAD DUP2 PUSH1 0x7 ADD PUSH1 0x0 PUSH2 0x100 EXP DUP2 SLOAD DUP2 PUSH20 0xFFFFFFFFFFFFFFFFFFFFFFFFFFFFFFFFFFFFFFFF MUL NOT AND SWAP1 DUP4 PUSH20 0xFFFFFFFFFFFFFFFFFFFFFFFFFFFFFFFFFFFFFFFF AND MUL OR SWAP1 SSTORE POP SWAP1 POP POP DUP4 PUSH1 0x5 PUSH1 0x0 DUP3 DUP3 SLOAD PUSH2 0xD90 SWAP2 SWAP1 PUSH2 0x19F7 JUMP JUMPDEST SWAP3 POP POP DUP2 SWAP1 SSTORE POP DUP4 DUP6 PUSH20 0xFFFFFFFFFFFFFFFFFFFFFFFFFFFFFFFFFFFFFFFF AND PUSH1 0x4 SLOAD PUSH32 0xDE8596BB26A876FD85351415CD7F8EA047829757B6CE0C3E8F6D5AE325C4B21 DUP7 PUSH1 0x40 MLOAD PUSH2 0xDE1 SWAP2 SWAP1 PUSH2 0x1ED7 JUMP JUMPDEST PUSH1 0x40 MLOAD DUP1 SWAP2 SUB SWAP1 LOG4 PUSH1 0x4 PUSH1 0x0 DUP2 SLOAD DUP1 SWAP3 SWAP2 SWAP1 PUSH2 0xDFC SWAP1 PUSH2 0x23E8 JUMP JUMPDEST SWAP2 SWAP1 POP SSTORE POP PUSH1 0x1 PUSH1 0x4 SLOAD PUSH2 0xE10 SWAP2 SWAP1 PUSH2 0x2385 JUMP JUMPDEST SWAP1 POP SWAP5 SWAP4 POP POP POP POP JUMP JUMPDEST PUSH1 0x40 MLOAD DUP1 PUSH1 0xC0 ADD PUSH1 0x40 MSTORE DUP1 PUSH1 0x9C DUP2 MSTORE PUSH1 0x20 ADD PUSH2 0x2EEE PUSH1 0x9C SWAP2 CODECOPY DUP2 JUMP JUMPDEST PUSH1 0x0 ISZERO ISZERO PUSH2 0xE43 CALLER PUSH2 0xF6E JUMP JUMPDEST ISZERO ISZERO EQ PUSH2 0xE85 JUMPI PUSH1 0x40 MLOAD PUSH32 0x8C379A000000000000000000000000000000000000000000000000000000000 DUP2 MSTORE PUSH1 0x4 ADD PUSH2 0xE7C SWAP1 PUSH2 0x2922 JUMP JUMPDEST PUSH1 0x40 MLOAD DUP1 SWAP2 SUB SWAP1 REVERT JUMPDEST PUSH1 0x0 PUSH2 0xE9C PUSH2 0xE93 CALLER PUSH2 0x1755 JUMP JUMPDEST PUSH1 0x2 PUSH1 0x22 PUSH2 0x9E8 JUMP JUMPDEST SWAP1 POP PUSH1 0x1 PUSH1 0x0 SWAP1 SLOAD SWAP1 PUSH2 0x100 EXP SWAP1 DIV PUSH20 0xFFFFFFFFFFFFFFFFFFFFFFFFFFFFFFFFFFFFFFFF AND PUSH20 0xFFFFFFFFFFFFFFFFFFFFFFFFFFFFFFFFFFFFFFFF AND PUSH4 0xE980602 CALLER DUP4 PUSH1 0x40 MLOAD DUP4 PUSH4 0xFFFFFFFF AND PUSH1 0xE0 SHL DUP2 MSTORE PUSH1 0x4 ADD PUSH2 0xEFB SWAP3 SWAP2 SWAP1 PUSH2 0x2942 JUMP JUMPDEST PUSH1 0x20 PUSH1 0x40 MLOAD DUP1 DUP4 SUB DUP2 PUSH1 0x0 DUP8 GAS CALL ISZERO DUP1 ISZERO PUSH2 0xF1A JUMPI RETURNDATASIZE PUSH1 0x0 DUP1 RETURNDATACOPY RETURNDATASIZE PUSH1 0x0 REVERT JUMPDEST POP POP POP POP PUSH1 0x40 MLOAD RETURNDATASIZE PUSH1 0x1F NOT PUSH1 0x1F DUP3 ADD AND DUP3 ADD DUP1 PUSH1 0x40 MSTORE POP DUP2 ADD SWAP1 PUSH2 0xF3E SWAP2 SWAP1 PUSH2 0x2987 JUMP JUMPDEST POP POP JUMP JUMPDEST PUSH1 0x4 SLOAD DUP2 JUMP JUMPDEST PUSH1 0x1 PUSH1 0x0 SWAP1 SLOAD SWAP1 PUSH2 0x100 EXP SWAP1 DIV PUSH20 0xFFFFFFFFFFFFFFFFFFFFFFFFFFFFFFFFFFFFFFFF AND DUP2 JUMP JUMPDEST PUSH1 0x0 DUP1 PUSH1 0x0 SWAP1 POP PUSH1 0x0 PUSH1 0x1 PUSH1 0x0 SWAP1 SLOAD SWAP1 PUSH2 0x100 EXP SWAP1 DIV PUSH20 0xFFFFFFFFFFFFFFFFFFFFFFFFFFFFFFFFFFFFFFFF AND PUSH20 0xFFFFFFFFFFFFFFFFFFFFFFFFFFFFFFFFFFFFFFFF AND PUSH4 0x6661ABD PUSH1 0x40 MLOAD DUP2 PUSH4 0xFFFFFFFF AND PUSH1 0xE0 SHL DUP2 MSTORE PUSH1 0x4 ADD PUSH1 0x20 PUSH1 0x40 MLOAD DUP1 DUP4 SUB DUP2 DUP7 GAS STATICCALL ISZERO DUP1 ISZERO PUSH2 0xFE4 JUMPI RETURNDATASIZE PUSH1 0x0 DUP1 RETURNDATACOPY RETURNDATASIZE PUSH1 0x0 REVERT JUMPDEST POP POP POP POP PUSH1 0x40 MLOAD RETURNDATASIZE PUSH1 0x1F NOT PUSH1 0x1F DUP3 ADD AND DUP3 ADD DUP1 PUSH1 0x40 MSTORE POP DUP2 ADD SWAP1 PUSH2 0x1008 SWAP2 SWAP1 PUSH2 0x2987 JUMP JUMPDEST SWAP1 POP PUSH1 0x0 JUMPDEST DUP2 DUP2 LT ISZERO PUSH2 0x10FF JUMPI DUP5 PUSH20 0xFFFFFFFFFFFFFFFFFFFFFFFFFFFFFFFFFFFFFFFF AND PUSH1 0x1 PUSH1 0x0 SWAP1 SLOAD SWAP1 PUSH2 0x100 EXP SWAP1 DIV PUSH20 0xFFFFFFFFFFFFFFFFFFFFFFFFFFFFFFFFFFFFFFFF AND PUSH20 0xFFFFFFFFFFFFFFFFFFFFFFFFFFFFFFFFFFFFFFFF AND PUSH4 0x6352211E DUP4 PUSH1 0x40 MLOAD DUP3 PUSH4 0xFFFFFFFF AND PUSH1 0xE0 SHL DUP2 MSTORE PUSH1 0x4 ADD PUSH2 0x1087 SWAP2 SWAP1 PUSH2 0x1EF9 JUMP JUMPDEST PUSH1 0x20 PUSH1 0x40 MLOAD DUP1 DUP4 SUB DUP2 DUP7 GAS STATICCALL ISZERO DUP1 ISZERO PUSH2 0x10A4 JUMPI RETURNDATASIZE PUSH1 0x0 DUP1 RETURNDATACOPY RETURNDATASIZE PUSH1 0x0 REVERT JUMPDEST POP POP POP POP PUSH1 0x40 MLOAD RETURNDATASIZE PUSH1 0x1F NOT PUSH1 0x1F DUP3 ADD AND DUP3 ADD DUP1 PUSH1 0x40 MSTORE POP DUP2 ADD SWAP1 PUSH2 0x10C8 SWAP2 SWAP1 PUSH2 0x29C9 JUMP JUMPDEST PUSH20 0xFFFFFFFFFFFFFFFFFFFFFFFFFFFFFFFFFFFFFFFF AND SUB PUSH2 0x10EC JUMPI PUSH1 0x1 SWAP3 POP PUSH2 0x10FF JUMP JUMPDEST DUP1 DUP1 PUSH2 0x10F7 SWAP1 PUSH2 0x23E8 JUMP JUMPDEST SWAP2 POP POP PUSH2 0x100D JUMP JUMPDEST POP DUP2 SWAP3 POP POP POP SWAP2 SWAP1 POP JUMP JUMPDEST PUSH1 0x40 MLOAD DUP1 PUSH2 0x100 ADD PUSH1 0x40 MSTORE DUP1 PUSH1 0xDA DUP2 MSTORE PUSH1 0x20 ADD PUSH2 0x2E14 PUSH1 0xDA SWAP2 CODECOPY DUP2 JUMP JUMPDEST PUSH1 0x1 ISZERO ISZERO PUSH2 0x1134 CALLER PUSH2 0xF6E JUMP JUMPDEST ISZERO ISZERO EQ PUSH2 0x1176 JUMPI PUSH1 0x40 MLOAD PUSH32 0x8C379A000000000000000000000000000000000000000000000000000000000 DUP2 MSTORE PUSH1 0x4 ADD PUSH2 0x116D SWAP1 PUSH2 0x2A8E JUMP JUMPDEST PUSH1 0x40 MLOAD DUP1 SWAP2 SUB SWAP1 REVERT JUMPDEST PUSH1 0x0 DUP1 DUP4 DUP2 MSTORE PUSH1 0x20 ADD SWAP1 DUP2 MSTORE PUSH1 0x20 ADD PUSH1 0x0 KECCAK256 PUSH1 0x3 ADD SLOAD TIMESTAMP LT PUSH2 0x11CD JUMPI PUSH1 0x40 MLOAD PUSH32 0x8C379A000000000000000000000000000000000000000000000000000000000 DUP2 MSTORE PUSH1 0x4 ADD PUSH2 0x11C4 SWAP1 PUSH2 0x2B20 JUMP JUMPDEST PUSH1 0x40 MLOAD DUP1 SWAP2 SUB SWAP1 REVERT JUMPDEST PUSH1 0x1 ISZERO ISZERO PUSH1 0x0 DUP1 DUP5 DUP2 MSTORE PUSH1 0x20 ADD SWAP1 DUP2 MSTORE PUSH1 0x20 ADD PUSH1 0x0 KECCAK256 PUSH1 0x4 ADD PUSH1 0x0 SWAP1 SLOAD SWAP1 PUSH2 0x100 EXP SWAP1 DIV PUSH1 0xFF AND ISZERO ISZERO EQ PUSH2 0x1236 JUMPI PUSH1 0x40 MLOAD PUSH32 0x8C379A000000000000000000000000000000000000000000000000000000000 DUP2 MSTORE PUSH1 0x4 ADD PUSH2 0x122D SWAP1 PUSH2 0x2B8C JUMP JUMPDEST PUSH1 0x40 MLOAD DUP1 SWAP2 SUB SWAP1 REVERT JUMPDEST PUSH1 0x0 ISZERO ISZERO PUSH1 0x2 PUSH1 0x0 CALLER PUSH20 0xFFFFFFFFFFFFFFFFFFFFFFFFFFFFFFFFFFFFFFFF AND PUSH20 0xFFFFFFFFFFFFFFFFFFFFFFFFFFFFFFFFFFFFFFFF AND DUP2 MSTORE PUSH1 0x20 ADD SWAP1 DUP2 MSTORE PUSH1 0x20 ADD PUSH1 0x0 KECCAK256 PUSH1 0x0 DUP5 DUP2 MSTORE PUSH1 0x20 ADD SWAP1 DUP2 MSTORE PUSH1 0x20 ADD PUSH1 0x0 KECCAK256 PUSH1 0x0 SWAP1 SLOAD SWAP1 PUSH2 0x100 EXP SWAP1 DIV PUSH1 0xFF AND ISZERO ISZERO EQ DUP1 ISZERO PUSH2 0x1308 JUMPI POP PUSH1 0x0 ISZERO ISZERO PUSH1 0x3 PUSH1 0x0 CALLER PUSH20 0xFFFFFFFFFFFFFFFFFFFFFFFFFFFFFFFFFFFFFFFF AND PUSH20 0xFFFFFFFFFFFFFFFFFFFFFFFFFFFFFFFFFFFFFFFF AND DUP2 MSTORE PUSH1 0x20 ADD SWAP1 DUP2 MSTORE PUSH1 0x20 ADD PUSH1 0x0 KECCAK256 PUSH1 0x0 DUP5 DUP2 MSTORE PUSH1 0x20 ADD SWAP1 DUP2 MSTORE PUSH1 0x20 ADD PUSH1 0x0 KECCAK256 PUSH1 0x0 SWAP1 SLOAD SWAP1 PUSH2 0x100 EXP SWAP1 DIV PUSH1 0xFF AND ISZERO ISZERO EQ JUMPDEST PUSH2 0x1347 JUMPI PUSH1 0x40 MLOAD PUSH32 0x8C379A000000000000000000000000000000000000000000000000000000000 DUP2 MSTORE PUSH1 0x4 ADD PUSH2 0x133E SWAP1 PUSH2 0x2C1E JUMP JUMPDEST PUSH1 0x40 MLOAD DUP1 SWAP2 SUB SWAP1 REVERT JUMPDEST PUSH1 0x1 ISZERO ISZERO DUP2 ISZERO ISZERO SUB PUSH2 0x1455 JUMPI PUSH1 0x1 PUSH1 0x2 PUSH1 0x0 CALLER PUSH20 0xFFFFFFFFFFFFFFFFFFFFFFFFFFFFFFFFFFFFFFFF AND PUSH20 0xFFFFFFFFFFFFFFFFFFFFFFFFFFFFFFFFFFFFFFFF AND DUP2 MSTORE PUSH1 0x20 ADD SWAP1 DUP2 MSTORE PUSH1 0x20 ADD PUSH1 0x0 KECCAK256 PUSH1 0x0 DUP5 DUP2 MSTORE PUSH1 0x20 ADD SWAP1 DUP2 MSTORE PUSH1 0x20 ADD PUSH1 0x0 KECCAK256 PUSH1 0x0 PUSH2 0x100 EXP DUP2 SLOAD DUP2 PUSH1 0xFF MUL NOT AND SWAP1 DUP4 ISZERO ISZERO MUL OR SWAP1 SSTORE POP PUSH1 0x0 PUSH1 0x3 PUSH1 0x0 CALLER PUSH20 0xFFFFFFFFFFFFFFFFFFFFFFFFFFFFFFFFFFFFFFFF AND PUSH20 0xFFFFFFFFFFFFFFFFFFFFFFFFFFFFFFFFFFFFFFFF AND DUP2 MSTORE PUSH1 0x20 ADD SWAP1 DUP2 MSTORE PUSH1 0x20 ADD PUSH1 0x0 KECCAK256 PUSH1 0x0 DUP5 DUP2 MSTORE PUSH1 0x20 ADD SWAP1 DUP2 MSTORE PUSH1 0x20 ADD PUSH1 0x0 KECCAK256 PUSH1 0x0 PUSH2 0x100 EXP DUP2 SLOAD DUP2 PUSH1 0xFF MUL NOT AND SWAP1 DUP4 ISZERO ISZERO MUL OR SWAP1 SSTORE POP PUSH1 0x0 DUP1 DUP4 DUP2 MSTORE PUSH1 0x20 ADD SWAP1 DUP2 MSTORE PUSH1 0x20 ADD PUSH1 0x0 KECCAK256 PUSH1 0x5 ADD PUSH1 0x0 DUP2 SLOAD DUP1 SWAP3 SWAP2 SWAP1 PUSH2 0x144B SWAP1 PUSH2 0x23E8 JUMP JUMPDEST SWAP2 SWAP1 POP SSTORE POP PUSH2 0x1553 JUMP JUMPDEST PUSH1 0x0 PUSH1 0x2 PUSH1 0x0 CALLER PUSH20 0xFFFFFFFFFFFFFFFFFFFFFFFFFFFFFFFFFFFFFFFF AND PUSH20 0xFFFFFFFFFFFFFFFFFFFFFFFFFFFFFFFFFFFFFFFF AND DUP2 MSTORE PUSH1 0x20 ADD SWAP1 DUP2 MSTORE PUSH1 0x20 ADD PUSH1 0x0 KECCAK256 PUSH1 0x0 DUP5 DUP2 MSTORE PUSH1 0x20 ADD SWAP1 DUP2 MSTORE PUSH1 0x20 ADD PUSH1 0x0 KECCAK256 PUSH1 0x0 PUSH2 0x100 EXP DUP2 SLOAD DUP2 PUSH1 0xFF MUL NOT AND SWAP1 DUP4 ISZERO ISZERO MUL OR SWAP1 SSTORE POP PUSH1 0x1 PUSH1 0x3 PUSH1 0x0 CALLER PUSH20 0xFFFFFFFFFFFFFFFFFFFFFFFFFFFFFFFFFFFFFFFF AND PUSH20 0xFFFFFFFFFFFFFFFFFFFFFFFFFFFFFFFFFFFFFFFF AND DUP2 MSTORE PUSH1 0x20 ADD SWAP1 DUP2 MSTORE PUSH1 0x20 ADD PUSH1 0x0 KECCAK256 PUSH1 0x0 DUP5 DUP2 MSTORE PUSH1 0x20 ADD SWAP1 DUP2 MSTORE PUSH1 0x20 ADD PUSH1 0x0 KECCAK256 PUSH1 0x0 PUSH2 0x100 EXP DUP2 SLOAD DUP2 PUSH1 0xFF MUL NOT AND SWAP1 DUP4 ISZERO ISZERO MUL OR SWAP1 SSTORE POP PUSH1 0x0 DUP1 DUP4 DUP2 MSTORE PUSH1 0x20 ADD SWAP1 DUP2 MSTORE PUSH1 0x20 ADD PUSH1 0x0 KECCAK256 PUSH1 0x6 ADD PUSH1 0x0 DUP2 SLOAD DUP1 SWAP3 SWAP2 SWAP1 PUSH2 0x154D SWAP1 PUSH2 0x23E8 JUMP JUMPDEST SWAP2 SWAP1 POP SSTORE POP JUMPDEST CALLER PUSH20 0xFFFFFFFFFFFFFFFFFFFFFFFFFFFFFFFFFFFFFFFF AND DUP2 ISZERO ISZERO DUP4 PUSH32 0x86ABFCE99B7DD908BEC0169288797F85049EC73CBE046ED9DE818FAB3A497AE0 PUSH1 0x40 MLOAD PUSH1 0x40 MLOAD DUP1 SWAP2 SUB SWAP1 LOG4 POP POP JUMP JUMPDEST PUSH1 0x1 ISZERO ISZERO PUSH2 0x15AB CALLER PUSH2 0xF6E JUMP JUMPDEST ISZERO ISZERO EQ PUSH2 0x15ED JUMPI PUSH1 0x40 MLOAD PUSH32 0x8C379A000000000000000000000000000000000000000000000000000000000 DUP2 MSTORE PUSH1 0x4 ADD PUSH2 0x15E4 SWAP1 PUSH2 0x2CB0 JUMP JUMPDEST PUSH1 0x40 MLOAD DUP1 SWAP2 SUB SWAP1 REVERT JUMPDEST PUSH1 0x0 ISZERO ISZERO PUSH2 0x15FA DUP3 PUSH2 0xF6E JUMP JUMPDEST ISZERO ISZERO EQ PUSH2 0x163C JUMPI PUSH1 0x40 MLOAD PUSH32 0x8C379A000000000000000000000000000000000000000000000000000000000 DUP2 MSTORE PUSH1 0x4 ADD PUSH2 0x1633 SWAP1 PUSH2 0x2D1C JUMP JUMPDEST PUSH1 0x40 MLOAD DUP1 SWAP2 SUB SWAP1 REVERT JUMPDEST PUSH1 0x0 PUSH2 0x1653 PUSH2 0x164A DUP4 PUSH2 0x1755 JUMP JUMPDEST PUSH1 0x2 PUSH1 0x22 PUSH2 0x9E8 JUMP JUMPDEST SWAP1 POP PUSH1 0x1 PUSH1 0x0 SWAP1 SLOAD SWAP1 PUSH2 0x100 EXP SWAP1 DIV PUSH20 0xFFFFFFFFFFFFFFFFFFFFFFFFFFFFFFFFFFFFFFFF AND PUSH20 0xFFFFFFFFFFFFFFFFFFFFFFFFFFFFFFFFFFFFFFFF AND PUSH4 0xE980602 DUP4 DUP4 PUSH1 0x40 MLOAD DUP4 PUSH4 0xFFFFFFFF AND PUSH1 0xE0 SHL DUP2 MSTORE PUSH1 0x4 ADD PUSH2 0x16B2 SWAP3 SWAP2 SWAP1 PUSH2 0x2942 JUMP JUMPDEST PUSH1 0x20 PUSH1 0x40 MLOAD DUP1 DUP4 SUB DUP2 PUSH1 0x0 DUP8 GAS CALL ISZERO DUP1 ISZERO PUSH2 0x16D1 JUMPI RETURNDATASIZE PUSH1 0x0 DUP1 RETURNDATACOPY RETURNDATASIZE PUSH1 0x0 REVERT JUMPDEST POP POP POP POP PUSH1 0x40 MLOAD RETURNDATASIZE PUSH1 0x1F NOT PUSH1 0x1F DUP3 ADD AND DUP3 ADD DUP1 PUSH1 0x40 MSTORE POP DUP2 ADD SWAP1 PUSH2 0x16F5 SWAP2 SWAP1 PUSH2 0x2987 JUMP JUMPDEST POP POP POP JUMP JUMPDEST PUSH2 0x258 DUP2 JUMP JUMPDEST PUSH1 0x6 PUSH1 0x0 SWAP1 SLOAD SWAP1 PUSH2 0x100 EXP SWAP1 DIV PUSH20 0xFFFFFFFFFFFFFFFFFFFFFFFFFFFFFFFFFFFFFFFF AND DUP2 JUMP JUMPDEST PUSH1 0x2 PUSH1 0x20 MSTORE DUP2 PUSH1 0x0 MSTORE PUSH1 0x40 PUSH1 0x0 KECCAK256 PUSH1 0x20 MSTORE DUP1 PUSH1 0x0 MSTORE PUSH1 0x40 PUSH1 0x0 KECCAK256 PUSH1 0x0 SWAP2 POP SWAP2 POP SWAP1 SLOAD SWAP1 PUSH2 0x100 EXP SWAP1 DIV PUSH1 0xFF AND DUP2 JUMP JUMPDEST PUSH1 0x60 PUSH2 0x177B DUP3 PUSH20 0xFFFFFFFFFFFFFFFFFFFFFFFFFFFFFFFFFFFFFFFF AND PUSH1 0x14 PUSH1 0xFF AND PUSH2 0x1782 JUMP JUMPDEST SWAP1 POP SWAP2 SWAP1 POP JUMP JUMPDEST PUSH1 0x60 PUSH1 0x0 PUSH1 0x2 DUP4 PUSH1 0x2 PUSH2 0x1795 SWAP2 SWAP1 PUSH2 0x2D3C JUMP JUMPDEST PUSH2 0x179F SWAP2 SWAP1 PUSH2 0x19F7 JUMP JUMPDEST PUSH8 0xFFFFFFFFFFFFFFFF DUP2 GT ISZERO PUSH2 0x17B8 JUMPI PUSH2 0x17B7 PUSH2 0x1D3D JUMP JUMPDEST JUMPDEST PUSH1 0x40 MLOAD SWAP1 DUP1 DUP3 MSTORE DUP1 PUSH1 0x1F ADD PUSH1 0x1F NOT AND PUSH1 0x20 ADD DUP3 ADD PUSH1 0x40 MSTORE DUP1 ISZERO PUSH2 0x17EA JUMPI DUP2 PUSH1 0x20 ADD PUSH1 0x1 DUP3 MUL DUP1 CALLDATASIZE DUP4 CALLDATACOPY DUP1 DUP3 ADD SWAP2 POP POP SWAP1 POP JUMPDEST POP SWAP1 POP PUSH32 0x3000000000000000000000000000000000000000000000000000000000000000 DUP2 PUSH1 0x0 DUP2 MLOAD DUP2 LT PUSH2 0x1822 JUMPI PUSH2 0x1821 PUSH2 0x23B9 JUMP JUMPDEST JUMPDEST PUSH1 0x20 ADD ADD SWAP1 PUSH31 0xFFFFFFFFFFFFFFFFFFFFFFFFFFFFFFFFFFFFFFFFFFFFFFFFFFFFFFFFFFFFFF NOT AND SWAP1 DUP2 PUSH1 0x0 BYTE SWAP1 MSTORE8 POP PUSH32 0x7800000000000000000000000000000000000000000000000000000000000000 DUP2 PUSH1 0x1 DUP2 MLOAD DUP2 LT PUSH2 0x1886 JUMPI PUSH2 0x1885 PUSH2 0x23B9 JUMP JUMPDEST JUMPDEST PUSH1 0x20 ADD ADD SWAP1 PUSH31 0xFFFFFFFFFFFFFFFFFFFFFFFFFFFFFFFFFFFFFFFFFFFFFFFFFFFFFFFFFFFFFF NOT AND SWAP1 DUP2 PUSH1 0x0 BYTE SWAP1 MSTORE8 POP PUSH1 0x0 PUSH1 0x1 DUP5 PUSH1 0x2 PUSH2 0x18C6 SWAP2 SWAP1 PUSH2 0x2D3C JUMP JUMPDEST PUSH2 0x18D0 SWAP2 SWAP1 PUSH2 0x19F7 JUMP JUMPDEST SWAP1 POP JUMPDEST PUSH1 0x1 DUP2 GT ISZERO PUSH2 0x1970 JUMPI PUSH32 0x3031323334353637383961626364656600000000000000000000000000000000 PUSH1 0xF DUP7 AND PUSH1 0x10 DUP2 LT PUSH2 0x1912 JUMPI PUSH2 0x1911 PUSH2 0x23B9 JUMP JUMPDEST JUMPDEST BYTE PUSH1 0xF8 SHL DUP3 DUP3 DUP2 MLOAD DUP2 LT PUSH2 0x1929 JUMPI PUSH2 0x1928 PUSH2 0x23B9 JUMP JUMPDEST JUMPDEST PUSH1 0x20 ADD ADD SWAP1 PUSH31 0xFFFFFFFFFFFFFFFFFFFFFFFFFFFFFFFFFFFFFFFFFFFFFFFFFFFFFFFFFFFFFF NOT AND SWAP1 DUP2 PUSH1 0x0 BYTE SWAP1 MSTORE8 POP PUSH1 0x4 DUP6 SWAP1 SHR SWAP5 POP DUP1 PUSH2 0x1969 SWAP1 PUSH2 0x2D7E JUMP JUMPDEST SWAP1 POP PUSH2 0x18D3 JUMP JUMPDEST POP PUSH1 0x0 DUP5 EQ PUSH2 0x19B4 JUMPI PUSH1 0x40 MLOAD PUSH32 0x8C379A000000000000000000000000000000000000000000000000000000000 DUP2 MSTORE PUSH1 0x4 ADD PUSH2 0x19AB SWAP1 PUSH2 0x2DF3 JUMP JUMPDEST PUSH1 0x40 MLOAD DUP1 SWAP2 SUB SWAP1 REVERT JUMPDEST DUP1 SWAP2 POP POP SWAP3 SWAP2 POP POP JUMP JUMPDEST PUSH1 0x0 DUP2 SWAP1 POP SWAP2 SWAP1 POP JUMP JUMPDEST PUSH32 0x4E487B7100000000000000000000000000000000000000000000000000000000 PUSH1 0x0 MSTORE PUSH1 0x11 PUSH1 0x4 MSTORE PUSH1 0x24 PUSH1 0x0 REVERT JUMPDEST PUSH1 0x0 PUSH2 0x1A02 DUP3 PUSH2 0x19BE JUMP JUMPDEST SWAP2 POP PUSH2 0x1A0D DUP4 PUSH2 0x19BE JUMP JUMPDEST SWAP3 POP DUP3 DUP3 ADD SWAP1 POP DUP1 DUP3 GT ISZERO PUSH2 0x1A25 JUMPI PUSH2 0x1A24 PUSH2 0x19C8 JUMP JUMPDEST JUMPDEST SWAP3 SWAP2 POP POP JUMP JUMPDEST PUSH1 0x0 PUSH1 0x40 MLOAD SWAP1 POP SWAP1 JUMP JUMPDEST PUSH1 0x0 DUP1 REVERT JUMPDEST PUSH1 0x0 DUP1 REVERT JUMPDEST PUSH2 0x1A48 DUP2 PUSH2 0x19BE JUMP JUMPDEST DUP2 EQ PUSH2 0x1A53 JUMPI PUSH1 0x0 DUP1 REVERT JUMPDEST POP JUMP JUMPDEST PUSH1 0x0 DUP2 CALLDATALOAD SWAP1 POP PUSH2 0x1A65 DUP2 PUSH2 0x1A3F JUMP JUMPDEST SWAP3 SWAP2 POP POP JUMP JUMPDEST PUSH1 0x0 PUSH1 0x20 DUP3 DUP5 SUB SLT ISZERO PUSH2 0x1A81 JUMPI PUSH2 0x1A80 PUSH2 0x1A35 JUMP JUMPDEST JUMPDEST PUSH1 0x0 PUSH2 0x1A8F DUP5 DUP3 DUP6 ADD PUSH2 0x1A56 JUMP JUMPDEST SWAP2 POP POP SWAP3 SWAP2 POP POP JUMP JUMPDEST PUSH1 0x0 PUSH20 0xFFFFFFFFFFFFFFFFFFFFFFFFFFFFFFFFFFFFFFFF DUP3 AND SWAP1 POP SWAP2 SWAP1 POP JUMP JUMPDEST PUSH1 0x0 PUSH2 0x1AC3 DUP3 PUSH2 0x1A98 JUMP JUMPDEST SWAP1 POP SWAP2 SWAP1 POP JUMP JUMPDEST PUSH2 0x1AD3 DUP2 PUSH2 0x1AB8 JUMP JUMPDEST DUP3 MSTORE POP POP JUMP JUMPDEST PUSH2 0x1AE2 DUP2 PUSH2 0x19BE JUMP JUMPDEST DUP3 MSTORE POP POP JUMP JUMPDEST PUSH1 0x0 DUP2 MLOAD SWAP1 POP SWAP2 SWAP1 POP JUMP JUMPDEST PUSH1 0x0 DUP3 DUP3 MSTORE PUSH1 0x20 DUP3 ADD SWAP1 POP SWAP3 SWAP2 POP POP JUMP JUMPDEST PUSH1 0x0 JUMPDEST DUP4 DUP2 LT ISZERO PUSH2 0x1B22 JUMPI DUP1 DUP3 ADD MLOAD DUP2 DUP5 ADD MSTORE PUSH1 0x20 DUP2 ADD SWAP1 POP PUSH2 0x1B07 JUMP JUMPDEST PUSH1 0x0 DUP5 DUP5 ADD MSTORE POP POP POP POP JUMP JUMPDEST PUSH1 0x0 PUSH1 0x1F NOT PUSH1 0x1F DUP4 ADD AND SWAP1 POP SWAP2 SWAP1 POP JUMP JUMPDEST PUSH1 0x0 PUSH2 0x1B4A DUP3 PUSH2 0x1AE8 JUMP JUMPDEST PUSH2 0x1B54 DUP2 DUP6 PUSH2 0x1AF3 JUMP JUMPDEST SWAP4 POP PUSH2 0x1B64 DUP2 DUP6 PUSH1 0x20 DUP7 ADD PUSH2 0x1B04 JUMP JUMPDEST PUSH2 0x1B6D DUP2 PUSH2 0x1B2E JUMP JUMPDEST DUP5 ADD SWAP2 POP POP SWAP3 SWAP2 POP POP JUMP JUMPDEST PUSH1 0x0 DUP2 ISZERO ISZERO SWAP1 POP SWAP2 SWAP1 POP JUMP JUMPDEST PUSH2 0x1B8D DUP2 PUSH2 0x1B78 JUMP JUMPDEST DUP3 MSTORE POP POP JUMP JUMPDEST PUSH1 0x0 PUSH2 0x120 DUP3 ADD SWAP1 POP PUSH2 0x1BA9 PUSH1 0x0 DUP4 ADD DUP13 PUSH2 0x1ACA JUMP JUMPDEST PUSH2 0x1BB6 PUSH1 0x20 DUP4 ADD DUP12 PUSH2 0x1AD9 JUMP JUMPDEST DUP2 DUP2 SUB PUSH1 0x40 DUP4 ADD MSTORE PUSH2 0x1BC8 DUP2 DUP11 PUSH2 0x1B3F JUMP JUMPDEST SWAP1 POP PUSH2 0x1BD7 PUSH1 0x60 DUP4 ADD DUP10 PUSH2 0x1AD9 JUMP JUMPDEST PUSH2 0x1BE4 PUSH1 0x80 DUP4 ADD DUP9 PUSH2 0x1B84 JUMP JUMPDEST PUSH2 0x1BF1 PUSH1 0xA0 DUP4 ADD DUP8 PUSH2 0x1B84 JUMP JUMPDEST PUSH2 0x1BFE PUSH1 0xC0 DUP4 ADD DUP7 PUSH2 0x1AD9 JUMP JUMPDEST PUSH2 0x1C0B PUSH1 0xE0 DUP4 ADD DUP6 PUSH2 0x1AD9 JUMP JUMPDEST PUSH2 0x1C19 PUSH2 0x100 DUP4 ADD DUP5 PUSH2 0x1ACA JUMP JUMPDEST SWAP11 SWAP10 POP POP POP POP POP POP POP POP POP POP JUMP JUMPDEST PUSH1 0x0 PUSH32 0xFFFFFFFF00000000000000000000000000000000000000000000000000000000 DUP3 AND SWAP1 POP SWAP2 SWAP1 POP JUMP JUMPDEST PUSH2 0x1C5C DUP2 PUSH2 0x1C27 JUMP JUMPDEST DUP2 EQ PUSH2 0x1C67 JUMPI PUSH1 0x0 DUP1 REVERT JUMPDEST POP JUMP JUMPDEST PUSH1 0x0 DUP2 CALLDATALOAD SWAP1 POP PUSH2 0x1C79 DUP2 PUSH2 0x1C53 JUMP JUMPDEST SWAP3 SWAP2 POP POP JUMP JUMPDEST PUSH1 0x0 PUSH1 0x20 DUP3 DUP5 SUB SLT ISZERO PUSH2 0x1C95 JUMPI PUSH2 0x1C94 PUSH2 0x1A35 JUMP JUMPDEST JUMPDEST PUSH1 0x0 PUSH2 0x1CA3 DUP5 DUP3 DUP6 ADD PUSH2 0x1C6A JUMP JUMPDEST SWAP2 POP POP SWAP3 SWAP2 POP POP JUMP JUMPDEST PUSH1 0x0 PUSH1 0x20 DUP3 ADD SWAP1 POP PUSH2 0x1CC1 PUSH1 0x0 DUP4 ADD DUP5 PUSH2 0x1B84 JUMP JUMPDEST SWAP3 SWAP2 POP POP JUMP JUMPDEST PUSH2 0x1CD0 DUP2 PUSH2 0x1AB8 JUMP JUMPDEST DUP2 EQ PUSH2 0x1CDB JUMPI PUSH1 0x0 DUP1 REVERT JUMPDEST POP JUMP JUMPDEST PUSH1 0x0 DUP2 CALLDATALOAD SWAP1 POP PUSH2 0x1CED DUP2 PUSH2 0x1CC7 JUMP JUMPDEST SWAP3 SWAP2 POP POP JUMP JUMPDEST PUSH1 0x0 DUP1 PUSH1 0x40 DUP4 DUP6 SUB SLT ISZERO PUSH2 0x1D0A JUMPI PUSH2 0x1D09 PUSH2 0x1A35 JUMP JUMPDEST JUMPDEST PUSH1 0x0 PUSH2 0x1D18 DUP6 DUP3 DUP7 ADD PUSH2 0x1CDE JUMP JUMPDEST SWAP3 POP POP PUSH1 0x20 PUSH2 0x1D29 DUP6 DUP3 DUP7 ADD PUSH2 0x1A56 JUMP JUMPDEST SWAP2 POP POP SWAP3 POP SWAP3 SWAP1 POP JUMP JUMPDEST PUSH1 0x0 DUP1 REVERT JUMPDEST PUSH1 0x0 DUP1 REVERT JUMPDEST PUSH32 0x4E487B7100000000000000000000000000000000000000000000000000000000 PUSH1 0x0 MSTORE PUSH1 0x41 PUSH1 0x4 MSTORE PUSH1 0x24 PUSH1 0x0 REVERT JUMPDEST PUSH2 0x1D75 DUP3 PUSH2 0x1B2E JUMP JUMPDEST DUP2 ADD DUP2 DUP2 LT PUSH8 0xFFFFFFFFFFFFFFFF DUP3 GT OR ISZERO PUSH2 0x1D94 JUMPI PUSH2 0x1D93 PUSH2 0x1D3D JUMP JUMPDEST JUMPDEST DUP1 PUSH1 0x40 MSTORE POP POP POP JUMP JUMPDEST PUSH1 0x0 PUSH2 0x1DA7 PUSH2 0x1A2B JUMP JUMPDEST SWAP1 POP PUSH2 0x1DB3 DUP3 DUP3 PUSH2 0x1D6C JUMP JUMPDEST SWAP2 SWAP1 POP JUMP JUMPDEST PUSH1 0x0 PUSH8 0xFFFFFFFFFFFFFFFF DUP3 GT ISZERO PUSH2 0x1DD3 JUMPI PUSH2 0x1DD2 PUSH2 0x1D3D JUMP JUMPDEST JUMPDEST PUSH2 0x1DDC DUP3 PUSH2 0x1B2E JUMP JUMPDEST SWAP1 POP PUSH1 0x20 DUP2 ADD SWAP1 POP SWAP2 SWAP1 POP JUMP JUMPDEST DUP3 DUP2 DUP4 CALLDATACOPY PUSH1 0x0 DUP4 DUP4 ADD MSTORE POP POP POP JUMP JUMPDEST PUSH1 0x0 PUSH2 0x1E0B PUSH2 0x1E06 DUP5 PUSH2 0x1DB8 JUMP JUMPDEST PUSH2 0x1D9D JUMP JUMPDEST SWAP1 POP DUP3 DUP2 MSTORE PUSH1 0x20 DUP2 ADD DUP5 DUP5 DUP5 ADD GT ISZERO PUSH2 0x1E27 JUMPI PUSH2 0x1E26 PUSH2 0x1D38 JUMP JUMPDEST JUMPDEST PUSH2 0x1E32 DUP5 DUP3 DUP6 PUSH2 0x1DE9 JUMP JUMPDEST POP SWAP4 SWAP3 POP POP POP JUMP JUMPDEST PUSH1 0x0 DUP3 PUSH1 0x1F DUP4 ADD SLT PUSH2 0x1E4F JUMPI PUSH2 0x1E4E PUSH2 0x1D33 JUMP JUMPDEST JUMPDEST DUP2 CALLDATALOAD PUSH2 0x1E5F DUP5 DUP3 PUSH1 0x20 DUP7 ADD PUSH2 0x1DF8 JUMP JUMPDEST SWAP2 POP POP SWAP3 SWAP2 POP POP JUMP JUMPDEST PUSH1 0x0 DUP1 PUSH1 0x0 PUSH1 0x60 DUP5 DUP7 SUB SLT ISZERO PUSH2 0x1E81 JUMPI PUSH2 0x1E80 PUSH2 0x1A35 JUMP JUMPDEST JUMPDEST PUSH1 0x0 DUP5 ADD CALLDATALOAD PUSH8 0xFFFFFFFFFFFFFFFF DUP2 GT ISZERO PUSH2 0x1E9F JUMPI PUSH2 0x1E9E PUSH2 0x1A3A JUMP JUMPDEST JUMPDEST PUSH2 0x1EAB DUP7 DUP3 DUP8 ADD PUSH2 0x1E3A JUMP JUMPDEST SWAP4 POP POP PUSH1 0x20 PUSH2 0x1EBC DUP7 DUP3 DUP8 ADD PUSH2 0x1A56 JUMP JUMPDEST SWAP3 POP POP PUSH1 0x40 PUSH2 0x1ECD DUP7 DUP3 DUP8 ADD PUSH2 0x1A56 JUMP JUMPDEST SWAP2 POP POP SWAP3 POP SWAP3 POP SWAP3 JUMP JUMPDEST PUSH1 0x0 PUSH1 0x20 DUP3 ADD SWAP1 POP DUP2 DUP2 SUB PUSH1 0x0 DUP4 ADD MSTORE PUSH2 0x1EF1 DUP2 DUP5 PUSH2 0x1B3F JUMP JUMPDEST SWAP1 POP SWAP3 SWAP2 POP POP JUMP JUMPDEST PUSH1 0x0 PUSH1 0x20 DUP3 ADD SWAP1 POP PUSH2 0x1F0E PUSH1 0x0 DUP4 ADD DUP5 PUSH2 0x1AD9 JUMP JUMPDEST SWAP3 SWAP2 POP POP JUMP JUMPDEST PUSH1 0x0 DUP1 PUSH1 0x0 DUP1 PUSH1 0x80 DUP6 DUP8 SUB SLT ISZERO PUSH2 0x1F2E JUMPI PUSH2 0x1F2D PUSH2 0x1A35 JUMP JUMPDEST JUMPDEST PUSH1 0x0 PUSH2 0x1F3C DUP8 DUP3 DUP9 ADD PUSH2 0x1CDE JUMP JUMPDEST SWAP5 POP POP PUSH1 0x20 PUSH2 0x1F4D DUP8 DUP3 DUP9 ADD PUSH2 0x1A56 JUMP JUMPDEST SWAP4 POP POP PUSH1 0x40 DUP6 ADD CALLDATALOAD PUSH8 0xFFFFFFFFFFFFFFFF DUP2 GT ISZERO PUSH2 0x1F6E JUMPI PUSH2 0x1F6D PUSH2 0x1A3A JUMP JUMPDEST JUMPDEST PUSH2 0x1F7A DUP8 DUP3 DUP9 ADD PUSH2 0x1E3A JUMP JUMPDEST SWAP3 POP POP PUSH1 0x60 PUSH2 0x1F8B DUP8 DUP3 DUP9 ADD PUSH2 0x1A56 JUMP JUMPDEST SWAP2 POP POP SWAP3 SWAP6 SWAP2 SWAP5 POP SWAP3 POP JUMP JUMPDEST PUSH1 0x0 PUSH1 0x20 DUP3 ADD SWAP1 POP PUSH2 0x1FAC PUSH1 0x0 DUP4 ADD DUP5 PUSH2 0x1ACA JUMP JUMPDEST SWAP3 SWAP2 POP POP JUMP JUMPDEST PUSH1 0x0 PUSH1 0x20 DUP3 DUP5 SUB SLT ISZERO PUSH2 0x1FC8 JUMPI PUSH2 0x1FC7 PUSH2 0x1A35 JUMP JUMPDEST JUMPDEST PUSH1 0x0 PUSH2 0x1FD6 DUP5 DUP3 DUP6 ADD PUSH2 0x1CDE JUMP JUMPDEST SWAP2 POP POP SWAP3 SWAP2 POP POP JUMP JUMPDEST PUSH2 0x1FE8 DUP2 PUSH2 0x1B78 JUMP JUMPDEST DUP2 EQ PUSH2 0x1FF3 JUMPI PUSH1 0x0 DUP1 REVERT JUMPDEST POP JUMP JUMPDEST PUSH1 0x0 DUP2 CALLDATALOAD SWAP1 POP PUSH2 0x2005 DUP2 PUSH2 0x1FDF JUMP JUMPDEST SWAP3 SWAP2 POP POP JUMP JUMPDEST PUSH1 0x0 DUP1 PUSH1 0x40 DUP4 DUP6 SUB SLT ISZERO PUSH2 0x2022 JUMPI PUSH2 0x2021 PUSH2 0x1A35 JUMP JUMPDEST JUMPDEST PUSH1 0x0 PUSH2 0x2030 DUP6 DUP3 DUP7 ADD PUSH2 0x1A56 JUMP JUMPDEST SWAP3 POP POP PUSH1 0x20 PUSH2 0x2041 DUP6 DUP3 DUP7 ADD PUSH2 0x1FF6 JUMP JUMPDEST SWAP2 POP POP SWAP3 POP SWAP3 SWAP1 POP JUMP JUMPDEST PUSH32 0x4E487B7100000000000000000000000000000000000000000000000000000000 PUSH1 0x0 MSTORE PUSH1 0x22 PUSH1 0x4 MSTORE PUSH1 0x24 PUSH1 0x0 REVERT JUMPDEST PUSH1 0x0 PUSH1 0x2 DUP3 DIV SWAP1 POP PUSH1 0x1 DUP3 AND DUP1 PUSH2 0x2092 JUMPI PUSH1 0x7F DUP3 AND SWAP2 POP JUMPDEST PUSH1 0x20 DUP3 LT DUP2 SUB PUSH2 0x20A5 JUMPI PUSH2 0x20A4 PUSH2 0x204B JUMP JUMPDEST JUMPDEST POP SWAP2 SWAP1 POP JUMP JUMPDEST PUSH32 0x546861742070726F706F73616C20646F6573206E6F7420657869737420796574 PUSH1 0x0 DUP3 ADD MSTORE PUSH32 0x2100000000000000000000000000000000000000000000000000000000000000 PUSH1 0x20 DUP3 ADD MSTORE POP JUMP JUMPDEST PUSH1 0x0 PUSH2 0x2107 PUSH1 0x21 DUP4 PUSH2 0x1AF3 JUMP JUMPDEST SWAP2 POP PUSH2 0x2112 DUP3 PUSH2 0x20AB JUMP JUMPDEST PUSH1 0x40 DUP3 ADD SWAP1 POP SWAP2 SWAP1 POP JUMP JUMPDEST PUSH1 0x0 PUSH1 0x20 DUP3 ADD SWAP1 POP DUP2 DUP2 SUB PUSH1 0x0 DUP4 ADD MSTORE PUSH2 0x2136 DUP2 PUSH2 0x20FA JUMP JUMPDEST SWAP1 POP SWAP2 SWAP1 POP JUMP JUMPDEST PUSH32 0x6E6F742074696D6520746F20636C6F73652069742079657421204D6F72652074 PUSH1 0x0 DUP3 ADD MSTORE PUSH32 0x696D65206973206C65667420746F20766F746521000000000000000000000000 PUSH1 0x20 DUP3 ADD MSTORE POP JUMP JUMPDEST PUSH1 0x0 PUSH2 0x2199 PUSH1 0x34 DUP4 PUSH2 0x1AF3 JUMP JUMPDEST SWAP2 POP PUSH2 0x21A4 DUP3 PUSH2 0x213D JUMP JUMPDEST PUSH1 0x40 DUP3 ADD SWAP1 POP SWAP2 SWAP1 POP JUMP JUMPDEST PUSH1 0x0 PUSH1 0x20 DUP3 ADD SWAP1 POP DUP2 DUP2 SUB PUSH1 0x0 DUP4 ADD MSTORE PUSH2 0x21C8 DUP2 PUSH2 0x218C JUMP JUMPDEST SWAP1 POP SWAP2 SWAP1 POP JUMP JUMPDEST PUSH32 0x596F7520617265206E6F742061206D656D6265722E20446F206E6F7420747279 PUSH1 0x0 DUP3 ADD MSTORE PUSH32 0x20696E666C75656E63696E672074686520726573756C7473206F66206F757220 PUSH1 0x20 DUP3 ADD MSTORE PUSH32 0x766F74696E672070726F63657373210000000000000000000000000000000000 PUSH1 0x40 DUP3 ADD MSTORE POP JUMP JUMPDEST PUSH1 0x0 PUSH2 0x2251 PUSH1 0x4F DUP4 PUSH2 0x1AF3 JUMP JUMPDEST SWAP2 POP PUSH2 0x225C DUP3 PUSH2 0x21CF JUMP JUMPDEST PUSH1 0x60 DUP3 ADD SWAP1 POP SWAP2 SWAP1 POP JUMP JUMPDEST PUSH1 0x0 PUSH1 0x20 DUP3 ADD SWAP1 POP DUP2 DUP2 SUB PUSH1 0x0 DUP4 ADD MSTORE PUSH2 0x2280 DUP2 PUSH2 0x2244 JUMP JUMPDEST SWAP1 POP SWAP2 SWAP1 POP JUMP JUMPDEST PUSH1 0x0 DUP2 SWAP1 POP SWAP3 SWAP2 POP POP JUMP JUMPDEST POP JUMP JUMPDEST PUSH1 0x0 PUSH2 0x22A2 PUSH1 0x0 DUP4 PUSH2 0x2287 JUMP JUMPDEST SWAP2 POP PUSH2 0x22AD DUP3 PUSH2 0x2292 JUMP JUMPDEST PUSH1 0x0 DUP3 ADD SWAP1 POP SWAP2 SWAP1 POP JUMP JUMPDEST PUSH1 0x0 PUSH2 0x22C3 DUP3 PUSH2 0x2295 JUMP JUMPDEST SWAP2 POP DUP2 SWAP1 POP SWAP2 SWAP1 POP JUMP JUMPDEST PUSH32 0x4661696C656420746F207472616E73666572206D6F6E657920746F2072656369 PUSH1 0x0 DUP3 ADD MSTORE PUSH32 0x7069656E74207768696C6520747279696E6720746F20636C6F73652070726F70 PUSH1 0x20 DUP3 ADD MSTORE PUSH32 0x6F73616C00000000000000000000000000000000000000000000000000000000 PUSH1 0x40 DUP3 ADD MSTORE POP JUMP JUMPDEST PUSH1 0x0 PUSH2 0x234F PUSH1 0x44 DUP4 PUSH2 0x1AF3 JUMP JUMPDEST SWAP2 POP PUSH2 0x235A DUP3 PUSH2 0x22CD JUMP JUMPDEST PUSH1 0x60 DUP3 ADD SWAP1 POP SWAP2 SWAP1 POP JUMP JUMPDEST PUSH1 0x0 PUSH1 0x20 DUP3 ADD SWAP1 POP DUP2 DUP2 SUB PUSH1 0x0 DUP4 ADD MSTORE PUSH2 0x237E DUP2 PUSH2 0x2342 JUMP JUMPDEST SWAP1 POP SWAP2 SWAP1 POP JUMP JUMPDEST PUSH1 0x0 PUSH2 0x2390 DUP3 PUSH2 0x19BE JUMP JUMPDEST SWAP2 POP PUSH2 0x239B DUP4 PUSH2 0x19BE JUMP JUMPDEST SWAP3 POP DUP3 DUP3 SUB SWAP1 POP DUP2 DUP2 GT ISZERO PUSH2 0x23B3 JUMPI PUSH2 0x23B2 PUSH2 0x19C8 JUMP JUMPDEST JUMPDEST SWAP3 SWAP2 POP POP JUMP JUMPDEST PUSH32 0x4E487B7100000000000000000000000000000000000000000000000000000000 PUSH1 0x0 MSTORE PUSH1 0x32 PUSH1 0x4 MSTORE PUSH1 0x24 PUSH1 0x0 REVERT JUMPDEST PUSH1 0x0 PUSH2 0x23F3 DUP3 PUSH2 0x19BE JUMP JUMPDEST SWAP2 POP PUSH32 0xFFFFFFFFFFFFFFFFFFFFFFFFFFFFFFFFFFFFFFFFFFFFFFFFFFFFFFFFFFFFFFFF DUP3 SUB PUSH2 0x2425 JUMPI PUSH2 0x2424 PUSH2 0x19C8 JUMP JUMPDEST JUMPDEST PUSH1 0x1 DUP3 ADD SWAP1 POP SWAP2 SWAP1 POP JUMP JUMPDEST PUSH32 0x596F75277265206E6F742061206D656D626572206F66206F7572206F7267616E PUSH1 0x0 DUP3 ADD MSTORE PUSH32 0x697A6174696F6E2E2053746F70206974206265666F726520492063616C6C2074 PUSH1 0x20 DUP3 ADD MSTORE PUSH32 0x686520636F707300000000000000000000000000000000000000000000000000 PUSH1 0x40 DUP3 ADD MSTORE POP JUMP JUMPDEST PUSH1 0x0 PUSH2 0x24B2 PUSH1 0x47 DUP4 PUSH2 0x1AF3 JUMP JUMPDEST SWAP2 POP PUSH2 0x24BD DUP3 PUSH2 0x2430 JUMP JUMPDEST PUSH1 0x60 DUP3 ADD SWAP1 POP SWAP2 SWAP1 POP JUMP JUMPDEST PUSH1 0x0 PUSH1 0x20 DUP3 ADD SWAP1 POP DUP2 DUP2 SUB PUSH1 0x0 DUP4 ADD MSTORE PUSH2 0x24E1 DUP2 PUSH2 0x24A5 JUMP JUMPDEST SWAP1 POP SWAP2 SWAP1 POP JUMP JUMPDEST PUSH32 0x4E6F742061206C6F6E6720656E6F7567682064656261746520706572696F642E PUSH1 0x0 DUP3 ADD MSTORE PUSH32 0x20446F6E27742074727920746F2070756C6C20616E792066617374206F6E6573 PUSH1 0x20 DUP3 ADD MSTORE PUSH32 0x206F6E206D652100000000000000000000000000000000000000000000000000 PUSH1 0x40 DUP3 ADD MSTORE POP JUMP JUMPDEST PUSH1 0x0 PUSH2 0x256A PUSH1 0x47 DUP4 PUSH2 0x1AF3 JUMP JUMPDEST SWAP2 POP PUSH2 0x2575 DUP3 PUSH2 0x24E8 JUMP JUMPDEST PUSH1 0x60 DUP3 ADD SWAP1 POP SWAP2 SWAP1 POP JUMP JUMPDEST PUSH1 0x0 PUSH1 0x20 DUP3 ADD SWAP1 POP DUP2 DUP2 SUB PUSH1 0x0 DUP4 ADD MSTORE PUSH2 0x2599 DUP2 PUSH2 0x255D JUMP JUMPDEST SWAP1 POP SWAP2 SWAP1 POP JUMP JUMPDEST PUSH32 0x53656E6420696E206D6F726520657468657220776974682074686973206E6577 PUSH1 0x0 DUP3 ADD MSTORE PUSH32 0x2070726F706F73616C2C2064616F20646F65736E74206861766520656E6F7567 PUSH1 0x20 DUP3 ADD MSTORE PUSH32 0x6800000000000000000000000000000000000000000000000000000000000000 PUSH1 0x40 DUP3 ADD MSTORE POP JUMP JUMPDEST PUSH1 0x0 PUSH2 0x2622 PUSH1 0x41 DUP4 PUSH2 0x1AF3 JUMP JUMPDEST SWAP2 POP PUSH2 0x262D DUP3 PUSH2 0x25A0 JUMP JUMPDEST PUSH1 0x60 DUP3 ADD SWAP1 POP SWAP2 SWAP1 POP JUMP JUMPDEST PUSH1 0x0 PUSH1 0x20 DUP3 ADD SWAP1 POP DUP2 DUP2 SUB PUSH1 0x0 DUP4 ADD MSTORE PUSH2 0x2651 DUP2 PUSH2 0x2615 JUMP JUMPDEST SWAP1 POP SWAP2 SWAP1 POP JUMP JUMPDEST PUSH1 0x0 DUP2 SWAP1 POP DUP2 PUSH1 0x0 MSTORE PUSH1 0x20 PUSH1 0x0 KECCAK256 SWAP1 POP SWAP2 SWAP1 POP JUMP JUMPDEST PUSH1 0x0 PUSH1 0x20 PUSH1 0x1F DUP4 ADD DIV SWAP1 POP SWAP2 SWAP1 POP JUMP JUMPDEST PUSH1 0x0 DUP3 DUP3 SHL SWAP1 POP SWAP3 SWAP2 POP POP JUMP JUMPDEST PUSH1 0x0 PUSH1 0x8 DUP4 MUL PUSH2 0x26BA PUSH32 0xFFFFFFFFFFFFFFFFFFFFFFFFFFFFFFFFFFFFFFFFFFFFFFFFFFFFFFFFFFFFFFFF DUP3 PUSH2 0x267D JUMP JUMPDEST PUSH2 0x26C4 DUP7 DUP4 PUSH2 0x267D JUMP JUMPDEST SWAP6 POP DUP1 NOT DUP5 AND SWAP4 POP DUP1 DUP7 AND DUP5 OR SWAP3 POP POP POP SWAP4 SWAP3 POP POP POP JUMP JUMPDEST PUSH1 0x0 DUP2 SWAP1 POP SWAP2 SWAP1 POP JUMP JUMPDEST PUSH1 0x0 PUSH2 0x2701 PUSH2 0x26FC PUSH2 0x26F7 DUP5 PUSH2 0x19BE JUMP JUMPDEST PUSH2 0x26DC JUMP JUMPDEST PUSH2 0x19BE JUMP JUMPDEST SWAP1 POP SWAP2 SWAP1 POP JUMP JUMPDEST PUSH1 0x0 DUP2 SWAP1 POP SWAP2 SWAP1 POP JUMP JUMPDEST PUSH2 0x271B DUP4 PUSH2 0x26E6 JUMP JUMPDEST PUSH2 0x272F PUSH2 0x2727 DUP3 PUSH2 0x2708 JUMP JUMPDEST DUP5 DUP5 SLOAD PUSH2 0x268A JUMP JUMPDEST DUP3 SSTORE POP POP POP POP JUMP JUMPDEST PUSH1 0x0 SWAP1 JUMP JUMPDEST PUSH2 0x2744 PUSH2 0x2737 JUMP JUMPDEST PUSH2 0x274F DUP2 DUP5 DUP5 PUSH2 0x2712 JUMP JUMPDEST POP POP POP JUMP JUMPDEST JUMPDEST DUP2 DUP2 LT ISZERO PUSH2 0x2773 JUMPI PUSH2 0x2768 PUSH1 0x0 DUP3 PUSH2 0x273C JUMP JUMPDEST PUSH1 0x1 DUP2 ADD SWAP1 POP PUSH2 0x2755 JUMP JUMPDEST POP POP JUMP JUMPDEST PUSH1 0x1F DUP3 GT ISZERO PUSH2 0x27B8 JUMPI PUSH2 0x2789 DUP2 PUSH2 0x2658 JUMP JUMPDEST PUSH2 0x2792 DUP5 PUSH2 0x266D JUMP JUMPDEST DUP2 ADD PUSH1 0x20 DUP6 LT ISZERO PUSH2 0x27A1 JUMPI DUP2 SWAP1 POP JUMPDEST PUSH2 0x27B5 PUSH2 0x27AD DUP6 PUSH2 0x266D JUMP JUMPDEST DUP4 ADD DUP3 PUSH2 0x2754 JUMP JUMPDEST POP POP JUMPDEST POP POP POP JUMP JUMPDEST PUSH1 0x0 DUP3 DUP3 SHR SWAP1 POP SWAP3 SWAP2 POP POP JUMP JUMPDEST PUSH1 0x0 PUSH2 0x27DB PUSH1 0x0 NOT DUP5 PUSH1 0x8 MUL PUSH2 0x27BD JUMP JUMPDEST NOT DUP1 DUP4 AND SWAP2 POP POP SWAP3 SWAP2 POP POP JUMP JUMPDEST PUSH1 0x0 PUSH2 0x27F4 DUP4 DUP4 PUSH2 0x27CA JUMP JUMPDEST SWAP2 POP DUP3 PUSH1 0x2 MUL DUP3 OR SWAP1 POP SWAP3 SWAP2 POP POP JUMP JUMPDEST PUSH2 0x280D DUP3 PUSH2 0x1AE8 JUMP JUMPDEST PUSH8 0xFFFFFFFFFFFFFFFF DUP2 GT ISZERO PUSH2 0x2826 JUMPI PUSH2 0x2825 PUSH2 0x1D3D JUMP JUMPDEST JUMPDEST PUSH2 0x2830 DUP3 SLOAD PUSH2 0x207A JUMP JUMPDEST PUSH2 0x283B DUP3 DUP3 DUP6 PUSH2 0x2777 JUMP JUMPDEST PUSH1 0x0 PUSH1 0x20 SWAP1 POP PUSH1 0x1F DUP4 GT PUSH1 0x1 DUP2 EQ PUSH2 0x286E JUMPI PUSH1 0x0 DUP5 ISZERO PUSH2 0x285C JUMPI DUP3 DUP8 ADD MLOAD SWAP1 POP JUMPDEST PUSH2 0x2866 DUP6 DUP3 PUSH2 0x27E8 JUMP JUMPDEST DUP7 SSTORE POP PUSH2 0x28CE JUMP JUMPDEST PUSH1 0x1F NOT DUP5 AND PUSH2 0x287C DUP7 PUSH2 0x2658 JUMP JUMPDEST PUSH1 0x0 JUMPDEST DUP3 DUP2 LT ISZERO PUSH2 0x28A4 JUMPI DUP5 DUP10 ADD MLOAD DUP3 SSTORE PUSH1 0x1 DUP3 ADD SWAP2 POP PUSH1 0x20 DUP6 ADD SWAP5 POP PUSH1 0x20 DUP2 ADD SWAP1 POP PUSH2 0x287F JUMP JUMPDEST DUP7 DUP4 LT ISZERO PUSH2 0x28C1 JUMPI DUP5 DUP10 ADD MLOAD PUSH2 0x28BD PUSH1 0x1F DUP10 AND DUP3 PUSH2 0x27CA JUMP JUMPDEST DUP4 SSTORE POP JUMPDEST PUSH1 0x1 PUSH1 0x2 DUP9 MUL ADD DUP9 SSTORE POP POP POP JUMPDEST POP POP POP POP POP POP JUMP JUMPDEST PUSH32 0x596F752061726520616C72656164792061206D656D6265722100000000000000 PUSH1 0x0 DUP3 ADD MSTORE POP JUMP JUMPDEST PUSH1 0x0 PUSH2 0x290C PUSH1 0x19 DUP4 PUSH2 0x1AF3 JUMP JUMPDEST SWAP2 POP PUSH2 0x2917 DUP3 PUSH2 0x28D6 JUMP JUMPDEST PUSH1 0x20 DUP3 ADD SWAP1 POP SWAP2 SWAP1 POP JUMP JUMPDEST PUSH1 0x0 PUSH1 0x20 DUP3 ADD SWAP1 POP DUP2 DUP2 SUB PUSH1 0x0 DUP4 ADD MSTORE PUSH2 0x293B DUP2 PUSH2 0x28FF JUMP JUMPDEST SWAP1 POP SWAP2 SWAP1 POP JUMP JUMPDEST PUSH1 0x0 PUSH1 0x40 DUP3 ADD SWAP1 POP PUSH2 0x2957 PUSH1 0x0 DUP4 ADD DUP6 PUSH2 0x1ACA JUMP JUMPDEST DUP2 DUP2 SUB PUSH1 0x20 DUP4 ADD MSTORE PUSH2 0x2969 DUP2 DUP5 PUSH2 0x1B3F JUMP JUMPDEST SWAP1 POP SWAP4 SWAP3 POP POP POP JUMP JUMPDEST PUSH1 0x0 DUP2 MLOAD SWAP1 POP PUSH2 0x2981 DUP2 PUSH2 0x1A3F JUMP JUMPDEST SWAP3 SWAP2 POP POP JUMP JUMPDEST PUSH1 0x0 PUSH1 0x20 DUP3 DUP5 SUB SLT ISZERO PUSH2 0x299D JUMPI PUSH2 0x299C PUSH2 0x1A35 JUMP JUMPDEST JUMPDEST PUSH1 0x0 PUSH2 0x29AB DUP5 DUP3 DUP6 ADD PUSH2 0x2972 JUMP JUMPDEST SWAP2 POP POP SWAP3 SWAP2 POP POP JUMP JUMPDEST PUSH1 0x0 DUP2 MLOAD SWAP1 POP PUSH2 0x29C3 DUP2 PUSH2 0x1CC7 JUMP JUMPDEST SWAP3 SWAP2 POP POP JUMP JUMPDEST PUSH1 0x0 PUSH1 0x20 DUP3 DUP5 SUB SLT ISZERO PUSH2 0x29DF JUMPI PUSH2 0x29DE PUSH2 0x1A35 JUMP JUMPDEST JUMPDEST PUSH1 0x0 PUSH2 0x29ED DUP5 DUP3 DUP6 ADD PUSH2 0x29B4 JUMP JUMPDEST SWAP2 POP POP SWAP3 SWAP2 POP POP JUMP JUMPDEST PUSH32 0x596F7520617265206E6F742061206D656D62657220736F20796F752063616E27 PUSH1 0x0 DUP3 ADD MSTORE PUSH32 0x7420766F74652E20446F206E6F742074727920636F7272757074696E67206F75 PUSH1 0x20 DUP3 ADD MSTORE PUSH32 0x722064656D6F6372617469632070726F63657373210000000000000000000000 PUSH1 0x40 DUP3 ADD MSTORE POP JUMP JUMPDEST PUSH1 0x0 PUSH2 0x2A78 PUSH1 0x55 DUP4 PUSH2 0x1AF3 JUMP JUMPDEST SWAP2 POP PUSH2 0x2A83 DUP3 PUSH2 0x29F6 JUMP JUMPDEST PUSH1 0x60 DUP3 ADD SWAP1 POP SWAP2 SWAP1 POP JUMP JUMPDEST PUSH1 0x0 PUSH1 0x20 DUP3 ADD SWAP1 POP DUP2 DUP2 SUB PUSH1 0x0 DUP4 ADD MSTORE PUSH2 0x2AA7 DUP2 PUSH2 0x2A6B JUMP JUMPDEST SWAP1 POP SWAP2 SWAP1 POP JUMP JUMPDEST PUSH32 0x5468652070726F706F73616C20766F74696E6720697320636C6F73656420616C PUSH1 0x0 DUP3 ADD MSTORE PUSH32 0x7265616479000000000000000000000000000000000000000000000000000000 PUSH1 0x20 DUP3 ADD MSTORE POP JUMP JUMPDEST PUSH1 0x0 PUSH2 0x2B0A PUSH1 0x25 DUP4 PUSH2 0x1AF3 JUMP JUMPDEST SWAP2 POP PUSH2 0x2B15 DUP3 PUSH2 0x2AAE JUMP JUMPDEST PUSH1 0x40 DUP3 ADD SWAP1 POP SWAP2 SWAP1 POP JUMP JUMPDEST PUSH1 0x0 PUSH1 0x20 DUP3 ADD SWAP1 POP DUP2 DUP2 SUB PUSH1 0x0 DUP4 ADD MSTORE PUSH2 0x2B39 DUP2 PUSH2 0x2AFD JUMP JUMPDEST SWAP1 POP SWAP2 SWAP1 POP JUMP JUMPDEST PUSH32 0x50726F706F73616C206E6F74206F70656E20616E79206D6F7265000000000000 PUSH1 0x0 DUP3 ADD MSTORE POP JUMP JUMPDEST PUSH1 0x0 PUSH2 0x2B76 PUSH1 0x1A DUP4 PUSH2 0x1AF3 JUMP JUMPDEST SWAP2 POP PUSH2 0x2B81 DUP3 PUSH2 0x2B40 JUMP JUMPDEST PUSH1 0x20 DUP3 ADD SWAP1 POP SWAP2 SWAP1 POP JUMP JUMPDEST PUSH1 0x0 PUSH1 0x20 DUP3 ADD SWAP1 POP DUP2 DUP2 SUB PUSH1 0x0 DUP4 ADD MSTORE PUSH2 0x2BA5 DUP2 PUSH2 0x2B69 JUMP JUMPDEST SWAP1 POP SWAP2 SWAP1 POP JUMP JUMPDEST PUSH32 0x596F75206861766520616C726561647920766F746564206F6E20746869732070 PUSH1 0x0 DUP3 ADD MSTORE PUSH32 0x726F706F73616C00000000000000000000000000000000000000000000000000 PUSH1 0x20 DUP3 ADD MSTORE POP JUMP JUMPDEST PUSH1 0x0 PUSH2 0x2C08 PUSH1 0x27 DUP4 PUSH2 0x1AF3 JUMP JUMPDEST SWAP2 POP PUSH2 0x2C13 DUP3 PUSH2 0x2BAC JUMP JUMPDEST PUSH1 0x40 DUP3 ADD SWAP1 POP SWAP2 SWAP1 POP JUMP JUMPDEST PUSH1 0x0 PUSH1 0x20 DUP3 ADD SWAP1 POP DUP2 DUP2 SUB PUSH1 0x0 DUP4 ADD MSTORE PUSH2 0x2C37 DUP2 PUSH2 0x2BFB JUMP JUMPDEST SWAP1 POP SWAP2 SWAP1 POP JUMP JUMPDEST PUSH32 0x4F6E6C79206D656D626572732063616E20616464206F746865722070656F706C PUSH1 0x0 DUP3 ADD MSTORE PUSH32 0x6521000000000000000000000000000000000000000000000000000000000000 PUSH1 0x20 DUP3 ADD MSTORE POP JUMP JUMPDEST PUSH1 0x0 PUSH2 0x2C9A PUSH1 0x22 DUP4 PUSH2 0x1AF3 JUMP JUMPDEST SWAP2 POP PUSH2 0x2CA5 DUP3 PUSH2 0x2C3E JUMP JUMPDEST PUSH1 0x40 DUP3 ADD SWAP1 POP SWAP2 SWAP1 POP JUMP JUMPDEST PUSH1 0x0 PUSH1 0x20 DUP3 ADD SWAP1 POP DUP2 DUP2 SUB PUSH1 0x0 DUP4 ADD MSTORE PUSH2 0x2CC9 DUP2 PUSH2 0x2C8D JUMP JUMPDEST SWAP1 POP SWAP2 SWAP1 POP JUMP JUMPDEST PUSH32 0x5468617420706572736F6E20697320616C72656164792061206D656D62657221 PUSH1 0x0 DUP3 ADD MSTORE POP JUMP JUMPDEST PUSH1 0x0 PUSH2 0x2D06 PUSH1 0x20 DUP4 PUSH2 0x1AF3 JUMP JUMPDEST SWAP2 POP PUSH2 0x2D11 DUP3 PUSH2 0x2CD0 JUMP JUMPDEST PUSH1 0x20 DUP3 ADD SWAP1 POP SWAP2 SWAP1 POP JUMP JUMPDEST PUSH1 0x0 PUSH1 0x20 DUP3 ADD SWAP1 POP DUP2 DUP2 SUB PUSH1 0x0 DUP4 ADD MSTORE PUSH2 0x2D35 DUP2 PUSH2 0x2CF9 JUMP JUMPDEST SWAP1 POP SWAP2 SWAP1 POP JUMP JUMPDEST PUSH1 0x0 PUSH2 0x2D47 DUP3 PUSH2 0x19BE JUMP JUMPDEST SWAP2 POP PUSH2 0x2D52 DUP4 PUSH2 0x19BE JUMP JUMPDEST SWAP3 POP DUP3 DUP3 MUL PUSH2 0x2D60 DUP2 PUSH2 0x19BE JUMP JUMPDEST SWAP2 POP DUP3 DUP3 DIV DUP5 EQ DUP4 ISZERO OR PUSH2 0x2D77 JUMPI PUSH2 0x2D76 PUSH2 0x19C8 JUMP JUMPDEST JUMPDEST POP SWAP3 SWAP2 POP POP JUMP JUMPDEST PUSH1 0x0 PUSH2 0x2D89 DUP3 PUSH2 0x19BE JUMP JUMPDEST SWAP2 POP PUSH1 0x0 DUP3 SUB PUSH2 0x2D9C JUMPI PUSH2 0x2D9B PUSH2 0x19C8 JUMP JUMPDEST JUMPDEST PUSH1 0x1 DUP3 SUB SWAP1 POP SWAP2 SWAP1 POP JUMP JUMPDEST PUSH32 0x537472696E67733A20686578206C656E67746820696E73756666696369656E74 PUSH1 0x0 DUP3 ADD MSTORE POP JUMP JUMPDEST PUSH1 0x0 PUSH2 0x2DDD PUSH1 0x20 DUP4 PUSH2 0x1AF3 JUMP JUMPDEST SWAP2 POP PUSH2 0x2DE8 DUP3 PUSH2 0x2DA7 JUMP JUMPDEST PUSH1 0x20 DUP3 ADD SWAP1 POP SWAP2 SWAP1 POP JUMP JUMPDEST PUSH1 0x0 PUSH1 0x20 DUP3 ADD SWAP1 POP DUP2 DUP2 SUB PUSH1 0x0 DUP4 ADD MSTORE PUSH2 0x2E0C DUP2 PUSH2 0x2DD0 JUMP JUMPDEST SWAP1 POP SWAP2 SWAP1 POP JUMP INVALID CHAINID PUSH10 0x727374206F66662C2057 PUSH6 0x6C636F6D6521 KECCAK256 TIMESTAMP PUSH6 0x206120676F6F PUSH5 0x2070657273 PUSH16 0x6E20616E6420492077656C636F6D6520 PUSH26 0x6F7520696E746F206D792044414F21204A6F696E20627920666F PUSH13 0x6C6F77696E6720746865207072 PUSH16 0x7065722070726F636564757265732061 PUSH15 0x6420646F6E277420646F2064756D62 KECCAK256 PUSH20 0x747566662120596F752063616E20757365206F75 PUSH19 0x20726571756573744D656D6265727368697020 PUSH7 0x65617475726520 PUSH16 0x7220796F752063616E20686176652061 PUSH15 0x206578697374696E67206D656D6265 PUSH19 0x2061646420796F752157652061726520612070 PUSH2 0x7472 PUSH10 0x6F746963206F7267616E PUSH10 0x7A6174696F6E20646564 PUSH10 0x636174656420746F2041 PUSH14 0x65726963612E2057652061636365 PUSH17 0x7420616E796F6E652077686F2077616E74 PUSH20 0x20746F2068656C702074686520636F756E747279 0x2E KECCAK256 TIMESTAMP PUSH6 0x20616E206163 PUSH21 0x697665206D656D62657220616E6420766F7465206F PUSH15 0x2070726F706F73616C7320746F2068 PUSH6 0x6C70206F7574 0x21 LOG2 PUSH5 0x6970667358 0x22 SLT KECCAK256 NUMBER PUSH14 0xDDA5DDADC832580FC34992D1AD6B PUSH13 0x34DB9C13547DCB9B26F3DAD20 SDIV 0xD PUSH5 0x736F6C6343 STOP ADDMOD SLT STOP CALLER PUSH1 0x80 PUSH1 0x40 MSTORE CALLVALUE DUP1 ISZERO PUSH3 0x11 JUMPI PUSH1 0x0 DUP1 REVERT JUMPDEST POP PUSH1 0x40 MLOAD DUP1 PUSH1 0x40 ADD PUSH1 0x40 MSTORE DUP1 PUSH1 0xE DUP2 MSTORE PUSH1 0x20 ADD PUSH32 0x4D696B654E46544D616E61676572000000000000000000000000000000000000 DUP2 MSTORE POP PUSH1 0x40 MLOAD DUP1 PUSH1 0x40 ADD PUSH1 0x40 MSTORE DUP1 PUSH1 0x3 DUP2 MSTORE PUSH1 0x20 ADD PUSH32 0x4D4E4D0000000000000000000000000000000000000000000000000000000000 DUP2 MSTORE POP DUP2 PUSH1 0x0 SWAP1 DUP2 PUSH3 0x8F SWAP2 SWAP1 PUSH3 0x324 JUMP JUMPDEST POP DUP1 PUSH1 0x1 SWAP1 DUP2 PUSH3 0xA1 SWAP2 SWAP1 PUSH3 0x324 JUMP JUMPDEST POP POP POP PUSH3 0x40B JUMP JUMPDEST PUSH1 0x0 DUP2 MLOAD SWAP1 POP SWAP2 SWAP1 POP JUMP JUMPDEST PUSH32 0x4E487B7100000000000000000000000000000000000000000000000000000000 PUSH1 0x0 MSTORE PUSH1 0x41 PUSH1 0x4 MSTORE PUSH1 0x24 PUSH1 0x0 REVERT JUMPDEST PUSH32 0x4E487B7100000000000000000000000000000000000000000000000000000000 PUSH1 0x0 MSTORE PUSH1 0x22 PUSH1 0x4 MSTORE PUSH1 0x24 PUSH1 0x0 REVERT JUMPDEST PUSH1 0x0 PUSH1 0x2 DUP3 DIV SWAP1 POP PUSH1 0x1 DUP3 AND DUP1 PUSH3 0x12C JUMPI PUSH1 0x7F DUP3 AND SWAP2 POP JUMPDEST PUSH1 0x20 DUP3 LT DUP2 SUB PUSH3 0x142 JUMPI PUSH3 0x141 PUSH3 0xE4 JUMP JUMPDEST JUMPDEST POP SWAP2 SWAP1 POP JUMP JUMPDEST PUSH1 0x0 DUP2 SWAP1 POP DUP2 PUSH1 0x0 MSTORE PUSH1 0x20 PUSH1 0x0 KECCAK256 SWAP1 POP SWAP2 SWAP1 POP JUMP JUMPDEST PUSH1 0x0 PUSH1 0x20 PUSH1 0x1F DUP4 ADD DIV SWAP1 POP SWAP2 SWAP1 POP JUMP JUMPDEST PUSH1 0x0 DUP3 DUP3 SHL SWAP1 POP SWAP3 SWAP2 POP POP JUMP JUMPDEST PUSH1 0x0 PUSH1 0x8 DUP4 MUL PUSH3 0x1AC PUSH32 0xFFFFFFFFFFFFFFFFFFFFFFFFFFFFFFFFFFFFFFFFFFFFFFFFFFFFFFFFFFFFFFFF DUP3 PUSH3 0x16D JUMP JUMPDEST PUSH3 0x1B8 DUP7 DUP4 PUSH3 0x16D JUMP JUMPDEST SWAP6 POP DUP1 NOT DUP5 AND SWAP4 POP DUP1 DUP7 AND DUP5 OR SWAP3 POP POP POP SWAP4 SWAP3 POP POP POP JUMP JUMPDEST PUSH1 0x0 DUP2 SWAP1 POP SWAP2 SWAP1 POP JUMP JUMPDEST PUSH1 0x0 DUP2 SWAP1 POP SWAP2 SWAP1 POP JUMP JUMPDEST PUSH1 0x0 PUSH3 0x205 PUSH3 0x1FF PUSH3 0x1F9 DUP5 PUSH3 0x1D0 JUMP JUMPDEST PUSH3 0x1DA JUMP JUMPDEST PUSH3 0x1D0 JUMP JUMPDEST SWAP1 POP SWAP2 SWAP1 POP JUMP JUMPDEST PUSH1 0x0 DUP2 SWAP1 POP SWAP2 SWAP1 POP JUMP JUMPDEST PUSH3 0x221 DUP4 PUSH3 0x1E4 JUMP JUMPDEST PUSH3 0x239 PUSH3 0x230 DUP3 PUSH3 0x20C JUMP JUMPDEST DUP5 DUP5 SLOAD PUSH3 0x17A JUMP JUMPDEST DUP3 SSTORE POP POP POP POP JUMP JUMPDEST PUSH1 0x0 SWAP1 JUMP JUMPDEST PUSH3 0x250 PUSH3 0x241 JUMP JUMPDEST PUSH3 0x25D DUP2 DUP5 DUP5 PUSH3 0x216 JUMP JUMPDEST POP POP POP JUMP JUMPDEST JUMPDEST DUP2 DUP2 LT ISZERO PUSH3 0x285 JUMPI PUSH3 0x279 PUSH1 0x0 DUP3 PUSH3 0x246 JUMP JUMPDEST PUSH1 0x1 DUP2 ADD SWAP1 POP PUSH3 0x263 JUMP JUMPDEST POP POP JUMP JUMPDEST PUSH1 0x1F DUP3 GT ISZERO PUSH3 0x2D4 JUMPI PUSH3 0x29E DUP2 PUSH3 0x148 JUMP JUMPDEST PUSH3 0x2A9 DUP5 PUSH3 0x15D JUMP JUMPDEST DUP2 ADD PUSH1 0x20 DUP6 LT ISZERO PUSH3 0x2B9 JUMPI DUP2 SWAP1 POP JUMPDEST PUSH3 0x2D1 PUSH3 0x2C8 DUP6 PUSH3 0x15D JUMP JUMPDEST DUP4 ADD DUP3 PUSH3 0x262 JUMP JUMPDEST POP POP JUMPDEST POP POP POP JUMP JUMPDEST PUSH1 0x0 DUP3 DUP3 SHR SWAP1 POP SWAP3 SWAP2 POP POP JUMP JUMPDEST PUSH1 0x0 PUSH3 0x2F9 PUSH1 0x0 NOT DUP5 PUSH1 0x8 MUL PUSH3 0x2D9 JUMP JUMPDEST NOT DUP1 DUP4 AND SWAP2 POP POP SWAP3 SWAP2 POP POP JUMP JUMPDEST PUSH1 0x0 PUSH3 0x314 DUP4 DUP4 PUSH3 0x2E6 JUMP JUMPDEST SWAP2 POP DUP3 PUSH1 0x2 MUL DUP3 OR SWAP1 POP SWAP3 SWAP2 POP POP JUMP JUMPDEST PUSH3 0x32F DUP3 PUSH3 0xAA JUMP JUMPDEST PUSH8 0xFFFFFFFFFFFFFFFF DUP2 GT ISZERO PUSH3 0x34B JUMPI PUSH3 0x34A PUSH3 0xB5 JUMP JUMPDEST JUMPDEST PUSH3 0x357 DUP3 SLOAD PUSH3 0x113 JUMP JUMPDEST PUSH3 0x364 DUP3 DUP3 DUP6 PUSH3 0x289 JUMP JUMPDEST PUSH1 0x0 PUSH1 0x20 SWAP1 POP PUSH1 0x1F DUP4 GT PUSH1 0x1 DUP2 EQ PUSH3 0x39C JUMPI PUSH1 0x0 DUP5 ISZERO PUSH3 0x387 JUMPI DUP3 DUP8 ADD MLOAD SWAP1 POP JUMPDEST PUSH3 0x393 DUP6 DUP3 PUSH3 0x306 JUMP JUMPDEST DUP7 SSTORE POP PUSH3 0x403 JUMP JUMPDEST PUSH1 0x1F NOT DUP5 AND PUSH3 0x3AC DUP7 PUSH3 0x148 JUMP JUMPDEST PUSH1 0x0 JUMPDEST DUP3 DUP2 LT ISZERO PUSH3 0x3D6 JUMPI DUP5 DUP10 ADD MLOAD DUP3 SSTORE PUSH1 0x1 DUP3 ADD SWAP2 POP PUSH1 0x20 DUP6 ADD SWAP5 POP PUSH1 0x20 DUP2 ADD SWAP1 POP PUSH3 0x3AF JUMP JUMPDEST DUP7 DUP4 LT ISZERO PUSH3 0x3F6 JUMPI DUP5 DUP10 ADD MLOAD PUSH3 0x3F2 PUSH1 0x1F DUP10 AND DUP3 PUSH3 0x2E6 JUMP JUMPDEST DUP4 SSTORE POP JUMPDEST PUSH1 0x1 PUSH1 0x2 DUP9 MUL ADD DUP9 SSTORE POP POP POP JUMPDEST POP POP POP POP POP POP JUMP JUMPDEST PUSH2 0x2CA7 DUP1 PUSH3 0x41B PUSH1 0x0 CODECOPY PUSH1 0x0 RETURN INVALID PUSH1 0x80 PUSH1 0x40 MSTORE CALLVALUE DUP1 ISZERO PUSH2 0x10 JUMPI PUSH1 0x0 DUP1 REVERT JUMPDEST POP PUSH1 0x4 CALLDATASIZE LT PUSH2 0x10B JUMPI PUSH1 0x0 CALLDATALOAD PUSH1 0xE0 SHR DUP1 PUSH4 0x6352211E GT PUSH2 0xA2 JUMPI DUP1 PUSH4 0x95D89B41 GT PUSH2 0x71 JUMPI DUP1 PUSH4 0x95D89B41 EQ PUSH2 0x2F0 JUMPI DUP1 PUSH4 0xA22CB465 EQ PUSH2 0x30E JUMPI DUP1 PUSH4 0xB88D4FDE EQ PUSH2 0x32A JUMPI DUP1 PUSH4 0xC87B56DD EQ PUSH2 0x346 JUMPI DUP1 PUSH4 0xE985E9C5 EQ PUSH2 0x376 JUMPI PUSH2 0x10B JUMP JUMPDEST DUP1 PUSH4 0x6352211E EQ PUSH2 0x230 JUMPI DUP1 PUSH4 0x70A08231 EQ PUSH2 0x260 JUMPI DUP1 PUSH4 0x8BCBC79E EQ PUSH2 0x290 JUMPI DUP1 PUSH4 0x947B59AE EQ PUSH2 0x2C0 JUMPI PUSH2 0x10B JUMP JUMPDEST DUP1 PUSH4 0x95EA7B3 GT PUSH2 0xDE JUMPI DUP1 PUSH4 0x95EA7B3 EQ PUSH2 0x1AC JUMPI DUP1 PUSH4 0xE980602 EQ PUSH2 0x1C8 JUMPI DUP1 PUSH4 0x23B872DD EQ PUSH2 0x1F8 JUMPI DUP1 PUSH4 0x42842E0E EQ PUSH2 0x214 JUMPI PUSH2 0x10B JUMP JUMPDEST DUP1 PUSH4 0x1FFC9A7 EQ PUSH2 0x110 JUMPI DUP1 PUSH4 0x6661ABD EQ PUSH2 0x140 JUMPI DUP1 PUSH4 0x6FDDE03 EQ PUSH2 0x15E JUMPI DUP1 PUSH4 0x81812FC EQ PUSH2 0x17C JUMPI JUMPDEST PUSH1 0x0 DUP1 REVERT JUMPDEST PUSH2 0x12A PUSH1 0x4 DUP1 CALLDATASIZE SUB DUP2 ADD SWAP1 PUSH2 0x125 SWAP2 SWAP1 PUSH2 0x18F9 JUMP JUMPDEST PUSH2 0x3A6 JUMP JUMPDEST PUSH1 0x40 MLOAD PUSH2 0x137 SWAP2 SWAP1 PUSH2 0x1941 JUMP JUMPDEST PUSH1 0x40 MLOAD DUP1 SWAP2 SUB SWAP1 RETURN JUMPDEST PUSH2 0x148 PUSH2 0x548 JUMP JUMPDEST PUSH1 0x40 MLOAD PUSH2 0x155 SWAP2 SWAP1 PUSH2 0x1975 JUMP JUMPDEST PUSH1 0x40 MLOAD DUP1 SWAP2 SUB SWAP1 RETURN JUMPDEST PUSH2 0x166 PUSH2 0x54E JUMP JUMPDEST PUSH1 0x40 MLOAD PUSH2 0x173 SWAP2 SWAP1 PUSH2 0x1A20 JUMP JUMPDEST PUSH1 0x40 MLOAD DUP1 SWAP2 SUB SWAP1 RETURN JUMPDEST PUSH2 0x196 PUSH1 0x4 DUP1 CALLDATASIZE SUB DUP2 ADD SWAP1 PUSH2 0x191 SWAP2 SWAP1 PUSH2 0x1A6E JUMP JUMPDEST PUSH2 0x5E0 JUMP JUMPDEST PUSH1 0x40 MLOAD PUSH2 0x1A3 SWAP2 SWAP1 PUSH2 0x1ADC JUMP JUMPDEST PUSH1 0x40 MLOAD DUP1 SWAP2 SUB SWAP1 RETURN JUMPDEST PUSH2 0x1C6 PUSH1 0x4 DUP1 CALLDATASIZE SUB DUP2 ADD SWAP1 PUSH2 0x1C1 SWAP2 SWAP1 PUSH2 0x1B23 JUMP JUMPDEST PUSH2 0x626 JUMP JUMPDEST STOP JUMPDEST PUSH2 0x1E2 PUSH1 0x4 DUP1 CALLDATASIZE SUB DUP2 ADD SWAP1 PUSH2 0x1DD SWAP2 SWAP1 PUSH2 0x1C98 JUMP JUMPDEST PUSH2 0x73D JUMP JUMPDEST PUSH1 0x40 MLOAD PUSH2 0x1EF SWAP2 SWAP1 PUSH2 0x1975 JUMP JUMPDEST PUSH1 0x40 MLOAD DUP1 SWAP2 SUB SWAP1 RETURN JUMPDEST PUSH2 0x212 PUSH1 0x4 DUP1 CALLDATASIZE SUB DUP2 ADD SWAP1 PUSH2 0x20D SWAP2 SWAP1 PUSH2 0x1CF4 JUMP JUMPDEST PUSH2 0x8FC JUMP JUMPDEST STOP JUMPDEST PUSH2 0x22E PUSH1 0x4 DUP1 CALLDATASIZE SUB DUP2 ADD SWAP1 PUSH2 0x229 SWAP2 SWAP1 PUSH2 0x1CF4 JUMP JUMPDEST PUSH2 0x95C JUMP JUMPDEST STOP JUMPDEST PUSH2 0x24A PUSH1 0x4 DUP1 CALLDATASIZE SUB DUP2 ADD SWAP1 PUSH2 0x245 SWAP2 SWAP1 PUSH2 0x1A6E JUMP JUMPDEST PUSH2 0x97C JUMP JUMPDEST PUSH1 0x40 MLOAD PUSH2 0x257 SWAP2 SWAP1 PUSH2 0x1ADC JUMP JUMPDEST PUSH1 0x40 MLOAD DUP1 SWAP2 SUB SWAP1 RETURN JUMPDEST PUSH2 0x27A PUSH1 0x4 DUP1 CALLDATASIZE SUB DUP2 ADD SWAP1 PUSH2 0x275 SWAP2 SWAP1 PUSH2 0x1D47 JUMP JUMPDEST PUSH2 0xA02 JUMP JUMPDEST PUSH1 0x40 MLOAD PUSH2 0x287 SWAP2 SWAP1 PUSH2 0x1975 JUMP JUMPDEST PUSH1 0x40 MLOAD DUP1 SWAP2 SUB SWAP1 RETURN JUMPDEST PUSH2 0x2AA PUSH1 0x4 DUP1 CALLDATASIZE SUB DUP2 ADD SWAP1 PUSH2 0x2A5 SWAP2 SWAP1 PUSH2 0x1A6E JUMP JUMPDEST PUSH2 0xAB9 JUMP JUMPDEST PUSH1 0x40 MLOAD PUSH2 0x2B7 SWAP2 SWAP1 PUSH2 0x1A20 JUMP JUMPDEST PUSH1 0x40 MLOAD DUP1 SWAP2 SUB SWAP1 RETURN JUMPDEST PUSH2 0x2DA PUSH1 0x4 DUP1 CALLDATASIZE SUB DUP2 ADD SWAP1 PUSH2 0x2D5 SWAP2 SWAP1 PUSH2 0x1D74 JUMP JUMPDEST PUSH2 0xB59 JUMP JUMPDEST PUSH1 0x40 MLOAD PUSH2 0x2E7 SWAP2 SWAP1 PUSH2 0x1975 JUMP JUMPDEST PUSH1 0x40 MLOAD DUP1 SWAP2 SUB SWAP1 RETURN JUMPDEST PUSH2 0x2F8 PUSH2 0xB6C JUMP JUMPDEST PUSH1 0x40 MLOAD PUSH2 0x305 SWAP2 SWAP1 PUSH2 0x1A20 JUMP JUMPDEST PUSH1 0x40 MLOAD DUP1 SWAP2 SUB SWAP1 RETURN JUMPDEST PUSH2 0x328 PUSH1 0x4 DUP1 CALLDATASIZE SUB DUP2 ADD SWAP1 PUSH2 0x323 SWAP2 SWAP1 PUSH2 0x1DE9 JUMP JUMPDEST PUSH2 0xBFE JUMP JUMPDEST STOP JUMPDEST PUSH2 0x344 PUSH1 0x4 DUP1 CALLDATASIZE SUB DUP2 ADD SWAP1 PUSH2 0x33F SWAP2 SWAP1 PUSH2 0x1ECA JUMP JUMPDEST PUSH2 0xC14 JUMP JUMPDEST STOP JUMPDEST PUSH2 0x360 PUSH1 0x4 DUP1 CALLDATASIZE SUB DUP2 ADD SWAP1 PUSH2 0x35B SWAP2 SWAP1 PUSH2 0x1A6E JUMP JUMPDEST PUSH2 0xC76 JUMP JUMPDEST PUSH1 0x40 MLOAD PUSH2 0x36D SWAP2 SWAP1 PUSH2 0x1A20 JUMP JUMPDEST PUSH1 0x40 MLOAD DUP1 SWAP2 SUB SWAP1 RETURN JUMPDEST PUSH2 0x390 PUSH1 0x4 DUP1 CALLDATASIZE SUB DUP2 ADD SWAP1 PUSH2 0x38B SWAP2 SWAP1 PUSH2 0x1F4D JUMP JUMPDEST PUSH2 0xD0B JUMP JUMPDEST PUSH1 0x40 MLOAD PUSH2 0x39D SWAP2 SWAP1 PUSH2 0x1941 JUMP JUMPDEST PUSH1 0x40 MLOAD DUP1 SWAP2 SUB SWAP1 RETURN JUMPDEST PUSH1 0x0 PUSH32 0x1FFC9A700000000000000000000000000000000000000000000000000000000 PUSH28 0xFFFFFFFFFFFFFFFFFFFFFFFFFFFFFFFFFFFFFFFFFFFFFFFFFFFFFFFF NOT AND DUP3 PUSH28 0xFFFFFFFFFFFFFFFFFFFFFFFFFFFFFFFFFFFFFFFFFFFFFFFFFFFFFFFF NOT AND EQ DUP1 PUSH2 0x471 JUMPI POP PUSH32 0x9C85451100000000000000000000000000000000000000000000000000000000 PUSH28 0xFFFFFFFFFFFFFFFFFFFFFFFFFFFFFFFFFFFFFFFFFFFFFFFFFFFFFFFF NOT AND DUP3 PUSH28 0xFFFFFFFFFFFFFFFFFFFFFFFFFFFFFFFFFFFFFFFFFFFFFFFFFFFFFFFF NOT AND EQ JUMPDEST DUP1 PUSH2 0x4D9 JUMPI POP PUSH32 0x80AC58CD00000000000000000000000000000000000000000000000000000000 PUSH28 0xFFFFFFFFFFFFFFFFFFFFFFFFFFFFFFFFFFFFFFFFFFFFFFFFFFFFFFFF NOT AND DUP3 PUSH28 0xFFFFFFFFFFFFFFFFFFFFFFFFFFFFFFFFFFFFFFFFFFFFFFFFFFFFFFFF NOT AND EQ JUMPDEST DUP1 PUSH2 0x541 JUMPI POP PUSH32 0x5B5E139F00000000000000000000000000000000000000000000000000000000 PUSH28 0xFFFFFFFFFFFFFFFFFFFFFFFFFFFFFFFFFFFFFFFFFFFFFFFFFFFFFFFF NOT AND DUP3 PUSH28 0xFFFFFFFFFFFFFFFFFFFFFFFFFFFFFFFFFFFFFFFFFFFFFFFFFFFFFFFF NOT AND EQ JUMPDEST SWAP1 POP SWAP2 SWAP1 POP JUMP JUMPDEST PUSH1 0x7 SLOAD DUP2 JUMP JUMPDEST PUSH1 0x60 PUSH1 0x0 DUP1 SLOAD PUSH2 0x55D SWAP1 PUSH2 0x1FBC JUMP JUMPDEST DUP1 PUSH1 0x1F ADD PUSH1 0x20 DUP1 SWAP2 DIV MUL PUSH1 0x20 ADD PUSH1 0x40 MLOAD SWAP1 DUP2 ADD PUSH1 0x40 MSTORE DUP1 SWAP3 SWAP2 SWAP1 DUP2 DUP2 MSTORE PUSH1 0x20 ADD DUP3 DUP1 SLOAD PUSH2 0x589 SWAP1 PUSH2 0x1FBC JUMP JUMPDEST DUP1 ISZERO PUSH2 0x5D6 JUMPI DUP1 PUSH1 0x1F LT PUSH2 0x5AB JUMPI PUSH2 0x100 DUP1 DUP4 SLOAD DIV MUL DUP4 MSTORE SWAP2 PUSH1 0x20 ADD SWAP2 PUSH2 0x5D6 JUMP JUMPDEST DUP3 ADD SWAP2 SWAP1 PUSH1 0x0 MSTORE PUSH1 0x20 PUSH1 0x0 KECCAK256 SWAP1 JUMPDEST DUP2 SLOAD DUP2 MSTORE SWAP1 PUSH1 0x1 ADD SWAP1 PUSH1 0x20 ADD DUP1 DUP4 GT PUSH2 0x5B9 JUMPI DUP3 SWAP1 SUB PUSH1 0x1F AND DUP3 ADD SWAP2 JUMPDEST POP POP POP POP POP SWAP1 POP SWAP1 JUMP JUMPDEST PUSH1 0x0 PUSH2 0x5EB DUP3 PUSH2 0xD9F JUMP JUMPDEST PUSH1 0x4 PUSH1 0x0 DUP4 DUP2 MSTORE PUSH1 0x20 ADD SWAP1 DUP2 MSTORE PUSH1 0x20 ADD PUSH1 0x0 KECCAK256 PUSH1 0x0 SWAP1 SLOAD SWAP1 PUSH2 0x100 EXP SWAP1 DIV PUSH20 0xFFFFFFFFFFFFFFFFFFFFFFFFFFFFFFFFFFFFFFFF AND SWAP1 POP SWAP2 SWAP1 POP JUMP JUMPDEST PUSH1 0x0 PUSH2 0x631 DUP3 PUSH2 0x97C JUMP JUMPDEST SWAP1 POP DUP1 PUSH20 0xFFFFFFFFFFFFFFFFFFFFFFFFFFFFFFFFFFFFFFFF AND DUP4 PUSH20 0xFFFFFFFFFFFFFFFFFFFFFFFFFFFFFFFFFFFFFFFF AND SUB PUSH2 0x6A1 JUMPI PUSH1 0x40 MLOAD PUSH32 0x8C379A000000000000000000000000000000000000000000000000000000000 DUP2 MSTORE PUSH1 0x4 ADD PUSH2 0x698 SWAP1 PUSH2 0x205F JUMP JUMPDEST PUSH1 0x40 MLOAD DUP1 SWAP2 SUB SWAP1 REVERT JUMPDEST DUP1 PUSH20 0xFFFFFFFFFFFFFFFFFFFFFFFFFFFFFFFFFFFFFFFF AND PUSH2 0x6C0 PUSH2 0xDEA JUMP JUMPDEST PUSH20 0xFFFFFFFFFFFFFFFFFFFFFFFFFFFFFFFFFFFFFFFF AND EQ DUP1 PUSH2 0x6EF JUMPI POP PUSH2 0x6EE DUP2 PUSH2 0x6E9 PUSH2 0xDEA JUMP JUMPDEST PUSH2 0xD0B JUMP JUMPDEST JUMPDEST PUSH2 0x72E JUMPI PUSH1 0x40 MLOAD PUSH32 0x8C379A000000000000000000000000000000000000000000000000000000000 DUP2 MSTORE PUSH1 0x4 ADD PUSH2 0x725 SWAP1 PUSH2 0x20F1 JUMP JUMPDEST PUSH1 0x40 MLOAD DUP1 SWAP2 SUB SWAP1 REVERT JUMPDEST PUSH2 0x738 DUP4 DUP4 PUSH2 0xDF2 JUMP JUMPDEST POP POP POP JUMP JUMPDEST PUSH1 0x0 PUSH2 0x758 DUP3 PUSH1 0x40 MLOAD DUP1 PUSH1 0x20 ADD PUSH1 0x40 MSTORE DUP1 PUSH1 0x0 DUP2 MSTORE POP PUSH2 0xEAB JUMP JUMPDEST ISZERO PUSH2 0x798 JUMPI PUSH1 0x40 MLOAD PUSH32 0x8C379A000000000000000000000000000000000000000000000000000000000 DUP2 MSTORE PUSH1 0x4 ADD PUSH2 0x78F SWAP1 PUSH2 0x2183 JUMP JUMPDEST PUSH1 0x40 MLOAD DUP1 SWAP2 SUB SWAP1 REVERT JUMPDEST PUSH1 0x0 JUMPDEST PUSH1 0x7 SLOAD DUP2 LT ISZERO PUSH2 0x89D JUMPI PUSH2 0x84A PUSH1 0x6 PUSH1 0x0 DUP4 DUP2 MSTORE PUSH1 0x20 ADD SWAP1 DUP2 MSTORE PUSH1 0x20 ADD PUSH1 0x0 KECCAK256 DUP1 SLOAD PUSH2 0x7C6 SWAP1 PUSH2 0x1FBC JUMP JUMPDEST DUP1 PUSH1 0x1F ADD PUSH1 0x20 DUP1 SWAP2 DIV MUL PUSH1 0x20 ADD PUSH1 0x40 MLOAD SWAP1 DUP2 ADD PUSH1 0x40 MSTORE DUP1 SWAP3 SWAP2 SWAP1 DUP2 DUP2 MSTORE PUSH1 0x20 ADD DUP3 DUP1 SLOAD PUSH2 0x7F2 SWAP1 PUSH2 0x1FBC JUMP JUMPDEST DUP1 ISZERO PUSH2 0x83F JUMPI DUP1 PUSH1 0x1F LT PUSH2 0x814 JUMPI PUSH2 0x100 DUP1 DUP4 SLOAD DIV MUL DUP4 MSTORE SWAP2 PUSH1 0x20 ADD SWAP2 PUSH2 0x83F JUMP JUMPDEST DUP3 ADD SWAP2 SWAP1 PUSH1 0x0 MSTORE PUSH1 0x20 PUSH1 0x0 KECCAK256 SWAP1 JUMPDEST DUP2 SLOAD DUP2 MSTORE SWAP1 PUSH1 0x1 ADD SWAP1 PUSH1 0x20 ADD DUP1 DUP4 GT PUSH2 0x822 JUMPI DUP3 SWAP1 SUB PUSH1 0x1F AND DUP3 ADD SWAP2 JUMPDEST POP POP POP POP POP DUP5 PUSH2 0xEAB JUMP JUMPDEST ISZERO PUSH2 0x88A JUMPI PUSH1 0x40 MLOAD PUSH32 0x8C379A000000000000000000000000000000000000000000000000000000000 DUP2 MSTORE PUSH1 0x4 ADD PUSH2 0x881 SWAP1 PUSH2 0x223B JUMP JUMPDEST PUSH1 0x40 MLOAD DUP1 SWAP2 SUB SWAP1 REVERT JUMPDEST DUP1 DUP1 PUSH2 0x895 SWAP1 PUSH2 0x228A JUMP JUMPDEST SWAP2 POP POP PUSH2 0x79B JUMP JUMPDEST POP PUSH2 0x8AA DUP4 PUSH1 0x7 SLOAD PUSH2 0xEC6 JUMP JUMPDEST DUP2 PUSH1 0x6 PUSH1 0x0 PUSH1 0x7 SLOAD DUP2 MSTORE PUSH1 0x20 ADD SWAP1 DUP2 MSTORE PUSH1 0x20 ADD PUSH1 0x0 KECCAK256 SWAP1 DUP2 PUSH2 0x8CC SWAP2 SWAP1 PUSH2 0x247E JUMP JUMPDEST POP PUSH1 0x7 PUSH1 0x0 DUP2 SLOAD DUP1 SWAP3 SWAP2 SWAP1 PUSH2 0x8E0 SWAP1 PUSH2 0x228A JUMP JUMPDEST SWAP2 SWAP1 POP SSTORE POP PUSH1 0x1 PUSH1 0x7 SLOAD PUSH2 0x8F4 SWAP2 SWAP1 PUSH2 0x2550 JUMP JUMPDEST SWAP1 POP SWAP3 SWAP2 POP POP JUMP JUMPDEST PUSH2 0x90D PUSH2 0x907 PUSH2 0xDEA JUMP JUMPDEST DUP3 PUSH2 0x10E3 JUMP JUMPDEST PUSH2 0x94C JUMPI PUSH1 0x40 MLOAD PUSH32 0x8C379A000000000000000000000000000000000000000000000000000000000 DUP2 MSTORE PUSH1 0x4 ADD PUSH2 0x943 SWAP1 PUSH2 0x25F6 JUMP JUMPDEST PUSH1 0x40 MLOAD DUP1 SWAP2 SUB SWAP1 REVERT JUMPDEST PUSH2 0x957 DUP4 DUP4 DUP4 PUSH2 0x1178 JUMP JUMPDEST POP POP POP JUMP JUMPDEST PUSH2 0x977 DUP4 DUP4 DUP4 PUSH1 0x40 MLOAD DUP1 PUSH1 0x20 ADD PUSH1 0x40 MSTORE DUP1 PUSH1 0x0 DUP2 MSTORE POP PUSH2 0xC14 JUMP JUMPDEST POP POP POP JUMP JUMPDEST PUSH1 0x0 DUP1 PUSH2 0x988 DUP4 PUSH2 0x1471 JUMP JUMPDEST SWAP1 POP PUSH1 0x0 PUSH20 0xFFFFFFFFFFFFFFFFFFFFFFFFFFFFFFFFFFFFFFFF AND DUP2 PUSH20 0xFFFFFFFFFFFFFFFFFFFFFFFFFFFFFFFFFFFFFFFF AND SUB PUSH2 0x9F9 JUMPI PUSH1 0x40 MLOAD PUSH32 0x8C379A000000000000000000000000000000000000000000000000000000000 DUP2 MSTORE PUSH1 0x4 ADD PUSH2 0x9F0 SWAP1 PUSH2 0x2662 JUMP JUMPDEST PUSH1 0x40 MLOAD DUP1 SWAP2 SUB SWAP1 REVERT JUMPDEST DUP1 SWAP2 POP POP SWAP2 SWAP1 POP JUMP JUMPDEST PUSH1 0x0 DUP1 PUSH20 0xFFFFFFFFFFFFFFFFFFFFFFFFFFFFFFFFFFFFFFFF AND DUP3 PUSH20 0xFFFFFFFFFFFFFFFFFFFFFFFFFFFFFFFFFFFFFFFF AND SUB PUSH2 0xA72 JUMPI PUSH1 0x40 MLOAD PUSH32 0x8C379A000000000000000000000000000000000000000000000000000000000 DUP2 MSTORE PUSH1 0x4 ADD PUSH2 0xA69 SWAP1 PUSH2 0x26F4 JUMP JUMPDEST PUSH1 0x40 MLOAD DUP1 SWAP2 SUB SWAP1 REVERT JUMPDEST PUSH1 0x3 PUSH1 0x0 DUP4 PUSH20 0xFFFFFFFFFFFFFFFFFFFFFFFFFFFFFFFFFFFFFFFF AND PUSH20 0xFFFFFFFFFFFFFFFFFFFFFFFFFFFFFFFFFFFFFFFF AND DUP2 MSTORE PUSH1 0x20 ADD SWAP1 DUP2 MSTORE PUSH1 0x20 ADD PUSH1 0x0 KECCAK256 SLOAD SWAP1 POP SWAP2 SWAP1 POP JUMP JUMPDEST PUSH1 0x6 PUSH1 0x20 MSTORE DUP1 PUSH1 0x0 MSTORE PUSH1 0x40 PUSH1 0x0 KECCAK256 PUSH1 0x0 SWAP2 POP SWAP1 POP DUP1 SLOAD PUSH2 0xAD8 SWAP1 PUSH2 0x1FBC JUMP JUMPDEST DUP1 PUSH1 0x1F ADD PUSH1 0x20 DUP1 SWAP2 DIV MUL PUSH1 0x20 ADD PUSH1 0x40 MLOAD SWAP1 DUP2 ADD PUSH1 0x40 MSTORE DUP1 SWAP3 SWAP2 SWAP1 DUP2 DUP2 MSTORE PUSH1 0x20 ADD DUP3 DUP1 SLOAD PUSH2 0xB04 SWAP1 PUSH2 0x1FBC JUMP JUMPDEST DUP1 ISZERO PUSH2 0xB51 JUMPI DUP1 PUSH1 0x1F LT PUSH2 0xB26 JUMPI PUSH2 0x100 DUP1 DUP4 SLOAD DIV MUL DUP4 MSTORE SWAP2 PUSH1 0x20 ADD SWAP2 PUSH2 0xB51 JUMP JUMPDEST DUP3 ADD SWAP2 SWAP1 PUSH1 0x0 MSTORE PUSH1 0x20 PUSH1 0x0 KECCAK256 SWAP1 JUMPDEST DUP2 SLOAD DUP2 MSTORE SWAP1 PUSH1 0x1 ADD SWAP1 PUSH1 0x20 ADD DUP1 DUP4 GT PUSH2 0xB34 JUMPI DUP3 SWAP1 SUB PUSH1 0x1F AND DUP3 ADD SWAP2 JUMPDEST POP POP POP POP POP DUP2 JUMP JUMPDEST PUSH1 0x0 PUSH2 0xB65 CALLER DUP4 PUSH2 0x73D JUMP JUMPDEST SWAP1 POP SWAP2 SWAP1 POP JUMP JUMPDEST PUSH1 0x60 PUSH1 0x1 DUP1 SLOAD PUSH2 0xB7B SWAP1 PUSH2 0x1FBC JUMP JUMPDEST DUP1 PUSH1 0x1F ADD PUSH1 0x20 DUP1 SWAP2 DIV MUL PUSH1 0x20 ADD PUSH1 0x40 MLOAD SWAP1 DUP2 ADD PUSH1 0x40 MSTORE DUP1 SWAP3 SWAP2 SWAP1 DUP2 DUP2 MSTORE PUSH1 0x20 ADD DUP3 DUP1 SLOAD PUSH2 0xBA7 SWAP1 PUSH2 0x1FBC JUMP JUMPDEST DUP1 ISZERO PUSH2 0xBF4 JUMPI DUP1 PUSH1 0x1F LT PUSH2 0xBC9 JUMPI PUSH2 0x100 DUP1 DUP4 SLOAD DIV MUL DUP4 MSTORE SWAP2 PUSH1 0x20 ADD SWAP2 PUSH2 0xBF4 JUMP JUMPDEST DUP3 ADD SWAP2 SWAP1 PUSH1 0x0 MSTORE PUSH1 0x20 PUSH1 0x0 KECCAK256 SWAP1 JUMPDEST DUP2 SLOAD DUP2 MSTORE SWAP1 PUSH1 0x1 ADD SWAP1 PUSH1 0x20 ADD DUP1 DUP4 GT PUSH2 0xBD7 JUMPI DUP3 SWAP1 SUB PUSH1 0x1F AND DUP3 ADD SWAP2 JUMPDEST POP POP POP POP POP SWAP1 POP SWAP1 JUMP JUMPDEST PUSH2 0xC10 PUSH2 0xC09 PUSH2 0xDEA JUMP JUMPDEST DUP4 DUP4 PUSH2 0x14AE JUMP JUMPDEST POP POP JUMP JUMPDEST PUSH2 0xC25 PUSH2 0xC1F PUSH2 0xDEA JUMP JUMPDEST DUP4 PUSH2 0x10E3 JUMP JUMPDEST PUSH2 0xC64 JUMPI PUSH1 0x40 MLOAD PUSH32 0x8C379A000000000000000000000000000000000000000000000000000000000 DUP2 MSTORE PUSH1 0x4 ADD PUSH2 0xC5B SWAP1 PUSH2 0x25F6 JUMP JUMPDEST PUSH1 0x40 MLOAD DUP1 SWAP2 SUB SWAP1 REVERT JUMPDEST PUSH2 0xC70 DUP5 DUP5 DUP5 DUP5 PUSH2 0x161A JUMP JUMPDEST POP POP POP POP JUMP JUMPDEST PUSH1 0x60 PUSH1 0x0 DUP3 LT ISZERO DUP1 ISZERO PUSH2 0xC8A JUMPI POP PUSH1 0x7 SLOAD DUP3 LT JUMPDEST PUSH2 0xCC9 JUMPI PUSH1 0x40 MLOAD PUSH32 0x8C379A000000000000000000000000000000000000000000000000000000000 DUP2 MSTORE PUSH1 0x4 ADD PUSH2 0xCC0 SWAP1 PUSH2 0x2760 JUMP JUMPDEST PUSH1 0x40 MLOAD DUP1 SWAP2 SUB SWAP1 REVERT JUMPDEST PUSH2 0xCD1 PUSH2 0x1676 JUMP JUMPDEST PUSH1 0x6 PUSH1 0x0 DUP5 DUP2 MSTORE PUSH1 0x20 ADD SWAP1 DUP2 MSTORE PUSH1 0x20 ADD PUSH1 0x0 KECCAK256 PUSH1 0x40 MLOAD PUSH1 0x20 ADD PUSH2 0xCF5 SWAP3 SWAP2 SWAP1 PUSH2 0x283F JUMP JUMPDEST PUSH1 0x40 MLOAD PUSH1 0x20 DUP2 DUP4 SUB SUB DUP2 MSTORE SWAP1 PUSH1 0x40 MSTORE SWAP1 POP SWAP2 SWAP1 POP JUMP JUMPDEST PUSH1 0x0 PUSH1 0x5 PUSH1 0x0 DUP5 PUSH20 0xFFFFFFFFFFFFFFFFFFFFFFFFFFFFFFFFFFFFFFFF AND PUSH20 0xFFFFFFFFFFFFFFFFFFFFFFFFFFFFFFFFFFFFFFFF AND DUP2 MSTORE PUSH1 0x20 ADD SWAP1 DUP2 MSTORE PUSH1 0x20 ADD PUSH1 0x0 KECCAK256 PUSH1 0x0 DUP4 PUSH20 0xFFFFFFFFFFFFFFFFFFFFFFFFFFFFFFFFFFFFFFFF AND PUSH20 0xFFFFFFFFFFFFFFFFFFFFFFFFFFFFFFFFFFFFFFFF AND DUP2 MSTORE PUSH1 0x20 ADD SWAP1 DUP2 MSTORE PUSH1 0x20 ADD PUSH1 0x0 KECCAK256 PUSH1 0x0 SWAP1 SLOAD SWAP1 PUSH2 0x100 EXP SWAP1 DIV PUSH1 0xFF AND SWAP1 POP SWAP3 SWAP2 POP POP JUMP JUMPDEST PUSH2 0xDA8 DUP2 PUSH2 0x1696 JUMP JUMPDEST PUSH2 0xDE7 JUMPI PUSH1 0x40 MLOAD PUSH32 0x8C379A000000000000000000000000000000000000000000000000000000000 DUP2 MSTORE PUSH1 0x4 ADD PUSH2 0xDDE SWAP1 PUSH2 0x2662 JUMP JUMPDEST PUSH1 0x40 MLOAD DUP1 SWAP2 SUB SWAP1 REVERT JUMPDEST POP JUMP JUMPDEST PUSH1 0x0 CALLER SWAP1 POP SWAP1 JUMP JUMPDEST DUP2 PUSH1 0x4 PUSH1 0x0 DUP4 DUP2 MSTORE PUSH1 0x20 ADD SWAP1 DUP2 MSTORE PUSH1 0x20 ADD PUSH1 0x0 KECCAK256 PUSH1 0x0 PUSH2 0x100 EXP DUP2 SLOAD DUP2 PUSH20 0xFFFFFFFFFFFFFFFFFFFFFFFFFFFFFFFFFFFFFFFF MUL NOT AND SWAP1 DUP4 PUSH20 0xFFFFFFFFFFFFFFFFFFFFFFFFFFFFFFFFFFFFFFFF AND MUL OR SWAP1 SSTORE POP DUP1 DUP3 PUSH20 0xFFFFFFFFFFFFFFFFFFFFFFFFFFFFFFFFFFFFFFFF AND PUSH2 0xE65 DUP4 PUSH2 0x97C JUMP JUMPDEST PUSH20 0xFFFFFFFFFFFFFFFFFFFFFFFFFFFFFFFFFFFFFFFF AND PUSH32 0x8C5BE1E5EBEC7D5BD14F71427D1E84F3DD0314C0F7B2291E5B200AC8C7C3B925 PUSH1 0x40 MLOAD PUSH1 0x40 MLOAD DUP1 SWAP2 SUB SWAP1 LOG4 POP POP JUMP JUMPDEST PUSH1 0x0 DUP2 DUP1 MLOAD SWAP1 PUSH1 0x20 ADD KECCAK256 DUP4 DUP1 MLOAD SWAP1 PUSH1 0x20 ADD KECCAK256 EQ SWAP1 POP SWAP3 SWAP2 POP POP JUMP JUMPDEST PUSH1 0x0 PUSH20 0xFFFFFFFFFFFFFFFFFFFFFFFFFFFFFFFFFFFFFFFF AND DUP3 PUSH20 0xFFFFFFFFFFFFFFFFFFFFFFFFFFFFFFFFFFFFFFFF AND SUB PUSH2 0xF35 JUMPI PUSH1 0x40 MLOAD PUSH32 0x8C379A000000000000000000000000000000000000000000000000000000000 DUP2 MSTORE PUSH1 0x4 ADD PUSH2 0xF2C SWAP1 PUSH2 0x28AF JUMP JUMPDEST PUSH1 0x40 MLOAD DUP1 SWAP2 SUB SWAP1 REVERT JUMPDEST PUSH2 0xF3E DUP2 PUSH2 0x1696 JUMP JUMPDEST ISZERO PUSH2 0xF7E JUMPI PUSH1 0x40 MLOAD PUSH32 0x8C379A000000000000000000000000000000000000000000000000000000000 DUP2 MSTORE PUSH1 0x4 ADD PUSH2 0xF75 SWAP1 PUSH2 0x291B JUMP JUMPDEST PUSH1 0x40 MLOAD DUP1 SWAP2 SUB SWAP1 REVERT JUMPDEST PUSH2 0xF8C PUSH1 0x0 DUP4 DUP4 PUSH1 0x1 PUSH2 0x16D7 JUMP JUMPDEST PUSH2 0xF95 DUP2 PUSH2 0x1696 JUMP JUMPDEST ISZERO PUSH2 0xFD5 JUMPI PUSH1 0x40 MLOAD PUSH32 0x8C379A000000000000000000000000000000000000000000000000000000000 DUP2 MSTORE PUSH1 0x4 ADD PUSH2 0xFCC SWAP1 PUSH2 0x291B JUMP JUMPDEST PUSH1 0x40 MLOAD DUP1 SWAP2 SUB SWAP1 REVERT JUMPDEST PUSH1 0x1 PUSH1 0x3 PUSH1 0x0 DUP5 PUSH20 0xFFFFFFFFFFFFFFFFFFFFFFFFFFFFFFFFFFFFFFFF AND PUSH20 0xFFFFFFFFFFFFFFFFFFFFFFFFFFFFFFFFFFFFFFFF AND DUP2 MSTORE PUSH1 0x20 ADD SWAP1 DUP2 MSTORE PUSH1 0x20 ADD PUSH1 0x0 KECCAK256 PUSH1 0x0 DUP3 DUP3 SLOAD ADD SWAP3 POP POP DUP2 SWAP1 SSTORE POP DUP2 PUSH1 0x2 PUSH1 0x0 DUP4 DUP2 MSTORE PUSH1 0x20 ADD SWAP1 DUP2 MSTORE PUSH1 0x20 ADD PUSH1 0x0 KECCAK256 PUSH1 0x0 PUSH2 0x100 EXP DUP2 SLOAD DUP2 PUSH20 0xFFFFFFFFFFFFFFFFFFFFFFFFFFFFFFFFFFFFFFFF MUL NOT AND SWAP1 DUP4 PUSH20 0xFFFFFFFFFFFFFFFFFFFFFFFFFFFFFFFFFFFFFFFF AND MUL OR SWAP1 SSTORE POP DUP1 DUP3 PUSH20 0xFFFFFFFFFFFFFFFFFFFFFFFFFFFFFFFFFFFFFFFF AND PUSH1 0x0 PUSH20 0xFFFFFFFFFFFFFFFFFFFFFFFFFFFFFFFFFFFFFFFF AND PUSH32 0xDDF252AD1BE2C89B69C2B068FC378DAA952BA7F163C4A11628F55A4DF523B3EF PUSH1 0x40 MLOAD PUSH1 0x40 MLOAD DUP1 SWAP2 SUB SWAP1 LOG4 PUSH2 0x10DF PUSH1 0x0 DUP4 DUP4 PUSH1 0x1 PUSH2 0x16DD JUMP JUMPDEST POP POP JUMP JUMPDEST PUSH1 0x0 DUP1 PUSH2 0x10EF DUP4 PUSH2 0x97C JUMP JUMPDEST SWAP1 POP DUP1 PUSH20 0xFFFFFFFFFFFFFFFFFFFFFFFFFFFFFFFFFFFFFFFF AND DUP5 PUSH20 0xFFFFFFFFFFFFFFFFFFFFFFFFFFFFFFFFFFFFFFFF AND EQ DUP1 PUSH2 0x1131 JUMPI POP PUSH2 0x1130 DUP2 DUP6 PUSH2 0xD0B JUMP JUMPDEST JUMPDEST DUP1 PUSH2 0x116F JUMPI POP DUP4 PUSH20 0xFFFFFFFFFFFFFFFFFFFFFFFFFFFFFFFFFFFFFFFF AND PUSH2 0x1157 DUP5 PUSH2 0x5E0 JUMP JUMPDEST PUSH20 0xFFFFFFFFFFFFFFFFFFFFFFFFFFFFFFFFFFFFFFFF AND EQ JUMPDEST SWAP2 POP POP SWAP3 SWAP2 POP POP JUMP JUMPDEST DUP3 PUSH20 0xFFFFFFFFFFFFFFFFFFFFFFFFFFFFFFFFFFFFFFFF AND PUSH2 0x1198 DUP3 PUSH2 0x97C JUMP JUMPDEST PUSH20 0xFFFFFFFFFFFFFFFFFFFFFFFFFFFFFFFFFFFFFFFF AND EQ PUSH2 0x11EE JUMPI PUSH1 0x40 MLOAD PUSH32 0x8C379A000000000000000000000000000000000000000000000000000000000 DUP2 MSTORE PUSH1 0x4 ADD PUSH2 0x11E5 SWAP1 PUSH2 0x29AD JUMP JUMPDEST PUSH1 0x40 MLOAD DUP1 SWAP2 SUB SWAP1 REVERT JUMPDEST PUSH1 0x0 PUSH20 0xFFFFFFFFFFFFFFFFFFFFFFFFFFFFFFFFFFFFFFFF AND DUP3 PUSH20 0xFFFFFFFFFFFFFFFFFFFFFFFFFFFFFFFFFFFFFFFF AND SUB PUSH2 0x125D JUMPI PUSH1 0x40 MLOAD PUSH32 0x8C379A000000000000000000000000000000000000000000000000000000000 DUP2 MSTORE PUSH1 0x4 ADD PUSH2 0x1254 SWAP1 PUSH2 0x2A3F JUMP JUMPDEST PUSH1 0x40 MLOAD DUP1 SWAP2 SUB SWAP1 REVERT JUMPDEST PUSH2 0x126A DUP4 DUP4 DUP4 PUSH1 0x1 PUSH2 0x16D7 JUMP JUMPDEST DUP3 PUSH20 0xFFFFFFFFFFFFFFFFFFFFFFFFFFFFFFFFFFFFFFFF AND PUSH2 0x128A DUP3 PUSH2 0x97C JUMP JUMPDEST PUSH20 0xFFFFFFFFFFFFFFFFFFFFFFFFFFFFFFFFFFFFFFFF AND EQ PUSH2 0x12E0 JUMPI PUSH1 0x40 MLOAD PUSH32 0x8C379A000000000000000000000000000000000000000000000000000000000 DUP2 MSTORE PUSH1 0x4 ADD PUSH2 0x12D7 SWAP1 PUSH2 0x29AD JUMP JUMPDEST PUSH1 0x40 MLOAD DUP1 SWAP2 SUB SWAP1 REVERT JUMPDEST PUSH1 0x4 PUSH1 0x0 DUP3 DUP2 MSTORE PUSH1 0x20 ADD SWAP1 DUP2 MSTORE PUSH1 0x20 ADD PUSH1 0x0 KECCAK256 PUSH1 0x0 PUSH2 0x100 EXP DUP2 SLOAD SWAP1 PUSH20 0xFFFFFFFFFFFFFFFFFFFFFFFFFFFFFFFFFFFFFFFF MUL NOT AND SWAP1 SSTORE PUSH1 0x1 PUSH1 0x3 PUSH1 0x0 DUP6 PUSH20 0xFFFFFFFFFFFFFFFFFFFFFFFFFFFFFFFFFFFFFFFF AND PUSH20 0xFFFFFFFFFFFFFFFFFFFFFFFFFFFFFFFFFFFFFFFF AND DUP2 MSTORE PUSH1 0x20 ADD SWAP1 DUP2 MSTORE PUSH1 0x20 ADD PUSH1 0x0 KECCAK256 PUSH1 0x0 DUP3 DUP3 SLOAD SUB SWAP3 POP POP DUP2 SWAP1 SSTORE POP PUSH1 0x1 PUSH1 0x3 PUSH1 0x0 DUP5 PUSH20 0xFFFFFFFFFFFFFFFFFFFFFFFFFFFFFFFFFFFFFFFF AND PUSH20 0xFFFFFFFFFFFFFFFFFFFFFFFFFFFFFFFFFFFFFFFF AND DUP2 MSTORE PUSH1 0x20 ADD SWAP1 DUP2 MSTORE PUSH1 0x20 ADD PUSH1 0x0 KECCAK256 PUSH1 0x0 DUP3 DUP3 SLOAD ADD SWAP3 POP POP DUP2 SWAP1 SSTORE POP DUP2 PUSH1 0x2 PUSH1 0x0 DUP4 DUP2 MSTORE PUSH1 0x20 ADD SWAP1 DUP2 MSTORE PUSH1 0x20 ADD PUSH1 0x0 KECCAK256 PUSH1 0x0 PUSH2 0x100 EXP DUP2 SLOAD DUP2 PUSH20 0xFFFFFFFFFFFFFFFFFFFFFFFFFFFFFFFFFFFFFFFF MUL NOT AND SWAP1 DUP4 PUSH20 0xFFFFFFFFFFFFFFFFFFFFFFFFFFFFFFFFFFFFFFFF AND MUL OR SWAP1 SSTORE POP DUP1 DUP3 PUSH20 0xFFFFFFFFFFFFFFFFFFFFFFFFFFFFFFFFFFFFFFFF AND DUP5 PUSH20 0xFFFFFFFFFFFFFFFFFFFFFFFFFFFFFFFFFFFFFFFF AND PUSH32 0xDDF252AD1BE2C89B69C2B068FC378DAA952BA7F163C4A11628F55A4DF523B3EF PUSH1 0x40 MLOAD PUSH1 0x40 MLOAD DUP1 SWAP2 SUB SWAP1 LOG4 PUSH2 0x146C DUP4 DUP4 DUP4 PUSH1 0x1 PUSH2 0x16DD JUMP JUMPDEST POP POP POP JUMP JUMPDEST PUSH1 0x0 PUSH1 0x2 PUSH1 0x0 DUP4 DUP2 MSTORE PUSH1 0x20 ADD SWAP1 DUP2 MSTORE PUSH1 0x20 ADD PUSH1 0x0 KECCAK256 PUSH1 0x0 SWAP1 SLOAD SWAP1 PUSH2 0x100 EXP SWAP1 DIV PUSH20 0xFFFFFFFFFFFFFFFFFFFFFFFFFFFFFFFFFFFFFFFF AND SWAP1 POP SWAP2 SWAP1 POP JUMP JUMPDEST DUP2 PUSH20 0xFFFFFFFFFFFFFFFFFFFFFFFFFFFFFFFFFFFFFFFF AND DUP4 PUSH20 0xFFFFFFFFFFFFFFFFFFFFFFFFFFFFFFFFFFFFFFFF AND SUB PUSH2 0x151C JUMPI PUSH1 0x40 MLOAD PUSH32 0x8C379A000000000000000000000000000000000000000000000000000000000 DUP2 MSTORE PUSH1 0x4 ADD PUSH2 0x1513 SWAP1 PUSH2 0x2AAB JUMP JUMPDEST PUSH1 0x40 MLOAD DUP1 SWAP2 SUB SWAP1 REVERT JUMPDEST DUP1 PUSH1 0x5 PUSH1 0x0 DUP6 PUSH20 0xFFFFFFFFFFFFFFFFFFFFFFFFFFFFFFFFFFFFFFFF AND PUSH20 0xFFFFFFFFFFFFFFFFFFFFFFFFFFFFFFFFFFFFFFFF AND DUP2 MSTORE PUSH1 0x20 ADD SWAP1 DUP2 MSTORE PUSH1 0x20 ADD PUSH1 0x0 KECCAK256 PUSH1 0x0 DUP5 PUSH20 0xFFFFFFFFFFFFFFFFFFFFFFFFFFFFFFFFFFFFFFFF AND PUSH20 0xFFFFFFFFFFFFFFFFFFFFFFFFFFFFFFFFFFFFFFFF AND DUP2 MSTORE PUSH1 0x20 ADD SWAP1 DUP2 MSTORE PUSH1 0x20 ADD PUSH1 0x0 KECCAK256 PUSH1 0x0 PUSH2 0x100 EXP DUP2 SLOAD DUP2 PUSH1 0xFF MUL NOT AND SWAP1 DUP4 ISZERO ISZERO MUL OR SWAP1 SSTORE POP DUP2 PUSH20 0xFFFFFFFFFFFFFFFFFFFFFFFFFFFFFFFFFFFFFFFF AND DUP4 PUSH20 0xFFFFFFFFFFFFFFFFFFFFFFFFFFFFFFFFFFFFFFFF AND PUSH32 0x17307EAB39AB6107E8899845AD3D59BD9653F200F220920489CA2B5937696C31 DUP4 PUSH1 0x40 MLOAD PUSH2 0x160D SWAP2 SWAP1 PUSH2 0x1941 JUMP JUMPDEST PUSH1 0x40 MLOAD DUP1 SWAP2 SUB SWAP1 LOG3 POP POP POP JUMP JUMPDEST PUSH2 0x1625 DUP5 DUP5 DUP5 PUSH2 0x1178 JUMP JUMPDEST PUSH2 0x1631 DUP5 DUP5 DUP5 DUP5 PUSH2 0x16E3 JUMP JUMPDEST PUSH2 0x1670 JUMPI PUSH1 0x40 MLOAD PUSH32 0x8C379A000000000000000000000000000000000000000000000000000000000 DUP2 MSTORE PUSH1 0x4 ADD PUSH2 0x1667 SWAP1 PUSH2 0x2B3D JUMP JUMPDEST PUSH1 0x40 MLOAD DUP1 SWAP2 SUB SWAP1 REVERT JUMPDEST POP POP POP POP JUMP JUMPDEST PUSH1 0x60 PUSH1 0x40 MLOAD DUP1 PUSH1 0x60 ADD PUSH1 0x40 MSTORE DUP1 PUSH1 0x31 DUP2 MSTORE PUSH1 0x20 ADD PUSH2 0x2C41 PUSH1 0x31 SWAP2 CODECOPY SWAP1 POP SWAP1 JUMP JUMPDEST PUSH1 0x0 DUP1 PUSH20 0xFFFFFFFFFFFFFFFFFFFFFFFFFFFFFFFFFFFFFFFF AND PUSH2 0x16B8 DUP4 PUSH2 0x1471 JUMP JUMPDEST PUSH20 0xFFFFFFFFFFFFFFFFFFFFFFFFFFFFFFFFFFFFFFFF AND EQ ISZERO SWAP1 POP SWAP2 SWAP1 POP JUMP JUMPDEST POP POP POP POP JUMP JUMPDEST POP POP POP POP JUMP JUMPDEST PUSH1 0x0 PUSH2 0x1704 DUP5 PUSH20 0xFFFFFFFFFFFFFFFFFFFFFFFFFFFFFFFFFFFFFFFF AND PUSH2 0x186A JUMP JUMPDEST ISZERO PUSH2 0x185D JUMPI DUP4 PUSH20 0xFFFFFFFFFFFFFFFFFFFFFFFFFFFFFFFFFFFFFFFF AND PUSH4 0x150B7A02 PUSH2 0x172D PUSH2 0xDEA JUMP JUMPDEST DUP8 DUP7 DUP7 PUSH1 0x40 MLOAD DUP6 PUSH4 0xFFFFFFFF AND PUSH1 0xE0 SHL DUP2 MSTORE PUSH1 0x4 ADD PUSH2 0x174F SWAP5 SWAP4 SWAP3 SWAP2 SWAP1 PUSH2 0x2BB2 JUMP JUMPDEST PUSH1 0x20 PUSH1 0x40 MLOAD DUP1 DUP4 SUB DUP2 PUSH1 0x0 DUP8 GAS CALL SWAP3 POP POP POP DUP1 ISZERO PUSH2 0x178B JUMPI POP PUSH1 0x40 MLOAD RETURNDATASIZE PUSH1 0x1F NOT PUSH1 0x1F DUP3 ADD AND DUP3 ADD DUP1 PUSH1 0x40 MSTORE POP DUP2 ADD SWAP1 PUSH2 0x1788 SWAP2 SWAP1 PUSH2 0x2C13 JUMP JUMPDEST PUSH1 0x1 JUMPDEST PUSH2 0x180D JUMPI RETURNDATASIZE DUP1 PUSH1 0x0 DUP2 EQ PUSH2 0x17BB JUMPI PUSH1 0x40 MLOAD SWAP2 POP PUSH1 0x1F NOT PUSH1 0x3F RETURNDATASIZE ADD AND DUP3 ADD PUSH1 0x40 MSTORE RETURNDATASIZE DUP3 MSTORE RETURNDATASIZE PUSH1 0x0 PUSH1 0x20 DUP5 ADD RETURNDATACOPY PUSH2 0x17C0 JUMP JUMPDEST PUSH1 0x60 SWAP2 POP JUMPDEST POP PUSH1 0x0 DUP2 MLOAD SUB PUSH2 0x1805 JUMPI PUSH1 0x40 MLOAD PUSH32 0x8C379A000000000000000000000000000000000000000000000000000000000 DUP2 MSTORE PUSH1 0x4 ADD PUSH2 0x17FC SWAP1 PUSH2 0x2B3D JUMP JUMPDEST PUSH1 0x40 MLOAD DUP1 SWAP2 SUB SWAP1 REVERT JUMPDEST DUP1 MLOAD DUP2 PUSH1 0x20 ADD REVERT JUMPDEST PUSH4 0x150B7A02 PUSH1 0xE0 SHL PUSH28 0xFFFFFFFFFFFFFFFFFFFFFFFFFFFFFFFFFFFFFFFFFFFFFFFFFFFFFFFF NOT AND DUP2 PUSH28 0xFFFFFFFFFFFFFFFFFFFFFFFFFFFFFFFFFFFFFFFFFFFFFFFFFFFFFFFF NOT AND EQ SWAP2 POP POP PUSH2 0x1862 JUMP JUMPDEST PUSH1 0x1 SWAP1 POP JUMPDEST SWAP5 SWAP4 POP POP POP POP JUMP JUMPDEST PUSH1 0x0 DUP1 DUP3 PUSH20 0xFFFFFFFFFFFFFFFFFFFFFFFFFFFFFFFFFFFFFFFF AND EXTCODESIZE GT SWAP1 POP SWAP2 SWAP1 POP JUMP JUMPDEST PUSH1 0x0 PUSH1 0x40 MLOAD SWAP1 POP SWAP1 JUMP JUMPDEST PUSH1 0x0 DUP1 REVERT JUMPDEST PUSH1 0x0 DUP1 REVERT JUMPDEST PUSH1 0x0 PUSH32 0xFFFFFFFF00000000000000000000000000000000000000000000000000000000 DUP3 AND SWAP1 POP SWAP2 SWAP1 POP JUMP JUMPDEST PUSH2 0x18D6 DUP2 PUSH2 0x18A1 JUMP JUMPDEST DUP2 EQ PUSH2 0x18E1 JUMPI PUSH1 0x0 DUP1 REVERT JUMPDEST POP JUMP JUMPDEST PUSH1 0x0 DUP2 CALLDATALOAD SWAP1 POP PUSH2 0x18F3 DUP2 PUSH2 0x18CD JUMP JUMPDEST SWAP3 SWAP2 POP POP JUMP JUMPDEST PUSH1 0x0 PUSH1 0x20 DUP3 DUP5 SUB SLT ISZERO PUSH2 0x190F JUMPI PUSH2 0x190E PUSH2 0x1897 JUMP JUMPDEST JUMPDEST PUSH1 0x0 PUSH2 0x191D DUP5 DUP3 DUP6 ADD PUSH2 0x18E4 JUMP JUMPDEST SWAP2 POP POP SWAP3 SWAP2 POP POP JUMP JUMPDEST PUSH1 0x0 DUP2 ISZERO ISZERO SWAP1 POP SWAP2 SWAP1 POP JUMP JUMPDEST PUSH2 0x193B DUP2 PUSH2 0x1926 JUMP JUMPDEST DUP3 MSTORE POP POP JUMP JUMPDEST PUSH1 0x0 PUSH1 0x20 DUP3 ADD SWAP1 POP PUSH2 0x1956 PUSH1 0x0 DUP4 ADD DUP5 PUSH2 0x1932 JUMP JUMPDEST SWAP3 SWAP2 POP POP JUMP JUMPDEST PUSH1 0x0 DUP2 SWAP1 POP SWAP2 SWAP1 POP JUMP JUMPDEST PUSH2 0x196F DUP2 PUSH2 0x195C JUMP JUMPDEST DUP3 MSTORE POP POP JUMP JUMPDEST PUSH1 0x0 PUSH1 0x20 DUP3 ADD SWAP1 POP PUSH2 0x198A PUSH1 0x0 DUP4 ADD DUP5 PUSH2 0x1966 JUMP JUMPDEST SWAP3 SWAP2 POP POP JUMP JUMPDEST PUSH1 0x0 DUP2 MLOAD SWAP1 POP SWAP2 SWAP1 POP JUMP JUMPDEST PUSH1 0x0 DUP3 DUP3 MSTORE PUSH1 0x20 DUP3 ADD SWAP1 POP SWAP3 SWAP2 POP POP JUMP JUMPDEST PUSH1 0x0 JUMPDEST DUP4 DUP2 LT ISZERO PUSH2 0x19CA JUMPI DUP1 DUP3 ADD MLOAD DUP2 DUP5 ADD MSTORE PUSH1 0x20 DUP2 ADD SWAP1 POP PUSH2 0x19AF JUMP JUMPDEST PUSH1 0x0 DUP5 DUP5 ADD MSTORE POP POP POP POP JUMP JUMPDEST PUSH1 0x0 PUSH1 0x1F NOT PUSH1 0x1F DUP4 ADD AND SWAP1 POP SWAP2 SWAP1 POP JUMP JUMPDEST PUSH1 0x0 PUSH2 0x19F2 DUP3 PUSH2 0x1990 JUMP JUMPDEST PUSH2 0x19FC DUP2 DUP6 PUSH2 0x199B JUMP JUMPDEST SWAP4 POP PUSH2 0x1A0C DUP2 DUP6 PUSH1 0x20 DUP7 ADD PUSH2 0x19AC JUMP JUMPDEST PUSH2 0x1A15 DUP2 PUSH2 0x19D6 JUMP JUMPDEST DUP5 ADD SWAP2 POP POP SWAP3 SWAP2 POP POP JUMP JUMPDEST PUSH1 0x0 PUSH1 0x20 DUP3 ADD SWAP1 POP DUP2 DUP2 SUB PUSH1 0x0 DUP4 ADD MSTORE PUSH2 0x1A3A DUP2 DUP5 PUSH2 0x19E7 JUMP JUMPDEST SWAP1 POP SWAP3 SWAP2 POP POP JUMP JUMPDEST PUSH2 0x1A4B DUP2 PUSH2 0x195C JUMP JUMPDEST DUP2 EQ PUSH2 0x1A56 JUMPI PUSH1 0x0 DUP1 REVERT JUMPDEST POP JUMP JUMPDEST PUSH1 0x0 DUP2 CALLDATALOAD SWAP1 POP PUSH2 0x1A68 DUP2 PUSH2 0x1A42 JUMP JUMPDEST SWAP3 SWAP2 POP POP JUMP JUMPDEST PUSH1 0x0 PUSH1 0x20 DUP3 DUP5 SUB SLT ISZERO PUSH2 0x1A84 JUMPI PUSH2 0x1A83 PUSH2 0x1897 JUMP JUMPDEST JUMPDEST PUSH1 0x0 PUSH2 0x1A92 DUP5 DUP3 DUP6 ADD PUSH2 0x1A59 JUMP JUMPDEST SWAP2 POP POP SWAP3 SWAP2 POP POP JUMP JUMPDEST PUSH1 0x0 PUSH20 0xFFFFFFFFFFFFFFFFFFFFFFFFFFFFFFFFFFFFFFFF DUP3 AND SWAP1 POP SWAP2 SWAP1 POP JUMP JUMPDEST PUSH1 0x0 PUSH2 0x1AC6 DUP3 PUSH2 0x1A9B JUMP JUMPDEST SWAP1 POP SWAP2 SWAP1 POP JUMP JUMPDEST PUSH2 0x1AD6 DUP2 PUSH2 0x1ABB JUMP JUMPDEST DUP3 MSTORE POP POP JUMP JUMPDEST PUSH1 0x0 PUSH1 0x20 DUP3 ADD SWAP1 POP PUSH2 0x1AF1 PUSH1 0x0 DUP4 ADD DUP5 PUSH2 0x1ACD JUMP JUMPDEST SWAP3 SWAP2 POP POP JUMP JUMPDEST PUSH2 0x1B00 DUP2 PUSH2 0x1ABB JUMP JUMPDEST DUP2 EQ PUSH2 0x1B0B JUMPI PUSH1 0x0 DUP1 REVERT JUMPDEST POP JUMP JUMPDEST PUSH1 0x0 DUP2 CALLDATALOAD SWAP1 POP PUSH2 0x1B1D DUP2 PUSH2 0x1AF7 JUMP JUMPDEST SWAP3 SWAP2 POP POP JUMP JUMPDEST PUSH1 0x0 DUP1 PUSH1 0x40 DUP4 DUP6 SUB SLT ISZERO PUSH2 0x1B3A JUMPI PUSH2 0x1B39 PUSH2 0x1897 JUMP JUMPDEST JUMPDEST PUSH1 0x0 PUSH2 0x1B48 DUP6 DUP3 DUP7 ADD PUSH2 0x1B0E JUMP JUMPDEST SWAP3 POP POP PUSH1 0x20 PUSH2 0x1B59 DUP6 DUP3 DUP7 ADD PUSH2 0x1A59 JUMP JUMPDEST SWAP2 POP POP SWAP3 POP SWAP3 SWAP1 POP JUMP JUMPDEST PUSH1 0x0 DUP1 REVERT JUMPDEST PUSH1 0x0 DUP1 REVERT JUMPDEST PUSH32 0x4E487B7100000000000000000000000000000000000000000000000000000000 PUSH1 0x0 MSTORE PUSH1 0x41 PUSH1 0x4 MSTORE PUSH1 0x24 PUSH1 0x0 REVERT JUMPDEST PUSH2 0x1BA5 DUP3 PUSH2 0x19D6 JUMP JUMPDEST DUP2 ADD DUP2 DUP2 LT PUSH8 0xFFFFFFFFFFFFFFFF DUP3 GT OR ISZERO PUSH2 0x1BC4 JUMPI PUSH2 0x1BC3 PUSH2 0x1B6D JUMP JUMPDEST JUMPDEST DUP1 PUSH1 0x40 MSTORE POP POP POP JUMP JUMPDEST PUSH1 0x0 PUSH2 0x1BD7 PUSH2 0x188D JUMP JUMPDEST SWAP1 POP PUSH2 0x1BE3 DUP3 DUP3 PUSH2 0x1B9C JUMP JUMPDEST SWAP2 SWAP1 POP JUMP JUMPDEST PUSH1 0x0 PUSH8 0xFFFFFFFFFFFFFFFF DUP3 GT ISZERO PUSH2 0x1C03 JUMPI PUSH2 0x1C02 PUSH2 0x1B6D JUMP JUMPDEST JUMPDEST PUSH2 0x1C0C DUP3 PUSH2 0x19D6 JUMP JUMPDEST SWAP1 POP PUSH1 0x20 DUP2 ADD SWAP1 POP SWAP2 SWAP1 POP JUMP JUMPDEST DUP3 DUP2 DUP4 CALLDATACOPY PUSH1 0x0 DUP4 DUP4 ADD MSTORE POP POP POP JUMP JUMPDEST PUSH1 0x0 PUSH2 0x1C3B PUSH2 0x1C36 DUP5 PUSH2 0x1BE8 JUMP JUMPDEST PUSH2 0x1BCD JUMP JUMPDEST SWAP1 POP DUP3 DUP2 MSTORE PUSH1 0x20 DUP2 ADD DUP5 DUP5 DUP5 ADD GT ISZERO PUSH2 0x1C57 JUMPI PUSH2 0x1C56 PUSH2 0x1B68 JUMP JUMPDEST JUMPDEST PUSH2 0x1C62 DUP5 DUP3 DUP6 PUSH2 0x1C19 JUMP JUMPDEST POP SWAP4 SWAP3 POP POP POP JUMP JUMPDEST PUSH1 0x0 DUP3 PUSH1 0x1F DUP4 ADD SLT PUSH2 0x1C7F JUMPI PUSH2 0x1C7E PUSH2 0x1B63 JUMP JUMPDEST JUMPDEST DUP2 CALLDATALOAD PUSH2 0x1C8F DUP5 DUP3 PUSH1 0x20 DUP7 ADD PUSH2 0x1C28 JUMP JUMPDEST SWAP2 POP POP SWAP3 SWAP2 POP POP JUMP JUMPDEST PUSH1 0x0 DUP1 PUSH1 0x40 DUP4 DUP6 SUB SLT ISZERO PUSH2 0x1CAF JUMPI PUSH2 0x1CAE PUSH2 0x1897 JUMP JUMPDEST JUMPDEST PUSH1 0x0 PUSH2 0x1CBD DUP6 DUP3 DUP7 ADD PUSH2 0x1B0E JUMP JUMPDEST SWAP3 POP POP PUSH1 0x20 DUP4 ADD CALLDATALOAD PUSH8 0xFFFFFFFFFFFFFFFF DUP2 GT ISZERO PUSH2 0x1CDE JUMPI PUSH2 0x1CDD PUSH2 0x189C JUMP JUMPDEST JUMPDEST PUSH2 0x1CEA DUP6 DUP3 DUP7 ADD PUSH2 0x1C6A JUMP JUMPDEST SWAP2 POP POP SWAP3 POP SWAP3 SWAP1 POP JUMP JUMPDEST PUSH1 0x0 DUP1 PUSH1 0x0 PUSH1 0x60 DUP5 DUP7 SUB SLT ISZERO PUSH2 0x1D0D JUMPI PUSH2 0x1D0C PUSH2 0x1897 JUMP JUMPDEST JUMPDEST PUSH1 0x0 PUSH2 0x1D1B DUP7 DUP3 DUP8 ADD PUSH2 0x1B0E JUMP JUMPDEST SWAP4 POP POP PUSH1 0x20 PUSH2 0x1D2C DUP7 DUP3 DUP8 ADD PUSH2 0x1B0E JUMP JUMPDEST SWAP3 POP POP PUSH1 0x40 PUSH2 0x1D3D DUP7 DUP3 DUP8 ADD PUSH2 0x1A59 JUMP JUMPDEST SWAP2 POP POP SWAP3 POP SWAP3 POP SWAP3 JUMP JUMPDEST PUSH1 0x0 PUSH1 0x20 DUP3 DUP5 SUB SLT ISZERO PUSH2 0x1D5D JUMPI PUSH2 0x1D5C PUSH2 0x1897 JUMP JUMPDEST JUMPDEST PUSH1 0x0 PUSH2 0x1D6B DUP5 DUP3 DUP6 ADD PUSH2 0x1B0E JUMP JUMPDEST SWAP2 POP POP SWAP3 SWAP2 POP POP JUMP JUMPDEST PUSH1 0x0 PUSH1 0x20 DUP3 DUP5 SUB SLT ISZERO PUSH2 0x1D8A JUMPI PUSH2 0x1D89 PUSH2 0x1897 JUMP JUMPDEST JUMPDEST PUSH1 0x0 DUP3 ADD CALLDATALOAD PUSH8 0xFFFFFFFFFFFFFFFF DUP2 GT ISZERO PUSH2 0x1DA8 JUMPI PUSH2 0x1DA7 PUSH2 0x189C JUMP JUMPDEST JUMPDEST PUSH2 0x1DB4 DUP5 DUP3 DUP6 ADD PUSH2 0x1C6A JUMP JUMPDEST SWAP2 POP POP SWAP3 SWAP2 POP POP JUMP JUMPDEST PUSH2 0x1DC6 DUP2 PUSH2 0x1926 JUMP JUMPDEST DUP2 EQ PUSH2 0x1DD1 JUMPI PUSH1 0x0 DUP1 REVERT JUMPDEST POP JUMP JUMPDEST PUSH1 0x0 DUP2 CALLDATALOAD SWAP1 POP PUSH2 0x1DE3 DUP2 PUSH2 0x1DBD JUMP JUMPDEST SWAP3 SWAP2 POP POP JUMP JUMPDEST PUSH1 0x0 DUP1 PUSH1 0x40 DUP4 DUP6 SUB SLT ISZERO PUSH2 0x1E00 JUMPI PUSH2 0x1DFF PUSH2 0x1897 JUMP JUMPDEST JUMPDEST PUSH1 0x0 PUSH2 0x1E0E DUP6 DUP3 DUP7 ADD PUSH2 0x1B0E JUMP JUMPDEST SWAP3 POP POP PUSH1 0x20 PUSH2 0x1E1F DUP6 DUP3 DUP7 ADD PUSH2 0x1DD4 JUMP JUMPDEST SWAP2 POP POP SWAP3 POP SWAP3 SWAP1 POP JUMP JUMPDEST PUSH1 0x0 PUSH8 0xFFFFFFFFFFFFFFFF DUP3 GT ISZERO PUSH2 0x1E44 JUMPI PUSH2 0x1E43 PUSH2 0x1B6D JUMP JUMPDEST JUMPDEST PUSH2 0x1E4D DUP3 PUSH2 0x19D6 JUMP JUMPDEST SWAP1 POP PUSH1 0x20 DUP2 ADD SWAP1 POP SWAP2 SWAP1 POP JUMP JUMPDEST PUSH1 0x0 PUSH2 0x1E6D PUSH2 0x1E68 DUP5 PUSH2 0x1E29 JUMP JUMPDEST PUSH2 0x1BCD JUMP JUMPDEST SWAP1 POP DUP3 DUP2 MSTORE PUSH1 0x20 DUP2 ADD DUP5 DUP5 DUP5 ADD GT ISZERO PUSH2 0x1E89 JUMPI PUSH2 0x1E88 PUSH2 0x1B68 JUMP JUMPDEST JUMPDEST PUSH2 0x1E94 DUP5 DUP3 DUP6 PUSH2 0x1C19 JUMP JUMPDEST POP SWAP4 SWAP3 POP POP POP JUMP JUMPDEST PUSH1 0x0 DUP3 PUSH1 0x1F DUP4 ADD SLT PUSH2 0x1EB1 JUMPI PUSH2 0x1EB0 PUSH2 0x1B63 JUMP JUMPDEST JUMPDEST DUP2 CALLDATALOAD PUSH2 0x1EC1 DUP5 DUP3 PUSH1 0x20 DUP7 ADD PUSH2 0x1E5A JUMP JUMPDEST SWAP2 POP POP SWAP3 SWAP2 POP POP JUMP JUMPDEST PUSH1 0x0 DUP1 PUSH1 0x0 DUP1 PUSH1 0x80 DUP6 DUP8 SUB SLT ISZERO PUSH2 0x1EE4 JUMPI PUSH2 0x1EE3 PUSH2 0x1897 JUMP JUMPDEST JUMPDEST PUSH1 0x0 PUSH2 0x1EF2 DUP8 DUP3 DUP9 ADD PUSH2 0x1B0E JUMP JUMPDEST SWAP5 POP POP PUSH1 0x20 PUSH2 0x1F03 DUP8 DUP3 DUP9 ADD PUSH2 0x1B0E JUMP JUMPDEST SWAP4 POP POP PUSH1 0x40 PUSH2 0x1F14 DUP8 DUP3 DUP9 ADD PUSH2 0x1A59 JUMP JUMPDEST SWAP3 POP POP PUSH1 0x60 DUP6 ADD CALLDATALOAD PUSH8 0xFFFFFFFFFFFFFFFF DUP2 GT ISZERO PUSH2 0x1F35 JUMPI PUSH2 0x1F34 PUSH2 0x189C JUMP JUMPDEST JUMPDEST PUSH2 0x1F41 DUP8 DUP3 DUP9 ADD PUSH2 0x1E9C JUMP JUMPDEST SWAP2 POP POP SWAP3 SWAP6 SWAP2 SWAP5 POP SWAP3 POP JUMP JUMPDEST PUSH1 0x0 DUP1 PUSH1 0x40 DUP4 DUP6 SUB SLT ISZERO PUSH2 0x1F64 JUMPI PUSH2 0x1F63 PUSH2 0x1897 JUMP JUMPDEST JUMPDEST PUSH1 0x0 PUSH2 0x1F72 DUP6 DUP3 DUP7 ADD PUSH2 0x1B0E JUMP JUMPDEST SWAP3 POP POP PUSH1 0x20 PUSH2 0x1F83 DUP6 DUP3 DUP7 ADD PUSH2 0x1B0E JUMP JUMPDEST SWAP2 POP POP SWAP3 POP SWAP3 SWAP1 POP JUMP JUMPDEST PUSH32 0x4E487B7100000000000000000000000000000000000000000000000000000000 PUSH1 0x0 MSTORE PUSH1 0x22 PUSH1 0x4 MSTORE PUSH1 0x24 PUSH1 0x0 REVERT JUMPDEST PUSH1 0x0 PUSH1 0x2 DUP3 DIV SWAP1 POP PUSH1 0x1 DUP3 AND DUP1 PUSH2 0x1FD4 JUMPI PUSH1 0x7F DUP3 AND SWAP2 POP JUMPDEST PUSH1 0x20 DUP3 LT DUP2 SUB PUSH2 0x1FE7 JUMPI PUSH2 0x1FE6 PUSH2 0x1F8D JUMP JUMPDEST JUMPDEST POP SWAP2 SWAP1 POP JUMP JUMPDEST PUSH32 0x4552433732313A20617070726F76616C20746F2063757272656E74206F776E65 PUSH1 0x0 DUP3 ADD MSTORE PUSH32 0x7200000000000000000000000000000000000000000000000000000000000000 PUSH1 0x20 DUP3 ADD MSTORE POP JUMP JUMPDEST PUSH1 0x0 PUSH2 0x2049 PUSH1 0x21 DUP4 PUSH2 0x199B JUMP JUMPDEST SWAP2 POP PUSH2 0x2054 DUP3 PUSH2 0x1FED JUMP JUMPDEST PUSH1 0x40 DUP3 ADD SWAP1 POP SWAP2 SWAP1 POP JUMP JUMPDEST PUSH1 0x0 PUSH1 0x20 DUP3 ADD SWAP1 POP DUP2 DUP2 SUB PUSH1 0x0 DUP4 ADD MSTORE PUSH2 0x2078 DUP2 PUSH2 0x203C JUMP JUMPDEST SWAP1 POP SWAP2 SWAP1 POP JUMP JUMPDEST PUSH32 0x4552433732313A20617070726F76652063616C6C6572206973206E6F7420746F PUSH1 0x0 DUP3 ADD MSTORE PUSH32 0x6B656E206F776E6572206F7220617070726F76656420666F7220616C6C000000 PUSH1 0x20 DUP3 ADD MSTORE POP JUMP JUMPDEST PUSH1 0x0 PUSH2 0x20DB PUSH1 0x3D DUP4 PUSH2 0x199B JUMP JUMPDEST SWAP2 POP PUSH2 0x20E6 DUP3 PUSH2 0x207F JUMP JUMPDEST PUSH1 0x40 DUP3 ADD SWAP1 POP SWAP2 SWAP1 POP JUMP JUMPDEST PUSH1 0x0 PUSH1 0x20 DUP3 ADD SWAP1 POP DUP2 DUP2 SUB PUSH1 0x0 DUP4 ADD MSTORE PUSH2 0x210A DUP2 PUSH2 0x20CE JUMP JUMPDEST SWAP1 POP SWAP2 SWAP1 POP JUMP JUMPDEST PUSH32 0x646F6E277420747279206D616B696E6720616E20656D70747920737472696E67 PUSH1 0x0 DUP3 ADD MSTORE PUSH32 0x20746F6B656E2E2E2E0000000000000000000000000000000000000000000000 PUSH1 0x20 DUP3 ADD MSTORE POP JUMP JUMPDEST PUSH1 0x0 PUSH2 0x216D PUSH1 0x29 DUP4 PUSH2 0x199B JUMP JUMPDEST SWAP2 POP PUSH2 0x2178 DUP3 PUSH2 0x2111 JUMP JUMPDEST PUSH1 0x40 DUP3 ADD SWAP1 POP SWAP2 SWAP1 POP JUMP JUMPDEST PUSH1 0x0 PUSH1 0x20 DUP3 ADD SWAP1 POP DUP2 DUP2 SUB PUSH1 0x0 DUP4 ADD MSTORE PUSH2 0x219C DUP2 PUSH2 0x2160 JUMP JUMPDEST SWAP1 POP SWAP2 SWAP1 POP JUMP JUMPDEST PUSH32 0x4475706C69636174652120446F206E6F742065766572207472792073656E6469 PUSH1 0x0 DUP3 ADD MSTORE PUSH32 0x6E672061206475706C696361746520746F206D696E7420616761696E20434845 PUSH1 0x20 DUP3 ADD MSTORE PUSH32 0x4154455221000000000000000000000000000000000000000000000000000000 PUSH1 0x40 DUP3 ADD MSTORE POP JUMP JUMPDEST PUSH1 0x0 PUSH2 0x2225 PUSH1 0x45 DUP4 PUSH2 0x199B JUMP JUMPDEST SWAP2 POP PUSH2 0x2230 DUP3 PUSH2 0x21A3 JUMP JUMPDEST PUSH1 0x60 DUP3 ADD SWAP1 POP SWAP2 SWAP1 POP JUMP JUMPDEST PUSH1 0x0 PUSH1 0x20 DUP3 ADD SWAP1 POP DUP2 DUP2 SUB PUSH1 0x0 DUP4 ADD MSTORE PUSH2 0x2254 DUP2 PUSH2 0x2218 JUMP JUMPDEST SWAP1 POP SWAP2 SWAP1 POP JUMP JUMPDEST PUSH32 0x4E487B7100000000000000000000000000000000000000000000000000000000 PUSH1 0x0 MSTORE PUSH1 0x11 PUSH1 0x4 MSTORE PUSH1 0x24 PUSH1 0x0 REVERT JUMPDEST PUSH1 0x0 PUSH2 0x2295 DUP3 PUSH2 0x195C JUMP JUMPDEST SWAP2 POP PUSH32 0xFFFFFFFFFFFFFFFFFFFFFFFFFFFFFFFFFFFFFFFFFFFFFFFFFFFFFFFFFFFFFFFF DUP3 SUB PUSH2 0x22C7 JUMPI PUSH2 0x22C6 PUSH2 0x225B JUMP JUMPDEST JUMPDEST PUSH1 0x1 DUP3 ADD SWAP1 POP SWAP2 SWAP1 POP JUMP JUMPDEST PUSH1 0x0 DUP2 SWAP1 POP DUP2 PUSH1 0x0 MSTORE PUSH1 0x20 PUSH1 0x0 KECCAK256 SWAP1 POP SWAP2 SWAP1 POP JUMP JUMPDEST PUSH1 0x0 PUSH1 0x20 PUSH1 0x1F DUP4 ADD DIV SWAP1 POP SWAP2 SWAP1 POP JUMP JUMPDEST PUSH1 0x0 DUP3 DUP3 SHL SWAP1 POP SWAP3 SWAP2 POP POP JUMP JUMPDEST PUSH1 0x0 PUSH1 0x8 DUP4 MUL PUSH2 0x2334 PUSH32 0xFFFFFFFFFFFFFFFFFFFFFFFFFFFFFFFFFFFFFFFFFFFFFFFFFFFFFFFFFFFFFFFF DUP3 PUSH2 0x22F7 JUMP JUMPDEST PUSH2 0x233E DUP7 DUP4 PUSH2 0x22F7 JUMP JUMPDEST SWAP6 POP DUP1 NOT DUP5 AND SWAP4 POP DUP1 DUP7 AND DUP5 OR SWAP3 POP POP POP SWAP4 SWAP3 POP POP POP JUMP JUMPDEST PUSH1 0x0 DUP2 SWAP1 POP SWAP2 SWAP1 POP JUMP JUMPDEST PUSH1 0x0 PUSH2 0x237B PUSH2 0x2376 PUSH2 0x2371 DUP5 PUSH2 0x195C JUMP JUMPDEST PUSH2 0x2356 JUMP JUMPDEST PUSH2 0x195C JUMP JUMPDEST SWAP1 POP SWAP2 SWAP1 POP JUMP JUMPDEST PUSH1 0x0 DUP2 SWAP1 POP SWAP2 SWAP1 POP JUMP JUMPDEST PUSH2 0x2395 DUP4 PUSH2 0x2360 JUMP JUMPDEST PUSH2 0x23A9 PUSH2 0x23A1 DUP3 PUSH2 0x2382 JUMP JUMPDEST DUP5 DUP5 SLOAD PUSH2 0x2304 JUMP JUMPDEST DUP3 SSTORE POP POP POP POP JUMP JUMPDEST PUSH1 0x0 SWAP1 JUMP JUMPDEST PUSH2 0x23BE PUSH2 0x23B1 JUMP JUMPDEST PUSH2 0x23C9 DUP2 DUP5 DUP5 PUSH2 0x238C JUMP JUMPDEST POP POP POP JUMP JUMPDEST JUMPDEST DUP2 DUP2 LT ISZERO PUSH2 0x23ED JUMPI PUSH2 0x23E2 PUSH1 0x0 DUP3 PUSH2 0x23B6 JUMP JUMPDEST PUSH1 0x1 DUP2 ADD SWAP1 POP PUSH2 0x23CF JUMP JUMPDEST POP POP JUMP JUMPDEST PUSH1 0x1F DUP3 GT ISZERO PUSH2 0x2432 JUMPI PUSH2 0x2403 DUP2 PUSH2 0x22D2 JUMP JUMPDEST PUSH2 0x240C DUP5 PUSH2 0x22E7 JUMP JUMPDEST DUP2 ADD PUSH1 0x20 DUP6 LT ISZERO PUSH2 0x241B JUMPI DUP2 SWAP1 POP JUMPDEST PUSH2 0x242F PUSH2 0x2427 DUP6 PUSH2 0x22E7 JUMP JUMPDEST DUP4 ADD DUP3 PUSH2 0x23CE JUMP JUMPDEST POP POP JUMPDEST POP POP POP JUMP JUMPDEST PUSH1 0x0 DUP3 DUP3 SHR SWAP1 POP SWAP3 SWAP2 POP POP JUMP JUMPDEST PUSH1 0x0 PUSH2 0x2455 PUSH1 0x0 NOT DUP5 PUSH1 0x8 MUL PUSH2 0x2437 JUMP JUMPDEST NOT DUP1 DUP4 AND SWAP2 POP POP SWAP3 SWAP2 POP POP JUMP JUMPDEST PUSH1 0x0 PUSH2 0x246E DUP4 DUP4 PUSH2 0x2444 JUMP JUMPDEST SWAP2 POP DUP3 PUSH1 0x2 MUL DUP3 OR SWAP1 POP SWAP3 SWAP2 POP POP JUMP JUMPDEST PUSH2 0x2487 DUP3 PUSH2 0x1990 JUMP JUMPDEST PUSH8 0xFFFFFFFFFFFFFFFF DUP2 GT ISZERO PUSH2 0x24A0 JUMPI PUSH2 0x249F PUSH2 0x1B6D JUMP JUMPDEST JUMPDEST PUSH2 0x24AA DUP3 SLOAD PUSH2 0x1FBC JUMP JUMPDEST PUSH2 0x24B5 DUP3 DUP3 DUP6 PUSH2 0x23F1 JUMP JUMPDEST PUSH1 0x0 PUSH1 0x20 SWAP1 POP PUSH1 0x1F DUP4 GT PUSH1 0x1 DUP2 EQ PUSH2 0x24E8 JUMPI PUSH1 0x0 DUP5 ISZERO PUSH2 0x24D6 JUMPI DUP3 DUP8 ADD MLOAD SWAP1 POP JUMPDEST PUSH2 0x24E0 DUP6 DUP3 PUSH2 0x2462 JUMP JUMPDEST DUP7 SSTORE POP PUSH2 0x2548 JUMP JUMPDEST PUSH1 0x1F NOT DUP5 AND PUSH2 0x24F6 DUP7 PUSH2 0x22D2 JUMP JUMPDEST PUSH1 0x0 JUMPDEST DUP3 DUP2 LT ISZERO PUSH2 0x251E JUMPI DUP5 DUP10 ADD MLOAD DUP3 SSTORE PUSH1 0x1 DUP3 ADD SWAP2 POP PUSH1 0x20 DUP6 ADD SWAP5 POP PUSH1 0x20 DUP2 ADD SWAP1 POP PUSH2 0x24F9 JUMP JUMPDEST DUP7 DUP4 LT ISZERO PUSH2 0x253B JUMPI DUP5 DUP10 ADD MLOAD PUSH2 0x2537 PUSH1 0x1F DUP10 AND DUP3 PUSH2 0x2444 JUMP JUMPDEST DUP4 SSTORE POP JUMPDEST PUSH1 0x1 PUSH1 0x2 DUP9 MUL ADD DUP9 SSTORE POP POP POP JUMPDEST POP POP POP POP POP POP JUMP JUMPDEST PUSH1 0x0 PUSH2 0x255B DUP3 PUSH2 0x195C JUMP JUMPDEST SWAP2 POP PUSH2 0x2566 DUP4 PUSH2 0x195C JUMP JUMPDEST SWAP3 POP DUP3 DUP3 SUB SWAP1 POP DUP2 DUP2 GT ISZERO PUSH2 0x257E JUMPI PUSH2 0x257D PUSH2 0x225B JUMP JUMPDEST JUMPDEST SWAP3 SWAP2 POP POP JUMP JUMPDEST PUSH32 0x4552433732313A2063616C6C6572206973206E6F7420746F6B656E206F776E65 PUSH1 0x0 DUP3 ADD MSTORE PUSH32 0x72206F7220617070726F76656400000000000000000000000000000000000000 PUSH1 0x20 DUP3 ADD MSTORE POP JUMP JUMPDEST PUSH1 0x0 PUSH2 0x25E0 PUSH1 0x2D DUP4 PUSH2 0x199B JUMP JUMPDEST SWAP2 POP PUSH2 0x25EB DUP3 PUSH2 0x2584 JUMP JUMPDEST PUSH1 0x40 DUP3 ADD SWAP1 POP SWAP2 SWAP1 POP JUMP JUMPDEST PUSH1 0x0 PUSH1 0x20 DUP3 ADD SWAP1 POP DUP2 DUP2 SUB PUSH1 0x0 DUP4 ADD MSTORE PUSH2 0x260F DUP2 PUSH2 0x25D3 JUMP JUMPDEST SWAP1 POP SWAP2 SWAP1 POP JUMP JUMPDEST PUSH32 0x4552433732313A20696E76616C696420746F6B656E2049440000000000000000 PUSH1 0x0 DUP3 ADD MSTORE POP JUMP JUMPDEST PUSH1 0x0 PUSH2 0x264C PUSH1 0x18 DUP4 PUSH2 0x199B JUMP JUMPDEST SWAP2 POP PUSH2 0x2657 DUP3 PUSH2 0x2616 JUMP JUMPDEST PUSH1 0x20 DUP3 ADD SWAP1 POP SWAP2 SWAP1 POP JUMP JUMPDEST PUSH1 0x0 PUSH1 0x20 DUP3 ADD SWAP1 POP DUP2 DUP2 SUB PUSH1 0x0 DUP4 ADD MSTORE PUSH2 0x267B DUP2 PUSH2 0x263F JUMP JUMPDEST SWAP1 POP SWAP2 SWAP1 POP JUMP JUMPDEST PUSH32 0x4552433732313A2061646472657373207A65726F206973206E6F742061207661 PUSH1 0x0 DUP3 ADD MSTORE PUSH32 0x6C6964206F776E65720000000000000000000000000000000000000000000000 PUSH1 0x20 DUP3 ADD MSTORE POP JUMP JUMPDEST PUSH1 0x0 PUSH2 0x26DE PUSH1 0x29 DUP4 PUSH2 0x199B JUMP JUMPDEST SWAP2 POP PUSH2 0x26E9 DUP3 PUSH2 0x2682 JUMP JUMPDEST PUSH1 0x40 DUP3 ADD SWAP1 POP SWAP2 SWAP1 POP JUMP JUMPDEST PUSH1 0x0 PUSH1 0x20 DUP3 ADD SWAP1 POP DUP2 DUP2 SUB PUSH1 0x0 DUP4 ADD MSTORE PUSH2 0x270D DUP2 PUSH2 0x26D1 JUMP JUMPDEST SWAP1 POP SWAP2 SWAP1 POP JUMP JUMPDEST PUSH32 0x696E76616C696420746F6B656E20696421000000000000000000000000000000 PUSH1 0x0 DUP3 ADD MSTORE POP JUMP JUMPDEST PUSH1 0x0 PUSH2 0x274A PUSH1 0x11 DUP4 PUSH2 0x199B JUMP JUMPDEST SWAP2 POP PUSH2 0x2755 DUP3 PUSH2 0x2714 JUMP JUMPDEST PUSH1 0x20 DUP3 ADD SWAP1 POP SWAP2 SWAP1 POP JUMP JUMPDEST PUSH1 0x0 PUSH1 0x20 DUP3 ADD SWAP1 POP DUP2 DUP2 SUB PUSH1 0x0 DUP4 ADD MSTORE PUSH2 0x2779 DUP2 PUSH2 0x273D JUMP JUMPDEST SWAP1 POP SWAP2 SWAP1 POP JUMP JUMPDEST PUSH1 0x0 DUP2 SWAP1 POP SWAP3 SWAP2 POP POP JUMP JUMPDEST PUSH1 0x0 PUSH2 0x2796 DUP3 PUSH2 0x1990 JUMP JUMPDEST PUSH2 0x27A0 DUP2 DUP6 PUSH2 0x2780 JUMP JUMPDEST SWAP4 POP PUSH2 0x27B0 DUP2 DUP6 PUSH1 0x20 DUP7 ADD PUSH2 0x19AC JUMP JUMPDEST DUP1 DUP5 ADD SWAP2 POP POP SWAP3 SWAP2 POP POP JUMP JUMPDEST PUSH1 0x0 DUP2 SLOAD PUSH2 0x27C9 DUP2 PUSH2 0x1FBC JUMP JUMPDEST PUSH2 0x27D3 DUP2 DUP7 PUSH2 0x2780 JUMP JUMPDEST SWAP5 POP PUSH1 0x1 DUP3 AND PUSH1 0x0 DUP2 EQ PUSH2 0x27EE JUMPI PUSH1 0x1 DUP2 EQ PUSH2 0x2803 JUMPI PUSH2 0x2836 JUMP JUMPDEST PUSH1 0xFF NOT DUP4 AND DUP7 MSTORE DUP2 ISZERO ISZERO DUP3 MUL DUP7 ADD SWAP4 POP PUSH2 0x2836 JUMP JUMPDEST PUSH2 0x280C DUP6 PUSH2 0x22D2 JUMP JUMPDEST PUSH1 0x0 JUMPDEST DUP4 DUP2 LT ISZERO PUSH2 0x282E JUMPI DUP2 SLOAD DUP2 DUP10 ADD MSTORE PUSH1 0x1 DUP3 ADD SWAP2 POP PUSH1 0x20 DUP2 ADD SWAP1 POP PUSH2 0x280F JUMP JUMPDEST DUP4 DUP9 ADD SWAP6 POP POP POP JUMPDEST POP POP POP SWAP3 SWAP2 POP POP JUMP JUMPDEST PUSH1 0x0 PUSH2 0x284B DUP3 DUP6 PUSH2 0x278B JUMP JUMPDEST SWAP2 POP PUSH2 0x2857 DUP3 DUP5 PUSH2 0x27BC JUMP JUMPDEST SWAP2 POP DUP2 SWAP1 POP SWAP4 SWAP3 POP POP POP JUMP JUMPDEST PUSH32 0x4552433732313A206D696E7420746F20746865207A65726F2061646472657373 PUSH1 0x0 DUP3 ADD MSTORE POP JUMP JUMPDEST PUSH1 0x0 PUSH2 0x2899 PUSH1 0x20 DUP4 PUSH2 0x199B JUMP JUMPDEST SWAP2 POP PUSH2 0x28A4 DUP3 PUSH2 0x2863 JUMP JUMPDEST PUSH1 0x20 DUP3 ADD SWAP1 POP SWAP2 SWAP1 POP JUMP JUMPDEST PUSH1 0x0 PUSH1 0x20 DUP3 ADD SWAP1 POP DUP2 DUP2 SUB PUSH1 0x0 DUP4 ADD MSTORE PUSH2 0x28C8 DUP2 PUSH2 0x288C JUMP JUMPDEST SWAP1 POP SWAP2 SWAP1 POP JUMP JUMPDEST PUSH32 0x4552433732313A20746F6B656E20616C7265616479206D696E74656400000000 PUSH1 0x0 DUP3 ADD MSTORE POP JUMP JUMPDEST PUSH1 0x0 PUSH2 0x2905 PUSH1 0x1C DUP4 PUSH2 0x199B JUMP JUMPDEST SWAP2 POP PUSH2 0x2910 DUP3 PUSH2 0x28CF JUMP JUMPDEST PUSH1 0x20 DUP3 ADD SWAP1 POP SWAP2 SWAP1 POP JUMP JUMPDEST PUSH1 0x0 PUSH1 0x20 DUP3 ADD SWAP1 POP DUP2 DUP2 SUB PUSH1 0x0 DUP4 ADD MSTORE PUSH2 0x2934 DUP2 PUSH2 0x28F8 JUMP JUMPDEST SWAP1 POP SWAP2 SWAP1 POP JUMP JUMPDEST PUSH32 0x4552433732313A207472616E736665722066726F6D20696E636F727265637420 PUSH1 0x0 DUP3 ADD MSTORE PUSH32 0x6F776E6572000000000000000000000000000000000000000000000000000000 PUSH1 0x20 DUP3 ADD MSTORE POP JUMP JUMPDEST PUSH1 0x0 PUSH2 0x2997 PUSH1 0x25 DUP4 PUSH2 0x199B JUMP JUMPDEST SWAP2 POP PUSH2 0x29A2 DUP3 PUSH2 0x293B JUMP JUMPDEST PUSH1 0x40 DUP3 ADD SWAP1 POP SWAP2 SWAP1 POP JUMP JUMPDEST PUSH1 0x0 PUSH1 0x20 DUP3 ADD SWAP1 POP DUP2 DUP2 SUB PUSH1 0x0 DUP4 ADD MSTORE PUSH2 0x29C6 DUP2 PUSH2 0x298A JUMP JUMPDEST SWAP1 POP SWAP2 SWAP1 POP JUMP JUMPDEST PUSH32 0x4552433732313A207472616E7366657220746F20746865207A65726F20616464 PUSH1 0x0 DUP3 ADD MSTORE PUSH32 0x7265737300000000000000000000000000000000000000000000000000000000 PUSH1 0x20 DUP3 ADD MSTORE POP JUMP JUMPDEST PUSH1 0x0 PUSH2 0x2A29 PUSH1 0x24 DUP4 PUSH2 0x199B JUMP JUMPDEST SWAP2 POP PUSH2 0x2A34 DUP3 PUSH2 0x29CD JUMP JUMPDEST PUSH1 0x40 DUP3 ADD SWAP1 POP SWAP2 SWAP1 POP JUMP JUMPDEST PUSH1 0x0 PUSH1 0x20 DUP3 ADD SWAP1 POP DUP2 DUP2 SUB PUSH1 0x0 DUP4 ADD MSTORE PUSH2 0x2A58 DUP2 PUSH2 0x2A1C JUMP JUMPDEST SWAP1 POP SWAP2 SWAP1 POP JUMP JUMPDEST PUSH32 0x4552433732313A20617070726F766520746F2063616C6C657200000000000000 PUSH1 0x0 DUP3 ADD MSTORE POP JUMP JUMPDEST PUSH1 0x0 PUSH2 0x2A95 PUSH1 0x19 DUP4 PUSH2 0x199B JUMP JUMPDEST SWAP2 POP PUSH2 0x2AA0 DUP3 PUSH2 0x2A5F JUMP JUMPDEST PUSH1 0x20 DUP3 ADD SWAP1 POP SWAP2 SWAP1 POP JUMP JUMPDEST PUSH1 0x0 PUSH1 0x20 DUP3 ADD SWAP1 POP DUP2 DUP2 SUB PUSH1 0x0 DUP4 ADD MSTORE PUSH2 0x2AC4 DUP2 PUSH2 0x2A88 JUMP JUMPDEST SWAP1 POP SWAP2 SWAP1 POP JUMP JUMPDEST PUSH32 0x4552433732313A207472616E7366657220746F206E6F6E204552433732315265 PUSH1 0x0 DUP3 ADD MSTORE PUSH32 0x63656976657220696D706C656D656E7465720000000000000000000000000000 PUSH1 0x20 DUP3 ADD MSTORE POP JUMP JUMPDEST PUSH1 0x0 PUSH2 0x2B27 PUSH1 0x32 DUP4 PUSH2 0x199B JUMP JUMPDEST SWAP2 POP PUSH2 0x2B32 DUP3 PUSH2 0x2ACB JUMP JUMPDEST PUSH1 0x40 DUP3 ADD SWAP1 POP SWAP2 SWAP1 POP JUMP JUMPDEST PUSH1 0x0 PUSH1 0x20 DUP3 ADD SWAP1 POP DUP2 DUP2 SUB PUSH1 0x0 DUP4 ADD MSTORE PUSH2 0x2B56 DUP2 PUSH2 0x2B1A JUMP JUMPDEST SWAP1 POP SWAP2 SWAP1 POP JUMP JUMPDEST PUSH1 0x0 DUP2 MLOAD SWAP1 POP SWAP2 SWAP1 POP JUMP JUMPDEST PUSH1 0x0 DUP3 DUP3 MSTORE PUSH1 0x20 DUP3 ADD SWAP1 POP SWAP3 SWAP2 POP POP JUMP JUMPDEST PUSH1 0x0 PUSH2 0x2B84 DUP3 PUSH2 0x2B5D JUMP JUMPDEST PUSH2 0x2B8E DUP2 DUP6 PUSH2 0x2B68 JUMP JUMPDEST SWAP4 POP PUSH2 0x2B9E DUP2 DUP6 PUSH1 0x20 DUP7 ADD PUSH2 0x19AC JUMP JUMPDEST PUSH2 0x2BA7 DUP2 PUSH2 0x19D6 JUMP JUMPDEST DUP5 ADD SWAP2 POP POP SWAP3 SWAP2 POP POP JUMP JUMPDEST PUSH1 0x0 PUSH1 0x80 DUP3 ADD SWAP1 POP PUSH2 0x2BC7 PUSH1 0x0 DUP4 ADD DUP8 PUSH2 0x1ACD JUMP JUMPDEST PUSH2 0x2BD4 PUSH1 0x20 DUP4 ADD DUP7 PUSH2 0x1ACD JUMP JUMPDEST PUSH2 0x2BE1 PUSH1 0x40 DUP4 ADD DUP6 PUSH2 0x1966 JUMP JUMPDEST DUP2 DUP2 SUB PUSH1 0x60 DUP4 ADD MSTORE PUSH2 0x2BF3 DUP2 DUP5 PUSH2 0x2B79 JUMP JUMPDEST SWAP1 POP SWAP6 SWAP5 POP POP POP POP POP JUMP JUMPDEST PUSH1 0x0 DUP2 MLOAD SWAP1 POP PUSH2 0x2C0D DUP2 PUSH2 0x18CD JUMP JUMPDEST SWAP3 SWAP2 POP POP JUMP JUMPDEST PUSH1 0x0 PUSH1 0x20 DUP3 DUP5 SUB SLT ISZERO PUSH2 0x2C29 JUMPI PUSH2 0x2C28 PUSH2 0x1897 JUMP JUMPDEST JUMPDEST PUSH1 0x0 PUSH2 0x2C37 DUP5 DUP3 DUP6 ADD PUSH2 0x2BFE JUMP JUMPDEST SWAP2 POP POP SWAP3 SWAP2 POP POP JUMP INVALID PUSH9 0x747470733A2F2F616E PUSH5 0x726F6D6564 PUSH2 0x2E63 PUSH20 0x2E76697267696E69612E6564752F6363632F6970 PUSH7 0x732F66696C6573 0x2F LOG2 PUSH5 0x6970667358 0x22 SLT KECCAK256 RETURNDATASIZE PUSH12 0x25C283D43B40A8F8A70D9012 PUSH11 0xDDDAD1E7C798F1CCB2AB4 0xE8 0x4E RETURNDATACOPY INVALID PUSH20 0xC364736F6C634300081200330000000000000000 "
		},
		"gasEstimates": {
			"creation": {
				"codeDepositCost": "2444600",
				"executionCost": "infinite",
				"totalCost": "infinite"
			},
			"external": {
				"addMember(address)": "infinite",
				"closeProposal(uint256)": "infinite",
				"curator()": "2602",
				"howToJoin()": "infinite",
				"isMember(address)": "infinite",
				"minProposalDebatePeriod()": "395",
				"newProposal(address,uint256,string,uint256)": "infinite",
				"numberOfProposals()": "2452",
				"proposals(uint256)": "infinite",
				"purpose()": "infinite",
				"requestMembership()": "infinite",
				"reservedEther()": "2474",
				"substring(string,uint256,uint256)": "infinite",
				"supportsInterface(bytes4)": "730",
				"tokens()": "2559",
				"vote(uint256,bool)": "infinite",
				"votedNo(address,uint256)": "3177",
				"votedYes(address,uint256)": "3197"
			}
		},
		"methodIdentifiers": {
			"addMember(address)": "ca6d56dc",
			"closeProposal(uint256)": "0386a016",
			"curator()": "e66f53b7",
			"howToJoin()": "c65c90cc",
			"isMember(address)": "a230c524",
			"minProposalDebatePeriod()": "d6b78768",
			"newProposal(address,uint256,string,uint256)": "2e6fb097",
			"numberOfProposals()": "8d7af473",
			"proposals(uint256)": "013cf08b",
			"purpose()": "70740aab",
			"requestMembership()": "7b10b293",
			"reservedEther()": "237b2197",
			"substring(string,uint256,uint256)": "1dcd9b55",
			"supportsInterface(bytes4)": "01ffc9a7",
			"tokens()": "9d63848a",
			"vote(uint256,bool)": "c9d27afe",
			"votedNo(address,uint256)": "1a384287",
			"votedYes(address,uint256)": "ea3fad66"
		}
	},
	"abi": [
		{
			"inputs": [],
			"stateMutability": "nonpayable",
			"type": "constructor"
		},
		{
			"anonymous": false,
			"inputs": [
				{
					"indexed": true,
					"internalType": "uint256",
					"name": "proposalID",
					"type": "uint256"
				},
				{
					"indexed": true,
					"internalType": "address",
					"name": "recipient",
					"type": "address"
				},
				{
					"indexed": true,
					"internalType": "uint256",
					"name": "amount",
					"type": "uint256"
				},
				{
					"indexed": false,
					"internalType": "string",
					"name": "description",
					"type": "string"
				}
			],
			"name": "NewProposal",
			"type": "event"
		},
		{
			"anonymous": false,
			"inputs": [
				{
					"indexed": true,
					"internalType": "uint256",
					"name": "proposalID",
					"type": "uint256"
				},
				{
					"indexed": true,
					"internalType": "bool",
					"name": "result",
					"type": "bool"
				}
			],
			"name": "ProposalClosed",
			"type": "event"
		},
		{
			"anonymous": false,
			"inputs": [
				{
					"indexed": true,
					"internalType": "uint256",
					"name": "proposalID",
					"type": "uint256"
				},
				{
					"indexed": true,
					"internalType": "bool",
					"name": "position",
					"type": "bool"
				},
				{
					"indexed": true,
					"internalType": "address",
					"name": "voter",
					"type": "address"
				}
			],
			"name": "Voted",
			"type": "event"
		},
		{
			"inputs": [
				{
					"internalType": "address",
					"name": "who",
					"type": "address"
				}
			],
			"name": "addMember",
			"outputs": [],
			"stateMutability": "nonpayable",
			"type": "function"
		},
		{
			"inputs": [
				{
					"internalType": "uint256",
					"name": "proposalID",
					"type": "uint256"
				}
			],
			"name": "closeProposal",
			"outputs": [],
			"stateMutability": "nonpayable",
			"type": "function"
		},
		{
			"inputs": [],
			"name": "curator",
			"outputs": [
				{
					"internalType": "address",
					"name": "",
					"type": "address"
				}
			],
			"stateMutability": "view",
			"type": "function"
		},
		{
			"inputs": [],
			"name": "howToJoin",
			"outputs": [
				{
					"internalType": "string",
					"name": "",
					"type": "string"
				}
			],
			"stateMutability": "view",
			"type": "function"
		},
		{
			"inputs": [
				{
					"internalType": "address",
					"name": "who",
					"type": "address"
				}
			],
			"name": "isMember",
			"outputs": [
				{
					"internalType": "bool",
					"name": "",
					"type": "bool"
				}
			],
			"stateMutability": "view",
			"type": "function"
		},
		{
			"inputs": [],
			"name": "minProposalDebatePeriod",
			"outputs": [
				{
					"internalType": "uint256",
					"name": "",
					"type": "uint256"
				}
			],
			"stateMutability": "view",
			"type": "function"
		},
		{
			"inputs": [
				{
					"internalType": "address",
					"name": "recipient",
					"type": "address"
				},
				{
					"internalType": "uint256",
					"name": "amount",
					"type": "uint256"
				},
				{
					"internalType": "string",
					"name": "description",
					"type": "string"
				},
				{
					"internalType": "uint256",
					"name": "debatingPeriod",
					"type": "uint256"
				}
			],
			"name": "newProposal",
			"outputs": [
				{
					"internalType": "uint256",
					"name": "",
					"type": "uint256"
				}
			],
			"stateMutability": "payable",
			"type": "function"
		},
		{
			"inputs": [],
			"name": "numberOfProposals",
			"outputs": [
				{
					"internalType": "uint256",
					"name": "",
					"type": "uint256"
				}
			],
			"stateMutability": "view",
			"type": "function"
		},
		{
			"inputs": [
				{
					"internalType": "uint256",
					"name": "",
					"type": "uint256"
				}
			],
			"name": "proposals",
			"outputs": [
				{
					"internalType": "address",
					"name": "recipient",
					"type": "address"
				},
				{
					"internalType": "uint256",
					"name": "amount",
					"type": "uint256"
				},
				{
					"internalType": "string",
					"name": "description",
					"type": "string"
				},
				{
					"internalType": "uint256",
					"name": "votingDeadline",
					"type": "uint256"
				},
				{
					"internalType": "bool",
					"name": "open",
					"type": "bool"
				},
				{
					"internalType": "bool",
					"name": "proposalPassed",
					"type": "bool"
				},
				{
					"internalType": "uint256",
					"name": "yea",
					"type": "uint256"
				},
				{
					"internalType": "uint256",
					"name": "nay",
					"type": "uint256"
				},
				{
					"internalType": "address",
					"name": "creator",
					"type": "address"
				}
			],
			"stateMutability": "view",
			"type": "function"
		},
		{
			"inputs": [],
			"name": "purpose",
			"outputs": [
				{
					"internalType": "string",
					"name": "",
					"type": "string"
				}
			],
			"stateMutability": "view",
			"type": "function"
		},
		{
			"inputs": [],
			"name": "requestMembership",
			"outputs": [],
			"stateMutability": "nonpayable",
			"type": "function"
		},
		{
			"inputs": [],
			"name": "reservedEther",
			"outputs": [
				{
					"internalType": "uint256",
					"name": "",
					"type": "uint256"
				}
			],
			"stateMutability": "view",
			"type": "function"
		},
		{
			"inputs": [
				{
					"internalType": "string",
					"name": "str",
					"type": "string"
				},
				{
					"internalType": "uint256",
					"name": "startIndex",
					"type": "uint256"
				},
				{
					"internalType": "uint256",
					"name": "endIndex",
					"type": "uint256"
				}
			],
			"name": "substring",
			"outputs": [
				{
					"internalType": "string",
					"name": "",
					"type": "string"
				}
			],
			"stateMutability": "pure",
			"type": "function"
		},
		{
			"inputs": [
				{
					"internalType": "bytes4",
					"name": "interfaceId",
					"type": "bytes4"
				}
			],
			"name": "supportsInterface",
			"outputs": [
				{
					"internalType": "bool",
					"name": "",
					"type": "bool"
				}
			],
			"stateMutability": "pure",
			"type": "function"
		},
		{
			"inputs": [],
			"name": "tokens",
			"outputs": [
				{
					"internalType": "address",
					"name": "",
					"type": "address"
				}
			],
			"stateMutability": "view",
			"type": "function"
		},
		{
			"inputs": [
				{
					"internalType": "uint256",
					"name": "proposalID",
					"type": "uint256"
				},
				{
					"internalType": "bool",
					"name": "supportsProposal",
					"type": "bool"
				}
			],
			"name": "vote",
			"outputs": [],
			"stateMutability": "nonpayable",
			"type": "function"
		},
		{
			"inputs": [
				{
					"internalType": "address",
					"name": "",
					"type": "address"
				},
				{
					"internalType": "uint256",
					"name": "",
					"type": "uint256"
				}
			],
			"name": "votedNo",
			"outputs": [
				{
					"internalType": "bool",
					"name": "",
					"type": "bool"
				}
			],
			"stateMutability": "view",
			"type": "function"
		},
		{
			"inputs": [
				{
					"internalType": "address",
					"name": "",
					"type": "address"
				},
				{
					"internalType": "uint256",
					"name": "",
					"type": "uint256"
				}
			],
			"name": "votedYes",
			"outputs": [
				{
					"internalType": "bool",
					"name": "",
					"type": "bool"
				}
			],
			"stateMutability": "view",
			"type": "function"
		},
		{
			"stateMutability": "payable",
			"type": "receive"
		}
	]
}