{
	"data": {
		"bytecode": {
			"linkReferences": {},
			"object": "608060405234801561001057600080fd5b50611879806100206000396000f3fe608060405234801561001057600080fd5b50600436106100935760003560e01c80637d210103116100665780637d2101031461015857806394bbfc0d14610174578063b30906d4146101a4578063b7f1d527146101d8578063d72115dc146101f657610093565b806301ffc9a714610098578063073f98fd146100c857806331f9a55f146100f857806376f30f7814610128575b600080fd5b6100b260048036038101906100ad9190610b76565b610212565b6040516100bf9190610bbe565b60405180910390f35b6100e260048036038101906100dd9190610c37565b6102ac565b6040516100ef9190610bbe565b60405180910390f35b610112600480360381019061010d9190610daa565b6102cc565b60405161011f9190610e0c565b60405180910390f35b610142600480360381019061013d9190610daa565b6102fa565b60405161014f9190610bbe565b60405180910390f35b610172600480360381019061016d9190610e5d565b610330565b005b61018e60048036038101906101899190610c37565b61066e565b60405161019b9190610e0c565b60405180910390f35b6101be60048036038101906101b99190610ee5565b610686565b6040516101cf959493929190610faf565b60405180910390f35b6101e06107ec565b6040516101ed9190610e0c565b60405180910390f35b610210600480360381019061020b9190611010565b6107f2565b005b60007f7b89c05c000000000000000000000000000000000000000000000000000000007bffffffffffffffffffffffffffffffffffffffffffffffffffffffff1916827bffffffffffffffffffffffffffffffffffffffffffffffffffffffff191614806102a557506301ffc9a760e01b827bffffffffffffffffffffffffffffffffffffffffffffffffffffffff1916145b9050919050565b60016020528060005260406000206000915054906101000a900460ff1681565b6003818051602081018201805184825260208301602085012081835280955050505050506000915090505481565b6002818051602081018201805184825260208301602085012081835280955050505050506000915054906101000a900460ff1681565b7fffffffffffffffffffffffffffffffffffffffffffffffffffffffffffffff9c8112158015610361575060648113155b6103a0576040517f08c379a0000000000000000000000000000000000000000000000000000000008152600401610397906110fa565b60405180910390fd5b600081036103e3576040517f08c379a00000000000000000000000000000000000000000000000000000000081526004016103da90611166565b60405180910390fd5b600160003373ffffffffffffffffffffffffffffffffffffffff1673ffffffffffffffffffffffffffffffffffffffff16815260200190815260200160002060009054906101000a900460ff1661046f576040517f08c379a0000000000000000000000000000000000000000000000000000000008152600401610466906111f8565b60405180910390fd5b60028260405161047f9190611254565b908152602001604051809103902060009054906101000a900460ff166104da576040517f08c379a00000000000000000000000000000000000000000000000000000000081526004016104d1906112b7565b60405180910390fd5b6000600460003373ffffffffffffffffffffffffffffffffffffffff1673ffffffffffffffffffffffffffffffffffffffff16815260200190815260200160002054905060006003846040516105309190611254565b90815260200160405180910390205490503373ffffffffffffffffffffffffffffffffffffffff1660008083815260200190815260200160002060030160009054906101000a900473ffffffffffffffffffffffffffffffffffffffff1673ffffffffffffffffffffffffffffffffffffffff16036105e4576040517f08c379a00000000000000000000000000000000000000000000000000000000081526004016105db90611349565b60405180910390fd5b8260008084815260200190815260200160002060040160008282546106099190611398565b9250508190555082600080838152602001908152602001600020600401600082825461063591906113dc565b925050819055507f82b7f5026f6c6bbca9f5352b675d81ff78ea25c87a86b9f68bb8310945a11ebc60405160405180910390a150505050565b60046020528060005260406000206000915090505481565b60006020528060005260406000206000915090508060000154908060010180546106af9061144e565b80601f01602080910402602001604051908101604052809291908181526020018280546106db9061144e565b80156107285780601f106106fd57610100808354040283529160200191610728565b820191906000526020600020905b81548152906001019060200180831161070b57829003601f168201915b50505050509080600201805461073d9061144e565b80601f01602080910402602001604051908101604052809291908181526020018280546107699061144e565b80156107b65780601f1061078b576101008083540402835291602001916107b6565b820191906000526020600020905b81548152906001019060200180831161079957829003601f168201915b5050505050908060030160009054906101000a900473ffffffffffffffffffffffffffffffffffffffff16908060040154905085565b60055481565b6002826040516108029190611254565b908152602001604051809103902060009054906101000a900460ff161561085e576040517f08c379a0000000000000000000000000000000000000000000000000000000008152600401610855906114cb565b60405180910390fd5b600160003373ffffffffffffffffffffffffffffffffffffffff1673ffffffffffffffffffffffffffffffffffffffff16815260200190815260200160002060009054906101000a900460ff16156108eb576040517f08c379a00000000000000000000000000000000000000000000000000000000081526004016108e29061155d565b60405180910390fd5b60016002836040516108fd9190611254565b908152602001604051809103902060006101000a81548160ff02191690831515021790555060018060003373ffffffffffffffffffffffffffffffffffffffff1673ffffffffffffffffffffffffffffffffffffffff16815260200190815260200160002060006101000a81548160ff02191690831515021790555060055460038360405161098c9190611254565b908152602001604051809103902081905550600554600460003373ffffffffffffffffffffffffffffffffffffffff1673ffffffffffffffffffffffffffffffffffffffff168152602001908152602001600020819055506040518060a0016040528060055481526020018381526020018281526020013373ffffffffffffffffffffffffffffffffffffffff16815260200160008152506000806005548152602001908152602001600020600082015181600001556020820151816001019081610a579190611729565b506040820151816002019081610a6d9190611729565b5060608201518160030160006101000a81548173ffffffffffffffffffffffffffffffffffffffff021916908373ffffffffffffffffffffffffffffffffffffffff1602179055506080820151816004015590505060056000815480929190610ad5906117fb565b91905055507f7e42369838b7c7fafe8bba944990b5fee45d6a0afcd52154127c1784c47f5e4560405160405180910390a15050565b6000604051905090565b600080fd5b600080fd5b60007fffffffff0000000000000000000000000000000000000000000000000000000082169050919050565b610b5381610b1e565b8114610b5e57600080fd5b50565b600081359050610b7081610b4a565b92915050565b600060208284031215610b8c57610b8b610b14565b5b6000610b9a84828501610b61565b91505092915050565b60008115159050919050565b610bb881610ba3565b82525050565b6000602082019050610bd36000830184610baf565b92915050565b600073ffffffffffffffffffffffffffffffffffffffff82169050919050565b6000610c0482610bd9565b9050919050565b610c1481610bf9565b8114610c1f57600080fd5b50565b600081359050610c3181610c0b565b92915050565b600060208284031215610c4d57610c4c610b14565b5b6000610c5b84828501610c22565b91505092915050565b600080fd5b600080fd5b6000601f19601f8301169050919050565b7f4e487b7100000000000000000000000000000000000000000000000000000000600052604160045260246000fd5b610cb782610c6e565b810181811067ffffffffffffffff82111715610cd657610cd5610c7f565b5b80604052505050565b6000610ce9610b0a565b9050610cf58282610cae565b919050565b600067ffffffffffffffff821115610d1557610d14610c7f565b5b610d1e82610c6e565b9050602081019050919050565b82818337600083830152505050565b6000610d4d610d4884610cfa565b610cdf565b905082815260208101848484011115610d6957610d68610c69565b5b610d74848285610d2b565b509392505050565b600082601f830112610d9157610d90610c64565b5b8135610da1848260208601610d3a565b91505092915050565b600060208284031215610dc057610dbf610b14565b5b600082013567ffffffffffffffff811115610dde57610ddd610b19565b5b610dea84828501610d7c565b91505092915050565b6000819050919050565b610e0681610df3565b82525050565b6000602082019050610e216000830184610dfd565b92915050565b6000819050919050565b610e3a81610e27565b8114610e4557600080fd5b50565b600081359050610e5781610e31565b92915050565b60008060408385031215610e7457610e73610b14565b5b600083013567ffffffffffffffff811115610e9257610e91610b19565b5b610e9e85828601610d7c565b9250506020610eaf85828601610e48565b9150509250929050565b610ec281610df3565b8114610ecd57600080fd5b50565b600081359050610edf81610eb9565b92915050565b600060208284031215610efb57610efa610b14565b5b6000610f0984828501610ed0565b91505092915050565b600081519050919050565b600082825260208201905092915050565b60005b83811015610f4c578082015181840152602081019050610f31565b60008484015250505050565b6000610f6382610f12565b610f6d8185610f1d565b9350610f7d818560208601610f2e565b610f8681610c6e565b840191505092915050565b610f9a81610bf9565b82525050565b610fa981610e27565b82525050565b600060a082019050610fc46000830188610dfd565b8181036020830152610fd68187610f58565b90508181036040830152610fea8186610f58565b9050610ff96060830185610f91565b6110066080830184610fa0565b9695505050505050565b6000806040838503121561102757611026610b14565b5b600083013567ffffffffffffffff81111561104557611044610b19565b5b61105185828601610d7c565b925050602083013567ffffffffffffffff81111561107257611071610b19565b5b61107e85828601610d7c565b9150509250929050565b7f616d6f756e7473206d757374206265206265747765656e202d31303020616e6460008201527f2031303000000000000000000000000000000000000000000000000000000000602082015250565b60006110e4602483610f1d565b91506110ef82611088565b604082019050919050565b60006020820190508181036000830152611113816110d7565b9050919050565b7f616d6f756e742063616e6e6f74206265207a65726f0000000000000000000000600082015250565b6000611150601583610f1d565b915061115b8261111a565b602082019050919050565b6000602082019050818103600083015261117f81611143565b9050919050565b7f796f7572206164647265737320646f6573206e6f74206861766520616e20616c60008201527f6961730000000000000000000000000000000000000000000000000000000000602082015250565b60006111e2602383610f1d565b91506111ed82611186565b604082019050919050565b60006020820190508181036000830152611211816111d5565b9050919050565b600081905092915050565b600061122e82610f12565b6112388185611218565b9350611248818560208601610f2e565b80840191505092915050565b60006112608284611223565b915081905092915050565b7f737472696e6720656e747279206e616d6520646f6573206e6f74206578697374600082015250565b60006112a1602083610f1d565b91506112ac8261126b565b602082019050919050565b600060208201905081810360008301526112d081611294565b9050919050565b7f796f752063616e6e6f7420656e7465722061206465627420746f20796f75727360008201527f656c660000000000000000000000000000000000000000000000000000000000602082015250565b6000611333602383610f1d565b915061133e826112d7565b604082019050919050565b6000602082019050818103600083015261136281611326565b9050919050565b7f4e487b7100000000000000000000000000000000000000000000000000000000600052601160045260246000fd5b60006113a382610e27565b91506113ae83610e27565b9250828201905082811215600083121683821260008412151617156113d6576113d5611369565b5b92915050565b60006113e782610e27565b91506113f283610e27565b925082820390508181126000841216828213600085121516171561141957611418611369565b5b92915050565b7f4e487b7100000000000000000000000000000000000000000000000000000000600052602260045260246000fd5b6000600282049050600182168061146657607f821691505b6020821081036114795761147861141f565b5b50919050565b7f737472696e6720656e747279206e616d6520616c726561647920657869737473600082015250565b60006114b5602083610f1d565b91506114c08261147f565b602082019050919050565b600060208201905081810360008301526114e4816114a8565b9050919050565b7f796f7572206164647265737320616c72656164792068617320616e20616c696160008201527f7300000000000000000000000000000000000000000000000000000000000000602082015250565b6000611547602183610f1d565b9150611552826114eb565b604082019050919050565b600060208201905081810360008301526115768161153a565b9050919050565b60008190508160005260206000209050919050565b60006020601f8301049050919050565b600082821b905092915050565b6000600883026115df7fffffffffffffffffffffffffffffffffffffffffffffffffffffffffffffffff826115a2565b6115e986836115a2565b95508019841693508086168417925050509392505050565b6000819050919050565b600061162661162161161c84610df3565b611601565b610df3565b9050919050565b6000819050919050565b6116408361160b565b61165461164c8261162d565b8484546115af565b825550505050565b600090565b61166961165c565b611674818484611637565b505050565b5b818110156116985761168d600082611661565b60018101905061167a565b5050565b601f8211156116dd576116ae8161157d565b6116b784611592565b810160208510156116c6578190505b6116da6116d285611592565b830182611679565b50505b505050565b600082821c905092915050565b6000611700600019846008026116e2565b1980831691505092915050565b600061171983836116ef565b9150826002028217905092915050565b61173282610f12565b67ffffffffffffffff81111561174b5761174a610c7f565b5b611755825461144e565b61176082828561169c565b600060209050601f8311600181146117935760008415611781578287015190505b61178b858261170d565b8655506117f3565b601f1984166117a18661157d565b60005b828110156117c9578489015182556001820191506020850194506020810190506117a4565b868310156117e657848901516117e2601f8916826116ef565b8355505b6001600288020188555050505b505050505050565b600061180682610df3565b91507fffffffffffffffffffffffffffffffffffffffffffffffffffffffffffffffff820361183857611837611369565b5b60018201905091905056fea2646970667358221220ae02ee0941851d4adcc8ab9d0f19050e3e127952f4727dae822b025437d72abc64736f6c63430008120033",
			"opcodes": "PUSH1 0x80 PUSH1 0x40 MSTORE CALLVALUE DUP1 ISZERO PUSH2 0x10 JUMPI PUSH1 0x0 DUP1 REVERT JUMPDEST POP PUSH2 0x1879 DUP1 PUSH2 0x20 PUSH1 0x0 CODECOPY PUSH1 0x0 RETURN INVALID PUSH1 0x80 PUSH1 0x40 MSTORE CALLVALUE DUP1 ISZERO PUSH2 0x10 JUMPI PUSH1 0x0 DUP1 REVERT JUMPDEST POP PUSH1 0x4 CALLDATASIZE LT PUSH2 0x93 JUMPI PUSH1 0x0 CALLDATALOAD PUSH1 0xE0 SHR DUP1 PUSH4 0x7D210103 GT PUSH2 0x66 JUMPI DUP1 PUSH4 0x7D210103 EQ PUSH2 0x158 JUMPI DUP1 PUSH4 0x94BBFC0D EQ PUSH2 0x174 JUMPI DUP1 PUSH4 0xB30906D4 EQ PUSH2 0x1A4 JUMPI DUP1 PUSH4 0xB7F1D527 EQ PUSH2 0x1D8 JUMPI DUP1 PUSH4 0xD72115DC EQ PUSH2 0x1F6 JUMPI PUSH2 0x93 JUMP JUMPDEST DUP1 PUSH4 0x1FFC9A7 EQ PUSH2 0x98 JUMPI DUP1 PUSH4 0x73F98FD EQ PUSH2 0xC8 JUMPI DUP1 PUSH4 0x31F9A55F EQ PUSH2 0xF8 JUMPI DUP1 PUSH4 0x76F30F78 EQ PUSH2 0x128 JUMPI JUMPDEST PUSH1 0x0 DUP1 REVERT JUMPDEST PUSH2 0xB2 PUSH1 0x4 DUP1 CALLDATASIZE SUB DUP2 ADD SWAP1 PUSH2 0xAD SWAP2 SWAP1 PUSH2 0xB76 JUMP JUMPDEST PUSH2 0x212 JUMP JUMPDEST PUSH1 0x40 MLOAD PUSH2 0xBF SWAP2 SWAP1 PUSH2 0xBBE JUMP JUMPDEST PUSH1 0x40 MLOAD DUP1 SWAP2 SUB SWAP1 RETURN JUMPDEST PUSH2 0xE2 PUSH1 0x4 DUP1 CALLDATASIZE SUB DUP2 ADD SWAP1 PUSH2 0xDD SWAP2 SWAP1 PUSH2 0xC37 JUMP JUMPDEST PUSH2 0x2AC JUMP JUMPDEST PUSH1 0x40 MLOAD PUSH2 0xEF SWAP2 SWAP1 PUSH2 0xBBE JUMP JUMPDEST PUSH1 0x40 MLOAD DUP1 SWAP2 SUB SWAP1 RETURN JUMPDEST PUSH2 0x112 PUSH1 0x4 DUP1 CALLDATASIZE SUB DUP2 ADD SWAP1 PUSH2 0x10D SWAP2 SWAP1 PUSH2 0xDAA JUMP JUMPDEST PUSH2 0x2CC JUMP JUMPDEST PUSH1 0x40 MLOAD PUSH2 0x11F SWAP2 SWAP1 PUSH2 0xE0C JUMP JUMPDEST PUSH1 0x40 MLOAD DUP1 SWAP2 SUB SWAP1 RETURN JUMPDEST PUSH2 0x142 PUSH1 0x4 DUP1 CALLDATASIZE SUB DUP2 ADD SWAP1 PUSH2 0x13D SWAP2 SWAP1 PUSH2 0xDAA JUMP JUMPDEST PUSH2 0x2FA JUMP JUMPDEST PUSH1 0x40 MLOAD PUSH2 0x14F SWAP2 SWAP1 PUSH2 0xBBE JUMP JUMPDEST PUSH1 0x40 MLOAD DUP1 SWAP2 SUB SWAP1 RETURN JUMPDEST PUSH2 0x172 PUSH1 0x4 DUP1 CALLDATASIZE SUB DUP2 ADD SWAP1 PUSH2 0x16D SWAP2 SWAP1 PUSH2 0xE5D JUMP JUMPDEST PUSH2 0x330 JUMP JUMPDEST STOP JUMPDEST PUSH2 0x18E PUSH1 0x4 DUP1 CALLDATASIZE SUB DUP2 ADD SWAP1 PUSH2 0x189 SWAP2 SWAP1 PUSH2 0xC37 JUMP JUMPDEST PUSH2 0x66E JUMP JUMPDEST PUSH1 0x40 MLOAD PUSH2 0x19B SWAP2 SWAP1 PUSH2 0xE0C JUMP JUMPDEST PUSH1 0x40 MLOAD DUP1 SWAP2 SUB SWAP1 RETURN JUMPDEST PUSH2 0x1BE PUSH1 0x4 DUP1 CALLDATASIZE SUB DUP2 ADD SWAP1 PUSH2 0x1B9 SWAP2 SWAP1 PUSH2 0xEE5 JUMP JUMPDEST PUSH2 0x686 JUMP JUMPDEST PUSH1 0x40 MLOAD PUSH2 0x1CF SWAP6 SWAP5 SWAP4 SWAP3 SWAP2 SWAP1 PUSH2 0xFAF JUMP JUMPDEST PUSH1 0x40 MLOAD DUP1 SWAP2 SUB SWAP1 RETURN JUMPDEST PUSH2 0x1E0 PUSH2 0x7EC JUMP JUMPDEST PUSH1 0x40 MLOAD PUSH2 0x1ED SWAP2 SWAP1 PUSH2 0xE0C JUMP JUMPDEST PUSH1 0x40 MLOAD DUP1 SWAP2 SUB SWAP1 RETURN JUMPDEST PUSH2 0x210 PUSH1 0x4 DUP1 CALLDATASIZE SUB DUP2 ADD SWAP1 PUSH2 0x20B SWAP2 SWAP1 PUSH2 0x1010 JUMP JUMPDEST PUSH2 0x7F2 JUMP JUMPDEST STOP JUMPDEST PUSH1 0x0 PUSH32 0x7B89C05C00000000000000000000000000000000000000000000000000000000 PUSH28 0xFFFFFFFFFFFFFFFFFFFFFFFFFFFFFFFFFFFFFFFFFFFFFFFFFFFFFFFF NOT AND DUP3 PUSH28 0xFFFFFFFFFFFFFFFFFFFFFFFFFFFFFFFFFFFFFFFFFFFFFFFFFFFFFFFF NOT AND EQ DUP1 PUSH2 0x2A5 JUMPI POP PUSH4 0x1FFC9A7 PUSH1 0xE0 SHL DUP3 PUSH28 0xFFFFFFFFFFFFFFFFFFFFFFFFFFFFFFFFFFFFFFFFFFFFFFFFFFFFFFFF NOT AND EQ JUMPDEST SWAP1 POP SWAP2 SWAP1 POP JUMP JUMPDEST PUSH1 0x1 PUSH1 0x20 MSTORE DUP1 PUSH1 0x0 MSTORE PUSH1 0x40 PUSH1 0x0 KECCAK256 PUSH1 0x0 SWAP2 POP SLOAD SWAP1 PUSH2 0x100 EXP SWAP1 DIV PUSH1 0xFF AND DUP2 JUMP JUMPDEST PUSH1 0x3 DUP2 DUP1 MLOAD PUSH1 0x20 DUP2 ADD DUP3 ADD DUP1 MLOAD DUP5 DUP3 MSTORE PUSH1 0x20 DUP4 ADD PUSH1 0x20 DUP6 ADD KECCAK256 DUP2 DUP4 MSTORE DUP1 SWAP6 POP POP POP POP POP POP PUSH1 0x0 SWAP2 POP SWAP1 POP SLOAD DUP2 JUMP JUMPDEST PUSH1 0x2 DUP2 DUP1 MLOAD PUSH1 0x20 DUP2 ADD DUP3 ADD DUP1 MLOAD DUP5 DUP3 MSTORE PUSH1 0x20 DUP4 ADD PUSH1 0x20 DUP6 ADD KECCAK256 DUP2 DUP4 MSTORE DUP1 SWAP6 POP POP POP POP POP POP PUSH1 0x0 SWAP2 POP SLOAD SWAP1 PUSH2 0x100 EXP SWAP1 DIV PUSH1 0xFF AND DUP2 JUMP JUMPDEST PUSH32 0xFFFFFFFFFFFFFFFFFFFFFFFFFFFFFFFFFFFFFFFFFFFFFFFFFFFFFFFFFFFFFF9C DUP2 SLT ISZERO DUP1 ISZERO PUSH2 0x361 JUMPI POP PUSH1 0x64 DUP2 SGT ISZERO JUMPDEST PUSH2 0x3A0 JUMPI PUSH1 0x40 MLOAD PUSH32 0x8C379A000000000000000000000000000000000000000000000000000000000 DUP2 MSTORE PUSH1 0x4 ADD PUSH2 0x397 SWAP1 PUSH2 0x10FA JUMP JUMPDEST PUSH1 0x40 MLOAD DUP1 SWAP2 SUB SWAP1 REVERT JUMPDEST PUSH1 0x0 DUP2 SUB PUSH2 0x3E3 JUMPI PUSH1 0x40 MLOAD PUSH32 0x8C379A000000000000000000000000000000000000000000000000000000000 DUP2 MSTORE PUSH1 0x4 ADD PUSH2 0x3DA SWAP1 PUSH2 0x1166 JUMP JUMPDEST PUSH1 0x40 MLOAD DUP1 SWAP2 SUB SWAP1 REVERT JUMPDEST PUSH1 0x1 PUSH1 0x0 CALLER PUSH20 0xFFFFFFFFFFFFFFFFFFFFFFFFFFFFFFFFFFFFFFFF AND PUSH20 0xFFFFFFFFFFFFFFFFFFFFFFFFFFFFFFFFFFFFFFFF AND DUP2 MSTORE PUSH1 0x20 ADD SWAP1 DUP2 MSTORE PUSH1 0x20 ADD PUSH1 0x0 KECCAK256 PUSH1 0x0 SWAP1 SLOAD SWAP1 PUSH2 0x100 EXP SWAP1 DIV PUSH1 0xFF AND PUSH2 0x46F JUMPI PUSH1 0x40 MLOAD PUSH32 0x8C379A000000000000000000000000000000000000000000000000000000000 DUP2 MSTORE PUSH1 0x4 ADD PUSH2 0x466 SWAP1 PUSH2 0x11F8 JUMP JUMPDEST PUSH1 0x40 MLOAD DUP1 SWAP2 SUB SWAP1 REVERT JUMPDEST PUSH1 0x2 DUP3 PUSH1 0x40 MLOAD PUSH2 0x47F SWAP2 SWAP1 PUSH2 0x1254 JUMP JUMPDEST SWAP1 DUP2 MSTORE PUSH1 0x20 ADD PUSH1 0x40 MLOAD DUP1 SWAP2 SUB SWAP1 KECCAK256 PUSH1 0x0 SWAP1 SLOAD SWAP1 PUSH2 0x100 EXP SWAP1 DIV PUSH1 0xFF AND PUSH2 0x4DA JUMPI PUSH1 0x40 MLOAD PUSH32 0x8C379A000000000000000000000000000000000000000000000000000000000 DUP2 MSTORE PUSH1 0x4 ADD PUSH2 0x4D1 SWAP1 PUSH2 0x12B7 JUMP JUMPDEST PUSH1 0x40 MLOAD DUP1 SWAP2 SUB SWAP1 REVERT JUMPDEST PUSH1 0x0 PUSH1 0x4 PUSH1 0x0 CALLER PUSH20 0xFFFFFFFFFFFFFFFFFFFFFFFFFFFFFFFFFFFFFFFF AND PUSH20 0xFFFFFFFFFFFFFFFFFFFFFFFFFFFFFFFFFFFFFFFF AND DUP2 MSTORE PUSH1 0x20 ADD SWAP1 DUP2 MSTORE PUSH1 0x20 ADD PUSH1 0x0 KECCAK256 SLOAD SWAP1 POP PUSH1 0x0 PUSH1 0x3 DUP5 PUSH1 0x40 MLOAD PUSH2 0x530 SWAP2 SWAP1 PUSH2 0x1254 JUMP JUMPDEST SWAP1 DUP2 MSTORE PUSH1 0x20 ADD PUSH1 0x40 MLOAD DUP1 SWAP2 SUB SWAP1 KECCAK256 SLOAD SWAP1 POP CALLER PUSH20 0xFFFFFFFFFFFFFFFFFFFFFFFFFFFFFFFFFFFFFFFF AND PUSH1 0x0 DUP1 DUP4 DUP2 MSTORE PUSH1 0x20 ADD SWAP1 DUP2 MSTORE PUSH1 0x20 ADD PUSH1 0x0 KECCAK256 PUSH1 0x3 ADD PUSH1 0x0 SWAP1 SLOAD SWAP1 PUSH2 0x100 EXP SWAP1 DIV PUSH20 0xFFFFFFFFFFFFFFFFFFFFFFFFFFFFFFFFFFFFFFFF AND PUSH20 0xFFFFFFFFFFFFFFFFFFFFFFFFFFFFFFFFFFFFFFFF AND SUB PUSH2 0x5E4 JUMPI PUSH1 0x40 MLOAD PUSH32 0x8C379A000000000000000000000000000000000000000000000000000000000 DUP2 MSTORE PUSH1 0x4 ADD PUSH2 0x5DB SWAP1 PUSH2 0x1349 JUMP JUMPDEST PUSH1 0x40 MLOAD DUP1 SWAP2 SUB SWAP1 REVERT JUMPDEST DUP3 PUSH1 0x0 DUP1 DUP5 DUP2 MSTORE PUSH1 0x20 ADD SWAP1 DUP2 MSTORE PUSH1 0x20 ADD PUSH1 0x0 KECCAK256 PUSH1 0x4 ADD PUSH1 0x0 DUP3 DUP3 SLOAD PUSH2 0x609 SWAP2 SWAP1 PUSH2 0x1398 JUMP JUMPDEST SWAP3 POP POP DUP2 SWAP1 SSTORE POP DUP3 PUSH1 0x0 DUP1 DUP4 DUP2 MSTORE PUSH1 0x20 ADD SWAP1 DUP2 MSTORE PUSH1 0x20 ADD PUSH1 0x0 KECCAK256 PUSH1 0x4 ADD PUSH1 0x0 DUP3 DUP3 SLOAD PUSH2 0x635 SWAP2 SWAP1 PUSH2 0x13DC JUMP JUMPDEST SWAP3 POP POP DUP2 SWAP1 SSTORE POP PUSH32 0x82B7F5026F6C6BBCA9F5352B675D81FF78EA25C87A86B9F68BB8310945A11EBC PUSH1 0x40 MLOAD PUSH1 0x40 MLOAD DUP1 SWAP2 SUB SWAP1 LOG1 POP POP POP POP JUMP JUMPDEST PUSH1 0x4 PUSH1 0x20 MSTORE DUP1 PUSH1 0x0 MSTORE PUSH1 0x40 PUSH1 0x0 KECCAK256 PUSH1 0x0 SWAP2 POP SWAP1 POP SLOAD DUP2 JUMP JUMPDEST PUSH1 0x0 PUSH1 0x20 MSTORE DUP1 PUSH1 0x0 MSTORE PUSH1 0x40 PUSH1 0x0 KECCAK256 PUSH1 0x0 SWAP2 POP SWAP1 POP DUP1 PUSH1 0x0 ADD SLOAD SWAP1 DUP1 PUSH1 0x1 ADD DUP1 SLOAD PUSH2 0x6AF SWAP1 PUSH2 0x144E JUMP JUMPDEST DUP1 PUSH1 0x1F ADD PUSH1 0x20 DUP1 SWAP2 DIV MUL PUSH1 0x20 ADD PUSH1 0x40 MLOAD SWAP1 DUP2 ADD PUSH1 0x40 MSTORE DUP1 SWAP3 SWAP2 SWAP1 DUP2 DUP2 MSTORE PUSH1 0x20 ADD DUP3 DUP1 SLOAD PUSH2 0x6DB SWAP1 PUSH2 0x144E JUMP JUMPDEST DUP1 ISZERO PUSH2 0x728 JUMPI DUP1 PUSH1 0x1F LT PUSH2 0x6FD JUMPI PUSH2 0x100 DUP1 DUP4 SLOAD DIV MUL DUP4 MSTORE SWAP2 PUSH1 0x20 ADD SWAP2 PUSH2 0x728 JUMP JUMPDEST DUP3 ADD SWAP2 SWAP1 PUSH1 0x0 MSTORE PUSH1 0x20 PUSH1 0x0 KECCAK256 SWAP1 JUMPDEST DUP2 SLOAD DUP2 MSTORE SWAP1 PUSH1 0x1 ADD SWAP1 PUSH1 0x20 ADD DUP1 DUP4 GT PUSH2 0x70B JUMPI DUP3 SWAP1 SUB PUSH1 0x1F AND DUP3 ADD SWAP2 JUMPDEST POP POP POP POP POP SWAP1 DUP1 PUSH1 0x2 ADD DUP1 SLOAD PUSH2 0x73D SWAP1 PUSH2 0x144E JUMP JUMPDEST DUP1 PUSH1 0x1F ADD PUSH1 0x20 DUP1 SWAP2 DIV MUL PUSH1 0x20 ADD PUSH1 0x40 MLOAD SWAP1 DUP2 ADD PUSH1 0x40 MSTORE DUP1 SWAP3 SWAP2 SWAP1 DUP2 DUP2 MSTORE PUSH1 0x20 ADD DUP3 DUP1 SLOAD PUSH2 0x769 SWAP1 PUSH2 0x144E JUMP JUMPDEST DUP1 ISZERO PUSH2 0x7B6 JUMPI DUP1 PUSH1 0x1F LT PUSH2 0x78B JUMPI PUSH2 0x100 DUP1 DUP4 SLOAD DIV MUL DUP4 MSTORE SWAP2 PUSH1 0x20 ADD SWAP2 PUSH2 0x7B6 JUMP JUMPDEST DUP3 ADD SWAP2 SWAP1 PUSH1 0x0 MSTORE PUSH1 0x20 PUSH1 0x0 KECCAK256 SWAP1 JUMPDEST DUP2 SLOAD DUP2 MSTORE SWAP1 PUSH1 0x1 ADD SWAP1 PUSH1 0x20 ADD DUP1 DUP4 GT PUSH2 0x799 JUMPI DUP3 SWAP1 SUB PUSH1 0x1F AND DUP3 ADD SWAP2 JUMPDEST POP POP POP POP POP SWAP1 DUP1 PUSH1 0x3 ADD PUSH1 0x0 SWAP1 SLOAD SWAP1 PUSH2 0x100 EXP SWAP1 DIV PUSH20 0xFFFFFFFFFFFFFFFFFFFFFFFFFFFFFFFFFFFFFFFF AND SWAP1 DUP1 PUSH1 0x4 ADD SLOAD SWAP1 POP DUP6 JUMP JUMPDEST PUSH1 0x5 SLOAD DUP2 JUMP JUMPDEST PUSH1 0x2 DUP3 PUSH1 0x40 MLOAD PUSH2 0x802 SWAP2 SWAP1 PUSH2 0x1254 JUMP JUMPDEST SWAP1 DUP2 MSTORE PUSH1 0x20 ADD PUSH1 0x40 MLOAD DUP1 SWAP2 SUB SWAP1 KECCAK256 PUSH1 0x0 SWAP1 SLOAD SWAP1 PUSH2 0x100 EXP SWAP1 DIV PUSH1 0xFF AND ISZERO PUSH2 0x85E JUMPI PUSH1 0x40 MLOAD PUSH32 0x8C379A000000000000000000000000000000000000000000000000000000000 DUP2 MSTORE PUSH1 0x4 ADD PUSH2 0x855 SWAP1 PUSH2 0x14CB JUMP JUMPDEST PUSH1 0x40 MLOAD DUP1 SWAP2 SUB SWAP1 REVERT JUMPDEST PUSH1 0x1 PUSH1 0x0 CALLER PUSH20 0xFFFFFFFFFFFFFFFFFFFFFFFFFFFFFFFFFFFFFFFF AND PUSH20 0xFFFFFFFFFFFFFFFFFFFFFFFFFFFFFFFFFFFFFFFF AND DUP2 MSTORE PUSH1 0x20 ADD SWAP1 DUP2 MSTORE PUSH1 0x20 ADD PUSH1 0x0 KECCAK256 PUSH1 0x0 SWAP1 SLOAD SWAP1 PUSH2 0x100 EXP SWAP1 DIV PUSH1 0xFF AND ISZERO PUSH2 0x8EB JUMPI PUSH1 0x40 MLOAD PUSH32 0x8C379A000000000000000000000000000000000000000000000000000000000 DUP2 MSTORE PUSH1 0x4 ADD PUSH2 0x8E2 SWAP1 PUSH2 0x155D JUMP JUMPDEST PUSH1 0x40 MLOAD DUP1 SWAP2 SUB SWAP1 REVERT JUMPDEST PUSH1 0x1 PUSH1 0x2 DUP4 PUSH1 0x40 MLOAD PUSH2 0x8FD SWAP2 SWAP1 PUSH2 0x1254 JUMP JUMPDEST SWAP1 DUP2 MSTORE PUSH1 0x20 ADD PUSH1 0x40 MLOAD DUP1 SWAP2 SUB SWAP1 KECCAK256 PUSH1 0x0 PUSH2 0x100 EXP DUP2 SLOAD DUP2 PUSH1 0xFF MUL NOT AND SWAP1 DUP4 ISZERO ISZERO MUL OR SWAP1 SSTORE POP PUSH1 0x1 DUP1 PUSH1 0x0 CALLER PUSH20 0xFFFFFFFFFFFFFFFFFFFFFFFFFFFFFFFFFFFFFFFF AND PUSH20 0xFFFFFFFFFFFFFFFFFFFFFFFFFFFFFFFFFFFFFFFF AND DUP2 MSTORE PUSH1 0x20 ADD SWAP1 DUP2 MSTORE PUSH1 0x20 ADD PUSH1 0x0 KECCAK256 PUSH1 0x0 PUSH2 0x100 EXP DUP2 SLOAD DUP2 PUSH1 0xFF MUL NOT AND SWAP1 DUP4 ISZERO ISZERO MUL OR SWAP1 SSTORE POP PUSH1 0x5 SLOAD PUSH1 0x3 DUP4 PUSH1 0x40 MLOAD PUSH2 0x98C SWAP2 SWAP1 PUSH2 0x1254 JUMP JUMPDEST SWAP1 DUP2 MSTORE PUSH1 0x20 ADD PUSH1 0x40 MLOAD DUP1 SWAP2 SUB SWAP1 KECCAK256 DUP2 SWAP1 SSTORE POP PUSH1 0x5 SLOAD PUSH1 0x4 PUSH1 0x0 CALLER PUSH20 0xFFFFFFFFFFFFFFFFFFFFFFFFFFFFFFFFFFFFFFFF AND PUSH20 0xFFFFFFFFFFFFFFFFFFFFFFFFFFFFFFFFFFFFFFFF AND DUP2 MSTORE PUSH1 0x20 ADD SWAP1 DUP2 MSTORE PUSH1 0x20 ADD PUSH1 0x0 KECCAK256 DUP2 SWAP1 SSTORE POP PUSH1 0x40 MLOAD DUP1 PUSH1 0xA0 ADD PUSH1 0x40 MSTORE DUP1 PUSH1 0x5 SLOAD DUP2 MSTORE PUSH1 0x20 ADD DUP4 DUP2 MSTORE PUSH1 0x20 ADD DUP3 DUP2 MSTORE PUSH1 0x20 ADD CALLER PUSH20 0xFFFFFFFFFFFFFFFFFFFFFFFFFFFFFFFFFFFFFFFF AND DUP2 MSTORE PUSH1 0x20 ADD PUSH1 0x0 DUP2 MSTORE POP PUSH1 0x0 DUP1 PUSH1 0x5 SLOAD DUP2 MSTORE PUSH1 0x20 ADD SWAP1 DUP2 MSTORE PUSH1 0x20 ADD PUSH1 0x0 KECCAK256 PUSH1 0x0 DUP3 ADD MLOAD DUP2 PUSH1 0x0 ADD SSTORE PUSH1 0x20 DUP3 ADD MLOAD DUP2 PUSH1 0x1 ADD SWAP1 DUP2 PUSH2 0xA57 SWAP2 SWAP1 PUSH2 0x1729 JUMP JUMPDEST POP PUSH1 0x40 DUP3 ADD MLOAD DUP2 PUSH1 0x2 ADD SWAP1 DUP2 PUSH2 0xA6D SWAP2 SWAP1 PUSH2 0x1729 JUMP JUMPDEST POP PUSH1 0x60 DUP3 ADD MLOAD DUP2 PUSH1 0x3 ADD PUSH1 0x0 PUSH2 0x100 EXP DUP2 SLOAD DUP2 PUSH20 0xFFFFFFFFFFFFFFFFFFFFFFFFFFFFFFFFFFFFFFFF MUL NOT AND SWAP1 DUP4 PUSH20 0xFFFFFFFFFFFFFFFFFFFFFFFFFFFFFFFFFFFFFFFF AND MUL OR SWAP1 SSTORE POP PUSH1 0x80 DUP3 ADD MLOAD DUP2 PUSH1 0x4 ADD SSTORE SWAP1 POP POP PUSH1 0x5 PUSH1 0x0 DUP2 SLOAD DUP1 SWAP3 SWAP2 SWAP1 PUSH2 0xAD5 SWAP1 PUSH2 0x17FB JUMP JUMPDEST SWAP2 SWAP1 POP SSTORE POP PUSH32 0x7E42369838B7C7FAFE8BBA944990B5FEE45D6A0AFCD52154127C1784C47F5E45 PUSH1 0x40 MLOAD PUSH1 0x40 MLOAD DUP1 SWAP2 SUB SWAP1 LOG1 POP POP JUMP JUMPDEST PUSH1 0x0 PUSH1 0x40 MLOAD SWAP1 POP SWAP1 JUMP JUMPDEST PUSH1 0x0 DUP1 REVERT JUMPDEST PUSH1 0x0 DUP1 REVERT JUMPDEST PUSH1 0x0 PUSH32 0xFFFFFFFF00000000000000000000000000000000000000000000000000000000 DUP3 AND SWAP1 POP SWAP2 SWAP1 POP JUMP JUMPDEST PUSH2 0xB53 DUP2 PUSH2 0xB1E JUMP JUMPDEST DUP2 EQ PUSH2 0xB5E JUMPI PUSH1 0x0 DUP1 REVERT JUMPDEST POP JUMP JUMPDEST PUSH1 0x0 DUP2 CALLDATALOAD SWAP1 POP PUSH2 0xB70 DUP2 PUSH2 0xB4A JUMP JUMPDEST SWAP3 SWAP2 POP POP JUMP JUMPDEST PUSH1 0x0 PUSH1 0x20 DUP3 DUP5 SUB SLT ISZERO PUSH2 0xB8C JUMPI PUSH2 0xB8B PUSH2 0xB14 JUMP JUMPDEST JUMPDEST PUSH1 0x0 PUSH2 0xB9A DUP5 DUP3 DUP6 ADD PUSH2 0xB61 JUMP JUMPDEST SWAP2 POP POP SWAP3 SWAP2 POP POP JUMP JUMPDEST PUSH1 0x0 DUP2 ISZERO ISZERO SWAP1 POP SWAP2 SWAP1 POP JUMP JUMPDEST PUSH2 0xBB8 DUP2 PUSH2 0xBA3 JUMP JUMPDEST DUP3 MSTORE POP POP JUMP JUMPDEST PUSH1 0x0 PUSH1 0x20 DUP3 ADD SWAP1 POP PUSH2 0xBD3 PUSH1 0x0 DUP4 ADD DUP5 PUSH2 0xBAF JUMP JUMPDEST SWAP3 SWAP2 POP POP JUMP JUMPDEST PUSH1 0x0 PUSH20 0xFFFFFFFFFFFFFFFFFFFFFFFFFFFFFFFFFFFFFFFF DUP3 AND SWAP1 POP SWAP2 SWAP1 POP JUMP JUMPDEST PUSH1 0x0 PUSH2 0xC04 DUP3 PUSH2 0xBD9 JUMP JUMPDEST SWAP1 POP SWAP2 SWAP1 POP JUMP JUMPDEST PUSH2 0xC14 DUP2 PUSH2 0xBF9 JUMP JUMPDEST DUP2 EQ PUSH2 0xC1F JUMPI PUSH1 0x0 DUP1 REVERT JUMPDEST POP JUMP JUMPDEST PUSH1 0x0 DUP2 CALLDATALOAD SWAP1 POP PUSH2 0xC31 DUP2 PUSH2 0xC0B JUMP JUMPDEST SWAP3 SWAP2 POP POP JUMP JUMPDEST PUSH1 0x0 PUSH1 0x20 DUP3 DUP5 SUB SLT ISZERO PUSH2 0xC4D JUMPI PUSH2 0xC4C PUSH2 0xB14 JUMP JUMPDEST JUMPDEST PUSH1 0x0 PUSH2 0xC5B DUP5 DUP3 DUP6 ADD PUSH2 0xC22 JUMP JUMPDEST SWAP2 POP POP SWAP3 SWAP2 POP POP JUMP JUMPDEST PUSH1 0x0 DUP1 REVERT JUMPDEST PUSH1 0x0 DUP1 REVERT JUMPDEST PUSH1 0x0 PUSH1 0x1F NOT PUSH1 0x1F DUP4 ADD AND SWAP1 POP SWAP2 SWAP1 POP JUMP JUMPDEST PUSH32 0x4E487B7100000000000000000000000000000000000000000000000000000000 PUSH1 0x0 MSTORE PUSH1 0x41 PUSH1 0x4 MSTORE PUSH1 0x24 PUSH1 0x0 REVERT JUMPDEST PUSH2 0xCB7 DUP3 PUSH2 0xC6E JUMP JUMPDEST DUP2 ADD DUP2 DUP2 LT PUSH8 0xFFFFFFFFFFFFFFFF DUP3 GT OR ISZERO PUSH2 0xCD6 JUMPI PUSH2 0xCD5 PUSH2 0xC7F JUMP JUMPDEST JUMPDEST DUP1 PUSH1 0x40 MSTORE POP POP POP JUMP JUMPDEST PUSH1 0x0 PUSH2 0xCE9 PUSH2 0xB0A JUMP JUMPDEST SWAP1 POP PUSH2 0xCF5 DUP3 DUP3 PUSH2 0xCAE JUMP JUMPDEST SWAP2 SWAP1 POP JUMP JUMPDEST PUSH1 0x0 PUSH8 0xFFFFFFFFFFFFFFFF DUP3 GT ISZERO PUSH2 0xD15 JUMPI PUSH2 0xD14 PUSH2 0xC7F JUMP JUMPDEST JUMPDEST PUSH2 0xD1E DUP3 PUSH2 0xC6E JUMP JUMPDEST SWAP1 POP PUSH1 0x20 DUP2 ADD SWAP1 POP SWAP2 SWAP1 POP JUMP JUMPDEST DUP3 DUP2 DUP4 CALLDATACOPY PUSH1 0x0 DUP4 DUP4 ADD MSTORE POP POP POP JUMP JUMPDEST PUSH1 0x0 PUSH2 0xD4D PUSH2 0xD48 DUP5 PUSH2 0xCFA JUMP JUMPDEST PUSH2 0xCDF JUMP JUMPDEST SWAP1 POP DUP3 DUP2 MSTORE PUSH1 0x20 DUP2 ADD DUP5 DUP5 DUP5 ADD GT ISZERO PUSH2 0xD69 JUMPI PUSH2 0xD68 PUSH2 0xC69 JUMP JUMPDEST JUMPDEST PUSH2 0xD74 DUP5 DUP3 DUP6 PUSH2 0xD2B JUMP JUMPDEST POP SWAP4 SWAP3 POP POP POP JUMP JUMPDEST PUSH1 0x0 DUP3 PUSH1 0x1F DUP4 ADD SLT PUSH2 0xD91 JUMPI PUSH2 0xD90 PUSH2 0xC64 JUMP JUMPDEST JUMPDEST DUP2 CALLDATALOAD PUSH2 0xDA1 DUP5 DUP3 PUSH1 0x20 DUP7 ADD PUSH2 0xD3A JUMP JUMPDEST SWAP2 POP POP SWAP3 SWAP2 POP POP JUMP JUMPDEST PUSH1 0x0 PUSH1 0x20 DUP3 DUP5 SUB SLT ISZERO PUSH2 0xDC0 JUMPI PUSH2 0xDBF PUSH2 0xB14 JUMP JUMPDEST JUMPDEST PUSH1 0x0 DUP3 ADD CALLDATALOAD PUSH8 0xFFFFFFFFFFFFFFFF DUP2 GT ISZERO PUSH2 0xDDE JUMPI PUSH2 0xDDD PUSH2 0xB19 JUMP JUMPDEST JUMPDEST PUSH2 0xDEA DUP5 DUP3 DUP6 ADD PUSH2 0xD7C JUMP JUMPDEST SWAP2 POP POP SWAP3 SWAP2 POP POP JUMP JUMPDEST PUSH1 0x0 DUP2 SWAP1 POP SWAP2 SWAP1 POP JUMP JUMPDEST PUSH2 0xE06 DUP2 PUSH2 0xDF3 JUMP JUMPDEST DUP3 MSTORE POP POP JUMP JUMPDEST PUSH1 0x0 PUSH1 0x20 DUP3 ADD SWAP1 POP PUSH2 0xE21 PUSH1 0x0 DUP4 ADD DUP5 PUSH2 0xDFD JUMP JUMPDEST SWAP3 SWAP2 POP POP JUMP JUMPDEST PUSH1 0x0 DUP2 SWAP1 POP SWAP2 SWAP1 POP JUMP JUMPDEST PUSH2 0xE3A DUP2 PUSH2 0xE27 JUMP JUMPDEST DUP2 EQ PUSH2 0xE45 JUMPI PUSH1 0x0 DUP1 REVERT JUMPDEST POP JUMP JUMPDEST PUSH1 0x0 DUP2 CALLDATALOAD SWAP1 POP PUSH2 0xE57 DUP2 PUSH2 0xE31 JUMP JUMPDEST SWAP3 SWAP2 POP POP JUMP JUMPDEST PUSH1 0x0 DUP1 PUSH1 0x40 DUP4 DUP6 SUB SLT ISZERO PUSH2 0xE74 JUMPI PUSH2 0xE73 PUSH2 0xB14 JUMP JUMPDEST JUMPDEST PUSH1 0x0 DUP4 ADD CALLDATALOAD PUSH8 0xFFFFFFFFFFFFFFFF DUP2 GT ISZERO PUSH2 0xE92 JUMPI PUSH2 0xE91 PUSH2 0xB19 JUMP JUMPDEST JUMPDEST PUSH2 0xE9E DUP6 DUP3 DUP7 ADD PUSH2 0xD7C JUMP JUMPDEST SWAP3 POP POP PUSH1 0x20 PUSH2 0xEAF DUP6 DUP3 DUP7 ADD PUSH2 0xE48 JUMP JUMPDEST SWAP2 POP POP SWAP3 POP SWAP3 SWAP1 POP JUMP JUMPDEST PUSH2 0xEC2 DUP2 PUSH2 0xDF3 JUMP JUMPDEST DUP2 EQ PUSH2 0xECD JUMPI PUSH1 0x0 DUP1 REVERT JUMPDEST POP JUMP JUMPDEST PUSH1 0x0 DUP2 CALLDATALOAD SWAP1 POP PUSH2 0xEDF DUP2 PUSH2 0xEB9 JUMP JUMPDEST SWAP3 SWAP2 POP POP JUMP JUMPDEST PUSH1 0x0 PUSH1 0x20 DUP3 DUP5 SUB SLT ISZERO PUSH2 0xEFB JUMPI PUSH2 0xEFA PUSH2 0xB14 JUMP JUMPDEST JUMPDEST PUSH1 0x0 PUSH2 0xF09 DUP5 DUP3 DUP6 ADD PUSH2 0xED0 JUMP JUMPDEST SWAP2 POP POP SWAP3 SWAP2 POP POP JUMP JUMPDEST PUSH1 0x0 DUP2 MLOAD SWAP1 POP SWAP2 SWAP1 POP JUMP JUMPDEST PUSH1 0x0 DUP3 DUP3 MSTORE PUSH1 0x20 DUP3 ADD SWAP1 POP SWAP3 SWAP2 POP POP JUMP JUMPDEST PUSH1 0x0 JUMPDEST DUP4 DUP2 LT ISZERO PUSH2 0xF4C JUMPI DUP1 DUP3 ADD MLOAD DUP2 DUP5 ADD MSTORE PUSH1 0x20 DUP2 ADD SWAP1 POP PUSH2 0xF31 JUMP JUMPDEST PUSH1 0x0 DUP5 DUP5 ADD MSTORE POP POP POP POP JUMP JUMPDEST PUSH1 0x0 PUSH2 0xF63 DUP3 PUSH2 0xF12 JUMP JUMPDEST PUSH2 0xF6D DUP2 DUP6 PUSH2 0xF1D JUMP JUMPDEST SWAP4 POP PUSH2 0xF7D DUP2 DUP6 PUSH1 0x20 DUP7 ADD PUSH2 0xF2E JUMP JUMPDEST PUSH2 0xF86 DUP2 PUSH2 0xC6E JUMP JUMPDEST DUP5 ADD SWAP2 POP POP SWAP3 SWAP2 POP POP JUMP JUMPDEST PUSH2 0xF9A DUP2 PUSH2 0xBF9 JUMP JUMPDEST DUP3 MSTORE POP POP JUMP JUMPDEST PUSH2 0xFA9 DUP2 PUSH2 0xE27 JUMP JUMPDEST DUP3 MSTORE POP POP JUMP JUMPDEST PUSH1 0x0 PUSH1 0xA0 DUP3 ADD SWAP1 POP PUSH2 0xFC4 PUSH1 0x0 DUP4 ADD DUP9 PUSH2 0xDFD JUMP JUMPDEST DUP2 DUP2 SUB PUSH1 0x20 DUP4 ADD MSTORE PUSH2 0xFD6 DUP2 DUP8 PUSH2 0xF58 JUMP JUMPDEST SWAP1 POP DUP2 DUP2 SUB PUSH1 0x40 DUP4 ADD MSTORE PUSH2 0xFEA DUP2 DUP7 PUSH2 0xF58 JUMP JUMPDEST SWAP1 POP PUSH2 0xFF9 PUSH1 0x60 DUP4 ADD DUP6 PUSH2 0xF91 JUMP JUMPDEST PUSH2 0x1006 PUSH1 0x80 DUP4 ADD DUP5 PUSH2 0xFA0 JUMP JUMPDEST SWAP7 SWAP6 POP POP POP POP POP POP JUMP JUMPDEST PUSH1 0x0 DUP1 PUSH1 0x40 DUP4 DUP6 SUB SLT ISZERO PUSH2 0x1027 JUMPI PUSH2 0x1026 PUSH2 0xB14 JUMP JUMPDEST JUMPDEST PUSH1 0x0 DUP4 ADD CALLDATALOAD PUSH8 0xFFFFFFFFFFFFFFFF DUP2 GT ISZERO PUSH2 0x1045 JUMPI PUSH2 0x1044 PUSH2 0xB19 JUMP JUMPDEST JUMPDEST PUSH2 0x1051 DUP6 DUP3 DUP7 ADD PUSH2 0xD7C JUMP JUMPDEST SWAP3 POP POP PUSH1 0x20 DUP4 ADD CALLDATALOAD PUSH8 0xFFFFFFFFFFFFFFFF DUP2 GT ISZERO PUSH2 0x1072 JUMPI PUSH2 0x1071 PUSH2 0xB19 JUMP JUMPDEST JUMPDEST PUSH2 0x107E DUP6 DUP3 DUP7 ADD PUSH2 0xD7C JUMP JUMPDEST SWAP2 POP POP SWAP3 POP SWAP3 SWAP1 POP JUMP JUMPDEST PUSH32 0x616D6F756E7473206D757374206265206265747765656E202D31303020616E64 PUSH1 0x0 DUP3 ADD MSTORE PUSH32 0x2031303000000000000000000000000000000000000000000000000000000000 PUSH1 0x20 DUP3 ADD MSTORE POP JUMP JUMPDEST PUSH1 0x0 PUSH2 0x10E4 PUSH1 0x24 DUP4 PUSH2 0xF1D JUMP JUMPDEST SWAP2 POP PUSH2 0x10EF DUP3 PUSH2 0x1088 JUMP JUMPDEST PUSH1 0x40 DUP3 ADD SWAP1 POP SWAP2 SWAP1 POP JUMP JUMPDEST PUSH1 0x0 PUSH1 0x20 DUP3 ADD SWAP1 POP DUP2 DUP2 SUB PUSH1 0x0 DUP4 ADD MSTORE PUSH2 0x1113 DUP2 PUSH2 0x10D7 JUMP JUMPDEST SWAP1 POP SWAP2 SWAP1 POP JUMP JUMPDEST PUSH32 0x616D6F756E742063616E6E6F74206265207A65726F0000000000000000000000 PUSH1 0x0 DUP3 ADD MSTORE POP JUMP JUMPDEST PUSH1 0x0 PUSH2 0x1150 PUSH1 0x15 DUP4 PUSH2 0xF1D JUMP JUMPDEST SWAP2 POP PUSH2 0x115B DUP3 PUSH2 0x111A JUMP JUMPDEST PUSH1 0x20 DUP3 ADD SWAP1 POP SWAP2 SWAP1 POP JUMP JUMPDEST PUSH1 0x0 PUSH1 0x20 DUP3 ADD SWAP1 POP DUP2 DUP2 SUB PUSH1 0x0 DUP4 ADD MSTORE PUSH2 0x117F DUP2 PUSH2 0x1143 JUMP JUMPDEST SWAP1 POP SWAP2 SWAP1 POP JUMP JUMPDEST PUSH32 0x796F7572206164647265737320646F6573206E6F74206861766520616E20616C PUSH1 0x0 DUP3 ADD MSTORE PUSH32 0x6961730000000000000000000000000000000000000000000000000000000000 PUSH1 0x20 DUP3 ADD MSTORE POP JUMP JUMPDEST PUSH1 0x0 PUSH2 0x11E2 PUSH1 0x23 DUP4 PUSH2 0xF1D JUMP JUMPDEST SWAP2 POP PUSH2 0x11ED DUP3 PUSH2 0x1186 JUMP JUMPDEST PUSH1 0x40 DUP3 ADD SWAP1 POP SWAP2 SWAP1 POP JUMP JUMPDEST PUSH1 0x0 PUSH1 0x20 DUP3 ADD SWAP1 POP DUP2 DUP2 SUB PUSH1 0x0 DUP4 ADD MSTORE PUSH2 0x1211 DUP2 PUSH2 0x11D5 JUMP JUMPDEST SWAP1 POP SWAP2 SWAP1 POP JUMP JUMPDEST PUSH1 0x0 DUP2 SWAP1 POP SWAP3 SWAP2 POP POP JUMP JUMPDEST PUSH1 0x0 PUSH2 0x122E DUP3 PUSH2 0xF12 JUMP JUMPDEST PUSH2 0x1238 DUP2 DUP6 PUSH2 0x1218 JUMP JUMPDEST SWAP4 POP PUSH2 0x1248 DUP2 DUP6 PUSH1 0x20 DUP7 ADD PUSH2 0xF2E JUMP JUMPDEST DUP1 DUP5 ADD SWAP2 POP POP SWAP3 SWAP2 POP POP JUMP JUMPDEST PUSH1 0x0 PUSH2 0x1260 DUP3 DUP5 PUSH2 0x1223 JUMP JUMPDEST SWAP2 POP DUP2 SWAP1 POP SWAP3 SWAP2 POP POP JUMP JUMPDEST PUSH32 0x737472696E6720656E747279206E616D6520646F6573206E6F74206578697374 PUSH1 0x0 DUP3 ADD MSTORE POP JUMP JUMPDEST PUSH1 0x0 PUSH2 0x12A1 PUSH1 0x20 DUP4 PUSH2 0xF1D JUMP JUMPDEST SWAP2 POP PUSH2 0x12AC DUP3 PUSH2 0x126B JUMP JUMPDEST PUSH1 0x20 DUP3 ADD SWAP1 POP SWAP2 SWAP1 POP JUMP JUMPDEST PUSH1 0x0 PUSH1 0x20 DUP3 ADD SWAP1 POP DUP2 DUP2 SUB PUSH1 0x0 DUP4 ADD MSTORE PUSH2 0x12D0 DUP2 PUSH2 0x1294 JUMP JUMPDEST SWAP1 POP SWAP2 SWAP1 POP JUMP JUMPDEST PUSH32 0x796F752063616E6E6F7420656E7465722061206465627420746F20796F757273 PUSH1 0x0 DUP3 ADD MSTORE PUSH32 0x656C660000000000000000000000000000000000000000000000000000000000 PUSH1 0x20 DUP3 ADD MSTORE POP JUMP JUMPDEST PUSH1 0x0 PUSH2 0x1333 PUSH1 0x23 DUP4 PUSH2 0xF1D JUMP JUMPDEST SWAP2 POP PUSH2 0x133E DUP3 PUSH2 0x12D7 JUMP JUMPDEST PUSH1 0x40 DUP3 ADD SWAP1 POP SWAP2 SWAP1 POP JUMP JUMPDEST PUSH1 0x0 PUSH1 0x20 DUP3 ADD SWAP1 POP DUP2 DUP2 SUB PUSH1 0x0 DUP4 ADD MSTORE PUSH2 0x1362 DUP2 PUSH2 0x1326 JUMP JUMPDEST SWAP1 POP SWAP2 SWAP1 POP JUMP JUMPDEST PUSH32 0x4E487B7100000000000000000000000000000000000000000000000000000000 PUSH1 0x0 MSTORE PUSH1 0x11 PUSH1 0x4 MSTORE PUSH1 0x24 PUSH1 0x0 REVERT JUMPDEST PUSH1 0x0 PUSH2 0x13A3 DUP3 PUSH2 0xE27 JUMP JUMPDEST SWAP2 POP PUSH2 0x13AE DUP4 PUSH2 0xE27 JUMP JUMPDEST SWAP3 POP DUP3 DUP3 ADD SWAP1 POP DUP3 DUP2 SLT ISZERO PUSH1 0x0 DUP4 SLT AND DUP4 DUP3 SLT PUSH1 0x0 DUP5 SLT ISZERO AND OR ISZERO PUSH2 0x13D6 JUMPI PUSH2 0x13D5 PUSH2 0x1369 JUMP JUMPDEST JUMPDEST SWAP3 SWAP2 POP POP JUMP JUMPDEST PUSH1 0x0 PUSH2 0x13E7 DUP3 PUSH2 0xE27 JUMP JUMPDEST SWAP2 POP PUSH2 0x13F2 DUP4 PUSH2 0xE27 JUMP JUMPDEST SWAP3 POP DUP3 DUP3 SUB SWAP1 POP DUP2 DUP2 SLT PUSH1 0x0 DUP5 SLT AND DUP3 DUP3 SGT PUSH1 0x0 DUP6 SLT ISZERO AND OR ISZERO PUSH2 0x1419 JUMPI PUSH2 0x1418 PUSH2 0x1369 JUMP JUMPDEST JUMPDEST SWAP3 SWAP2 POP POP JUMP JUMPDEST PUSH32 0x4E487B7100000000000000000000000000000000000000000000000000000000 PUSH1 0x0 MSTORE PUSH1 0x22 PUSH1 0x4 MSTORE PUSH1 0x24 PUSH1 0x0 REVERT JUMPDEST PUSH1 0x0 PUSH1 0x2 DUP3 DIV SWAP1 POP PUSH1 0x1 DUP3 AND DUP1 PUSH2 0x1466 JUMPI PUSH1 0x7F DUP3 AND SWAP2 POP JUMPDEST PUSH1 0x20 DUP3 LT DUP2 SUB PUSH2 0x1479 JUMPI PUSH2 0x1478 PUSH2 0x141F JUMP JUMPDEST JUMPDEST POP SWAP2 SWAP1 POP JUMP JUMPDEST PUSH32 0x737472696E6720656E747279206E616D6520616C726561647920657869737473 PUSH1 0x0 DUP3 ADD MSTORE POP JUMP JUMPDEST PUSH1 0x0 PUSH2 0x14B5 PUSH1 0x20 DUP4 PUSH2 0xF1D JUMP JUMPDEST SWAP2 POP PUSH2 0x14C0 DUP3 PUSH2 0x147F JUMP JUMPDEST PUSH1 0x20 DUP3 ADD SWAP1 POP SWAP2 SWAP1 POP JUMP JUMPDEST PUSH1 0x0 PUSH1 0x20 DUP3 ADD SWAP1 POP DUP2 DUP2 SUB PUSH1 0x0 DUP4 ADD MSTORE PUSH2 0x14E4 DUP2 PUSH2 0x14A8 JUMP JUMPDEST SWAP1 POP SWAP2 SWAP1 POP JUMP JUMPDEST PUSH32 0x796F7572206164647265737320616C72656164792068617320616E20616C6961 PUSH1 0x0 DUP3 ADD MSTORE PUSH32 0x7300000000000000000000000000000000000000000000000000000000000000 PUSH1 0x20 DUP3 ADD MSTORE POP JUMP JUMPDEST PUSH1 0x0 PUSH2 0x1547 PUSH1 0x21 DUP4 PUSH2 0xF1D JUMP JUMPDEST SWAP2 POP PUSH2 0x1552 DUP3 PUSH2 0x14EB JUMP JUMPDEST PUSH1 0x40 DUP3 ADD SWAP1 POP SWAP2 SWAP1 POP JUMP JUMPDEST PUSH1 0x0 PUSH1 0x20 DUP3 ADD SWAP1 POP DUP2 DUP2 SUB PUSH1 0x0 DUP4 ADD MSTORE PUSH2 0x1576 DUP2 PUSH2 0x153A JUMP JUMPDEST SWAP1 POP SWAP2 SWAP1 POP JUMP JUMPDEST PUSH1 0x0 DUP2 SWAP1 POP DUP2 PUSH1 0x0 MSTORE PUSH1 0x20 PUSH1 0x0 KECCAK256 SWAP1 POP SWAP2 SWAP1 POP JUMP JUMPDEST PUSH1 0x0 PUSH1 0x20 PUSH1 0x1F DUP4 ADD DIV SWAP1 POP SWAP2 SWAP1 POP JUMP JUMPDEST PUSH1 0x0 DUP3 DUP3 SHL SWAP1 POP SWAP3 SWAP2 POP POP JUMP JUMPDEST PUSH1 0x0 PUSH1 0x8 DUP4 MUL PUSH2 0x15DF PUSH32 0xFFFFFFFFFFFFFFFFFFFFFFFFFFFFFFFFFFFFFFFFFFFFFFFFFFFFFFFFFFFFFFFF DUP3 PUSH2 0x15A2 JUMP JUMPDEST PUSH2 0x15E9 DUP7 DUP4 PUSH2 0x15A2 JUMP JUMPDEST SWAP6 POP DUP1 NOT DUP5 AND SWAP4 POP DUP1 DUP7 AND DUP5 OR SWAP3 POP POP POP SWAP4 SWAP3 POP POP POP JUMP JUMPDEST PUSH1 0x0 DUP2 SWAP1 POP SWAP2 SWAP1 POP JUMP JUMPDEST PUSH1 0x0 PUSH2 0x1626 PUSH2 0x1621 PUSH2 0x161C DUP5 PUSH2 0xDF3 JUMP JUMPDEST PUSH2 0x1601 JUMP JUMPDEST PUSH2 0xDF3 JUMP JUMPDEST SWAP1 POP SWAP2 SWAP1 POP JUMP JUMPDEST PUSH1 0x0 DUP2 SWAP1 POP SWAP2 SWAP1 POP JUMP JUMPDEST PUSH2 0x1640 DUP4 PUSH2 0x160B JUMP JUMPDEST PUSH2 0x1654 PUSH2 0x164C DUP3 PUSH2 0x162D JUMP JUMPDEST DUP5 DUP5 SLOAD PUSH2 0x15AF JUMP JUMPDEST DUP3 SSTORE POP POP POP POP JUMP JUMPDEST PUSH1 0x0 SWAP1 JUMP JUMPDEST PUSH2 0x1669 PUSH2 0x165C JUMP JUMPDEST PUSH2 0x1674 DUP2 DUP5 DUP5 PUSH2 0x1637 JUMP JUMPDEST POP POP POP JUMP JUMPDEST JUMPDEST DUP2 DUP2 LT ISZERO PUSH2 0x1698 JUMPI PUSH2 0x168D PUSH1 0x0 DUP3 PUSH2 0x1661 JUMP JUMPDEST PUSH1 0x1 DUP2 ADD SWAP1 POP PUSH2 0x167A JUMP JUMPDEST POP POP JUMP JUMPDEST PUSH1 0x1F DUP3 GT ISZERO PUSH2 0x16DD JUMPI PUSH2 0x16AE DUP2 PUSH2 0x157D JUMP JUMPDEST PUSH2 0x16B7 DUP5 PUSH2 0x1592 JUMP JUMPDEST DUP2 ADD PUSH1 0x20 DUP6 LT ISZERO PUSH2 0x16C6 JUMPI DUP2 SWAP1 POP JUMPDEST PUSH2 0x16DA PUSH2 0x16D2 DUP6 PUSH2 0x1592 JUMP JUMPDEST DUP4 ADD DUP3 PUSH2 0x1679 JUMP JUMPDEST POP POP JUMPDEST POP POP POP JUMP JUMPDEST PUSH1 0x0 DUP3 DUP3 SHR SWAP1 POP SWAP3 SWAP2 POP POP JUMP JUMPDEST PUSH1 0x0 PUSH2 0x1700 PUSH1 0x0 NOT DUP5 PUSH1 0x8 MUL PUSH2 0x16E2 JUMP JUMPDEST NOT DUP1 DUP4 AND SWAP2 POP POP SWAP3 SWAP2 POP POP JUMP JUMPDEST PUSH1 0x0 PUSH2 0x1719 DUP4 DUP4 PUSH2 0x16EF JUMP JUMPDEST SWAP2 POP DUP3 PUSH1 0x2 MUL DUP3 OR SWAP1 POP SWAP3 SWAP2 POP POP JUMP JUMPDEST PUSH2 0x1732 DUP3 PUSH2 0xF12 JUMP JUMPDEST PUSH8 0xFFFFFFFFFFFFFFFF DUP2 GT ISZERO PUSH2 0x174B JUMPI PUSH2 0x174A PUSH2 0xC7F JUMP JUMPDEST JUMPDEST PUSH2 0x1755 DUP3 SLOAD PUSH2 0x144E JUMP JUMPDEST PUSH2 0x1760 DUP3 DUP3 DUP6 PUSH2 0x169C JUMP JUMPDEST PUSH1 0x0 PUSH1 0x20 SWAP1 POP PUSH1 0x1F DUP4 GT PUSH1 0x1 DUP2 EQ PUSH2 0x1793 JUMPI PUSH1 0x0 DUP5 ISZERO PUSH2 0x1781 JUMPI DUP3 DUP8 ADD MLOAD SWAP1 POP JUMPDEST PUSH2 0x178B DUP6 DUP3 PUSH2 0x170D JUMP JUMPDEST DUP7 SSTORE POP PUSH2 0x17F3 JUMP JUMPDEST PUSH1 0x1F NOT DUP5 AND PUSH2 0x17A1 DUP7 PUSH2 0x157D JUMP JUMPDEST PUSH1 0x0 JUMPDEST DUP3 DUP2 LT ISZERO PUSH2 0x17C9 JUMPI DUP5 DUP10 ADD MLOAD DUP3 SSTORE PUSH1 0x1 DUP3 ADD SWAP2 POP PUSH1 0x20 DUP6 ADD SWAP5 POP PUSH1 0x20 DUP2 ADD SWAP1 POP PUSH2 0x17A4 JUMP JUMPDEST DUP7 DUP4 LT ISZERO PUSH2 0x17E6 JUMPI DUP5 DUP10 ADD MLOAD PUSH2 0x17E2 PUSH1 0x1F DUP10 AND DUP3 PUSH2 0x16EF JUMP JUMPDEST DUP4 SSTORE POP JUMPDEST PUSH1 0x1 PUSH1 0x2 DUP9 MUL ADD DUP9 SSTORE POP POP POP JUMPDEST POP POP POP POP POP POP JUMP JUMPDEST PUSH1 0x0 PUSH2 0x1806 DUP3 PUSH2 0xDF3 JUMP JUMPDEST SWAP2 POP PUSH32 0xFFFFFFFFFFFFFFFFFFFFFFFFFFFFFFFFFFFFFFFFFFFFFFFFFFFFFFFFFFFFFFFF DUP3 SUB PUSH2 0x1838 JUMPI PUSH2 0x1837 PUSH2 0x1369 JUMP JUMPDEST JUMPDEST PUSH1 0x1 DUP3 ADD SWAP1 POP SWAP2 SWAP1 POP JUMP INVALID LOG2 PUSH5 0x6970667358 0x22 SLT KECCAK256 0xAE MUL 0xEE MULMOD COINBASE DUP6 SAR 0x4A 0xDC 0xC8 0xAB SWAP14 0xF NOT SDIV 0xE RETURNDATACOPY SLT PUSH26 0x52F4727DAE822B025437D72ABC64736F6C634300081200330000 "
		},
		"gasEstimates": {
			"creation": {
				"codeDepositCost": "1253000",
				"executionCost": "1302",
				"totalCost": "1254302"
			},
			"external": {
				"addAlias(string,string)": "infinite",
				"addressHasEntry(address)": "2868",
				"aliasHasEntry(string)": "infinite",
				"entries(uint256)": "infinite",
				"findByAddress(address)": "2836",
				"findByAlias(string)": "infinite",
				"num_entries()": "2495",
				"payToAlias(string,int256)": "infinite",
				"supportsInterface(bytes4)": "682"
			}
		},
		"methodIdentifiers": {
			"addAlias(string,string)": "d72115dc",
			"addressHasEntry(address)": "073f98fd",
			"aliasHasEntry(string)": "76f30f78",
			"entries(uint256)": "b30906d4",
			"findByAddress(address)": "94bbfc0d",
			"findByAlias(string)": "31f9a55f",
			"num_entries()": "b7f1d527",
			"payToAlias(string,int256)": "7d210103",
			"supportsInterface(bytes4)": "01ffc9a7"
		}
	},
	"abi": [
		{
			"inputs": [],
			"stateMutability": "nonpayable",
			"type": "constructor"
		},
		{
			"anonymous": false,
			"inputs": [],
			"name": "aliasAddedEvent",
			"type": "event"
		},
		{
			"anonymous": false,
			"inputs": [],
			"name": "paidEvent",
			"type": "event"
		},
		{
			"inputs": [
				{
					"internalType": "string",
					"name": "_alias",
					"type": "string"
				},
				{
					"internalType": "string",
					"name": "_name",
					"type": "string"
				}
			],
			"name": "addAlias",
			"outputs": [],
			"stateMutability": "nonpayable",
			"type": "function"
		},
		{
			"inputs": [
				{
					"internalType": "address",
					"name": "",
					"type": "address"
				}
			],
			"name": "addressHasEntry",
			"outputs": [
				{
					"internalType": "bool",
					"name": "",
					"type": "bool"
				}
			],
			"stateMutability": "view",
			"type": "function"
		},
		{
			"inputs": [
				{
					"internalType": "string",
					"name": "",
					"type": "string"
				}
			],
			"name": "aliasHasEntry",
			"outputs": [
				{
					"internalType": "bool",
					"name": "",
					"type": "bool"
				}
			],
			"stateMutability": "view",
			"type": "function"
		},
		{
			"inputs": [
				{
					"internalType": "uint256",
					"name": "",
					"type": "uint256"
				}
			],
			"name": "entries",
			"outputs": [
				{
					"internalType": "uint256",
					"name": "id",
					"type": "uint256"
				},
				{
					"internalType": "string",
					"name": "thealias",
					"type": "string"
				},
				{
					"internalType": "string",
					"name": "name",
					"type": "string"
				},
				{
					"internalType": "address",
					"name": "addr",
					"type": "address"
				},
				{
					"internalType": "int256",
					"name": "balance",
					"type": "int256"
				}
			],
			"stateMutability": "view",
			"type": "function"
		},
		{
			"inputs": [
				{
					"internalType": "address",
					"name": "",
					"type": "address"
				}
			],
			"name": "findByAddress",
			"outputs": [
				{
					"internalType": "uint256",
					"name": "",
					"type": "uint256"
				}
			],
			"stateMutability": "view",
			"type": "function"
		},
		{
			"inputs": [
				{
					"internalType": "string",
					"name": "",
					"type": "string"
				}
			],
			"name": "findByAlias",
			"outputs": [
				{
					"internalType": "uint256",
					"name": "",
					"type": "uint256"
				}
			],
			"stateMutability": "view",
			"type": "function"
		},
		{
			"inputs": [],
			"name": "num_entries",
			"outputs": [
				{
					"internalType": "uint256",
					"name": "",
					"type": "uint256"
				}
			],
			"stateMutability": "view",
			"type": "function"
		},
		{
			"inputs": [
				{
					"internalType": "string",
					"name": "_alias",
					"type": "string"
				},
				{
					"internalType": "int256",
					"name": "amount",
					"type": "int256"
				}
			],
			"name": "payToAlias",
			"outputs": [],
			"stateMutability": "nonpayable",
			"type": "function"
		},
		{
			"inputs": [
				{
					"internalType": "bytes4",
					"name": "interfaceId",
					"type": "bytes4"
				}
			],
			"name": "supportsInterface",
			"outputs": [
				{
					"internalType": "bool",
					"name": "",
					"type": "bool"
				}
			],
			"stateMutability": "pure",
			"type": "function"
		}
	]
}