{
	"data": {
		"bytecode": {
			"linkReferences": {},
			"object": "608060405234801561001057600080fd5b5033600060016101000a81548173ffffffffffffffffffffffffffffffffffffffff021916908373ffffffffffffffffffffffffffffffffffffffff16021790555060008060156101000a81548160ff02191690831515021790555060008060006101000a81548160ff021916908315150217905550612de9806100956000396000f3fe6080604052600436106101a05760003560e01c80639c8f9f23116100ec578063ca7c4dba1161008a578063d826f88f11610064578063d826f88f14610868578063e8078d941461087f578063e86dea4a14610889578063feffe7e4146108b457610444565b8063ca7c4dba146107d5578063d3c51d9114610800578063d5f394881461083d57610444565b8063add010a5116100c6578063add010a514610738578063b4f40c6114610754578063b7c565251461077f578063c7a4a7d1146107aa57610444565b80639c8f9f23146106ae5780639fed4ad8146106d7578063a56dfe4a1461070d57610444565b80634b94f50e116101595780637ff879e3116101335780637ff879e3146105de5780637ffa030d1461061b5780638d729abb1461064657806395d89b411461068357610444565b80634b94f50e1461055d5780634f54a081146105885780635dfd8773146105b357610444565b806301ffc9a7146104495780630c55699c14610486578063180b0d7e146104b1578063276184ae146104dc5780632bfdf30714610507578063313ce5671461053257610444565b366104445760011515600060159054906101000a900460ff161515146101fb576040517f08c379a00000000000000000000000000000000000000000000000000000000081526004016101f290611e50565b60405180910390fd5b6000341161023e576040517f08c379a000000000000000000000000000000000000000000000000000000000815260040161023590611ebc565b60405180910390fd5b3460035461024c9190611f15565b600381905550600060045490506003546002546102699190611f78565b60048190555060006004548261027f9190611fa9565b9050600854816007546102929190611fdd565b61029c9190611f78565b600a546102a99190611f15565b600a81905550600c60009054906101000a900473ffffffffffffffffffffffffffffffffffffffff1673ffffffffffffffffffffffffffffffffffffffff166370a08231306040518263ffffffff1660e01b815260040161030a9190612060565b602060405180830381865afa158015610327573d6000803e3d6000fd5b505050506040513d601f19601f8201168201806040525081019061034b91906120bb565b81111561035757600080fd5b6000600c60009054906101000a900473ffffffffffffffffffffffffffffffffffffffff1673ffffffffffffffffffffffffffffffffffffffff1663a9059cbb33846040518363ffffffff1660e01b81526004016103b69291906120f7565b6020604051808303816000875af11580156103d5573d6000803e3d6000fd5b505050506040513d601f19601f820116820180604052508101906103f99190612158565b90506001151581151514610442576040517f08c379a0000000000000000000000000000000000000000000000000000000008152600401610439906121f7565b60405180910390fd5b005b600080fd5b34801561045557600080fd5b50610470600480360381019061046b919061226f565b6108dd565b60405161047d91906122ab565b60405180910390f35b34801561049257600080fd5b5061049b610a17565b6040516104a891906122c6565b60405180910390f35b3480156104bd57600080fd5b506104c6610a1d565b6040516104d391906122c6565b60405180910390f35b3480156104e857600080fd5b506104f1610a23565b6040516104fe9190612060565b60405180910390f35b34801561051357600080fd5b5061051c610a49565b60405161052991906122c6565b60405180910390f35b34801561053e57600080fd5b50610547610a4f565b60405161055491906122c6565b60405180910390f35b34801561056957600080fd5b50610572610a55565b60405161057f91906122c6565b60405180910390f35b34801561059457600080fd5b5061059d610a8e565b6040516105aa9190612060565b60405180910390f35b3480156105bf57600080fd5b506105c8610ab4565b6040516105d591906122c6565b60405180910390f35b3480156105ea57600080fd5b5061060560048036038101906106009190612322565b610aba565b60405161061291906122ab565b60405180910390f35b34801561062757600080fd5b50610630610df7565b60405161063d91906122ab565b60405180910390f35b34801561065257600080fd5b5061066d60048036038101906106689190612375565b610e0a565b60405161067a91906122c6565b60405180910390f35b34801561068f57600080fd5b50610698610e22565b6040516106a59190612421565b60405180910390f35b3480156106ba57600080fd5b506106d560048036038101906106d09190612443565b610ebf565b005b3480156106e357600080fd5b506106ec61136f565b6040516107049c9b9a99989796959493929190612470565b60405180910390f35b34801561071957600080fd5b50610722611510565b60405161072f91906122c6565b60405180910390f35b610752600480360381019061074d9190612538565b611516565b005b34801561076057600080fd5b50610769611963565b60405161077691906122c6565b60405180910390f35b34801561078b57600080fd5b50610794611969565b6040516107a191906122c6565b60405180910390f35b3480156107b657600080fd5b506107bf6119a4565b6040516107cc91906122ab565b60405180910390f35b3480156107e157600080fd5b506107ea6119b5565b6040516107f791906122c6565b60405180910390f35b34801561080c57600080fd5b5061082760048036038101906108229190612375565b611a4d565b60405161083491906122c6565b60405180910390f35b34801561084957600080fd5b50610852611a65565b60405161085f9190612060565b60405180910390f35b34801561087457600080fd5b5061087d611a8b565b005b610887611a90565b005b34801561089557600080fd5b5061089e611da9565b6040516108ab91906122c6565b60405180910390f35b3480156108c057600080fd5b506108db60048036038101906108d69190612375565b611daf565b005b60007f5f8d5fe4000000000000000000000000000000000000000000000000000000007bffffffffffffffffffffffffffffffffffffffffffffffffffffffff1916827bffffffffffffffffffffffffffffffffffffffffffffffffffffffff191614806109a857507f01ffc9a7000000000000000000000000000000000000000000000000000000007bffffffffffffffffffffffffffffffffffffffffffffffffffffffff1916827bffffffffffffffffffffffffffffffffffffffffffffffffffffffff1916145b80610a1057507f7ff879e3000000000000000000000000000000000000000000000000000000007bffffffffffffffffffffffffffffffffffffffffffffffffffffffff1916827bffffffffffffffffffffffffffffffffffffffffffffffffffffffff1916145b9050919050565b60035481565b60085481565b600c60009054906101000a900473ffffffffffffffffffffffffffffffffffffffff1681565b600a5481565b60015481565b60006402540be400600454610a686119b5565b600354610a759190611fdd565b610a7f9190611f78565b610a899190611f78565b905090565b600b60009054906101000a900473ffffffffffffffffffffffffffffffffffffffff1681565b60095481565b600060011515600060159054906101000a900460ff16151514610b12576040517f08c379a0000000000000000000000000000000000000000000000000000000008152600401610b0990611e50565b60405180910390fd5b3073ffffffffffffffffffffffffffffffffffffffff168273ffffffffffffffffffffffffffffffffffffffff1614610b80576040517f08c379a0000000000000000000000000000000000000000000000000000000008152600401610b77906125ff565b60405180910390fd5b6001151560008054906101000a900460ff1615150315610dec5782600454610ba89190611f15565b60048190555060006003549050600454600254610bc59190611f78565b600381905550600060035482610bdb9190611fa9565b905060085481600754610bee9190611fdd565b610bf89190611f78565b600954610c059190611f15565b60098190555047811115610c4e576040517f08c379a0000000000000000000000000000000000000000000000000000000008152600401610c4590612691565b60405180910390fd5b60003373ffffffffffffffffffffffffffffffffffffffff1682604051610c74906126e2565b60006040518083038185875af1925050503d8060008114610cb1576040519150601f19603f3d011682016040523d82523d6000602084013e610cb6565b606091505b5050905080610cfa576040517f08c379a0000000000000000000000000000000000000000000000000000000008152600401610cf190612769565b60405180910390fd5b6000600c60009054906101000a900473ffffffffffffffffffffffffffffffffffffffff1673ffffffffffffffffffffffffffffffffffffffff166323b872dd33308a6040518463ffffffff1660e01b8152600401610d5b93929190612789565b6020604051808303816000875af1158015610d7a573d6000803e3d6000fd5b505050506040513d601f19601f82011682018060405250810190610d9e9190612158565b90506001151581151514610de7576040517f08c379a0000000000000000000000000000000000000000000000000000000008152600401610dde90612832565b60405180910390fd5b505050505b600190509392505050565b600060159054906101000a900460ff1681565b60066020528060005260406000206000915090505481565b6060600c60009054906101000a900473ffffffffffffffffffffffffffffffffffffffff1673ffffffffffffffffffffffffffffffffffffffff166395d89b416040518163ffffffff1660e01b8152600401600060405180830381865afa158015610e91573d6000803e3d6000fd5b505050506040513d6000823e3d601f19601f82011682018060405250810190610eba9190612978565b905090565b60011515600060159054906101000a900460ff16151514610f15576040517f08c379a0000000000000000000000000000000000000000000000000000000008152600401610f0c90611e50565b60405180910390fd5b60008111610f58576040517f08c379a0000000000000000000000000000000000000000000000000000000008152600401610f4f90612a33565b60405180910390fd5b47811115610f9b576040517f08c379a0000000000000000000000000000000000000000000000000000000008152600401610f9290612691565b60405180910390fd5b600060035460045483610fae9190611fdd565b610fb89190611f78565b9050600c60009054906101000a900473ffffffffffffffffffffffffffffffffffffffff1673ffffffffffffffffffffffffffffffffffffffff166370a08231306040518263ffffffff1660e01b81526004016110159190612060565b602060405180830381865afa158015611032573d6000803e3d6000fd5b505050506040513d601f19601f8201168201806040525081019061105691906120bb565b81111561106257600080fd5b816003546110709190611fa9565b600381905550806004546110849190611fa9565b60048190555060045460035461109a9190611fdd565b60028190555060003373ffffffffffffffffffffffffffffffffffffffff16836040516110c6906126e2565b60006040518083038185875af1925050503d8060008114611103576040519150601f19603f3d011682016040523d82523d6000602084013e611108565b606091505b505090508061114c576040517f08c379a000000000000000000000000000000000000000000000000000000000815260040161114390612a9f565b60405180910390fd5b60016000806101000a81548160ff0219169083151502179055506000600c60009054906101000a900473ffffffffffffffffffffffffffffffffffffffff1673ffffffffffffffffffffffffffffffffffffffff1663a9059cbb33856040518363ffffffff1660e01b81526004016111c59291906120f7565b6020604051808303816000875af11580156111e4573d6000803e3d6000fd5b505050506040513d601f19601f820116820180604052508101906112089190612158565b90506001151581151514611251576040517f08c379a000000000000000000000000000000000000000000000000000000000815260040161124890612b31565b60405180910390fd5b60008060006101000a81548160ff021916908315150217905550670de0b6b3a764000061127c6119b5565b6003546112899190611fdd565b6112939190611f78565b600560003073ffffffffffffffffffffffffffffffffffffffff1673ffffffffffffffffffffffffffffffffffffffff168152602001908152602001600020819055506305f5e1006112e3610a55565b6004546112f09190611fdd565b6112fa9190611f78565b600660003073ffffffffffffffffffffffffffffffffffffffff1673ffffffffffffffffffffffffffffffffffffffff168152602001908152602001600020819055507f8866993f7c029be4215942b34c1545282b8f28836579f2687fe96a5a6bf7770460405160405180910390a150505050565b6000606080600080600080600080600080600030600c60009054906101000a900473ffffffffffffffffffffffffffffffffffffffff1673ffffffffffffffffffffffffffffffffffffffff166395d89b416040518163ffffffff1660e01b8152600401600060405180830381865afa1580156113f0573d6000803e3d6000fd5b505050506040513d6000823e3d601f19601f820116820180604052508101906114199190612978565b600c60009054906101000a900473ffffffffffffffffffffffffffffffffffffffff1673ffffffffffffffffffffffffffffffffffffffff166306fdde036040518163ffffffff1660e01b8152600401600060405180830381865afa158015611486573d6000803e3d6000fd5b505050506040513d6000823e3d601f19601f820116820180604052508101906114af9190612978565b600c60009054906101000a900473ffffffffffffffffffffffffffffffffffffffff16600254600354600454600754600854600154600954600a549b509b509b509b509b509b509b509b509b509b509b509b50909192939495969798999a9b565b60045481565b60001515600060159054906101000a900460ff1615151461156c576040517f08c379a000000000000000000000000000000000000000000000000000000000815260040161156390612bc3565b60405180910390fd5b600060019054906101000a900473ffffffffffffffffffffffffffffffffffffffff1673ffffffffffffffffffffffffffffffffffffffff163373ffffffffffffffffffffffffffffffffffffffff16146115fc576040517f08c379a00000000000000000000000000000000000000000000000000000000081526004016115f390612c2f565b60405180910390fd5b6000341161163f576040517f08c379a000000000000000000000000000000000000000000000000000000000815260040161163690612c9b565b60405180910390fd5b8360078190555082600881905550346003819055508460048190555060045460035461166b9190611fdd565b60028190555061167a81611daf565b81600c60006101000a81548173ffffffffffffffffffffffffffffffffffffffff021916908373ffffffffffffffffffffffffffffffffffffffff160217905550600c60009054906101000a900473ffffffffffffffffffffffffffffffffffffffff1673ffffffffffffffffffffffffffffffffffffffff1663313ce5676040518163ffffffff1660e01b8152600401602060405180830381865afa158015611728573d6000803e3d6000fd5b505050506040513d601f19601f8201168201806040525081019061174c9190612cf4565b60ff166001819055506001600060156101000a81548160ff0219169083151502179055506000600c60009054906101000a900473ffffffffffffffffffffffffffffffffffffffff1673ffffffffffffffffffffffffffffffffffffffff166323b872dd3330896040518463ffffffff1660e01b81526004016117d193929190612789565b6020604051808303816000875af11580156117f0573d6000803e3d6000fd5b505050506040513d601f19601f820116820180604052508101906118149190612158565b9050600115158115151461185d576040517f08c379a000000000000000000000000000000000000000000000000000000000815260040161185490612b31565b60405180910390fd5b670de0b6b3a764000061186e6119b5565b60035461187b9190611fdd565b6118859190611f78565b600560003073ffffffffffffffffffffffffffffffffffffffff1673ffffffffffffffffffffffffffffffffffffffff168152602001908152602001600020819055506305f5e1006118d5610a55565b6004546118e29190611fdd565b6118ec9190611f78565b600660003073ffffffffffffffffffffffffffffffffffffffff1673ffffffffffffffffffffffffffffffffffffffff168152602001908152602001600020819055507f8866993f7c029be4215942b34c1545282b8f28836579f2687fe96a5a6bf7770460405160405180910390a1505050505050565b60025481565b6000670de0b6b3a764000061197c6119b5565b6003546119899190611fdd565b60026119959190611fdd565b61199f9190611f78565b905090565b60008054906101000a900460ff1681565b6000600b60009054906101000a900473ffffffffffffffffffffffffffffffffffffffff1673ffffffffffffffffffffffffffffffffffffffff1663a035b1fe6040518163ffffffff1660e01b8152600401602060405180830381865afa158015611a24573d6000803e3d6000fd5b505050506040513d601f19601f82011682018060405250810190611a4891906120bb565b905090565b60056020528060005260406000206000915090505481565b600060019054906101000a900473ffffffffffffffffffffffffffffffffffffffff1681565b600080fd5b60011515600060159054906101000a900460ff16151514611ae6576040517f08c379a0000000000000000000000000000000000000000000000000000000008152600401611add90611e50565b60405180910390fd5b60003411611b29576040517f08c379a0000000000000000000000000000000000000000000000000000000008152600401611b2090612d93565b60405180910390fd5b600060035460045434611b3c9190611fdd565b611b469190611f78565b905034600354611b569190611f15565b60038190555080600454611b6a9190611f15565b600481905550600454600354611b809190611fdd565b60028190555060016000806101000a81548160ff0219169083151502179055506000600c60009054906101000a900473ffffffffffffffffffffffffffffffffffffffff1673ffffffffffffffffffffffffffffffffffffffff166323b872dd3330856040518463ffffffff1660e01b8152600401611c0193929190612789565b6020604051808303816000875af1158015611c20573d6000803e3d6000fd5b505050506040513d601f19601f82011682018060405250810190611c449190612158565b90506001151581151514611c8d576040517f08c379a0000000000000000000000000000000000000000000000000000000008152600401611c8490612b31565b60405180910390fd5b60008060006101000a81548160ff021916908315150217905550670de0b6b3a7640000611cb86119b5565b600354611cc59190611fdd565b611ccf9190611f78565b600560003073ffffffffffffffffffffffffffffffffffffffff1673ffffffffffffffffffffffffffffffffffffffff168152602001908152602001600020819055506305f5e100611d1f610a55565b600454611d2c9190611fdd565b611d369190611f78565b600660003073ffffffffffffffffffffffffffffffffffffffff1673ffffffffffffffffffffffffffffffffffffffff168152602001908152602001600020819055507f8866993f7c029be4215942b34c1545282b8f28836579f2687fe96a5a6bf7770460405160405180910390a15050565b60075481565b80600b60006101000a81548173ffffffffffffffffffffffffffffffffffffffff021916908373ffffffffffffffffffffffffffffffffffffffff16021790555050565b600082825260208201905092915050565b7f486176656e277420637265617465642074686520706f6f6c2079657421000000600082015250565b6000611e3a601d83611df3565b9150611e4582611e04565b602082019050919050565b60006020820190508181036000830152611e6981611e2d565b9050919050565b7f506f736974697665206574686572207265717569726564000000000000000000600082015250565b6000611ea6601783611df3565b9150611eb182611e70565b602082019050919050565b60006020820190508181036000830152611ed581611e99565b9050919050565b6000819050919050565b7f4e487b7100000000000000000000000000000000000000000000000000000000600052601160045260246000fd5b6000611f2082611edc565b9150611f2b83611edc565b9250828201905080821115611f4357611f42611ee6565b5b92915050565b7f4e487b7100000000000000000000000000000000000000000000000000000000600052601260045260246000fd5b6000611f8382611edc565b9150611f8e83611edc565b925082611f9e57611f9d611f49565b5b828204905092915050565b6000611fb482611edc565b9150611fbf83611edc565b9250828203905081811115611fd757611fd6611ee6565b5b92915050565b6000611fe882611edc565b9150611ff383611edc565b925082820261200181611edc565b9150828204841483151761201857612017611ee6565b5b5092915050565b600073ffffffffffffffffffffffffffffffffffffffff82169050919050565b600061204a8261201f565b9050919050565b61205a8161203f565b82525050565b60006020820190506120756000830184612051565b92915050565b6000604051905090565b600080fd5b600080fd5b61209881611edc565b81146120a357600080fd5b50565b6000815190506120b58161208f565b92915050565b6000602082840312156120d1576120d0612085565b5b60006120df848285016120a6565b91505092915050565b6120f181611edc565b82525050565b600060408201905061210c6000830185612051565b61211960208301846120e8565b9392505050565b60008115159050919050565b61213581612120565b811461214057600080fd5b50565b6000815190506121528161212c565b92915050565b60006020828403121561216e5761216d612085565b5b600061217c84828501612143565b91505092915050565b7f4661696c656420746f207472616e7366657220746f6b656e7320746f2064657860008201527f20636f6e747261637420696e207265636569766520666e000000000000000000602082015250565b60006121e1603783611df3565b91506121ec82612185565b604082019050919050565b60006020820190508181036000830152612210816121d4565b9050919050565b60007fffffffff0000000000000000000000000000000000000000000000000000000082169050919050565b61224c81612217565b811461225757600080fd5b50565b60008135905061226981612243565b92915050565b60006020828403121561228557612284612085565b5b60006122938482850161225a565b91505092915050565b6122a581612120565b82525050565b60006020820190506122c0600083018461229c565b92915050565b60006020820190506122db60008301846120e8565b92915050565b6122ea8161203f565b81146122f557600080fd5b50565b600081359050612307816122e1565b92915050565b60008135905061231c8161208f565b92915050565b60008060006060848603121561233b5761233a612085565b5b6000612349868287016122f8565b935050602061235a8682870161230d565b925050604061236b868287016122f8565b9150509250925092565b60006020828403121561238b5761238a612085565b5b6000612399848285016122f8565b91505092915050565b600081519050919050565b60005b838110156123cb5780820151818401526020810190506123b0565b60008484015250505050565b6000601f19601f8301169050919050565b60006123f3826123a2565b6123fd8185611df3565b935061240d8185602086016123ad565b612416816123d7565b840191505092915050565b6000602082019050818103600083015261243b81846123e8565b905092915050565b60006020828403121561245957612458612085565b5b60006124678482850161230d565b91505092915050565b600061018082019050612486600083018f612051565b8181036020830152612498818e6123e8565b905081810360408301526124ac818d6123e8565b90506124bb606083018c612051565b6124c8608083018b6120e8565b6124d560a083018a6120e8565b6124e260c08301896120e8565b6124ef60e08301886120e8565b6124fd6101008301876120e8565b61250b6101208301866120e8565b6125196101408301856120e8565b6125276101608301846120e8565b9d9c50505050505050505050505050565b600080600080600060a0868803121561255457612553612085565b5b60006125628882890161230d565b95505060206125738882890161230d565b94505060406125848882890161230d565b9350506060612595888289016122f8565b92505060806125a6888289016122f8565b9150509295509295909350565b7f7769747479206572726f72206d65737361676500000000000000000000000000600082015250565b60006125e9601383611df3565b91506125f4826125b3565b602082019050919050565b60006020820190508181036000830152612618816125dc565b9050919050565b7f63616e6e6f742072656d6f7665206d6f7265206574686572207468616e20686160008201527f7665000000000000000000000000000000000000000000000000000000000000602082015250565b600061267b602283611df3565b91506126868261261f565b604082019050919050565b600060208201905081810360008301526126aa8161266e565b9050919050565b600081905092915050565b50565b60006126cc6000836126b1565b91506126d7826126bc565b600082019050919050565b60006126ed826126bf565b9150819050919050565b7f6572633230207265636569766564207061796d656e74206469646e7420776f7260008201527f6b00000000000000000000000000000000000000000000000000000000000000602082015250565b6000612753602183611df3565b915061275e826126f7565b604082019050919050565b6000602082019050818103600083015261278281612746565b9050919050565b600060608201905061279e6000830186612051565b6127ab6020830185612051565b6127b860408301846120e8565b949350505050565b7f4661696c656420746f207472616e7366657220746f6b656e7320746f2064657860008201527f20636f6e747261637420696e20657263207265636569766520666e0000000000602082015250565b600061281c603b83611df3565b9150612827826127c0565b604082019050919050565b6000602082019050818103600083015261284b8161280f565b9050919050565b600080fd5b600080fd5b7f4e487b7100000000000000000000000000000000000000000000000000000000600052604160045260246000fd5b612894826123d7565b810181811067ffffffffffffffff821117156128b3576128b261285c565b5b80604052505050565b60006128c661207b565b90506128d2828261288b565b919050565b600067ffffffffffffffff8211156128f2576128f161285c565b5b6128fb826123d7565b9050602081019050919050565b600061291b612916846128d7565b6128bc565b90508281526020810184848401111561293757612936612857565b5b6129428482856123ad565b509392505050565b600082601f83011261295f5761295e612852565b5b815161296f848260208601612908565b91505092915050565b60006020828403121561298e5761298d612085565b5b600082015167ffffffffffffffff8111156129ac576129ab61208a565b5b6129b88482850161294a565b91505092915050565b7f746f207375627472616374206c69717569646974792c206974206d757374206260008201527f6520706f73697469766520657468657200000000000000000000000000000000602082015250565b6000612a1d603083611df3565b9150612a28826129c1565b604082019050919050565b60006020820190508181036000830152612a4c81612a10565b9050919050565b7f7061796d656e74206469646e277420776f726b00000000000000000000000000600082015250565b6000612a89601383611df3565b9150612a9482612a53565b602082019050919050565b60006020820190508181036000830152612ab881612a7c565b9050919050565b7f4661696c656420746f207472616e7366657220746f6b656e7320746f2064657860008201527f20636f6e747261637420696e2063726561746520706f6f6c0000000000000000602082015250565b6000612b1b603883611df3565b9150612b2682612abf565b604082019050919050565b60006020820190508181036000830152612b4a81612b0e565b9050919050565b7f506f6f6c20616c72656164792063726561746564212043616e742063616c6c2060008201527f616761696e210000000000000000000000000000000000000000000000000000602082015250565b6000612bad602683611df3565b9150612bb882612b51565b604082019050919050565b60006020820190508181036000830152612bdc81612ba0565b9050919050565b7f6f6e6c79206465706c6f7965722063616e2063616c6c20746869732100000000600082015250565b6000612c19601c83611df3565b9150612c2482612be3565b602082019050919050565b60006020820190508181036000830152612c4881612c0c565b9050919050565b7f6d757374207061737320696e2065746865722077697468207468652063616c6c600082015250565b6000612c85602083611df3565b9150612c9082612c4f565b602082019050919050565b60006020820190508181036000830152612cb481612c78565b9050919050565b600060ff82169050919050565b612cd181612cbb565b8114612cdc57600080fd5b50565b600081519050612cee81612cc8565b92915050565b600060208284031215612d0a57612d09612085565b5b6000612d1884828501612cdf565b91505092915050565b7f746f20616464206c69717569646974792c206974206d75737420626520706f7360008201527f6974697665206574686572000000000000000000000000000000000000000000602082015250565b6000612d7d602b83611df3565b9150612d8882612d21565b604082019050919050565b60006020820190508181036000830152612dac81612d70565b905091905056fea26469706673582212200fbee325e8542402f084ed52b057129f90d85e31c8905597eca78ba1473fa34d64736f6c63430008120033",
			"opcodes": "PUSH1 0x80 PUSH1 0x40 MSTORE CALLVALUE DUP1 ISZERO PUSH2 0x10 JUMPI PUSH1 0x0 DUP1 REVERT JUMPDEST POP CALLER PUSH1 0x0 PUSH1 0x1 PUSH2 0x100 EXP DUP2 SLOAD DUP2 PUSH20 0xFFFFFFFFFFFFFFFFFFFFFFFFFFFFFFFFFFFFFFFF MUL NOT AND SWAP1 DUP4 PUSH20 0xFFFFFFFFFFFFFFFFFFFFFFFFFFFFFFFFFFFFFFFF AND MUL OR SWAP1 SSTORE POP PUSH1 0x0 DUP1 PUSH1 0x15 PUSH2 0x100 EXP DUP2 SLOAD DUP2 PUSH1 0xFF MUL NOT AND SWAP1 DUP4 ISZERO ISZERO MUL OR SWAP1 SSTORE POP PUSH1 0x0 DUP1 PUSH1 0x0 PUSH2 0x100 EXP DUP2 SLOAD DUP2 PUSH1 0xFF MUL NOT AND SWAP1 DUP4 ISZERO ISZERO MUL OR SWAP1 SSTORE POP PUSH2 0x2DE9 DUP1 PUSH2 0x95 PUSH1 0x0 CODECOPY PUSH1 0x0 RETURN INVALID PUSH1 0x80 PUSH1 0x40 MSTORE PUSH1 0x4 CALLDATASIZE LT PUSH2 0x1A0 JUMPI PUSH1 0x0 CALLDATALOAD PUSH1 0xE0 SHR DUP1 PUSH4 0x9C8F9F23 GT PUSH2 0xEC JUMPI DUP1 PUSH4 0xCA7C4DBA GT PUSH2 0x8A JUMPI DUP1 PUSH4 0xD826F88F GT PUSH2 0x64 JUMPI DUP1 PUSH4 0xD826F88F EQ PUSH2 0x868 JUMPI DUP1 PUSH4 0xE8078D94 EQ PUSH2 0x87F JUMPI DUP1 PUSH4 0xE86DEA4A EQ PUSH2 0x889 JUMPI DUP1 PUSH4 0xFEFFE7E4 EQ PUSH2 0x8B4 JUMPI PUSH2 0x444 JUMP JUMPDEST DUP1 PUSH4 0xCA7C4DBA EQ PUSH2 0x7D5 JUMPI DUP1 PUSH4 0xD3C51D91 EQ PUSH2 0x800 JUMPI DUP1 PUSH4 0xD5F39488 EQ PUSH2 0x83D JUMPI PUSH2 0x444 JUMP JUMPDEST DUP1 PUSH4 0xADD010A5 GT PUSH2 0xC6 JUMPI DUP1 PUSH4 0xADD010A5 EQ PUSH2 0x738 JUMPI DUP1 PUSH4 0xB4F40C61 EQ PUSH2 0x754 JUMPI DUP1 PUSH4 0xB7C56525 EQ PUSH2 0x77F JUMPI DUP1 PUSH4 0xC7A4A7D1 EQ PUSH2 0x7AA JUMPI PUSH2 0x444 JUMP JUMPDEST DUP1 PUSH4 0x9C8F9F23 EQ PUSH2 0x6AE JUMPI DUP1 PUSH4 0x9FED4AD8 EQ PUSH2 0x6D7 JUMPI DUP1 PUSH4 0xA56DFE4A EQ PUSH2 0x70D JUMPI PUSH2 0x444 JUMP JUMPDEST DUP1 PUSH4 0x4B94F50E GT PUSH2 0x159 JUMPI DUP1 PUSH4 0x7FF879E3 GT PUSH2 0x133 JUMPI DUP1 PUSH4 0x7FF879E3 EQ PUSH2 0x5DE JUMPI DUP1 PUSH4 0x7FFA030D EQ PUSH2 0x61B JUMPI DUP1 PUSH4 0x8D729ABB EQ PUSH2 0x646 JUMPI DUP1 PUSH4 0x95D89B41 EQ PUSH2 0x683 JUMPI PUSH2 0x444 JUMP JUMPDEST DUP1 PUSH4 0x4B94F50E EQ PUSH2 0x55D JUMPI DUP1 PUSH4 0x4F54A081 EQ PUSH2 0x588 JUMPI DUP1 PUSH4 0x5DFD8773 EQ PUSH2 0x5B3 JUMPI PUSH2 0x444 JUMP JUMPDEST DUP1 PUSH4 0x1FFC9A7 EQ PUSH2 0x449 JUMPI DUP1 PUSH4 0xC55699C EQ PUSH2 0x486 JUMPI DUP1 PUSH4 0x180B0D7E EQ PUSH2 0x4B1 JUMPI DUP1 PUSH4 0x276184AE EQ PUSH2 0x4DC JUMPI DUP1 PUSH4 0x2BFDF307 EQ PUSH2 0x507 JUMPI DUP1 PUSH4 0x313CE567 EQ PUSH2 0x532 JUMPI PUSH2 0x444 JUMP JUMPDEST CALLDATASIZE PUSH2 0x444 JUMPI PUSH1 0x1 ISZERO ISZERO PUSH1 0x0 PUSH1 0x15 SWAP1 SLOAD SWAP1 PUSH2 0x100 EXP SWAP1 DIV PUSH1 0xFF AND ISZERO ISZERO EQ PUSH2 0x1FB JUMPI PUSH1 0x40 MLOAD PUSH32 0x8C379A000000000000000000000000000000000000000000000000000000000 DUP2 MSTORE PUSH1 0x4 ADD PUSH2 0x1F2 SWAP1 PUSH2 0x1E50 JUMP JUMPDEST PUSH1 0x40 MLOAD DUP1 SWAP2 SUB SWAP1 REVERT JUMPDEST PUSH1 0x0 CALLVALUE GT PUSH2 0x23E JUMPI PUSH1 0x40 MLOAD PUSH32 0x8C379A000000000000000000000000000000000000000000000000000000000 DUP2 MSTORE PUSH1 0x4 ADD PUSH2 0x235 SWAP1 PUSH2 0x1EBC JUMP JUMPDEST PUSH1 0x40 MLOAD DUP1 SWAP2 SUB SWAP1 REVERT JUMPDEST CALLVALUE PUSH1 0x3 SLOAD PUSH2 0x24C SWAP2 SWAP1 PUSH2 0x1F15 JUMP JUMPDEST PUSH1 0x3 DUP2 SWAP1 SSTORE POP PUSH1 0x0 PUSH1 0x4 SLOAD SWAP1 POP PUSH1 0x3 SLOAD PUSH1 0x2 SLOAD PUSH2 0x269 SWAP2 SWAP1 PUSH2 0x1F78 JUMP JUMPDEST PUSH1 0x4 DUP2 SWAP1 SSTORE POP PUSH1 0x0 PUSH1 0x4 SLOAD DUP3 PUSH2 0x27F SWAP2 SWAP1 PUSH2 0x1FA9 JUMP JUMPDEST SWAP1 POP PUSH1 0x8 SLOAD DUP2 PUSH1 0x7 SLOAD PUSH2 0x292 SWAP2 SWAP1 PUSH2 0x1FDD JUMP JUMPDEST PUSH2 0x29C SWAP2 SWAP1 PUSH2 0x1F78 JUMP JUMPDEST PUSH1 0xA SLOAD PUSH2 0x2A9 SWAP2 SWAP1 PUSH2 0x1F15 JUMP JUMPDEST PUSH1 0xA DUP2 SWAP1 SSTORE POP PUSH1 0xC PUSH1 0x0 SWAP1 SLOAD SWAP1 PUSH2 0x100 EXP SWAP1 DIV PUSH20 0xFFFFFFFFFFFFFFFFFFFFFFFFFFFFFFFFFFFFFFFF AND PUSH20 0xFFFFFFFFFFFFFFFFFFFFFFFFFFFFFFFFFFFFFFFF AND PUSH4 0x70A08231 ADDRESS PUSH1 0x40 MLOAD DUP3 PUSH4 0xFFFFFFFF AND PUSH1 0xE0 SHL DUP2 MSTORE PUSH1 0x4 ADD PUSH2 0x30A SWAP2 SWAP1 PUSH2 0x2060 JUMP JUMPDEST PUSH1 0x20 PUSH1 0x40 MLOAD DUP1 DUP4 SUB DUP2 DUP7 GAS STATICCALL ISZERO DUP1 ISZERO PUSH2 0x327 JUMPI RETURNDATASIZE PUSH1 0x0 DUP1 RETURNDATACOPY RETURNDATASIZE PUSH1 0x0 REVERT JUMPDEST POP POP POP POP PUSH1 0x40 MLOAD RETURNDATASIZE PUSH1 0x1F NOT PUSH1 0x1F DUP3 ADD AND DUP3 ADD DUP1 PUSH1 0x40 MSTORE POP DUP2 ADD SWAP1 PUSH2 0x34B SWAP2 SWAP1 PUSH2 0x20BB JUMP JUMPDEST DUP2 GT ISZERO PUSH2 0x357 JUMPI PUSH1 0x0 DUP1 REVERT JUMPDEST PUSH1 0x0 PUSH1 0xC PUSH1 0x0 SWAP1 SLOAD SWAP1 PUSH2 0x100 EXP SWAP1 DIV PUSH20 0xFFFFFFFFFFFFFFFFFFFFFFFFFFFFFFFFFFFFFFFF AND PUSH20 0xFFFFFFFFFFFFFFFFFFFFFFFFFFFFFFFFFFFFFFFF AND PUSH4 0xA9059CBB CALLER DUP5 PUSH1 0x40 MLOAD DUP4 PUSH4 0xFFFFFFFF AND PUSH1 0xE0 SHL DUP2 MSTORE PUSH1 0x4 ADD PUSH2 0x3B6 SWAP3 SWAP2 SWAP1 PUSH2 0x20F7 JUMP JUMPDEST PUSH1 0x20 PUSH1 0x40 MLOAD DUP1 DUP4 SUB DUP2 PUSH1 0x0 DUP8 GAS CALL ISZERO DUP1 ISZERO PUSH2 0x3D5 JUMPI RETURNDATASIZE PUSH1 0x0 DUP1 RETURNDATACOPY RETURNDATASIZE PUSH1 0x0 REVERT JUMPDEST POP POP POP POP PUSH1 0x40 MLOAD RETURNDATASIZE PUSH1 0x1F NOT PUSH1 0x1F DUP3 ADD AND DUP3 ADD DUP1 PUSH1 0x40 MSTORE POP DUP2 ADD SWAP1 PUSH2 0x3F9 SWAP2 SWAP1 PUSH2 0x2158 JUMP JUMPDEST SWAP1 POP PUSH1 0x1 ISZERO ISZERO DUP2 ISZERO ISZERO EQ PUSH2 0x442 JUMPI PUSH1 0x40 MLOAD PUSH32 0x8C379A000000000000000000000000000000000000000000000000000000000 DUP2 MSTORE PUSH1 0x4 ADD PUSH2 0x439 SWAP1 PUSH2 0x21F7 JUMP JUMPDEST PUSH1 0x40 MLOAD DUP1 SWAP2 SUB SWAP1 REVERT JUMPDEST STOP JUMPDEST PUSH1 0x0 DUP1 REVERT JUMPDEST CALLVALUE DUP1 ISZERO PUSH2 0x455 JUMPI PUSH1 0x0 DUP1 REVERT JUMPDEST POP PUSH2 0x470 PUSH1 0x4 DUP1 CALLDATASIZE SUB DUP2 ADD SWAP1 PUSH2 0x46B SWAP2 SWAP1 PUSH2 0x226F JUMP JUMPDEST PUSH2 0x8DD JUMP JUMPDEST PUSH1 0x40 MLOAD PUSH2 0x47D SWAP2 SWAP1 PUSH2 0x22AB JUMP JUMPDEST PUSH1 0x40 MLOAD DUP1 SWAP2 SUB SWAP1 RETURN JUMPDEST CALLVALUE DUP1 ISZERO PUSH2 0x492 JUMPI PUSH1 0x0 DUP1 REVERT JUMPDEST POP PUSH2 0x49B PUSH2 0xA17 JUMP JUMPDEST PUSH1 0x40 MLOAD PUSH2 0x4A8 SWAP2 SWAP1 PUSH2 0x22C6 JUMP JUMPDEST PUSH1 0x40 MLOAD DUP1 SWAP2 SUB SWAP1 RETURN JUMPDEST CALLVALUE DUP1 ISZERO PUSH2 0x4BD JUMPI PUSH1 0x0 DUP1 REVERT JUMPDEST POP PUSH2 0x4C6 PUSH2 0xA1D JUMP JUMPDEST PUSH1 0x40 MLOAD PUSH2 0x4D3 SWAP2 SWAP1 PUSH2 0x22C6 JUMP JUMPDEST PUSH1 0x40 MLOAD DUP1 SWAP2 SUB SWAP1 RETURN JUMPDEST CALLVALUE DUP1 ISZERO PUSH2 0x4E8 JUMPI PUSH1 0x0 DUP1 REVERT JUMPDEST POP PUSH2 0x4F1 PUSH2 0xA23 JUMP JUMPDEST PUSH1 0x40 MLOAD PUSH2 0x4FE SWAP2 SWAP1 PUSH2 0x2060 JUMP JUMPDEST PUSH1 0x40 MLOAD DUP1 SWAP2 SUB SWAP1 RETURN JUMPDEST CALLVALUE DUP1 ISZERO PUSH2 0x513 JUMPI PUSH1 0x0 DUP1 REVERT JUMPDEST POP PUSH2 0x51C PUSH2 0xA49 JUMP JUMPDEST PUSH1 0x40 MLOAD PUSH2 0x529 SWAP2 SWAP1 PUSH2 0x22C6 JUMP JUMPDEST PUSH1 0x40 MLOAD DUP1 SWAP2 SUB SWAP1 RETURN JUMPDEST CALLVALUE DUP1 ISZERO PUSH2 0x53E JUMPI PUSH1 0x0 DUP1 REVERT JUMPDEST POP PUSH2 0x547 PUSH2 0xA4F JUMP JUMPDEST PUSH1 0x40 MLOAD PUSH2 0x554 SWAP2 SWAP1 PUSH2 0x22C6 JUMP JUMPDEST PUSH1 0x40 MLOAD DUP1 SWAP2 SUB SWAP1 RETURN JUMPDEST CALLVALUE DUP1 ISZERO PUSH2 0x569 JUMPI PUSH1 0x0 DUP1 REVERT JUMPDEST POP PUSH2 0x572 PUSH2 0xA55 JUMP JUMPDEST PUSH1 0x40 MLOAD PUSH2 0x57F SWAP2 SWAP1 PUSH2 0x22C6 JUMP JUMPDEST PUSH1 0x40 MLOAD DUP1 SWAP2 SUB SWAP1 RETURN JUMPDEST CALLVALUE DUP1 ISZERO PUSH2 0x594 JUMPI PUSH1 0x0 DUP1 REVERT JUMPDEST POP PUSH2 0x59D PUSH2 0xA8E JUMP JUMPDEST PUSH1 0x40 MLOAD PUSH2 0x5AA SWAP2 SWAP1 PUSH2 0x2060 JUMP JUMPDEST PUSH1 0x40 MLOAD DUP1 SWAP2 SUB SWAP1 RETURN JUMPDEST CALLVALUE DUP1 ISZERO PUSH2 0x5BF JUMPI PUSH1 0x0 DUP1 REVERT JUMPDEST POP PUSH2 0x5C8 PUSH2 0xAB4 JUMP JUMPDEST PUSH1 0x40 MLOAD PUSH2 0x5D5 SWAP2 SWAP1 PUSH2 0x22C6 JUMP JUMPDEST PUSH1 0x40 MLOAD DUP1 SWAP2 SUB SWAP1 RETURN JUMPDEST CALLVALUE DUP1 ISZERO PUSH2 0x5EA JUMPI PUSH1 0x0 DUP1 REVERT JUMPDEST POP PUSH2 0x605 PUSH1 0x4 DUP1 CALLDATASIZE SUB DUP2 ADD SWAP1 PUSH2 0x600 SWAP2 SWAP1 PUSH2 0x2322 JUMP JUMPDEST PUSH2 0xABA JUMP JUMPDEST PUSH1 0x40 MLOAD PUSH2 0x612 SWAP2 SWAP1 PUSH2 0x22AB JUMP JUMPDEST PUSH1 0x40 MLOAD DUP1 SWAP2 SUB SWAP1 RETURN JUMPDEST CALLVALUE DUP1 ISZERO PUSH2 0x627 JUMPI PUSH1 0x0 DUP1 REVERT JUMPDEST POP PUSH2 0x630 PUSH2 0xDF7 JUMP JUMPDEST PUSH1 0x40 MLOAD PUSH2 0x63D SWAP2 SWAP1 PUSH2 0x22AB JUMP JUMPDEST PUSH1 0x40 MLOAD DUP1 SWAP2 SUB SWAP1 RETURN JUMPDEST CALLVALUE DUP1 ISZERO PUSH2 0x652 JUMPI PUSH1 0x0 DUP1 REVERT JUMPDEST POP PUSH2 0x66D PUSH1 0x4 DUP1 CALLDATASIZE SUB DUP2 ADD SWAP1 PUSH2 0x668 SWAP2 SWAP1 PUSH2 0x2375 JUMP JUMPDEST PUSH2 0xE0A JUMP JUMPDEST PUSH1 0x40 MLOAD PUSH2 0x67A SWAP2 SWAP1 PUSH2 0x22C6 JUMP JUMPDEST PUSH1 0x40 MLOAD DUP1 SWAP2 SUB SWAP1 RETURN JUMPDEST CALLVALUE DUP1 ISZERO PUSH2 0x68F JUMPI PUSH1 0x0 DUP1 REVERT JUMPDEST POP PUSH2 0x698 PUSH2 0xE22 JUMP JUMPDEST PUSH1 0x40 MLOAD PUSH2 0x6A5 SWAP2 SWAP1 PUSH2 0x2421 JUMP JUMPDEST PUSH1 0x40 MLOAD DUP1 SWAP2 SUB SWAP1 RETURN JUMPDEST CALLVALUE DUP1 ISZERO PUSH2 0x6BA JUMPI PUSH1 0x0 DUP1 REVERT JUMPDEST POP PUSH2 0x6D5 PUSH1 0x4 DUP1 CALLDATASIZE SUB DUP2 ADD SWAP1 PUSH2 0x6D0 SWAP2 SWAP1 PUSH2 0x2443 JUMP JUMPDEST PUSH2 0xEBF JUMP JUMPDEST STOP JUMPDEST CALLVALUE DUP1 ISZERO PUSH2 0x6E3 JUMPI PUSH1 0x0 DUP1 REVERT JUMPDEST POP PUSH2 0x6EC PUSH2 0x136F JUMP JUMPDEST PUSH1 0x40 MLOAD PUSH2 0x704 SWAP13 SWAP12 SWAP11 SWAP10 SWAP9 SWAP8 SWAP7 SWAP6 SWAP5 SWAP4 SWAP3 SWAP2 SWAP1 PUSH2 0x2470 JUMP JUMPDEST PUSH1 0x40 MLOAD DUP1 SWAP2 SUB SWAP1 RETURN JUMPDEST CALLVALUE DUP1 ISZERO PUSH2 0x719 JUMPI PUSH1 0x0 DUP1 REVERT JUMPDEST POP PUSH2 0x722 PUSH2 0x1510 JUMP JUMPDEST PUSH1 0x40 MLOAD PUSH2 0x72F SWAP2 SWAP1 PUSH2 0x22C6 JUMP JUMPDEST PUSH1 0x40 MLOAD DUP1 SWAP2 SUB SWAP1 RETURN JUMPDEST PUSH2 0x752 PUSH1 0x4 DUP1 CALLDATASIZE SUB DUP2 ADD SWAP1 PUSH2 0x74D SWAP2 SWAP1 PUSH2 0x2538 JUMP JUMPDEST PUSH2 0x1516 JUMP JUMPDEST STOP JUMPDEST CALLVALUE DUP1 ISZERO PUSH2 0x760 JUMPI PUSH1 0x0 DUP1 REVERT JUMPDEST POP PUSH2 0x769 PUSH2 0x1963 JUMP JUMPDEST PUSH1 0x40 MLOAD PUSH2 0x776 SWAP2 SWAP1 PUSH2 0x22C6 JUMP JUMPDEST PUSH1 0x40 MLOAD DUP1 SWAP2 SUB SWAP1 RETURN JUMPDEST CALLVALUE DUP1 ISZERO PUSH2 0x78B JUMPI PUSH1 0x0 DUP1 REVERT JUMPDEST POP PUSH2 0x794 PUSH2 0x1969 JUMP JUMPDEST PUSH1 0x40 MLOAD PUSH2 0x7A1 SWAP2 SWAP1 PUSH2 0x22C6 JUMP JUMPDEST PUSH1 0x40 MLOAD DUP1 SWAP2 SUB SWAP1 RETURN JUMPDEST CALLVALUE DUP1 ISZERO PUSH2 0x7B6 JUMPI PUSH1 0x0 DUP1 REVERT JUMPDEST POP PUSH2 0x7BF PUSH2 0x19A4 JUMP JUMPDEST PUSH1 0x40 MLOAD PUSH2 0x7CC SWAP2 SWAP1 PUSH2 0x22AB JUMP JUMPDEST PUSH1 0x40 MLOAD DUP1 SWAP2 SUB SWAP1 RETURN JUMPDEST CALLVALUE DUP1 ISZERO PUSH2 0x7E1 JUMPI PUSH1 0x0 DUP1 REVERT JUMPDEST POP PUSH2 0x7EA PUSH2 0x19B5 JUMP JUMPDEST PUSH1 0x40 MLOAD PUSH2 0x7F7 SWAP2 SWAP1 PUSH2 0x22C6 JUMP JUMPDEST PUSH1 0x40 MLOAD DUP1 SWAP2 SUB SWAP1 RETURN JUMPDEST CALLVALUE DUP1 ISZERO PUSH2 0x80C JUMPI PUSH1 0x0 DUP1 REVERT JUMPDEST POP PUSH2 0x827 PUSH1 0x4 DUP1 CALLDATASIZE SUB DUP2 ADD SWAP1 PUSH2 0x822 SWAP2 SWAP1 PUSH2 0x2375 JUMP JUMPDEST PUSH2 0x1A4D JUMP JUMPDEST PUSH1 0x40 MLOAD PUSH2 0x834 SWAP2 SWAP1 PUSH2 0x22C6 JUMP JUMPDEST PUSH1 0x40 MLOAD DUP1 SWAP2 SUB SWAP1 RETURN JUMPDEST CALLVALUE DUP1 ISZERO PUSH2 0x849 JUMPI PUSH1 0x0 DUP1 REVERT JUMPDEST POP PUSH2 0x852 PUSH2 0x1A65 JUMP JUMPDEST PUSH1 0x40 MLOAD PUSH2 0x85F SWAP2 SWAP1 PUSH2 0x2060 JUMP JUMPDEST PUSH1 0x40 MLOAD DUP1 SWAP2 SUB SWAP1 RETURN JUMPDEST CALLVALUE DUP1 ISZERO PUSH2 0x874 JUMPI PUSH1 0x0 DUP1 REVERT JUMPDEST POP PUSH2 0x87D PUSH2 0x1A8B JUMP JUMPDEST STOP JUMPDEST PUSH2 0x887 PUSH2 0x1A90 JUMP JUMPDEST STOP JUMPDEST CALLVALUE DUP1 ISZERO PUSH2 0x895 JUMPI PUSH1 0x0 DUP1 REVERT JUMPDEST POP PUSH2 0x89E PUSH2 0x1DA9 JUMP JUMPDEST PUSH1 0x40 MLOAD PUSH2 0x8AB SWAP2 SWAP1 PUSH2 0x22C6 JUMP JUMPDEST PUSH1 0x40 MLOAD DUP1 SWAP2 SUB SWAP1 RETURN JUMPDEST CALLVALUE DUP1 ISZERO PUSH2 0x8C0 JUMPI PUSH1 0x0 DUP1 REVERT JUMPDEST POP PUSH2 0x8DB PUSH1 0x4 DUP1 CALLDATASIZE SUB DUP2 ADD SWAP1 PUSH2 0x8D6 SWAP2 SWAP1 PUSH2 0x2375 JUMP JUMPDEST PUSH2 0x1DAF JUMP JUMPDEST STOP JUMPDEST PUSH1 0x0 PUSH32 0x5F8D5FE400000000000000000000000000000000000000000000000000000000 PUSH28 0xFFFFFFFFFFFFFFFFFFFFFFFFFFFFFFFFFFFFFFFFFFFFFFFFFFFFFFFF NOT AND DUP3 PUSH28 0xFFFFFFFFFFFFFFFFFFFFFFFFFFFFFFFFFFFFFFFFFFFFFFFFFFFFFFFF NOT AND EQ DUP1 PUSH2 0x9A8 JUMPI POP PUSH32 0x1FFC9A700000000000000000000000000000000000000000000000000000000 PUSH28 0xFFFFFFFFFFFFFFFFFFFFFFFFFFFFFFFFFFFFFFFFFFFFFFFFFFFFFFFF NOT AND DUP3 PUSH28 0xFFFFFFFFFFFFFFFFFFFFFFFFFFFFFFFFFFFFFFFFFFFFFFFFFFFFFFFF NOT AND EQ JUMPDEST DUP1 PUSH2 0xA10 JUMPI POP PUSH32 0x7FF879E300000000000000000000000000000000000000000000000000000000 PUSH28 0xFFFFFFFFFFFFFFFFFFFFFFFFFFFFFFFFFFFFFFFFFFFFFFFFFFFFFFFF NOT AND DUP3 PUSH28 0xFFFFFFFFFFFFFFFFFFFFFFFFFFFFFFFFFFFFFFFFFFFFFFFFFFFFFFFF NOT AND EQ JUMPDEST SWAP1 POP SWAP2 SWAP1 POP JUMP JUMPDEST PUSH1 0x3 SLOAD DUP2 JUMP JUMPDEST PUSH1 0x8 SLOAD DUP2 JUMP JUMPDEST PUSH1 0xC PUSH1 0x0 SWAP1 SLOAD SWAP1 PUSH2 0x100 EXP SWAP1 DIV PUSH20 0xFFFFFFFFFFFFFFFFFFFFFFFFFFFFFFFFFFFFFFFF AND DUP2 JUMP JUMPDEST PUSH1 0xA SLOAD DUP2 JUMP JUMPDEST PUSH1 0x1 SLOAD DUP2 JUMP JUMPDEST PUSH1 0x0 PUSH5 0x2540BE400 PUSH1 0x4 SLOAD PUSH2 0xA68 PUSH2 0x19B5 JUMP JUMPDEST PUSH1 0x3 SLOAD PUSH2 0xA75 SWAP2 SWAP1 PUSH2 0x1FDD JUMP JUMPDEST PUSH2 0xA7F SWAP2 SWAP1 PUSH2 0x1F78 JUMP JUMPDEST PUSH2 0xA89 SWAP2 SWAP1 PUSH2 0x1F78 JUMP JUMPDEST SWAP1 POP SWAP1 JUMP JUMPDEST PUSH1 0xB PUSH1 0x0 SWAP1 SLOAD SWAP1 PUSH2 0x100 EXP SWAP1 DIV PUSH20 0xFFFFFFFFFFFFFFFFFFFFFFFFFFFFFFFFFFFFFFFF AND DUP2 JUMP JUMPDEST PUSH1 0x9 SLOAD DUP2 JUMP JUMPDEST PUSH1 0x0 PUSH1 0x1 ISZERO ISZERO PUSH1 0x0 PUSH1 0x15 SWAP1 SLOAD SWAP1 PUSH2 0x100 EXP SWAP1 DIV PUSH1 0xFF AND ISZERO ISZERO EQ PUSH2 0xB12 JUMPI PUSH1 0x40 MLOAD PUSH32 0x8C379A000000000000000000000000000000000000000000000000000000000 DUP2 MSTORE PUSH1 0x4 ADD PUSH2 0xB09 SWAP1 PUSH2 0x1E50 JUMP JUMPDEST PUSH1 0x40 MLOAD DUP1 SWAP2 SUB SWAP1 REVERT JUMPDEST ADDRESS PUSH20 0xFFFFFFFFFFFFFFFFFFFFFFFFFFFFFFFFFFFFFFFF AND DUP3 PUSH20 0xFFFFFFFFFFFFFFFFFFFFFFFFFFFFFFFFFFFFFFFF AND EQ PUSH2 0xB80 JUMPI PUSH1 0x40 MLOAD PUSH32 0x8C379A000000000000000000000000000000000000000000000000000000000 DUP2 MSTORE PUSH1 0x4 ADD PUSH2 0xB77 SWAP1 PUSH2 0x25FF JUMP JUMPDEST PUSH1 0x40 MLOAD DUP1 SWAP2 SUB SWAP1 REVERT JUMPDEST PUSH1 0x1 ISZERO ISZERO PUSH1 0x0 DUP1 SLOAD SWAP1 PUSH2 0x100 EXP SWAP1 DIV PUSH1 0xFF AND ISZERO ISZERO SUB ISZERO PUSH2 0xDEC JUMPI DUP3 PUSH1 0x4 SLOAD PUSH2 0xBA8 SWAP2 SWAP1 PUSH2 0x1F15 JUMP JUMPDEST PUSH1 0x4 DUP2 SWAP1 SSTORE POP PUSH1 0x0 PUSH1 0x3 SLOAD SWAP1 POP PUSH1 0x4 SLOAD PUSH1 0x2 SLOAD PUSH2 0xBC5 SWAP2 SWAP1 PUSH2 0x1F78 JUMP JUMPDEST PUSH1 0x3 DUP2 SWAP1 SSTORE POP PUSH1 0x0 PUSH1 0x3 SLOAD DUP3 PUSH2 0xBDB SWAP2 SWAP1 PUSH2 0x1FA9 JUMP JUMPDEST SWAP1 POP PUSH1 0x8 SLOAD DUP2 PUSH1 0x7 SLOAD PUSH2 0xBEE SWAP2 SWAP1 PUSH2 0x1FDD JUMP JUMPDEST PUSH2 0xBF8 SWAP2 SWAP1 PUSH2 0x1F78 JUMP JUMPDEST PUSH1 0x9 SLOAD PUSH2 0xC05 SWAP2 SWAP1 PUSH2 0x1F15 JUMP JUMPDEST PUSH1 0x9 DUP2 SWAP1 SSTORE POP SELFBALANCE DUP2 GT ISZERO PUSH2 0xC4E JUMPI PUSH1 0x40 MLOAD PUSH32 0x8C379A000000000000000000000000000000000000000000000000000000000 DUP2 MSTORE PUSH1 0x4 ADD PUSH2 0xC45 SWAP1 PUSH2 0x2691 JUMP JUMPDEST PUSH1 0x40 MLOAD DUP1 SWAP2 SUB SWAP1 REVERT JUMPDEST PUSH1 0x0 CALLER PUSH20 0xFFFFFFFFFFFFFFFFFFFFFFFFFFFFFFFFFFFFFFFF AND DUP3 PUSH1 0x40 MLOAD PUSH2 0xC74 SWAP1 PUSH2 0x26E2 JUMP JUMPDEST PUSH1 0x0 PUSH1 0x40 MLOAD DUP1 DUP4 SUB DUP2 DUP6 DUP8 GAS CALL SWAP3 POP POP POP RETURNDATASIZE DUP1 PUSH1 0x0 DUP2 EQ PUSH2 0xCB1 JUMPI PUSH1 0x40 MLOAD SWAP2 POP PUSH1 0x1F NOT PUSH1 0x3F RETURNDATASIZE ADD AND DUP3 ADD PUSH1 0x40 MSTORE RETURNDATASIZE DUP3 MSTORE RETURNDATASIZE PUSH1 0x0 PUSH1 0x20 DUP5 ADD RETURNDATACOPY PUSH2 0xCB6 JUMP JUMPDEST PUSH1 0x60 SWAP2 POP JUMPDEST POP POP SWAP1 POP DUP1 PUSH2 0xCFA JUMPI PUSH1 0x40 MLOAD PUSH32 0x8C379A000000000000000000000000000000000000000000000000000000000 DUP2 MSTORE PUSH1 0x4 ADD PUSH2 0xCF1 SWAP1 PUSH2 0x2769 JUMP JUMPDEST PUSH1 0x40 MLOAD DUP1 SWAP2 SUB SWAP1 REVERT JUMPDEST PUSH1 0x0 PUSH1 0xC PUSH1 0x0 SWAP1 SLOAD SWAP1 PUSH2 0x100 EXP SWAP1 DIV PUSH20 0xFFFFFFFFFFFFFFFFFFFFFFFFFFFFFFFFFFFFFFFF AND PUSH20 0xFFFFFFFFFFFFFFFFFFFFFFFFFFFFFFFFFFFFFFFF AND PUSH4 0x23B872DD CALLER ADDRESS DUP11 PUSH1 0x40 MLOAD DUP5 PUSH4 0xFFFFFFFF AND PUSH1 0xE0 SHL DUP2 MSTORE PUSH1 0x4 ADD PUSH2 0xD5B SWAP4 SWAP3 SWAP2 SWAP1 PUSH2 0x2789 JUMP JUMPDEST PUSH1 0x20 PUSH1 0x40 MLOAD DUP1 DUP4 SUB DUP2 PUSH1 0x0 DUP8 GAS CALL ISZERO DUP1 ISZERO PUSH2 0xD7A JUMPI RETURNDATASIZE PUSH1 0x0 DUP1 RETURNDATACOPY RETURNDATASIZE PUSH1 0x0 REVERT JUMPDEST POP POP POP POP PUSH1 0x40 MLOAD RETURNDATASIZE PUSH1 0x1F NOT PUSH1 0x1F DUP3 ADD AND DUP3 ADD DUP1 PUSH1 0x40 MSTORE POP DUP2 ADD SWAP1 PUSH2 0xD9E SWAP2 SWAP1 PUSH2 0x2158 JUMP JUMPDEST SWAP1 POP PUSH1 0x1 ISZERO ISZERO DUP2 ISZERO ISZERO EQ PUSH2 0xDE7 JUMPI PUSH1 0x40 MLOAD PUSH32 0x8C379A000000000000000000000000000000000000000000000000000000000 DUP2 MSTORE PUSH1 0x4 ADD PUSH2 0xDDE SWAP1 PUSH2 0x2832 JUMP JUMPDEST PUSH1 0x40 MLOAD DUP1 SWAP2 SUB SWAP1 REVERT JUMPDEST POP POP POP POP JUMPDEST PUSH1 0x1 SWAP1 POP SWAP4 SWAP3 POP POP POP JUMP JUMPDEST PUSH1 0x0 PUSH1 0x15 SWAP1 SLOAD SWAP1 PUSH2 0x100 EXP SWAP1 DIV PUSH1 0xFF AND DUP2 JUMP JUMPDEST PUSH1 0x6 PUSH1 0x20 MSTORE DUP1 PUSH1 0x0 MSTORE PUSH1 0x40 PUSH1 0x0 KECCAK256 PUSH1 0x0 SWAP2 POP SWAP1 POP SLOAD DUP2 JUMP JUMPDEST PUSH1 0x60 PUSH1 0xC PUSH1 0x0 SWAP1 SLOAD SWAP1 PUSH2 0x100 EXP SWAP1 DIV PUSH20 0xFFFFFFFFFFFFFFFFFFFFFFFFFFFFFFFFFFFFFFFF AND PUSH20 0xFFFFFFFFFFFFFFFFFFFFFFFFFFFFFFFFFFFFFFFF AND PUSH4 0x95D89B41 PUSH1 0x40 MLOAD DUP2 PUSH4 0xFFFFFFFF AND PUSH1 0xE0 SHL DUP2 MSTORE PUSH1 0x4 ADD PUSH1 0x0 PUSH1 0x40 MLOAD DUP1 DUP4 SUB DUP2 DUP7 GAS STATICCALL ISZERO DUP1 ISZERO PUSH2 0xE91 JUMPI RETURNDATASIZE PUSH1 0x0 DUP1 RETURNDATACOPY RETURNDATASIZE PUSH1 0x0 REVERT JUMPDEST POP POP POP POP PUSH1 0x40 MLOAD RETURNDATASIZE PUSH1 0x0 DUP3 RETURNDATACOPY RETURNDATASIZE PUSH1 0x1F NOT PUSH1 0x1F DUP3 ADD AND DUP3 ADD DUP1 PUSH1 0x40 MSTORE POP DUP2 ADD SWAP1 PUSH2 0xEBA SWAP2 SWAP1 PUSH2 0x2978 JUMP JUMPDEST SWAP1 POP SWAP1 JUMP JUMPDEST PUSH1 0x1 ISZERO ISZERO PUSH1 0x0 PUSH1 0x15 SWAP1 SLOAD SWAP1 PUSH2 0x100 EXP SWAP1 DIV PUSH1 0xFF AND ISZERO ISZERO EQ PUSH2 0xF15 JUMPI PUSH1 0x40 MLOAD PUSH32 0x8C379A000000000000000000000000000000000000000000000000000000000 DUP2 MSTORE PUSH1 0x4 ADD PUSH2 0xF0C SWAP1 PUSH2 0x1E50 JUMP JUMPDEST PUSH1 0x40 MLOAD DUP1 SWAP2 SUB SWAP1 REVERT JUMPDEST PUSH1 0x0 DUP2 GT PUSH2 0xF58 JUMPI PUSH1 0x40 MLOAD PUSH32 0x8C379A000000000000000000000000000000000000000000000000000000000 DUP2 MSTORE PUSH1 0x4 ADD PUSH2 0xF4F SWAP1 PUSH2 0x2A33 JUMP JUMPDEST PUSH1 0x40 MLOAD DUP1 SWAP2 SUB SWAP1 REVERT JUMPDEST SELFBALANCE DUP2 GT ISZERO PUSH2 0xF9B JUMPI PUSH1 0x40 MLOAD PUSH32 0x8C379A000000000000000000000000000000000000000000000000000000000 DUP2 MSTORE PUSH1 0x4 ADD PUSH2 0xF92 SWAP1 PUSH2 0x2691 JUMP JUMPDEST PUSH1 0x40 MLOAD DUP1 SWAP2 SUB SWAP1 REVERT JUMPDEST PUSH1 0x0 PUSH1 0x3 SLOAD PUSH1 0x4 SLOAD DUP4 PUSH2 0xFAE SWAP2 SWAP1 PUSH2 0x1FDD JUMP JUMPDEST PUSH2 0xFB8 SWAP2 SWAP1 PUSH2 0x1F78 JUMP JUMPDEST SWAP1 POP PUSH1 0xC PUSH1 0x0 SWAP1 SLOAD SWAP1 PUSH2 0x100 EXP SWAP1 DIV PUSH20 0xFFFFFFFFFFFFFFFFFFFFFFFFFFFFFFFFFFFFFFFF AND PUSH20 0xFFFFFFFFFFFFFFFFFFFFFFFFFFFFFFFFFFFFFFFF AND PUSH4 0x70A08231 ADDRESS PUSH1 0x40 MLOAD DUP3 PUSH4 0xFFFFFFFF AND PUSH1 0xE0 SHL DUP2 MSTORE PUSH1 0x4 ADD PUSH2 0x1015 SWAP2 SWAP1 PUSH2 0x2060 JUMP JUMPDEST PUSH1 0x20 PUSH1 0x40 MLOAD DUP1 DUP4 SUB DUP2 DUP7 GAS STATICCALL ISZERO DUP1 ISZERO PUSH2 0x1032 JUMPI RETURNDATASIZE PUSH1 0x0 DUP1 RETURNDATACOPY RETURNDATASIZE PUSH1 0x0 REVERT JUMPDEST POP POP POP POP PUSH1 0x40 MLOAD RETURNDATASIZE PUSH1 0x1F NOT PUSH1 0x1F DUP3 ADD AND DUP3 ADD DUP1 PUSH1 0x40 MSTORE POP DUP2 ADD SWAP1 PUSH2 0x1056 SWAP2 SWAP1 PUSH2 0x20BB JUMP JUMPDEST DUP2 GT ISZERO PUSH2 0x1062 JUMPI PUSH1 0x0 DUP1 REVERT JUMPDEST DUP2 PUSH1 0x3 SLOAD PUSH2 0x1070 SWAP2 SWAP1 PUSH2 0x1FA9 JUMP JUMPDEST PUSH1 0x3 DUP2 SWAP1 SSTORE POP DUP1 PUSH1 0x4 SLOAD PUSH2 0x1084 SWAP2 SWAP1 PUSH2 0x1FA9 JUMP JUMPDEST PUSH1 0x4 DUP2 SWAP1 SSTORE POP PUSH1 0x4 SLOAD PUSH1 0x3 SLOAD PUSH2 0x109A SWAP2 SWAP1 PUSH2 0x1FDD JUMP JUMPDEST PUSH1 0x2 DUP2 SWAP1 SSTORE POP PUSH1 0x0 CALLER PUSH20 0xFFFFFFFFFFFFFFFFFFFFFFFFFFFFFFFFFFFFFFFF AND DUP4 PUSH1 0x40 MLOAD PUSH2 0x10C6 SWAP1 PUSH2 0x26E2 JUMP JUMPDEST PUSH1 0x0 PUSH1 0x40 MLOAD DUP1 DUP4 SUB DUP2 DUP6 DUP8 GAS CALL SWAP3 POP POP POP RETURNDATASIZE DUP1 PUSH1 0x0 DUP2 EQ PUSH2 0x1103 JUMPI PUSH1 0x40 MLOAD SWAP2 POP PUSH1 0x1F NOT PUSH1 0x3F RETURNDATASIZE ADD AND DUP3 ADD PUSH1 0x40 MSTORE RETURNDATASIZE DUP3 MSTORE RETURNDATASIZE PUSH1 0x0 PUSH1 0x20 DUP5 ADD RETURNDATACOPY PUSH2 0x1108 JUMP JUMPDEST PUSH1 0x60 SWAP2 POP JUMPDEST POP POP SWAP1 POP DUP1 PUSH2 0x114C JUMPI PUSH1 0x40 MLOAD PUSH32 0x8C379A000000000000000000000000000000000000000000000000000000000 DUP2 MSTORE PUSH1 0x4 ADD PUSH2 0x1143 SWAP1 PUSH2 0x2A9F JUMP JUMPDEST PUSH1 0x40 MLOAD DUP1 SWAP2 SUB SWAP1 REVERT JUMPDEST PUSH1 0x1 PUSH1 0x0 DUP1 PUSH2 0x100 EXP DUP2 SLOAD DUP2 PUSH1 0xFF MUL NOT AND SWAP1 DUP4 ISZERO ISZERO MUL OR SWAP1 SSTORE POP PUSH1 0x0 PUSH1 0xC PUSH1 0x0 SWAP1 SLOAD SWAP1 PUSH2 0x100 EXP SWAP1 DIV PUSH20 0xFFFFFFFFFFFFFFFFFFFFFFFFFFFFFFFFFFFFFFFF AND PUSH20 0xFFFFFFFFFFFFFFFFFFFFFFFFFFFFFFFFFFFFFFFF AND PUSH4 0xA9059CBB CALLER DUP6 PUSH1 0x40 MLOAD DUP4 PUSH4 0xFFFFFFFF AND PUSH1 0xE0 SHL DUP2 MSTORE PUSH1 0x4 ADD PUSH2 0x11C5 SWAP3 SWAP2 SWAP1 PUSH2 0x20F7 JUMP JUMPDEST PUSH1 0x20 PUSH1 0x40 MLOAD DUP1 DUP4 SUB DUP2 PUSH1 0x0 DUP8 GAS CALL ISZERO DUP1 ISZERO PUSH2 0x11E4 JUMPI RETURNDATASIZE PUSH1 0x0 DUP1 RETURNDATACOPY RETURNDATASIZE PUSH1 0x0 REVERT JUMPDEST POP POP POP POP PUSH1 0x40 MLOAD RETURNDATASIZE PUSH1 0x1F NOT PUSH1 0x1F DUP3 ADD AND DUP3 ADD DUP1 PUSH1 0x40 MSTORE POP DUP2 ADD SWAP1 PUSH2 0x1208 SWAP2 SWAP1 PUSH2 0x2158 JUMP JUMPDEST SWAP1 POP PUSH1 0x1 ISZERO ISZERO DUP2 ISZERO ISZERO EQ PUSH2 0x1251 JUMPI PUSH1 0x40 MLOAD PUSH32 0x8C379A000000000000000000000000000000000000000000000000000000000 DUP2 MSTORE PUSH1 0x4 ADD PUSH2 0x1248 SWAP1 PUSH2 0x2B31 JUMP JUMPDEST PUSH1 0x40 MLOAD DUP1 SWAP2 SUB SWAP1 REVERT JUMPDEST PUSH1 0x0 DUP1 PUSH1 0x0 PUSH2 0x100 EXP DUP2 SLOAD DUP2 PUSH1 0xFF MUL NOT AND SWAP1 DUP4 ISZERO ISZERO MUL OR SWAP1 SSTORE POP PUSH8 0xDE0B6B3A7640000 PUSH2 0x127C PUSH2 0x19B5 JUMP JUMPDEST PUSH1 0x3 SLOAD PUSH2 0x1289 SWAP2 SWAP1 PUSH2 0x1FDD JUMP JUMPDEST PUSH2 0x1293 SWAP2 SWAP1 PUSH2 0x1F78 JUMP JUMPDEST PUSH1 0x5 PUSH1 0x0 ADDRESS PUSH20 0xFFFFFFFFFFFFFFFFFFFFFFFFFFFFFFFFFFFFFFFF AND PUSH20 0xFFFFFFFFFFFFFFFFFFFFFFFFFFFFFFFFFFFFFFFF AND DUP2 MSTORE PUSH1 0x20 ADD SWAP1 DUP2 MSTORE PUSH1 0x20 ADD PUSH1 0x0 KECCAK256 DUP2 SWAP1 SSTORE POP PUSH4 0x5F5E100 PUSH2 0x12E3 PUSH2 0xA55 JUMP JUMPDEST PUSH1 0x4 SLOAD PUSH2 0x12F0 SWAP2 SWAP1 PUSH2 0x1FDD JUMP JUMPDEST PUSH2 0x12FA SWAP2 SWAP1 PUSH2 0x1F78 JUMP JUMPDEST PUSH1 0x6 PUSH1 0x0 ADDRESS PUSH20 0xFFFFFFFFFFFFFFFFFFFFFFFFFFFFFFFFFFFFFFFF AND PUSH20 0xFFFFFFFFFFFFFFFFFFFFFFFFFFFFFFFFFFFFFFFF AND DUP2 MSTORE PUSH1 0x20 ADD SWAP1 DUP2 MSTORE PUSH1 0x20 ADD PUSH1 0x0 KECCAK256 DUP2 SWAP1 SSTORE POP PUSH32 0x8866993F7C029BE4215942B34C1545282B8F28836579F2687FE96A5A6BF77704 PUSH1 0x40 MLOAD PUSH1 0x40 MLOAD DUP1 SWAP2 SUB SWAP1 LOG1 POP POP POP POP JUMP JUMPDEST PUSH1 0x0 PUSH1 0x60 DUP1 PUSH1 0x0 DUP1 PUSH1 0x0 DUP1 PUSH1 0x0 DUP1 PUSH1 0x0 DUP1 PUSH1 0x0 ADDRESS PUSH1 0xC PUSH1 0x0 SWAP1 SLOAD SWAP1 PUSH2 0x100 EXP SWAP1 DIV PUSH20 0xFFFFFFFFFFFFFFFFFFFFFFFFFFFFFFFFFFFFFFFF AND PUSH20 0xFFFFFFFFFFFFFFFFFFFFFFFFFFFFFFFFFFFFFFFF AND PUSH4 0x95D89B41 PUSH1 0x40 MLOAD DUP2 PUSH4 0xFFFFFFFF AND PUSH1 0xE0 SHL DUP2 MSTORE PUSH1 0x4 ADD PUSH1 0x0 PUSH1 0x40 MLOAD DUP1 DUP4 SUB DUP2 DUP7 GAS STATICCALL ISZERO DUP1 ISZERO PUSH2 0x13F0 JUMPI RETURNDATASIZE PUSH1 0x0 DUP1 RETURNDATACOPY RETURNDATASIZE PUSH1 0x0 REVERT JUMPDEST POP POP POP POP PUSH1 0x40 MLOAD RETURNDATASIZE PUSH1 0x0 DUP3 RETURNDATACOPY RETURNDATASIZE PUSH1 0x1F NOT PUSH1 0x1F DUP3 ADD AND DUP3 ADD DUP1 PUSH1 0x40 MSTORE POP DUP2 ADD SWAP1 PUSH2 0x1419 SWAP2 SWAP1 PUSH2 0x2978 JUMP JUMPDEST PUSH1 0xC PUSH1 0x0 SWAP1 SLOAD SWAP1 PUSH2 0x100 EXP SWAP1 DIV PUSH20 0xFFFFFFFFFFFFFFFFFFFFFFFFFFFFFFFFFFFFFFFF AND PUSH20 0xFFFFFFFFFFFFFFFFFFFFFFFFFFFFFFFFFFFFFFFF AND PUSH4 0x6FDDE03 PUSH1 0x40 MLOAD DUP2 PUSH4 0xFFFFFFFF AND PUSH1 0xE0 SHL DUP2 MSTORE PUSH1 0x4 ADD PUSH1 0x0 PUSH1 0x40 MLOAD DUP1 DUP4 SUB DUP2 DUP7 GAS STATICCALL ISZERO DUP1 ISZERO PUSH2 0x1486 JUMPI RETURNDATASIZE PUSH1 0x0 DUP1 RETURNDATACOPY RETURNDATASIZE PUSH1 0x0 REVERT JUMPDEST POP POP POP POP PUSH1 0x40 MLOAD RETURNDATASIZE PUSH1 0x0 DUP3 RETURNDATACOPY RETURNDATASIZE PUSH1 0x1F NOT PUSH1 0x1F DUP3 ADD AND DUP3 ADD DUP1 PUSH1 0x40 MSTORE POP DUP2 ADD SWAP1 PUSH2 0x14AF SWAP2 SWAP1 PUSH2 0x2978 JUMP JUMPDEST PUSH1 0xC PUSH1 0x0 SWAP1 SLOAD SWAP1 PUSH2 0x100 EXP SWAP1 DIV PUSH20 0xFFFFFFFFFFFFFFFFFFFFFFFFFFFFFFFFFFFFFFFF AND PUSH1 0x2 SLOAD PUSH1 0x3 SLOAD PUSH1 0x4 SLOAD PUSH1 0x7 SLOAD PUSH1 0x8 SLOAD PUSH1 0x1 SLOAD PUSH1 0x9 SLOAD PUSH1 0xA SLOAD SWAP12 POP SWAP12 POP SWAP12 POP SWAP12 POP SWAP12 POP SWAP12 POP SWAP12 POP SWAP12 POP SWAP12 POP SWAP12 POP SWAP12 POP SWAP12 POP SWAP1 SWAP2 SWAP3 SWAP4 SWAP5 SWAP6 SWAP7 SWAP8 SWAP9 SWAP10 SWAP11 SWAP12 JUMP JUMPDEST PUSH1 0x4 SLOAD DUP2 JUMP JUMPDEST PUSH1 0x0 ISZERO ISZERO PUSH1 0x0 PUSH1 0x15 SWAP1 SLOAD SWAP1 PUSH2 0x100 EXP SWAP1 DIV PUSH1 0xFF AND ISZERO ISZERO EQ PUSH2 0x156C JUMPI PUSH1 0x40 MLOAD PUSH32 0x8C379A000000000000000000000000000000000000000000000000000000000 DUP2 MSTORE PUSH1 0x4 ADD PUSH2 0x1563 SWAP1 PUSH2 0x2BC3 JUMP JUMPDEST PUSH1 0x40 MLOAD DUP1 SWAP2 SUB SWAP1 REVERT JUMPDEST PUSH1 0x0 PUSH1 0x1 SWAP1 SLOAD SWAP1 PUSH2 0x100 EXP SWAP1 DIV PUSH20 0xFFFFFFFFFFFFFFFFFFFFFFFFFFFFFFFFFFFFFFFF AND PUSH20 0xFFFFFFFFFFFFFFFFFFFFFFFFFFFFFFFFFFFFFFFF AND CALLER PUSH20 0xFFFFFFFFFFFFFFFFFFFFFFFFFFFFFFFFFFFFFFFF AND EQ PUSH2 0x15FC JUMPI PUSH1 0x40 MLOAD PUSH32 0x8C379A000000000000000000000000000000000000000000000000000000000 DUP2 MSTORE PUSH1 0x4 ADD PUSH2 0x15F3 SWAP1 PUSH2 0x2C2F JUMP JUMPDEST PUSH1 0x40 MLOAD DUP1 SWAP2 SUB SWAP1 REVERT JUMPDEST PUSH1 0x0 CALLVALUE GT PUSH2 0x163F JUMPI PUSH1 0x40 MLOAD PUSH32 0x8C379A000000000000000000000000000000000000000000000000000000000 DUP2 MSTORE PUSH1 0x4 ADD PUSH2 0x1636 SWAP1 PUSH2 0x2C9B JUMP JUMPDEST PUSH1 0x40 MLOAD DUP1 SWAP2 SUB SWAP1 REVERT JUMPDEST DUP4 PUSH1 0x7 DUP2 SWAP1 SSTORE POP DUP3 PUSH1 0x8 DUP2 SWAP1 SSTORE POP CALLVALUE PUSH1 0x3 DUP2 SWAP1 SSTORE POP DUP5 PUSH1 0x4 DUP2 SWAP1 SSTORE POP PUSH1 0x4 SLOAD PUSH1 0x3 SLOAD PUSH2 0x166B SWAP2 SWAP1 PUSH2 0x1FDD JUMP JUMPDEST PUSH1 0x2 DUP2 SWAP1 SSTORE POP PUSH2 0x167A DUP2 PUSH2 0x1DAF JUMP JUMPDEST DUP2 PUSH1 0xC PUSH1 0x0 PUSH2 0x100 EXP DUP2 SLOAD DUP2 PUSH20 0xFFFFFFFFFFFFFFFFFFFFFFFFFFFFFFFFFFFFFFFF MUL NOT AND SWAP1 DUP4 PUSH20 0xFFFFFFFFFFFFFFFFFFFFFFFFFFFFFFFFFFFFFFFF AND MUL OR SWAP1 SSTORE POP PUSH1 0xC PUSH1 0x0 SWAP1 SLOAD SWAP1 PUSH2 0x100 EXP SWAP1 DIV PUSH20 0xFFFFFFFFFFFFFFFFFFFFFFFFFFFFFFFFFFFFFFFF AND PUSH20 0xFFFFFFFFFFFFFFFFFFFFFFFFFFFFFFFFFFFFFFFF AND PUSH4 0x313CE567 PUSH1 0x40 MLOAD DUP2 PUSH4 0xFFFFFFFF AND PUSH1 0xE0 SHL DUP2 MSTORE PUSH1 0x4 ADD PUSH1 0x20 PUSH1 0x40 MLOAD DUP1 DUP4 SUB DUP2 DUP7 GAS STATICCALL ISZERO DUP1 ISZERO PUSH2 0x1728 JUMPI RETURNDATASIZE PUSH1 0x0 DUP1 RETURNDATACOPY RETURNDATASIZE PUSH1 0x0 REVERT JUMPDEST POP POP POP POP PUSH1 0x40 MLOAD RETURNDATASIZE PUSH1 0x1F NOT PUSH1 0x1F DUP3 ADD AND DUP3 ADD DUP1 PUSH1 0x40 MSTORE POP DUP2 ADD SWAP1 PUSH2 0x174C SWAP2 SWAP1 PUSH2 0x2CF4 JUMP JUMPDEST PUSH1 0xFF AND PUSH1 0x1 DUP2 SWAP1 SSTORE POP PUSH1 0x1 PUSH1 0x0 PUSH1 0x15 PUSH2 0x100 EXP DUP2 SLOAD DUP2 PUSH1 0xFF MUL NOT AND SWAP1 DUP4 ISZERO ISZERO MUL OR SWAP1 SSTORE POP PUSH1 0x0 PUSH1 0xC PUSH1 0x0 SWAP1 SLOAD SWAP1 PUSH2 0x100 EXP SWAP1 DIV PUSH20 0xFFFFFFFFFFFFFFFFFFFFFFFFFFFFFFFFFFFFFFFF AND PUSH20 0xFFFFFFFFFFFFFFFFFFFFFFFFFFFFFFFFFFFFFFFF AND PUSH4 0x23B872DD CALLER ADDRESS DUP10 PUSH1 0x40 MLOAD DUP5 PUSH4 0xFFFFFFFF AND PUSH1 0xE0 SHL DUP2 MSTORE PUSH1 0x4 ADD PUSH2 0x17D1 SWAP4 SWAP3 SWAP2 SWAP1 PUSH2 0x2789 JUMP JUMPDEST PUSH1 0x20 PUSH1 0x40 MLOAD DUP1 DUP4 SUB DUP2 PUSH1 0x0 DUP8 GAS CALL ISZERO DUP1 ISZERO PUSH2 0x17F0 JUMPI RETURNDATASIZE PUSH1 0x0 DUP1 RETURNDATACOPY RETURNDATASIZE PUSH1 0x0 REVERT JUMPDEST POP POP POP POP PUSH1 0x40 MLOAD RETURNDATASIZE PUSH1 0x1F NOT PUSH1 0x1F DUP3 ADD AND DUP3 ADD DUP1 PUSH1 0x40 MSTORE POP DUP2 ADD SWAP1 PUSH2 0x1814 SWAP2 SWAP1 PUSH2 0x2158 JUMP JUMPDEST SWAP1 POP PUSH1 0x1 ISZERO ISZERO DUP2 ISZERO ISZERO EQ PUSH2 0x185D JUMPI PUSH1 0x40 MLOAD PUSH32 0x8C379A000000000000000000000000000000000000000000000000000000000 DUP2 MSTORE PUSH1 0x4 ADD PUSH2 0x1854 SWAP1 PUSH2 0x2B31 JUMP JUMPDEST PUSH1 0x40 MLOAD DUP1 SWAP2 SUB SWAP1 REVERT JUMPDEST PUSH8 0xDE0B6B3A7640000 PUSH2 0x186E PUSH2 0x19B5 JUMP JUMPDEST PUSH1 0x3 SLOAD PUSH2 0x187B SWAP2 SWAP1 PUSH2 0x1FDD JUMP JUMPDEST PUSH2 0x1885 SWAP2 SWAP1 PUSH2 0x1F78 JUMP JUMPDEST PUSH1 0x5 PUSH1 0x0 ADDRESS PUSH20 0xFFFFFFFFFFFFFFFFFFFFFFFFFFFFFFFFFFFFFFFF AND PUSH20 0xFFFFFFFFFFFFFFFFFFFFFFFFFFFFFFFFFFFFFFFF AND DUP2 MSTORE PUSH1 0x20 ADD SWAP1 DUP2 MSTORE PUSH1 0x20 ADD PUSH1 0x0 KECCAK256 DUP2 SWAP1 SSTORE POP PUSH4 0x5F5E100 PUSH2 0x18D5 PUSH2 0xA55 JUMP JUMPDEST PUSH1 0x4 SLOAD PUSH2 0x18E2 SWAP2 SWAP1 PUSH2 0x1FDD JUMP JUMPDEST PUSH2 0x18EC SWAP2 SWAP1 PUSH2 0x1F78 JUMP JUMPDEST PUSH1 0x6 PUSH1 0x0 ADDRESS PUSH20 0xFFFFFFFFFFFFFFFFFFFFFFFFFFFFFFFFFFFFFFFF AND PUSH20 0xFFFFFFFFFFFFFFFFFFFFFFFFFFFFFFFFFFFFFFFF AND DUP2 MSTORE PUSH1 0x20 ADD SWAP1 DUP2 MSTORE PUSH1 0x20 ADD PUSH1 0x0 KECCAK256 DUP2 SWAP1 SSTORE POP PUSH32 0x8866993F7C029BE4215942B34C1545282B8F28836579F2687FE96A5A6BF77704 PUSH1 0x40 MLOAD PUSH1 0x40 MLOAD DUP1 SWAP2 SUB SWAP1 LOG1 POP POP POP POP POP POP JUMP JUMPDEST PUSH1 0x2 SLOAD DUP2 JUMP JUMPDEST PUSH1 0x0 PUSH8 0xDE0B6B3A7640000 PUSH2 0x197C PUSH2 0x19B5 JUMP JUMPDEST PUSH1 0x3 SLOAD PUSH2 0x1989 SWAP2 SWAP1 PUSH2 0x1FDD JUMP JUMPDEST PUSH1 0x2 PUSH2 0x1995 SWAP2 SWAP1 PUSH2 0x1FDD JUMP JUMPDEST PUSH2 0x199F SWAP2 SWAP1 PUSH2 0x1F78 JUMP JUMPDEST SWAP1 POP SWAP1 JUMP JUMPDEST PUSH1 0x0 DUP1 SLOAD SWAP1 PUSH2 0x100 EXP SWAP1 DIV PUSH1 0xFF AND DUP2 JUMP JUMPDEST PUSH1 0x0 PUSH1 0xB PUSH1 0x0 SWAP1 SLOAD SWAP1 PUSH2 0x100 EXP SWAP1 DIV PUSH20 0xFFFFFFFFFFFFFFFFFFFFFFFFFFFFFFFFFFFFFFFF AND PUSH20 0xFFFFFFFFFFFFFFFFFFFFFFFFFFFFFFFFFFFFFFFF AND PUSH4 0xA035B1FE PUSH1 0x40 MLOAD DUP2 PUSH4 0xFFFFFFFF AND PUSH1 0xE0 SHL DUP2 MSTORE PUSH1 0x4 ADD PUSH1 0x20 PUSH1 0x40 MLOAD DUP1 DUP4 SUB DUP2 DUP7 GAS STATICCALL ISZERO DUP1 ISZERO PUSH2 0x1A24 JUMPI RETURNDATASIZE PUSH1 0x0 DUP1 RETURNDATACOPY RETURNDATASIZE PUSH1 0x0 REVERT JUMPDEST POP POP POP POP PUSH1 0x40 MLOAD RETURNDATASIZE PUSH1 0x1F NOT PUSH1 0x1F DUP3 ADD AND DUP3 ADD DUP1 PUSH1 0x40 MSTORE POP DUP2 ADD SWAP1 PUSH2 0x1A48 SWAP2 SWAP1 PUSH2 0x20BB JUMP JUMPDEST SWAP1 POP SWAP1 JUMP JUMPDEST PUSH1 0x5 PUSH1 0x20 MSTORE DUP1 PUSH1 0x0 MSTORE PUSH1 0x40 PUSH1 0x0 KECCAK256 PUSH1 0x0 SWAP2 POP SWAP1 POP SLOAD DUP2 JUMP JUMPDEST PUSH1 0x0 PUSH1 0x1 SWAP1 SLOAD SWAP1 PUSH2 0x100 EXP SWAP1 DIV PUSH20 0xFFFFFFFFFFFFFFFFFFFFFFFFFFFFFFFFFFFFFFFF AND DUP2 JUMP JUMPDEST PUSH1 0x0 DUP1 REVERT JUMPDEST PUSH1 0x1 ISZERO ISZERO PUSH1 0x0 PUSH1 0x15 SWAP1 SLOAD SWAP1 PUSH2 0x100 EXP SWAP1 DIV PUSH1 0xFF AND ISZERO ISZERO EQ PUSH2 0x1AE6 JUMPI PUSH1 0x40 MLOAD PUSH32 0x8C379A000000000000000000000000000000000000000000000000000000000 DUP2 MSTORE PUSH1 0x4 ADD PUSH2 0x1ADD SWAP1 PUSH2 0x1E50 JUMP JUMPDEST PUSH1 0x40 MLOAD DUP1 SWAP2 SUB SWAP1 REVERT JUMPDEST PUSH1 0x0 CALLVALUE GT PUSH2 0x1B29 JUMPI PUSH1 0x40 MLOAD PUSH32 0x8C379A000000000000000000000000000000000000000000000000000000000 DUP2 MSTORE PUSH1 0x4 ADD PUSH2 0x1B20 SWAP1 PUSH2 0x2D93 JUMP JUMPDEST PUSH1 0x40 MLOAD DUP1 SWAP2 SUB SWAP1 REVERT JUMPDEST PUSH1 0x0 PUSH1 0x3 SLOAD PUSH1 0x4 SLOAD CALLVALUE PUSH2 0x1B3C SWAP2 SWAP1 PUSH2 0x1FDD JUMP JUMPDEST PUSH2 0x1B46 SWAP2 SWAP1 PUSH2 0x1F78 JUMP JUMPDEST SWAP1 POP CALLVALUE PUSH1 0x3 SLOAD PUSH2 0x1B56 SWAP2 SWAP1 PUSH2 0x1F15 JUMP JUMPDEST PUSH1 0x3 DUP2 SWAP1 SSTORE POP DUP1 PUSH1 0x4 SLOAD PUSH2 0x1B6A SWAP2 SWAP1 PUSH2 0x1F15 JUMP JUMPDEST PUSH1 0x4 DUP2 SWAP1 SSTORE POP PUSH1 0x4 SLOAD PUSH1 0x3 SLOAD PUSH2 0x1B80 SWAP2 SWAP1 PUSH2 0x1FDD JUMP JUMPDEST PUSH1 0x2 DUP2 SWAP1 SSTORE POP PUSH1 0x1 PUSH1 0x0 DUP1 PUSH2 0x100 EXP DUP2 SLOAD DUP2 PUSH1 0xFF MUL NOT AND SWAP1 DUP4 ISZERO ISZERO MUL OR SWAP1 SSTORE POP PUSH1 0x0 PUSH1 0xC PUSH1 0x0 SWAP1 SLOAD SWAP1 PUSH2 0x100 EXP SWAP1 DIV PUSH20 0xFFFFFFFFFFFFFFFFFFFFFFFFFFFFFFFFFFFFFFFF AND PUSH20 0xFFFFFFFFFFFFFFFFFFFFFFFFFFFFFFFFFFFFFFFF AND PUSH4 0x23B872DD CALLER ADDRESS DUP6 PUSH1 0x40 MLOAD DUP5 PUSH4 0xFFFFFFFF AND PUSH1 0xE0 SHL DUP2 MSTORE PUSH1 0x4 ADD PUSH2 0x1C01 SWAP4 SWAP3 SWAP2 SWAP1 PUSH2 0x2789 JUMP JUMPDEST PUSH1 0x20 PUSH1 0x40 MLOAD DUP1 DUP4 SUB DUP2 PUSH1 0x0 DUP8 GAS CALL ISZERO DUP1 ISZERO PUSH2 0x1C20 JUMPI RETURNDATASIZE PUSH1 0x0 DUP1 RETURNDATACOPY RETURNDATASIZE PUSH1 0x0 REVERT JUMPDEST POP POP POP POP PUSH1 0x40 MLOAD RETURNDATASIZE PUSH1 0x1F NOT PUSH1 0x1F DUP3 ADD AND DUP3 ADD DUP1 PUSH1 0x40 MSTORE POP DUP2 ADD SWAP1 PUSH2 0x1C44 SWAP2 SWAP1 PUSH2 0x2158 JUMP JUMPDEST SWAP1 POP PUSH1 0x1 ISZERO ISZERO DUP2 ISZERO ISZERO EQ PUSH2 0x1C8D JUMPI PUSH1 0x40 MLOAD PUSH32 0x8C379A000000000000000000000000000000000000000000000000000000000 DUP2 MSTORE PUSH1 0x4 ADD PUSH2 0x1C84 SWAP1 PUSH2 0x2B31 JUMP JUMPDEST PUSH1 0x40 MLOAD DUP1 SWAP2 SUB SWAP1 REVERT JUMPDEST PUSH1 0x0 DUP1 PUSH1 0x0 PUSH2 0x100 EXP DUP2 SLOAD DUP2 PUSH1 0xFF MUL NOT AND SWAP1 DUP4 ISZERO ISZERO MUL OR SWAP1 SSTORE POP PUSH8 0xDE0B6B3A7640000 PUSH2 0x1CB8 PUSH2 0x19B5 JUMP JUMPDEST PUSH1 0x3 SLOAD PUSH2 0x1CC5 SWAP2 SWAP1 PUSH2 0x1FDD JUMP JUMPDEST PUSH2 0x1CCF SWAP2 SWAP1 PUSH2 0x1F78 JUMP JUMPDEST PUSH1 0x5 PUSH1 0x0 ADDRESS PUSH20 0xFFFFFFFFFFFFFFFFFFFFFFFFFFFFFFFFFFFFFFFF AND PUSH20 0xFFFFFFFFFFFFFFFFFFFFFFFFFFFFFFFFFFFFFFFF AND DUP2 MSTORE PUSH1 0x20 ADD SWAP1 DUP2 MSTORE PUSH1 0x20 ADD PUSH1 0x0 KECCAK256 DUP2 SWAP1 SSTORE POP PUSH4 0x5F5E100 PUSH2 0x1D1F PUSH2 0xA55 JUMP JUMPDEST PUSH1 0x4 SLOAD PUSH2 0x1D2C SWAP2 SWAP1 PUSH2 0x1FDD JUMP JUMPDEST PUSH2 0x1D36 SWAP2 SWAP1 PUSH2 0x1F78 JUMP JUMPDEST PUSH1 0x6 PUSH1 0x0 ADDRESS PUSH20 0xFFFFFFFFFFFFFFFFFFFFFFFFFFFFFFFFFFFFFFFF AND PUSH20 0xFFFFFFFFFFFFFFFFFFFFFFFFFFFFFFFFFFFFFFFF AND DUP2 MSTORE PUSH1 0x20 ADD SWAP1 DUP2 MSTORE PUSH1 0x20 ADD PUSH1 0x0 KECCAK256 DUP2 SWAP1 SSTORE POP PUSH32 0x8866993F7C029BE4215942B34C1545282B8F28836579F2687FE96A5A6BF77704 PUSH1 0x40 MLOAD PUSH1 0x40 MLOAD DUP1 SWAP2 SUB SWAP1 LOG1 POP POP JUMP JUMPDEST PUSH1 0x7 SLOAD DUP2 JUMP JUMPDEST DUP1 PUSH1 0xB PUSH1 0x0 PUSH2 0x100 EXP DUP2 SLOAD DUP2 PUSH20 0xFFFFFFFFFFFFFFFFFFFFFFFFFFFFFFFFFFFFFFFF MUL NOT AND SWAP1 DUP4 PUSH20 0xFFFFFFFFFFFFFFFFFFFFFFFFFFFFFFFFFFFFFFFF AND MUL OR SWAP1 SSTORE POP POP JUMP JUMPDEST PUSH1 0x0 DUP3 DUP3 MSTORE PUSH1 0x20 DUP3 ADD SWAP1 POP SWAP3 SWAP2 POP POP JUMP JUMPDEST PUSH32 0x486176656E277420637265617465642074686520706F6F6C2079657421000000 PUSH1 0x0 DUP3 ADD MSTORE POP JUMP JUMPDEST PUSH1 0x0 PUSH2 0x1E3A PUSH1 0x1D DUP4 PUSH2 0x1DF3 JUMP JUMPDEST SWAP2 POP PUSH2 0x1E45 DUP3 PUSH2 0x1E04 JUMP JUMPDEST PUSH1 0x20 DUP3 ADD SWAP1 POP SWAP2 SWAP1 POP JUMP JUMPDEST PUSH1 0x0 PUSH1 0x20 DUP3 ADD SWAP1 POP DUP2 DUP2 SUB PUSH1 0x0 DUP4 ADD MSTORE PUSH2 0x1E69 DUP2 PUSH2 0x1E2D JUMP JUMPDEST SWAP1 POP SWAP2 SWAP1 POP JUMP JUMPDEST PUSH32 0x506F736974697665206574686572207265717569726564000000000000000000 PUSH1 0x0 DUP3 ADD MSTORE POP JUMP JUMPDEST PUSH1 0x0 PUSH2 0x1EA6 PUSH1 0x17 DUP4 PUSH2 0x1DF3 JUMP JUMPDEST SWAP2 POP PUSH2 0x1EB1 DUP3 PUSH2 0x1E70 JUMP JUMPDEST PUSH1 0x20 DUP3 ADD SWAP1 POP SWAP2 SWAP1 POP JUMP JUMPDEST PUSH1 0x0 PUSH1 0x20 DUP3 ADD SWAP1 POP DUP2 DUP2 SUB PUSH1 0x0 DUP4 ADD MSTORE PUSH2 0x1ED5 DUP2 PUSH2 0x1E99 JUMP JUMPDEST SWAP1 POP SWAP2 SWAP1 POP JUMP JUMPDEST PUSH1 0x0 DUP2 SWAP1 POP SWAP2 SWAP1 POP JUMP JUMPDEST PUSH32 0x4E487B7100000000000000000000000000000000000000000000000000000000 PUSH1 0x0 MSTORE PUSH1 0x11 PUSH1 0x4 MSTORE PUSH1 0x24 PUSH1 0x0 REVERT JUMPDEST PUSH1 0x0 PUSH2 0x1F20 DUP3 PUSH2 0x1EDC JUMP JUMPDEST SWAP2 POP PUSH2 0x1F2B DUP4 PUSH2 0x1EDC JUMP JUMPDEST SWAP3 POP DUP3 DUP3 ADD SWAP1 POP DUP1 DUP3 GT ISZERO PUSH2 0x1F43 JUMPI PUSH2 0x1F42 PUSH2 0x1EE6 JUMP JUMPDEST JUMPDEST SWAP3 SWAP2 POP POP JUMP JUMPDEST PUSH32 0x4E487B7100000000000000000000000000000000000000000000000000000000 PUSH1 0x0 MSTORE PUSH1 0x12 PUSH1 0x4 MSTORE PUSH1 0x24 PUSH1 0x0 REVERT JUMPDEST PUSH1 0x0 PUSH2 0x1F83 DUP3 PUSH2 0x1EDC JUMP JUMPDEST SWAP2 POP PUSH2 0x1F8E DUP4 PUSH2 0x1EDC JUMP JUMPDEST SWAP3 POP DUP3 PUSH2 0x1F9E JUMPI PUSH2 0x1F9D PUSH2 0x1F49 JUMP JUMPDEST JUMPDEST DUP3 DUP3 DIV SWAP1 POP SWAP3 SWAP2 POP POP JUMP JUMPDEST PUSH1 0x0 PUSH2 0x1FB4 DUP3 PUSH2 0x1EDC JUMP JUMPDEST SWAP2 POP PUSH2 0x1FBF DUP4 PUSH2 0x1EDC JUMP JUMPDEST SWAP3 POP DUP3 DUP3 SUB SWAP1 POP DUP2 DUP2 GT ISZERO PUSH2 0x1FD7 JUMPI PUSH2 0x1FD6 PUSH2 0x1EE6 JUMP JUMPDEST JUMPDEST SWAP3 SWAP2 POP POP JUMP JUMPDEST PUSH1 0x0 PUSH2 0x1FE8 DUP3 PUSH2 0x1EDC JUMP JUMPDEST SWAP2 POP PUSH2 0x1FF3 DUP4 PUSH2 0x1EDC JUMP JUMPDEST SWAP3 POP DUP3 DUP3 MUL PUSH2 0x2001 DUP2 PUSH2 0x1EDC JUMP JUMPDEST SWAP2 POP DUP3 DUP3 DIV DUP5 EQ DUP4 ISZERO OR PUSH2 0x2018 JUMPI PUSH2 0x2017 PUSH2 0x1EE6 JUMP JUMPDEST JUMPDEST POP SWAP3 SWAP2 POP POP JUMP JUMPDEST PUSH1 0x0 PUSH20 0xFFFFFFFFFFFFFFFFFFFFFFFFFFFFFFFFFFFFFFFF DUP3 AND SWAP1 POP SWAP2 SWAP1 POP JUMP JUMPDEST PUSH1 0x0 PUSH2 0x204A DUP3 PUSH2 0x201F JUMP JUMPDEST SWAP1 POP SWAP2 SWAP1 POP JUMP JUMPDEST PUSH2 0x205A DUP2 PUSH2 0x203F JUMP JUMPDEST DUP3 MSTORE POP POP JUMP JUMPDEST PUSH1 0x0 PUSH1 0x20 DUP3 ADD SWAP1 POP PUSH2 0x2075 PUSH1 0x0 DUP4 ADD DUP5 PUSH2 0x2051 JUMP JUMPDEST SWAP3 SWAP2 POP POP JUMP JUMPDEST PUSH1 0x0 PUSH1 0x40 MLOAD SWAP1 POP SWAP1 JUMP JUMPDEST PUSH1 0x0 DUP1 REVERT JUMPDEST PUSH1 0x0 DUP1 REVERT JUMPDEST PUSH2 0x2098 DUP2 PUSH2 0x1EDC JUMP JUMPDEST DUP2 EQ PUSH2 0x20A3 JUMPI PUSH1 0x0 DUP1 REVERT JUMPDEST POP JUMP JUMPDEST PUSH1 0x0 DUP2 MLOAD SWAP1 POP PUSH2 0x20B5 DUP2 PUSH2 0x208F JUMP JUMPDEST SWAP3 SWAP2 POP POP JUMP JUMPDEST PUSH1 0x0 PUSH1 0x20 DUP3 DUP5 SUB SLT ISZERO PUSH2 0x20D1 JUMPI PUSH2 0x20D0 PUSH2 0x2085 JUMP JUMPDEST JUMPDEST PUSH1 0x0 PUSH2 0x20DF DUP5 DUP3 DUP6 ADD PUSH2 0x20A6 JUMP JUMPDEST SWAP2 POP POP SWAP3 SWAP2 POP POP JUMP JUMPDEST PUSH2 0x20F1 DUP2 PUSH2 0x1EDC JUMP JUMPDEST DUP3 MSTORE POP POP JUMP JUMPDEST PUSH1 0x0 PUSH1 0x40 DUP3 ADD SWAP1 POP PUSH2 0x210C PUSH1 0x0 DUP4 ADD DUP6 PUSH2 0x2051 JUMP JUMPDEST PUSH2 0x2119 PUSH1 0x20 DUP4 ADD DUP5 PUSH2 0x20E8 JUMP JUMPDEST SWAP4 SWAP3 POP POP POP JUMP JUMPDEST PUSH1 0x0 DUP2 ISZERO ISZERO SWAP1 POP SWAP2 SWAP1 POP JUMP JUMPDEST PUSH2 0x2135 DUP2 PUSH2 0x2120 JUMP JUMPDEST DUP2 EQ PUSH2 0x2140 JUMPI PUSH1 0x0 DUP1 REVERT JUMPDEST POP JUMP JUMPDEST PUSH1 0x0 DUP2 MLOAD SWAP1 POP PUSH2 0x2152 DUP2 PUSH2 0x212C JUMP JUMPDEST SWAP3 SWAP2 POP POP JUMP JUMPDEST PUSH1 0x0 PUSH1 0x20 DUP3 DUP5 SUB SLT ISZERO PUSH2 0x216E JUMPI PUSH2 0x216D PUSH2 0x2085 JUMP JUMPDEST JUMPDEST PUSH1 0x0 PUSH2 0x217C DUP5 DUP3 DUP6 ADD PUSH2 0x2143 JUMP JUMPDEST SWAP2 POP POP SWAP3 SWAP2 POP POP JUMP JUMPDEST PUSH32 0x4661696C656420746F207472616E7366657220746F6B656E7320746F20646578 PUSH1 0x0 DUP3 ADD MSTORE PUSH32 0x20636F6E747261637420696E207265636569766520666E000000000000000000 PUSH1 0x20 DUP3 ADD MSTORE POP JUMP JUMPDEST PUSH1 0x0 PUSH2 0x21E1 PUSH1 0x37 DUP4 PUSH2 0x1DF3 JUMP JUMPDEST SWAP2 POP PUSH2 0x21EC DUP3 PUSH2 0x2185 JUMP JUMPDEST PUSH1 0x40 DUP3 ADD SWAP1 POP SWAP2 SWAP1 POP JUMP JUMPDEST PUSH1 0x0 PUSH1 0x20 DUP3 ADD SWAP1 POP DUP2 DUP2 SUB PUSH1 0x0 DUP4 ADD MSTORE PUSH2 0x2210 DUP2 PUSH2 0x21D4 JUMP JUMPDEST SWAP1 POP SWAP2 SWAP1 POP JUMP JUMPDEST PUSH1 0x0 PUSH32 0xFFFFFFFF00000000000000000000000000000000000000000000000000000000 DUP3 AND SWAP1 POP SWAP2 SWAP1 POP JUMP JUMPDEST PUSH2 0x224C DUP2 PUSH2 0x2217 JUMP JUMPDEST DUP2 EQ PUSH2 0x2257 JUMPI PUSH1 0x0 DUP1 REVERT JUMPDEST POP JUMP JUMPDEST PUSH1 0x0 DUP2 CALLDATALOAD SWAP1 POP PUSH2 0x2269 DUP2 PUSH2 0x2243 JUMP JUMPDEST SWAP3 SWAP2 POP POP JUMP JUMPDEST PUSH1 0x0 PUSH1 0x20 DUP3 DUP5 SUB SLT ISZERO PUSH2 0x2285 JUMPI PUSH2 0x2284 PUSH2 0x2085 JUMP JUMPDEST JUMPDEST PUSH1 0x0 PUSH2 0x2293 DUP5 DUP3 DUP6 ADD PUSH2 0x225A JUMP JUMPDEST SWAP2 POP POP SWAP3 SWAP2 POP POP JUMP JUMPDEST PUSH2 0x22A5 DUP2 PUSH2 0x2120 JUMP JUMPDEST DUP3 MSTORE POP POP JUMP JUMPDEST PUSH1 0x0 PUSH1 0x20 DUP3 ADD SWAP1 POP PUSH2 0x22C0 PUSH1 0x0 DUP4 ADD DUP5 PUSH2 0x229C JUMP JUMPDEST SWAP3 SWAP2 POP POP JUMP JUMPDEST PUSH1 0x0 PUSH1 0x20 DUP3 ADD SWAP1 POP PUSH2 0x22DB PUSH1 0x0 DUP4 ADD DUP5 PUSH2 0x20E8 JUMP JUMPDEST SWAP3 SWAP2 POP POP JUMP JUMPDEST PUSH2 0x22EA DUP2 PUSH2 0x203F JUMP JUMPDEST DUP2 EQ PUSH2 0x22F5 JUMPI PUSH1 0x0 DUP1 REVERT JUMPDEST POP JUMP JUMPDEST PUSH1 0x0 DUP2 CALLDATALOAD SWAP1 POP PUSH2 0x2307 DUP2 PUSH2 0x22E1 JUMP JUMPDEST SWAP3 SWAP2 POP POP JUMP JUMPDEST PUSH1 0x0 DUP2 CALLDATALOAD SWAP1 POP PUSH2 0x231C DUP2 PUSH2 0x208F JUMP JUMPDEST SWAP3 SWAP2 POP POP JUMP JUMPDEST PUSH1 0x0 DUP1 PUSH1 0x0 PUSH1 0x60 DUP5 DUP7 SUB SLT ISZERO PUSH2 0x233B JUMPI PUSH2 0x233A PUSH2 0x2085 JUMP JUMPDEST JUMPDEST PUSH1 0x0 PUSH2 0x2349 DUP7 DUP3 DUP8 ADD PUSH2 0x22F8 JUMP JUMPDEST SWAP4 POP POP PUSH1 0x20 PUSH2 0x235A DUP7 DUP3 DUP8 ADD PUSH2 0x230D JUMP JUMPDEST SWAP3 POP POP PUSH1 0x40 PUSH2 0x236B DUP7 DUP3 DUP8 ADD PUSH2 0x22F8 JUMP JUMPDEST SWAP2 POP POP SWAP3 POP SWAP3 POP SWAP3 JUMP JUMPDEST PUSH1 0x0 PUSH1 0x20 DUP3 DUP5 SUB SLT ISZERO PUSH2 0x238B JUMPI PUSH2 0x238A PUSH2 0x2085 JUMP JUMPDEST JUMPDEST PUSH1 0x0 PUSH2 0x2399 DUP5 DUP3 DUP6 ADD PUSH2 0x22F8 JUMP JUMPDEST SWAP2 POP POP SWAP3 SWAP2 POP POP JUMP JUMPDEST PUSH1 0x0 DUP2 MLOAD SWAP1 POP SWAP2 SWAP1 POP JUMP JUMPDEST PUSH1 0x0 JUMPDEST DUP4 DUP2 LT ISZERO PUSH2 0x23CB JUMPI DUP1 DUP3 ADD MLOAD DUP2 DUP5 ADD MSTORE PUSH1 0x20 DUP2 ADD SWAP1 POP PUSH2 0x23B0 JUMP JUMPDEST PUSH1 0x0 DUP5 DUP5 ADD MSTORE POP POP POP POP JUMP JUMPDEST PUSH1 0x0 PUSH1 0x1F NOT PUSH1 0x1F DUP4 ADD AND SWAP1 POP SWAP2 SWAP1 POP JUMP JUMPDEST PUSH1 0x0 PUSH2 0x23F3 DUP3 PUSH2 0x23A2 JUMP JUMPDEST PUSH2 0x23FD DUP2 DUP6 PUSH2 0x1DF3 JUMP JUMPDEST SWAP4 POP PUSH2 0x240D DUP2 DUP6 PUSH1 0x20 DUP7 ADD PUSH2 0x23AD JUMP JUMPDEST PUSH2 0x2416 DUP2 PUSH2 0x23D7 JUMP JUMPDEST DUP5 ADD SWAP2 POP POP SWAP3 SWAP2 POP POP JUMP JUMPDEST PUSH1 0x0 PUSH1 0x20 DUP3 ADD SWAP1 POP DUP2 DUP2 SUB PUSH1 0x0 DUP4 ADD MSTORE PUSH2 0x243B DUP2 DUP5 PUSH2 0x23E8 JUMP JUMPDEST SWAP1 POP SWAP3 SWAP2 POP POP JUMP JUMPDEST PUSH1 0x0 PUSH1 0x20 DUP3 DUP5 SUB SLT ISZERO PUSH2 0x2459 JUMPI PUSH2 0x2458 PUSH2 0x2085 JUMP JUMPDEST JUMPDEST PUSH1 0x0 PUSH2 0x2467 DUP5 DUP3 DUP6 ADD PUSH2 0x230D JUMP JUMPDEST SWAP2 POP POP SWAP3 SWAP2 POP POP JUMP JUMPDEST PUSH1 0x0 PUSH2 0x180 DUP3 ADD SWAP1 POP PUSH2 0x2486 PUSH1 0x0 DUP4 ADD DUP16 PUSH2 0x2051 JUMP JUMPDEST DUP2 DUP2 SUB PUSH1 0x20 DUP4 ADD MSTORE PUSH2 0x2498 DUP2 DUP15 PUSH2 0x23E8 JUMP JUMPDEST SWAP1 POP DUP2 DUP2 SUB PUSH1 0x40 DUP4 ADD MSTORE PUSH2 0x24AC DUP2 DUP14 PUSH2 0x23E8 JUMP JUMPDEST SWAP1 POP PUSH2 0x24BB PUSH1 0x60 DUP4 ADD DUP13 PUSH2 0x2051 JUMP JUMPDEST PUSH2 0x24C8 PUSH1 0x80 DUP4 ADD DUP12 PUSH2 0x20E8 JUMP JUMPDEST PUSH2 0x24D5 PUSH1 0xA0 DUP4 ADD DUP11 PUSH2 0x20E8 JUMP JUMPDEST PUSH2 0x24E2 PUSH1 0xC0 DUP4 ADD DUP10 PUSH2 0x20E8 JUMP JUMPDEST PUSH2 0x24EF PUSH1 0xE0 DUP4 ADD DUP9 PUSH2 0x20E8 JUMP JUMPDEST PUSH2 0x24FD PUSH2 0x100 DUP4 ADD DUP8 PUSH2 0x20E8 JUMP JUMPDEST PUSH2 0x250B PUSH2 0x120 DUP4 ADD DUP7 PUSH2 0x20E8 JUMP JUMPDEST PUSH2 0x2519 PUSH2 0x140 DUP4 ADD DUP6 PUSH2 0x20E8 JUMP JUMPDEST PUSH2 0x2527 PUSH2 0x160 DUP4 ADD DUP5 PUSH2 0x20E8 JUMP JUMPDEST SWAP14 SWAP13 POP POP POP POP POP POP POP POP POP POP POP POP POP JUMP JUMPDEST PUSH1 0x0 DUP1 PUSH1 0x0 DUP1 PUSH1 0x0 PUSH1 0xA0 DUP7 DUP9 SUB SLT ISZERO PUSH2 0x2554 JUMPI PUSH2 0x2553 PUSH2 0x2085 JUMP JUMPDEST JUMPDEST PUSH1 0x0 PUSH2 0x2562 DUP9 DUP3 DUP10 ADD PUSH2 0x230D JUMP JUMPDEST SWAP6 POP POP PUSH1 0x20 PUSH2 0x2573 DUP9 DUP3 DUP10 ADD PUSH2 0x230D JUMP JUMPDEST SWAP5 POP POP PUSH1 0x40 PUSH2 0x2584 DUP9 DUP3 DUP10 ADD PUSH2 0x230D JUMP JUMPDEST SWAP4 POP POP PUSH1 0x60 PUSH2 0x2595 DUP9 DUP3 DUP10 ADD PUSH2 0x22F8 JUMP JUMPDEST SWAP3 POP POP PUSH1 0x80 PUSH2 0x25A6 DUP9 DUP3 DUP10 ADD PUSH2 0x22F8 JUMP JUMPDEST SWAP2 POP POP SWAP3 SWAP6 POP SWAP3 SWAP6 SWAP1 SWAP4 POP JUMP JUMPDEST PUSH32 0x7769747479206572726F72206D65737361676500000000000000000000000000 PUSH1 0x0 DUP3 ADD MSTORE POP JUMP JUMPDEST PUSH1 0x0 PUSH2 0x25E9 PUSH1 0x13 DUP4 PUSH2 0x1DF3 JUMP JUMPDEST SWAP2 POP PUSH2 0x25F4 DUP3 PUSH2 0x25B3 JUMP JUMPDEST PUSH1 0x20 DUP3 ADD SWAP1 POP SWAP2 SWAP1 POP JUMP JUMPDEST PUSH1 0x0 PUSH1 0x20 DUP3 ADD SWAP1 POP DUP2 DUP2 SUB PUSH1 0x0 DUP4 ADD MSTORE PUSH2 0x2618 DUP2 PUSH2 0x25DC JUMP JUMPDEST SWAP1 POP SWAP2 SWAP1 POP JUMP JUMPDEST PUSH32 0x63616E6E6F742072656D6F7665206D6F7265206574686572207468616E206861 PUSH1 0x0 DUP3 ADD MSTORE PUSH32 0x7665000000000000000000000000000000000000000000000000000000000000 PUSH1 0x20 DUP3 ADD MSTORE POP JUMP JUMPDEST PUSH1 0x0 PUSH2 0x267B PUSH1 0x22 DUP4 PUSH2 0x1DF3 JUMP JUMPDEST SWAP2 POP PUSH2 0x2686 DUP3 PUSH2 0x261F JUMP JUMPDEST PUSH1 0x40 DUP3 ADD SWAP1 POP SWAP2 SWAP1 POP JUMP JUMPDEST PUSH1 0x0 PUSH1 0x20 DUP3 ADD SWAP1 POP DUP2 DUP2 SUB PUSH1 0x0 DUP4 ADD MSTORE PUSH2 0x26AA DUP2 PUSH2 0x266E JUMP JUMPDEST SWAP1 POP SWAP2 SWAP1 POP JUMP JUMPDEST PUSH1 0x0 DUP2 SWAP1 POP SWAP3 SWAP2 POP POP JUMP JUMPDEST POP JUMP JUMPDEST PUSH1 0x0 PUSH2 0x26CC PUSH1 0x0 DUP4 PUSH2 0x26B1 JUMP JUMPDEST SWAP2 POP PUSH2 0x26D7 DUP3 PUSH2 0x26BC JUMP JUMPDEST PUSH1 0x0 DUP3 ADD SWAP1 POP SWAP2 SWAP1 POP JUMP JUMPDEST PUSH1 0x0 PUSH2 0x26ED DUP3 PUSH2 0x26BF JUMP JUMPDEST SWAP2 POP DUP2 SWAP1 POP SWAP2 SWAP1 POP JUMP JUMPDEST PUSH32 0x6572633230207265636569766564207061796D656E74206469646E7420776F72 PUSH1 0x0 DUP3 ADD MSTORE PUSH32 0x6B00000000000000000000000000000000000000000000000000000000000000 PUSH1 0x20 DUP3 ADD MSTORE POP JUMP JUMPDEST PUSH1 0x0 PUSH2 0x2753 PUSH1 0x21 DUP4 PUSH2 0x1DF3 JUMP JUMPDEST SWAP2 POP PUSH2 0x275E DUP3 PUSH2 0x26F7 JUMP JUMPDEST PUSH1 0x40 DUP3 ADD SWAP1 POP SWAP2 SWAP1 POP JUMP JUMPDEST PUSH1 0x0 PUSH1 0x20 DUP3 ADD SWAP1 POP DUP2 DUP2 SUB PUSH1 0x0 DUP4 ADD MSTORE PUSH2 0x2782 DUP2 PUSH2 0x2746 JUMP JUMPDEST SWAP1 POP SWAP2 SWAP1 POP JUMP JUMPDEST PUSH1 0x0 PUSH1 0x60 DUP3 ADD SWAP1 POP PUSH2 0x279E PUSH1 0x0 DUP4 ADD DUP7 PUSH2 0x2051 JUMP JUMPDEST PUSH2 0x27AB PUSH1 0x20 DUP4 ADD DUP6 PUSH2 0x2051 JUMP JUMPDEST PUSH2 0x27B8 PUSH1 0x40 DUP4 ADD DUP5 PUSH2 0x20E8 JUMP JUMPDEST SWAP5 SWAP4 POP POP POP POP JUMP JUMPDEST PUSH32 0x4661696C656420746F207472616E7366657220746F6B656E7320746F20646578 PUSH1 0x0 DUP3 ADD MSTORE PUSH32 0x20636F6E747261637420696E20657263207265636569766520666E0000000000 PUSH1 0x20 DUP3 ADD MSTORE POP JUMP JUMPDEST PUSH1 0x0 PUSH2 0x281C PUSH1 0x3B DUP4 PUSH2 0x1DF3 JUMP JUMPDEST SWAP2 POP PUSH2 0x2827 DUP3 PUSH2 0x27C0 JUMP JUMPDEST PUSH1 0x40 DUP3 ADD SWAP1 POP SWAP2 SWAP1 POP JUMP JUMPDEST PUSH1 0x0 PUSH1 0x20 DUP3 ADD SWAP1 POP DUP2 DUP2 SUB PUSH1 0x0 DUP4 ADD MSTORE PUSH2 0x284B DUP2 PUSH2 0x280F JUMP JUMPDEST SWAP1 POP SWAP2 SWAP1 POP JUMP JUMPDEST PUSH1 0x0 DUP1 REVERT JUMPDEST PUSH1 0x0 DUP1 REVERT JUMPDEST PUSH32 0x4E487B7100000000000000000000000000000000000000000000000000000000 PUSH1 0x0 MSTORE PUSH1 0x41 PUSH1 0x4 MSTORE PUSH1 0x24 PUSH1 0x0 REVERT JUMPDEST PUSH2 0x2894 DUP3 PUSH2 0x23D7 JUMP JUMPDEST DUP2 ADD DUP2 DUP2 LT PUSH8 0xFFFFFFFFFFFFFFFF DUP3 GT OR ISZERO PUSH2 0x28B3 JUMPI PUSH2 0x28B2 PUSH2 0x285C JUMP JUMPDEST JUMPDEST DUP1 PUSH1 0x40 MSTORE POP POP POP JUMP JUMPDEST PUSH1 0x0 PUSH2 0x28C6 PUSH2 0x207B JUMP JUMPDEST SWAP1 POP PUSH2 0x28D2 DUP3 DUP3 PUSH2 0x288B JUMP JUMPDEST SWAP2 SWAP1 POP JUMP JUMPDEST PUSH1 0x0 PUSH8 0xFFFFFFFFFFFFFFFF DUP3 GT ISZERO PUSH2 0x28F2 JUMPI PUSH2 0x28F1 PUSH2 0x285C JUMP JUMPDEST JUMPDEST PUSH2 0x28FB DUP3 PUSH2 0x23D7 JUMP JUMPDEST SWAP1 POP PUSH1 0x20 DUP2 ADD SWAP1 POP SWAP2 SWAP1 POP JUMP JUMPDEST PUSH1 0x0 PUSH2 0x291B PUSH2 0x2916 DUP5 PUSH2 0x28D7 JUMP JUMPDEST PUSH2 0x28BC JUMP JUMPDEST SWAP1 POP DUP3 DUP2 MSTORE PUSH1 0x20 DUP2 ADD DUP5 DUP5 DUP5 ADD GT ISZERO PUSH2 0x2937 JUMPI PUSH2 0x2936 PUSH2 0x2857 JUMP JUMPDEST JUMPDEST PUSH2 0x2942 DUP5 DUP3 DUP6 PUSH2 0x23AD JUMP JUMPDEST POP SWAP4 SWAP3 POP POP POP JUMP JUMPDEST PUSH1 0x0 DUP3 PUSH1 0x1F DUP4 ADD SLT PUSH2 0x295F JUMPI PUSH2 0x295E PUSH2 0x2852 JUMP JUMPDEST JUMPDEST DUP2 MLOAD PUSH2 0x296F DUP5 DUP3 PUSH1 0x20 DUP7 ADD PUSH2 0x2908 JUMP JUMPDEST SWAP2 POP POP SWAP3 SWAP2 POP POP JUMP JUMPDEST PUSH1 0x0 PUSH1 0x20 DUP3 DUP5 SUB SLT ISZERO PUSH2 0x298E JUMPI PUSH2 0x298D PUSH2 0x2085 JUMP JUMPDEST JUMPDEST PUSH1 0x0 DUP3 ADD MLOAD PUSH8 0xFFFFFFFFFFFFFFFF DUP2 GT ISZERO PUSH2 0x29AC JUMPI PUSH2 0x29AB PUSH2 0x208A JUMP JUMPDEST JUMPDEST PUSH2 0x29B8 DUP5 DUP3 DUP6 ADD PUSH2 0x294A JUMP JUMPDEST SWAP2 POP POP SWAP3 SWAP2 POP POP JUMP JUMPDEST PUSH32 0x746F207375627472616374206C69717569646974792C206974206D7573742062 PUSH1 0x0 DUP3 ADD MSTORE PUSH32 0x6520706F73697469766520657468657200000000000000000000000000000000 PUSH1 0x20 DUP3 ADD MSTORE POP JUMP JUMPDEST PUSH1 0x0 PUSH2 0x2A1D PUSH1 0x30 DUP4 PUSH2 0x1DF3 JUMP JUMPDEST SWAP2 POP PUSH2 0x2A28 DUP3 PUSH2 0x29C1 JUMP JUMPDEST PUSH1 0x40 DUP3 ADD SWAP1 POP SWAP2 SWAP1 POP JUMP JUMPDEST PUSH1 0x0 PUSH1 0x20 DUP3 ADD SWAP1 POP DUP2 DUP2 SUB PUSH1 0x0 DUP4 ADD MSTORE PUSH2 0x2A4C DUP2 PUSH2 0x2A10 JUMP JUMPDEST SWAP1 POP SWAP2 SWAP1 POP JUMP JUMPDEST PUSH32 0x7061796D656E74206469646E277420776F726B00000000000000000000000000 PUSH1 0x0 DUP3 ADD MSTORE POP JUMP JUMPDEST PUSH1 0x0 PUSH2 0x2A89 PUSH1 0x13 DUP4 PUSH2 0x1DF3 JUMP JUMPDEST SWAP2 POP PUSH2 0x2A94 DUP3 PUSH2 0x2A53 JUMP JUMPDEST PUSH1 0x20 DUP3 ADD SWAP1 POP SWAP2 SWAP1 POP JUMP JUMPDEST PUSH1 0x0 PUSH1 0x20 DUP3 ADD SWAP1 POP DUP2 DUP2 SUB PUSH1 0x0 DUP4 ADD MSTORE PUSH2 0x2AB8 DUP2 PUSH2 0x2A7C JUMP JUMPDEST SWAP1 POP SWAP2 SWAP1 POP JUMP JUMPDEST PUSH32 0x4661696C656420746F207472616E7366657220746F6B656E7320746F20646578 PUSH1 0x0 DUP3 ADD MSTORE PUSH32 0x20636F6E747261637420696E2063726561746520706F6F6C0000000000000000 PUSH1 0x20 DUP3 ADD MSTORE POP JUMP JUMPDEST PUSH1 0x0 PUSH2 0x2B1B PUSH1 0x38 DUP4 PUSH2 0x1DF3 JUMP JUMPDEST SWAP2 POP PUSH2 0x2B26 DUP3 PUSH2 0x2ABF JUMP JUMPDEST PUSH1 0x40 DUP3 ADD SWAP1 POP SWAP2 SWAP1 POP JUMP JUMPDEST PUSH1 0x0 PUSH1 0x20 DUP3 ADD SWAP1 POP DUP2 DUP2 SUB PUSH1 0x0 DUP4 ADD MSTORE PUSH2 0x2B4A DUP2 PUSH2 0x2B0E JUMP JUMPDEST SWAP1 POP SWAP2 SWAP1 POP JUMP JUMPDEST PUSH32 0x506F6F6C20616C72656164792063726561746564212043616E742063616C6C20 PUSH1 0x0 DUP3 ADD MSTORE PUSH32 0x616761696E210000000000000000000000000000000000000000000000000000 PUSH1 0x20 DUP3 ADD MSTORE POP JUMP JUMPDEST PUSH1 0x0 PUSH2 0x2BAD PUSH1 0x26 DUP4 PUSH2 0x1DF3 JUMP JUMPDEST SWAP2 POP PUSH2 0x2BB8 DUP3 PUSH2 0x2B51 JUMP JUMPDEST PUSH1 0x40 DUP3 ADD SWAP1 POP SWAP2 SWAP1 POP JUMP JUMPDEST PUSH1 0x0 PUSH1 0x20 DUP3 ADD SWAP1 POP DUP2 DUP2 SUB PUSH1 0x0 DUP4 ADD MSTORE PUSH2 0x2BDC DUP2 PUSH2 0x2BA0 JUMP JUMPDEST SWAP1 POP SWAP2 SWAP1 POP JUMP JUMPDEST PUSH32 0x6F6E6C79206465706C6F7965722063616E2063616C6C20746869732100000000 PUSH1 0x0 DUP3 ADD MSTORE POP JUMP JUMPDEST PUSH1 0x0 PUSH2 0x2C19 PUSH1 0x1C DUP4 PUSH2 0x1DF3 JUMP JUMPDEST SWAP2 POP PUSH2 0x2C24 DUP3 PUSH2 0x2BE3 JUMP JUMPDEST PUSH1 0x20 DUP3 ADD SWAP1 POP SWAP2 SWAP1 POP JUMP JUMPDEST PUSH1 0x0 PUSH1 0x20 DUP3 ADD SWAP1 POP DUP2 DUP2 SUB PUSH1 0x0 DUP4 ADD MSTORE PUSH2 0x2C48 DUP2 PUSH2 0x2C0C JUMP JUMPDEST SWAP1 POP SWAP2 SWAP1 POP JUMP JUMPDEST PUSH32 0x6D757374207061737320696E2065746865722077697468207468652063616C6C PUSH1 0x0 DUP3 ADD MSTORE POP JUMP JUMPDEST PUSH1 0x0 PUSH2 0x2C85 PUSH1 0x20 DUP4 PUSH2 0x1DF3 JUMP JUMPDEST SWAP2 POP PUSH2 0x2C90 DUP3 PUSH2 0x2C4F JUMP JUMPDEST PUSH1 0x20 DUP3 ADD SWAP1 POP SWAP2 SWAP1 POP JUMP JUMPDEST PUSH1 0x0 PUSH1 0x20 DUP3 ADD SWAP1 POP DUP2 DUP2 SUB PUSH1 0x0 DUP4 ADD MSTORE PUSH2 0x2CB4 DUP2 PUSH2 0x2C78 JUMP JUMPDEST SWAP1 POP SWAP2 SWAP1 POP JUMP JUMPDEST PUSH1 0x0 PUSH1 0xFF DUP3 AND SWAP1 POP SWAP2 SWAP1 POP JUMP JUMPDEST PUSH2 0x2CD1 DUP2 PUSH2 0x2CBB JUMP JUMPDEST DUP2 EQ PUSH2 0x2CDC JUMPI PUSH1 0x0 DUP1 REVERT JUMPDEST POP JUMP JUMPDEST PUSH1 0x0 DUP2 MLOAD SWAP1 POP PUSH2 0x2CEE DUP2 PUSH2 0x2CC8 JUMP JUMPDEST SWAP3 SWAP2 POP POP JUMP JUMPDEST PUSH1 0x0 PUSH1 0x20 DUP3 DUP5 SUB SLT ISZERO PUSH2 0x2D0A JUMPI PUSH2 0x2D09 PUSH2 0x2085 JUMP JUMPDEST JUMPDEST PUSH1 0x0 PUSH2 0x2D18 DUP5 DUP3 DUP6 ADD PUSH2 0x2CDF JUMP JUMPDEST SWAP2 POP POP SWAP3 SWAP2 POP POP JUMP JUMPDEST PUSH32 0x746F20616464206C69717569646974792C206974206D75737420626520706F73 PUSH1 0x0 DUP3 ADD MSTORE PUSH32 0x6974697665206574686572000000000000000000000000000000000000000000 PUSH1 0x20 DUP3 ADD MSTORE POP JUMP JUMPDEST PUSH1 0x0 PUSH2 0x2D7D PUSH1 0x2B DUP4 PUSH2 0x1DF3 JUMP JUMPDEST SWAP2 POP PUSH2 0x2D88 DUP3 PUSH2 0x2D21 JUMP JUMPDEST PUSH1 0x40 DUP3 ADD SWAP1 POP SWAP2 SWAP1 POP JUMP JUMPDEST PUSH1 0x0 PUSH1 0x20 DUP3 ADD SWAP1 POP DUP2 DUP2 SUB PUSH1 0x0 DUP4 ADD MSTORE PUSH2 0x2DAC DUP2 PUSH2 0x2D70 JUMP JUMPDEST SWAP1 POP SWAP2 SWAP1 POP JUMP INVALID LOG2 PUSH5 0x6970667358 0x22 SLT KECCAK256 0xF 0xBE 0xE3 0x25 0xE8 SLOAD 0x24 MUL CREATE DUP5 0xED MSTORE 0xB0 JUMPI SLT SWAP16 SWAP1 0xD8 0x5E BALANCE 0xC8 SWAP1 SSTORE SWAP8 0xEC 0xA7 DUP12 LOG1 SELFBALANCE EXTCODEHASH LOG3 0x4D PUSH5 0x736F6C6343 STOP ADDMOD SLT STOP CALLER "
		},
		"gasEstimates": {
			"creation": {
				"codeDepositCost": "2350600",
				"executionCost": "75423",
				"totalCost": "2426023"
			},
			"external": {
				"addLiquidity()": "infinite",
				"adjustingLiquidity()": "2579",
				"createPool(uint256,uint256,uint256,address,address)": "infinite",
				"created_pool()": "2588",
				"decimals()": "2563",
				"deployer()": "2653",
				"erc20Address()": "2604",
				"etherLiquidityForAddress(address)": "2881",
				"etherPricer()": "2582",
				"feeDenominator()": "2497",
				"feeNumerator()": "2517",
				"feesEther()": "2519",
				"feesToken()": "2541",
				"getDEXinfo()": "infinite",
				"getEtherPrice()": "infinite",
				"getPoolLiquidityInUSDCents()": "infinite",
				"getTokenPrice()": "infinite",
				"k()": "2496",
				"onERC20Received(address,uint256,address)": "infinite",
				"removeLiquidity(uint256)": "infinite",
				"reset()": "185",
				"setEtherPricer(address)": "24832",
				"supportsInterface(bytes4)": "754",
				"symbol()": "infinite",
				"tokenLiquidityForAddress(address)": "2903",
				"x()": "2475",
				"y()": "2519"
			}
		},
		"methodIdentifiers": {
			"addLiquidity()": "e8078d94",
			"adjustingLiquidity()": "c7a4a7d1",
			"createPool(uint256,uint256,uint256,address,address)": "add010a5",
			"created_pool()": "7ffa030d",
			"decimals()": "313ce567",
			"deployer()": "d5f39488",
			"erc20Address()": "276184ae",
			"etherLiquidityForAddress(address)": "d3c51d91",
			"etherPricer()": "4f54a081",
			"feeDenominator()": "180b0d7e",
			"feeNumerator()": "e86dea4a",
			"feesEther()": "5dfd8773",
			"feesToken()": "2bfdf307",
			"getDEXinfo()": "9fed4ad8",
			"getEtherPrice()": "ca7c4dba",
			"getPoolLiquidityInUSDCents()": "b7c56525",
			"getTokenPrice()": "4b94f50e",
			"k()": "b4f40c61",
			"onERC20Received(address,uint256,address)": "7ff879e3",
			"removeLiquidity(uint256)": "9c8f9f23",
			"reset()": "d826f88f",
			"setEtherPricer(address)": "feffe7e4",
			"supportsInterface(bytes4)": "01ffc9a7",
			"symbol()": "95d89b41",
			"tokenLiquidityForAddress(address)": "8d729abb",
			"x()": "0c55699c",
			"y()": "a56dfe4a"
		}
	},
	"abi": [
		{
			"inputs": [],
			"stateMutability": "nonpayable",
			"type": "constructor"
		},
		{
			"anonymous": false,
			"inputs": [],
			"name": "liquidityChangeEvent",
			"type": "event"
		},
		{
			"inputs": [],
			"name": "addLiquidity",
			"outputs": [],
			"stateMutability": "payable",
			"type": "function"
		},
		{
			"inputs": [],
			"name": "adjustingLiquidity",
			"outputs": [
				{
					"internalType": "bool",
					"name": "",
					"type": "bool"
				}
			],
			"stateMutability": "view",
			"type": "function"
		},
		{
			"inputs": [
				{
					"internalType": "uint256",
					"name": "_tokenAmount",
					"type": "uint256"
				},
				{
					"internalType": "uint256",
					"name": "_feeNumerator",
					"type": "uint256"
				},
				{
					"internalType": "uint256",
					"name": "_feeDenominator",
					"type": "uint256"
				},
				{
					"internalType": "address",
					"name": "_erc20token",
					"type": "address"
				},
				{
					"internalType": "address",
					"name": "_etherPricer",
					"type": "address"
				}
			],
			"name": "createPool",
			"outputs": [],
			"stateMutability": "payable",
			"type": "function"
		},
		{
			"inputs": [],
			"name": "created_pool",
			"outputs": [
				{
					"internalType": "bool",
					"name": "",
					"type": "bool"
				}
			],
			"stateMutability": "view",
			"type": "function"
		},
		{
			"inputs": [],
			"name": "decimals",
			"outputs": [
				{
					"internalType": "uint256",
					"name": "",
					"type": "uint256"
				}
			],
			"stateMutability": "view",
			"type": "function"
		},
		{
			"inputs": [],
			"name": "deployer",
			"outputs": [
				{
					"internalType": "address",
					"name": "",
					"type": "address"
				}
			],
			"stateMutability": "view",
			"type": "function"
		},
		{
			"inputs": [],
			"name": "erc20Address",
			"outputs": [
				{
					"internalType": "address",
					"name": "",
					"type": "address"
				}
			],
			"stateMutability": "view",
			"type": "function"
		},
		{
			"inputs": [
				{
					"internalType": "address",
					"name": "",
					"type": "address"
				}
			],
			"name": "etherLiquidityForAddress",
			"outputs": [
				{
					"internalType": "uint256",
					"name": "",
					"type": "uint256"
				}
			],
			"stateMutability": "view",
			"type": "function"
		},
		{
			"inputs": [],
			"name": "etherPricer",
			"outputs": [
				{
					"internalType": "address",
					"name": "",
					"type": "address"
				}
			],
			"stateMutability": "view",
			"type": "function"
		},
		{
			"inputs": [],
			"name": "feeDenominator",
			"outputs": [
				{
					"internalType": "uint256",
					"name": "",
					"type": "uint256"
				}
			],
			"stateMutability": "view",
			"type": "function"
		},
		{
			"inputs": [],
			"name": "feeNumerator",
			"outputs": [
				{
					"internalType": "uint256",
					"name": "",
					"type": "uint256"
				}
			],
			"stateMutability": "view",
			"type": "function"
		},
		{
			"inputs": [],
			"name": "feesEther",
			"outputs": [
				{
					"internalType": "uint256",
					"name": "",
					"type": "uint256"
				}
			],
			"stateMutability": "view",
			"type": "function"
		},
		{
			"inputs": [],
			"name": "feesToken",
			"outputs": [
				{
					"internalType": "uint256",
					"name": "",
					"type": "uint256"
				}
			],
			"stateMutability": "view",
			"type": "function"
		},
		{
			"inputs": [],
			"name": "getDEXinfo",
			"outputs": [
				{
					"internalType": "address",
					"name": "",
					"type": "address"
				},
				{
					"internalType": "string",
					"name": "",
					"type": "string"
				},
				{
					"internalType": "string",
					"name": "",
					"type": "string"
				},
				{
					"internalType": "address",
					"name": "",
					"type": "address"
				},
				{
					"internalType": "uint256",
					"name": "",
					"type": "uint256"
				},
				{
					"internalType": "uint256",
					"name": "",
					"type": "uint256"
				},
				{
					"internalType": "uint256",
					"name": "",
					"type": "uint256"
				},
				{
					"internalType": "uint256",
					"name": "",
					"type": "uint256"
				},
				{
					"internalType": "uint256",
					"name": "",
					"type": "uint256"
				},
				{
					"internalType": "uint256",
					"name": "",
					"type": "uint256"
				},
				{
					"internalType": "uint256",
					"name": "",
					"type": "uint256"
				},
				{
					"internalType": "uint256",
					"name": "",
					"type": "uint256"
				}
			],
			"stateMutability": "view",
			"type": "function"
		},
		{
			"inputs": [],
			"name": "getEtherPrice",
			"outputs": [
				{
					"internalType": "uint256",
					"name": "",
					"type": "uint256"
				}
			],
			"stateMutability": "view",
			"type": "function"
		},
		{
			"inputs": [],
			"name": "getPoolLiquidityInUSDCents",
			"outputs": [
				{
					"internalType": "uint256",
					"name": "",
					"type": "uint256"
				}
			],
			"stateMutability": "view",
			"type": "function"
		},
		{
			"inputs": [],
			"name": "getTokenPrice",
			"outputs": [
				{
					"internalType": "uint256",
					"name": "",
					"type": "uint256"
				}
			],
			"stateMutability": "view",
			"type": "function"
		},
		{
			"inputs": [],
			"name": "k",
			"outputs": [
				{
					"internalType": "uint256",
					"name": "",
					"type": "uint256"
				}
			],
			"stateMutability": "view",
			"type": "function"
		},
		{
			"inputs": [
				{
					"internalType": "address",
					"name": "from",
					"type": "address"
				},
				{
					"internalType": "uint256",
					"name": "amount",
					"type": "uint256"
				},
				{
					"internalType": "address",
					"name": "erc20",
					"type": "address"
				}
			],
			"name": "onERC20Received",
			"outputs": [
				{
					"internalType": "bool",
					"name": "",
					"type": "bool"
				}
			],
			"stateMutability": "nonpayable",
			"type": "function"
		},
		{
			"inputs": [
				{
					"internalType": "uint256",
					"name": "amountEther",
					"type": "uint256"
				}
			],
			"name": "removeLiquidity",
			"outputs": [],
			"stateMutability": "nonpayable",
			"type": "function"
		},
		{
			"inputs": [],
			"name": "reset",
			"outputs": [],
			"stateMutability": "pure",
			"type": "function"
		},
		{
			"inputs": [
				{
					"internalType": "address",
					"name": "p",
					"type": "address"
				}
			],
			"name": "setEtherPricer",
			"outputs": [],
			"stateMutability": "nonpayable",
			"type": "function"
		},
		{
			"inputs": [
				{
					"internalType": "bytes4",
					"name": "interfaceId",
					"type": "bytes4"
				}
			],
			"name": "supportsInterface",
			"outputs": [
				{
					"internalType": "bool",
					"name": "",
					"type": "bool"
				}
			],
			"stateMutability": "pure",
			"type": "function"
		},
		{
			"inputs": [],
			"name": "symbol",
			"outputs": [
				{
					"internalType": "string",
					"name": "",
					"type": "string"
				}
			],
			"stateMutability": "view",
			"type": "function"
		},
		{
			"inputs": [
				{
					"internalType": "address",
					"name": "",
					"type": "address"
				}
			],
			"name": "tokenLiquidityForAddress",
			"outputs": [
				{
					"internalType": "uint256",
					"name": "",
					"type": "uint256"
				}
			],
			"stateMutability": "view",
			"type": "function"
		},
		{
			"inputs": [],
			"name": "x",
			"outputs": [
				{
					"internalType": "uint256",
					"name": "",
					"type": "uint256"
				}
			],
			"stateMutability": "view",
			"type": "function"
		},
		{
			"inputs": [],
			"name": "y",
			"outputs": [
				{
					"internalType": "uint256",
					"name": "",
					"type": "uint256"
				}
			],
			"stateMutability": "view",
			"type": "function"
		},
		{
			"stateMutability": "payable",
			"type": "receive"
		}
	]
}